{
  "contractName": "CryptoPatentBlockchain",
  "abi": [
    {
      "constant": true,
      "inputs": [],
      "name": "GUBG",
      "outputs": [
        {
          "name": "",
          "type": "address"
        }
      ],
      "payable": false,
      "stateMutability": "view",
      "type": "function"
    },
    {
      "constant": true,
      "inputs": [],
      "name": "memberCount",
      "outputs": [
        {
          "name": "",
          "type": "uint256"
        }
      ],
      "payable": false,
      "stateMutability": "view",
      "type": "function"
    },
    {
      "constant": true,
      "inputs": [],
      "name": "ideaBlockReward",
      "outputs": [
        {
          "name": "",
          "type": "uint256"
        }
      ],
      "payable": false,
      "stateMutability": "view",
      "type": "function"
    },
    {
      "constant": true,
      "inputs": [],
      "name": "globalBlockHalfTime",
      "outputs": [
        {
          "name": "",
          "type": "uint256"
        }
      ],
      "payable": false,
      "stateMutability": "view",
      "type": "function"
    },
    {
      "constant": true,
      "inputs": [],
      "name": "globalIdeaCount",
      "outputs": [
        {
          "name": "",
          "type": "uint256"
        }
      ],
      "payable": false,
      "stateMutability": "view",
      "type": "function"
    },
    {
      "constant": true,
      "inputs": [],
      "name": "IDC",
      "outputs": [
        {
          "name": "",
          "type": "address"
        }
      ],
      "payable": false,
      "stateMutability": "view",
      "type": "function"
    },
    {
      "constant": false,
      "inputs": [],
      "name": "renounceOwnership",
      "outputs": [],
      "payable": false,
      "stateMutability": "nonpayable",
      "type": "function"
    },
    {
      "constant": true,
      "inputs": [],
      "name": "globalUseBlock",
      "outputs": [
        {
          "name": "",
          "type": "uint256"
        }
      ],
      "payable": false,
      "stateMutability": "view",
      "type": "function"
    },
    {
      "constant": true,
      "inputs": [],
      "name": "RBG",
      "outputs": [
        {
          "name": "",
          "type": "address"
        }
      ],
      "payable": false,
      "stateMutability": "view",
      "type": "function"
    },
    {
      "constant": true,
      "inputs": [],
      "name": "owner",
      "outputs": [
        {
          "name": "",
          "type": "address"
        }
      ],
      "payable": false,
      "stateMutability": "view",
      "type": "function"
    },
    {
      "constant": true,
      "inputs": [],
      "name": "IBG",
      "outputs": [
        {
          "name": "",
          "type": "address"
        }
      ],
      "payable": false,
      "stateMutability": "view",
      "type": "function"
    },
    {
      "constant": true,
      "inputs": [],
      "name": "globalRepCount",
      "outputs": [
        {
          "name": "",
          "type": "uint256"
        }
      ],
      "payable": false,
      "stateMutability": "view",
      "type": "function"
    },
    {
      "constant": false,
      "inputs": [
        {
          "name": "_newOwner",
          "type": "address"
        }
      ],
      "name": "transferOwnership",
      "outputs": [],
      "payable": false,
      "stateMutability": "nonpayable",
      "type": "function"
    },
    {
      "inputs": [],
      "payable": false,
      "stateMutability": "nonpayable",
      "type": "constructor"
    },
    {
      "anonymous": false,
      "inputs": [
        {
          "indexed": true,
          "name": "previousOwner",
          "type": "address"
        }
      ],
      "name": "OwnershipRenounced",
      "type": "event"
    },
    {
      "anonymous": false,
      "inputs": [
        {
          "indexed": true,
          "name": "previousOwner",
          "type": "address"
        },
        {
          "indexed": true,
          "name": "newOwner",
          "type": "address"
        }
      ],
      "name": "OwnershipTransferred",
      "type": "event"
    },
    {
      "constant": false,
      "inputs": [
        {
          "name": "_mem",
          "type": "address"
        }
      ],
      "name": "addMember",
      "outputs": [],
      "payable": false,
      "stateMutability": "nonpayable",
      "type": "function"
    },
    {
      "constant": false,
      "inputs": [
        {
          "name": "_IDC",
          "type": "address"
        },
        {
          "name": "_IBG",
          "type": "address"
        },
        {
          "name": "_RBG",
          "type": "address"
        },
        {
          "name": "_GUBG",
          "type": "address"
        }
      ],
      "name": "setGenerators",
      "outputs": [],
      "payable": false,
      "stateMutability": "nonpayable",
      "type": "function"
    },
    {
      "constant": true,
      "inputs": [
        {
          "name": "_member",
          "type": "address"
        }
      ],
      "name": "checkIfMember",
      "outputs": [
        {
          "name": "",
          "type": "bool"
        }
      ],
      "payable": false,
      "stateMutability": "view",
      "type": "function"
    },
    {
      "constant": true,
      "inputs": [],
      "name": "getMemberCount",
      "outputs": [
        {
          "name": "",
          "type": "uint256"
        }
      ],
      "payable": false,
      "stateMutability": "view",
      "type": "function"
    },
    {
      "constant": false,
      "inputs": [
        {
          "name": "_ideaIPFS",
          "type": "string"
        },
        {
          "name": "_globalUseBlockAmount",
          "type": "uint256"
        },
        {
          "name": "_royalty",
          "type": "uint256"
        },
        {
          "name": "_miningTime",
          "type": "uint256"
        },
        {
          "name": "_inventor",
          "type": "address"
        }
      ],
      "name": "generateIdeaBlock",
      "outputs": [],
      "payable": false,
      "stateMutability": "nonpayable",
      "type": "function"
    },
    {
      "constant": false,
      "inputs": [
        {
          "name": "_ideaId",
          "type": "uint256"
        },
        {
          "name": "_repAdd",
          "type": "address"
        }
      ],
      "name": "generateReplicationBlock",
      "outputs": [],
      "payable": false,
      "stateMutability": "nonpayable",
      "type": "function"
    },
    {
      "constant": false,
      "inputs": [],
      "name": "generateUseBlockWeight",
      "outputs": [],
      "payable": false,
      "stateMutability": "nonpayable",
      "type": "function"
    }
  ],
  "bytecode": "0x6080604052683635c9adc5dea00000600a5534801561001d57600080fd5b50336000806101000a81548173ffffffffffffffffffffffffffffffffffffffff021916908373ffffffffffffffffffffffffffffffffffffffff160217905550426009819055506001600d60003373ffffffffffffffffffffffffffffffffffffffff1673ffffffffffffffffffffffffffffffffffffffff16815260200190815260200160002060006101000a81548160ff021916908315150217905550612585806100cc6000396000f300608060405260043610610111576000357c0100000000000000000000000000000000000000000000000000000000900463ffffffff168062beed731461011657806311aee3801461016d5780631ddc883b1461019857806328a6e47c146101c35780634951f6aa146101ee5780634cfa24091461024957806352d2c11d14610274578063715018a6146102cb57806375824974146102e25780637e81347d1461030d5780638da5cb5b14610364578063997072f7146103bb5780639df2c4de146103e6578063a416ecd71461043d578063be6cbbcf14610454578063ca6d56dc1461047f578063cb2d97f8146104c2578063d9cbd7a114610569578063f2fde38b1461060c578063f8c711fa1461064f575b600080fd5b34801561012257600080fd5b5061012b61069c565b604051808273ffffffffffffffffffffffffffffffffffffffff1673ffffffffffffffffffffffffffffffffffffffff16815260200191505060405180910390f35b34801561017957600080fd5b506101826106c2565b6040518082815260200191505060405180910390f35b3480156101a457600080fd5b506101ad6106c8565b6040518082815260200191505060405180910390f35b3480156101cf57600080fd5b506101d86106ce565b6040518082815260200191505060405180910390f35b3480156101fa57600080fd5b5061022f600480360381019080803573ffffffffffffffffffffffffffffffffffffffff1690602001909291905050506106d4565b604051808215151515815260200191505060405180910390f35b34801561025557600080fd5b5061025e61073e565b6040518082815260200191505060405180910390f35b34801561028057600080fd5b50610289610744565b604051808273ffffffffffffffffffffffffffffffffffffffff1673ffffffffffffffffffffffffffffffffffffffff16815260200191505060405180910390f35b3480156102d757600080fd5b506102e061076a565b005b3480156102ee57600080fd5b506102f761086c565b6040518082815260200191505060405180910390f35b34801561031957600080fd5b50610322610872565b604051808273ffffffffffffffffffffffffffffffffffffffff1673ffffffffffffffffffffffffffffffffffffffff16815260200191505060405180910390f35b34801561037057600080fd5b50610379610898565b604051808273ffffffffffffffffffffffffffffffffffffffff1673ffffffffffffffffffffffffffffffffffffffff16815260200191505060405180910390f35b3480156103c757600080fd5b506103d06108bd565b6040518082815260200191505060405180910390f35b3480156103f257600080fd5b506103fb6108c7565b604051808273ffffffffffffffffffffffffffffffffffffffff1673ffffffffffffffffffffffffffffffffffffffff16815260200191505060405180910390f35b34801561044957600080fd5b506104526108ed565b005b34801561046057600080fd5b50610469610a08565b6040518082815260200191505060405180910390f35b34801561048b57600080fd5b506104c0600480360381019080803573ffffffffffffffffffffffffffffffffffffffff169060200190929190505050610a0e565b005b3480156104ce57600080fd5b50610567600480360381019080803590602001908201803590602001908080601f0160208091040260200160405190810160405280939291908181526020018383808284378201915050505050509192919290803590602001909291908035906020019092919080359060200190929190803573ffffffffffffffffffffffffffffffffffffffff169060200190929190505050610ac4565b005b34801561057557600080fd5b5061060a600480360381019080803573ffffffffffffffffffffffffffffffffffffffff169060200190929190803573ffffffffffffffffffffffffffffffffffffffff169060200190929190803573ffffffffffffffffffffffffffffffffffffffff169060200190929190803573ffffffffffffffffffffffffffffffffffffffff169060200190929190505050610de4565b005b34801561061857600080fd5b5061064d600480360381019080803573ffffffffffffffffffffffffffffffffffffffff169060200190929190505050610f49565b005b34801561065b57600080fd5b5061069a60048036038101908080359060200190929190803573ffffffffffffffffffffffffffffffffffffffff169060200190929190505050610fb0565b005b600460009054906101000a900473ffffffffffffffffffffffffffffffffffffffff1681565b60075481565b600a5481565b60095481565b600060011515600d60008473ffffffffffffffffffffffffffffffffffffffff1673ffffffffffffffffffffffffffffffffffffffff16815260200190815260200160002060009054906101000a900460ff16151514156107385760019050610739565b5b919050565b60055481565b600160009054906101000a900473ffffffffffffffffffffffffffffffffffffffff1681565b6000809054906101000a900473ffffffffffffffffffffffffffffffffffffffff1673ffffffffffffffffffffffffffffffffffffffff163373ffffffffffffffffffffffffffffffffffffffff161415156107c557600080fd5b6000809054906101000a900473ffffffffffffffffffffffffffffffffffffffff1673ffffffffffffffffffffffffffffffffffffffff167ff8df31144d9c2f0f6b59d69b8b98abd5459d07f2742c4df920b25aae33c6482060405160405180910390a260008060006101000a81548173ffffffffffffffffffffffffffffffffffffffff021916908373ffffffffffffffffffffffffffffffffffffffff160217905550565b60085481565b600360009054906101000a900473ffffffffffffffffffffffffffffffffffffffff1681565b6000809054906101000a900473ffffffffffffffffffffffffffffffffffffffff1681565b6000600754905090565b600260009054906101000a900473ffffffffffffffffffffffffffffffffffffffff1681565b600060011515600360009054906101000a900473ffffffffffffffffffffffffffffffffffffffff1673ffffffffffffffffffffffffffffffffffffffff16638eb5b913336040518263ffffffff167c0100000000000000000000000000000000000000000000000000000000028152600401808273ffffffffffffffffffffffffffffffffffffffff1673ffffffffffffffffffffffffffffffffffffffff168152602001915050602060405180830381600087803b1580156109b057600080fd5b505af11580156109c4573d6000803e3d6000fd5b505050506040513d60208110156109da57600080fd5b810190808051906020019092919050505015151415156109f957600080fd5b339050610a0581611625565b50565b60065481565b6000809054906101000a900473ffffffffffffffffffffffffffffffffffffffff1673ffffffffffffffffffffffffffffffffffffffff163373ffffffffffffffffffffffffffffffffffffffff16141515610a6957600080fd5b6001600d60008373ffffffffffffffffffffffffffffffffffffffff1673ffffffffffffffffffffffffffffffffffffffff16815260200190815260200160002060006101000a81548160ff02191690831515021790555050565b6000809054906101000a900473ffffffffffffffffffffffffffffffffffffffff1673ffffffffffffffffffffffffffffffffffffffff163373ffffffffffffffffffffffffffffffffffffffff16141515610b1f57600080fd5b600260009054906101000a900473ffffffffffffffffffffffffffffffffffffffff1673ffffffffffffffffffffffffffffffffffffffff16638fce263386868686866040518663ffffffff167c010000000000000000000000000000000000000000000000000000000002815260040180806020018681526020018581526020018481526020018373ffffffffffffffffffffffffffffffffffffffff1673ffffffffffffffffffffffffffffffffffffffff168152602001828103825287818151815260200191508051906020019080838360005b83811015610c11578082015181840152602081019050610bf6565b50505050905090810190601f168015610c3e5780820380516001836020036101000a031916815260200191505b509650505050505050600060405180830381600087803b158015610c6157600080fd5b505af1158015610c75573d6000803e3d6000fd5b505050506005600081548092919060010191905055506001600d60008373ffffffffffffffffffffffffffffffffffffffff1673ffffffffffffffffffffffffffffffffffffffff16815260200190815260200160002060006101000a81548160ff021916908315150217905550600760008154809291906001019190505550610cfd611a99565b50600160009054906101000a900473ffffffffffffffffffffffffffffffffffffffff1673ffffffffffffffffffffffffffffffffffffffff166379c6506882600a546040518363ffffffff167c0100000000000000000000000000000000000000000000000000000000028152600401808373ffffffffffffffffffffffffffffffffffffffff1673ffffffffffffffffffffffffffffffffffffffff16815260200182815260200192505050600060405180830381600087803b158015610dc557600080fd5b505af1158015610dd9573d6000803e3d6000fd5b505050505050505050565b6000809054906101000a900473ffffffffffffffffffffffffffffffffffffffff1673ffffffffffffffffffffffffffffffffffffffff163373ffffffffffffffffffffffffffffffffffffffff16141515610e3f57600080fd5b83600160006101000a81548173ffffffffffffffffffffffffffffffffffffffff021916908373ffffffffffffffffffffffffffffffffffffffff16021790555082600260006101000a81548173ffffffffffffffffffffffffffffffffffffffff021916908373ffffffffffffffffffffffffffffffffffffffff16021790555081600360006101000a81548173ffffffffffffffffffffffffffffffffffffffff021916908373ffffffffffffffffffffffffffffffffffffffff16021790555080600460006101000a81548173ffffffffffffffffffffffffffffffffffffffff021916908373ffffffffffffffffffffffffffffffffffffffff16021790555050505050565b6000809054906101000a900473ffffffffffffffffffffffffffffffffffffffff1673ffffffffffffffffffffffffffffffffffffffff163373ffffffffffffffffffffffffffffffffffffffff16141515610fa457600080fd5b610fad81611adb565b50565b600080600080600660008154809291906001019190505550600654935068056bc75e2d63100000925060329150600260009054906101000a900473ffffffffffffffffffffffffffffffffffffffff1673ffffffffffffffffffffffffffffffffffffffff1663d55b09f3876040518263ffffffff167c010000000000000000000000000000000000000000000000000000000002815260040180828152602001915050602060405180830381600087803b15801561106e57600080fd5b505af1158015611082573d6000803e3d6000fd5b505050506040513d602081101561109857600080fd5b8101908080519060200190929190505050905060001515600d60003373ffffffffffffffffffffffffffffffffffffffff1673ffffffffffffffffffffffffffffffffffffffff16815260200190815260200160002060009054906101000a900460ff161515141561116f576001600d60003373ffffffffffffffffffffffffffffffffffffffff1673ffffffffffffffffffffffffffffffffffffffff16815260200190815260200160002060006101000a81548160ff0219169083151502179055506007600081548092919060010191905055505b82600160009054906101000a900473ffffffffffffffffffffffffffffffffffffffff1673ffffffffffffffffffffffffffffffffffffffff166370a08231336040518263ffffffff167c0100000000000000000000000000000000000000000000000000000000028152600401808273ffffffffffffffffffffffffffffffffffffffff1673ffffffffffffffffffffffffffffffffffffffff168152602001915050602060405180830381600087803b15801561122d57600080fd5b505af1158015611241573d6000803e3d6000fd5b505050506040513d602081101561125757600080fd5b81019080805190602001909291905050501015151561127557600080fd5b600160009054906101000a900473ffffffffffffffffffffffffffffffffffffffff1673ffffffffffffffffffffffffffffffffffffffff16639dc29fac33856040518363ffffffff167c0100000000000000000000000000000000000000000000000000000000028152600401808373ffffffffffffffffffffffffffffffffffffffff1673ffffffffffffffffffffffffffffffffffffffff16815260200182815260200192505050600060405180830381600087803b15801561133a57600080fd5b505af115801561134e573d6000803e3d6000fd5b50505050600160009054906101000a900473ffffffffffffffffffffffffffffffffffffffff1673ffffffffffffffffffffffffffffffffffffffff166379c6506882846040518363ffffffff167c0100000000000000000000000000000000000000000000000000000000028152600401808373ffffffffffffffffffffffffffffffffffffffff1673ffffffffffffffffffffffffffffffffffffffff16815260200182815260200192505050600060405180830381600087803b15801561141757600080fd5b505af115801561142b573d6000803e3d6000fd5b50505050600360009054906101000a900473ffffffffffffffffffffffffffffffffffffffff1673ffffffffffffffffffffffffffffffffffffffff1663daa8521087876040518363ffffffff167c0100000000000000000000000000000000000000000000000000000000028152600401808381526020018273ffffffffffffffffffffffffffffffffffffffff1673ffffffffffffffffffffffffffffffffffffffff16815260200192505050600060405180830381600087803b1580156114f457600080fd5b505af1158015611508573d6000803e3d6000fd5b50505050600360009054906101000a900473ffffffffffffffffffffffffffffffffffffffff1673ffffffffffffffffffffffffffffffffffffffff1663d1660f993087876040518463ffffffff167c0100000000000000000000000000000000000000000000000000000000028152600401808473ffffffffffffffffffffffffffffffffffffffff1673ffffffffffffffffffffffffffffffffffffffff1681526020018373ffffffffffffffffffffffffffffffffffffffff1673ffffffffffffffffffffffffffffffffffffffff1681526020018281526020019350505050600060405180830381600087803b15801561160557600080fd5b505af1158015611619573d6000803e3d6000fd5b50505050505050505050565b600080600080600080600080600360009054906101000a900473ffffffffffffffffffffffffffffffffffffffff1673ffffffffffffffffffffffffffffffffffffffff166388556ddc8a6040518263ffffffff167c0100000000000000000000000000000000000000000000000000000000028152600401808273ffffffffffffffffffffffffffffffffffffffff1673ffffffffffffffffffffffffffffffffffffffff168152602001915050602060405180830381600087803b1580156116ee57600080fd5b505af1158015611702573d6000803e3d6000fd5b505050506040513d602081101561171857600080fd5b81019080805190602001909291905050509750600360009054906101000a900473ffffffffffffffffffffffffffffffffffffffff1673ffffffffffffffffffffffffffffffffffffffff1663d5e5c5618a6040518263ffffffff167c0100000000000000000000000000000000000000000000000000000000028152600401808273ffffffffffffffffffffffffffffffffffffffff1673ffffffffffffffffffffffffffffffffffffffff168152602001915050602060405180830381600087803b1580156117e857600080fd5b505af11580156117fc573d6000803e3d6000fd5b505050506040513d602081101561181257600080fd5b81019080805190602001909291905050509650600195506118338689611bd5565b9450600c60008a73ffffffffffffffffffffffffffffffffffffffff1673ffffffffffffffffffffffffffffffffffffffff16815260200190815260200160002060008881526020019081526020016000205493508484019250600b6000898152602001908152602001600020549150600260009054906101000a900473ffffffffffffffffffffffffffffffffffffffff1673ffffffffffffffffffffffffffffffffffffffff16631d5f3dfc896040518263ffffffff167c010000000000000000000000000000000000000000000000000000000002815260040180828152602001915050602060405180830381600087803b15801561193457600080fd5b505af1158015611948573d6000803e3d6000fd5b505050506040513d602081101561195e57600080fd5b8101908080519060200190929190505050905082600c60008b73ffffffffffffffffffffffffffffffffffffffff1673ffffffffffffffffffffffffffffffffffffffff1681526020019081526020016000206000898152602001908152602001600020819055508183101580156119d65750804210155b15611a8e576119e489611d05565b600260009054906101000a900473ffffffffffffffffffffffffffffffffffffffff1673ffffffffffffffffffffffffffffffffffffffff1663cb47f760896040518263ffffffff167c010000000000000000000000000000000000000000000000000000000002815260040180828152602001915050600060405180830381600087803b158015611a7557600080fd5b505af1158015611a89573d6000803e3d6000fd5b505050505b505050505050505050565b60006305a48fba6009540142101515611ad2576002600a54811515611aba57fe5b04600a8190555042600981905550600a549050611ad8565b600a5490505b90565b600073ffffffffffffffffffffffffffffffffffffffff168173ffffffffffffffffffffffffffffffffffffffff1614151515611b1757600080fd5b8073ffffffffffffffffffffffffffffffffffffffff166000809054906101000a900473ffffffffffffffffffffffffffffffffffffffff1673ffffffffffffffffffffffffffffffffffffffff167f8be0079c531659141344cd1fd0a4f28419497f9722a3daafe3b4186f6b6457e060405160405180910390a3806000806101000a81548173ffffffffffffffffffffffffffffffffffffffff021916908373ffffffffffffffffffffffffffffffffffffffff16021790555050565b6000806000806000600360009054906101000a900473ffffffffffffffffffffffffffffffffffffffff1673ffffffffffffffffffffffffffffffffffffffff166330255eb533886040518363ffffffff167c0100000000000000000000000000000000000000000000000000000000028152600401808373ffffffffffffffffffffffffffffffffffffffff1673ffffffffffffffffffffffffffffffffffffffff16815260200182815260200192505050602060405180830381600087803b158015611ca257600080fd5b505af1158015611cb6573d6000803e3d6000fd5b505050506040513d6020811015611ccc57600080fd5b81019080805190602001909291905050509350600a87811515611ceb57fe5b049250838302915081870190508094505050505092915050565b6000806000806000600360009054906101000a900473ffffffffffffffffffffffffffffffffffffffff1673ffffffffffffffffffffffffffffffffffffffff1663dbe10d51876040518263ffffffff167c0100000000000000000000000000000000000000000000000000000000028152600401808273ffffffffffffffffffffffffffffffffffffffff1673ffffffffffffffffffffffffffffffffffffffff168152602001915050602060405180830381600087803b158015611dca57600080fd5b505af1158015611dde573d6000803e3d6000fd5b505050506040513d6020811015611df457600080fd5b81019080805190602001909291905050509450600360009054906101000a900473ffffffffffffffffffffffffffffffffffffffff1673ffffffffffffffffffffffffffffffffffffffff1663bb788457876040518263ffffffff167c0100000000000000000000000000000000000000000000000000000000028152600401808273ffffffffffffffffffffffffffffffffffffffff1673ffffffffffffffffffffffffffffffffffffffff168152602001915050602060405180830381600087803b158015611ec457600080fd5b505af1158015611ed8573d6000803e3d6000fd5b505050506040513d6020811015611eee57600080fd5b81019080805190602001909291905050509350600360009054906101000a900473ffffffffffffffffffffffffffffffffffffffff1673ffffffffffffffffffffffffffffffffffffffff166388556ddc876040518263ffffffff167c0100000000000000000000000000000000000000000000000000000000028152600401808273ffffffffffffffffffffffffffffffffffffffff1673ffffffffffffffffffffffffffffffffffffffff168152602001915050602060405180830381600087803b158015611fbe57600080fd5b505af1158015611fd2573d6000803e3d6000fd5b505050506040513d6020811015611fe857600080fd5b81019080805190602001909291905050509250600360009054906101000a900473ffffffffffffffffffffffffffffffffffffffff1673ffffffffffffffffffffffffffffffffffffffff1663eb61e371876040518263ffffffff167c0100000000000000000000000000000000000000000000000000000000028152600401808273ffffffffffffffffffffffffffffffffffffffff1673ffffffffffffffffffffffffffffffffffffffff168152602001915050602060405180830381600087803b1580156120b857600080fd5b505af11580156120cc573d6000803e3d6000fd5b505050506040513d60208110156120e257600080fd5b81019080805190602001909291905050509150600260009054906101000a900473ffffffffffffffffffffffffffffffffffffffff1673ffffffffffffffffffffffffffffffffffffffff1663d4f69b68846040518263ffffffff167c010000000000000000000000000000000000000000000000000000000002815260040180828152602001915050602060405180830381600087803b15801561218657600080fd5b505af115801561219a573d6000803e3d6000fd5b505050506040513d60208110156121b057600080fd5b8101908080519060200190929190505050905081810390506121d28184611bd5565b9050600860008154809291906001019190505550600460009054906101000a900473ffffffffffffffffffffffffffffffffffffffff1673ffffffffffffffffffffffffffffffffffffffff16633e388a3e6040518163ffffffff167c0100000000000000000000000000000000000000000000000000000000028152600401600060405180830381600087803b15801561226c57600080fd5b505af1158015612280573d6000803e3d6000fd5b50505050600460009054906101000a900473ffffffffffffffffffffffffffffffffffffffff1673ffffffffffffffffffffffffffffffffffffffff1663d1660f9930886008546040518463ffffffff167c0100000000000000000000000000000000000000000000000000000000028152600401808473ffffffffffffffffffffffffffffffffffffffff1673ffffffffffffffffffffffffffffffffffffffff1681526020018373ffffffffffffffffffffffffffffffffffffffff1673ffffffffffffffffffffffffffffffffffffffff1681526020018281526020019350505050600060405180830381600087803b15801561237f57600080fd5b505af1158015612393573d6000803e3d6000fd5b50505050600160009054906101000a900473ffffffffffffffffffffffffffffffffffffffff1673ffffffffffffffffffffffffffffffffffffffff166379c6506886836040518363ffffffff167c0100000000000000000000000000000000000000000000000000000000028152600401808373ffffffffffffffffffffffffffffffffffffffff1673ffffffffffffffffffffffffffffffffffffffff16815260200182815260200192505050600060405180830381600087803b15801561245c57600080fd5b505af1158015612470573d6000803e3d6000fd5b50505050600160009054906101000a900473ffffffffffffffffffffffffffffffffffffffff1673ffffffffffffffffffffffffffffffffffffffff166379c6506885846040518363ffffffff167c0100000000000000000000000000000000000000000000000000000000028152600401808373ffffffffffffffffffffffffffffffffffffffff1673ffffffffffffffffffffffffffffffffffffffff16815260200182815260200192505050600060405180830381600087803b15801561253957600080fd5b505af115801561254d573d6000803e3d6000fd5b505050505050505050505600a165627a7a72305820e9470ca489316902c88b028acf593bae36d65e2ef9e26c4cb3b4a18f8a55939e0029",
  "source": "pragma solidity ^0.4.21;\nimport \"zeppelin-solidity/contracts/ownership/Ownable.sol\";\n////////////////////////////////////////////////////////////////////////////////////////////\ncontract IdeaCoin {\n    function transferFrom(address _from, address _to, uint256 _value) public returns (bool success);\n    function transferContractOwnership(address newOwner) public;\n    function balanceOf(address _addr) public constant returns (uint);\n    function mintToken(address _to, uint256 _value) external;\n    function burn(address _from, uint256 _value)  external;\n    function totalSupply() public constant returns (uint);\n}\n//IdeaCoin interface\n/////////////////////////////////////////////////////////////////////////////////////////////\ncontract IdeaBlockGenerator {\n    function _generateIdeaBlock(string _ideaIPFS, uint _globalUseBlockAmount, uint miningTime, uint _royalty, address _inventorsAddress) external;\n    function transferOwnership(address newOwner) public;\n    function balanceOf(address _owner) public view returns (uint256);\n    function getRepBlockAmount(uint _ideaId) public view returns(uint);\n    function getGlobalUseBlockAmount(uint _ideaId) public view returns(uint);\n    function getRoyalty(uint _ideaId) public view returns(uint);\n    function getInventor(uint _ideaId) public view returns(address);\n    function getMiningTime(uint _ideaId) public view returns(uint);\n    function setMiningTime(uint _ideaId) external view;\n}\n//Idea Block Generator interface\n/////////////////////////////////////////////////////////////////////////////////////////////\ncontract ReplicationBlockGenerator {\n    function replicationBlock(uint _ideaId, address _repAdd) external;\n    function getBlockReward(address _repAdd) public view returns(uint);\n    function getStakedAmount(address _repAdd) public view returns(uint);\n    function getOwnersAddress(address _repAdd) public view returns(address);\n    function getIdeaID(address _repAdd) public view returns(uint);\n    function getInventorsAddress(address _repAdd) public view returns(address);\n    function getReplicationAddress(address _repAdd) public view returns(address);\n    function getRoyalty(address _repAdd) public view returns(uint);\n    function getRepID(address _repAdd) public view returns(uint);\n    function checkIfRep(address _add) external returns(bool);\n    function getNumOfReps(address _add, uint _ideaId) external returns(uint);\n    function getRepTotal(uint _ideaId) external returns(uint);\n    function safeTransfer(address _from, address _to, uint _tokenId) public;\n  }\n//Replication Block Generator interface\n/////////////////////////////////////////////////////////////////////////////////////////////\ncontract GlobalUseBlockGenerator{\n    function _generateGUSBlock() external;\n    function safeTransfer(address _from, address _to, uint _tokenId) public;\n}\n//Global Use Block Generator interface\n/////////////////////////////////////////////////////////////////////////////////////////////\n\ncontract CryptoPatentBlockchain is Ownable {\n\nIdeaCoin public IDC;\nIdeaBlockGenerator public IBG;\nReplicationBlockGenerator public RBG;\nGlobalUseBlockGenerator public GUBG;\n//these turn each interface into a useable variable\nuint public globalIdeaCount;\n//tracks amount of ideas on the CryptoPatent Blockchain\nuint public globalRepCount;\n//tracks the total number of replications on the CryptoPatent Blockchain\nuint public memberCount;\n//tracks the total number of CryptoGrow members\nuint public globalUseBlock;\n//tracks global use blocks\nuint public globalBlockHalfTime;\n//used to track when the ideaBlockReward should be halved\nuint public ideaBlockReward = 1000000000000000000000;\n//IdeaBlock set to 1000 IDC\n\n\n\nmapping (uint => uint) weightTracker;\n//tracks current global highest weight\nmapping (address => mapping (uint => uint)) localWeightTracker;\n//maps a replications address to its replication ID and stores that replications current weight\nmapping (address =>bool) members;\n//tracks if an address is a member\n\n\n\n\nmodifier onlyReplication() {\n  require(RBG.checkIfRep(msg.sender) == true);\n  _;\n}\n//modifier requires that the address calling a function is a replication\n\n\n//modifier requires that the address calling a function is a replication\nconstructor() public {\n  globalBlockHalfTime = now;\n  members[msg.sender] = true;\n}\n\nfunction addMember(address _mem) public onlyOwner{\n    members[_mem] = true;\n}\n\nfunction setGenerators(address _IDC, address _IBG, address _RBG, address _GUBG) public onlyOwner {\nIDC = IdeaCoin(_IDC);\nIBG = IdeaBlockGenerator(_IBG);\nRBG = ReplicationBlockGenerator(_RBG);\nGUBG = GlobalUseBlockGenerator(_GUBG);\n}\n\nfunction checkIfMember(address _member) public view returns(bool) {\n  if(members[_member] == true){\n    return true;\n  }\n  //allows function caller to input an address and see if it is a member of CryptoGrowDAC\n}\n\nfunction getMemberCount() public view returns(uint) {\n  return memberCount;\n}\n//returns total number of members\n\nfunction calculatePromo(uint _blockReward, uint _ideaId) internal returns(uint) {\n  uint numberOfReps =  RBG.getNumOfReps( msg.sender,  _ideaId);\n  uint tenthReward = (_blockReward/ 10);\n  uint modulator = tenthReward * numberOfReps;\n  uint blockReward = _blockReward + modulator;\n  return blockReward;\n}\n//calculates the promotion a miner receives for having multiples of the same type of replication\n\nfunction ideaBlockTimeLord() internal returns(uint){\n  if(now >= globalBlockHalfTime + 94670778) {\n    ideaBlockReward = ideaBlockReward / 2;\n    globalBlockHalfTime = now;\n    return ideaBlockReward;\n    }\n    return ideaBlockReward;\n}\n//checks if the IdeaBlockReward should be adjusted\nfunction generateIdeaBlock(\n  string _ideaIPFS,\n  uint  _globalUseBlockAmount,\n  uint _royalty,\n  uint _miningTime,\n  address _inventor\n  )\n  public\n  onlyOwner\n  {\n\n    IBG._generateIdeaBlock( _ideaIPFS, _globalUseBlockAmount, _royalty, _miningTime, _inventor);\n//generates IdeaBlock ERC721 Token\n    globalIdeaCount++;\n//increments IdeaCount\n    members[_inventor] = true;\n//adds the inventor as a member of CryptoGrowDAC\n    memberCount++;\n//increases global member count\nideaBlockTimeLord();\nIDC.mintToken( _inventor, ideaBlockReward);\n//mints 1000 IDC and sends it to the inventor\n  }\n\nfunction generateReplicationBlock(uint _ideaId, address _repAdd) public  {\n\n  globalRepCount++;\n//increases globval replication count\n//sets RepBlockReward as the specific rep block amount Stored for an idea\n  uint _repNumber = globalRepCount;\n//sets _repNumber equal to globalRepCount\nuint stake = 100000000000000000000;\n\n  uint blockReward = 50;\n  address inventor = IBG.getInventor(_ideaId);\n//sets inventor as the specific inventor for an idea\nif(members[msg.sender] == false){\n  members[msg.sender] = true;\n//adds the replicator as a member of DecentraCorp\n  memberCount++;\n}\n//increases global member count\nrequire(IDC.balanceOf(msg.sender) >= stake);\n//requires the replicator has enough IdeaCoin to meet the stake amount\n\nIDC.burn(msg.sender, stake);\n//burns the stake amount from the message sender\nIDC.mintToken( inventor, blockReward);\n//mints royalty amount to the inventor\nRBG.replicationBlock( _ideaId,  _repAdd);\n//mints replication block reward to the replicator\n//this section creates a specific ReplicationInfo struct storing data for that replication\nRBG.safeTransfer(this, _repAdd, _repNumber);\n//transferes replication ERC721 token to the replications address\n}\n\n\n  function generateGlobalUseBlock(address _rep) internal {\n    address repOwnerAddress = RBG.getOwnersAddress(_rep);\n  //sets repOwnerAddress as a specific replications owner from a rep struct\n    address inventor = RBG.getInventorsAddress(_rep);\n  //sets inventor as a specific idea owner from a rep struct\n    uint ideaID = RBG.getIdeaID(_rep);\n  //sets ideaID as a specific replications ideaID from a rep struct\n    uint royalty = RBG.getRoyalty(_rep);\n  //sets royalty as a specific replications royalty from a rep struct\n    uint BlockReward = IBG.getGlobalUseBlockAmount(ideaID);\n  //sets BlockReward as the block reward for a specific idea\n    BlockReward = BlockReward - royalty;\n  //stes BlockReward equal to itself minus the royalty\n    BlockReward = calculatePromo(BlockReward, ideaID);\n  //calculates BlockReward according to promotion status of a member\n    globalUseBlock++;\n  //increments global use block counter\n    GUBG._generateGUSBlock();\n    GUBG.safeTransfer(this, _rep, globalUseBlock);\n  //transfers Global Use Block to the replication\n    IDC.mintToken(repOwnerAddress, BlockReward);\n  //mints the replication Owner his block reward\n    IDC.mintToken(inventor, royalty);\n  //mints royalties to the idea inventor\n\n  }\n\nfunction generateUseBlockWeight() public onlyReplication {\naddress _rep = msg.sender;\nUseBlockWeight(_rep);\n  }\n\n\n  function UseBlockWeight(address _rep) internal {\n\n    uint ideaID = RBG.getIdeaID(_rep);\n  //sets ideaID as a specific ideaID from the replications struct\n    uint repID = RBG.getRepID(_rep);\n  //sets repID as a specific replications id from the replications struct\n    uint _blockReward = 1;\n  //sets _blockReward equal to one\n    uint _amount = calculatePromo(_blockReward, ideaID);\n  //sets _amount equal to the calculated block reward dependant upon promotion level of the replicator\n    uint weight = localWeightTracker[_rep][repID];\n  // sets weight equal to the current weight of a specific replication\n    uint newWeight = weight + _amount;\n  // increases the weight of a specific replication\n    uint globalWeight = weightTracker[ideaID];\n  //sets globalWeight as the current highest weight for a specific idea\n    uint timeLord = IBG.getMiningTime(ideaID);\n    localWeightTracker[_rep][repID] = newWeight;\n  //sets the newWeight for that specific replication\n    if(newWeight >= globalWeight && now >= timeLord) {\n  //checks if the replication has the heaviest weight\n      generateGlobalUseBlock(_rep);\n  //if it does it generates a global use block\n      IBG.setMiningTime(ideaID);\n  //resets the global mining time for a specific idea after a useBlock is mined\n      }\n    }\n\n}\n",
  "sourcePath": "/home/stan36/repos/DecentraCorp/CryptoPatent/contracts/CryptoPatentBlockchain.sol",
  "compiler": {
    "name": "solc",
    "version": "0.4.24+commit.e67f0147.Emscripten.clang"
  },
  "schemaVersion": "2.0.1",
  "updatedAt": "2018-10-16T02:25:43.523Z"
}