{
  "contractName": "DecentraCorp",
  "abi": [
    {
      "constant": true,
      "inputs": [
        {
          "name": "",
          "type": "uint256"
        }
      ],
      "name": "proposals",
      "outputs": [
        {
          "name": "IdeaIPFS",
          "type": "string"
        },
        {
          "name": "executed",
          "type": "bool"
        },
        {
          "name": "proposalPassed",
          "type": "bool"
        },
        {
          "name": "numberOfVotes",
          "type": "uint256"
        },
        {
          "name": "RepBlockAmount",
          "type": "uint256"
        },
        {
          "name": "GlobalUseAmount",
          "type": "uint256"
        },
        {
          "name": "Inventor",
          "type": "address"
        }
      ],
      "payable": false,
      "stateMutability": "view",
      "type": "function"
    },
    {
      "constant": true,
      "inputs": [],
      "name": "CPB",
      "outputs": [
        {
          "name": "",
          "type": "address"
        }
      ],
      "payable": false,
      "stateMutability": "view",
      "type": "function"
    },
    {
      "constant": true,
      "inputs": [
        {
          "name": "",
          "type": "uint256"
        }
      ],
      "name": "fundProp",
      "outputs": [
        {
          "name": "proposalHash",
          "type": "string"
        },
        {
          "name": "fundingAmount",
          "type": "uint256"
        },
        {
          "name": "executed",
          "type": "bool"
        },
        {
          "name": "proposalPassed",
          "type": "bool"
        },
        {
          "name": "numberOfVotes",
          "type": "uint256"
        },
        {
          "name": "facilityOwner",
          "type": "address"
        }
      ],
      "payable": false,
      "stateMutability": "view",
      "type": "function"
    },
    {
      "constant": true,
      "inputs": [],
      "name": "numProposals",
      "outputs": [
        {
          "name": "",
          "type": "uint256"
        }
      ],
      "payable": false,
      "stateMutability": "view",
      "type": "function"
    },
    {
      "constant": false,
      "inputs": [],
      "name": "renounceOwnership",
      "outputs": [],
      "payable": false,
      "stateMutability": "nonpayable",
      "type": "function"
    },
    {
      "constant": true,
      "inputs": [],
      "name": "minimumQuorum",
      "outputs": [
        {
          "name": "",
          "type": "uint256"
        }
      ],
      "payable": false,
      "stateMutability": "view",
      "type": "function"
    },
    {
      "constant": true,
      "inputs": [],
      "name": "owner",
      "outputs": [
        {
          "name": "",
          "type": "address"
        }
      ],
      "payable": false,
      "stateMutability": "view",
      "type": "function"
    },
    {
      "constant": true,
      "inputs": [],
      "name": "membershipTimeWizard",
      "outputs": [
        {
          "name": "",
          "type": "uint256"
        }
      ],
      "payable": false,
      "stateMutability": "view",
      "type": "function"
    },
    {
      "constant": false,
      "inputs": [
        {
          "name": "_newOwner",
          "type": "address"
        }
      ],
      "name": "transferOwnership",
      "outputs": [],
      "payable": false,
      "stateMutability": "nonpayable",
      "type": "function"
    },
    {
      "inputs": [],
      "payable": false,
      "stateMutability": "nonpayable",
      "type": "constructor"
    },
    {
      "anonymous": false,
      "inputs": [
        {
          "indexed": true,
          "name": "previousOwner",
          "type": "address"
        }
      ],
      "name": "OwnershipRenounced",
      "type": "event"
    },
    {
      "anonymous": false,
      "inputs": [
        {
          "indexed": true,
          "name": "previousOwner",
          "type": "address"
        },
        {
          "indexed": true,
          "name": "newOwner",
          "type": "address"
        }
      ],
      "name": "OwnershipTransferred",
      "type": "event"
    },
    {
      "constant": false,
      "inputs": [
        {
          "name": "_CPAdd",
          "type": "address"
        }
      ],
      "name": "setCPB_Add",
      "outputs": [],
      "payable": false,
      "stateMutability": "nonpayable",
      "type": "function"
    },
    {
      "constant": false,
      "inputs": [
        {
          "name": "_ideaIPFS",
          "type": "string"
        },
        {
          "name": "_replicationBlockAmount",
          "type": "uint256"
        },
        {
          "name": "_globalUseBlockAmount",
          "type": "uint256"
        },
        {
          "name": "_inventor",
          "type": "address"
        }
      ],
      "name": "proposeIdea",
      "outputs": [
        {
          "name": "IdeaProposalID",
          "type": "uint256"
        }
      ],
      "payable": false,
      "stateMutability": "nonpayable",
      "type": "function"
    },
    {
      "constant": false,
      "inputs": [
        {
          "name": "_ideaProposalID",
          "type": "uint256"
        },
        {
          "name": "supportsProposal",
          "type": "bool"
        }
      ],
      "name": "vote",
      "outputs": [
        {
          "name": "voteID",
          "type": "uint256"
        }
      ],
      "payable": false,
      "stateMutability": "nonpayable",
      "type": "function"
    },
    {
      "constant": false,
      "inputs": [
        {
          "name": "_ideaProposalID",
          "type": "uint256"
        }
      ],
      "name": "ideaBlockVote",
      "outputs": [],
      "payable": false,
      "stateMutability": "nonpayable",
      "type": "function"
    },
    {
      "constant": false,
      "inputs": [
        {
          "name": "_proposalHash",
          "type": "string"
        },
        {
          "name": "_fundingAmount",
          "type": "uint256"
        }
      ],
      "name": "facilityFundingProposal",
      "outputs": [
        {
          "name": "fundingProposalID",
          "type": "uint256"
        }
      ],
      "payable": false,
      "stateMutability": "nonpayable",
      "type": "function"
    },
    {
      "constant": false,
      "inputs": [
        {
          "name": "fundingProposalID",
          "type": "uint256"
        }
      ],
      "name": "fundingVote",
      "outputs": [],
      "payable": false,
      "stateMutability": "nonpayable",
      "type": "function"
    },
    {
      "constant": false,
      "inputs": [],
      "name": "buyBronzeMembership",
      "outputs": [],
      "payable": true,
      "stateMutability": "payable",
      "type": "function"
    },
    {
      "constant": false,
      "inputs": [],
      "name": "buySilverMembership",
      "outputs": [],
      "payable": true,
      "stateMutability": "payable",
      "type": "function"
    },
    {
      "constant": false,
      "inputs": [],
      "name": "buyGoldMembership",
      "outputs": [],
      "payable": true,
      "stateMutability": "payable",
      "type": "function"
    }
  ],
  "bytecode": "0x608060405234801561001057600080fd5b50336000806101000a81548173ffffffffffffffffffffffffffffffffffffffff021916908373ffffffffffffffffffffffffffffffffffffffff16021790555042600381905550612015806100676000396000f3006080604052600436106100fc576000357c0100000000000000000000000000000000000000000000000000000000900463ffffffff168063013cf08b14610101578063029f33571461020557806311c609611461025c5780632b900ea61461028957806335c080a2146102cc5780633c6615c7146103c9578063400e3949146103d357806358b2cddb146103fe578063655cf035146104085780636a12b0d214610412578063715018a61461043f5780638160f0b5146104565780638c966f96146104815780638da5cb5b14610508578063993213d51461055f578063b62e2db11461058a578063c9d27afe1461063b578063f2fde38b14610688575b600080fd5b34801561010d57600080fd5b5061012c600480360381019080803590602001909291905050506106cb565b604051808060200188151515158152602001871515151581526020018681526020018581526020018481526020018373ffffffffffffffffffffffffffffffffffffffff1673ffffffffffffffffffffffffffffffffffffffff168152602001828103825289818151815260200191508051906020019080838360005b838110156101c45780820151818401526020810190506101a9565b50505050905090810190601f1680156101f15780820380516001836020036101000a031916815260200191505b509850505050505050505060405180910390f35b34801561021157600080fd5b5061021a6107ee565b604051808273ffffffffffffffffffffffffffffffffffffffff1673ffffffffffffffffffffffffffffffffffffffff16815260200191505060405180910390f35b34801561026857600080fd5b5061028760048036038101908080359060200190929190505050610814565b005b34801561029557600080fd5b506102ca600480360381019080803573ffffffffffffffffffffffffffffffffffffffff169060200190929190505050610b8f565b005b3480156102d857600080fd5b506102f760048036038101908080359060200190929190505050610c2e565b604051808060200187815260200186151515158152602001851515151581526020018481526020018373ffffffffffffffffffffffffffffffffffffffff1673ffffffffffffffffffffffffffffffffffffffff168152602001828103825288818151815260200191508051906020019080838360005b8381101561038957808201518184015260208101905061036e565b50505050905090810190601f1680156103b65780820380516001836020036101000a031916815260200191505b5097505050505050505060405180910390f35b6103d1610d4b565b005b3480156103df57600080fd5b506103e8610e61565b6040518082815260200191505060405180910390f35b610406610e67565b005b610410610f7d565b005b34801561041e57600080fd5b5061043d60048036038101908080359060200190929190505050611092565b005b34801561044b57600080fd5b50610454611363565b005b34801561046257600080fd5b5061046b611465565b6040518082815260200191505060405180910390f35b34801561048d57600080fd5b506104f2600480360381019080803590602001908201803590602001908080601f01602080910402602001604051908101604052809392919081815260200183838082843782019150505050505091929192908035906020019092919050505061146b565b6040518082815260200191505060405180910390f35b34801561051457600080fd5b5061051d611666565b604051808273ffffffffffffffffffffffffffffffffffffffff1673ffffffffffffffffffffffffffffffffffffffff16815260200191505060405180910390f35b34801561056b57600080fd5b5061057461168b565b6040518082815260200191505060405180910390f35b34801561059657600080fd5b50610625600480360381019080803590602001908201803590602001908080601f01602080910402602001604051908101604052809392919081815260200183838082843782019150505050505091929192908035906020019092919080359060200190929190803573ffffffffffffffffffffffffffffffffffffffff169060200190929190505050611691565b6040518082815260200191505060405180910390f35b34801561064757600080fd5b5061067260048036038101908080359060200190929190803515159060200190929190505050611787565b6040518082815260200191505060405180910390f35b34801561069457600080fd5b506106c9600480360381019080803573ffffffffffffffffffffffffffffffffffffffff169060200190929190505050611a58565b005b6004818154811015156106da57fe5b9060005260206000209060080201600091509050806000018054600181600116156101000203166002900480601f0160208091040260200160405190810160405280929190818152602001828054600181600116156101000203166002900480156107865780601f1061075b57610100808354040283529160200191610786565b820191906000526020600020905b81548152906001019060200180831161076957829003601f168201915b5050505050908060010160009054906101000a900460ff16908060010160019054906101000a900460ff16908060020154908060030154908060040154908060050160009054906101000a900473ffffffffffffffffffffffffffffffffffffffff16905087565b600660009054906101000a900473ffffffffffffffffffffffffffffffffffffffff1681565b60008060008060008060008060008060008060009054906101000a900473ffffffffffffffffffffffffffffffffffffffff1673ffffffffffffffffffffffffffffffffffffffff163373ffffffffffffffffffffffffffffffffffffffff1614151561088057600080fd5b60048c81548110151561088f57fe5b90600052602060002090600802019a508a60010160009054906101000a900460ff161515156108bd57600080fd5b8a60000199508a6003015498508a6004015497506000965060009550600094508a60050160009054906101000a900473ffffffffffffffffffffffffffffffffffffffff16935061090c611abf565b600092505b8a60060180549050831015610978578a6006018381548110151561093157fe5b9060005260206000200191506001905080870196508160000160009054906101000a900460ff161561096757808601955061096d565b80850194505b826001019250610911565b600254871015151561098957600080fd5b84861115610b635760018b60010160006101000a81548160ff02191690831515021790555060018b60010160016101000a81548160ff021916908315150217905550600660009054906101000a900473ffffffffffffffffffffffffffffffffffffffff1673ffffffffffffffffffffffffffffffffffffffff166305b8a1d58b8b8b886040518563ffffffff167c010000000000000000000000000000000000000000000000000000000002815260040180806020018581526020018481526020018373ffffffffffffffffffffffffffffffffffffffff1673ffffffffffffffffffffffffffffffffffffffff168152602001828103825286818154600181600116156101000203166002900481526020019150805460018160011615610100020316600290048015610aff5780601f10610ad457610100808354040283529160200191610aff565b820191906000526020600020905b815481529060010190602001808311610ae257829003601f168201915b505095505050505050602060405180830381600087803b158015610b2257600080fd5b505af1158015610b36573d6000803e3d6000fd5b505050506040513d6020811015610b4c57600080fd5b810190808051906020019092919050505050610b81565b60008b60010160016101000a81548160ff0219169083151502179055505b505050505050505050505050565b6000809054906101000a900473ffffffffffffffffffffffffffffffffffffffff1673ffffffffffffffffffffffffffffffffffffffff163373ffffffffffffffffffffffffffffffffffffffff16141515610bea57600080fd5b80600660006101000a81548173ffffffffffffffffffffffffffffffffffffffff021916908373ffffffffffffffffffffffffffffffffffffffff16021790555050565b600581815481101515610c3d57fe5b9060005260206000209060070201600091509050806000018054600181600116156101000203166002900480601f016020809104026020016040519081016040528092919081815260200182805460018160011615610100020316600290048015610ce95780601f10610cbe57610100808354040283529160200191610ce9565b820191906000526020600020905b815481529060010190602001808311610ccc57829003601f168201915b5050505050908060010154908060020160009054906101000a900460ff16908060020160019054906101000a900460ff16908060030154908060040160009054906101000a900473ffffffffffffffffffffffffffffffffffffffff16905086565b62f0c8a0600354014211151515610d6157600080fd5b671bc16d674ec800003410151515610d7857600080fd5b600660009054906101000a900473ffffffffffffffffffffffffffffffffffffffff1673ffffffffffffffffffffffffffffffffffffffff1663e9e7811b3369152d02c7e14af68000006040518363ffffffff167c0100000000000000000000000000000000000000000000000000000000028152600401808373ffffffffffffffffffffffffffffffffffffffff1673ffffffffffffffffffffffffffffffffffffffff16815260200182815260200192505050600060405180830381600087803b158015610e4757600080fd5b505af1158015610e5b573d6000803e3d6000fd5b50505050565b60015481565b62f0c8a0600354014211151515610e7d57600080fd5b6714d1120d7b1600003410151515610e9457600080fd5b600660009054906101000a900473ffffffffffffffffffffffffffffffffffffffff1673ffffffffffffffffffffffffffffffffffffffff1663e9e7811b3369021e19e0c9bab24000006040518363ffffffff167c0100000000000000000000000000000000000000000000000000000000028152600401808373ffffffffffffffffffffffffffffffffffffffff1673ffffffffffffffffffffffffffffffffffffffff16815260200182815260200192505050600060405180830381600087803b158015610f6357600080fd5b505af1158015610f77573d6000803e3d6000fd5b50505050565b62f0c8a0600354014211151515610f9357600080fd5b670de0b6b3a76400003410151515610faa57600080fd5b600660009054906101000a900473ffffffffffffffffffffffffffffffffffffffff1673ffffffffffffffffffffffffffffffffffffffff1663e9e7811b33683635c9adc5dea000006040518363ffffffff167c0100000000000000000000000000000000000000000000000000000000028152600401808373ffffffffffffffffffffffffffffffffffffffff1673ffffffffffffffffffffffffffffffffffffffff16815260200182815260200192505050600060405180830381600087803b15801561107857600080fd5b505af115801561108c573d6000803e3d6000fd5b50505050565b600080600080600080600080600080600660009054906101000a900473ffffffffffffffffffffffffffffffffffffffff1673ffffffffffffffffffffffffffffffffffffffff16634951f6aa336040518263ffffffff167c0100000000000000000000000000000000000000000000000000000000028152600401808273ffffffffffffffffffffffffffffffffffffffff1673ffffffffffffffffffffffffffffffffffffffff168152602001915050602060405180830381600087803b15801561115e57600080fd5b505af1158015611172573d6000803e3d6000fd5b505050506040513d602081101561118857600080fd5b81019080805190602001909291905050509050600115158115151415156111ae57600080fd5b60058b8154811015156111bd57fe5b906000526020600020906007020199508960020160009054906101000a900460ff161515156111eb57600080fd5b896001015498506000975060009650600095508960040160009054906101000a900473ffffffffffffffffffffffffffffffffffffffff16945061122d611abf565b600093505b896005018054905084101561129957896005018481548110151561125257fe5b9060005260206000200192506001915081880197508260000160009054906101000a900460ff161561128857818701965061128e565b81860195505b836001019350611232565b60025488101515156112aa57600080fd5b858711156113385760018a60020160006101000a81548160ff02191690831515021790555060018a60020160016101000a81548160ff0219169083151502179055508473ffffffffffffffffffffffffffffffffffffffff166108fc8a9081150290604051600060405180830381858888f19350505050158015611332573d6000803e3d6000fd5b50611356565b60008a60020160016101000a81548160ff0219169083151502179055505b5050505050505050505050565b6000809054906101000a900473ffffffffffffffffffffffffffffffffffffffff1673ffffffffffffffffffffffffffffffffffffffff163373ffffffffffffffffffffffffffffffffffffffff161415156113be57600080fd5b6000809054906101000a900473ffffffffffffffffffffffffffffffffffffffff1673ffffffffffffffffffffffffffffffffffffffff167ff8df31144d9c2f0f6b59d69b8b98abd5459d07f2742c4df920b25aae33c6482060405160405180910390a260008060006101000a81548173ffffffffffffffffffffffffffffffffffffffff021916908373ffffffffffffffffffffffffffffffffffffffff160217905550565b60025481565b6000806000600660009054906101000a900473ffffffffffffffffffffffffffffffffffffffff1673ffffffffffffffffffffffffffffffffffffffff16634951f6aa336040518263ffffffff167c0100000000000000000000000000000000000000000000000000000000028152600401808273ffffffffffffffffffffffffffffffffffffffff1673ffffffffffffffffffffffffffffffffffffffff168152602001915050602060405180830381600087803b15801561152d57600080fd5b505af1158015611541573d6000803e3d6000fd5b505050506040513d602081101561155757600080fd5b810190808051906020019092919050505090506001151581151514151561157d57600080fd5b600580548091906001016115919190611cad565b92506005838154811015156115a257fe5b90600052602060002090600702019150848260000190805190602001906115ca929190611cdf565b5083826001018190555060008260020160006101000a81548160ff02191690831515021790555060008260020160016101000a81548160ff02191690831515021790555060008260030181905550338260040160006101000a81548173ffffffffffffffffffffffffffffffffffffffff021916908373ffffffffffffffffffffffffffffffffffffffff160217905550829250505092915050565b6000809054906101000a900473ffffffffffffffffffffffffffffffffffffffff1681565b60035481565b600080600480548091906001016116a89190611d5f565b91506004828154811015156116b957fe5b90600052602060002090600802019050858160000190805190602001906116e1929190611cdf565b5060008160010160006101000a81548160ff02191690831515021790555060008160010160016101000a81548160ff02191690831515021790555060008160020181905550848160030181905550838160040181905550828160050160006101000a81548173ffffffffffffffffffffffffffffffffffffffff021916908373ffffffffffffffffffffffffffffffffffffffff16021790555081915050949350505050565b6000806000600660009054906101000a900473ffffffffffffffffffffffffffffffffffffffff1673ffffffffffffffffffffffffffffffffffffffff16634951f6aa336040518263ffffffff167c0100000000000000000000000000000000000000000000000000000000028152600401808273ffffffffffffffffffffffffffffffffffffffff1673ffffffffffffffffffffffffffffffffffffffff168152602001915050602060405180830381600087803b15801561184957600080fd5b505af115801561185d573d6000803e3d6000fd5b505050506040513d602081101561187357600080fd5b810190808051906020019092919050505090506001151581151514151561189957600080fd5b6004858154811015156118a857fe5b90600052602060002090600802019150600115158260070160003373ffffffffffffffffffffffffffffffffffffffff1673ffffffffffffffffffffffffffffffffffffffff16815260200190815260200160002060009054906101000a900460ff1615151415151561191a57600080fd5b8160060180548091906001016119309190611d91565b9250604080519081016040528085151581526020013373ffffffffffffffffffffffffffffffffffffffff16815250826006018481548110151561197057fe5b9060005260206000200160008201518160000160006101000a81548160ff02191690831515021790555060208201518160000160016101000a81548173ffffffffffffffffffffffffffffffffffffffff021916908373ffffffffffffffffffffffffffffffffffffffff16021790555090505060018260070160003373ffffffffffffffffffffffffffffffffffffffff1673ffffffffffffffffffffffffffffffffffffffff16815260200190815260200160002060006101000a81548160ff021916908315150217905550828060010193508260020181905550829250505092915050565b6000809054906101000a900473ffffffffffffffffffffffffffffffffffffffff1673ffffffffffffffffffffffffffffffffffffffff163373ffffffffffffffffffffffffffffffffffffffff16141515611ab357600080fd5b611abc81611bb3565b50565b6000806000600660009054906101000a900473ffffffffffffffffffffffffffffffffffffffff1673ffffffffffffffffffffffffffffffffffffffff1663997072f76040518163ffffffff167c0100000000000000000000000000000000000000000000000000000000028152600401602060405180830381600087803b158015611b4a57600080fd5b505af1158015611b5e573d6000803e3d6000fd5b505050506040513d6020811015611b7457600080fd5b81019080805190602001909291905050509250600a83811515611b9357fe5b049150600283811515611ba257fe5b049050818101600281905550505050565b600073ffffffffffffffffffffffffffffffffffffffff168173ffffffffffffffffffffffffffffffffffffffff1614151515611bef57600080fd5b8073ffffffffffffffffffffffffffffffffffffffff166000809054906101000a900473ffffffffffffffffffffffffffffffffffffffff1673ffffffffffffffffffffffffffffffffffffffff167f8be0079c531659141344cd1fd0a4f28419497f9722a3daafe3b4186f6b6457e060405160405180910390a3806000806101000a81548173ffffffffffffffffffffffffffffffffffffffff021916908373ffffffffffffffffffffffffffffffffffffffff16021790555050565b815481835581811115611cda57600702816007028360005260206000209182019101611cd99190611dbd565b5b505050565b828054600181600116156101000203166002900490600052602060002090601f016020900481019282601f10611d2057805160ff1916838001178555611d4e565b82800160010185558215611d4e579182015b82811115611d4d578251825591602001919060010190611d32565b5b509050611d5b9190611e5b565b5090565b815481835581811115611d8c57600802816008028360005260206000209182019101611d8b9190611e80565b5b505050565b815481835581811115611db857818360005260206000209182019101611db79190611f26565b5b505050565b611e5891905b80821115611e545760008082016000611ddc9190611f80565b60018201600090556002820160006101000a81549060ff02191690556002820160016101000a81549060ff021916905560038201600090556004820160006101000a81549073ffffffffffffffffffffffffffffffffffffffff0219169055600582016000611e4b9190611fc8565b50600701611dc3565b5090565b90565b611e7d91905b80821115611e79576000816000905550600101611e61565b5090565b90565b611f2391905b80821115611f1f5760008082016000611e9f9190611f80565b6001820160006101000a81549060ff02191690556001820160016101000a81549060ff02191690556002820160009055600382016000905560048201600090556005820160006101000a81549073ffffffffffffffffffffffffffffffffffffffff0219169055600682016000611f169190611fc8565b50600801611e86565b5090565b90565b611f7d91905b80821115611f7957600080820160006101000a81549060ff02191690556000820160016101000a81549073ffffffffffffffffffffffffffffffffffffffff021916905550600101611f2c565b5090565b90565b50805460018160011615610100020316600290046000825580601f10611fa65750611fc5565b601f016020900490600052602060002090810190611fc49190611e5b565b5b50565b5080546000825590600052602060002090810190611fe69190611f26565b505600a165627a7a72305820385791ba02d396e64b5ec1c6dd0a4243403dbfd1973c6bdca0d0e9ee54901d670029",
  "source": "pragma solidity ^0.4.21;\n\nimport \"zeppelin-solidity/contracts/ownership/Ownable.sol\";\n\ncontract CryptoPatentBlockchain {\n  function checkIfMember(address _member) public returns(bool);\n  function getMemberCount() public returns(uint);\n  function IdeaBlockGenerator(string _ideaIPFS, uint  _replicationBlockAmount, uint  _globalUseBlockAmount, address _inventor) external returns(uint);\n  function buyMembership(address _newMember, uint _amountPurchased) public;\n}\n//////////////////////////////////////////////////////////////////////////////////\ncontract DecentraCorp is Ownable {\n    uint public numProposals;\n    //tracks number of dev team proposals\n    uint public minimumQuorum;\n    //minimum quorum to be reached for a proposal to pass\n    uint public membershipTimeWizard;\n    //membership time tracker for 6 month open membership period\n    IdeaProposal[] public proposals;\n    // array of proposal structs...stores the proposals\n    FundingProposal[] public fundProp;\n    //array of funding proposals structs to store those proposals\n    CryptoPatentBlockchain public CPB;\n\n\n      struct IdeaProposal {\n           string IdeaIPFS;\n           bool executed;\n           bool proposalPassed;\n           uint numberOfVotes;\n           uint RepBlockAmount;\n           uint GlobalUseAmount;\n           address Inventor;\n           Vote[] votes;\n           mapping (address => bool) voted;\n       }\n    //Proposal struct stores info of a proposal\n      struct Vote {\n              bool inSupport;\n              address voter;\n          }\n\n     struct FundingProposal{\n       string proposalHash;\n       uint fundingAmount;\n       bool executed;\n       bool proposalPassed;\n       uint numberOfVotes;\n       address facilityOwner;\n       Vote[] votes;\n       mapping (address => bool) voted;\n     }\n\n     modifier onlyMember() {\n       bool member = CPB.checkIfMember(msg.sender);\n        require(member == true);\n        _;\n    }\n\nconstructor() public {\n  membershipTimeWizard = now;\n}\n\n\n    function setCPB_Add(address _CPAdd) public onlyOwner {\n      CPB = CryptoPatentBlockchain(_CPAdd);\n    }\n\n      function proposeIdea(\n        string _ideaIPFS,\n        uint _replicationBlockAmount,\n        uint  _globalUseBlockAmount,\n        address _inventor\n          )\n              public\n              returns (uint IdeaProposalID)\n          {\n\n              IdeaProposalID = proposals.length++;\n              IdeaProposal storage p = proposals[IdeaProposalID];\n              p.IdeaIPFS = _ideaIPFS;\n              p.executed = false;\n              p.proposalPassed = false;\n              p.numberOfVotes = 0;\n              p.RepBlockAmount = _replicationBlockAmount;\n              p.GlobalUseAmount = _globalUseBlockAmount;\n              p.Inventor = _inventor;\n              return IdeaProposalID;\n\n          }\n      //allows the dev team to propose new hard forks in either the junktion contract or the PoP TokenAuction and put it up for a vote\n       function vote(\n              uint _ideaProposalID,\n              bool supportsProposal\n          )\n              public\n              onlyMember\n              returns (uint voteID)\n          {\n              IdeaProposal storage p = proposals[_ideaProposalID];\n              require(p.voted[msg.sender] != true);\n\n              voteID = p.votes.length++;\n              p.votes[voteID] = Vote({inSupport: supportsProposal, voter: msg.sender});\n              p.voted[msg.sender] = true;\n              p.numberOfVotes = voteID++;\n\n              return voteID;\n          }\n    // allows members to vote on proposals\n\n\n          function ideaBlockVote(uint _ideaProposalID) public onlyOwner {\n            IdeaProposal storage p = proposals[_ideaProposalID];\n            // sets p equal to the specific proposalNumber\n            require(!p.executed);\n            string _ideahash = p.IdeaIPFS;\n            uint _replicationBlockAmount = p.RepBlockAmount;\n            uint _globalUseBlockAmount = p.GlobalUseAmount;\n            uint quorum = 0;\n            uint yea = 0;\n            uint nay = 0;\n            address _inventor = p.Inventor;\n            set_Quorum();\n\n\n            for (uint i = 0; i <  p.votes.length; ++i) {\n                Vote storage v = p.votes[i];\n                uint voteWeight = 1;\n                quorum += voteWeight;\n                if (v.inSupport) {\n                    yea += voteWeight;\n                } else {\n                    nay += voteWeight;\n                }\n            }\n\n            require(quorum >= minimumQuorum); // Check if a minimum quorum has been reached\n\n            if (yea > nay ) {\n                // Proposal passed; execute the transaction\n\n                p.executed = true;\n                p.proposalPassed = true;\n                CPB.IdeaBlockGenerator( _ideahash,   _replicationBlockAmount,   _globalUseBlockAmount,  _inventor);\n            } else {\n                // Proposal failed\n                p.proposalPassed = false;\n            }\n\n\n        }\n\n        function set_Quorum() internal  {\n           uint maxQuorum = CPB.getMemberCount();\n           uint tenthQuorum = (maxQuorum / 10);\n           uint  halfQuorum = (maxQuorum / 2);\n            minimumQuorum = (halfQuorum + tenthQuorum);\n           }\n\n           function facilityFundingProposal(\n             string _proposalHash,\n             uint _fundingAmount\n               )\n                   public\n                   onlyMember\n                   returns (uint fundingProposalID)\n               {\n\n                   fundingProposalID = fundProp.length++;\n                   FundingProposal storage p = fundProp[fundingProposalID];\n                   p.proposalHash = _proposalHash;\n                   p.fundingAmount = _fundingAmount;\n                   p.executed = false;\n                   p.proposalPassed = false;\n                   p.numberOfVotes = 0;\n                   p.facilityOwner = msg.sender;\n                   return fundingProposalID;\n\n               }\n\n               function fundingVote(uint fundingProposalID) public onlyMember {\n                 FundingProposal storage p = fundProp[fundingProposalID];\n                 // sets p equal to the specific proposalNumber\n                 require(!p.executed);\n\n                 uint _fundingAmount = p.fundingAmount;\n\n                 uint quorum = 0;\n                 uint yea = 0;\n                 uint nay = 0;\n                 address _facilityOwner = p.facilityOwner;\n                 set_Quorum();\n\n\n                 for (uint i = 0; i <  p.votes.length; ++i) {\n                     Vote storage v = p.votes[i];\n                     uint voteWeight = 1;\n                     quorum += voteWeight;\n                     if (v.inSupport) {\n                         yea += voteWeight;\n                     } else {\n                         nay += voteWeight;\n                     }\n                 }\n\n                 require(quorum >= minimumQuorum); // Check if a minimum quorum has been reached\n\n                 if (yea > nay ) {\n                     // Proposal passed; execute the transaction\n\n                     p.executed = true;\n                     p.proposalPassed = true;\n                     _facilityOwner.transfer(_fundingAmount);\n                 } else {\n                     // Proposal failed\n                     p.proposalPassed = false;\n                 }\n\n\n             }\n\n\n             function buyBronzeMembership() public payable {\n               require(now <= membershipTimeWizard + 15780000);\n               require(msg.value >= 1000000000000000000);// value arbitrarily chosen, value will be changed before launch to match market demand\n               CPB.buyMembership(msg.sender, 1000000000000000000000);\n             }\n\n             function buySilverMembership() public payable {\n               require(now <= membershipTimeWizard + 15780000);\n               require(msg.value >= 1500000000000000000);\n               CPB.buyMembership(msg.sender, 10000000000000000000000);\n             }\n\n             function buyGoldMembership() public payable {\n               require(now <= membershipTimeWizard + 15780000);\n               require(msg.value >= 2000000000000000000);\n               CPB.buyMembership(msg.sender, 100000000000000000000000);\n             }\n}\n",
  "sourcePath": "/home/stan36/repos/DecentraCorp/DecentraCorp/contracts/DecentraCorp.sol",
  "compiler": {
    "name": "solc",
    "version": "0.4.24+commit.e67f0147.Emscripten.clang"
  },
  "schemaVersion": "2.0.1",
  "updatedAt": "2018-10-15T02:49:57.657Z"
}