{
  "contractName": "Contactable",
  "abi": [
    {
      "constant": true,
      "inputs": [],
      "name": "contactInformation",
      "outputs": [
        {
          "name": "",
          "type": "string"
        }
      ],
      "payable": false,
      "stateMutability": "view",
      "type": "function"
    },
    {
      "constant": true,
      "inputs": [],
      "name": "owner",
      "outputs": [
        {
          "name": "",
          "type": "address"
        }
      ],
      "payable": false,
      "stateMutability": "view",
      "type": "function"
    },
    {
      "constant": false,
      "inputs": [
        {
          "name": "newOwner",
          "type": "address"
        }
      ],
      "name": "transferContractOwnership",
      "outputs": [],
      "payable": false,
      "stateMutability": "nonpayable",
      "type": "function"
    },
    {
      "anonymous": false,
      "inputs": [
        {
          "indexed": true,
          "name": "previousOwner",
          "type": "address"
        },
        {
          "indexed": true,
          "name": "newOwner",
          "type": "address"
        }
      ],
      "name": "OwnershipTransferred",
      "type": "event"
    },
    {
      "constant": false,
      "inputs": [
        {
          "name": "info",
          "type": "string"
        }
      ],
      "name": "setContactInformation",
      "outputs": [],
      "payable": false,
      "stateMutability": "nonpayable",
      "type": "function"
    }
  ],
  "bytecode": "0x6080604052336000806101000a81548173ffffffffffffffffffffffffffffffffffffffff021916908373ffffffffffffffffffffffffffffffffffffffff160217905550610558806100536000396000f300608060405260043610610062576000357c0100000000000000000000000000000000000000000000000000000000900463ffffffff16806336f7ab5e146100675780638da5cb5b146100f7578063a843c51f1461014e578063b967a52e14610191575b600080fd5b34801561007357600080fd5b5061007c6101fa565b6040518080602001828103825283818151815260200191508051906020019080838360005b838110156100bc5780820151818401526020810190506100a1565b50505050905090810190601f1680156100e95780820380516001836020036101000a031916815260200191505b509250505060405180910390f35b34801561010357600080fd5b5061010c610298565b604051808273ffffffffffffffffffffffffffffffffffffffff1673ffffffffffffffffffffffffffffffffffffffff16815260200191505060405180910390f35b34801561015a57600080fd5b5061018f600480360381019080803573ffffffffffffffffffffffffffffffffffffffff1690602001909291905050506102bd565b005b34801561019d57600080fd5b506101f8600480360381019080803590602001908201803590602001908080601f0160208091040260200160405190810160405280939291908181526020018383808284378201915050505050509192919290505050610412565b005b60018054600181600116156101000203166002900480601f0160208091040260200160405190810160405280929190818152602001828054600181600116156101000203166002900480156102905780601f1061026557610100808354040283529160200191610290565b820191906000526020600020905b81548152906001019060200180831161027357829003601f168201915b505050505081565b6000809054906101000a900473ffffffffffffffffffffffffffffffffffffffff1681565b6000809054906101000a900473ffffffffffffffffffffffffffffffffffffffff1673ffffffffffffffffffffffffffffffffffffffff163373ffffffffffffffffffffffffffffffffffffffff1614151561031857600080fd5b600073ffffffffffffffffffffffffffffffffffffffff168173ffffffffffffffffffffffffffffffffffffffff161415151561035457600080fd5b8073ffffffffffffffffffffffffffffffffffffffff166000809054906101000a900473ffffffffffffffffffffffffffffffffffffffff1673ffffffffffffffffffffffffffffffffffffffff167f8be0079c531659141344cd1fd0a4f28419497f9722a3daafe3b4186f6b6457e060405160405180910390a3806000806101000a81548173ffffffffffffffffffffffffffffffffffffffff021916908373ffffffffffffffffffffffffffffffffffffffff16021790555050565b6000809054906101000a900473ffffffffffffffffffffffffffffffffffffffff1673ffffffffffffffffffffffffffffffffffffffff163373ffffffffffffffffffffffffffffffffffffffff1614151561046d57600080fd5b8060019080519060200190610483929190610487565b5050565b828054600181600116156101000203166002900490600052602060002090601f016020900481019282601f106104c857805160ff19168380011785556104f6565b828001600101855582156104f6579182015b828111156104f55782518255916020019190600101906104da565b5b5090506105039190610507565b5090565b61052991905b8082111561052557600081600090555060010161050d565b5090565b905600a165627a7a7230582024b7b353d52313033de4f8325bee3b666dd3a4ee5d394c994485504aadaaeead0029",
  "source": "\npragma solidity ^0.4.18;\n//this is just a basic ERC20 token implementation for testing\n//this contract could be deployed as is but for now just serves as a mock for scratch token\n/**\n * @title SafeMath\n * @dev Math operations with safety checks that throw on error\n */\nlibrary SafeMath {\n\n  /**\n  * @dev Multiplies two numbers, throws on overflow.\n  */\n  function mul(uint256 a, uint256 b) internal pure returns (uint256) {\n    if (a == 0) {\n      return 0;\n    }\n    uint256 c = a * b;\n    assert(c / a == b);\n    return c;\n  }\n\n  /**\n  * @dev Integer division of two numbers, truncating the quotient.\n  */\n  function div(uint256 a, uint256 b) internal pure returns (uint256) {\n    // assert(b > 0); // Solidity automatically throws when dividing by 0\n    uint256 c = a / b;\n    // assert(a == b * c + a % b); // There is no case in which this doesn't hold\n    return c;\n  }\n\n  /**\n  * @dev Substracts two numbers, throws on overflow (i.e. if subtrahend is greater than minuend).\n  */\n  function sub(uint256 a, uint256 b) internal pure returns (uint256) {\n    assert(b <= a);\n    return a - b;\n  }\n  /**\n  * @dev Adds two numbers, throws on overflow.\n  */\n  function add(uint256 a, uint256 b) internal pure returns (uint256 c) {\n    c = a + b;\n    assert(c >= a);\n    return c;\n  }\n\n}\n\n/////////////////////////////////////////////////////////////////////////////////////////////\n\n\n\n/**\n * @title Ownable\n * @dev The Ownable contract has an owner address, and provides basic authorization control\n * functions, this simplifies the implementation of \"user permissions\".\n */\ncontract Ownable {\n  address public owner;\n\n\n  event OwnershipTransferred(address indexed previousOwner, address indexed newOwner);\n\n\n  /**\n   * @dev The Ownable constructor sets the original `owner` of the contract to the sender\n   * account.\n   */\n  function Ownable() public {\n    owner = msg.sender;\n  }\n\n  /**\n   * @dev Throws if called by any account other than the owner.\n   */\n  modifier onlyOwner() {\n    require(msg.sender == owner);\n    _;\n  }\n\n  /**\n   * @dev Allows the current owner to transfer control of the contract to a newOwner.\n   * @param newOwner The address to transfer ownership to.\n   */\n  function transferContractOwnership(address newOwner) public onlyOwner {\n    require(newOwner != address(0));\n    emit OwnershipTransferred(owner, newOwner);\n    owner = newOwner;\n  }\n\n}\n/////////////////////////////////////////////////////////////////////////////////////////////\n/**\n * @title Claimable\n * @dev Extension for the Ownable contract, where the ownership needs to be claimed.\n * This allows the new owner to accept the transfer.\n */\ncontract Claimable is Ownable {\n  address public pendingOwner;\n\n  /**\n   * @dev Modifier throws if called by any account other than the pendingOwner.\n   */\n  modifier onlyPendingOwner() {\n    require(msg.sender == pendingOwner);\n    _;\n  }\n\n  /**\n   * @dev Allows the current owner to set the pendingOwner address.\n   * @param newOwner The address to transfer ownership to.\n   */\n  function transferOwnership(address newOwner) onlyOwner public {\n    pendingOwner = newOwner;\n  }\n\n  /**\n   * @dev Allows the pendingOwner address to finalize the transfer.\n   */\n  function claimOwnership() onlyPendingOwner public {\n   emit OwnershipTransferred(owner, pendingOwner);\n    owner = pendingOwner;\n    pendingOwner = address(0);\n  }\n}\n\n/////////////////////////////////////////////////////////////////////////////////////////////\n/**\n * @title Contracts that should be able to recover tokens\n * @author SylTi\n * @dev This allow a contract to recover any ERC20 token received in a contract by transferring the balance to the contract owner.\n * This will prevent any accidental loss of tokens.\n */\ncontract CanReclaimToken is Ownable {\n  using SafeERC20 for ERC20Basic;\n\n  /**\n   * @dev Reclaim all ERC20Basic compatible tokens\n   * @param token ERC20Basic The address of the token contract\n   */\n  function reclaimToken(ERC20Basic token) external onlyOwner {\n    uint256 balance = token.balanceOf(this);\n    token.safeTransfer(owner, balance);\n  }\n\n}\n\n/////////////////////////////////////////////////////////////////////////////////////////////\n/**\n * @title Contactable token\n * @dev Basic version of a contactable contract, allowing the owner to provide a string with their\n * contact information.\n */\ncontract Contactable is Ownable {\n\n  string public contactInformation;\n\n  /**\n    * @dev Allows the owner to set a string with their contact information.\n    * @param info The contact information to attach to the contract.\n    */\n  function setContactInformation(string info) onlyOwner public {\n    contactInformation = info;\n  }\n}\n/////////////////////////////////////////////////////////////////////////////////////////////\n/**\n * @title Contracts that should not own Contracts\n * @author Remco Bloemen <remco@2π.com>\n * @dev Should contracts (anything Ownable) end up being owned by this contract, it allows the owner\n * of this contract to reclaim ownership of the contracts.\n */\ncontract HasNoContracts is Ownable {\n\n  /**\n   * @dev Reclaim ownership of Ownable contracts\n   * @param contractAddr The address of the Ownable to be reclaimed.\n   */\n  function reclaimContract(address contractAddr) external onlyOwner {\n    Ownable contractInst = Ownable(contractAddr);\n    contractInst.transferContractOwnership(owner);\n  }\n}\n/////////////////////////////////////////////////////////////////////////////////////////////\n\n/////////////////////////////////////////////////////////////////////////////////////////////\n/**\n * @title Contracts that should not own Tokens\n * @author Remco Bloemen <remco@2π.com>\n * @dev This blocks incoming ERC223 tokens to prevent accidental loss of tokens.\n * Should tokens (any ERC20Basic compatible) end up in the contract, it allows the\n * owner to reclaim the tokens.\n */\ncontract HasNoTokens is CanReclaimToken {\n\n /**\n  * @dev Reject all ERC223 compatible tokens\n  * @param from_ address The address that is transferring the tokens\n  * @param value_ uint256 the amount of the specified token\n  * @param data_ Bytes The data passed from the caller.\n  */\n  function tokenFallback(address from_, uint256 value_, bytes data_) pure external {\n    from_;\n    value_;\n    data_;\n    revert();\n  }\n\n}\n/////////////////////////////////////////////////////////////////////////////////////////////\n/**\n * @title Destructible\n * @dev Base contract that can be destroyed by owner. All funds in contract will be sent to the owner.\n */\ncontract Destructible is Ownable {\n\n  function Destructible() public payable { }\n\n  /**\n   * @dev Transfers the current balance to the owner and terminates the contract.\n   */\n  function destroy() onlyOwner public {\n    selfdestruct(owner);\n  }\n\n  function destroyAndSend(address _recipient) onlyOwner public {\n    selfdestruct(_recipient);\n  }\n}\n/////////////////////////////////////////////////////////////////////////////////////////////\n/**\n * @title Pausable\n * @dev Base contract which allows children to implement an emergency stop mechanism.\n */\ncontract Pausable is Ownable {\n  event Pause();\n  event Unpause();\n\n  bool public paused = false;\n\n\n  /**\n   * @dev Modifier to make a function callable only when the contract is not paused.\n   */\n  modifier whenNotPaused() {\n    require(!paused);\n    _;\n  }\n\n  /**\n   * @dev Modifier to make a function callable only when the contract is paused.\n   */\n  modifier whenPaused() {\n    require(paused);\n    _;\n  }\n\n  /**\n   * @dev called by the owner to pause, triggers stopped state\n   */\n  function pause() onlyOwner whenNotPaused public {\n    paused = true;\n    emit Pause();\n  }\n\n  /**\n   * @dev called by the owner to unpause, returns to normal state\n   */\n  function unpause() onlyOwner whenPaused public {\n    paused = false;\n    emit Unpause();\n  }\n}\n/////////////////////////////////////////////////////////////////////////////////////////////\ncontract ERC20Basic {\n  string internal _symbol;\n  string internal _name;\n  uint8 internal _decimals;\n  uint internal _totalSupply;\n  mapping (address => uint) internal _balanceOf;\n\n  mapping (address => mapping (address => uint)) internal _allowances;\n\n  function ERC20Basic(string symbol, string name, uint8 decimals, uint totalSupply) public {\n      _symbol = symbol;\n      _name = name;\n      _decimals = decimals;\n      _totalSupply = totalSupply;\n  }\n\n  function name() public constant returns (string) {\n      return _name;\n  }\n\n  function symbol() public constant returns (string) {\n      return _symbol;\n  }\n\n  function decimals() public constant returns (uint8) {\n      return _decimals;\n  }\n\n  function totalSupply() public constant returns (uint) {\n      return _totalSupply;\n  }\n  function balanceOf(address _addr) public constant returns (uint);\n  function transfer(address _to, uint _value) public returns (bool);\n  event Transfer(address indexed _from, address indexed _to, uint _value);\n}\n/////////////////////////////////////////////////////////////////////////////////////////////\ncontract ERC20 is ERC20Basic {\n  function allowance(address owner, address spender) public view returns (uint256);\n  function transferFrom(address from, address to, uint256 value) public returns (bool);\n  function approve(address spender, uint256 value) public returns (bool);\n  event Approval(address indexed owner, address indexed spender, uint256 value);\n}\n/////////////////////////////////////////////////////////////////////////////////////////////\n/**\n * @title SafeERC20\n * @dev Wrappers around ERC20 operations that throw on failure.\n * To use this library you can add a `using SafeERC20 for ERC20;` statement to your contract,\n * which allows you to call the safe operations as `token.safeTransfer(...)`, etc.\n */\nlibrary SafeERC20 {\n  function safeTransfer(ERC20Basic token, address to, uint256 value) internal {\n    assert(token.transfer(to, value));\n  }\n\n  function safeTransferFrom(ERC20 token, address from, address to, uint256 value) internal {\n    assert(token.transferFrom(from, to, value));\n  }\n\n  function safeApprove(ERC20 token, address spender, uint256 value) internal {\n    assert(token.approve(spender, value));\n  }\n}\n/////////////////////////////////////////////////////////////////////////////////////////////\n/**\n * @title Basic token\n * @dev Basic version of StandardToken, with no allowances.\n */\ncontract BasicToken is ERC20Basic, Ownable {\n  using SafeMath for uint256;\n\n mapping (address => bool) public frozenAccount;\n event FrozenFunds(address target, bool frozen);\n\n  uint256 totalSupply_;\n\n  /**\n  * @dev total number of tokens in existence\n  */\n  function totalSupply() public view returns (uint256) {\n    return totalSupply_;\n  }\n\n   function freezeAccount(address target, bool freeze) onlyOwner external {\n         frozenAccount[target] = freeze;\n         emit FrozenFunds(target, freeze);\n         }\n\n  /**\n  * @dev transfer token for a specified address\n  * @param _to The address to transfer to.\n  * @param _value The amount to be transferred.\n  */\n  function transfer(address _to, uint256 _value) public returns (bool) {\n      require(!frozenAccount[msg.sender]);\n    require(_to != address(0));\n    require(_value <= _balanceOf[msg.sender]);\n\n    // SafeMath.sub will throw if there is not enough balance.\n    _balanceOf[msg.sender] = _balanceOf[msg.sender].sub(_value);\n    _balanceOf[_to] = _balanceOf[_to].add(_value);\n    emit Transfer(msg.sender, _to, _value);\n    return true;\n  }\n\n  /**\n  * @dev Gets the balance of the specified address.\n  * @param _owner The address to query the the balance of.\n  * @return An uint256 representing the amount owned by the passed address.\n  */\n  function balanceOf(address _owner) public view returns (uint256 balance) {\n    return _balanceOf[_owner];\n  }\n\n}\n/////////////////////////////////////////////////////////////////////////////////////////////\n/**\n * @title Standard ERC20 token\n *\n * @dev Implementation of the basic standard token.\n * @dev https://github.com/ethereum/EIPs/issues/20\n * @dev Based on code by FirstBlood: https://github.com/Firstbloodio/token/blob/master/smart_contract/FirstBloodToken.sol\n */\ncontract StandardToken is ERC20, BasicToken {\n\n  mapping (address => mapping (address => uint256)) internal allowed;\n\n\n  /**\n   * @dev Transfer tokens from one address to another\n   * @param _from address The address which you want to send tokens from\n   * @param _to address The address which you want to transfer to\n   * @param _value uint256 the amount of tokens to be transferred\n   */\n  function transferFrom(address _from, address _to, uint256 _value) public returns (bool) {\n    require(!frozenAccount[_from] && !frozenAccount[_to] && !frozenAccount[msg.sender]);\n    require(_to != address(0));\n    require(_value <= _balanceOf[_from]);\n    require(_value <= allowed[_from][msg.sender]);\n\n    _balanceOf[_from] = _balanceOf[_from].sub(_value);\n    _balanceOf[_to] = _balanceOf[_to].add(_value);\n    allowed[_from][msg.sender] = allowed[_from][msg.sender].sub(_value);\n    emit Transfer(_from, _to, _value);\n    return true;\n  }\n\n  /**\n   * @dev Approve the passed address to spend the specified amount of tokens on behalf of msg.sender.\n   *\n   * Beware that changing an allowance with this method brings the risk that someone may use both the old\n   * and the new allowance by unfortunate transaction ordering. One possible solution to mitigate this\n   * race condition is to first reduce the spender's allowance to 0 and set the desired value afterwards:\n   * https://github.com/ethereum/EIPs/issues/20#issuecomment-263524729\n   * @param _spender The address which will spend the funds.\n   * @param _value The amount of tokens to be spent.\n   */\n  function approve(address _spender, uint256 _value) public returns (bool) {\n    allowed[msg.sender][_spender] = _value;\n    emit Approval(msg.sender, _spender, _value);\n    return true;\n  }\n\n  /**\n   * @dev Function to check the amount of tokens that an owner allowed to a spender.\n   * @param _owner address The address which owns the funds.\n   * @param _spender address The address which will spend the funds.\n   * @return A uint256 specifying the amount of tokens still available for the spender.\n   */\n  function allowance(address _owner, address _spender) public view returns (uint256) {\n    return allowed[_owner][_spender];\n  }\n\n  /**\n   * @dev Increase the amount of tokens that an owner allowed to a spender.\n   *\n   * approve should be called when allowed[_spender] == 0. To increment\n   * allowed value is better to use this function to avoid 2 calls (and wait until\n   * the first transaction is mined)\n   * From MonolithDAO Token.sol\n   * @param _spender The address which will spend the funds.\n   * @param _addedValue The amount of tokens to increase the allowance by.\n   */\n  function increaseApproval(address _spender, uint _addedValue) public returns (bool) {\n    allowed[msg.sender][_spender] = allowed[msg.sender][_spender].add(_addedValue);\n    emit Approval(msg.sender, _spender, allowed[msg.sender][_spender]);\n    return true;\n  }\n\n  /**\n   * @dev Decrease the amount of tokens that an owner allowed to a spender.\n   *\n   * approve should be called when allowed[_spender] == 0. To decrement\n   * allowed value is better to use this function to avoid 2 calls (and wait until\n   * the first transaction is mined)\n   * From MonolithDAO Token.sol\n   * @param _spender The address which will spend the funds.\n   * @param _subtractedValue The amount of tokens to decrease the allowance by.\n   */\n  function decreaseApproval(address _spender, uint _subtractedValue) public returns (bool) {\n    uint oldValue = allowed[msg.sender][_spender];\n    if (_subtractedValue > oldValue) {\n      allowed[msg.sender][_spender] = 0;\n    } else {\n      allowed[msg.sender][_spender] = oldValue.sub(_subtractedValue);\n    }\n    emit Approval(msg.sender, _spender, allowed[msg.sender][_spender]);\n    return true;\n  }\n\n}\n/////////////////////////////////////////////////////////////////////////////////////////////\ncontract PausableToken is StandardToken, Pausable {\n\n  function transfer(address _to, uint256 _value) public whenNotPaused returns (bool) {\n    return super.transfer(_to, _value);\n  }\n\n  function transferFrom(address _from, address _to, uint256 _value) public whenNotPaused returns (bool) {\n    return super.transferFrom(_from, _to, _value);\n  }\n\n  function approve(address _spender, uint256 _value) public whenNotPaused returns (bool) {\n    return super.approve(_spender, _value);\n  }\n\n  function increaseApproval(address _spender, uint _addedValue) public whenNotPaused returns (bool success) {\n    return super.increaseApproval(_spender, _addedValue);\n  }\n\n  function decreaseApproval(address _spender, uint _subtractedValue) public whenNotPaused returns (bool success) {\n    return super.decreaseApproval(_spender, _subtractedValue);\n  }\n}\n/////////////////////////////////////////////////////////////////////////////////////////////\n\ncontract IdeaCoin is ERC20Basic(\"IDC\", \"IdeaCoin\", 18, 1000000000000000000000000),  PausableToken, Destructible, Contactable, HasNoTokens, HasNoContracts {\n\n    using SafeMath for uint;\n\n    event Burn(address _from, uint256 _value);\n    event Mint(address _to, uint _value);\n\n    constructor() public {\n      _balanceOf[msg.sender] = _totalSupply;\n    }\n\n       function totalSupply() public constant returns (uint) {\n           return _totalSupply;\n       }\n\n       function balanceOf(address _addr) public constant returns (uint) {\n           return _balanceOf[_addr];\n       }\n\n\n        function burn(address _from, uint256 _value) onlyOwner external {\n              require(_balanceOf[_from] >= 0);\n              _balanceOf[_from] =  _balanceOf[_from].sub(_value);\n              _totalSupply = _totalSupply.sub(_value);\n              emit Burn(_from, _value);\n            }\n\n\n        function mintToken(address _to, uint256 _value) onlyOwner external  {\n                require(!frozenAccount[msg.sender] && !frozenAccount[_to]);\n               _balanceOf[_to] = _balanceOf[_to].add(_value);\n               _totalSupply = _totalSupply.add(_value);\n               emit Mint(_to,_value);\n             }\n\n\n\n}\n\n////////////////////////////////////////////////////////////////////////////////////////////\n",
  "sourcePath": "/home/stan36/repos/DecentraCorp/contracts/CryptoPatent/IdeaCoin.sol",
  "compiler": {
    "name": "solc",
    "version": "0.4.24+commit.e67f0147.Emscripten.clang"
  },
  "schemaVersion": "2.0.1",
  "updatedAt": "2018-10-24T01:49:33.901Z"
}