{
  "contractName": "CryptoPatentBlockGenerator",
  "abi": [
    {
      "constant": true,
      "inputs": [
        {
          "name": "_interfaceId",
          "type": "bytes4"
        }
      ],
      "name": "supportsInterface",
      "outputs": [
        {
          "name": "",
          "type": "bool"
        }
      ],
      "payable": false,
      "stateMutability": "view",
      "type": "function"
    },
    {
      "constant": true,
      "inputs": [],
      "name": "name",
      "outputs": [
        {
          "name": "",
          "type": "string"
        }
      ],
      "payable": false,
      "stateMutability": "view",
      "type": "function"
    },
    {
      "constant": true,
      "inputs": [
        {
          "name": "_tokenId",
          "type": "uint256"
        }
      ],
      "name": "getApproved",
      "outputs": [
        {
          "name": "",
          "type": "address"
        }
      ],
      "payable": false,
      "stateMutability": "view",
      "type": "function"
    },
    {
      "constant": false,
      "inputs": [
        {
          "name": "_to",
          "type": "address"
        },
        {
          "name": "_tokenId",
          "type": "uint256"
        }
      ],
      "name": "approve",
      "outputs": [],
      "payable": false,
      "stateMutability": "nonpayable",
      "type": "function"
    },
    {
      "constant": true,
      "inputs": [],
      "name": "totalSupply",
      "outputs": [
        {
          "name": "",
          "type": "uint256"
        }
      ],
      "payable": false,
      "stateMutability": "view",
      "type": "function"
    },
    {
      "constant": true,
      "inputs": [],
      "name": "InterfaceId_ERC165",
      "outputs": [
        {
          "name": "",
          "type": "bytes4"
        }
      ],
      "payable": false,
      "stateMutability": "view",
      "type": "function"
    },
    {
      "constant": true,
      "inputs": [
        {
          "name": "",
          "type": "address"
        },
        {
          "name": "",
          "type": "uint256"
        }
      ],
      "name": "replicationTracker",
      "outputs": [
        {
          "name": "",
          "type": "uint256"
        }
      ],
      "payable": false,
      "stateMutability": "view",
      "type": "function"
    },
    {
      "constant": false,
      "inputs": [
        {
          "name": "_from",
          "type": "address"
        },
        {
          "name": "_to",
          "type": "address"
        },
        {
          "name": "_tokenId",
          "type": "uint256"
        }
      ],
      "name": "transferFrom",
      "outputs": [],
      "payable": false,
      "stateMutability": "nonpayable",
      "type": "function"
    },
    {
      "constant": true,
      "inputs": [
        {
          "name": "_owner",
          "type": "address"
        },
        {
          "name": "_index",
          "type": "uint256"
        }
      ],
      "name": "tokenOfOwnerByIndex",
      "outputs": [
        {
          "name": "",
          "type": "uint256"
        }
      ],
      "payable": false,
      "stateMutability": "view",
      "type": "function"
    },
    {
      "constant": true,
      "inputs": [],
      "name": "globalUseBlocknumber",
      "outputs": [
        {
          "name": "",
          "type": "uint256"
        }
      ],
      "payable": false,
      "stateMutability": "view",
      "type": "function"
    },
    {
      "constant": true,
      "inputs": [],
      "name": "stakeAmountInIDC",
      "outputs": [
        {
          "name": "",
          "type": "uint256"
        }
      ],
      "payable": false,
      "stateMutability": "view",
      "type": "function"
    },
    {
      "constant": true,
      "inputs": [
        {
          "name": "",
          "type": "uint256"
        }
      ],
      "name": "ideaVariables",
      "outputs": [
        {
          "name": "globalUseBlockAmount",
          "type": "uint256"
        },
        {
          "name": "royalty",
          "type": "uint256"
        },
        {
          "name": "miningTime",
          "type": "uint256"
        },
        {
          "name": "inventorAddress",
          "type": "address"
        }
      ],
      "payable": false,
      "stateMutability": "view",
      "type": "function"
    },
    {
      "constant": false,
      "inputs": [
        {
          "name": "_from",
          "type": "address"
        },
        {
          "name": "_to",
          "type": "address"
        },
        {
          "name": "_tokenId",
          "type": "uint256"
        }
      ],
      "name": "safeTransferFrom",
      "outputs": [],
      "payable": false,
      "stateMutability": "nonpayable",
      "type": "function"
    },
    {
      "constant": true,
      "inputs": [],
      "name": "globalIdeaCount",
      "outputs": [
        {
          "name": "",
          "type": "uint256"
        }
      ],
      "payable": false,
      "stateMutability": "view",
      "type": "function"
    },
    {
      "constant": true,
      "inputs": [
        {
          "name": "_tokenId",
          "type": "uint256"
        }
      ],
      "name": "exists",
      "outputs": [
        {
          "name": "",
          "type": "bool"
        }
      ],
      "payable": false,
      "stateMutability": "view",
      "type": "function"
    },
    {
      "constant": true,
      "inputs": [
        {
          "name": "_index",
          "type": "uint256"
        }
      ],
      "name": "tokenByIndex",
      "outputs": [
        {
          "name": "",
          "type": "uint256"
        }
      ],
      "payable": false,
      "stateMutability": "view",
      "type": "function"
    },
    {
      "constant": true,
      "inputs": [
        {
          "name": "_tokenId",
          "type": "uint256"
        }
      ],
      "name": "ownerOf",
      "outputs": [
        {
          "name": "",
          "type": "address"
        }
      ],
      "payable": false,
      "stateMutability": "view",
      "type": "function"
    },
    {
      "constant": true,
      "inputs": [
        {
          "name": "",
          "type": "address"
        }
      ],
      "name": "globalUseBlockTracker",
      "outputs": [
        {
          "name": "",
          "type": "uint256"
        }
      ],
      "payable": false,
      "stateMutability": "view",
      "type": "function"
    },
    {
      "constant": true,
      "inputs": [
        {
          "name": "_owner",
          "type": "address"
        }
      ],
      "name": "balanceOf",
      "outputs": [
        {
          "name": "",
          "type": "uint256"
        }
      ],
      "payable": false,
      "stateMutability": "view",
      "type": "function"
    },
    {
      "constant": false,
      "inputs": [],
      "name": "renounceOwnership",
      "outputs": [],
      "payable": false,
      "stateMutability": "nonpayable",
      "type": "function"
    },
    {
      "constant": true,
      "inputs": [],
      "name": "owner",
      "outputs": [
        {
          "name": "",
          "type": "address"
        }
      ],
      "payable": false,
      "stateMutability": "view",
      "type": "function"
    },
    {
      "constant": true,
      "inputs": [],
      "name": "symbol",
      "outputs": [
        {
          "name": "",
          "type": "string"
        }
      ],
      "payable": false,
      "stateMutability": "view",
      "type": "function"
    },
    {
      "constant": false,
      "inputs": [
        {
          "name": "_to",
          "type": "address"
        },
        {
          "name": "_approved",
          "type": "bool"
        }
      ],
      "name": "setApprovalForAll",
      "outputs": [],
      "payable": false,
      "stateMutability": "nonpayable",
      "type": "function"
    },
    {
      "constant": false,
      "inputs": [
        {
          "name": "_from",
          "type": "address"
        },
        {
          "name": "_to",
          "type": "address"
        },
        {
          "name": "_tokenId",
          "type": "uint256"
        },
        {
          "name": "_data",
          "type": "bytes"
        }
      ],
      "name": "safeTransferFrom",
      "outputs": [],
      "payable": false,
      "stateMutability": "nonpayable",
      "type": "function"
    },
    {
      "constant": true,
      "inputs": [],
      "name": "globalRepCount",
      "outputs": [
        {
          "name": "",
          "type": "uint256"
        }
      ],
      "payable": false,
      "stateMutability": "view",
      "type": "function"
    },
    {
      "constant": true,
      "inputs": [
        {
          "name": "_tokenId",
          "type": "uint256"
        }
      ],
      "name": "tokenURI",
      "outputs": [
        {
          "name": "",
          "type": "string"
        }
      ],
      "payable": false,
      "stateMutability": "view",
      "type": "function"
    },
    {
      "constant": true,
      "inputs": [
        {
          "name": "_owner",
          "type": "address"
        },
        {
          "name": "_operator",
          "type": "address"
        }
      ],
      "name": "isApprovedForAll",
      "outputs": [
        {
          "name": "",
          "type": "bool"
        }
      ],
      "payable": false,
      "stateMutability": "view",
      "type": "function"
    },
    {
      "constant": false,
      "inputs": [
        {
          "name": "_newOwner",
          "type": "address"
        }
      ],
      "name": "transferOwnership",
      "outputs": [],
      "payable": false,
      "stateMutability": "nonpayable",
      "type": "function"
    },
    {
      "anonymous": false,
      "inputs": [
        {
          "indexed": true,
          "name": "_from",
          "type": "address"
        },
        {
          "indexed": true,
          "name": "_to",
          "type": "address"
        },
        {
          "indexed": true,
          "name": "_tokenId",
          "type": "uint256"
        }
      ],
      "name": "Transfer",
      "type": "event"
    },
    {
      "anonymous": false,
      "inputs": [
        {
          "indexed": true,
          "name": "_owner",
          "type": "address"
        },
        {
          "indexed": true,
          "name": "_approved",
          "type": "address"
        },
        {
          "indexed": true,
          "name": "_tokenId",
          "type": "uint256"
        }
      ],
      "name": "Approval",
      "type": "event"
    },
    {
      "anonymous": false,
      "inputs": [
        {
          "indexed": true,
          "name": "_owner",
          "type": "address"
        },
        {
          "indexed": true,
          "name": "_operator",
          "type": "address"
        },
        {
          "indexed": false,
          "name": "_approved",
          "type": "bool"
        }
      ],
      "name": "ApprovalForAll",
      "type": "event"
    },
    {
      "anonymous": false,
      "inputs": [
        {
          "indexed": true,
          "name": "previousOwner",
          "type": "address"
        }
      ],
      "name": "OwnershipRenounced",
      "type": "event"
    },
    {
      "anonymous": false,
      "inputs": [
        {
          "indexed": true,
          "name": "previousOwner",
          "type": "address"
        },
        {
          "indexed": true,
          "name": "newOwner",
          "type": "address"
        }
      ],
      "name": "OwnershipTransferred",
      "type": "event"
    },
    {
      "constant": false,
      "inputs": [
        {
          "name": "_ideaIPFS",
          "type": "string"
        },
        {
          "name": "_globalUseBlockAmount",
          "type": "uint256"
        },
        {
          "name": "_miningTime",
          "type": "uint256"
        },
        {
          "name": "_royalty",
          "type": "uint256"
        },
        {
          "name": "_inventorsAddress",
          "type": "address"
        }
      ],
      "name": "_generateIdeaBlock",
      "outputs": [],
      "payable": false,
      "stateMutability": "nonpayable",
      "type": "function"
    },
    {
      "constant": false,
      "inputs": [
        {
          "name": "_ideaId",
          "type": "uint256"
        },
        {
          "name": "_repAdd",
          "type": "address"
        },
        {
          "name": "_replicatorAdd",
          "type": "address"
        }
      ],
      "name": "_replicationBlock",
      "outputs": [],
      "payable": false,
      "stateMutability": "nonpayable",
      "type": "function"
    },
    {
      "constant": false,
      "inputs": [
        {
          "name": "_replicationOwner",
          "type": "address"
        }
      ],
      "name": "_generateGUSBlock",
      "outputs": [],
      "payable": false,
      "stateMutability": "nonpayable",
      "type": "function"
    },
    {
      "constant": true,
      "inputs": [
        {
          "name": "_ideaId",
          "type": "uint256"
        }
      ],
      "name": "getGlobalUseBlockAmount",
      "outputs": [
        {
          "name": "",
          "type": "uint256"
        }
      ],
      "payable": false,
      "stateMutability": "view",
      "type": "function"
    },
    {
      "constant": true,
      "inputs": [
        {
          "name": "_ideaId",
          "type": "uint256"
        }
      ],
      "name": "getInventor",
      "outputs": [
        {
          "name": "",
          "type": "address"
        }
      ],
      "payable": false,
      "stateMutability": "view",
      "type": "function"
    },
    {
      "constant": true,
      "inputs": [
        {
          "name": "_ideaId",
          "type": "uint256"
        }
      ],
      "name": "setMiningTime",
      "outputs": [],
      "payable": false,
      "stateMutability": "view",
      "type": "function"
    },
    {
      "constant": true,
      "inputs": [
        {
          "name": "_repAdd",
          "type": "address"
        }
      ],
      "name": "getBlockReward",
      "outputs": [
        {
          "name": "",
          "type": "uint256"
        }
      ],
      "payable": false,
      "stateMutability": "view",
      "type": "function"
    },
    {
      "constant": true,
      "inputs": [
        {
          "name": "_repAdd",
          "type": "address"
        }
      ],
      "name": "getOwnersAddress",
      "outputs": [
        {
          "name": "",
          "type": "address"
        }
      ],
      "payable": false,
      "stateMutability": "view",
      "type": "function"
    },
    {
      "constant": true,
      "inputs": [
        {
          "name": "_repAdd",
          "type": "address"
        }
      ],
      "name": "getIdeaID",
      "outputs": [
        {
          "name": "",
          "type": "uint256"
        }
      ],
      "payable": false,
      "stateMutability": "view",
      "type": "function"
    },
    {
      "constant": true,
      "inputs": [
        {
          "name": "_repAdd",
          "type": "address"
        }
      ],
      "name": "getInventorsAddress",
      "outputs": [
        {
          "name": "",
          "type": "address"
        }
      ],
      "payable": false,
      "stateMutability": "view",
      "type": "function"
    },
    {
      "constant": true,
      "inputs": [
        {
          "name": "_repAdd",
          "type": "address"
        }
      ],
      "name": "getReplicationAddress",
      "outputs": [
        {
          "name": "",
          "type": "address"
        }
      ],
      "payable": false,
      "stateMutability": "view",
      "type": "function"
    },
    {
      "constant": true,
      "inputs": [
        {
          "name": "_ideaId",
          "type": "uint256"
        }
      ],
      "name": "getRoyalty",
      "outputs": [
        {
          "name": "",
          "type": "uint256"
        }
      ],
      "payable": false,
      "stateMutability": "view",
      "type": "function"
    },
    {
      "constant": true,
      "inputs": [
        {
          "name": "_repAdd",
          "type": "address"
        }
      ],
      "name": "getRoyalty",
      "outputs": [
        {
          "name": "",
          "type": "uint256"
        }
      ],
      "payable": false,
      "stateMutability": "view",
      "type": "function"
    },
    {
      "constant": true,
      "inputs": [
        {
          "name": "_repAdd",
          "type": "address"
        }
      ],
      "name": "getRepID",
      "outputs": [
        {
          "name": "",
          "type": "uint256"
        }
      ],
      "payable": false,
      "stateMutability": "view",
      "type": "function"
    },
    {
      "constant": true,
      "inputs": [
        {
          "name": "_add",
          "type": "address"
        }
      ],
      "name": "checkIfRep",
      "outputs": [
        {
          "name": "",
          "type": "bool"
        }
      ],
      "payable": false,
      "stateMutability": "view",
      "type": "function"
    },
    {
      "constant": true,
      "inputs": [
        {
          "name": "_add",
          "type": "address"
        },
        {
          "name": "_ideaId",
          "type": "uint256"
        }
      ],
      "name": "getNumOfReps",
      "outputs": [
        {
          "name": "",
          "type": "uint256"
        }
      ],
      "payable": false,
      "stateMutability": "view",
      "type": "function"
    },
    {
      "constant": true,
      "inputs": [
        {
          "name": "_ideaId",
          "type": "uint256"
        }
      ],
      "name": "getRepTotal",
      "outputs": [
        {
          "name": "",
          "type": "uint256"
        }
      ],
      "payable": false,
      "stateMutability": "view",
      "type": "function"
    },
    {
      "constant": true,
      "inputs": [
        {
          "name": "_ideaId",
          "type": "uint256"
        }
      ],
      "name": "getMiningTime",
      "outputs": [
        {
          "name": "",
          "type": "uint256"
        }
      ],
      "payable": false,
      "stateMutability": "view",
      "type": "function"
    },
    {
      "constant": true,
      "inputs": [
        {
          "name": "_repAdd",
          "type": "address"
        }
      ],
      "name": "getMiningTime",
      "outputs": [
        {
          "name": "",
          "type": "uint256"
        }
      ],
      "payable": false,
      "stateMutability": "view",
      "type": "function"
    }
  ],
  "bytecode": "0x60806040526000600d556064600e556000600f5560006010556040805190810160405280601181526020017f43727970746f506174656e74426c6f636b0000000000000000000000000000008152506040805190810160405280600381526020017f4350420000000000000000000000000000000000000000000000000000000000815250336000806101000a81548173ffffffffffffffffffffffffffffffffffffffff021916908373ffffffffffffffffffffffffffffffffffffffff160217905550620001016301ffc9a77c0100000000000000000000000000000000000000000000000000000000026200022f640100000000026401000000009004565b6200013e6380ac58cd7c0100000000000000000000000000000000000000000000000000000000026200022f640100000000026401000000009004565b6200017b634f558e797c0100000000000000000000000000000000000000000000000000000000026200022f640100000000026401000000009004565b816006908051906020019062000193929190620002ed565b508060079080519060200190620001ac929190620002ed565b50620001ea63780e9d637c0100000000000000000000000000000000000000000000000000000000026200022f640100000000026401000000009004565b62000227635b5e139f7c0100000000000000000000000000000000000000000000000000000000026200022f640100000000026401000000009004565b50506200039c565b63ffffffff7c010000000000000000000000000000000000000000000000000000000002817bffffffffffffffffffffffffffffffffffffffffffffffffffffffff1916141515156200028157600080fd5b6001806000837bffffffffffffffffffffffffffffffffffffffffffffffffffffffff19167bffffffffffffffffffffffffffffffffffffffffffffffffffffffff1916815260200190815260200160002060006101000a81548160ff02191690831515021790555050565b828054600181600116156101000203166002900490600052602060002090601f016020900481019282601f106200033057805160ff191683800117855562000361565b8280016001018555821562000361579182015b828111156200036057825182559160200191906001019062000343565b5b50905062000370919062000374565b5090565b6200039991905b80821115620003955760008160009055506001016200037b565b5090565b90565b6143a680620003ac6000396000f30060806040526004361061023b576000357c0100000000000000000000000000000000000000000000000000000000900463ffffffff16806301ffc9a71461024057806306fdde03146102a4578063081812fc1461033457806308f60344146103a1578063095ea7b3146103e25780631447e8661461042f57806318160ddd1461048657806319fa8f50146104b15780631af9cf491461051a5780631cc1ba9e1461055b5780631d5f3dfc146105bc57806323b872dd146105fd5780632f745c591461066a57806330255eb5146106cb578063314570df1461072c5780633a30d8e0146107575780634172da27146107da5780634242779f1461080557806342842e0e146108875780634cfa2409146108f45780634f558e791461091f5780634f6ccce7146109645780636352211e146109a557806368a2ce8814610a1257806370a0823114610a69578063715018a614610ac057806388556ddc14610ad75780638da5cb5b14610b2e5780638eb5b91314610b855780638fce263314610be05780639248477314610c5957806395d89b4114610cb0578063979571c514610d40578063a22cb46514610dad578063b88d4fde14610dfc578063bb78845714610eaf578063be6cbbcf14610f32578063c87b56dd14610f5d578063cb47f76014611003578063d4f69b6814611030578063d55b09f314611071578063d5e5c561146110de578063d99e98fb14611135578063dbe10d5114611178578063e985e9c5146111fb578063eb61e37114611276578063f2fde38b146112cd575b600080fd5b34801561024c57600080fd5b5061028a60048036038101908080357bffffffffffffffffffffffffffffffffffffffffffffffffffffffff19169060200190929190505050611310565b604051808215151515815260200191505060405180910390f35b3480156102b057600080fd5b506102b9611378565b6040518080602001828103825283818151815260200191508051906020019080838360005b838110156102f95780820151818401526020810190506102de565b50505050905090810190601f1680156103265780820380516001836020036101000a031916815260200191505b509250505060405180910390f35b34801561034057600080fd5b5061035f6004803603810190808035906020019092919050505061141a565b604051808273ffffffffffffffffffffffffffffffffffffffff1673ffffffffffffffffffffffffffffffffffffffff16815260200191505060405180910390f35b3480156103ad57600080fd5b506103cc60048036038101908080359060200190929190505050611457565b6040518082815260200191505060405180910390f35b3480156103ee57600080fd5b5061042d600480360381019080803573ffffffffffffffffffffffffffffffffffffffff16906020019092919080359060200190929190505050611474565b005b34801561043b57600080fd5b50610470600480360381019080803573ffffffffffffffffffffffffffffffffffffffff1690602001909291905050506115b9565b6040518082815260200191505060405180910390f35b34801561049257600080fd5b5061049b611758565b6040518082815260200191505060405180910390f35b3480156104bd57600080fd5b506104c6611765565b60405180827bffffffffffffffffffffffffffffffffffffffffffffffffffffffff19167bffffffffffffffffffffffffffffffffffffffffffffffffffffffff1916815260200191505060405180910390f35b34801561052657600080fd5b506105456004803603810190808035906020019092919050505061178c565b6040518082815260200191505060405180910390f35b34801561056757600080fd5b506105a6600480360381019080803573ffffffffffffffffffffffffffffffffffffffff1690602001909291908035906020019092919050505061183e565b6040518082815260200191505060405180910390f35b3480156105c857600080fd5b506105e760048036038101908080359060200190929190505050611863565b6040518082815260200191505060405180910390f35b34801561060957600080fd5b50610668600480360381019080803573ffffffffffffffffffffffffffffffffffffffff169060200190929190803573ffffffffffffffffffffffffffffffffffffffff16906020019092919080359060200190929190505050611915565b005b34801561067657600080fd5b506106b5600480360381019080803573ffffffffffffffffffffffffffffffffffffffff16906020019092919080359060200190929190505050611a20565b6040518082815260200191505060405180910390f35b3480156106d757600080fd5b50610716600480360381019080803573ffffffffffffffffffffffffffffffffffffffff16906020019092919080359060200190929190505050611a97565b6040518082815260200191505060405180910390f35b34801561073857600080fd5b50610741611af2565b6040518082815260200191505060405180910390f35b34801561076357600080fd5b50610798600480360381019080803573ffffffffffffffffffffffffffffffffffffffff169060200190929190505050611af8565b604051808273ffffffffffffffffffffffffffffffffffffffff1673ffffffffffffffffffffffffffffffffffffffff16815260200191505060405180910390f35b3480156107e657600080fd5b506107ef611c97565b6040518082815260200191505060405180910390f35b34801561081157600080fd5b5061083060048036038101908080359060200190929190505050611c9d565b604051808581526020018481526020018381526020018273ffffffffffffffffffffffffffffffffffffffff1673ffffffffffffffffffffffffffffffffffffffff16815260200194505050505060405180910390f35b34801561089357600080fd5b506108f2600480360381019080803573ffffffffffffffffffffffffffffffffffffffff169060200190929190803573ffffffffffffffffffffffffffffffffffffffff16906020019092919080359060200190929190505050611ced565b005b34801561090057600080fd5b50610909611d0e565b6040518082815260200191505060405180910390f35b34801561092b57600080fd5b5061094a60048036038101908080359060200190929190505050611d14565b604051808215151515815260200191505060405180910390f35b34801561097057600080fd5b5061098f60048036038101908080359060200190929190505050611d86565b6040518082815260200191505060405180910390f35b3480156109b157600080fd5b506109d060048036038101908080359060200190929190505050611dbe565b604051808273ffffffffffffffffffffffffffffffffffffffff1673ffffffffffffffffffffffffffffffffffffffff16815260200191505060405180910390f35b348015610a1e57600080fd5b50610a53600480360381019080803573ffffffffffffffffffffffffffffffffffffffff169060200190929190505050611e3c565b6040518082815260200191505060405180910390f35b348015610a7557600080fd5b50610aaa600480360381019080803573ffffffffffffffffffffffffffffffffffffffff169060200190929190505050611e54565b6040518082815260200191505060405180910390f35b348015610acc57600080fd5b50610ad5611ed8565b005b348015610ae357600080fd5b50610b18600480360381019080803573ffffffffffffffffffffffffffffffffffffffff169060200190929190505050611fda565b6040518082815260200191505060405180910390f35b348015610b3a57600080fd5b50610b43612179565b604051808273ffffffffffffffffffffffffffffffffffffffff1673ffffffffffffffffffffffffffffffffffffffff16815260200191505060405180910390f35b348015610b9157600080fd5b50610bc6600480360381019080803573ffffffffffffffffffffffffffffffffffffffff16906020019092919050505061219e565b604051808215151515815260200191505060405180910390f35b348015610bec57600080fd5b50610c57600480360381019080803590602001908201803590602001919091929391929390803590602001909291908035906020019092919080359060200190929190803573ffffffffffffffffffffffffffffffffffffffff1690602001909291905050506121f4565b005b348015610c6557600080fd5b50610c9a600480360381019080803573ffffffffffffffffffffffffffffffffffffffff1690602001909291905050506122c3565b6040518082815260200191505060405180910390f35b348015610cbc57600080fd5b50610cc5612462565b6040518080602001828103825283818151815260200191508051906020019080838360005b83811015610d05578082015181840152602081019050610cea565b50505050905090810190601f168015610d325780820380516001836020036101000a031916815260200191505b509250505060405180910390f35b348015610d4c57600080fd5b50610dab60048036038101908080359060200190929190803573ffffffffffffffffffffffffffffffffffffffff169060200190929190803573ffffffffffffffffffffffffffffffffffffffff169060200190929190505050612504565b005b348015610db957600080fd5b50610dfa600480360381019080803573ffffffffffffffffffffffffffffffffffffffff1690602001909291908035151590602001909291905050506128c4565b005b348015610e0857600080fd5b50610ead600480360381019080803573ffffffffffffffffffffffffffffffffffffffff169060200190929190803573ffffffffffffffffffffffffffffffffffffffff16906020019092919080359060200190929190803590602001908201803590602001908080601f0160208091040260200160405190810160405280939291908181526020018383808284378201915050505050509192919290505050612a00565b005b348015610ebb57600080fd5b50610ef0600480360381019080803573ffffffffffffffffffffffffffffffffffffffff169060200190929190505050612a28565b604051808273ffffffffffffffffffffffffffffffffffffffff1673ffffffffffffffffffffffffffffffffffffffff16815260200191505060405180910390f35b348015610f3e57600080fd5b50610f47612bc7565b6040518082815260200191505060405180910390f35b348015610f6957600080fd5b50610f8860048036038101908080359060200190929190505050612bcd565b6040518080602001828103825283818151815260200191508051906020019080838360005b83811015610fc8578082015181840152602081019050610fad565b50505050905090810190601f168015610ff55780820380516001836020036101000a031916815260200191505b509250505060405180910390f35b34801561100f57600080fd5b5061102e60048036038101908080359060200190929190505050612c96565b005b34801561103c57600080fd5b5061105b60048036038101908080359060200190929190505050612d41565b6040518082815260200191505060405180910390f35b34801561107d57600080fd5b5061109c60048036038101908080359060200190929190505050612df3565b604051808273ffffffffffffffffffffffffffffffffffffffff1673ffffffffffffffffffffffffffffffffffffffff16815260200191505060405180910390f35b3480156110ea57600080fd5b5061111f600480360381019080803573ffffffffffffffffffffffffffffffffffffffff169060200190929190505050612ea5565b6040518082815260200191505060405180910390f35b34801561114157600080fd5b50611176600480360381019080803573ffffffffffffffffffffffffffffffffffffffff169060200190929190505050613044565b005b34801561118457600080fd5b506111b9600480360381019080803573ffffffffffffffffffffffffffffffffffffffff16906020019092919050505061310a565b604051808273ffffffffffffffffffffffffffffffffffffffff1673ffffffffffffffffffffffffffffffffffffffff16815260200191505060405180910390f35b34801561120757600080fd5b5061125c600480360381019080803573ffffffffffffffffffffffffffffffffffffffff169060200190929190803573ffffffffffffffffffffffffffffffffffffffff1690602001909291905050506132a9565b604051808215151515815260200191505060405180910390f35b34801561128257600080fd5b506112b7600480360381019080803573ffffffffffffffffffffffffffffffffffffffff16906020019092919050505061333d565b6040518082815260200191505060405180910390f35b3480156112d957600080fd5b5061130e600480360381019080803573ffffffffffffffffffffffffffffffffffffffff1690602001909291905050506134dc565b005b600060016000837bffffffffffffffffffffffffffffffffffffffffffffffffffffffff19167bffffffffffffffffffffffffffffffffffffffffffffffffffffffff1916815260200190815260200160002060009054906101000a900460ff169050919050565b606060068054600181600116156101000203166002900480601f0160208091040260200160405190810160405280929190818152602001828054600181600116156101000203166002900480156114105780601f106113e557610100808354040283529160200191611410565b820191906000526020600020905b8154815290600101906020018083116113f357829003601f168201915b5050505050905090565b60006003600083815260200190815260200160002060009054906101000a900473ffffffffffffffffffffffffffffffffffffffff169050919050565b600060166000838152602001908152602001600020549050919050565b600061147f82611dbe565b90508073ffffffffffffffffffffffffffffffffffffffff168373ffffffffffffffffffffffffffffffffffffffff16141515156114bc57600080fd5b8073ffffffffffffffffffffffffffffffffffffffff163373ffffffffffffffffffffffffffffffffffffffff1614806114fc57506114fb81336132a9565b5b151561150757600080fd5b826003600084815260200190815260200160002060006101000a81548173ffffffffffffffffffffffffffffffffffffffff021916908373ffffffffffffffffffffffffffffffffffffffff160217905550818373ffffffffffffffffffffffffffffffffffffffff168273ffffffffffffffffffffffffffffffffffffffff167f8c5be1e5ebec7d5bd14f71427d1e84f3dd0314c0f7b2291e5b200ac8c7c3b92560405160405180910390a4505050565b60006115c36141e2565b6000601460008573ffffffffffffffffffffffffffffffffffffffff1673ffffffffffffffffffffffffffffffffffffffff1681526020019081526020016000206101006040519081016040529081600082015481526020016001820160009054906101000a900473ffffffffffffffffffffffffffffffffffffffff1673ffffffffffffffffffffffffffffffffffffffff1673ffffffffffffffffffffffffffffffffffffffff168152602001600282015481526020016003820154815260200160048201548152602001600582015481526020016006820160009054906101000a900473ffffffffffffffffffffffffffffffffffffffff1673ffffffffffffffffffffffffffffffffffffffff1673ffffffffffffffffffffffffffffffffffffffff1681526020016007820160009054906101000a900473ffffffffffffffffffffffffffffffffffffffff1673ffffffffffffffffffffffffffffffffffffffff1673ffffffffffffffffffffffffffffffffffffffff16815250509150816000015190508092505050919050565b6000600a80549050905090565b6301ffc9a77c01000000000000000000000000000000000000000000000000000000000281565b600061179661426a565b600060116000858152602001908152602001600020608060405190810160405290816000820154815260200160018201548152602001600282015481526020016003820160009054906101000a900473ffffffffffffffffffffffffffffffffffffffff1673ffffffffffffffffffffffffffffffffffffffff1673ffffffffffffffffffffffffffffffffffffffff16815250509150816020015190508092505050919050565b6012602052816000526040600020602052806000526040600020600091509150505481565b600061186d61426a565b600060116000858152602001908152602001600020608060405190810160405290816000820154815260200160018201548152602001600282015481526020016003820160009054906101000a900473ffffffffffffffffffffffffffffffffffffffff1673ffffffffffffffffffffffffffffffffffffffff1673ffffffffffffffffffffffffffffffffffffffff16815250509150816040015190508092505050919050565b61191f3382613543565b151561192a57600080fd5b600073ffffffffffffffffffffffffffffffffffffffff168373ffffffffffffffffffffffffffffffffffffffff161415151561196657600080fd5b600073ffffffffffffffffffffffffffffffffffffffff168273ffffffffffffffffffffffffffffffffffffffff16141515156119a257600080fd5b6119ac83826135d8565b6119b683826136db565b6119c08282613897565b808273ffffffffffffffffffffffffffffffffffffffff168473ffffffffffffffffffffffffffffffffffffffff167fddf252ad1be2c89b69c2b068fc378daa952ba7f163c4a11628f55a4df523b3ef60405160405180910390a4505050565b6000611a2b83611e54565b82101515611a3857600080fd5b600860008473ffffffffffffffffffffffffffffffffffffffff1673ffffffffffffffffffffffffffffffffffffffff16815260200190815260200160002082815481101515611a8457fe5b9060005260206000200154905092915050565b6000601560008473ffffffffffffffffffffffffffffffffffffffff1673ffffffffffffffffffffffffffffffffffffffff168152602001908152602001600020600083815260200190815260200160002054905092915050565b60105481565b6000611b026141e2565b6000601460008573ffffffffffffffffffffffffffffffffffffffff1673ffffffffffffffffffffffffffffffffffffffff1681526020019081526020016000206101006040519081016040529081600082015481526020016001820160009054906101000a900473ffffffffffffffffffffffffffffffffffffffff1673ffffffffffffffffffffffffffffffffffffffff1673ffffffffffffffffffffffffffffffffffffffff168152602001600282015481526020016003820154815260200160048201548152602001600582015481526020016006820160009054906101000a900473ffffffffffffffffffffffffffffffffffffffff1673ffffffffffffffffffffffffffffffffffffffff1673ffffffffffffffffffffffffffffffffffffffff1681526020016007820160009054906101000a900473ffffffffffffffffffffffffffffffffffffffff1673ffffffffffffffffffffffffffffffffffffffff1673ffffffffffffffffffffffffffffffffffffffff168152505091508160e0015190508092505050919050565b600e5481565b60116020528060005260406000206000915090508060000154908060010154908060020154908060030160009054906101000a900473ffffffffffffffffffffffffffffffffffffffff16905084565b611d098383836020604051908101604052806000815250612a00565b505050565b600d5481565b6000806002600084815260200190815260200160002060009054906101000a900473ffffffffffffffffffffffffffffffffffffffff169050600073ffffffffffffffffffffffffffffffffffffffff168173ffffffffffffffffffffffffffffffffffffffff161415915050919050565b6000611d90611758565b82101515611d9d57600080fd5b600a82815481101515611dac57fe5b90600052602060002001549050919050565b6000806002600084815260200190815260200160002060009054906101000a900473ffffffffffffffffffffffffffffffffffffffff169050600073ffffffffffffffffffffffffffffffffffffffff168173ffffffffffffffffffffffffffffffffffffffff1614151515611e3357600080fd5b80915050919050565b60176020528060005260406000206000915090505481565b60008073ffffffffffffffffffffffffffffffffffffffff168273ffffffffffffffffffffffffffffffffffffffff1614151515611e9157600080fd5b600460008373ffffffffffffffffffffffffffffffffffffffff1673ffffffffffffffffffffffffffffffffffffffff168152602001908152602001600020549050919050565b6000809054906101000a900473ffffffffffffffffffffffffffffffffffffffff1673ffffffffffffffffffffffffffffffffffffffff163373ffffffffffffffffffffffffffffffffffffffff16141515611f3357600080fd5b6000809054906101000a900473ffffffffffffffffffffffffffffffffffffffff1673ffffffffffffffffffffffffffffffffffffffff167ff8df31144d9c2f0f6b59d69b8b98abd5459d07f2742c4df920b25aae33c6482060405160405180910390a260008060006101000a81548173ffffffffffffffffffffffffffffffffffffffff021916908373ffffffffffffffffffffffffffffffffffffffff160217905550565b6000611fe46141e2565b6000601460008573ffffffffffffffffffffffffffffffffffffffff1673ffffffffffffffffffffffffffffffffffffffff1681526020019081526020016000206101006040519081016040529081600082015481526020016001820160009054906101000a900473ffffffffffffffffffffffffffffffffffffffff1673ffffffffffffffffffffffffffffffffffffffff1673ffffffffffffffffffffffffffffffffffffffff168152602001600282015481526020016003820154815260200160048201548152602001600582015481526020016006820160009054906101000a900473ffffffffffffffffffffffffffffffffffffffff1673ffffffffffffffffffffffffffffffffffffffff1673ffffffffffffffffffffffffffffffffffffffff1681526020016007820160009054906101000a900473ffffffffffffffffffffffffffffffffffffffff1673ffffffffffffffffffffffffffffffffffffffff1673ffffffffffffffffffffffffffffffffffffffff16815250509150816040015190508092505050919050565b6000809054906101000a900473ffffffffffffffffffffffffffffffffffffffff1681565b6000601360008373ffffffffffffffffffffffffffffffffffffffff1673ffffffffffffffffffffffffffffffffffffffff16815260200190815260200160002060009054906101000a900460ff169050919050565b60008060009054906101000a900473ffffffffffffffffffffffffffffffffffffffff1673ffffffffffffffffffffffffffffffffffffffff163373ffffffffffffffffffffffffffffffffffffffff1614151561225157600080fd5b600d60008154809291906001019190505550600d549050612272828261396e565b6122ae8188888080601f0160208091040260200160405190810160405280939291908181526020018383808284378201915050505050506139c5565b6122ba85848685613a05565b50505050505050565b60006122cd6141e2565b6000601460008573ffffffffffffffffffffffffffffffffffffffff1673ffffffffffffffffffffffffffffffffffffffff1681526020019081526020016000206101006040519081016040529081600082015481526020016001820160009054906101000a900473ffffffffffffffffffffffffffffffffffffffff1673ffffffffffffffffffffffffffffffffffffffff1673ffffffffffffffffffffffffffffffffffffffff168152602001600282015481526020016003820154815260200160048201548152602001600582015481526020016006820160009054906101000a900473ffffffffffffffffffffffffffffffffffffffff1673ffffffffffffffffffffffffffffffffffffffff1673ffffffffffffffffffffffffffffffffffffffff1681526020016007820160009054906101000a900473ffffffffffffffffffffffffffffffffffffffff1673ffffffffffffffffffffffffffffffffffffffff1673ffffffffffffffffffffffffffffffffffffffff168152505091508160a0015190508092505050919050565b606060078054600181600116156101000203166002900480601f0160208091040260200160405190810160405280929190818152602001828054600181600116156101000203166002900480156124fa5780601f106124cf576101008083540402835291602001916124fa565b820191906000526020600020905b8154815290600101906020018083116124dd57829003601f168201915b5050505050905090565b6000806000806000806125156141e2565b6000806000809054906101000a900473ffffffffffffffffffffffffffffffffffffffff1673ffffffffffffffffffffffffffffffffffffffff163373ffffffffffffffffffffffffffffffffffffffff1614151561257357600080fd5b61257c8c612d41565b98506125878c61178c565b975087890396506125978c611863565b95506125a28c612df3565b94506125ae8c8b613ad2565b600f549350610100604051908101604052808881526020018b73ffffffffffffffffffffffffffffffffffffffff1681526020018d81526020018981526020018581526020018781526020018673ffffffffffffffffffffffffffffffffffffffff1681526020018c73ffffffffffffffffffffffffffffffffffffffff16815250925082601460008d73ffffffffffffffffffffffffffffffffffffffff1673ffffffffffffffffffffffffffffffffffffffff1681526020019081526020016000206000820151816000015560208201518160010160006101000a81548173ffffffffffffffffffffffffffffffffffffffff021916908373ffffffffffffffffffffffffffffffffffffffff16021790555060408201518160020155606082015181600301556080820151816004015560a0820151816005015560c08201518160060160006101000a81548173ffffffffffffffffffffffffffffffffffffffff021916908373ffffffffffffffffffffffffffffffffffffffff16021790555060e08201518160070160006101000a81548173ffffffffffffffffffffffffffffffffffffffff021916908373ffffffffffffffffffffffffffffffffffffffff160217905550905050601660008d815260200190815260200160002054915081806001019250601660008e8152602001908152602001600020819055506001601360008d73ffffffffffffffffffffffffffffffffffffffff1673ffffffffffffffffffffffffffffffffffffffff16815260200190815260200160002060006101000a81548160ff021916908315150217905550601560008b73ffffffffffffffffffffffffffffffffffffffff1673ffffffffffffffffffffffffffffffffffffffff16815260200190815260200160002060008d815260200190815260200160002054905080806001019150601560008c73ffffffffffffffffffffffffffffffffffffffff1673ffffffffffffffffffffffffffffffffffffffff16815260200190815260200160002060008e815260200190815260200160002081905550505050505050505050505050565b3373ffffffffffffffffffffffffffffffffffffffff168273ffffffffffffffffffffffffffffffffffffffff16141515156128ff57600080fd5b80600560003373ffffffffffffffffffffffffffffffffffffffff1673ffffffffffffffffffffffffffffffffffffffff16815260200190815260200160002060008473ffffffffffffffffffffffffffffffffffffffff1673ffffffffffffffffffffffffffffffffffffffff16815260200190815260200160002060006101000a81548160ff0219169083151502179055508173ffffffffffffffffffffffffffffffffffffffff163373ffffffffffffffffffffffffffffffffffffffff167f17307eab39ab6107e8899845ad3d59bd9653f200f220920489ca2b5937696c3183604051808215151515815260200191505060405180910390a35050565b612a0b848484611915565b612a1784848484613b4f565b1515612a2257600080fd5b50505050565b6000612a326141e2565b6000601460008573ffffffffffffffffffffffffffffffffffffffff1673ffffffffffffffffffffffffffffffffffffffff1681526020019081526020016000206101006040519081016040529081600082015481526020016001820160009054906101000a900473ffffffffffffffffffffffffffffffffffffffff1673ffffffffffffffffffffffffffffffffffffffff1673ffffffffffffffffffffffffffffffffffffffff168152602001600282015481526020016003820154815260200160048201548152602001600582015481526020016006820160009054906101000a900473ffffffffffffffffffffffffffffffffffffffff1673ffffffffffffffffffffffffffffffffffffffff1673ffffffffffffffffffffffffffffffffffffffff1681526020016007820160009054906101000a900473ffffffffffffffffffffffffffffffffffffffff1673ffffffffffffffffffffffffffffffffffffffff1673ffffffffffffffffffffffffffffffffffffffff168152505091508160c0015190508092505050919050565b600f5481565b6060612bd882611d14565b1515612be357600080fd5b600c60008381526020019081526020016000208054600181600116156101000203166002900480601f016020809104026020016040519081016040528092919081815260200182805460018160011615610100020316600290048015612c8a5780601f10612c5f57610100808354040283529160200191612c8a565b820191906000526020600020905b815481529060010190602001808311612c6d57829003601f168201915b50505050509050919050565b612c9e61426a565b60116000838152602001908152602001600020608060405190810160405290816000820154815260200160018201548152602001600282015481526020016003820160009054906101000a900473ffffffffffffffffffffffffffffffffffffffff1673ffffffffffffffffffffffffffffffffffffffff1673ffffffffffffffffffffffffffffffffffffffff16815250509050428160400181815250505050565b6000612d4b61426a565b600060116000858152602001908152602001600020608060405190810160405290816000820154815260200160018201548152602001600282015481526020016003820160009054906101000a900473ffffffffffffffffffffffffffffffffffffffff1673ffffffffffffffffffffffffffffffffffffffff1673ffffffffffffffffffffffffffffffffffffffff16815250509150816000015190508092505050919050565b6000612dfd61426a565b600060116000858152602001908152602001600020608060405190810160405290816000820154815260200160018201548152602001600282015481526020016003820160009054906101000a900473ffffffffffffffffffffffffffffffffffffffff1673ffffffffffffffffffffffffffffffffffffffff1673ffffffffffffffffffffffffffffffffffffffff16815250509150816060015190508092505050919050565b6000612eaf6141e2565b6000601460008573ffffffffffffffffffffffffffffffffffffffff1673ffffffffffffffffffffffffffffffffffffffff1681526020019081526020016000206101006040519081016040529081600082015481526020016001820160009054906101000a900473ffffffffffffffffffffffffffffffffffffffff1673ffffffffffffffffffffffffffffffffffffffff1673ffffffffffffffffffffffffffffffffffffffff168152602001600282015481526020016003820154815260200160048201548152602001600582015481526020016006820160009054906101000a900473ffffffffffffffffffffffffffffffffffffffff1673ffffffffffffffffffffffffffffffffffffffff1673ffffffffffffffffffffffffffffffffffffffff1681526020016007820160009054906101000a900473ffffffffffffffffffffffffffffffffffffffff1673ffffffffffffffffffffffffffffffffffffffff1673ffffffffffffffffffffffffffffffffffffffff16815250509150816080015190508092505050919050565b60008060009054906101000a900473ffffffffffffffffffffffffffffffffffffffff1673ffffffffffffffffffffffffffffffffffffffff163373ffffffffffffffffffffffffffffffffffffffff161415156130a157600080fd5b60106000815480929190600101919050555060105490506130c2828261396e565b80601760008473ffffffffffffffffffffffffffffffffffffffff1673ffffffffffffffffffffffffffffffffffffffff168152602001908152602001600020819055505050565b60006131146141e2565b6000601460008573ffffffffffffffffffffffffffffffffffffffff1673ffffffffffffffffffffffffffffffffffffffff1681526020019081526020016000206101006040519081016040529081600082015481526020016001820160009054906101000a900473ffffffffffffffffffffffffffffffffffffffff1673ffffffffffffffffffffffffffffffffffffffff1673ffffffffffffffffffffffffffffffffffffffff168152602001600282015481526020016003820154815260200160048201548152602001600582015481526020016006820160009054906101000a900473ffffffffffffffffffffffffffffffffffffffff1673ffffffffffffffffffffffffffffffffffffffff1673ffffffffffffffffffffffffffffffffffffffff1681526020016007820160009054906101000a900473ffffffffffffffffffffffffffffffffffffffff1673ffffffffffffffffffffffffffffffffffffffff1673ffffffffffffffffffffffffffffffffffffffff16815250509150816020015190508092505050919050565b6000600560008473ffffffffffffffffffffffffffffffffffffffff1673ffffffffffffffffffffffffffffffffffffffff16815260200190815260200160002060008373ffffffffffffffffffffffffffffffffffffffff1673ffffffffffffffffffffffffffffffffffffffff16815260200190815260200160002060009054906101000a900460ff16905092915050565b60006133476141e2565b6000601460008573ffffffffffffffffffffffffffffffffffffffff1673ffffffffffffffffffffffffffffffffffffffff1681526020019081526020016000206101006040519081016040529081600082015481526020016001820160009054906101000a900473ffffffffffffffffffffffffffffffffffffffff1673ffffffffffffffffffffffffffffffffffffffff1673ffffffffffffffffffffffffffffffffffffffff168152602001600282015481526020016003820154815260200160048201548152602001600582015481526020016006820160009054906101000a900473ffffffffffffffffffffffffffffffffffffffff1673ffffffffffffffffffffffffffffffffffffffff1673ffffffffffffffffffffffffffffffffffffffff1681526020016007820160009054906101000a900473ffffffffffffffffffffffffffffffffffffffff1673ffffffffffffffffffffffffffffffffffffffff1673ffffffffffffffffffffffffffffffffffffffff16815250509150816060015190508092505050919050565b6000809054906101000a900473ffffffffffffffffffffffffffffffffffffffff1673ffffffffffffffffffffffffffffffffffffffff163373ffffffffffffffffffffffffffffffffffffffff1614151561353757600080fd5b61354081613d71565b50565b60008061354f83611dbe565b90508073ffffffffffffffffffffffffffffffffffffffff168473ffffffffffffffffffffffffffffffffffffffff1614806135be57508373ffffffffffffffffffffffffffffffffffffffff166135a68461141a565b73ffffffffffffffffffffffffffffffffffffffff16145b806135cf57506135ce81856132a9565b5b91505092915050565b8173ffffffffffffffffffffffffffffffffffffffff166135f882611dbe565b73ffffffffffffffffffffffffffffffffffffffff1614151561361a57600080fd5b600073ffffffffffffffffffffffffffffffffffffffff166003600083815260200190815260200160002060009054906101000a900473ffffffffffffffffffffffffffffffffffffffff1673ffffffffffffffffffffffffffffffffffffffff161415156136d75760006003600083815260200190815260200160002060006101000a81548173ffffffffffffffffffffffffffffffffffffffff021916908373ffffffffffffffffffffffffffffffffffffffff1602179055505b5050565b60008060006136ea8585613e6b565b600960008581526020019081526020016000205492506137566001600860008873ffffffffffffffffffffffffffffffffffffffff1673ffffffffffffffffffffffffffffffffffffffff16815260200190815260200160002080549050613f9a90919063ffffffff16565b9150600860008673ffffffffffffffffffffffffffffffffffffffff1673ffffffffffffffffffffffffffffffffffffffff168152602001908152602001600020828154811015156137a457fe5b9060005260206000200154905080600860008773ffffffffffffffffffffffffffffffffffffffff1673ffffffffffffffffffffffffffffffffffffffff168152602001908152602001600020848154811015156137fe57fe5b9060005260206000200181905550600860008673ffffffffffffffffffffffffffffffffffffffff1673ffffffffffffffffffffffffffffffffffffffff16815260200190815260200160002080548091906001900361385e91906142a9565b50600060096000868152602001908152602001600020819055508260096000838152602001908152602001600020819055505050505050565b60006138a38383613fb3565b600860008473ffffffffffffffffffffffffffffffffffffffff1673ffffffffffffffffffffffffffffffffffffffff168152602001908152602001600020805490509050600860008473ffffffffffffffffffffffffffffffffffffffff1673ffffffffffffffffffffffffffffffffffffffff168152602001908152602001600020829080600181540180825580915050906001820390600052602060002001600090919290919091505550806009600084815260200190815260200160002081905550505050565b613978828261410d565b600a80549050600b600083815260200190815260200160002081905550600a8190806001815401808255809150509060018203906000526020600020016000909192909190915055505050565b6139ce82611d14565b15156139d957600080fd5b80600c60008481526020019081526020016000209080519060200190613a009291906142d5565b505050565b613a0d61426a565b60006080604051908101604052808781526020018681526020018581526020018473ffffffffffffffffffffffffffffffffffffffff168152509150600d549050816011600083815260200190815260200160002060008201518160000155602082015181600101556040820151816002015560608201518160030160006101000a81548173ffffffffffffffffffffffffffffffffffffffff021916908373ffffffffffffffffffffffffffffffffffffffff160217905550905050505050505050565b6000600f60008154809291906001019190505550600f549050613af5828261396e565b80601260008473ffffffffffffffffffffffffffffffffffffffff1673ffffffffffffffffffffffffffffffffffffffff168152602001908152602001600020600085815260200190815260200160002081905550505050565b600080613b718573ffffffffffffffffffffffffffffffffffffffff166141b3565b1515613b805760019150613d68565b8473ffffffffffffffffffffffffffffffffffffffff1663150b7a02338887876040518563ffffffff167c0100000000000000000000000000000000000000000000000000000000028152600401808573ffffffffffffffffffffffffffffffffffffffff1673ffffffffffffffffffffffffffffffffffffffff1681526020018473ffffffffffffffffffffffffffffffffffffffff1673ffffffffffffffffffffffffffffffffffffffff16815260200183815260200180602001828103825283818151815260200191508051906020019080838360005b83811015613c75578082015181840152602081019050613c5a565b50505050905090810190601f168015613ca25780820380516001836020036101000a031916815260200191505b5095505050505050602060405180830381600087803b158015613cc457600080fd5b505af1158015613cd8573d6000803e3d6000fd5b505050506040513d6020811015613cee57600080fd5b8101908080519060200190929190505050905063150b7a027c0100000000000000000000000000000000000000000000000000000000027bffffffffffffffffffffffffffffffffffffffffffffffffffffffff1916817bffffffffffffffffffffffffffffffffffffffffffffffffffffffff19161491505b50949350505050565b600073ffffffffffffffffffffffffffffffffffffffff168173ffffffffffffffffffffffffffffffffffffffff1614151515613dad57600080fd5b8073ffffffffffffffffffffffffffffffffffffffff166000809054906101000a900473ffffffffffffffffffffffffffffffffffffffff1673ffffffffffffffffffffffffffffffffffffffff167f8be0079c531659141344cd1fd0a4f28419497f9722a3daafe3b4186f6b6457e060405160405180910390a3806000806101000a81548173ffffffffffffffffffffffffffffffffffffffff021916908373ffffffffffffffffffffffffffffffffffffffff16021790555050565b8173ffffffffffffffffffffffffffffffffffffffff16613e8b82611dbe565b73ffffffffffffffffffffffffffffffffffffffff16141515613ead57600080fd5b613f006001600460008573ffffffffffffffffffffffffffffffffffffffff1673ffffffffffffffffffffffffffffffffffffffff16815260200190815260200160002054613f9a90919063ffffffff16565b600460008473ffffffffffffffffffffffffffffffffffffffff1673ffffffffffffffffffffffffffffffffffffffff1681526020019081526020016000208190555060006002600083815260200190815260200160002060006101000a81548173ffffffffffffffffffffffffffffffffffffffff021916908373ffffffffffffffffffffffffffffffffffffffff1602179055505050565b6000828211151515613fa857fe5b818303905092915050565b600073ffffffffffffffffffffffffffffffffffffffff166002600083815260200190815260200160002060009054906101000a900473ffffffffffffffffffffffffffffffffffffffff1673ffffffffffffffffffffffffffffffffffffffff1614151561402157600080fd5b816002600083815260200190815260200160002060006101000a81548173ffffffffffffffffffffffffffffffffffffffff021916908373ffffffffffffffffffffffffffffffffffffffff1602179055506140c66001600460008573ffffffffffffffffffffffffffffffffffffffff1673ffffffffffffffffffffffffffffffffffffffff168152602001908152602001600020546141c690919063ffffffff16565b600460008473ffffffffffffffffffffffffffffffffffffffff1673ffffffffffffffffffffffffffffffffffffffff168152602001908152602001600020819055505050565b600073ffffffffffffffffffffffffffffffffffffffff168273ffffffffffffffffffffffffffffffffffffffff161415151561414957600080fd5b6141538282613897565b808273ffffffffffffffffffffffffffffffffffffffff16600073ffffffffffffffffffffffffffffffffffffffff167fddf252ad1be2c89b69c2b068fc378daa952ba7f163c4a11628f55a4df523b3ef60405160405180910390a45050565b600080823b905060008111915050919050565b600081830190508281101515156141d957fe5b80905092915050565b6101006040519081016040528060008152602001600073ffffffffffffffffffffffffffffffffffffffff16815260200160008152602001600081526020016000815260200160008152602001600073ffffffffffffffffffffffffffffffffffffffff168152602001600073ffffffffffffffffffffffffffffffffffffffff1681525090565b608060405190810160405280600081526020016000815260200160008152602001600073ffffffffffffffffffffffffffffffffffffffff1681525090565b8154818355818111156142d0578183600052602060002091820191016142cf9190614355565b5b505050565b828054600181600116156101000203166002900490600052602060002090601f016020900481019282601f1061431657805160ff1916838001178555614344565b82800160010185558215614344579182015b82811115614343578251825591602001919060010190614328565b5b5090506143519190614355565b5090565b61437791905b8082111561437357600081600090555060010161435b565b5090565b905600a165627a7a7230582033de4f9a4eeef0a15684fbdbdb436a2b6ec8011416e01f8863fffb091b9ab3740029",
  "source": "pragma solidity ^0.4.21;\n\nimport \"zeppelin-solidity/contracts/ownership/Ownable.sol\";\nimport 'zeppelin-solidity/contracts/token/ERC721/ERC721Token.sol';\n////////////////////////////////////////////////////////////////////////////////////////////\n/// @title CryptoPatentBlockGenerator Contract\n/// @author DecentraCorp\n/// @notice this contract is built from the zeppelin-solidity library\n/// @dev All function calls are currently implement without side effects\n////////////////////////////////////////////////////////////////////////////////////////////\n\n/// @author Christopher Dixon\n/// @dev this contract contains both the Ownable and ERC721Token contracts from Open Zepplin\ncontract CryptoPatentBlockGenerator is Ownable, ERC721Token(\"CryptoPatentBlock\", \"CPB\") {\n///@param globalIdeaCount tracks how many Idea Blocks exist\n///@param stakeAmountInIDC is the amount of ideacoin  that must be staked to activate a replication\n///@param ideaVariables maps a specific ideas info struct to its ideaId number\n  uint public globalIdeaCount = 0;\n  uint public stakeAmountInIDC = 100;\n  uint public globalRepCount = 0;\n  uint public globalUseBlocknumber = 0;\n\n  mapping (uint256 => IdeaInfo) public ideaVariables;\n  mapping(address => mapping(uint => uint)) public replicationTracker;\n  //maps a replicators address to the ideas id to store a unique replication\n  //ID for that replication\n  mapping (address => bool) replications;\n  //tracks if an address is a replication\n  mapping (address => ReplicationInfo) repInfo;\n  //mapping of replication info by replication address\n  mapping (address => mapping (uint => uint)) repOwnes;\n  //tracks which address owns a specific replication by its ideaID\n  mapping (uint => uint) ideaRepCounter;\n  //tracks the total number of replications for a specific idea\n  mapping(address => uint) public globalUseBlockTracker;\n\n\n///@struct IdeaInfo is built to store only needed variables to the blockchain, IPFS handles the rest\nstruct IdeaInfo {\n  uint globalUseBlockAmount;\n  uint royalty;\n  uint miningTime;\n  address inventorAddress;\n}\n\nstruct ReplicationInfo {\n  uint BlockReward;\n  address OwnersAddress;\n  uint IdeaID;\n  uint Royalty;\n  uint RepID;\n  uint MiningTime;\n  address InventorsAddress;\n  address ReplicationAddress;\n}\n// ReplicationInfo stores replication information\n\n\n\n///@notice _generateIdeaBlock generates a Proof of Idea Ownership token. PoIO tokens act like patents\n  function _generateIdeaBlock(\n  string _ideaIPFS,\n  uint _globalUseBlockAmount,\n  uint _miningTime,\n  uint _royalty,\n  address _inventorsAddress\n  )\n   external\n  onlyOwner\n  {\n    globalIdeaCount++;\n  uint _ideaId = globalIdeaCount;\n  _mint(_inventorsAddress , _ideaId);\n\n  _setTokenURI(_ideaId, _ideaIPFS);\n\n  setIdeaInfo(\n     _globalUseBlockAmount,\n     _royalty,\n     _miningTime,\n     _inventorsAddress\n    );\n\n  }\n\n///@notice setIdeaInfo handles the struct creation logic for ideablocks\nfunction setIdeaInfo(\n  uint _globalUseBlockAmount,\n  uint _royalty,\n  uint _miningTime,\n  address _inventorAddress\n  )\n  internal\n  {\n\n    IdeaInfo memory _info = IdeaInfo({\n      globalUseBlockAmount: uint(_globalUseBlockAmount),\n      royalty: uint(_royalty),\n      miningTime: uint(_miningTime),\n      inventorAddress: address(_inventorAddress)\n      });\n\n      uint _ideaId = globalIdeaCount;\n      ideaVariables[_ideaId] = _info;\n  }\n\n  function _generateReplicationBlock(uint _ideaId, address _replicatorAdd) internal  {\n    globalRepCount++;\n  uint _replicationId = globalRepCount;\n  _mint(_replicatorAdd, _replicationId);\n  replicationTracker[_replicatorAdd][_ideaId] =_replicationId;\n\n  }\n\n  function _replicationBlock(uint _ideaId, address _repAdd, address _replicatorAdd) external onlyOwner {\n    uint RepBlockReward = getGlobalUseBlockAmount(_ideaId);\n    //sets RepBlockReward as the specific rep block amount Stored for an idea\n    uint royalty = getRoyalty(_ideaId);\n    //sets royalty as the specific royalty amount for an idea\n    uint blockReward = RepBlockReward - royalty;\n    //subtracts the royalty amount from the block reward\n    uint _miningTime = getMiningTime(_ideaId);\n\n    address inventor = getInventor(_ideaId);\n    //sets inventor as the specific inventor for an idea\n\n    _generateReplicationBlock(_ideaId, _replicatorAdd);\n    //generates an ERC721 replication block token\n\n    uint _repId = globalRepCount;\n    //sets _repNumber equal to globalRepCount\n\n    ReplicationInfo memory _info = ReplicationInfo({\n      BlockReward: uint( blockReward),\n      OwnersAddress: address(_replicatorAdd),\n      IdeaID: uint(_ideaId),\n      Royalty: uint(royalty),\n      RepID: uint(_repId),\n      MiningTime: uint(_miningTime),\n      InventorsAddress: address(inventor),\n      ReplicationAddress: address(_repAdd)\n      });\n  //creates replication struct for new rep\n\n      repInfo[_repAdd] = _info;\n      //stores new struct stored at the replications address\n      uint ideaRepCount = ideaRepCounter[_ideaId];\n      ideaRepCounter[_ideaId] = ideaRepCount++;\n      //increments the global rep count for a specific idea\n    replications[_repAdd] = true;\n  //stores replications address as a replicator\n    uint ownerRepCount = repOwnes[_replicatorAdd][_ideaId];\n  //sets ownerRepCount to how many replications of a specific idea a replicator owns\n    repOwnes[_replicatorAdd][_ideaId] = ownerRepCount++;\n  //increments the amount of replications for an idea a replicator owns\n  }\n\n  ///@notice _generateGUSBlock is only called by the CryptoPatent Blockchain when certain criterea is met\n  ///@dev the GUB token is minted to the replication owner\n    function _generateGUSBlock(address _replicationOwner) external onlyOwner {\n      globalUseBlocknumber++;\n      uint _blockId = globalUseBlocknumber;\n    _mint(_replicationOwner, _blockId);\n    globalUseBlockTracker[_replicationOwner] = _blockId;\n    }\n\n\n\n\n///@notice the following functions allow for easier access to info by both the front end and other contracts\n///@dev all the following contracts allow for the retreval of token block information\n  function getGlobalUseBlockAmount(uint _ideaId) public view returns(uint) {\n    IdeaInfo memory info = ideaVariables[_ideaId];\n    uint globalUseBlockAmount = info.globalUseBlockAmount;\n    return globalUseBlockAmount;\n  }\n\n\n    function getRoyalty(uint _ideaId) public view returns(uint) {\n      IdeaInfo memory info = ideaVariables[_ideaId];\n      uint royalty = info.royalty;\n      return royalty;\n    }\n\n    function getInventor(uint _ideaId) public view returns(address) {\n      IdeaInfo memory info = ideaVariables[_ideaId];\n      address inventorAdd = info.inventorAddress;\n      return inventorAdd;\n    }\n    function getMiningTime(uint _ideaId) public view returns(uint) {\n      IdeaInfo memory info = ideaVariables[_ideaId];\n      uint _miningTime = info.miningTime;\n      return _miningTime;\n    }\n    function setMiningTime(uint _ideaId) external view {\n      IdeaInfo memory info = ideaVariables[_ideaId];\n       info.miningTime = now;\n    }\n\n    function getBlockReward(address _repAdd) public view returns(uint) {\n      ReplicationInfo memory info = repInfo[_repAdd];\n      uint blockReward = info.BlockReward;\n      return blockReward;\n    }\n\n\n    function getOwnersAddress(address _repAdd) public view returns(address) {\n      ReplicationInfo memory info = repInfo[_repAdd];\n      address repOwner = info.OwnersAddress;\n      return repOwner;\n    }\n\n    function getIdeaID(address _repAdd) public view returns(uint) {\n      ReplicationInfo memory info = repInfo[_repAdd];\n      uint ideaId = info.IdeaID;\n      return ideaId;\n    }\n\n    function getInventorsAddress(address _repAdd) public view returns(address) {\n      ReplicationInfo memory info = repInfo[_repAdd];\n      address InvtAdd = info.InventorsAddress;\n      return InvtAdd;\n    }\n\n    function getReplicationAddress(address _repAdd) public view returns(address) {\n      ReplicationInfo memory info = repInfo[_repAdd];\n      address repAdd = info.ReplicationAddress;\n      return repAdd;\n    }\n\n    function getRoyalty(address _repAdd) public view returns(uint) {\n      ReplicationInfo memory info = repInfo[_repAdd];\n      uint royalty = info.Royalty;\n      return royalty;\n    }\n\n    function getRepID(address _repAdd) public view returns(uint) {\n      ReplicationInfo memory info = repInfo[_repAdd];\n      uint repId = info.RepID;\n      return repId;\n    }\n\n    function checkIfRep(address _add) external view returns(bool) {\n    return replications[_add];\n    }\n    function getNumOfReps(address _add, uint _ideaId) external view returns(uint) {\n    return repOwnes[_add][_ideaId];\n    }\n    function getRepTotal(uint _ideaId) external view returns(uint) {\n    return ideaRepCounter[_ideaId];\n    }\n    function getMiningTime(address _repAdd) external view returns(uint) {\n    ReplicationInfo memory info = repInfo[_repAdd];\n    uint miningTime = info.MiningTime;\n    return miningTime;\n    }\n}\n",
  "sourcePath": "/home/stan36/repos/DecentraCorp/contracts/CryptoPatent/CryptoPatentBlockGenerator.sol",
  "compiler": {
    "name": "solc",
    "version": "0.4.24+commit.e67f0147.Emscripten.clang"
  },
  "schemaVersion": "2.0.1",
  "updatedAt": "2019-01-17T04:54:16.234Z"
}