{
  "contractName": "CryptoPatentBlockchain",
  "abi": [
    {
      "constant": true,
      "inputs": [
        {
          "name": "",
          "type": "uint256"
        }
      ],
      "name": "proposals",
      "outputs": [
        {
          "name": "IdeaIPFS",
          "type": "string"
        },
        {
          "name": "executed",
          "type": "bool"
        },
        {
          "name": "proposalPassed",
          "type": "bool"
        },
        {
          "name": "numberOfVotes",
          "type": "uint256"
        }
      ],
      "payable": false,
      "stateMutability": "view",
      "type": "function"
    },
    {
      "constant": true,
      "inputs": [
        {
          "name": "hash",
          "type": "string"
        }
      ],
      "name": "getPropID",
      "outputs": [
        {
          "name": "",
          "type": "uint256"
        }
      ],
      "payable": false,
      "stateMutability": "view",
      "type": "function"
    },
    {
      "constant": false,
      "inputs": [],
      "name": "stakeReplicatorWallet",
      "outputs": [],
      "payable": false,
      "stateMutability": "nonpayable",
      "type": "function"
    },
    {
      "constant": false,
      "inputs": [
        {
          "name": "_ideaIPFS",
          "type": "string"
        },
        {
          "name": "_globalUseBlockAmount",
          "type": "uint256"
        },
        {
          "name": "_miningTime",
          "type": "uint256"
        },
        {
          "name": "_royalty",
          "type": "uint256"
        },
        {
          "name": "_inventor",
          "type": "address"
        },
        {
          "name": "_invention",
          "type": "address"
        }
      ],
      "name": "generateIdeaBlock",
      "outputs": [],
      "payable": false,
      "stateMutability": "nonpayable",
      "type": "function"
    },
    {
      "constant": true,
      "inputs": [],
      "name": "ideaBlockReward",
      "outputs": [
        {
          "name": "",
          "type": "uint256"
        }
      ],
      "payable": false,
      "stateMutability": "view",
      "type": "function"
    },
    {
      "constant": true,
      "inputs": [],
      "name": "globalBlockHalfTime",
      "outputs": [
        {
          "name": "",
          "type": "uint256"
        }
      ],
      "payable": false,
      "stateMutability": "view",
      "type": "function"
    },
    {
      "constant": true,
      "inputs": [],
      "name": "CPBG",
      "outputs": [
        {
          "name": "",
          "type": "address"
        }
      ],
      "payable": false,
      "stateMutability": "view",
      "type": "function"
    },
    {
      "constant": true,
      "inputs": [
        {
          "name": "_member",
          "type": "address"
        }
      ],
      "name": "checkIfMember",
      "outputs": [
        {
          "name": "",
          "type": "bool"
        }
      ],
      "payable": false,
      "stateMutability": "view",
      "type": "function"
    },
    {
      "constant": true,
      "inputs": [],
      "name": "globalIdeaCount",
      "outputs": [
        {
          "name": "",
          "type": "uint256"
        }
      ],
      "payable": false,
      "stateMutability": "view",
      "type": "function"
    },
    {
      "constant": true,
      "inputs": [],
      "name": "IDC",
      "outputs": [
        {
          "name": "",
          "type": "address"
        }
      ],
      "payable": false,
      "stateMutability": "view",
      "type": "function"
    },
    {
      "constant": false,
      "inputs": [],
      "name": "buyMembership",
      "outputs": [],
      "payable": true,
      "stateMutability": "payable",
      "type": "function"
    },
    {
      "constant": false,
      "inputs": [
        {
          "name": "_dcpoa",
          "type": "address"
        },
        {
          "name": "_IDC",
          "type": "address"
        },
        {
          "name": "_CPBG",
          "type": "address"
        }
      ],
      "name": "setGenerators",
      "outputs": [],
      "payable": false,
      "stateMutability": "nonpayable",
      "type": "function"
    },
    {
      "constant": false,
      "inputs": [],
      "name": "renounceOwnership",
      "outputs": [],
      "payable": false,
      "stateMutability": "nonpayable",
      "type": "function"
    },
    {
      "constant": true,
      "inputs": [],
      "name": "globalUseBlock",
      "outputs": [
        {
          "name": "",
          "type": "uint256"
        }
      ],
      "payable": false,
      "stateMutability": "view",
      "type": "function"
    },
    {
      "constant": true,
      "inputs": [],
      "name": "minimumQuorum",
      "outputs": [
        {
          "name": "",
          "type": "uint256"
        }
      ],
      "payable": false,
      "stateMutability": "view",
      "type": "function"
    },
    {
      "constant": true,
      "inputs": [],
      "name": "owner",
      "outputs": [
        {
          "name": "",
          "type": "address"
        }
      ],
      "payable": false,
      "stateMutability": "view",
      "type": "function"
    },
    {
      "constant": true,
      "inputs": [],
      "name": "repStake",
      "outputs": [
        {
          "name": "",
          "type": "uint256"
        }
      ],
      "payable": false,
      "stateMutability": "view",
      "type": "function"
    },
    {
      "constant": false,
      "inputs": [],
      "name": "generateUseBlockWeight",
      "outputs": [],
      "payable": false,
      "stateMutability": "nonpayable",
      "type": "function"
    },
    {
      "constant": true,
      "inputs": [],
      "name": "globalRepCount",
      "outputs": [
        {
          "name": "",
          "type": "uint256"
        }
      ],
      "payable": false,
      "stateMutability": "view",
      "type": "function"
    },
    {
      "constant": false,
      "inputs": [
        {
          "name": "_newStakeAmount",
          "type": "uint256"
        }
      ],
      "name": "changeStakeAmount",
      "outputs": [],
      "payable": false,
      "stateMutability": "nonpayable",
      "type": "function"
    },
    {
      "constant": true,
      "inputs": [],
      "name": "getIdeasOwner",
      "outputs": [
        {
          "name": "",
          "type": "uint256[]"
        }
      ],
      "payable": false,
      "stateMutability": "view",
      "type": "function"
    },
    {
      "constant": true,
      "inputs": [],
      "name": "DCPoA",
      "outputs": [
        {
          "name": "",
          "type": "address"
        }
      ],
      "payable": false,
      "stateMutability": "view",
      "type": "function"
    },
    {
      "constant": true,
      "inputs": [
        {
          "name": "",
          "type": "uint256"
        }
      ],
      "name": "inventions",
      "outputs": [
        {
          "name": "",
          "type": "address"
        }
      ],
      "payable": false,
      "stateMutability": "view",
      "type": "function"
    },
    {
      "constant": false,
      "inputs": [
        {
          "name": "_newOwner",
          "type": "address"
        }
      ],
      "name": "transferOwnership",
      "outputs": [],
      "payable": false,
      "stateMutability": "nonpayable",
      "type": "function"
    },
    {
      "constant": false,
      "inputs": [
        {
          "name": "_ideaId",
          "type": "uint256"
        },
        {
          "name": "_repAdd",
          "type": "address"
        }
      ],
      "name": "generateReplicationBlock",
      "outputs": [],
      "payable": false,
      "stateMutability": "nonpayable",
      "type": "function"
    },
    {
      "inputs": [
        {
          "name": "_dcpoa",
          "type": "address"
        },
        {
          "name": "_IDC",
          "type": "address"
        },
        {
          "name": "_CPBG",
          "type": "address"
        }
      ],
      "payable": false,
      "stateMutability": "nonpayable",
      "type": "constructor"
    },
    {
      "anonymous": false,
      "inputs": [
        {
          "indexed": false,
          "name": "IdeaHash",
          "type": "string"
        }
      ],
      "name": "IdeaProposed",
      "type": "event"
    },
    {
      "anonymous": false,
      "inputs": [
        {
          "indexed": false,
          "name": "_ideahash",
          "type": "string"
        }
      ],
      "name": "IdeaApproved",
      "type": "event"
    },
    {
      "anonymous": false,
      "inputs": [
        {
          "indexed": false,
          "name": "_voter",
          "type": "address"
        },
        {
          "indexed": false,
          "name": "inSupport",
          "type": "bool"
        }
      ],
      "name": "Voted",
      "type": "event"
    },
    {
      "anonymous": false,
      "inputs": [
        {
          "indexed": false,
          "name": "member",
          "type": "address"
        }
      ],
      "name": "NewMember",
      "type": "event"
    },
    {
      "anonymous": false,
      "inputs": [
        {
          "indexed": false,
          "name": "_repAdd",
          "type": "address"
        }
      ],
      "name": "NewReplication",
      "type": "event"
    },
    {
      "anonymous": false,
      "inputs": [
        {
          "indexed": true,
          "name": "previousOwner",
          "type": "address"
        }
      ],
      "name": "OwnershipRenounced",
      "type": "event"
    },
    {
      "anonymous": false,
      "inputs": [
        {
          "indexed": true,
          "name": "previousOwner",
          "type": "address"
        },
        {
          "indexed": true,
          "name": "newOwner",
          "type": "address"
        }
      ],
      "name": "OwnershipTransferred",
      "type": "event"
    },
    {
      "constant": false,
      "inputs": [
        {
          "name": "_ideaIPFS",
          "type": "string"
        }
      ],
      "name": "proposeIdea",
      "outputs": [],
      "payable": false,
      "stateMutability": "nonpayable",
      "type": "function"
    },
    {
      "constant": false,
      "inputs": [
        {
          "name": "_ideaProposalID",
          "type": "uint256"
        },
        {
          "name": "supportsProposal",
          "type": "bool"
        },
        {
          "name": "_globalUseBlockAmount",
          "type": "uint256"
        },
        {
          "name": "_miningTime",
          "type": "uint256"
        },
        {
          "name": "_royalty",
          "type": "uint256"
        },
        {
          "name": "_inventor",
          "type": "address"
        },
        {
          "name": "_invention",
          "type": "address"
        }
      ],
      "name": "vote",
      "outputs": [
        {
          "name": "voteID",
          "type": "uint256"
        }
      ],
      "payable": false,
      "stateMutability": "nonpayable",
      "type": "function"
    }
  ],
  "bytecode": "0x6080604052683635c9adc5dea0000060085568056bc75e2d6310000060095534801561002a57600080fd5b50604051606080613d92833981018060405281019080805190602001909291908051906020019092919080519060200190929190505050336000806101000a81548173ffffffffffffffffffffffffffffffffffffffff021916908373ffffffffffffffffffffffffffffffffffffffff1602179055504260078190555082600260006101000a81548173ffffffffffffffffffffffffffffffffffffffff021916908373ffffffffffffffffffffffffffffffffffffffff16021790555081600160006101000a81548173ffffffffffffffffffffffffffffffffffffffff021916908373ffffffffffffffffffffffffffffffffffffffff16021790555080600360006101000a81548173ffffffffffffffffffffffffffffffffffffffff021916908373ffffffffffffffffffffffffffffffffffffffff160217905550505050613c158061017d6000396000f30060806040526004361061015f576000357c0100000000000000000000000000000000000000000000000000000000900463ffffffff168063013cf08b1461016457806310734e431461022757806318da0e63146102a45780631d28ce3b146102bb5780631ddc883b1461038257806328a6e47c146103ad5780633c91f273146103d85780634951f6aa1461042f5780634cfa24091461048a57806352d2c11d146104b55780635c5811191461050c5780635c5ef33c146105165780636da23e401461057f578063715018a61461060257806371f1e6771461061957806375824974146106c45780638160f0b5146106ef5780638da5cb5b1461071a5780639f7d892914610771578063a416ecd71461079c578063be6cbbcf146107b3578063ca79b5a9146107de578063daeac7b91461080b578063e026daa114610877578063e4fd4524146108ce578063f2fde38b1461093b578063f8c711fa1461097e575b600080fd5b34801561017057600080fd5b5061018f600480360381019080803590602001909291905050506109cb565b60405180806020018515151515815260200184151515158152602001838152602001828103825286818151815260200191508051906020019080838360005b838110156101e95780820151818401526020810190506101ce565b50505050905090810190601f1680156102165780820380516001836020036101000a031916815260200191505b509550505050505060405180910390f35b34801561023357600080fd5b5061028e600480360381019080803590602001908201803590602001908080601f0160208091040260200160405190810160405280939291908181526020018383808284378201915050505050509192919290505050610abc565b6040518082815260200191505060405180910390f35b3480156102b057600080fd5b506102b9610b31565b005b3480156102c757600080fd5b50610380600480360381019080803590602001908201803590602001908080601f0160208091040260200160405190810160405280939291908181526020018383808284378201915050505050509192919290803590602001909291908035906020019092919080359060200190929190803573ffffffffffffffffffffffffffffffffffffffff169060200190929190803573ffffffffffffffffffffffffffffffffffffffff169060200190929190505050610e60565b005b34801561038e57600080fd5b5061039761147e565b6040518082815260200191505060405180910390f35b3480156103b957600080fd5b506103c2611484565b6040518082815260200191505060405180910390f35b3480156103e457600080fd5b506103ed61148a565b604051808273ffffffffffffffffffffffffffffffffffffffff1673ffffffffffffffffffffffffffffffffffffffff16815260200191505060405180910390f35b34801561043b57600080fd5b50610470600480360381019080803573ffffffffffffffffffffffffffffffffffffffff1690602001909291905050506114b0565b604051808215151515815260200191505060405180910390f35b34801561049657600080fd5b5061049f6115c5565b6040518082815260200191505060405180910390f35b3480156104c157600080fd5b506104ca6115cb565b604051808273ffffffffffffffffffffffffffffffffffffffff1673ffffffffffffffffffffffffffffffffffffffff16815260200191505060405180910390f35b6105146115f1565b005b34801561052257600080fd5b5061057d600480360381019080803590602001908201803590602001908080601f0160208091040260200160405190810160405280939291908181526020018383808284378201915050505050509192919290505050611773565b005b34801561058b57600080fd5b50610600600480360381019080803573ffffffffffffffffffffffffffffffffffffffff169060200190929190803573ffffffffffffffffffffffffffffffffffffffff169060200190929190803573ffffffffffffffffffffffffffffffffffffffff169060200190929190505050611919565b005b34801561060e57600080fd5b50610617611a3c565b005b34801561062557600080fd5b506106ae60048036038101908080359060200190929190803515159060200190929190803590602001909291908035906020019092919080359060200190929190803573ffffffffffffffffffffffffffffffffffffffff169060200190929190803573ffffffffffffffffffffffffffffffffffffffff169060200190929190505050611b3e565b6040518082815260200191505060405180910390f35b3480156106d057600080fd5b506106d9611db4565b6040518082815260200191505060405180910390f35b3480156106fb57600080fd5b50610704611dba565b6040518082815260200191505060405180910390f35b34801561072657600080fd5b5061072f611dc0565b604051808273ffffffffffffffffffffffffffffffffffffffff1673ffffffffffffffffffffffffffffffffffffffff16815260200191505060405180910390f35b34801561077d57600080fd5b50610786611de5565b6040518082815260200191505060405180910390f35b3480156107a857600080fd5b506107b1611deb565b005b3480156107bf57600080fd5b506107c8611f06565b6040518082815260200191505060405180910390f35b3480156107ea57600080fd5b5061080960048036038101908080359060200190929190505050611f0c565b005b34801561081757600080fd5b50610820611f71565b6040518080602001828103825283818151815260200191508051906020019060200280838360005b83811015610863578082015181840152602081019050610848565b505050509050019250505060405180910390f35b34801561088357600080fd5b5061088c612006565b604051808273ffffffffffffffffffffffffffffffffffffffff1673ffffffffffffffffffffffffffffffffffffffff16815260200191505060405180910390f35b3480156108da57600080fd5b506108f96004803603810190808035906020019092919050505061202c565b604051808273ffffffffffffffffffffffffffffffffffffffff1673ffffffffffffffffffffffffffffffffffffffff16815260200191505060405180910390f35b34801561094757600080fd5b5061097c600480360381019080803573ffffffffffffffffffffffffffffffffffffffff16906020019092919050505061206a565b005b34801561098a57600080fd5b506109c960048036038101908080359060200190929190803573ffffffffffffffffffffffffffffffffffffffff1690602001909291905050506120d1565b005b600b818154811015156109da57fe5b9060005260206000209060050201600091509050806000018054600181600116156101000203166002900480601f016020809104026020016040519081016040528092919081815260200182805460018160011615610100020316600290048015610a865780601f10610a5b57610100808354040283529160200191610a86565b820191906000526020600020905b815481529060010190602001808311610a6957829003601f168201915b5050505050908060010160009054906101000a900460ff16908060010160019054906101000a900460ff16908060020154905084565b6000600f826040518082805190602001908083835b602083101515610af65780518252602082019150602081019050602083039250610ad1565b6001836020036101000a0380198251168184511680821785525050505050509050019150509081526020016040518091039020549050919050565b68056bc75e2d63100000600160009054906101000a900473ffffffffffffffffffffffffffffffffffffffff1673ffffffffffffffffffffffffffffffffffffffff166370a08231336040518263ffffffff167c0100000000000000000000000000000000000000000000000000000000028152600401808273ffffffffffffffffffffffffffffffffffffffff1673ffffffffffffffffffffffffffffffffffffffff168152602001915050602060405180830381600087803b158015610bf857600080fd5b505af1158015610c0c573d6000803e3d6000fd5b505050506040513d6020811015610c2257600080fd5b810190808051906020019092919050505010151515610c4057600080fd5b600260009054906101000a900473ffffffffffffffffffffffffffffffffffffffff1673ffffffffffffffffffffffffffffffffffffffff16637130c2413368056bc75e2d631000006040518363ffffffff167c0100000000000000000000000000000000000000000000000000000000028152600401808373ffffffffffffffffffffffffffffffffffffffff1673ffffffffffffffffffffffffffffffffffffffff16815260200182815260200192505050600060405180830381600087803b158015610d0e57600080fd5b505af1158015610d22573d6000803e3d6000fd5b50505050600260009054906101000a900473ffffffffffffffffffffffffffffffffffffffff1673ffffffffffffffffffffffffffffffffffffffff16631d40bbcf336040518263ffffffff167c0100000000000000000000000000000000000000000000000000000000028152600401808273ffffffffffffffffffffffffffffffffffffffff1673ffffffffffffffffffffffffffffffffffffffff168152602001915050600060405180830381600087803b158015610de357600080fd5b505af1158015610df7573d6000803e3d6000fd5b505050507fb4dcb6dd550f27b5917ebf674899ea7046ff91790c6f9f01431617ad39819db233604051808273ffffffffffffffffffffffffffffffffffffffff1673ffffffffffffffffffffffffffffffffffffffff16815260200191505060405180910390a1565b6000809054906101000a900473ffffffffffffffffffffffffffffffffffffffff1673ffffffffffffffffffffffffffffffffffffffff163373ffffffffffffffffffffffffffffffffffffffff16141515610ebb57600080fd5b600260009054906101000a900473ffffffffffffffffffffffffffffffffffffffff1673ffffffffffffffffffffffffffffffffffffffff1663cb2d97f887878787876040518663ffffffff167c010000000000000000000000000000000000000000000000000000000002815260040180806020018681526020018581526020018481526020018373ffffffffffffffffffffffffffffffffffffffff1673ffffffffffffffffffffffffffffffffffffffff168152602001828103825287818151815260200191508051906020019080838360005b83811015610fad578082015181840152602081019050610f92565b50505050905090810190601f168015610fda5780820380516001836020036101000a031916815260200191505b509650505050505050600060405180830381600087803b158015610ffd57600080fd5b505af1158015611011573d6000803e3d6000fd5b5050505060046000815480929190600101919050555060011515611034836114b0565b151514151561111357600260009054906101000a900473ffffffffffffffffffffffffffffffffffffffff1673ffffffffffffffffffffffffffffffffffffffff16631d40bbcf836040518263ffffffff167c0100000000000000000000000000000000000000000000000000000000028152600401808273ffffffffffffffffffffffffffffffffffffffff1673ffffffffffffffffffffffffffffffffffffffff168152602001915050600060405180830381600087803b1580156110fa57600080fd5b505af115801561110e573d6000803e3d6000fd5b505050505b600c8190806001815401808255809150509060018203906000526020600020016000909192909190916101000a81548173ffffffffffffffffffffffffffffffffffffffff021916908373ffffffffffffffffffffffffffffffffffffffff16021790555050611181612622565b50600260009054906101000a900473ffffffffffffffffffffffffffffffffffffffff1673ffffffffffffffffffffffffffffffffffffffff1663d82f980b836008546040518363ffffffff167c0100000000000000000000000000000000000000000000000000000000028152600401808373ffffffffffffffffffffffffffffffffffffffff1673ffffffffffffffffffffffffffffffffffffffff16815260200182815260200192505050600060405180830381600087803b15801561124957600080fd5b505af115801561125d573d6000803e3d6000fd5b50505050600260009054906101000a900473ffffffffffffffffffffffffffffffffffffffff1673ffffffffffffffffffffffffffffffffffffffff16638f3e9795836040518263ffffffff167c0100000000000000000000000000000000000000000000000000000000028152600401808273ffffffffffffffffffffffffffffffffffffffff1673ffffffffffffffffffffffffffffffffffffffff168152602001915050600060405180830381600087803b15801561131e57600080fd5b505af1158015611332573d6000803e3d6000fd5b50505050601060008373ffffffffffffffffffffffffffffffffffffffff1673ffffffffffffffffffffffffffffffffffffffff1681526020019081526020016000206004549080600181540180825580915050906001820390600052602060002001600090919290919091505550600260009054906101000a900473ffffffffffffffffffffffffffffffffffffffff1673ffffffffffffffffffffffffffffffffffffffff16638a632bf2836040518263ffffffff167c0100000000000000000000000000000000000000000000000000000000028152600401808273ffffffffffffffffffffffffffffffffffffffff1673ffffffffffffffffffffffffffffffffffffffff168152602001915050600060405180830381600087803b15801561145e57600080fd5b505af1158015611472573d6000803e3d6000fd5b50505050505050505050565b60085481565b60075481565b600360009054906101000a900473ffffffffffffffffffffffffffffffffffffffff1681565b600060011515600260009054906101000a900473ffffffffffffffffffffffffffffffffffffffff1673ffffffffffffffffffffffffffffffffffffffff1663aaa746bb846040518263ffffffff167c0100000000000000000000000000000000000000000000000000000000028152600401808273ffffffffffffffffffffffffffffffffffffffff1673ffffffffffffffffffffffffffffffffffffffff168152602001915050602060405180830381600087803b15801561157357600080fd5b505af1158015611587573d6000803e3d6000fd5b505050506040513d602081101561159d57600080fd5b8101908080519060200190929190505050151514156115bf57600190506115c0565b5b919050565b60045481565b600160009054906101000a900473ffffffffffffffffffffffffffffffffffffffff1681565b62f0c8a060075401421115151561160757600080fd5b670de0b6b3a7640000341015151561161e57600080fd5b61162733612664565b600260009054906101000a900473ffffffffffffffffffffffffffffffffffffffff1673ffffffffffffffffffffffffffffffffffffffff1663d82f980b3369021e19e0c9bab24000006040518363ffffffff167c0100000000000000000000000000000000000000000000000000000000028152600401808373ffffffffffffffffffffffffffffffffffffffff1673ffffffffffffffffffffffffffffffffffffffff16815260200182815260200192505050600060405180830381600087803b1580156116f657600080fd5b505af115801561170a573d6000803e3d6000fd5b505050507fb4dcb6dd550f27b5917ebf674899ea7046ff91790c6f9f01431617ad39819db233604051808273ffffffffffffffffffffffffffffffffffffffff1673ffffffffffffffffffffffffffffffffffffffff16815260200191505060405180910390a1565b600080600b805480919060010161178a91906139b4565b9150600b8281548110151561179b57fe5b9060005260206000209060050201905081600f846040518082805190602001908083835b6020831015156117e457805182526020820191506020810190506020830392506117bf565b6001836020036101000a038019825116818451168082178552505050505050905001915050908152602001604051809103902081905550828160000190805190602001906118339291906139e6565b5060008160010160006101000a81548160ff02191690831515021790555060008160010160016101000a81548160ff021916908315150217905550600081600201819055507f544a88757adcb29711e2e12a617fb44221880d5013615cf2dbbdb37f5d505973836040518080602001828103825283818151815260200191508051906020019080838360005b838110156118da5780820151818401526020810190506118bf565b50505050905090810190601f1680156119075780820380516001836020036101000a031916815260200191505b509250505060405180910390a1505050565b6000809054906101000a900473ffffffffffffffffffffffffffffffffffffffff1673ffffffffffffffffffffffffffffffffffffffff163373ffffffffffffffffffffffffffffffffffffffff1614151561197457600080fd5b82600260006101000a81548173ffffffffffffffffffffffffffffffffffffffff021916908373ffffffffffffffffffffffffffffffffffffffff16021790555081600160006101000a81548173ffffffffffffffffffffffffffffffffffffffff021916908373ffffffffffffffffffffffffffffffffffffffff16021790555080600360006101000a81548173ffffffffffffffffffffffffffffffffffffffff021916908373ffffffffffffffffffffffffffffffffffffffff160217905550505050565b6000809054906101000a900473ffffffffffffffffffffffffffffffffffffffff1673ffffffffffffffffffffffffffffffffffffffff163373ffffffffffffffffffffffffffffffffffffffff16141515611a9757600080fd5b6000809054906101000a900473ffffffffffffffffffffffffffffffffffffffff1673ffffffffffffffffffffffffffffffffffffffff167ff8df31144d9c2f0f6b59d69b8b98abd5459d07f2742c4df920b25aae33c6482060405160405180910390a260008060006101000a81548173ffffffffffffffffffffffffffffffffffffffff021916908373ffffffffffffffffffffffffffffffffffffffff160217905550565b60008060011515611b4e336114b0565b1515141515611b5c57600080fd5b600b89815481101515611b6b57fe5b90600052602060002090600502019050600115158160040160003373ffffffffffffffffffffffffffffffffffffffff1673ffffffffffffffffffffffffffffffffffffffff16815260200190815260200160002060009054906101000a900460ff16151514151515611bdd57600080fd5b806003018054809190600101611bf39190613a66565b9150604080519081016040528089151581526020013373ffffffffffffffffffffffffffffffffffffffff168152508160030183815481101515611c3357fe5b9060005260206000200160008201518160000160006101000a81548160ff02191690831515021790555060208201518160000160016101000a81548173ffffffffffffffffffffffffffffffffffffffff021916908373ffffffffffffffffffffffffffffffffffffffff16021790555090505060018160040160003373ffffffffffffffffffffffffffffffffffffffff1673ffffffffffffffffffffffffffffffffffffffff16815260200190815260200160002060006101000a81548160ff0219169083151502179055508180600101925081600201819055507f8eb81cb806dbb3d8a2f94981614331a55dfd90e06a42fdc362ca3ca96981d92f3389604051808373ffffffffffffffffffffffffffffffffffffffff1673ffffffffffffffffffffffffffffffffffffffff168152602001821515151581526020019250505060405180910390a1611d8761273c565b600a548160020154101515611da557611da4898888888888612830565b5b81915050979650505050505050565b60065481565b600a5481565b6000809054906101000a900473ffffffffffffffffffffffffffffffffffffffff1681565b60095481565b600060011515600360009054906101000a900473ffffffffffffffffffffffffffffffffffffffff1673ffffffffffffffffffffffffffffffffffffffff16638eb5b913336040518263ffffffff167c0100000000000000000000000000000000000000000000000000000000028152600401808273ffffffffffffffffffffffffffffffffffffffff1673ffffffffffffffffffffffffffffffffffffffff168152602001915050602060405180830381600087803b158015611eae57600080fd5b505af1158015611ec2573d6000803e3d6000fd5b505050506040513d6020811015611ed857600080fd5b81019080805190602001909291905050501515141515611ef757600080fd5b339050611f0381612ac9565b50565b60055481565b6000809054906101000a900473ffffffffffffffffffffffffffffffffffffffff1673ffffffffffffffffffffffffffffffffffffffff163373ffffffffffffffffffffffffffffffffffffffff16141515611f6757600080fd5b8060098190555050565b6060601060003373ffffffffffffffffffffffffffffffffffffffff1673ffffffffffffffffffffffffffffffffffffffff168152602001908152602001600020805480602002602001604051908101604052809291908181526020018280548015611ffc57602002820191906000526020600020905b815481526020019060010190808311611fe8575b5050505050905090565b600260009054906101000a900473ffffffffffffffffffffffffffffffffffffffff1681565b600c8181548110151561203b57fe5b906000526020600020016000915054906101000a900473ffffffffffffffffffffffffffffffffffffffff1681565b6000809054906101000a900473ffffffffffffffffffffffffffffffffffffffff1673ffffffffffffffffffffffffffffffffffffffff163373ffffffffffffffffffffffffffffffffffffffff161415156120c557600080fd5b6120ce81612f3d565b50565b600115156120de336114b0565b15151415156120ec57600080fd5b600115156120f9336114b0565b151514151561210757600080fd5b600954600160009054906101000a900473ffffffffffffffffffffffffffffffffffffffff1673ffffffffffffffffffffffffffffffffffffffff166370a08231336040518263ffffffff167c0100000000000000000000000000000000000000000000000000000000028152600401808273ffffffffffffffffffffffffffffffffffffffff1673ffffffffffffffffffffffffffffffffffffffff168152602001915050602060405180830381600087803b1580156121c757600080fd5b505af11580156121db573d6000803e3d6000fd5b505050506040513d60208110156121f157600080fd5b81019080805190602001909291905050501015151561220f57600080fd5b600260009054906101000a900473ffffffffffffffffffffffffffffffffffffffff1673ffffffffffffffffffffffffffffffffffffffff16637130c241336009546040518363ffffffff167c0100000000000000000000000000000000000000000000000000000000028152600401808373ffffffffffffffffffffffffffffffffffffffff1673ffffffffffffffffffffffffffffffffffffffff16815260200182815260200192505050600060405180830381600087803b1580156122d657600080fd5b505af11580156122ea573d6000803e3d6000fd5b50505050600560008154809291906001019190505550600260009054906101000a900473ffffffffffffffffffffffffffffffffffffffff1673ffffffffffffffffffffffffffffffffffffffff1663e934f00b8383336040518463ffffffff167c0100000000000000000000000000000000000000000000000000000000028152600401808481526020018373ffffffffffffffffffffffffffffffffffffffff1673ffffffffffffffffffffffffffffffffffffffff1681526020018273ffffffffffffffffffffffffffffffffffffffff1673ffffffffffffffffffffffffffffffffffffffff1681526020019350505050600060405180830381600087803b1580156123f957600080fd5b505af115801561240d573d6000803e3d6000fd5b50505050600260009054906101000a900473ffffffffffffffffffffffffffffffffffffffff1673ffffffffffffffffffffffffffffffffffffffff16638f3e9795336040518263ffffffff167c0100000000000000000000000000000000000000000000000000000000028152600401808273ffffffffffffffffffffffffffffffffffffffff1673ffffffffffffffffffffffffffffffffffffffff168152602001915050600060405180830381600087803b1580156124ce57600080fd5b505af11580156124e2573d6000803e3d6000fd5b50505050600260009054906101000a900473ffffffffffffffffffffffffffffffffffffffff1673ffffffffffffffffffffffffffffffffffffffff16638a632bf2336040518263ffffffff167c0100000000000000000000000000000000000000000000000000000000028152600401808273ffffffffffffffffffffffffffffffffffffffff1673ffffffffffffffffffffffffffffffffffffffff168152602001915050600060405180830381600087803b1580156125a357600080fd5b505af11580156125b7573d6000803e3d6000fd5b505050507fe949536157131e1de4cd7b981de0040f0fb98337330cdf262d0fed657681c2f081604051808273ffffffffffffffffffffffffffffffffffffffff1673ffffffffffffffffffffffffffffffffffffffff16815260200191505060405180910390a15050565b60006305a48fba600754014210151561265b57600260085481151561264357fe5b04600881905550426007819055506008549050612661565b60085490505b90565b600260009054906101000a900473ffffffffffffffffffffffffffffffffffffffff1673ffffffffffffffffffffffffffffffffffffffff16631d40bbcf826040518263ffffffff167c0100000000000000000000000000000000000000000000000000000000028152600401808273ffffffffffffffffffffffffffffffffffffffff1673ffffffffffffffffffffffffffffffffffffffff168152602001915050600060405180830381600087803b15801561272157600080fd5b505af1158015612735573d6000803e3d6000fd5b5050505050565b6000806000600260009054906101000a900473ffffffffffffffffffffffffffffffffffffffff1673ffffffffffffffffffffffffffffffffffffffff1663997072f76040518163ffffffff167c0100000000000000000000000000000000000000000000000000000000028152600401602060405180830381600087803b1580156127c757600080fd5b505af11580156127db573d6000803e3d6000fd5b505050506040513d60208110156127f157600080fd5b81019080805190602001909291905050509250600a8381151561281057fe5b04915060028381151561281f57fe5b049050818101600a81905550505050565b60006060600080600080600080600b8e81548110151561284c57fe5b906000526020600020906005020197508760010160009054906101000a900460ff1615151561287a57600080fd5b876000018054600181600116156101000203166002900480601f0160208091040260200160405190810160405280929190818152602001828054600181600116156101000203166002900480156129125780601f106128e757610100808354040283529160200191612912565b820191906000526020600020905b8154815290600101906020018083116128f557829003601f168201915b5050505050965060009550600094506000935061292d61273c565b600092505b876003018054905083101561299957876003018381548110151561295257fe5b9060005260206000200191506001905080860195508160000160009054906101000a900460ff161561298857808501945061298e565b80840193505b826001019250612932565b600a5486101515156129aa57600080fd5b83851115612a9b5760018860010160006101000a81548160ff02191690831515021790555060018860010160016101000a81548160ff0219169083151502179055506129fa878e8e8e8e8e610e60565b7ff7d7228b49234d1660fac6c22cb436b3520fa0f9b4b65f0482d84a1698674397876040518080602001828103825283818151815260200191508051906020019080838360005b83811015612a5c578082015181840152602081019050612a41565b50505050905090810190601f168015612a895780820380516001836020036101000a031916815260200191505b509250505060405180910390a1612ab9565b60008860010160016101000a81548160ff0219169083151502179055505b5050505050505050505050505050565b600080600080600080600080600360009054906101000a900473ffffffffffffffffffffffffffffffffffffffff1673ffffffffffffffffffffffffffffffffffffffff166388556ddc8a6040518263ffffffff167c0100000000000000000000000000000000000000000000000000000000028152600401808273ffffffffffffffffffffffffffffffffffffffff1673ffffffffffffffffffffffffffffffffffffffff168152602001915050602060405180830381600087803b158015612b9257600080fd5b505af1158015612ba6573d6000803e3d6000fd5b505050506040513d6020811015612bbc57600080fd5b81019080805190602001909291905050509750600360009054906101000a900473ffffffffffffffffffffffffffffffffffffffff1673ffffffffffffffffffffffffffffffffffffffff1663d5e5c5618a6040518263ffffffff167c0100000000000000000000000000000000000000000000000000000000028152600401808273ffffffffffffffffffffffffffffffffffffffff1673ffffffffffffffffffffffffffffffffffffffff168152602001915050602060405180830381600087803b158015612c8c57600080fd5b505af1158015612ca0573d6000803e3d6000fd5b505050506040513d6020811015612cb657600080fd5b8101908080519060200190929190505050965060019550612cd78689613037565b9450600e60008a73ffffffffffffffffffffffffffffffffffffffff1673ffffffffffffffffffffffffffffffffffffffff16815260200190815260200160002060008881526020019081526020016000205493508484019250600d6000898152602001908152602001600020549150600360009054906101000a900473ffffffffffffffffffffffffffffffffffffffff1673ffffffffffffffffffffffffffffffffffffffff16631d5f3dfc896040518263ffffffff167c010000000000000000000000000000000000000000000000000000000002815260040180828152602001915050602060405180830381600087803b158015612dd857600080fd5b505af1158015612dec573d6000803e3d6000fd5b505050506040513d6020811015612e0257600080fd5b8101908080519060200190929190505050905082600e60008b73ffffffffffffffffffffffffffffffffffffffff1673ffffffffffffffffffffffffffffffffffffffff168152602001908152602001600020600089815260200190815260200160002081905550818310158015612e7a5750804210155b15612f3257612e8889613167565b600360009054906101000a900473ffffffffffffffffffffffffffffffffffffffff1673ffffffffffffffffffffffffffffffffffffffff1663cb47f760896040518263ffffffff167c010000000000000000000000000000000000000000000000000000000002815260040180828152602001915050600060405180830381600087803b158015612f1957600080fd5b505af1158015612f2d573d6000803e3d6000fd5b505050505b505050505050505050565b600073ffffffffffffffffffffffffffffffffffffffff168173ffffffffffffffffffffffffffffffffffffffff1614151515612f7957600080fd5b8073ffffffffffffffffffffffffffffffffffffffff166000809054906101000a900473ffffffffffffffffffffffffffffffffffffffff1673ffffffffffffffffffffffffffffffffffffffff167f8be0079c531659141344cd1fd0a4f28419497f9722a3daafe3b4186f6b6457e060405160405180910390a3806000806101000a81548173ffffffffffffffffffffffffffffffffffffffff021916908373ffffffffffffffffffffffffffffffffffffffff16021790555050565b6000806000806000600360009054906101000a900473ffffffffffffffffffffffffffffffffffffffff1673ffffffffffffffffffffffffffffffffffffffff166330255eb533886040518363ffffffff167c0100000000000000000000000000000000000000000000000000000000028152600401808373ffffffffffffffffffffffffffffffffffffffff1673ffffffffffffffffffffffffffffffffffffffff16815260200182815260200192505050602060405180830381600087803b15801561310457600080fd5b505af1158015613118573d6000803e3d6000fd5b505050506040513d602081101561312e57600080fd5b81019080805190602001909291905050509350600a8781151561314d57fe5b049250838302915081870190508094505050505092915050565b6000806000806000600360009054906101000a900473ffffffffffffffffffffffffffffffffffffffff1673ffffffffffffffffffffffffffffffffffffffff1663dbe10d51876040518263ffffffff167c0100000000000000000000000000000000000000000000000000000000028152600401808273ffffffffffffffffffffffffffffffffffffffff1673ffffffffffffffffffffffffffffffffffffffff168152602001915050602060405180830381600087803b15801561322c57600080fd5b505af1158015613240573d6000803e3d6000fd5b505050506040513d602081101561325657600080fd5b81019080805190602001909291905050509450600360009054906101000a900473ffffffffffffffffffffffffffffffffffffffff1673ffffffffffffffffffffffffffffffffffffffff1663bb788457876040518263ffffffff167c0100000000000000000000000000000000000000000000000000000000028152600401808273ffffffffffffffffffffffffffffffffffffffff1673ffffffffffffffffffffffffffffffffffffffff168152602001915050602060405180830381600087803b15801561332657600080fd5b505af115801561333a573d6000803e3d6000fd5b505050506040513d602081101561335057600080fd5b81019080805190602001909291905050509350600360009054906101000a900473ffffffffffffffffffffffffffffffffffffffff1673ffffffffffffffffffffffffffffffffffffffff166388556ddc876040518263ffffffff167c0100000000000000000000000000000000000000000000000000000000028152600401808273ffffffffffffffffffffffffffffffffffffffff1673ffffffffffffffffffffffffffffffffffffffff168152602001915050602060405180830381600087803b15801561342057600080fd5b505af1158015613434573d6000803e3d6000fd5b505050506040513d602081101561344a57600080fd5b81019080805190602001909291905050509250600360009054906101000a900473ffffffffffffffffffffffffffffffffffffffff1673ffffffffffffffffffffffffffffffffffffffff1663eb61e371876040518263ffffffff167c0100000000000000000000000000000000000000000000000000000000028152600401808273ffffffffffffffffffffffffffffffffffffffff1673ffffffffffffffffffffffffffffffffffffffff168152602001915050602060405180830381600087803b15801561351a57600080fd5b505af115801561352e573d6000803e3d6000fd5b505050506040513d602081101561354457600080fd5b81019080805190602001909291905050509150600360009054906101000a900473ffffffffffffffffffffffffffffffffffffffff1673ffffffffffffffffffffffffffffffffffffffff1663d4f69b68846040518263ffffffff167c010000000000000000000000000000000000000000000000000000000002815260040180828152602001915050602060405180830381600087803b1580156135e857600080fd5b505af11580156135fc573d6000803e3d6000fd5b505050506040513d602081101561361257600080fd5b8101908080519060200190929190505050905081810390506136348184613037565b9050600660008154809291906001019190505550600260009054906101000a900473ffffffffffffffffffffffffffffffffffffffff1673ffffffffffffffffffffffffffffffffffffffff166332836d8d866040518263ffffffff167c0100000000000000000000000000000000000000000000000000000000028152600401808273ffffffffffffffffffffffffffffffffffffffff1673ffffffffffffffffffffffffffffffffffffffff168152602001915050600060405180830381600087803b15801561370557600080fd5b505af1158015613719573d6000803e3d6000fd5b50505050600260009054906101000a900473ffffffffffffffffffffffffffffffffffffffff1673ffffffffffffffffffffffffffffffffffffffff1663d82f980b86836040518363ffffffff167c0100000000000000000000000000000000000000000000000000000000028152600401808373ffffffffffffffffffffffffffffffffffffffff1673ffffffffffffffffffffffffffffffffffffffff16815260200182815260200192505050600060405180830381600087803b1580156137e257600080fd5b505af11580156137f6573d6000803e3d6000fd5b50505050600260009054906101000a900473ffffffffffffffffffffffffffffffffffffffff1673ffffffffffffffffffffffffffffffffffffffff1663d82f980b85846040518363ffffffff167c0100000000000000000000000000000000000000000000000000000000028152600401808373ffffffffffffffffffffffffffffffffffffffff1673ffffffffffffffffffffffffffffffffffffffff16815260200182815260200192505050600060405180830381600087803b1580156138bf57600080fd5b505af11580156138d3573d6000803e3d6000fd5b50505050600260009054906101000a900473ffffffffffffffffffffffffffffffffffffffff1673ffffffffffffffffffffffffffffffffffffffff16638f3e9795866040518263ffffffff167c0100000000000000000000000000000000000000000000000000000000028152600401808273ffffffffffffffffffffffffffffffffffffffff1673ffffffffffffffffffffffffffffffffffffffff168152602001915050600060405180830381600087803b15801561399457600080fd5b505af11580156139a8573d6000803e3d6000fd5b50505050505050505050565b8154818355818111156139e1576005028160050283600052602060002091820191016139e09190613a92565b5b505050565b828054600181600116156101000203166002900490600052602060002090601f016020900481019282601f10613a2757805160ff1916838001178555613a55565b82800160010185558215613a55579182015b82811115613a54578251825591602001919060010190613a39565b5b509050613a629190613b01565b5090565b815481835581811115613a8d57818360005260206000209182019101613a8c9190613b26565b5b505050565b613afe91905b80821115613afa5760008082016000613ab19190613b80565b6001820160006101000a81549060ff02191690556001820160016101000a81549060ff02191690556002820160009055600382016000613af19190613bc8565b50600501613a98565b5090565b90565b613b2391905b80821115613b1f576000816000905550600101613b07565b5090565b90565b613b7d91905b80821115613b7957600080820160006101000a81549060ff02191690556000820160016101000a81549073ffffffffffffffffffffffffffffffffffffffff021916905550600101613b2c565b5090565b90565b50805460018160011615610100020316600290046000825580601f10613ba65750613bc5565b601f016020900490600052602060002090810190613bc49190613b01565b5b50565b5080546000825590600052602060002090810190613be69190613b26565b505600a165627a7a7230582042e8597cf9feefc930b44a049cac126a3606cff9cce65be402584cb156589f890029",
  "source": "pragma solidity ^0.4.21;\nimport \"./UseLogic.sol\";\n////////////////////////////////////////////////////////////////////////////////////////////\n/// @title UseLogic Contract for the CryptoPatent Blockchain\n/// @author DecentraCorp\n/// @notice this contract is the fouth contract in the CryptoPatent Blockchain\n/// @dev All function calls are currently implement without side effects\n////////////////////////////////////////////////////////////////////////////////////////////\n/// @author Christopher Dixon\n\ncontract CryptoPatentBlockchain is UseLogic {\n\n///@notice constructor is used to set up the CryptoPatent Blockchain\n///@dev this contract is fed the addresses of the other contracts through truffle magic\n///@dev the address that launches the contracts is set as the first DecentraCorp Member\n  constructor(address _dcpoa, address _IDC, address _CPBG) public {\n    globalBlockHalfTime = now;\n    DCPoA = DecentraCorpPoA(_dcpoa);\n    IDC = IdeaCoin(_IDC);\n    CPBG = CryptoPatentBlockGenerator(_CPBG);\n\n\n  }\n\n///@notice proposeIdea is used to allow ANYONE to petition the community for idea approval\n///@dev the struct for this is set in interface.solidity\n///@dev idea proposals are put up for community approval\n  function proposeIdea(string _ideaIPFS) public {\n          uint IdeaProposalID = proposals.length++;\n          IdeaProposal storage p = proposals[IdeaProposalID];\n          getHash[_ideaIPFS] = IdeaProposalID;\n          p.IdeaIPFS = _ideaIPFS;\n          p.executed = false;\n          p.proposalPassed = false;\n          p.numberOfVotes = 0;\n          emit IdeaProposed(_ideaIPFS);\n  }\n\n///@notice set_Quorum is an internal function used by proposal vote counts to see if the community approves\n///@dev quorum is set to 60%\nfunction set_Quorum() internal  {\n        uint maxQuorum = DCPoA.getMemberCount();\n        uint tenthQuorum = (maxQuorum / 10);\n        uint  halfQuorum = (maxQuorum / 2);\n        minimumQuorum = (halfQuorum + tenthQuorum);\n  }\n\n///@notice ideaBlockVote counts the votes and executes and Idea Proposal, adding an idea to the cryptopatent Blockchain\n///@dev seperate but similiar structures will need to be implemented in the future to stream line voting on different subjects(beta)\nfunction ideaBlockVote(uint _ideaProposalID, uint _globalUseBlockAmount,uint _miningTime, uint _royalty, address _inventor, address _invention) internal {\n        IdeaProposal storage p = proposals[_ideaProposalID];\n             // sets p equal to the specific proposalNumber\n        require(!p.executed);\n        string memory _ideahash = p.IdeaIPFS;\n        uint quorum = 0;\n        uint yea = 0;\n        uint nay = 0;\n        set_Quorum();\n\n\n    for (uint i = 0; i <  p.votes.length; ++i) {\n        Vote storage v = p.votes[i];\n        uint voteWeight = 1;\n        quorum += voteWeight;\n        if (v.inSupport) {\n          yea += voteWeight;\n             } else {\n           nay += voteWeight;\n                 }\n             }\n\n             require(quorum >= minimumQuorum); // Check if a minimum quorum has been reached\n\n             if (yea > nay ) {\n                 // Proposal passed; execute the transaction\n               p.executed = true;\n               p.proposalPassed = true;\n               generateIdeaBlock( _ideahash,  _globalUseBlockAmount, _miningTime, _royalty, _inventor, _invention);\n               emit IdeaApproved( _ideahash);\n           } else {\n                 // Proposal failed\n               p.proposalPassed = false;\n           }\n      }\n///@notice vote is a member only function which allows DecentraCorp members to vote on proposalPassed\n///@dev onlyMember modifier ensures votes are only cast by DC Members\n function vote(\n        uint _ideaProposalID,\n        bool supportsProposal,\n        uint _globalUseBlockAmount,\n        uint _miningTime,\n        uint _royalty,\n        address _inventor,\n        address _invention\n    )\n        public\n        onlyMember\n        returns (uint voteID)\n    {\n\n        IdeaProposal storage p = proposals[_ideaProposalID];\n        require(p.voted[msg.sender] != true);\n\n        voteID = p.votes.length++;\n        p.votes[voteID] = Vote({inSupport: supportsProposal, voter: msg.sender});\n        p.voted[msg.sender] = true;\n        p.numberOfVotes = voteID++;\n        emit Voted(msg.sender, supportsProposal);\n        set_Quorum();\n        if(p.numberOfVotes >= minimumQuorum) {\n          ideaBlockVote(_ideaProposalID, _globalUseBlockAmount,_miningTime, _royalty, _inventor, _invention);\n        }\n        return voteID;\n    }\n// allows members to vote on proposals\n\n}\n",
  "sourcePath": "/home/stan36/repos/DecentraCorp/contracts/CryptoPatent/CryptoPatentBlockchain.sol",
  "compiler": {
    "name": "solc",
    "version": "0.4.24+commit.e67f0147.Emscripten.clang"
  },
  "schemaVersion": "2.0.1",
  "updatedAt": "2018-12-25T05:47:29.086Z"
}