{
  "contractName": "CryptoPatentBlockchain",
  "abi": [
    {
      "constant": true,
      "inputs": [
        {
          "name": "",
          "type": "uint256"
        }
      ],
      "name": "proposals",
      "outputs": [
        {
          "name": "IdeaIPFS",
          "type": "string"
        },
        {
          "name": "executed",
          "type": "bool"
        },
        {
          "name": "proposalPassed",
          "type": "bool"
        },
        {
          "name": "numberOfVotes",
          "type": "uint256"
        }
      ],
      "payable": false,
      "stateMutability": "view",
      "type": "function"
    },
    {
      "constant": true,
      "inputs": [
        {
          "name": "hash",
          "type": "string"
        }
      ],
      "name": "getPropID",
      "outputs": [
        {
          "name": "",
          "type": "uint256"
        }
      ],
      "payable": false,
      "stateMutability": "view",
      "type": "function"
    },
    {
      "constant": false,
      "inputs": [
        {
          "name": "_hash",
          "type": "string"
        }
      ],
      "name": "stakeReplicatorWallet",
      "outputs": [],
      "payable": false,
      "stateMutability": "nonpayable",
      "type": "function"
    },
    {
      "constant": false,
      "inputs": [
        {
          "name": "_ideaIPFS",
          "type": "string"
        },
        {
          "name": "_globalUseBlockAmount",
          "type": "uint256"
        },
        {
          "name": "_miningTime",
          "type": "uint256"
        },
        {
          "name": "_royalty",
          "type": "uint256"
        },
        {
          "name": "_inventor",
          "type": "address"
        },
        {
          "name": "_invention",
          "type": "address"
        }
      ],
      "name": "generateIdeaBlock",
      "outputs": [],
      "payable": false,
      "stateMutability": "nonpayable",
      "type": "function"
    },
    {
      "constant": true,
      "inputs": [],
      "name": "ideaBlockReward",
      "outputs": [
        {
          "name": "",
          "type": "uint256"
        }
      ],
      "payable": false,
      "stateMutability": "view",
      "type": "function"
    },
    {
      "constant": true,
      "inputs": [],
      "name": "globalBlockHalfTime",
      "outputs": [
        {
          "name": "",
          "type": "uint256"
        }
      ],
      "payable": false,
      "stateMutability": "view",
      "type": "function"
    },
    {
      "constant": true,
      "inputs": [],
      "name": "CPBG",
      "outputs": [
        {
          "name": "",
          "type": "address"
        }
      ],
      "payable": false,
      "stateMutability": "view",
      "type": "function"
    },
    {
      "constant": false,
      "inputs": [
        {
          "name": "_hash",
          "type": "string"
        }
      ],
      "name": "buyMembership",
      "outputs": [],
      "payable": true,
      "stateMutability": "payable",
      "type": "function"
    },
    {
      "constant": true,
      "inputs": [
        {
          "name": "_member",
          "type": "address"
        }
      ],
      "name": "checkIfMember",
      "outputs": [
        {
          "name": "",
          "type": "bool"
        }
      ],
      "payable": false,
      "stateMutability": "view",
      "type": "function"
    },
    {
      "constant": true,
      "inputs": [],
      "name": "globalIdeaCount",
      "outputs": [
        {
          "name": "",
          "type": "uint256"
        }
      ],
      "payable": false,
      "stateMutability": "view",
      "type": "function"
    },
    {
      "constant": true,
      "inputs": [],
      "name": "IDC",
      "outputs": [
        {
          "name": "",
          "type": "address"
        }
      ],
      "payable": false,
      "stateMutability": "view",
      "type": "function"
    },
    {
      "constant": false,
      "inputs": [
        {
          "name": "_dcpoa",
          "type": "address"
        },
        {
          "name": "_IDC",
          "type": "address"
        },
        {
          "name": "_CPBG",
          "type": "address"
        }
      ],
      "name": "setGenerators",
      "outputs": [],
      "payable": false,
      "stateMutability": "nonpayable",
      "type": "function"
    },
    {
      "constant": false,
      "inputs": [],
      "name": "renounceOwnership",
      "outputs": [],
      "payable": false,
      "stateMutability": "nonpayable",
      "type": "function"
    },
    {
      "constant": true,
      "inputs": [],
      "name": "globalUseBlock",
      "outputs": [
        {
          "name": "",
          "type": "uint256"
        }
      ],
      "payable": false,
      "stateMutability": "view",
      "type": "function"
    },
    {
      "constant": true,
      "inputs": [],
      "name": "minimumQuorum",
      "outputs": [
        {
          "name": "",
          "type": "uint256"
        }
      ],
      "payable": false,
      "stateMutability": "view",
      "type": "function"
    },
    {
      "constant": true,
      "inputs": [],
      "name": "owner",
      "outputs": [
        {
          "name": "",
          "type": "address"
        }
      ],
      "payable": false,
      "stateMutability": "view",
      "type": "function"
    },
    {
      "constant": true,
      "inputs": [],
      "name": "repStake",
      "outputs": [
        {
          "name": "",
          "type": "uint256"
        }
      ],
      "payable": false,
      "stateMutability": "view",
      "type": "function"
    },
    {
      "constant": false,
      "inputs": [],
      "name": "generateUseBlockWeight",
      "outputs": [],
      "payable": false,
      "stateMutability": "nonpayable",
      "type": "function"
    },
    {
      "constant": true,
      "inputs": [],
      "name": "globalRepCount",
      "outputs": [
        {
          "name": "",
          "type": "uint256"
        }
      ],
      "payable": false,
      "stateMutability": "view",
      "type": "function"
    },
    {
      "constant": false,
      "inputs": [
        {
          "name": "_newStakeAmount",
          "type": "uint256"
        }
      ],
      "name": "changeStakeAmount",
      "outputs": [],
      "payable": false,
      "stateMutability": "nonpayable",
      "type": "function"
    },
    {
      "constant": true,
      "inputs": [],
      "name": "getIdeasOwner",
      "outputs": [
        {
          "name": "",
          "type": "uint256[]"
        }
      ],
      "payable": false,
      "stateMutability": "view",
      "type": "function"
    },
    {
      "constant": true,
      "inputs": [],
      "name": "DCPoA",
      "outputs": [
        {
          "name": "",
          "type": "address"
        }
      ],
      "payable": false,
      "stateMutability": "view",
      "type": "function"
    },
    {
      "constant": true,
      "inputs": [
        {
          "name": "",
          "type": "uint256"
        }
      ],
      "name": "inventions",
      "outputs": [
        {
          "name": "",
          "type": "address"
        }
      ],
      "payable": false,
      "stateMutability": "view",
      "type": "function"
    },
    {
      "constant": false,
      "inputs": [
        {
          "name": "_newOwner",
          "type": "address"
        }
      ],
      "name": "transferOwnership",
      "outputs": [],
      "payable": false,
      "stateMutability": "nonpayable",
      "type": "function"
    },
    {
      "constant": false,
      "inputs": [
        {
          "name": "_ideaId",
          "type": "uint256"
        },
        {
          "name": "_repAdd",
          "type": "address"
        }
      ],
      "name": "generateReplicationBlock",
      "outputs": [],
      "payable": false,
      "stateMutability": "nonpayable",
      "type": "function"
    },
    {
      "inputs": [
        {
          "name": "_dcpoa",
          "type": "address"
        },
        {
          "name": "_IDC",
          "type": "address"
        },
        {
          "name": "_CPBG",
          "type": "address"
        }
      ],
      "payable": false,
      "stateMutability": "nonpayable",
      "type": "constructor"
    },
    {
      "anonymous": false,
      "inputs": [
        {
          "indexed": false,
          "name": "IdeaHash",
          "type": "string"
        }
      ],
      "name": "IdeaProposed",
      "type": "event"
    },
    {
      "anonymous": false,
      "inputs": [
        {
          "indexed": false,
          "name": "_ideahash",
          "type": "string"
        }
      ],
      "name": "IdeaApproved",
      "type": "event"
    },
    {
      "anonymous": false,
      "inputs": [
        {
          "indexed": false,
          "name": "_voter",
          "type": "address"
        },
        {
          "indexed": false,
          "name": "inSupport",
          "type": "bool"
        }
      ],
      "name": "Voted",
      "type": "event"
    },
    {
      "anonymous": false,
      "inputs": [
        {
          "indexed": false,
          "name": "member",
          "type": "address"
        }
      ],
      "name": "NewMember",
      "type": "event"
    },
    {
      "anonymous": false,
      "inputs": [
        {
          "indexed": false,
          "name": "_repAdd",
          "type": "address"
        }
      ],
      "name": "NewReplication",
      "type": "event"
    },
    {
      "anonymous": false,
      "inputs": [
        {
          "indexed": true,
          "name": "previousOwner",
          "type": "address"
        }
      ],
      "name": "OwnershipRenounced",
      "type": "event"
    },
    {
      "anonymous": false,
      "inputs": [
        {
          "indexed": true,
          "name": "previousOwner",
          "type": "address"
        },
        {
          "indexed": true,
          "name": "newOwner",
          "type": "address"
        }
      ],
      "name": "OwnershipTransferred",
      "type": "event"
    },
    {
      "constant": false,
      "inputs": [
        {
          "name": "_ideaIPFS",
          "type": "string"
        }
      ],
      "name": "proposeIdea",
      "outputs": [],
      "payable": false,
      "stateMutability": "nonpayable",
      "type": "function"
    },
    {
      "constant": false,
      "inputs": [
        {
          "name": "_ideaProposalID",
          "type": "uint256"
        },
        {
          "name": "supportsProposal",
          "type": "bool"
        },
        {
          "name": "_globalUseBlockAmount",
          "type": "uint256"
        },
        {
          "name": "_miningTime",
          "type": "uint256"
        },
        {
          "name": "_royalty",
          "type": "uint256"
        },
        {
          "name": "_inventor",
          "type": "address"
        },
        {
          "name": "_invention",
          "type": "address"
        }
      ],
      "name": "vote",
      "outputs": [
        {
          "name": "voteID",
          "type": "uint256"
        }
      ],
      "payable": false,
      "stateMutability": "nonpayable",
      "type": "function"
    },
    {
      "constant": true,
      "inputs": [
        {
          "name": "_add",
          "type": "address"
        },
        {
          "name": "_ideaProposalID",
          "type": "uint256"
        }
      ],
      "name": "checkIfVoted",
      "outputs": [
        {
          "name": "",
          "type": "bool"
        }
      ],
      "payable": false,
      "stateMutability": "view",
      "type": "function"
    }
  ],
  "bytecode": "0x6080604052683635c9adc5dea0000060085568056bc75e2d6310000060095534801561002a57600080fd5b5060405160608061427b833981018060405281019080805190602001909291908051906020019092919080519060200190929190505050336000806101000a81548173ffffffffffffffffffffffffffffffffffffffff021916908373ffffffffffffffffffffffffffffffffffffffff1602179055504260078190555082600260006101000a81548173ffffffffffffffffffffffffffffffffffffffff021916908373ffffffffffffffffffffffffffffffffffffffff16021790555081600160006101000a81548173ffffffffffffffffffffffffffffffffffffffff021916908373ffffffffffffffffffffffffffffffffffffffff16021790555080600360006101000a81548173ffffffffffffffffffffffffffffffffffffffff021916908373ffffffffffffffffffffffffffffffffffffffff1602179055505050506140fe8061017d6000396000f30060806040526004361061016a576000357c0100000000000000000000000000000000000000000000000000000000900463ffffffff168063013cf08b1461016f57806310734e43146102325780631ccb3405146102af5780631d28ce3b146103185780631ddc883b146103df57806328a6e47c1461040a5780633c91f273146104355780633e7d4dbd1461048c57806348b98958146104f15780634951f6aa1461054d5780634cfa2409146105a857806352d2c11d146105d35780635c5ef33c1461062a5780636da23e4014610693578063715018a61461071657806371f1e6771461072d57806375824974146107d85780638160f0b5146108035780638da5cb5b1461082e5780639f7d892914610885578063a416ecd7146108b0578063be6cbbcf146108c7578063ca79b5a9146108f2578063daeac7b91461091f578063e026daa11461098b578063e4fd4524146109e2578063f2fde38b14610a4f578063f8c711fa14610a92575b600080fd5b34801561017b57600080fd5b5061019a60048036038101908080359060200190929190505050610adf565b60405180806020018515151515815260200184151515158152602001838152602001828103825286818151815260200191508051906020019080838360005b838110156101f45780820151818401526020810190506101d9565b50505050905090810190601f1680156102215780820380516001836020036101000a031916815260200191505b509550505050505060405180910390f35b34801561023e57600080fd5b50610299600480360381019080803590602001908201803590602001908080601f0160208091040260200160405190810160405280939291908181526020018383808284378201915050505050509192919290505050610bd0565b6040518082815260200191505060405180910390f35b3480156102bb57600080fd5b50610316600480360381019080803590602001908201803590602001908080601f0160208091040260200160405190810160405280939291908181526020018383808284378201915050505050509192919290505050610c45565b005b34801561032457600080fd5b506103dd600480360381019080803590602001908201803590602001908080601f0160208091040260200160405190810160405280939291908181526020018383808284378201915050505050509192919290803590602001909291908035906020019092919080359060200190929190803573ffffffffffffffffffffffffffffffffffffffff169060200190929190803573ffffffffffffffffffffffffffffffffffffffff1690602001909291905050506110b7565b005b3480156103eb57600080fd5b506103f46116d5565b6040518082815260200191505060405180910390f35b34801561041657600080fd5b5061041f6116db565b6040518082815260200191505060405180910390f35b34801561044157600080fd5b5061044a6116e1565b604051808273ffffffffffffffffffffffffffffffffffffffff1673ffffffffffffffffffffffffffffffffffffffff16815260200191505060405180910390f35b34801561049857600080fd5b506104d7600480360381019080803573ffffffffffffffffffffffffffffffffffffffff16906020019092919080359060200190929190505050611707565b604051808215151515815260200191505060405180910390f35b61054b600480360381019080803590602001908201803590602001908080601f0160208091040260200160405190810160405280939291908181526020018383808284378201915050505050509192919290505050611781565b005b34801561055957600080fd5b5061058e600480360381019080803573ffffffffffffffffffffffffffffffffffffffff169060200190929190505050611a46565b604051808215151515815260200191505060405180910390f35b3480156105b457600080fd5b506105bd611b5b565b6040518082815260200191505060405180910390f35b3480156105df57600080fd5b506105e8611b61565b604051808273ffffffffffffffffffffffffffffffffffffffff1673ffffffffffffffffffffffffffffffffffffffff16815260200191505060405180910390f35b34801561063657600080fd5b50610691600480360381019080803590602001908201803590602001908080601f0160208091040260200160405190810160405280939291908181526020018383808284378201915050505050509192919290505050611b87565b005b34801561069f57600080fd5b50610714600480360381019080803573ffffffffffffffffffffffffffffffffffffffff169060200190929190803573ffffffffffffffffffffffffffffffffffffffff169060200190929190803573ffffffffffffffffffffffffffffffffffffffff169060200190929190505050611d2d565b005b34801561072257600080fd5b5061072b611e50565b005b34801561073957600080fd5b506107c260048036038101908080359060200190929190803515159060200190929190803590602001909291908035906020019092919080359060200190929190803573ffffffffffffffffffffffffffffffffffffffff169060200190929190803573ffffffffffffffffffffffffffffffffffffffff169060200190929190505050611f52565b6040518082815260200191505060405180910390f35b3480156107e457600080fd5b506107ed61229d565b6040518082815260200191505060405180910390f35b34801561080f57600080fd5b506108186122a3565b6040518082815260200191505060405180910390f35b34801561083a57600080fd5b506108436122a9565b604051808273ffffffffffffffffffffffffffffffffffffffff1673ffffffffffffffffffffffffffffffffffffffff16815260200191505060405180910390f35b34801561089157600080fd5b5061089a6122ce565b6040518082815260200191505060405180910390f35b3480156108bc57600080fd5b506108c56122d4565b005b3480156108d357600080fd5b506108dc6123ef565b6040518082815260200191505060405180910390f35b3480156108fe57600080fd5b5061091d600480360381019080803590602001909291905050506123f5565b005b34801561092b57600080fd5b5061093461245a565b6040518080602001828103825283818151815260200191508051906020019060200280838360005b8381101561097757808201518184015260208101905061095c565b505050509050019250505060405180910390f35b34801561099757600080fd5b506109a06124ef565b604051808273ffffffffffffffffffffffffffffffffffffffff1673ffffffffffffffffffffffffffffffffffffffff16815260200191505060405180910390f35b3480156109ee57600080fd5b50610a0d60048036038101908080359060200190929190505050612515565b604051808273ffffffffffffffffffffffffffffffffffffffff1673ffffffffffffffffffffffffffffffffffffffff16815260200191505060405180910390f35b348015610a5b57600080fd5b50610a90600480360381019080803573ffffffffffffffffffffffffffffffffffffffff169060200190929190505050612553565b005b348015610a9e57600080fd5b50610add60048036038101908080359060200190929190803573ffffffffffffffffffffffffffffffffffffffff1690602001909291905050506125ba565b005b600b81815481101515610aee57fe5b9060005260206000209060050201600091509050806000018054600181600116156101000203166002900480601f016020809104026020016040519081016040528092919081815260200182805460018160011615610100020316600290048015610b9a5780601f10610b6f57610100808354040283529160200191610b9a565b820191906000526020600020905b815481529060010190602001808311610b7d57829003601f168201915b5050505050908060010160009054906101000a900460ff16908060010160019054906101000a900460ff16908060020154905084565b6000600f826040518082805190602001908083835b602083101515610c0a5780518252602082019150602081019050602083039250610be5565b6001836020036101000a0380198251168184511680821785525050505050509050019150509081526020016040518091039020549050919050565b68056bc75e2d63100000600160009054906101000a900473ffffffffffffffffffffffffffffffffffffffff1673ffffffffffffffffffffffffffffffffffffffff166370a08231336040518263ffffffff167c0100000000000000000000000000000000000000000000000000000000028152600401808273ffffffffffffffffffffffffffffffffffffffff1673ffffffffffffffffffffffffffffffffffffffff168152602001915050602060405180830381600087803b158015610d0c57600080fd5b505af1158015610d20573d6000803e3d6000fd5b505050506040513d6020811015610d3657600080fd5b810190808051906020019092919050505010151515610d5457600080fd5b600260009054906101000a900473ffffffffffffffffffffffffffffffffffffffff1673ffffffffffffffffffffffffffffffffffffffff16637130c2413368056bc75e2d631000006040518363ffffffff167c0100000000000000000000000000000000000000000000000000000000028152600401808373ffffffffffffffffffffffffffffffffffffffff1673ffffffffffffffffffffffffffffffffffffffff16815260200182815260200192505050600060405180830381600087803b158015610e2257600080fd5b505af1158015610e36573d6000803e3d6000fd5b50505050600260009054906101000a900473ffffffffffffffffffffffffffffffffffffffff1673ffffffffffffffffffffffffffffffffffffffff16631d40bbcf336040518263ffffffff167c0100000000000000000000000000000000000000000000000000000000028152600401808273ffffffffffffffffffffffffffffffffffffffff1673ffffffffffffffffffffffffffffffffffffffff168152602001915050600060405180830381600087803b158015610ef757600080fd5b505af1158015610f0b573d6000803e3d6000fd5b50505050600260009054906101000a900473ffffffffffffffffffffffffffffffffffffffff1673ffffffffffffffffffffffffffffffffffffffff1663afa879d133836040518363ffffffff167c0100000000000000000000000000000000000000000000000000000000028152600401808373ffffffffffffffffffffffffffffffffffffffff1673ffffffffffffffffffffffffffffffffffffffff16815260200180602001828103825283818151815260200191508051906020019080838360005b83811015610fec578082015181840152602081019050610fd1565b50505050905090810190601f1680156110195780820380516001836020036101000a031916815260200191505b509350505050600060405180830381600087803b15801561103957600080fd5b505af115801561104d573d6000803e3d6000fd5b505050507fb4dcb6dd550f27b5917ebf674899ea7046ff91790c6f9f01431617ad39819db233604051808273ffffffffffffffffffffffffffffffffffffffff1673ffffffffffffffffffffffffffffffffffffffff16815260200191505060405180910390a150565b6000809054906101000a900473ffffffffffffffffffffffffffffffffffffffff1673ffffffffffffffffffffffffffffffffffffffff163373ffffffffffffffffffffffffffffffffffffffff1614151561111257600080fd5b600260009054906101000a900473ffffffffffffffffffffffffffffffffffffffff1673ffffffffffffffffffffffffffffffffffffffff1663cb2d97f887878787876040518663ffffffff167c010000000000000000000000000000000000000000000000000000000002815260040180806020018681526020018581526020018481526020018373ffffffffffffffffffffffffffffffffffffffff1673ffffffffffffffffffffffffffffffffffffffff168152602001828103825287818151815260200191508051906020019080838360005b838110156112045780820151818401526020810190506111e9565b50505050905090810190601f1680156112315780820380516001836020036101000a031916815260200191505b509650505050505050600060405180830381600087803b15801561125457600080fd5b505af1158015611268573d6000803e3d6000fd5b505050506004600081548092919060010191905055506001151561128b83611a46565b151514151561136a57600260009054906101000a900473ffffffffffffffffffffffffffffffffffffffff1673ffffffffffffffffffffffffffffffffffffffff16631d40bbcf836040518263ffffffff167c0100000000000000000000000000000000000000000000000000000000028152600401808273ffffffffffffffffffffffffffffffffffffffff1673ffffffffffffffffffffffffffffffffffffffff168152602001915050600060405180830381600087803b15801561135157600080fd5b505af1158015611365573d6000803e3d6000fd5b505050505b600c8190806001815401808255809150509060018203906000526020600020016000909192909190916101000a81548173ffffffffffffffffffffffffffffffffffffffff021916908373ffffffffffffffffffffffffffffffffffffffff160217905550506113d8612b0b565b50600260009054906101000a900473ffffffffffffffffffffffffffffffffffffffff1673ffffffffffffffffffffffffffffffffffffffff1663d82f980b836008546040518363ffffffff167c0100000000000000000000000000000000000000000000000000000000028152600401808373ffffffffffffffffffffffffffffffffffffffff1673ffffffffffffffffffffffffffffffffffffffff16815260200182815260200192505050600060405180830381600087803b1580156114a057600080fd5b505af11580156114b4573d6000803e3d6000fd5b50505050600260009054906101000a900473ffffffffffffffffffffffffffffffffffffffff1673ffffffffffffffffffffffffffffffffffffffff16634777e8ea836040518263ffffffff167c0100000000000000000000000000000000000000000000000000000000028152600401808273ffffffffffffffffffffffffffffffffffffffff1673ffffffffffffffffffffffffffffffffffffffff168152602001915050600060405180830381600087803b15801561157557600080fd5b505af1158015611589573d6000803e3d6000fd5b50505050601060008373ffffffffffffffffffffffffffffffffffffffff1673ffffffffffffffffffffffffffffffffffffffff1681526020019081526020016000206004549080600181540180825580915050906001820390600052602060002001600090919290919091505550600260009054906101000a900473ffffffffffffffffffffffffffffffffffffffff1673ffffffffffffffffffffffffffffffffffffffff1663d9972164836040518263ffffffff167c0100000000000000000000000000000000000000000000000000000000028152600401808273ffffffffffffffffffffffffffffffffffffffff1673ffffffffffffffffffffffffffffffffffffffff168152602001915050600060405180830381600087803b1580156116b557600080fd5b505af11580156116c9573d6000803e3d6000fd5b50505050505050505050565b60085481565b60075481565b600360009054906101000a900473ffffffffffffffffffffffffffffffffffffffff1681565b600080600b8381548110151561171957fe5b906000526020600020906005020190508060040160008573ffffffffffffffffffffffffffffffffffffffff1673ffffffffffffffffffffffffffffffffffffffff16815260200190815260200160002060009054906101000a900460ff1691505092915050565b62f0c8a060075401421115151561179757600080fd5b670de0b6b3a764000034101515156117ae57600080fd5b6117b733612b4d565b600260009054906101000a900473ffffffffffffffffffffffffffffffffffffffff1673ffffffffffffffffffffffffffffffffffffffff1663afa879d133836040518363ffffffff167c0100000000000000000000000000000000000000000000000000000000028152600401808373ffffffffffffffffffffffffffffffffffffffff1673ffffffffffffffffffffffffffffffffffffffff16815260200180602001828103825283818151815260200191508051906020019080838360005b83811015611894578082015181840152602081019050611879565b50505050905090810190601f1680156118c15780820380516001836020036101000a031916815260200191505b509350505050600060405180830381600087803b1580156118e157600080fd5b505af11580156118f5573d6000803e3d6000fd5b50505050600260009054906101000a900473ffffffffffffffffffffffffffffffffffffffff1673ffffffffffffffffffffffffffffffffffffffff1663d82f980b3369021e19e0c9bab24000006040518363ffffffff167c0100000000000000000000000000000000000000000000000000000000028152600401808373ffffffffffffffffffffffffffffffffffffffff1673ffffffffffffffffffffffffffffffffffffffff16815260200182815260200192505050600060405180830381600087803b1580156119c857600080fd5b505af11580156119dc573d6000803e3d6000fd5b505050507fb4dcb6dd550f27b5917ebf674899ea7046ff91790c6f9f01431617ad39819db233604051808273ffffffffffffffffffffffffffffffffffffffff1673ffffffffffffffffffffffffffffffffffffffff16815260200191505060405180910390a150565b600060011515600260009054906101000a900473ffffffffffffffffffffffffffffffffffffffff1673ffffffffffffffffffffffffffffffffffffffff1663aaa746bb846040518263ffffffff167c0100000000000000000000000000000000000000000000000000000000028152600401808273ffffffffffffffffffffffffffffffffffffffff1673ffffffffffffffffffffffffffffffffffffffff168152602001915050602060405180830381600087803b158015611b0957600080fd5b505af1158015611b1d573d6000803e3d6000fd5b505050506040513d6020811015611b3357600080fd5b810190808051906020019092919050505015151415611b555760019050611b56565b5b919050565b60045481565b600160009054906101000a900473ffffffffffffffffffffffffffffffffffffffff1681565b600080600b8054809190600101611b9e9190613e9d565b9150600b82815481101515611baf57fe5b9060005260206000209060050201905081600f846040518082805190602001908083835b602083101515611bf85780518252602082019150602081019050602083039250611bd3565b6001836020036101000a03801982511681845116808217855250505050505090500191505090815260200160405180910390208190555082816000019080519060200190611c47929190613ecf565b5060008160010160006101000a81548160ff02191690831515021790555060008160010160016101000a81548160ff021916908315150217905550600081600201819055507f544a88757adcb29711e2e12a617fb44221880d5013615cf2dbbdb37f5d505973836040518080602001828103825283818151815260200191508051906020019080838360005b83811015611cee578082015181840152602081019050611cd3565b50505050905090810190601f168015611d1b5780820380516001836020036101000a031916815260200191505b509250505060405180910390a1505050565b6000809054906101000a900473ffffffffffffffffffffffffffffffffffffffff1673ffffffffffffffffffffffffffffffffffffffff163373ffffffffffffffffffffffffffffffffffffffff16141515611d8857600080fd5b82600260006101000a81548173ffffffffffffffffffffffffffffffffffffffff021916908373ffffffffffffffffffffffffffffffffffffffff16021790555081600160006101000a81548173ffffffffffffffffffffffffffffffffffffffff021916908373ffffffffffffffffffffffffffffffffffffffff16021790555080600360006101000a81548173ffffffffffffffffffffffffffffffffffffffff021916908373ffffffffffffffffffffffffffffffffffffffff160217905550505050565b6000809054906101000a900473ffffffffffffffffffffffffffffffffffffffff1673ffffffffffffffffffffffffffffffffffffffff163373ffffffffffffffffffffffffffffffffffffffff16141515611eab57600080fd5b6000809054906101000a900473ffffffffffffffffffffffffffffffffffffffff1673ffffffffffffffffffffffffffffffffffffffff167ff8df31144d9c2f0f6b59d69b8b98abd5459d07f2742c4df920b25aae33c6482060405160405180910390a260008060006101000a81548173ffffffffffffffffffffffffffffffffffffffff021916908373ffffffffffffffffffffffffffffffffffffffff160217905550565b60008060011515611f6233611a46565b1515141515611f7057600080fd5b600b89815481101515611f7f57fe5b90600052602060002090600502019050600115158160040160003373ffffffffffffffffffffffffffffffffffffffff1673ffffffffffffffffffffffffffffffffffffffff16815260200190815260200160002060009054906101000a900460ff16151514151515611ff157600080fd5b8060030180548091906001016120079190613f4f565b9150604080519081016040528089151581526020013373ffffffffffffffffffffffffffffffffffffffff16815250816003018381548110151561204757fe5b9060005260206000200160008201518160000160006101000a81548160ff02191690831515021790555060208201518160000160016101000a81548173ffffffffffffffffffffffffffffffffffffffff021916908373ffffffffffffffffffffffffffffffffffffffff16021790555090505060018160040160003373ffffffffffffffffffffffffffffffffffffffff1673ffffffffffffffffffffffffffffffffffffffff16815260200190815260200160002060006101000a81548160ff021916908315150217905550818060010192508160020181905550600260009054906101000a900473ffffffffffffffffffffffffffffffffffffffff1673ffffffffffffffffffffffffffffffffffffffff16634777e8ea336040518263ffffffff167c0100000000000000000000000000000000000000000000000000000000028152600401808273ffffffffffffffffffffffffffffffffffffffff1673ffffffffffffffffffffffffffffffffffffffff168152602001915050600060405180830381600087803b1580156121e157600080fd5b505af11580156121f5573d6000803e3d6000fd5b505050507f8eb81cb806dbb3d8a2f94981614331a55dfd90e06a42fdc362ca3ca96981d92f3389604051808373ffffffffffffffffffffffffffffffffffffffff1673ffffffffffffffffffffffffffffffffffffffff168152602001821515151581526020019250505060405180910390a1612270612c25565b600a54816002015410151561228e5761228d898888888888612d19565b5b81915050979650505050505050565b60065481565b600a5481565b6000809054906101000a900473ffffffffffffffffffffffffffffffffffffffff1681565b60095481565b600060011515600360009054906101000a900473ffffffffffffffffffffffffffffffffffffffff1673ffffffffffffffffffffffffffffffffffffffff16638eb5b913336040518263ffffffff167c0100000000000000000000000000000000000000000000000000000000028152600401808273ffffffffffffffffffffffffffffffffffffffff1673ffffffffffffffffffffffffffffffffffffffff168152602001915050602060405180830381600087803b15801561239757600080fd5b505af11580156123ab573d6000803e3d6000fd5b505050506040513d60208110156123c157600080fd5b810190808051906020019092919050505015151415156123e057600080fd5b3390506123ec81612fb2565b50565b60055481565b6000809054906101000a900473ffffffffffffffffffffffffffffffffffffffff1673ffffffffffffffffffffffffffffffffffffffff163373ffffffffffffffffffffffffffffffffffffffff1614151561245057600080fd5b8060098190555050565b6060601060003373ffffffffffffffffffffffffffffffffffffffff1673ffffffffffffffffffffffffffffffffffffffff1681526020019081526020016000208054806020026020016040519081016040528092919081815260200182805480156124e557602002820191906000526020600020905b8154815260200190600101908083116124d1575b5050505050905090565b600260009054906101000a900473ffffffffffffffffffffffffffffffffffffffff1681565b600c8181548110151561252457fe5b906000526020600020016000915054906101000a900473ffffffffffffffffffffffffffffffffffffffff1681565b6000809054906101000a900473ffffffffffffffffffffffffffffffffffffffff1673ffffffffffffffffffffffffffffffffffffffff163373ffffffffffffffffffffffffffffffffffffffff161415156125ae57600080fd5b6125b781613426565b50565b600115156125c733611a46565b15151415156125d557600080fd5b600115156125e233611a46565b15151415156125f057600080fd5b600954600160009054906101000a900473ffffffffffffffffffffffffffffffffffffffff1673ffffffffffffffffffffffffffffffffffffffff166370a08231336040518263ffffffff167c0100000000000000000000000000000000000000000000000000000000028152600401808273ffffffffffffffffffffffffffffffffffffffff1673ffffffffffffffffffffffffffffffffffffffff168152602001915050602060405180830381600087803b1580156126b057600080fd5b505af11580156126c4573d6000803e3d6000fd5b505050506040513d60208110156126da57600080fd5b8101908080519060200190929190505050101515156126f857600080fd5b600260009054906101000a900473ffffffffffffffffffffffffffffffffffffffff1673ffffffffffffffffffffffffffffffffffffffff16637130c241336009546040518363ffffffff167c0100000000000000000000000000000000000000000000000000000000028152600401808373ffffffffffffffffffffffffffffffffffffffff1673ffffffffffffffffffffffffffffffffffffffff16815260200182815260200192505050600060405180830381600087803b1580156127bf57600080fd5b505af11580156127d3573d6000803e3d6000fd5b50505050600560008154809291906001019190505550600260009054906101000a900473ffffffffffffffffffffffffffffffffffffffff1673ffffffffffffffffffffffffffffffffffffffff1663e934f00b8383336040518463ffffffff167c0100000000000000000000000000000000000000000000000000000000028152600401808481526020018373ffffffffffffffffffffffffffffffffffffffff1673ffffffffffffffffffffffffffffffffffffffff1681526020018273ffffffffffffffffffffffffffffffffffffffff1673ffffffffffffffffffffffffffffffffffffffff1681526020019350505050600060405180830381600087803b1580156128e257600080fd5b505af11580156128f6573d6000803e3d6000fd5b50505050600260009054906101000a900473ffffffffffffffffffffffffffffffffffffffff1673ffffffffffffffffffffffffffffffffffffffff16634777e8ea336040518263ffffffff167c0100000000000000000000000000000000000000000000000000000000028152600401808273ffffffffffffffffffffffffffffffffffffffff1673ffffffffffffffffffffffffffffffffffffffff168152602001915050600060405180830381600087803b1580156129b757600080fd5b505af11580156129cb573d6000803e3d6000fd5b50505050600260009054906101000a900473ffffffffffffffffffffffffffffffffffffffff1673ffffffffffffffffffffffffffffffffffffffff1663d9972164336040518263ffffffff167c0100000000000000000000000000000000000000000000000000000000028152600401808273ffffffffffffffffffffffffffffffffffffffff1673ffffffffffffffffffffffffffffffffffffffff168152602001915050600060405180830381600087803b158015612a8c57600080fd5b505af1158015612aa0573d6000803e3d6000fd5b505050507fe949536157131e1de4cd7b981de0040f0fb98337330cdf262d0fed657681c2f081604051808273ffffffffffffffffffffffffffffffffffffffff1673ffffffffffffffffffffffffffffffffffffffff16815260200191505060405180910390a15050565b60006305a48fba6007540142101515612b44576002600854811515612b2c57fe5b04600881905550426007819055506008549050612b4a565b60085490505b90565b600260009054906101000a900473ffffffffffffffffffffffffffffffffffffffff1673ffffffffffffffffffffffffffffffffffffffff16631d40bbcf826040518263ffffffff167c0100000000000000000000000000000000000000000000000000000000028152600401808273ffffffffffffffffffffffffffffffffffffffff1673ffffffffffffffffffffffffffffffffffffffff168152602001915050600060405180830381600087803b158015612c0a57600080fd5b505af1158015612c1e573d6000803e3d6000fd5b5050505050565b6000806000600260009054906101000a900473ffffffffffffffffffffffffffffffffffffffff1673ffffffffffffffffffffffffffffffffffffffff1663997072f76040518163ffffffff167c0100000000000000000000000000000000000000000000000000000000028152600401602060405180830381600087803b158015612cb057600080fd5b505af1158015612cc4573d6000803e3d6000fd5b505050506040513d6020811015612cda57600080fd5b81019080805190602001909291905050509250600a83811515612cf957fe5b049150600283811515612d0857fe5b049050818101600a81905550505050565b60006060600080600080600080600b8e815481101515612d3557fe5b906000526020600020906005020197508760010160009054906101000a900460ff16151515612d6357600080fd5b876000018054600181600116156101000203166002900480601f016020809104026020016040519081016040528092919081815260200182805460018160011615610100020316600290048015612dfb5780601f10612dd057610100808354040283529160200191612dfb565b820191906000526020600020905b815481529060010190602001808311612dde57829003601f168201915b50505050509650600095506000945060009350612e16612c25565b600092505b8760030180549050831015612e82578760030183815481101515612e3b57fe5b9060005260206000200191506001905080860195508160000160009054906101000a900460ff1615612e71578085019450612e77565b80840193505b826001019250612e1b565b600a548610151515612e9357600080fd5b83851115612f845760018860010160006101000a81548160ff02191690831515021790555060018860010160016101000a81548160ff021916908315150217905550612ee3878e8e8e8e8e6110b7565b7ff7d7228b49234d1660fac6c22cb436b3520fa0f9b4b65f0482d84a1698674397876040518080602001828103825283818151815260200191508051906020019080838360005b83811015612f45578082015181840152602081019050612f2a565b50505050905090810190601f168015612f725780820380516001836020036101000a031916815260200191505b509250505060405180910390a1612fa2565b60008860010160016101000a81548160ff0219169083151502179055505b5050505050505050505050505050565b600080600080600080600080600360009054906101000a900473ffffffffffffffffffffffffffffffffffffffff1673ffffffffffffffffffffffffffffffffffffffff166388556ddc8a6040518263ffffffff167c0100000000000000000000000000000000000000000000000000000000028152600401808273ffffffffffffffffffffffffffffffffffffffff1673ffffffffffffffffffffffffffffffffffffffff168152602001915050602060405180830381600087803b15801561307b57600080fd5b505af115801561308f573d6000803e3d6000fd5b505050506040513d60208110156130a557600080fd5b81019080805190602001909291905050509750600360009054906101000a900473ffffffffffffffffffffffffffffffffffffffff1673ffffffffffffffffffffffffffffffffffffffff1663d5e5c5618a6040518263ffffffff167c0100000000000000000000000000000000000000000000000000000000028152600401808273ffffffffffffffffffffffffffffffffffffffff1673ffffffffffffffffffffffffffffffffffffffff168152602001915050602060405180830381600087803b15801561317557600080fd5b505af1158015613189573d6000803e3d6000fd5b505050506040513d602081101561319f57600080fd5b81019080805190602001909291905050509650600195506131c08689613520565b9450600e60008a73ffffffffffffffffffffffffffffffffffffffff1673ffffffffffffffffffffffffffffffffffffffff16815260200190815260200160002060008881526020019081526020016000205493508484019250600d6000898152602001908152602001600020549150600360009054906101000a900473ffffffffffffffffffffffffffffffffffffffff1673ffffffffffffffffffffffffffffffffffffffff16631d5f3dfc896040518263ffffffff167c010000000000000000000000000000000000000000000000000000000002815260040180828152602001915050602060405180830381600087803b1580156132c157600080fd5b505af11580156132d5573d6000803e3d6000fd5b505050506040513d60208110156132eb57600080fd5b8101908080519060200190929190505050905082600e60008b73ffffffffffffffffffffffffffffffffffffffff1673ffffffffffffffffffffffffffffffffffffffff1681526020019081526020016000206000898152602001908152602001600020819055508183101580156133635750804210155b1561341b5761337189613650565b600360009054906101000a900473ffffffffffffffffffffffffffffffffffffffff1673ffffffffffffffffffffffffffffffffffffffff1663cb47f760896040518263ffffffff167c010000000000000000000000000000000000000000000000000000000002815260040180828152602001915050600060405180830381600087803b15801561340257600080fd5b505af1158015613416573d6000803e3d6000fd5b505050505b505050505050505050565b600073ffffffffffffffffffffffffffffffffffffffff168173ffffffffffffffffffffffffffffffffffffffff161415151561346257600080fd5b8073ffffffffffffffffffffffffffffffffffffffff166000809054906101000a900473ffffffffffffffffffffffffffffffffffffffff1673ffffffffffffffffffffffffffffffffffffffff167f8be0079c531659141344cd1fd0a4f28419497f9722a3daafe3b4186f6b6457e060405160405180910390a3806000806101000a81548173ffffffffffffffffffffffffffffffffffffffff021916908373ffffffffffffffffffffffffffffffffffffffff16021790555050565b6000806000806000600360009054906101000a900473ffffffffffffffffffffffffffffffffffffffff1673ffffffffffffffffffffffffffffffffffffffff166330255eb533886040518363ffffffff167c0100000000000000000000000000000000000000000000000000000000028152600401808373ffffffffffffffffffffffffffffffffffffffff1673ffffffffffffffffffffffffffffffffffffffff16815260200182815260200192505050602060405180830381600087803b1580156135ed57600080fd5b505af1158015613601573d6000803e3d6000fd5b505050506040513d602081101561361757600080fd5b81019080805190602001909291905050509350600a8781151561363657fe5b049250838302915081870190508094505050505092915050565b6000806000806000600360009054906101000a900473ffffffffffffffffffffffffffffffffffffffff1673ffffffffffffffffffffffffffffffffffffffff1663dbe10d51876040518263ffffffff167c0100000000000000000000000000000000000000000000000000000000028152600401808273ffffffffffffffffffffffffffffffffffffffff1673ffffffffffffffffffffffffffffffffffffffff168152602001915050602060405180830381600087803b15801561371557600080fd5b505af1158015613729573d6000803e3d6000fd5b505050506040513d602081101561373f57600080fd5b81019080805190602001909291905050509450600360009054906101000a900473ffffffffffffffffffffffffffffffffffffffff1673ffffffffffffffffffffffffffffffffffffffff1663bb788457876040518263ffffffff167c0100000000000000000000000000000000000000000000000000000000028152600401808273ffffffffffffffffffffffffffffffffffffffff1673ffffffffffffffffffffffffffffffffffffffff168152602001915050602060405180830381600087803b15801561380f57600080fd5b505af1158015613823573d6000803e3d6000fd5b505050506040513d602081101561383957600080fd5b81019080805190602001909291905050509350600360009054906101000a900473ffffffffffffffffffffffffffffffffffffffff1673ffffffffffffffffffffffffffffffffffffffff166388556ddc876040518263ffffffff167c0100000000000000000000000000000000000000000000000000000000028152600401808273ffffffffffffffffffffffffffffffffffffffff1673ffffffffffffffffffffffffffffffffffffffff168152602001915050602060405180830381600087803b15801561390957600080fd5b505af115801561391d573d6000803e3d6000fd5b505050506040513d602081101561393357600080fd5b81019080805190602001909291905050509250600360009054906101000a900473ffffffffffffffffffffffffffffffffffffffff1673ffffffffffffffffffffffffffffffffffffffff1663eb61e371876040518263ffffffff167c0100000000000000000000000000000000000000000000000000000000028152600401808273ffffffffffffffffffffffffffffffffffffffff1673ffffffffffffffffffffffffffffffffffffffff168152602001915050602060405180830381600087803b158015613a0357600080fd5b505af1158015613a17573d6000803e3d6000fd5b505050506040513d6020811015613a2d57600080fd5b81019080805190602001909291905050509150600360009054906101000a900473ffffffffffffffffffffffffffffffffffffffff1673ffffffffffffffffffffffffffffffffffffffff1663d4f69b68846040518263ffffffff167c010000000000000000000000000000000000000000000000000000000002815260040180828152602001915050602060405180830381600087803b158015613ad157600080fd5b505af1158015613ae5573d6000803e3d6000fd5b505050506040513d6020811015613afb57600080fd5b810190808051906020019092919050505090508181039050613b1d8184613520565b9050600660008154809291906001019190505550600260009054906101000a900473ffffffffffffffffffffffffffffffffffffffff1673ffffffffffffffffffffffffffffffffffffffff166332836d8d866040518263ffffffff167c0100000000000000000000000000000000000000000000000000000000028152600401808273ffffffffffffffffffffffffffffffffffffffff1673ffffffffffffffffffffffffffffffffffffffff168152602001915050600060405180830381600087803b158015613bee57600080fd5b505af1158015613c02573d6000803e3d6000fd5b50505050600260009054906101000a900473ffffffffffffffffffffffffffffffffffffffff1673ffffffffffffffffffffffffffffffffffffffff1663d82f980b86836040518363ffffffff167c0100000000000000000000000000000000000000000000000000000000028152600401808373ffffffffffffffffffffffffffffffffffffffff1673ffffffffffffffffffffffffffffffffffffffff16815260200182815260200192505050600060405180830381600087803b158015613ccb57600080fd5b505af1158015613cdf573d6000803e3d6000fd5b50505050600260009054906101000a900473ffffffffffffffffffffffffffffffffffffffff1673ffffffffffffffffffffffffffffffffffffffff1663d82f980b85846040518363ffffffff167c0100000000000000000000000000000000000000000000000000000000028152600401808373ffffffffffffffffffffffffffffffffffffffff1673ffffffffffffffffffffffffffffffffffffffff16815260200182815260200192505050600060405180830381600087803b158015613da857600080fd5b505af1158015613dbc573d6000803e3d6000fd5b50505050600260009054906101000a900473ffffffffffffffffffffffffffffffffffffffff1673ffffffffffffffffffffffffffffffffffffffff16634777e8ea866040518263ffffffff167c0100000000000000000000000000000000000000000000000000000000028152600401808273ffffffffffffffffffffffffffffffffffffffff1673ffffffffffffffffffffffffffffffffffffffff168152602001915050600060405180830381600087803b158015613e7d57600080fd5b505af1158015613e91573d6000803e3d6000fd5b50505050505050505050565b815481835581811115613eca57600502816005028360005260206000209182019101613ec99190613f7b565b5b505050565b828054600181600116156101000203166002900490600052602060002090601f016020900481019282601f10613f1057805160ff1916838001178555613f3e565b82800160010185558215613f3e579182015b82811115613f3d578251825591602001919060010190613f22565b5b509050613f4b9190613fea565b5090565b815481835581811115613f7657818360005260206000209182019101613f75919061400f565b5b505050565b613fe791905b80821115613fe35760008082016000613f9a9190614069565b6001820160006101000a81549060ff02191690556001820160016101000a81549060ff02191690556002820160009055600382016000613fda91906140b1565b50600501613f81565b5090565b90565b61400c91905b80821115614008576000816000905550600101613ff0565b5090565b90565b61406691905b8082111561406257600080820160006101000a81549060ff02191690556000820160016101000a81549073ffffffffffffffffffffffffffffffffffffffff021916905550600101614015565b5090565b90565b50805460018160011615610100020316600290046000825580601f1061408f57506140ae565b601f0160209004906000526020600020908101906140ad9190613fea565b5b50565b50805460008255906000526020600020908101906140cf919061400f565b505600a165627a7a72305820a69038fc946506798317c96e4820c71c9d09d679249aa95a96005ac22296e3710029",
  "source": "pragma solidity ^0.4.21;\nimport \"./UseLogic.sol\";\n////////////////////////////////////////////////////////////////////////////////////////////\n/// @title UseLogic Contract for the CryptoPatent Blockchain\n/// @author DecentraCorp\n/// @notice this contract is the fouth contract in the CryptoPatent Blockchain\n/// @dev All function calls are currently implement without side effects\n////////////////////////////////////////////////////////////////////////////////////////////\n/// @author Christopher Dixon\n\ncontract CryptoPatentBlockchain is UseLogic {\n\n///@notice constructor is used to set up the CryptoPatent Blockchain\n///@dev this contract is fed the addresses of the other contracts through truffle magic\n///@dev the address that launches the contracts is set as the first DecentraCorp Member\n  constructor(address _dcpoa, address _IDC, address _CPBG) public {\n    globalBlockHalfTime = now;\n    DCPoA = DecentraCorpPoA(_dcpoa);\n    IDC = IdeaCoin(_IDC);\n    CPBG = CryptoPatentBlockGenerator(_CPBG);\n\n\n  }\n\n///@notice proposeIdea is used to allow ANYONE to petition the community for idea approval\n///@dev the struct for this is set in interface.solidity\n///@dev idea proposals are put up for community approval\n  function proposeIdea(string _ideaIPFS) public {\n          uint IdeaProposalID = proposals.length++;\n          IdeaProposal storage p = proposals[IdeaProposalID];\n          getHash[_ideaIPFS] = IdeaProposalID;\n          p.IdeaIPFS = _ideaIPFS;\n          p.executed = false;\n          p.proposalPassed = false;\n          p.numberOfVotes = 0;\n          emit IdeaProposed(_ideaIPFS);\n  }\n\n///@notice set_Quorum is an internal function used by proposal vote counts to see if the community approves\n///@dev quorum is set to 60%\nfunction set_Quorum() internal  {\n        uint maxQuorum = DCPoA.getMemberCount();\n        uint tenthQuorum = (maxQuorum / 10);\n        uint  halfQuorum = (maxQuorum / 2);\n        minimumQuorum = (halfQuorum + tenthQuorum);\n  }\n\n///@notice ideaBlockVote counts the votes and executes and Idea Proposal, adding an idea to the cryptopatent Blockchain\n///@dev seperate but similiar structures will need to be implemented in the future to stream line voting on different subjects(beta)\nfunction ideaBlockVote(uint _ideaProposalID, uint _globalUseBlockAmount,uint _miningTime, uint _royalty, address _inventor, address _invention) internal {\n        IdeaProposal storage p = proposals[_ideaProposalID];\n             // sets p equal to the specific proposalNumber\n        require(!p.executed);\n        string memory _ideahash = p.IdeaIPFS;\n        uint quorum = 0;\n        uint yea = 0;\n        uint nay = 0;\n        set_Quorum();\n\n\n    for (uint i = 0; i <  p.votes.length; ++i) {\n        Vote storage v = p.votes[i];\n        uint voteWeight = 1;\n        quorum += voteWeight;\n        if (v.inSupport) {\n          yea += voteWeight;\n             } else {\n           nay += voteWeight;\n                 }\n             }\n\n             require(quorum >= minimumQuorum); // Check if a minimum quorum has been reached\n\n             if (yea > nay ) {\n                 // Proposal passed; execute the transaction\n               p.executed = true;\n               p.proposalPassed = true;\n               generateIdeaBlock( _ideahash,  _globalUseBlockAmount, _miningTime, _royalty, _inventor, _invention);\n               emit IdeaApproved( _ideahash);\n           } else {\n                 // Proposal failed\n               p.proposalPassed = false;\n           }\n      }\n///@notice vote is a member only function which allows DecentraCorp members to vote on proposalPassed\n///@dev onlyMember modifier ensures votes are only cast by DC Members\n function vote(\n        uint _ideaProposalID,\n        bool supportsProposal,\n        uint _globalUseBlockAmount,\n        uint _miningTime,\n        uint _royalty,\n        address _inventor,\n        address _invention\n    )\n        public\n        onlyMember\n        returns (uint voteID)\n    {\n\n        IdeaProposal storage p = proposals[_ideaProposalID];\n        require(p.voted[msg.sender] != true);\n\n        voteID = p.votes.length++;\n        p.votes[voteID] = Vote({inSupport: supportsProposal, voter: msg.sender});\n        p.voted[msg.sender] = true;\n        p.numberOfVotes = voteID++;\n        DCPoA.increaseMemLev(msg.sender);\n        emit Voted(msg.sender, supportsProposal);\n        set_Quorum();\n        if(p.numberOfVotes >= minimumQuorum) {\n          ideaBlockVote(_ideaProposalID, _globalUseBlockAmount,_miningTime, _royalty, _inventor, _invention);\n        }\n        return voteID;\n    }\n// allows members to vote on proposals\n\nfunction checkIfVoted(address _add, uint _ideaProposalID) public view returns(bool) {\n  IdeaProposal storage p = proposals[_ideaProposalID];\n  return p.voted[_add];\n}\n\n}\n",
  "sourcePath": "/home/stan36/repos/DecentraCorp/contracts/CryptoPatent/CryptoPatentBlockchain.sol",
  "compiler": {
    "name": "solc",
    "version": "0.4.24+commit.e67f0147.Emscripten.clang"
  },
  "schemaVersion": "2.0.1",
  "updatedAt": "2018-12-28T11:59:35.381Z"
}