{
  "contractName": "CryptoPatentBlockGenerator",
  "abi": [
    {
      "constant": true,
      "inputs": [
        {
          "name": "_interfaceId",
          "type": "bytes4"
        }
      ],
      "name": "supportsInterface",
      "outputs": [
        {
          "name": "",
          "type": "bool"
        }
      ],
      "payable": false,
      "stateMutability": "view",
      "type": "function"
    },
    {
      "constant": true,
      "inputs": [],
      "name": "name",
      "outputs": [
        {
          "name": "",
          "type": "string"
        }
      ],
      "payable": false,
      "stateMutability": "view",
      "type": "function"
    },
    {
      "constant": true,
      "inputs": [
        {
          "name": "_tokenId",
          "type": "uint256"
        }
      ],
      "name": "getApproved",
      "outputs": [
        {
          "name": "",
          "type": "address"
        }
      ],
      "payable": false,
      "stateMutability": "view",
      "type": "function"
    },
    {
      "constant": false,
      "inputs": [
        {
          "name": "_to",
          "type": "address"
        },
        {
          "name": "_tokenId",
          "type": "uint256"
        }
      ],
      "name": "approve",
      "outputs": [],
      "payable": false,
      "stateMutability": "nonpayable",
      "type": "function"
    },
    {
      "constant": true,
      "inputs": [],
      "name": "totalSupply",
      "outputs": [
        {
          "name": "",
          "type": "uint256"
        }
      ],
      "payable": false,
      "stateMutability": "view",
      "type": "function"
    },
    {
      "constant": true,
      "inputs": [],
      "name": "InterfaceId_ERC165",
      "outputs": [
        {
          "name": "",
          "type": "bytes4"
        }
      ],
      "payable": false,
      "stateMutability": "view",
      "type": "function"
    },
    {
      "constant": false,
      "inputs": [
        {
          "name": "_from",
          "type": "address"
        },
        {
          "name": "_to",
          "type": "address"
        },
        {
          "name": "_tokenId",
          "type": "uint256"
        }
      ],
      "name": "transferFrom",
      "outputs": [],
      "payable": false,
      "stateMutability": "nonpayable",
      "type": "function"
    },
    {
      "constant": true,
      "inputs": [
        {
          "name": "_owner",
          "type": "address"
        },
        {
          "name": "_index",
          "type": "uint256"
        }
      ],
      "name": "tokenOfOwnerByIndex",
      "outputs": [
        {
          "name": "",
          "type": "uint256"
        }
      ],
      "payable": false,
      "stateMutability": "view",
      "type": "function"
    },
    {
      "constant": true,
      "inputs": [],
      "name": "globalUseBlocknumber",
      "outputs": [
        {
          "name": "",
          "type": "uint256"
        }
      ],
      "payable": false,
      "stateMutability": "view",
      "type": "function"
    },
    {
      "constant": true,
      "inputs": [],
      "name": "stakeAmountInIDC",
      "outputs": [
        {
          "name": "",
          "type": "uint256"
        }
      ],
      "payable": false,
      "stateMutability": "view",
      "type": "function"
    },
    {
      "constant": true,
      "inputs": [
        {
          "name": "",
          "type": "uint256"
        }
      ],
      "name": "ideaVariables",
      "outputs": [
        {
          "name": "globalUseBlockAmount",
          "type": "uint256"
        },
        {
          "name": "royalty",
          "type": "uint256"
        },
        {
          "name": "miningTime",
          "type": "uint256"
        },
        {
          "name": "inventorAddress",
          "type": "address"
        },
        {
          "name": "inventionAddress",
          "type": "address"
        }
      ],
      "payable": false,
      "stateMutability": "view",
      "type": "function"
    },
    {
      "constant": false,
      "inputs": [
        {
          "name": "_from",
          "type": "address"
        },
        {
          "name": "_to",
          "type": "address"
        },
        {
          "name": "_tokenId",
          "type": "uint256"
        }
      ],
      "name": "safeTransferFrom",
      "outputs": [],
      "payable": false,
      "stateMutability": "nonpayable",
      "type": "function"
    },
    {
      "constant": true,
      "inputs": [],
      "name": "globalIdeaCount",
      "outputs": [
        {
          "name": "",
          "type": "uint256"
        }
      ],
      "payable": false,
      "stateMutability": "view",
      "type": "function"
    },
    {
      "constant": true,
      "inputs": [
        {
          "name": "_tokenId",
          "type": "uint256"
        }
      ],
      "name": "exists",
      "outputs": [
        {
          "name": "",
          "type": "bool"
        }
      ],
      "payable": false,
      "stateMutability": "view",
      "type": "function"
    },
    {
      "constant": true,
      "inputs": [
        {
          "name": "_index",
          "type": "uint256"
        }
      ],
      "name": "tokenByIndex",
      "outputs": [
        {
          "name": "",
          "type": "uint256"
        }
      ],
      "payable": false,
      "stateMutability": "view",
      "type": "function"
    },
    {
      "constant": true,
      "inputs": [],
      "name": "globalTokenCount",
      "outputs": [
        {
          "name": "",
          "type": "uint256"
        }
      ],
      "payable": false,
      "stateMutability": "view",
      "type": "function"
    },
    {
      "constant": true,
      "inputs": [
        {
          "name": "_tokenId",
          "type": "uint256"
        }
      ],
      "name": "ownerOf",
      "outputs": [
        {
          "name": "",
          "type": "address"
        }
      ],
      "payable": false,
      "stateMutability": "view",
      "type": "function"
    },
    {
      "constant": true,
      "inputs": [
        {
          "name": "",
          "type": "address"
        }
      ],
      "name": "globalUseBlockTracker",
      "outputs": [
        {
          "name": "",
          "type": "uint256"
        }
      ],
      "payable": false,
      "stateMutability": "view",
      "type": "function"
    },
    {
      "constant": true,
      "inputs": [
        {
          "name": "_owner",
          "type": "address"
        }
      ],
      "name": "balanceOf",
      "outputs": [
        {
          "name": "",
          "type": "uint256"
        }
      ],
      "payable": false,
      "stateMutability": "view",
      "type": "function"
    },
    {
      "constant": false,
      "inputs": [],
      "name": "renounceOwnership",
      "outputs": [],
      "payable": false,
      "stateMutability": "nonpayable",
      "type": "function"
    },
    {
      "constant": true,
      "inputs": [],
      "name": "owner",
      "outputs": [
        {
          "name": "",
          "type": "address"
        }
      ],
      "payable": false,
      "stateMutability": "view",
      "type": "function"
    },
    {
      "constant": true,
      "inputs": [],
      "name": "symbol",
      "outputs": [
        {
          "name": "",
          "type": "string"
        }
      ],
      "payable": false,
      "stateMutability": "view",
      "type": "function"
    },
    {
      "constant": false,
      "inputs": [
        {
          "name": "_to",
          "type": "address"
        },
        {
          "name": "_approved",
          "type": "bool"
        }
      ],
      "name": "setApprovalForAll",
      "outputs": [],
      "payable": false,
      "stateMutability": "nonpayable",
      "type": "function"
    },
    {
      "constant": false,
      "inputs": [
        {
          "name": "_from",
          "type": "address"
        },
        {
          "name": "_to",
          "type": "address"
        },
        {
          "name": "_tokenId",
          "type": "uint256"
        },
        {
          "name": "_data",
          "type": "bytes"
        }
      ],
      "name": "safeTransferFrom",
      "outputs": [],
      "payable": false,
      "stateMutability": "nonpayable",
      "type": "function"
    },
    {
      "constant": true,
      "inputs": [],
      "name": "globalRepCount",
      "outputs": [
        {
          "name": "",
          "type": "uint256"
        }
      ],
      "payable": false,
      "stateMutability": "view",
      "type": "function"
    },
    {
      "constant": true,
      "inputs": [
        {
          "name": "_tokenId",
          "type": "uint256"
        }
      ],
      "name": "tokenURI",
      "outputs": [
        {
          "name": "",
          "type": "string"
        }
      ],
      "payable": false,
      "stateMutability": "view",
      "type": "function"
    },
    {
      "constant": true,
      "inputs": [
        {
          "name": "_owner",
          "type": "address"
        },
        {
          "name": "_operator",
          "type": "address"
        }
      ],
      "name": "isApprovedForAll",
      "outputs": [
        {
          "name": "",
          "type": "bool"
        }
      ],
      "payable": false,
      "stateMutability": "view",
      "type": "function"
    },
    {
      "constant": false,
      "inputs": [
        {
          "name": "_newOwner",
          "type": "address"
        }
      ],
      "name": "transferOwnership",
      "outputs": [],
      "payable": false,
      "stateMutability": "nonpayable",
      "type": "function"
    },
    {
      "anonymous": false,
      "inputs": [
        {
          "indexed": false,
          "name": "_newRep",
          "type": "address"
        }
      ],
      "name": "NewRep",
      "type": "event"
    },
    {
      "anonymous": false,
      "inputs": [
        {
          "indexed": true,
          "name": "_from",
          "type": "address"
        },
        {
          "indexed": true,
          "name": "_to",
          "type": "address"
        },
        {
          "indexed": true,
          "name": "_tokenId",
          "type": "uint256"
        }
      ],
      "name": "Transfer",
      "type": "event"
    },
    {
      "anonymous": false,
      "inputs": [
        {
          "indexed": true,
          "name": "_owner",
          "type": "address"
        },
        {
          "indexed": true,
          "name": "_approved",
          "type": "address"
        },
        {
          "indexed": true,
          "name": "_tokenId",
          "type": "uint256"
        }
      ],
      "name": "Approval",
      "type": "event"
    },
    {
      "anonymous": false,
      "inputs": [
        {
          "indexed": true,
          "name": "_owner",
          "type": "address"
        },
        {
          "indexed": true,
          "name": "_operator",
          "type": "address"
        },
        {
          "indexed": false,
          "name": "_approved",
          "type": "bool"
        }
      ],
      "name": "ApprovalForAll",
      "type": "event"
    },
    {
      "anonymous": false,
      "inputs": [
        {
          "indexed": true,
          "name": "previousOwner",
          "type": "address"
        }
      ],
      "name": "OwnershipRenounced",
      "type": "event"
    },
    {
      "anonymous": false,
      "inputs": [
        {
          "indexed": true,
          "name": "previousOwner",
          "type": "address"
        },
        {
          "indexed": true,
          "name": "newOwner",
          "type": "address"
        }
      ],
      "name": "OwnershipTransferred",
      "type": "event"
    },
    {
      "constant": false,
      "inputs": [
        {
          "name": "_ideaIPFS",
          "type": "string"
        },
        {
          "name": "_globalUseBlockAmount",
          "type": "uint256"
        },
        {
          "name": "_miningTime",
          "type": "uint256"
        },
        {
          "name": "_royalty",
          "type": "uint256"
        },
        {
          "name": "_inventorsAddress",
          "type": "address"
        },
        {
          "name": "_inventionAdd",
          "type": "address"
        }
      ],
      "name": "_generateIdeaBlock",
      "outputs": [],
      "payable": false,
      "stateMutability": "nonpayable",
      "type": "function"
    },
    {
      "constant": false,
      "inputs": [
        {
          "name": "_ideaId",
          "type": "uint256"
        },
        {
          "name": "_repAdd",
          "type": "address"
        },
        {
          "name": "_replicatorAdd",
          "type": "address"
        }
      ],
      "name": "_replicationBlock",
      "outputs": [],
      "payable": false,
      "stateMutability": "nonpayable",
      "type": "function"
    },
    {
      "constant": false,
      "inputs": [
        {
          "name": "_replicationOwner",
          "type": "address"
        }
      ],
      "name": "_generateGUSBlock",
      "outputs": [],
      "payable": false,
      "stateMutability": "nonpayable",
      "type": "function"
    },
    {
      "constant": true,
      "inputs": [
        {
          "name": "_ideaId",
          "type": "uint256"
        }
      ],
      "name": "getGlobalUseBlockAmount",
      "outputs": [
        {
          "name": "",
          "type": "uint256"
        }
      ],
      "payable": false,
      "stateMutability": "view",
      "type": "function"
    },
    {
      "constant": true,
      "inputs": [
        {
          "name": "_ideaId",
          "type": "uint256"
        }
      ],
      "name": "getInventor",
      "outputs": [
        {
          "name": "",
          "type": "address"
        }
      ],
      "payable": false,
      "stateMutability": "view",
      "type": "function"
    },
    {
      "constant": true,
      "inputs": [
        {
          "name": "_ideaId",
          "type": "uint256"
        }
      ],
      "name": "getIdeaMiningTime",
      "outputs": [
        {
          "name": "",
          "type": "uint256"
        }
      ],
      "payable": false,
      "stateMutability": "view",
      "type": "function"
    },
    {
      "constant": true,
      "inputs": [
        {
          "name": "_repAdd",
          "type": "address"
        }
      ],
      "name": "getBlockReward",
      "outputs": [
        {
          "name": "",
          "type": "uint256"
        }
      ],
      "payable": false,
      "stateMutability": "view",
      "type": "function"
    },
    {
      "constant": true,
      "inputs": [
        {
          "name": "_repAdd",
          "type": "address"
        }
      ],
      "name": "getOwnersAddress",
      "outputs": [
        {
          "name": "",
          "type": "address"
        }
      ],
      "payable": false,
      "stateMutability": "view",
      "type": "function"
    },
    {
      "constant": true,
      "inputs": [
        {
          "name": "_repAdd",
          "type": "address"
        }
      ],
      "name": "getIdeaID",
      "outputs": [
        {
          "name": "",
          "type": "uint256"
        }
      ],
      "payable": false,
      "stateMutability": "view",
      "type": "function"
    },
    {
      "constant": true,
      "inputs": [
        {
          "name": "_repAdd",
          "type": "address"
        }
      ],
      "name": "getInventorsAddress",
      "outputs": [
        {
          "name": "",
          "type": "address"
        }
      ],
      "payable": false,
      "stateMutability": "view",
      "type": "function"
    },
    {
      "constant": true,
      "inputs": [
        {
          "name": "_ideaId",
          "type": "uint256"
        }
      ],
      "name": "getInvention",
      "outputs": [
        {
          "name": "",
          "type": "address"
        }
      ],
      "payable": false,
      "stateMutability": "view",
      "type": "function"
    },
    {
      "constant": true,
      "inputs": [
        {
          "name": "_repAdd",
          "type": "address"
        }
      ],
      "name": "getReplicationAddress",
      "outputs": [
        {
          "name": "",
          "type": "address"
        }
      ],
      "payable": false,
      "stateMutability": "view",
      "type": "function"
    },
    {
      "constant": true,
      "inputs": [
        {
          "name": "_ideaId",
          "type": "uint256"
        }
      ],
      "name": "getRoyalty",
      "outputs": [
        {
          "name": "",
          "type": "uint256"
        }
      ],
      "payable": false,
      "stateMutability": "view",
      "type": "function"
    },
    {
      "constant": true,
      "inputs": [
        {
          "name": "_repAdd",
          "type": "address"
        }
      ],
      "name": "getRoyalty",
      "outputs": [
        {
          "name": "",
          "type": "uint256"
        }
      ],
      "payable": false,
      "stateMutability": "view",
      "type": "function"
    },
    {
      "constant": true,
      "inputs": [
        {
          "name": "_repAdd",
          "type": "address"
        }
      ],
      "name": "getRepID",
      "outputs": [
        {
          "name": "",
          "type": "uint256"
        }
      ],
      "payable": false,
      "stateMutability": "view",
      "type": "function"
    },
    {
      "constant": true,
      "inputs": [
        {
          "name": "_add",
          "type": "address"
        }
      ],
      "name": "checkIfRep",
      "outputs": [
        {
          "name": "",
          "type": "bool"
        }
      ],
      "payable": false,
      "stateMutability": "view",
      "type": "function"
    },
    {
      "constant": true,
      "inputs": [
        {
          "name": "_add",
          "type": "address"
        },
        {
          "name": "_ideaId",
          "type": "uint256"
        }
      ],
      "name": "getNumOfReps",
      "outputs": [
        {
          "name": "",
          "type": "uint256"
        }
      ],
      "payable": false,
      "stateMutability": "view",
      "type": "function"
    },
    {
      "constant": true,
      "inputs": [
        {
          "name": "_ideaId",
          "type": "uint256"
        }
      ],
      "name": "getRepTotal",
      "outputs": [
        {
          "name": "",
          "type": "uint256"
        }
      ],
      "payable": false,
      "stateMutability": "view",
      "type": "function"
    },
    {
      "constant": true,
      "inputs": [
        {
          "name": "_ideaAdd",
          "type": "address"
        }
      ],
      "name": "getID",
      "outputs": [
        {
          "name": "",
          "type": "uint256"
        }
      ],
      "payable": false,
      "stateMutability": "view",
      "type": "function"
    }
  ],
  "bytecode": "0x60806040526000600d556064600e556000600f55600060105560006011556040805190810160405280601181526020017f43727970746f506174656e74426c6f636b0000000000000000000000000000008152506040805190810160405280600381526020017f4350420000000000000000000000000000000000000000000000000000000000815250336000806101000a81548173ffffffffffffffffffffffffffffffffffffffff021916908373ffffffffffffffffffffffffffffffffffffffff160217905550620001066301ffc9a77c01000000000000000000000000000000000000000000000000000000000262000234640100000000026401000000009004565b620001436380ac58cd7c01000000000000000000000000000000000000000000000000000000000262000234640100000000026401000000009004565b62000180634f558e797c01000000000000000000000000000000000000000000000000000000000262000234640100000000026401000000009004565b816006908051906020019062000198929190620002f2565b508060079080519060200190620001b1929190620002f2565b50620001ef63780e9d637c01000000000000000000000000000000000000000000000000000000000262000234640100000000026401000000009004565b6200022c635b5e139f7c01000000000000000000000000000000000000000000000000000000000262000234640100000000026401000000009004565b5050620003a1565b63ffffffff7c010000000000000000000000000000000000000000000000000000000002817bffffffffffffffffffffffffffffffffffffffffffffffffffffffff1916141515156200028657600080fd5b6001806000837bffffffffffffffffffffffffffffffffffffffffffffffffffffffff19167bffffffffffffffffffffffffffffffffffffffffffffffffffffffff1916815260200190815260200160002060006101000a81548160ff02191690831515021790555050565b828054600181600116156101000203166002900490600052602060002090601f016020900481019282601f106200033557805160ff191683800117855562000366565b8280016001018555821562000366579182015b828111156200036557825182559160200191906001019062000348565b5b50905062000375919062000379565b5090565b6200039e91905b808211156200039a57600081600090555060010162000380565b5090565b90565b61450980620003b16000396000f30060806040526004361061023b576000357c0100000000000000000000000000000000000000000000000000000000900463ffffffff16806301ffc9a71461024057806306fdde03146102a4578063081812fc1461033457806308f60344146103a1578063095ea7b3146103e25780631447e8661461042f57806318160ddd1461048657806319fa8f50146104b15780631af1be0c1461051a5780631af9cf491461058757806323b872dd146105c85780632f745c591461063557806330255eb514610696578063314570df146106f75780633a30d8e0146107225780634172da27146107a55780634242779f146107d057806342842e0e146108855780634cfa2409146108f25780634f558e791461091d5780634f6ccce71461096257806351ec62aa146109a35780636352211e146109ce57806368a2ce8814610a3b57806370a0823114610a92578063715018a614610ae957806388556ddc14610b005780638da5cb5b14610b575780638eb5b91314610bae57806395d89b4114610c09578063979571c514610c9957806399f826a514610d06578063a22cb46514610d5d578063b88d4fde14610dac578063bb78845714610e5f578063be6cbbcf14610ee2578063c87b56dd14610f0d578063d4f69b6814610fb3578063d55b09f314610ff4578063d5e5c56114611061578063d99e98fb146110b8578063dbe10d51146110fb578063dd11678d1461117e578063e8385add14611217578063e985e9c514611258578063eb61e371146112d3578063f2fde38b1461132a575b600080fd5b34801561024c57600080fd5b5061028a60048036038101908080357bffffffffffffffffffffffffffffffffffffffffffffffffffffffff1916906020019092919050505061136d565b604051808215151515815260200191505060405180910390f35b3480156102b057600080fd5b506102b96113d5565b6040518080602001828103825283818151815260200191508051906020019080838360005b838110156102f95780820151818401526020810190506102de565b50505050905090810190601f1680156103265780820380516001836020036101000a031916815260200191505b509250505060405180910390f35b34801561034057600080fd5b5061035f60048036038101908080359060200190929190505050611477565b604051808273ffffffffffffffffffffffffffffffffffffffff1673ffffffffffffffffffffffffffffffffffffffff16815260200191505060405180910390f35b3480156103ad57600080fd5b506103cc600480360381019080803590602001909291905050506114b4565b6040518082815260200191505060405180910390f35b3480156103ee57600080fd5b5061042d600480360381019080803573ffffffffffffffffffffffffffffffffffffffff169060200190929190803590602001909291905050506114d1565b005b34801561043b57600080fd5b50610470600480360381019080803573ffffffffffffffffffffffffffffffffffffffff169060200190929190505050611616565b6040518082815260200191505060405180910390f35b34801561049257600080fd5b5061049b6117aa565b6040518082815260200191505060405180910390f35b3480156104bd57600080fd5b506104c66117b7565b60405180827bffffffffffffffffffffffffffffffffffffffffffffffffffffffff19167bffffffffffffffffffffffffffffffffffffffffffffffffffffffff1916815260200191505060405180910390f35b34801561052657600080fd5b50610545600480360381019080803590602001909291905050506117de565b604051808273ffffffffffffffffffffffffffffffffffffffff1673ffffffffffffffffffffffffffffffffffffffff16815260200191505060405180910390f35b34801561059357600080fd5b506105b2600480360381019080803590602001909291905050506118e6565b6040518082815260200191505060405180910390f35b3480156105d457600080fd5b50610633600480360381019080803573ffffffffffffffffffffffffffffffffffffffff169060200190929190803573ffffffffffffffffffffffffffffffffffffffff169060200190929190803590602001909291905050506119ee565b005b34801561064157600080fd5b50610680600480360381019080803573ffffffffffffffffffffffffffffffffffffffff16906020019092919080359060200190929190505050611af9565b6040518082815260200191505060405180910390f35b3480156106a257600080fd5b506106e1600480360381019080803573ffffffffffffffffffffffffffffffffffffffff16906020019092919080359060200190929190505050611b70565b6040518082815260200191505060405180910390f35b34801561070357600080fd5b5061070c611bcb565b6040518082815260200191505060405180910390f35b34801561072e57600080fd5b50610763600480360381019080803573ffffffffffffffffffffffffffffffffffffffff169060200190929190505050611bd1565b604051808273ffffffffffffffffffffffffffffffffffffffff1673ffffffffffffffffffffffffffffffffffffffff16815260200191505060405180910390f35b3480156107b157600080fd5b506107ba611d65565b6040518082815260200191505060405180910390f35b3480156107dc57600080fd5b506107fb60048036038101908080359060200190929190505050611d6b565b604051808681526020018581526020018481526020018373ffffffffffffffffffffffffffffffffffffffff1673ffffffffffffffffffffffffffffffffffffffff1681526020018273ffffffffffffffffffffffffffffffffffffffff1673ffffffffffffffffffffffffffffffffffffffff1681526020019550505050505060405180910390f35b34801561089157600080fd5b506108f0600480360381019080803573ffffffffffffffffffffffffffffffffffffffff169060200190929190803573ffffffffffffffffffffffffffffffffffffffff16906020019092919080359060200190929190505050611de1565b005b3480156108fe57600080fd5b50610907611e02565b6040518082815260200191505060405180910390f35b34801561092957600080fd5b5061094860048036038101908080359060200190929190505050611e08565b604051808215151515815260200191505060405180910390f35b34801561096e57600080fd5b5061098d60048036038101908080359060200190929190505050611e7a565b6040518082815260200191505060405180910390f35b3480156109af57600080fd5b506109b8611eb2565b6040518082815260200191505060405180910390f35b3480156109da57600080fd5b506109f960048036038101908080359060200190929190505050611eb8565b604051808273ffffffffffffffffffffffffffffffffffffffff1673ffffffffffffffffffffffffffffffffffffffff16815260200191505060405180910390f35b348015610a4757600080fd5b50610a7c600480360381019080803573ffffffffffffffffffffffffffffffffffffffff169060200190929190505050611f36565b6040518082815260200191505060405180910390f35b348015610a9e57600080fd5b50610ad3600480360381019080803573ffffffffffffffffffffffffffffffffffffffff169060200190929190505050611f4e565b6040518082815260200191505060405180910390f35b348015610af557600080fd5b50610afe611fd2565b005b348015610b0c57600080fd5b50610b41600480360381019080803573ffffffffffffffffffffffffffffffffffffffff1690602001909291905050506120d4565b6040518082815260200191505060405180910390f35b348015610b6357600080fd5b50610b6c612268565b604051808273ffffffffffffffffffffffffffffffffffffffff1673ffffffffffffffffffffffffffffffffffffffff16815260200191505060405180910390f35b348015610bba57600080fd5b50610bef600480360381019080803573ffffffffffffffffffffffffffffffffffffffff16906020019092919050505061228d565b604051808215151515815260200191505060405180910390f35b348015610c1557600080fd5b50610c1e6122e3565b6040518080602001828103825283818151815260200191508051906020019080838360005b83811015610c5e578082015181840152602081019050610c43565b50505050905090810190601f168015610c8b5780820380516001836020036101000a031916815260200191505b509250505060405180910390f35b348015610ca557600080fd5b50610d0460048036038101908080359060200190929190803573ffffffffffffffffffffffffffffffffffffffff169060200190929190803573ffffffffffffffffffffffffffffffffffffffff169060200190929190505050612385565b005b348015610d1257600080fd5b50610d47600480360381019080803573ffffffffffffffffffffffffffffffffffffffff169060200190929190505050612789565b6040518082815260200191505060405180910390f35b348015610d6957600080fd5b50610daa600480360381019080803573ffffffffffffffffffffffffffffffffffffffff1690602001909291908035151590602001909291905050506127d2565b005b348015610db857600080fd5b50610e5d600480360381019080803573ffffffffffffffffffffffffffffffffffffffff169060200190929190803573ffffffffffffffffffffffffffffffffffffffff16906020019092919080359060200190929190803590602001908201803590602001908080601f016020809104026020016040519081016040528093929190818152602001838380828437820191505050505050919291929050505061290e565b005b348015610e6b57600080fd5b50610ea0600480360381019080803573ffffffffffffffffffffffffffffffffffffffff169060200190929190505050612936565b604051808273ffffffffffffffffffffffffffffffffffffffff1673ffffffffffffffffffffffffffffffffffffffff16815260200191505060405180910390f35b348015610eee57600080fd5b50610ef7612aca565b6040518082815260200191505060405180910390f35b348015610f1957600080fd5b50610f3860048036038101908080359060200190929190505050612ad0565b6040518080602001828103825283818151815260200191508051906020019080838360005b83811015610f78578082015181840152602081019050610f5d565b50505050905090810190601f168015610fa55780820380516001836020036101000a031916815260200191505b509250505060405180910390f35b348015610fbf57600080fd5b50610fde60048036038101908080359060200190929190505050612b99565b6040518082815260200191505060405180910390f35b34801561100057600080fd5b5061101f60048036038101908080359060200190929190505050612ca1565b604051808273ffffffffffffffffffffffffffffffffffffffff1673ffffffffffffffffffffffffffffffffffffffff16815260200191505060405180910390f35b34801561106d57600080fd5b506110a2600480360381019080803573ffffffffffffffffffffffffffffffffffffffff169060200190929190505050612da9565b6040518082815260200191505060405180910390f35b3480156110c457600080fd5b506110f9600480360381019080803573ffffffffffffffffffffffffffffffffffffffff169060200190929190505050612f3d565b005b34801561110757600080fd5b5061113c600480360381019080803573ffffffffffffffffffffffffffffffffffffffff169060200190929190505050612fcb565b604051808273ffffffffffffffffffffffffffffffffffffffff1673ffffffffffffffffffffffffffffffffffffffff16815260200191505060405180910390f35b34801561118a57600080fd5b50611215600480360381019080803590602001908201803590602001919091929391929390803590602001909291908035906020019092919080359060200190929190803573ffffffffffffffffffffffffffffffffffffffff169060200190929190803573ffffffffffffffffffffffffffffffffffffffff16906020019092919050505061315f565b005b34801561122357600080fd5b50611242600480360381019080803590602001909291905050506132e0565b6040518082815260200191505060405180910390f35b34801561126457600080fd5b506112b9600480360381019080803573ffffffffffffffffffffffffffffffffffffffff169060200190929190803573ffffffffffffffffffffffffffffffffffffffff1690602001909291905050506133e8565b604051808215151515815260200191505060405180910390f35b3480156112df57600080fd5b50611314600480360381019080803573ffffffffffffffffffffffffffffffffffffffff16906020019092919050505061347c565b6040518082815260200191505060405180910390f35b34801561133657600080fd5b5061136b600480360381019080803573ffffffffffffffffffffffffffffffffffffffff169060200190929190505050613610565b005b600060016000837bffffffffffffffffffffffffffffffffffffffffffffffffffffffff19167bffffffffffffffffffffffffffffffffffffffffffffffffffffffff1916815260200190815260200160002060009054906101000a900460ff169050919050565b606060068054600181600116156101000203166002900480601f01602080910402602001604051908101604052809291908181526020018280546001816001161561010002031660029004801561146d5780601f106114425761010080835404028352916020019161146d565b820191906000526020600020905b81548152906001019060200180831161145057829003601f168201915b5050505050905090565b60006003600083815260200190815260200160002060009054906101000a900473ffffffffffffffffffffffffffffffffffffffff169050919050565b600060166000838152602001908152602001600020549050919050565b60006114dc82611eb8565b90508073ffffffffffffffffffffffffffffffffffffffff168373ffffffffffffffffffffffffffffffffffffffff161415151561151957600080fd5b8073ffffffffffffffffffffffffffffffffffffffff163373ffffffffffffffffffffffffffffffffffffffff161480611559575061155881336133e8565b5b151561156457600080fd5b826003600084815260200190815260200160002060006101000a81548173ffffffffffffffffffffffffffffffffffffffff021916908373ffffffffffffffffffffffffffffffffffffffff160217905550818373ffffffffffffffffffffffffffffffffffffffff168273ffffffffffffffffffffffffffffffffffffffff167f8c5be1e5ebec7d5bd14f71427d1e84f3dd0314c0f7b2291e5b200ac8c7c3b92560405160405180910390a4505050565b6000611620614330565b6000601460008573ffffffffffffffffffffffffffffffffffffffff1673ffffffffffffffffffffffffffffffffffffffff16815260200190815260200160002060e06040519081016040529081600082015481526020016001820160009054906101000a900473ffffffffffffffffffffffffffffffffffffffff1673ffffffffffffffffffffffffffffffffffffffff1673ffffffffffffffffffffffffffffffffffffffff1681526020016002820154815260200160038201548152602001600482015481526020016005820160009054906101000a900473ffffffffffffffffffffffffffffffffffffffff1673ffffffffffffffffffffffffffffffffffffffff1673ffffffffffffffffffffffffffffffffffffffff1681526020016006820160009054906101000a900473ffffffffffffffffffffffffffffffffffffffff1673ffffffffffffffffffffffffffffffffffffffff1673ffffffffffffffffffffffffffffffffffffffff16815250509150816000015190508092505050919050565b6000600a80549050905090565b6301ffc9a77c01000000000000000000000000000000000000000000000000000000000281565b60006117e86143b0565b60006012600085815260200190815260200160002060a060405190810160405290816000820154815260200160018201548152602001600282015481526020016003820160009054906101000a900473ffffffffffffffffffffffffffffffffffffffff1673ffffffffffffffffffffffffffffffffffffffff1673ffffffffffffffffffffffffffffffffffffffff1681526020016004820160009054906101000a900473ffffffffffffffffffffffffffffffffffffffff1673ffffffffffffffffffffffffffffffffffffffff1673ffffffffffffffffffffffffffffffffffffffff16815250509150816080015190508092505050919050565b60006118f06143b0565b60006012600085815260200190815260200160002060a060405190810160405290816000820154815260200160018201548152602001600282015481526020016003820160009054906101000a900473ffffffffffffffffffffffffffffffffffffffff1673ffffffffffffffffffffffffffffffffffffffff1673ffffffffffffffffffffffffffffffffffffffff1681526020016004820160009054906101000a900473ffffffffffffffffffffffffffffffffffffffff1673ffffffffffffffffffffffffffffffffffffffff1673ffffffffffffffffffffffffffffffffffffffff16815250509150816020015190508092505050919050565b6119f83382613677565b1515611a0357600080fd5b600073ffffffffffffffffffffffffffffffffffffffff168373ffffffffffffffffffffffffffffffffffffffff1614151515611a3f57600080fd5b600073ffffffffffffffffffffffffffffffffffffffff168273ffffffffffffffffffffffffffffffffffffffff1614151515611a7b57600080fd5b611a85838261370c565b611a8f838261380f565b611a9982826139cb565b808273ffffffffffffffffffffffffffffffffffffffff168473ffffffffffffffffffffffffffffffffffffffff167fddf252ad1be2c89b69c2b068fc378daa952ba7f163c4a11628f55a4df523b3ef60405160405180910390a4505050565b6000611b0483611f4e565b82101515611b1157600080fd5b600860008473ffffffffffffffffffffffffffffffffffffffff1673ffffffffffffffffffffffffffffffffffffffff16815260200190815260200160002082815481101515611b5d57fe5b9060005260206000200154905092915050565b6000601560008473ffffffffffffffffffffffffffffffffffffffff1673ffffffffffffffffffffffffffffffffffffffff168152602001908152602001600020600083815260200190815260200160002054905092915050565b60105481565b6000611bdb614330565b6000601460008573ffffffffffffffffffffffffffffffffffffffff1673ffffffffffffffffffffffffffffffffffffffff16815260200190815260200160002060e06040519081016040529081600082015481526020016001820160009054906101000a900473ffffffffffffffffffffffffffffffffffffffff1673ffffffffffffffffffffffffffffffffffffffff1673ffffffffffffffffffffffffffffffffffffffff1681526020016002820154815260200160038201548152602001600482015481526020016005820160009054906101000a900473ffffffffffffffffffffffffffffffffffffffff1673ffffffffffffffffffffffffffffffffffffffff1673ffffffffffffffffffffffffffffffffffffffff1681526020016006820160009054906101000a900473ffffffffffffffffffffffffffffffffffffffff1673ffffffffffffffffffffffffffffffffffffffff1673ffffffffffffffffffffffffffffffffffffffff168152505091508160c0015190508092505050919050565b600e5481565b60126020528060005260406000206000915090508060000154908060010154908060020154908060030160009054906101000a900473ffffffffffffffffffffffffffffffffffffffff16908060040160009054906101000a900473ffffffffffffffffffffffffffffffffffffffff16905085565b611dfd838383602060405190810160405280600081525061290e565b505050565b600d5481565b6000806002600084815260200190815260200160002060009054906101000a900473ffffffffffffffffffffffffffffffffffffffff169050600073ffffffffffffffffffffffffffffffffffffffff168173ffffffffffffffffffffffffffffffffffffffff161415915050919050565b6000611e846117aa565b82101515611e9157600080fd5b600a82815481101515611ea057fe5b90600052602060002001549050919050565b60115481565b6000806002600084815260200190815260200160002060009054906101000a900473ffffffffffffffffffffffffffffffffffffffff169050600073ffffffffffffffffffffffffffffffffffffffff168173ffffffffffffffffffffffffffffffffffffffff1614151515611f2d57600080fd5b80915050919050565b60176020528060005260406000206000915090505481565b60008073ffffffffffffffffffffffffffffffffffffffff168273ffffffffffffffffffffffffffffffffffffffff1614151515611f8b57600080fd5b600460008373ffffffffffffffffffffffffffffffffffffffff1673ffffffffffffffffffffffffffffffffffffffff168152602001908152602001600020549050919050565b6000809054906101000a900473ffffffffffffffffffffffffffffffffffffffff1673ffffffffffffffffffffffffffffffffffffffff163373ffffffffffffffffffffffffffffffffffffffff1614151561202d57600080fd5b6000809054906101000a900473ffffffffffffffffffffffffffffffffffffffff1673ffffffffffffffffffffffffffffffffffffffff167ff8df31144d9c2f0f6b59d69b8b98abd5459d07f2742c4df920b25aae33c6482060405160405180910390a260008060006101000a81548173ffffffffffffffffffffffffffffffffffffffff021916908373ffffffffffffffffffffffffffffffffffffffff160217905550565b60006120de614330565b6000601460008573ffffffffffffffffffffffffffffffffffffffff1673ffffffffffffffffffffffffffffffffffffffff16815260200190815260200160002060e06040519081016040529081600082015481526020016001820160009054906101000a900473ffffffffffffffffffffffffffffffffffffffff1673ffffffffffffffffffffffffffffffffffffffff1673ffffffffffffffffffffffffffffffffffffffff1681526020016002820154815260200160038201548152602001600482015481526020016005820160009054906101000a900473ffffffffffffffffffffffffffffffffffffffff1673ffffffffffffffffffffffffffffffffffffffff1673ffffffffffffffffffffffffffffffffffffffff1681526020016006820160009054906101000a900473ffffffffffffffffffffffffffffffffffffffff1673ffffffffffffffffffffffffffffffffffffffff1673ffffffffffffffffffffffffffffffffffffffff16815250509150816040015190508092505050919050565b6000809054906101000a900473ffffffffffffffffffffffffffffffffffffffff1681565b6000601360008373ffffffffffffffffffffffffffffffffffffffff1673ffffffffffffffffffffffffffffffffffffffff16815260200190815260200160002060009054906101000a900460ff169050919050565b606060078054600181600116156101000203166002900480601f01602080910402602001604051908101604052809291908181526020018280546001816001161561010002031660029004801561237b5780601f106123505761010080835404028352916020019161237b565b820191906000526020600020905b81548152906001019060200180831161235e57829003601f168201915b5050505050905090565b6000806000806000612395614330565b6000806000809054906101000a900473ffffffffffffffffffffffffffffffffffffffff1673ffffffffffffffffffffffffffffffffffffffff163373ffffffffffffffffffffffffffffffffffffffff161415156123f357600080fd5b6123fc8b612b99565b97506124078b6118e6565b965086880395506124178b612ca1565b945061242289613aa2565b600f54935060e0604051908101604052808781526020018a73ffffffffffffffffffffffffffffffffffffffff1681526020018c81526020018881526020018581526020018673ffffffffffffffffffffffffffffffffffffffff1681526020018b73ffffffffffffffffffffffffffffffffffffffff16815250925082601460008c73ffffffffffffffffffffffffffffffffffffffff1673ffffffffffffffffffffffffffffffffffffffff1681526020019081526020016000206000820151816000015560208201518160010160006101000a81548173ffffffffffffffffffffffffffffffffffffffff021916908373ffffffffffffffffffffffffffffffffffffffff16021790555060408201518160020155606082015181600301556080820151816004015560a08201518160050160006101000a81548173ffffffffffffffffffffffffffffffffffffffff021916908373ffffffffffffffffffffffffffffffffffffffff16021790555060c08201518160060160006101000a81548173ffffffffffffffffffffffffffffffffffffffff021916908373ffffffffffffffffffffffffffffffffffffffff160217905550905050601660008c815260200190815260200160002054915081806001019250601660008d8152602001908152602001600020819055506001601360008c73ffffffffffffffffffffffffffffffffffffffff1673ffffffffffffffffffffffffffffffffffffffff16815260200190815260200160002060006101000a81548160ff021916908315150217905550601560008a73ffffffffffffffffffffffffffffffffffffffff1673ffffffffffffffffffffffffffffffffffffffff16815260200190815260200160002060008c815260200190815260200160002054905080806001019150601560008b73ffffffffffffffffffffffffffffffffffffffff1673ffffffffffffffffffffffffffffffffffffffff16815260200190815260200160002060008d8152602001908152602001600020819055507fd565a933e7f01f6ac098665a3af731f707c9a716393cb995f3791072099649d289604051808273ffffffffffffffffffffffffffffffffffffffff1673ffffffffffffffffffffffffffffffffffffffff16815260200191505060405180910390a15050505050505050505050565b6000601860008373ffffffffffffffffffffffffffffffffffffffff1673ffffffffffffffffffffffffffffffffffffffff168152602001908152602001600020549050919050565b3373ffffffffffffffffffffffffffffffffffffffff168273ffffffffffffffffffffffffffffffffffffffff161415151561280d57600080fd5b80600560003373ffffffffffffffffffffffffffffffffffffffff1673ffffffffffffffffffffffffffffffffffffffff16815260200190815260200160002060008473ffffffffffffffffffffffffffffffffffffffff1673ffffffffffffffffffffffffffffffffffffffff16815260200190815260200160002060006101000a81548160ff0219169083151502179055508173ffffffffffffffffffffffffffffffffffffffff163373ffffffffffffffffffffffffffffffffffffffff167f17307eab39ab6107e8899845ad3d59bd9653f200f220920489ca2b5937696c3183604051808215151515815260200191505060405180910390a35050565b6129198484846119ee565b61292584848484613ad5565b151561293057600080fd5b50505050565b6000612940614330565b6000601460008573ffffffffffffffffffffffffffffffffffffffff1673ffffffffffffffffffffffffffffffffffffffff16815260200190815260200160002060e06040519081016040529081600082015481526020016001820160009054906101000a900473ffffffffffffffffffffffffffffffffffffffff1673ffffffffffffffffffffffffffffffffffffffff1673ffffffffffffffffffffffffffffffffffffffff1681526020016002820154815260200160038201548152602001600482015481526020016005820160009054906101000a900473ffffffffffffffffffffffffffffffffffffffff1673ffffffffffffffffffffffffffffffffffffffff1673ffffffffffffffffffffffffffffffffffffffff1681526020016006820160009054906101000a900473ffffffffffffffffffffffffffffffffffffffff1673ffffffffffffffffffffffffffffffffffffffff1673ffffffffffffffffffffffffffffffffffffffff168152505091508160a0015190508092505050919050565b600f5481565b6060612adb82611e08565b1515612ae657600080fd5b600c60008381526020019081526020016000208054600181600116156101000203166002900480601f016020809104026020016040519081016040528092919081815260200182805460018160011615610100020316600290048015612b8d5780601f10612b6257610100808354040283529160200191612b8d565b820191906000526020600020905b815481529060010190602001808311612b7057829003601f168201915b50505050509050919050565b6000612ba36143b0565b60006012600085815260200190815260200160002060a060405190810160405290816000820154815260200160018201548152602001600282015481526020016003820160009054906101000a900473ffffffffffffffffffffffffffffffffffffffff1673ffffffffffffffffffffffffffffffffffffffff1673ffffffffffffffffffffffffffffffffffffffff1681526020016004820160009054906101000a900473ffffffffffffffffffffffffffffffffffffffff1673ffffffffffffffffffffffffffffffffffffffff1673ffffffffffffffffffffffffffffffffffffffff16815250509150816000015190508092505050919050565b6000612cab6143b0565b60006012600085815260200190815260200160002060a060405190810160405290816000820154815260200160018201548152602001600282015481526020016003820160009054906101000a900473ffffffffffffffffffffffffffffffffffffffff1673ffffffffffffffffffffffffffffffffffffffff1673ffffffffffffffffffffffffffffffffffffffff1681526020016004820160009054906101000a900473ffffffffffffffffffffffffffffffffffffffff1673ffffffffffffffffffffffffffffffffffffffff1673ffffffffffffffffffffffffffffffffffffffff16815250509150816060015190508092505050919050565b6000612db3614330565b6000601460008573ffffffffffffffffffffffffffffffffffffffff1673ffffffffffffffffffffffffffffffffffffffff16815260200190815260200160002060e06040519081016040529081600082015481526020016001820160009054906101000a900473ffffffffffffffffffffffffffffffffffffffff1673ffffffffffffffffffffffffffffffffffffffff1673ffffffffffffffffffffffffffffffffffffffff1681526020016002820154815260200160038201548152602001600482015481526020016005820160009054906101000a900473ffffffffffffffffffffffffffffffffffffffff1673ffffffffffffffffffffffffffffffffffffffff1673ffffffffffffffffffffffffffffffffffffffff1681526020016006820160009054906101000a900473ffffffffffffffffffffffffffffffffffffffff1673ffffffffffffffffffffffffffffffffffffffff1673ffffffffffffffffffffffffffffffffffffffff16815250509150816080015190508092505050919050565b6000809054906101000a900473ffffffffffffffffffffffffffffffffffffffff1673ffffffffffffffffffffffffffffffffffffffff163373ffffffffffffffffffffffffffffffffffffffff16141515612f9857600080fd5b601060008154809291906001019190505550601160008154809291906001019190505550612fc881601154613cf7565b50565b6000612fd5614330565b6000601460008573ffffffffffffffffffffffffffffffffffffffff1673ffffffffffffffffffffffffffffffffffffffff16815260200190815260200160002060e06040519081016040529081600082015481526020016001820160009054906101000a900473ffffffffffffffffffffffffffffffffffffffff1673ffffffffffffffffffffffffffffffffffffffff1673ffffffffffffffffffffffffffffffffffffffff1681526020016002820154815260200160038201548152602001600482015481526020016005820160009054906101000a900473ffffffffffffffffffffffffffffffffffffffff1673ffffffffffffffffffffffffffffffffffffffff1673ffffffffffffffffffffffffffffffffffffffff1681526020016006820160009054906101000a900473ffffffffffffffffffffffffffffffffffffffff1673ffffffffffffffffffffffffffffffffffffffff1673ffffffffffffffffffffffffffffffffffffffff16815250509150816020015190508092505050919050565b60008060009054906101000a900473ffffffffffffffffffffffffffffffffffffffff1673ffffffffffffffffffffffffffffffffffffffff163373ffffffffffffffffffffffffffffffffffffffff161415156131bc57600080fd5b600d60008154809291906001019190505550600d5490506011600081548092919060010191905055506131f183601154613cf7565b80601860008473ffffffffffffffffffffffffffffffffffffffff1673ffffffffffffffffffffffffffffffffffffffff168152602001908152602001600020819055506132718189898080601f016020809104026020016040519081016040528093929190818152602001838380828437820191505050505050613d4e565b6001601360008473ffffffffffffffffffffffffffffffffffffffff1673ffffffffffffffffffffffffffffffffffffffff16815260200190815260200160002060006101000a81548160ff0219169083151502179055506132d68685878686613d8e565b5050505050505050565b60006132ea6143b0565b60006012600085815260200190815260200160002060a060405190810160405290816000820154815260200160018201548152602001600282015481526020016003820160009054906101000a900473ffffffffffffffffffffffffffffffffffffffff1673ffffffffffffffffffffffffffffffffffffffff1673ffffffffffffffffffffffffffffffffffffffff1681526020016004820160009054906101000a900473ffffffffffffffffffffffffffffffffffffffff1673ffffffffffffffffffffffffffffffffffffffff1673ffffffffffffffffffffffffffffffffffffffff16815250509150816040015190508092505050919050565b6000600560008473ffffffffffffffffffffffffffffffffffffffff1673ffffffffffffffffffffffffffffffffffffffff16815260200190815260200160002060008373ffffffffffffffffffffffffffffffffffffffff1673ffffffffffffffffffffffffffffffffffffffff16815260200190815260200160002060009054906101000a900460ff16905092915050565b6000613486614330565b6000601460008573ffffffffffffffffffffffffffffffffffffffff1673ffffffffffffffffffffffffffffffffffffffff16815260200190815260200160002060e06040519081016040529081600082015481526020016001820160009054906101000a900473ffffffffffffffffffffffffffffffffffffffff1673ffffffffffffffffffffffffffffffffffffffff1673ffffffffffffffffffffffffffffffffffffffff1681526020016002820154815260200160038201548152602001600482015481526020016005820160009054906101000a900473ffffffffffffffffffffffffffffffffffffffff1673ffffffffffffffffffffffffffffffffffffffff1673ffffffffffffffffffffffffffffffffffffffff1681526020016006820160009054906101000a900473ffffffffffffffffffffffffffffffffffffffff1673ffffffffffffffffffffffffffffffffffffffff1673ffffffffffffffffffffffffffffffffffffffff16815250509150816060015190508092505050919050565b6000809054906101000a900473ffffffffffffffffffffffffffffffffffffffff1673ffffffffffffffffffffffffffffffffffffffff163373ffffffffffffffffffffffffffffffffffffffff1614151561366b57600080fd5b61367481613ebf565b50565b60008061368383611eb8565b90508073ffffffffffffffffffffffffffffffffffffffff168473ffffffffffffffffffffffffffffffffffffffff1614806136f257508373ffffffffffffffffffffffffffffffffffffffff166136da84611477565b73ffffffffffffffffffffffffffffffffffffffff16145b80613703575061370281856133e8565b5b91505092915050565b8173ffffffffffffffffffffffffffffffffffffffff1661372c82611eb8565b73ffffffffffffffffffffffffffffffffffffffff1614151561374e57600080fd5b600073ffffffffffffffffffffffffffffffffffffffff166003600083815260200190815260200160002060009054906101000a900473ffffffffffffffffffffffffffffffffffffffff1673ffffffffffffffffffffffffffffffffffffffff1614151561380b5760006003600083815260200190815260200160002060006101000a81548173ffffffffffffffffffffffffffffffffffffffff021916908373ffffffffffffffffffffffffffffffffffffffff1602179055505b5050565b600080600061381e8585613fb9565b6009600085815260200190815260200160002054925061388a6001600860008873ffffffffffffffffffffffffffffffffffffffff1673ffffffffffffffffffffffffffffffffffffffff168152602001908152602001600020805490506140e890919063ffffffff16565b9150600860008673ffffffffffffffffffffffffffffffffffffffff1673ffffffffffffffffffffffffffffffffffffffff168152602001908152602001600020828154811015156138d857fe5b9060005260206000200154905080600860008773ffffffffffffffffffffffffffffffffffffffff1673ffffffffffffffffffffffffffffffffffffffff1681526020019081526020016000208481548110151561393257fe5b9060005260206000200181905550600860008673ffffffffffffffffffffffffffffffffffffffff1673ffffffffffffffffffffffffffffffffffffffff168152602001908152602001600020805480919060019003613992919061440c565b50600060096000868152602001908152602001600020819055508260096000838152602001908152602001600020819055505050505050565b60006139d78383614101565b600860008473ffffffffffffffffffffffffffffffffffffffff1673ffffffffffffffffffffffffffffffffffffffff168152602001908152602001600020805490509050600860008473ffffffffffffffffffffffffffffffffffffffff1673ffffffffffffffffffffffffffffffffffffffff168152602001908152602001600020829080600181540180825580915050906001820390600052602060002001600090919290919091505550806009600084815260200190815260200160002081905550505050565b600f60008154809291906001019190505550601160008154809291906001019190505550613ad281601154613cf7565b50565b600080613af78573ffffffffffffffffffffffffffffffffffffffff1661425b565b1515613b065760019150613cee565b8473ffffffffffffffffffffffffffffffffffffffff1663150b7a02338887876040518563ffffffff167c0100000000000000000000000000000000000000000000000000000000028152600401808573ffffffffffffffffffffffffffffffffffffffff1673ffffffffffffffffffffffffffffffffffffffff1681526020018473ffffffffffffffffffffffffffffffffffffffff1673ffffffffffffffffffffffffffffffffffffffff16815260200183815260200180602001828103825283818151815260200191508051906020019080838360005b83811015613bfb578082015181840152602081019050613be0565b50505050905090810190601f168015613c285780820380516001836020036101000a031916815260200191505b5095505050505050602060405180830381600087803b158015613c4a57600080fd5b505af1158015613c5e573d6000803e3d6000fd5b505050506040513d6020811015613c7457600080fd5b8101908080519060200190929190505050905063150b7a027c0100000000000000000000000000000000000000000000000000000000027bffffffffffffffffffffffffffffffffffffffffffffffffffffffff1916817bffffffffffffffffffffffffffffffffffffffffffffffffffffffff19161491505b50949350505050565b613d01828261426e565b600a80549050600b600083815260200190815260200160002081905550600a8190806001815401808255809150509060018203906000526020600020016000909192909190915055505050565b613d5782611e08565b1515613d6257600080fd5b80600c60008481526020019081526020016000209080519060200190613d89929190614438565b505050565b613d966143b0565b600060a0604051908101604052808881526020018781526020018681526020018573ffffffffffffffffffffffffffffffffffffffff1681526020018473ffffffffffffffffffffffffffffffffffffffff168152509150600d549050816012600083815260200190815260200160002060008201518160000155602082015181600101556040820151816002015560608201518160030160006101000a81548173ffffffffffffffffffffffffffffffffffffffff021916908373ffffffffffffffffffffffffffffffffffffffff16021790555060808201518160040160006101000a81548173ffffffffffffffffffffffffffffffffffffffff021916908373ffffffffffffffffffffffffffffffffffffffff16021790555090505050505050505050565b600073ffffffffffffffffffffffffffffffffffffffff168173ffffffffffffffffffffffffffffffffffffffff1614151515613efb57600080fd5b8073ffffffffffffffffffffffffffffffffffffffff166000809054906101000a900473ffffffffffffffffffffffffffffffffffffffff1673ffffffffffffffffffffffffffffffffffffffff167f8be0079c531659141344cd1fd0a4f28419497f9722a3daafe3b4186f6b6457e060405160405180910390a3806000806101000a81548173ffffffffffffffffffffffffffffffffffffffff021916908373ffffffffffffffffffffffffffffffffffffffff16021790555050565b8173ffffffffffffffffffffffffffffffffffffffff16613fd982611eb8565b73ffffffffffffffffffffffffffffffffffffffff16141515613ffb57600080fd5b61404e6001600460008573ffffffffffffffffffffffffffffffffffffffff1673ffffffffffffffffffffffffffffffffffffffff168152602001908152602001600020546140e890919063ffffffff16565b600460008473ffffffffffffffffffffffffffffffffffffffff1673ffffffffffffffffffffffffffffffffffffffff1681526020019081526020016000208190555060006002600083815260200190815260200160002060006101000a81548173ffffffffffffffffffffffffffffffffffffffff021916908373ffffffffffffffffffffffffffffffffffffffff1602179055505050565b60008282111515156140f657fe5b818303905092915050565b600073ffffffffffffffffffffffffffffffffffffffff166002600083815260200190815260200160002060009054906101000a900473ffffffffffffffffffffffffffffffffffffffff1673ffffffffffffffffffffffffffffffffffffffff1614151561416f57600080fd5b816002600083815260200190815260200160002060006101000a81548173ffffffffffffffffffffffffffffffffffffffff021916908373ffffffffffffffffffffffffffffffffffffffff1602179055506142146001600460008573ffffffffffffffffffffffffffffffffffffffff1673ffffffffffffffffffffffffffffffffffffffff1681526020019081526020016000205461431490919063ffffffff16565b600460008473ffffffffffffffffffffffffffffffffffffffff1673ffffffffffffffffffffffffffffffffffffffff168152602001908152602001600020819055505050565b600080823b905060008111915050919050565b600073ffffffffffffffffffffffffffffffffffffffff168273ffffffffffffffffffffffffffffffffffffffff16141515156142aa57600080fd5b6142b482826139cb565b808273ffffffffffffffffffffffffffffffffffffffff16600073ffffffffffffffffffffffffffffffffffffffff167fddf252ad1be2c89b69c2b068fc378daa952ba7f163c4a11628f55a4df523b3ef60405160405180910390a45050565b6000818301905082811015151561432757fe5b80905092915050565b60e06040519081016040528060008152602001600073ffffffffffffffffffffffffffffffffffffffff168152602001600081526020016000815260200160008152602001600073ffffffffffffffffffffffffffffffffffffffff168152602001600073ffffffffffffffffffffffffffffffffffffffff1681525090565b60a060405190810160405280600081526020016000815260200160008152602001600073ffffffffffffffffffffffffffffffffffffffff168152602001600073ffffffffffffffffffffffffffffffffffffffff1681525090565b8154818355818111156144335781836000526020600020918201910161443291906144b8565b5b505050565b828054600181600116156101000203166002900490600052602060002090601f016020900481019282601f1061447957805160ff19168380011785556144a7565b828001600101855582156144a7579182015b828111156144a657825182559160200191906001019061448b565b5b5090506144b491906144b8565b5090565b6144da91905b808211156144d65760008160009055506001016144be565b5090565b905600a165627a7a723058209c7cd7805d1dc7722219ce9c715d658b51b1447f91a6d49222f95839eb45265c0029",
  "source": "pragma solidity ^0.4.21;\n\nimport \"zeppelin-solidity/contracts/ownership/Ownable.sol\";\nimport 'zeppelin-solidity/contracts/token/ERC721/ERC721Token.sol';\n////////////////////////////////////////////////////////////////////////////////////////////\n/// @title CryptoPatentBlockGenerator Contract\n/// @author DecentraCorp\n/// @notice this contract is built from the zeppelin-solidity library\n/// @dev All function calls are currently implement without side effects\n////////////////////////////////////////////////////////////////////////////////////////////\n\n/// @author Christopher Dixon\n/// @dev this contract contains both the Ownable and ERC721Token contracts from Open Zepplin\ncontract CryptoPatentBlockGenerator is Ownable, ERC721Token(\"CryptoPatentBlock\", \"CPB\") {\n///@param globalIdeaCount tracks how many Idea Blocks exist\n///@param stakeAmountInIDC is the amount of ideacoin  that must be staked to activate a replication\n///@param ideaVariables maps a specific ideas info struct to its ideaId number\n  uint public globalIdeaCount = 0;\n  uint public stakeAmountInIDC = 100;\n  uint public globalRepCount = 0;\n  uint public globalUseBlocknumber = 0;\n  uint public globalTokenCount = 0;\n\n  mapping (uint256 => IdeaInfo) public ideaVariables;\n\n  mapping (address => bool) replications;\n  //tracks if an address is a replication\n  mapping (address => ReplicationInfo) repInfo;\n  //mapping of replication info by replication address\n  mapping (address => mapping (uint => uint)) repOwnes;\n  //tracks which address owns a specific replication by its ideaID\n  mapping (uint => uint) ideaRepCounter;\n  //tracks the total number of replications for a specific idea\n  mapping(address => uint) public globalUseBlockTracker;\n  //tracks specific replications block Time\n  mapping(address => uint) IdeaAddToId;\n\n\n\n///@struct IdeaInfo is built to store only needed variables to the blockchain, IPFS handles the rest\nstruct IdeaInfo {\n  uint globalUseBlockAmount;\n  uint royalty;\n  uint miningTime;\n  address inventorAddress;\n  address inventionAddress;\n}\n\nstruct ReplicationInfo {\n  uint BlockReward;\n  address OwnersAddress;\n  uint IdeaID;\n  uint Royalty;\n  uint RepID;\n  address InventorsAddress;\n  address ReplicationAddress;\n}\n// ReplicationInfo stores replication information\n\nevent NewRep(address _newRep);\n\n///@notice _generateIdeaBlock generates a Proof of Idea Ownership token. PoIO tokens act like patents\n  function _generateIdeaBlock(\n  string _ideaIPFS,\n  uint _globalUseBlockAmount,\n  uint _miningTime,\n  uint _royalty,\n  address _inventorsAddress,\n  address _inventionAdd\n  )\n   external\n  onlyOwner\n  {\n    globalIdeaCount++;\n  uint _ideaId = globalIdeaCount;\n  globalTokenCount++;\n  _mint(_inventorsAddress , globalTokenCount);\n IdeaAddToId[_inventionAdd] = _ideaId;\n  _setTokenURI(_ideaId, _ideaIPFS);\n  replications[_inventionAdd] = true;\n  setIdeaInfo(\n     _globalUseBlockAmount,\n     _royalty,\n     _miningTime,\n     _inventorsAddress,\n     _inventionAdd\n    );\n\n  }\n\n///@notice setIdeaInfo handles the struct creation logic for ideablocks\nfunction setIdeaInfo(\n  uint _globalUseBlockAmount,\n  uint _royalty,\n  uint _miningTime,\n  address _inventorAddress,\n  address _inventionAdd\n  )\n  internal\n  {\n\n    IdeaInfo memory _info = IdeaInfo({\n      globalUseBlockAmount: uint(_globalUseBlockAmount),\n      royalty: uint(_royalty),\n      miningTime: uint(_miningTime),\n      inventorAddress: address(_inventorAddress),\n      inventionAddress: address(_inventionAdd)\n      });\n\n      uint _ideaId = globalIdeaCount;\n      ideaVariables[_ideaId] = _info;\n  }\n\n  function _generateReplicationBlock(address _replicatorAdd) internal  {\n    globalRepCount++;\n    globalTokenCount++;\n  _mint(_replicatorAdd, globalTokenCount);\n\n\n  }\n\n  function _replicationBlock(uint _ideaId, address _repAdd, address _replicatorAdd) external onlyOwner {\n    uint RepBlockReward = getGlobalUseBlockAmount(_ideaId);\n    //sets RepBlockReward as the specific rep block amount Stored for an idea\n    uint royalty = getRoyalty(_ideaId);\n    //sets royalty as the specific royalty amount for an idea\n    uint blockReward = RepBlockReward - royalty;\n    //subtracts the royalty amount from the block reward\n    address inventor = getInventor(_ideaId);\n    //sets inventor as the specific inventor for an idea\n\n    _generateReplicationBlock(_replicatorAdd);\n    //generates an ERC721 replication block token\n\n    uint _repId = globalRepCount;\n    //sets _repNumber equal to globalRepCount\n\n    ReplicationInfo memory _info = ReplicationInfo({\n      BlockReward: uint( blockReward),\n      OwnersAddress: address(_replicatorAdd),\n      IdeaID: uint(_ideaId),\n      Royalty: uint(royalty),\n      RepID: uint(_repId),\n      InventorsAddress: address(inventor),\n      ReplicationAddress: address(_repAdd)\n      });\n  //creates replication struct for new rep\n\n      repInfo[_repAdd] = _info;\n      //stores new struct stored at the replications address\n      uint ideaRepCount = ideaRepCounter[_ideaId];\n      ideaRepCounter[_ideaId] = ideaRepCount++;\n      //increments the global rep count for a specific idea\n    replications[_repAdd] = true;\n  //stores replications address as a replicator\n    uint ownerRepCount = repOwnes[_replicatorAdd][_ideaId];\n  //sets ownerRepCount to how many replications of a specific idea a replicator owns\n    repOwnes[_replicatorAdd][_ideaId] = ownerRepCount++;\n  //increments the amount of replications for an idea a replicator owns\n  emit NewRep(_replicatorAdd);\n  }\n\n  ///@notice _generateGUSBlock is only called by the CryptoPatent Blockchain when certain criterea is met\n  ///@dev the GUB token is minted to the replication owner\n    function _generateGUSBlock(address _replicationOwner) external onlyOwner {\n      globalUseBlocknumber++;\n      globalTokenCount++;\n    _mint(_replicationOwner, globalTokenCount);\n    }\n\n\n\n\n///@notice the following functions allow for easier access to info by both the front end and other contracts\n///@dev all the following contracts allow for the retreval of token block information\n  function getGlobalUseBlockAmount(uint _ideaId) public view returns(uint) {\n    IdeaInfo memory info = ideaVariables[_ideaId];\n    uint globalUseBlockAmount = info.globalUseBlockAmount;\n    return globalUseBlockAmount;\n  }\n\n\n    function getRoyalty(uint _ideaId) public view returns(uint) {\n      IdeaInfo memory info = ideaVariables[_ideaId];\n      uint royalty = info.royalty;\n      return royalty;\n    }\n\n    function getInventor(uint _ideaId) public view returns(address) {\n      IdeaInfo memory info = ideaVariables[_ideaId];\n      address inventorAdd = info.inventorAddress;\n      return inventorAdd;\n    }\n    function getIdeaMiningTime(uint _ideaId) public view returns(uint) {\n      IdeaInfo memory info = ideaVariables[_ideaId];\n      uint _miningTime = info.miningTime;\n      return _miningTime;\n    }\n\n\n    function getBlockReward(address _repAdd) public view returns(uint) {\n      ReplicationInfo memory info = repInfo[_repAdd];\n      uint blockReward = info.BlockReward;\n      return blockReward;\n    }\n\n\n    function getOwnersAddress(address _repAdd) public view returns(address) {\n      ReplicationInfo memory info = repInfo[_repAdd];\n      address repOwner = info.OwnersAddress;\n      return repOwner;\n    }\n\n    function getIdeaID(address _repAdd) public view returns(uint) {\n      ReplicationInfo memory info = repInfo[_repAdd];\n      uint ideaId = info.IdeaID;\n      return ideaId;\n    }\n\n    function getInventorsAddress(address _repAdd) public view returns(address) {\n      ReplicationInfo memory info = repInfo[_repAdd];\n      address InvtAdd = info.InventorsAddress;\n      return InvtAdd;\n    }\n\n    function getInvention(uint _ideaId) public view returns(address) {\n      IdeaInfo memory info = ideaVariables[_ideaId];\n      address inventionAdd = info.inventionAddress;\n      return inventionAdd;\n    }\n\n    function getReplicationAddress(address _repAdd) public view returns(address) {\n      ReplicationInfo memory info = repInfo[_repAdd];\n      address repAdd = info.ReplicationAddress;\n      return repAdd;\n    }\n\n    function getRoyalty(address _repAdd) public view returns(uint) {\n      ReplicationInfo memory info = repInfo[_repAdd];\n      uint royalty = info.Royalty;\n      return royalty;\n    }\n\n    function getRepID(address _repAdd) public view returns(uint) {\n      ReplicationInfo memory info = repInfo[_repAdd];\n      uint repId = info.RepID;\n      return repId;\n    }\n\n    function checkIfRep(address _add) external view returns(bool) {\n    return replications[_add];\n    }\n\n    function getNumOfReps(address _add, uint _ideaId) external view returns(uint) {\n    return repOwnes[_add][_ideaId];\n    }\n\n    function getRepTotal(uint _ideaId) external view returns(uint) {\n    return ideaRepCounter[_ideaId];\n    }\n\n\n    function getID(address _ideaAdd) public view returns(uint){\n      return IdeaAddToId[_ideaAdd];\n    }\n}\n",
  "sourcePath": "/home/stan36/repos/DecentraCorp/contracts/CryptoPatent/CryptoPatentBlockGenerator.sol",
  "compiler": {
    "name": "solc",
    "version": "0.4.24+commit.e67f0147.Emscripten.clang"
  },
  "schemaVersion": "2.0.1",
  "updatedAt": "2019-02-08T01:18:45.945Z"
}