{
  "contractName": "CryptoPatentBlockGenerator",
  "abi": [
    {
      "constant": true,
      "inputs": [
        {
          "name": "_interfaceId",
          "type": "bytes4"
        }
      ],
      "name": "supportsInterface",
      "outputs": [
        {
          "name": "",
          "type": "bool"
        }
      ],
      "payable": false,
      "stateMutability": "view",
      "type": "function"
    },
    {
      "constant": true,
      "inputs": [],
      "name": "name",
      "outputs": [
        {
          "name": "",
          "type": "string"
        }
      ],
      "payable": false,
      "stateMutability": "view",
      "type": "function"
    },
    {
      "constant": true,
      "inputs": [
        {
          "name": "_tokenId",
          "type": "uint256"
        }
      ],
      "name": "getApproved",
      "outputs": [
        {
          "name": "",
          "type": "address"
        }
      ],
      "payable": false,
      "stateMutability": "view",
      "type": "function"
    },
    {
      "constant": false,
      "inputs": [
        {
          "name": "_to",
          "type": "address"
        },
        {
          "name": "_tokenId",
          "type": "uint256"
        }
      ],
      "name": "approve",
      "outputs": [],
      "payable": false,
      "stateMutability": "nonpayable",
      "type": "function"
    },
    {
      "constant": true,
      "inputs": [],
      "name": "totalSupply",
      "outputs": [
        {
          "name": "",
          "type": "uint256"
        }
      ],
      "payable": false,
      "stateMutability": "view",
      "type": "function"
    },
    {
      "constant": true,
      "inputs": [],
      "name": "InterfaceId_ERC165",
      "outputs": [
        {
          "name": "",
          "type": "bytes4"
        }
      ],
      "payable": false,
      "stateMutability": "view",
      "type": "function"
    },
    {
      "constant": true,
      "inputs": [
        {
          "name": "",
          "type": "address"
        },
        {
          "name": "",
          "type": "uint256"
        }
      ],
      "name": "replicationTracker",
      "outputs": [
        {
          "name": "",
          "type": "uint256"
        }
      ],
      "payable": false,
      "stateMutability": "view",
      "type": "function"
    },
    {
      "constant": false,
      "inputs": [
        {
          "name": "_from",
          "type": "address"
        },
        {
          "name": "_to",
          "type": "address"
        },
        {
          "name": "_tokenId",
          "type": "uint256"
        }
      ],
      "name": "transferFrom",
      "outputs": [],
      "payable": false,
      "stateMutability": "nonpayable",
      "type": "function"
    },
    {
      "constant": true,
      "inputs": [
        {
          "name": "_owner",
          "type": "address"
        },
        {
          "name": "_index",
          "type": "uint256"
        }
      ],
      "name": "tokenOfOwnerByIndex",
      "outputs": [
        {
          "name": "",
          "type": "uint256"
        }
      ],
      "payable": false,
      "stateMutability": "view",
      "type": "function"
    },
    {
      "constant": true,
      "inputs": [],
      "name": "globalUseBlocknumber",
      "outputs": [
        {
          "name": "",
          "type": "uint256"
        }
      ],
      "payable": false,
      "stateMutability": "view",
      "type": "function"
    },
    {
      "constant": true,
      "inputs": [],
      "name": "stakeAmountInIDC",
      "outputs": [
        {
          "name": "",
          "type": "uint256"
        }
      ],
      "payable": false,
      "stateMutability": "view",
      "type": "function"
    },
    {
      "constant": true,
      "inputs": [
        {
          "name": "",
          "type": "uint256"
        }
      ],
      "name": "ideaVariables",
      "outputs": [
        {
          "name": "globalUseBlockAmount",
          "type": "uint256"
        },
        {
          "name": "royalty",
          "type": "uint256"
        },
        {
          "name": "miningTime",
          "type": "uint256"
        },
        {
          "name": "inventorAddress",
          "type": "address"
        }
      ],
      "payable": false,
      "stateMutability": "view",
      "type": "function"
    },
    {
      "constant": false,
      "inputs": [
        {
          "name": "_from",
          "type": "address"
        },
        {
          "name": "_to",
          "type": "address"
        },
        {
          "name": "_tokenId",
          "type": "uint256"
        }
      ],
      "name": "safeTransferFrom",
      "outputs": [],
      "payable": false,
      "stateMutability": "nonpayable",
      "type": "function"
    },
    {
      "constant": true,
      "inputs": [],
      "name": "globalIdeaCount",
      "outputs": [
        {
          "name": "",
          "type": "uint256"
        }
      ],
      "payable": false,
      "stateMutability": "view",
      "type": "function"
    },
    {
      "constant": true,
      "inputs": [
        {
          "name": "_tokenId",
          "type": "uint256"
        }
      ],
      "name": "exists",
      "outputs": [
        {
          "name": "",
          "type": "bool"
        }
      ],
      "payable": false,
      "stateMutability": "view",
      "type": "function"
    },
    {
      "constant": true,
      "inputs": [
        {
          "name": "_index",
          "type": "uint256"
        }
      ],
      "name": "tokenByIndex",
      "outputs": [
        {
          "name": "",
          "type": "uint256"
        }
      ],
      "payable": false,
      "stateMutability": "view",
      "type": "function"
    },
    {
      "constant": true,
      "inputs": [
        {
          "name": "_tokenId",
          "type": "uint256"
        }
      ],
      "name": "ownerOf",
      "outputs": [
        {
          "name": "",
          "type": "address"
        }
      ],
      "payable": false,
      "stateMutability": "view",
      "type": "function"
    },
    {
      "constant": true,
      "inputs": [
        {
          "name": "",
          "type": "address"
        }
      ],
      "name": "globalUseBlockTracker",
      "outputs": [
        {
          "name": "",
          "type": "uint256"
        }
      ],
      "payable": false,
      "stateMutability": "view",
      "type": "function"
    },
    {
      "constant": true,
      "inputs": [
        {
          "name": "_owner",
          "type": "address"
        }
      ],
      "name": "balanceOf",
      "outputs": [
        {
          "name": "",
          "type": "uint256"
        }
      ],
      "payable": false,
      "stateMutability": "view",
      "type": "function"
    },
    {
      "constant": false,
      "inputs": [],
      "name": "renounceOwnership",
      "outputs": [],
      "payable": false,
      "stateMutability": "nonpayable",
      "type": "function"
    },
    {
      "constant": true,
      "inputs": [],
      "name": "owner",
      "outputs": [
        {
          "name": "",
          "type": "address"
        }
      ],
      "payable": false,
      "stateMutability": "view",
      "type": "function"
    },
    {
      "constant": true,
      "inputs": [],
      "name": "symbol",
      "outputs": [
        {
          "name": "",
          "type": "string"
        }
      ],
      "payable": false,
      "stateMutability": "view",
      "type": "function"
    },
    {
      "constant": false,
      "inputs": [
        {
          "name": "_to",
          "type": "address"
        },
        {
          "name": "_approved",
          "type": "bool"
        }
      ],
      "name": "setApprovalForAll",
      "outputs": [],
      "payable": false,
      "stateMutability": "nonpayable",
      "type": "function"
    },
    {
      "constant": false,
      "inputs": [
        {
          "name": "_from",
          "type": "address"
        },
        {
          "name": "_to",
          "type": "address"
        },
        {
          "name": "_tokenId",
          "type": "uint256"
        },
        {
          "name": "_data",
          "type": "bytes"
        }
      ],
      "name": "safeTransferFrom",
      "outputs": [],
      "payable": false,
      "stateMutability": "nonpayable",
      "type": "function"
    },
    {
      "constant": true,
      "inputs": [],
      "name": "globalRepCount",
      "outputs": [
        {
          "name": "",
          "type": "uint256"
        }
      ],
      "payable": false,
      "stateMutability": "view",
      "type": "function"
    },
    {
      "constant": true,
      "inputs": [
        {
          "name": "_tokenId",
          "type": "uint256"
        }
      ],
      "name": "tokenURI",
      "outputs": [
        {
          "name": "",
          "type": "string"
        }
      ],
      "payable": false,
      "stateMutability": "view",
      "type": "function"
    },
    {
      "constant": true,
      "inputs": [
        {
          "name": "_owner",
          "type": "address"
        },
        {
          "name": "_operator",
          "type": "address"
        }
      ],
      "name": "isApprovedForAll",
      "outputs": [
        {
          "name": "",
          "type": "bool"
        }
      ],
      "payable": false,
      "stateMutability": "view",
      "type": "function"
    },
    {
      "constant": false,
      "inputs": [
        {
          "name": "_newOwner",
          "type": "address"
        }
      ],
      "name": "transferOwnership",
      "outputs": [],
      "payable": false,
      "stateMutability": "nonpayable",
      "type": "function"
    },
    {
      "anonymous": false,
      "inputs": [
        {
          "indexed": false,
          "name": "_newRep",
          "type": "address"
        }
      ],
      "name": "NewRep",
      "type": "event"
    },
    {
      "anonymous": false,
      "inputs": [
        {
          "indexed": true,
          "name": "_from",
          "type": "address"
        },
        {
          "indexed": true,
          "name": "_to",
          "type": "address"
        },
        {
          "indexed": true,
          "name": "_tokenId",
          "type": "uint256"
        }
      ],
      "name": "Transfer",
      "type": "event"
    },
    {
      "anonymous": false,
      "inputs": [
        {
          "indexed": true,
          "name": "_owner",
          "type": "address"
        },
        {
          "indexed": true,
          "name": "_approved",
          "type": "address"
        },
        {
          "indexed": true,
          "name": "_tokenId",
          "type": "uint256"
        }
      ],
      "name": "Approval",
      "type": "event"
    },
    {
      "anonymous": false,
      "inputs": [
        {
          "indexed": true,
          "name": "_owner",
          "type": "address"
        },
        {
          "indexed": true,
          "name": "_operator",
          "type": "address"
        },
        {
          "indexed": false,
          "name": "_approved",
          "type": "bool"
        }
      ],
      "name": "ApprovalForAll",
      "type": "event"
    },
    {
      "anonymous": false,
      "inputs": [
        {
          "indexed": true,
          "name": "previousOwner",
          "type": "address"
        }
      ],
      "name": "OwnershipRenounced",
      "type": "event"
    },
    {
      "anonymous": false,
      "inputs": [
        {
          "indexed": true,
          "name": "previousOwner",
          "type": "address"
        },
        {
          "indexed": true,
          "name": "newOwner",
          "type": "address"
        }
      ],
      "name": "OwnershipTransferred",
      "type": "event"
    },
    {
      "constant": false,
      "inputs": [
        {
          "name": "_ideaIPFS",
          "type": "string"
        },
        {
          "name": "_globalUseBlockAmount",
          "type": "uint256"
        },
        {
          "name": "_miningTime",
          "type": "uint256"
        },
        {
          "name": "_royalty",
          "type": "uint256"
        },
        {
          "name": "_inventorsAddress",
          "type": "address"
        }
      ],
      "name": "_generateIdeaBlock",
      "outputs": [],
      "payable": false,
      "stateMutability": "nonpayable",
      "type": "function"
    },
    {
      "constant": false,
      "inputs": [
        {
          "name": "_ideaId",
          "type": "uint256"
        },
        {
          "name": "_repAdd",
          "type": "address"
        },
        {
          "name": "_replicatorAdd",
          "type": "address"
        }
      ],
      "name": "_replicationBlock",
      "outputs": [],
      "payable": false,
      "stateMutability": "nonpayable",
      "type": "function"
    },
    {
      "constant": false,
      "inputs": [
        {
          "name": "_replicationOwner",
          "type": "address"
        }
      ],
      "name": "_generateGUSBlock",
      "outputs": [],
      "payable": false,
      "stateMutability": "nonpayable",
      "type": "function"
    },
    {
      "constant": true,
      "inputs": [
        {
          "name": "_ideaId",
          "type": "uint256"
        }
      ],
      "name": "getGlobalUseBlockAmount",
      "outputs": [
        {
          "name": "",
          "type": "uint256"
        }
      ],
      "payable": false,
      "stateMutability": "view",
      "type": "function"
    },
    {
      "constant": true,
      "inputs": [
        {
          "name": "_ideaId",
          "type": "uint256"
        }
      ],
      "name": "getInventor",
      "outputs": [
        {
          "name": "",
          "type": "address"
        }
      ],
      "payable": false,
      "stateMutability": "view",
      "type": "function"
    },
    {
      "constant": true,
      "inputs": [
        {
          "name": "_ideaId",
          "type": "uint256"
        }
      ],
      "name": "getIdeaMiningTime",
      "outputs": [
        {
          "name": "",
          "type": "uint256"
        }
      ],
      "payable": false,
      "stateMutability": "view",
      "type": "function"
    },
    {
      "constant": true,
      "inputs": [
        {
          "name": "_ideaId",
          "type": "uint256"
        }
      ],
      "name": "setMiningTime",
      "outputs": [],
      "payable": false,
      "stateMutability": "view",
      "type": "function"
    },
    {
      "constant": true,
      "inputs": [
        {
          "name": "_repAdd",
          "type": "address"
        }
      ],
      "name": "getBlockReward",
      "outputs": [
        {
          "name": "",
          "type": "uint256"
        }
      ],
      "payable": false,
      "stateMutability": "view",
      "type": "function"
    },
    {
      "constant": true,
      "inputs": [
        {
          "name": "_repAdd",
          "type": "address"
        }
      ],
      "name": "getOwnersAddress",
      "outputs": [
        {
          "name": "",
          "type": "address"
        }
      ],
      "payable": false,
      "stateMutability": "view",
      "type": "function"
    },
    {
      "constant": true,
      "inputs": [
        {
          "name": "_repAdd",
          "type": "address"
        }
      ],
      "name": "getIdeaID",
      "outputs": [
        {
          "name": "",
          "type": "uint256"
        }
      ],
      "payable": false,
      "stateMutability": "view",
      "type": "function"
    },
    {
      "constant": true,
      "inputs": [
        {
          "name": "_repAdd",
          "type": "address"
        }
      ],
      "name": "getInventorsAddress",
      "outputs": [
        {
          "name": "",
          "type": "address"
        }
      ],
      "payable": false,
      "stateMutability": "view",
      "type": "function"
    },
    {
      "constant": true,
      "inputs": [
        {
          "name": "_repAdd",
          "type": "address"
        }
      ],
      "name": "getReplicationAddress",
      "outputs": [
        {
          "name": "",
          "type": "address"
        }
      ],
      "payable": false,
      "stateMutability": "view",
      "type": "function"
    },
    {
      "constant": true,
      "inputs": [
        {
          "name": "_ideaId",
          "type": "uint256"
        }
      ],
      "name": "getRoyalty",
      "outputs": [
        {
          "name": "",
          "type": "uint256"
        }
      ],
      "payable": false,
      "stateMutability": "view",
      "type": "function"
    },
    {
      "constant": true,
      "inputs": [
        {
          "name": "_repAdd",
          "type": "address"
        }
      ],
      "name": "getRoyalty",
      "outputs": [
        {
          "name": "",
          "type": "uint256"
        }
      ],
      "payable": false,
      "stateMutability": "view",
      "type": "function"
    },
    {
      "constant": true,
      "inputs": [
        {
          "name": "_repAdd",
          "type": "address"
        }
      ],
      "name": "getRepID",
      "outputs": [
        {
          "name": "",
          "type": "uint256"
        }
      ],
      "payable": false,
      "stateMutability": "view",
      "type": "function"
    },
    {
      "constant": true,
      "inputs": [
        {
          "name": "_add",
          "type": "address"
        }
      ],
      "name": "checkIfRep",
      "outputs": [
        {
          "name": "",
          "type": "bool"
        }
      ],
      "payable": false,
      "stateMutability": "view",
      "type": "function"
    },
    {
      "constant": true,
      "inputs": [
        {
          "name": "_add",
          "type": "address"
        },
        {
          "name": "_ideaId",
          "type": "uint256"
        }
      ],
      "name": "getNumOfReps",
      "outputs": [
        {
          "name": "",
          "type": "uint256"
        }
      ],
      "payable": false,
      "stateMutability": "view",
      "type": "function"
    },
    {
      "constant": true,
      "inputs": [
        {
          "name": "_ideaId",
          "type": "uint256"
        }
      ],
      "name": "getRepTotal",
      "outputs": [
        {
          "name": "",
          "type": "uint256"
        }
      ],
      "payable": false,
      "stateMutability": "view",
      "type": "function"
    },
    {
      "constant": true,
      "inputs": [
        {
          "name": "_repAdd",
          "type": "address"
        }
      ],
      "name": "getRepMiningTime",
      "outputs": [
        {
          "name": "",
          "type": "uint256"
        }
      ],
      "payable": false,
      "stateMutability": "view",
      "type": "function"
    },
    {
      "constant": false,
      "inputs": [
        {
          "name": "_repAdd",
          "type": "address"
        }
      ],
      "name": "setRepMiningTime",
      "outputs": [],
      "payable": false,
      "stateMutability": "nonpayable",
      "type": "function"
    },
    {
      "constant": true,
      "inputs": [
        {
          "name": "_ideaAdd",
          "type": "address"
        }
      ],
      "name": "getID",
      "outputs": [
        {
          "name": "",
          "type": "uint256"
        }
      ],
      "payable": false,
      "stateMutability": "view",
      "type": "function"
    }
  ],
  "bytecode": "0x60806040526000600d556064600e556000600f5560006010556040805190810160405280601181526020017f43727970746f506174656e74426c6f636b0000000000000000000000000000008152506040805190810160405280600381526020017f4350420000000000000000000000000000000000000000000000000000000000815250336000806101000a81548173ffffffffffffffffffffffffffffffffffffffff021916908373ffffffffffffffffffffffffffffffffffffffff160217905550620001016301ffc9a77c0100000000000000000000000000000000000000000000000000000000026200022f640100000000026401000000009004565b6200013e6380ac58cd7c0100000000000000000000000000000000000000000000000000000000026200022f640100000000026401000000009004565b6200017b634f558e797c0100000000000000000000000000000000000000000000000000000000026200022f640100000000026401000000009004565b816006908051906020019062000193929190620002ed565b508060079080519060200190620001ac929190620002ed565b50620001ea63780e9d637c0100000000000000000000000000000000000000000000000000000000026200022f640100000000026401000000009004565b62000227635b5e139f7c0100000000000000000000000000000000000000000000000000000000026200022f640100000000026401000000009004565b50506200039c565b63ffffffff7c010000000000000000000000000000000000000000000000000000000002817bffffffffffffffffffffffffffffffffffffffffffffffffffffffff1916141515156200028157600080fd5b6001806000837bffffffffffffffffffffffffffffffffffffffffffffffffffffffff19167bffffffffffffffffffffffffffffffffffffffffffffffffffffffff1916815260200190815260200160002060006101000a81548160ff02191690831515021790555050565b828054600181600116156101000203166002900490600052602060002090601f016020900481019282601f106200033057805160ff191683800117855562000361565b8280016001018555821562000361579182015b828111156200036057825182559160200191906001019062000343565b5b50905062000370919062000374565b5090565b6200039991905b80821115620003955760008160009055506001016200037b565b5090565b90565b6146e380620003ac6000396000f300608060405260043610610251576000357c0100000000000000000000000000000000000000000000000000000000900463ffffffff16806301ffc9a71461025657806306fdde03146102ba578063081812fc1461034a57806308f60344146103b7578063095ea7b3146103f85780631447e8661461044557806318160ddd1461049c57806319fa8f50146104c75780631af9cf49146105305780631cc1ba9e1461057157806323b872dd146105d25780632f745c591461063f57806330255eb5146106a0578063314570df146107015780633a30d8e01461072c5780634172da27146107af5780634242779f146107da57806342842e0e1461085c5780634cfa2409146108c95780634f558e79146108f45780634f6ccce7146109395780636352211e1461097a57806368a2ce88146109e757806370a0823114610a3e578063715018a614610a955780637d0b7d6014610aac57806388556ddc14610aef5780638da5cb5b14610b465780638eb5b91314610b9d5780638fce263314610bf857806395d89b4114610c71578063979571c514610d0157806399f826a514610d6e5780639b12023914610dc5578063a22cb46514610e1c578063b88d4fde14610e6b578063bb78845714610f1e578063be6cbbcf14610fa1578063c87b56dd14610fcc578063cb47f76014611072578063d4f69b681461109f578063d55b09f3146110e0578063d5e5c5611461114d578063d99e98fb146111a4578063dbe10d51146111e7578063e8385add1461126a578063e985e9c5146112ab578063eb61e37114611326578063f2fde38b1461137d575b600080fd5b34801561026257600080fd5b506102a060048036038101908080357bffffffffffffffffffffffffffffffffffffffffffffffffffffffff191690602001909291905050506113c0565b604051808215151515815260200191505060405180910390f35b3480156102c657600080fd5b506102cf611428565b6040518080602001828103825283818151815260200191508051906020019080838360005b8381101561030f5780820151818401526020810190506102f4565b50505050905090810190601f16801561033c5780820380516001836020036101000a031916815260200191505b509250505060405180910390f35b34801561035657600080fd5b50610375600480360381019080803590602001909291905050506114ca565b604051808273ffffffffffffffffffffffffffffffffffffffff1673ffffffffffffffffffffffffffffffffffffffff16815260200191505060405180910390f35b3480156103c357600080fd5b506103e260048036038101908080359060200190929190505050611507565b6040518082815260200191505060405180910390f35b34801561040457600080fd5b50610443600480360381019080803573ffffffffffffffffffffffffffffffffffffffff16906020019092919080359060200190929190505050611524565b005b34801561045157600080fd5b50610486600480360381019080803573ffffffffffffffffffffffffffffffffffffffff169060200190929190505050611669565b6040518082815260200191505060405180910390f35b3480156104a857600080fd5b506104b1611808565b6040518082815260200191505060405180910390f35b3480156104d357600080fd5b506104dc611815565b60405180827bffffffffffffffffffffffffffffffffffffffffffffffffffffffff19167bffffffffffffffffffffffffffffffffffffffffffffffffffffffff1916815260200191505060405180910390f35b34801561053c57600080fd5b5061055b6004803603810190808035906020019092919050505061183c565b6040518082815260200191505060405180910390f35b34801561057d57600080fd5b506105bc600480360381019080803573ffffffffffffffffffffffffffffffffffffffff169060200190929190803590602001909291905050506118ee565b6040518082815260200191505060405180910390f35b3480156105de57600080fd5b5061063d600480360381019080803573ffffffffffffffffffffffffffffffffffffffff169060200190929190803573ffffffffffffffffffffffffffffffffffffffff16906020019092919080359060200190929190505050611913565b005b34801561064b57600080fd5b5061068a600480360381019080803573ffffffffffffffffffffffffffffffffffffffff16906020019092919080359060200190929190505050611a1e565b6040518082815260200191505060405180910390f35b3480156106ac57600080fd5b506106eb600480360381019080803573ffffffffffffffffffffffffffffffffffffffff16906020019092919080359060200190929190505050611a95565b6040518082815260200191505060405180910390f35b34801561070d57600080fd5b50610716611af0565b6040518082815260200191505060405180910390f35b34801561073857600080fd5b5061076d600480360381019080803573ffffffffffffffffffffffffffffffffffffffff169060200190929190505050611af6565b604051808273ffffffffffffffffffffffffffffffffffffffff1673ffffffffffffffffffffffffffffffffffffffff16815260200191505060405180910390f35b3480156107bb57600080fd5b506107c4611c95565b6040518082815260200191505060405180910390f35b3480156107e657600080fd5b5061080560048036038101908080359060200190929190505050611c9b565b604051808581526020018481526020018381526020018273ffffffffffffffffffffffffffffffffffffffff1673ffffffffffffffffffffffffffffffffffffffff16815260200194505050505060405180910390f35b34801561086857600080fd5b506108c7600480360381019080803573ffffffffffffffffffffffffffffffffffffffff169060200190929190803573ffffffffffffffffffffffffffffffffffffffff16906020019092919080359060200190929190505050611ceb565b005b3480156108d557600080fd5b506108de611d0c565b6040518082815260200191505060405180910390f35b34801561090057600080fd5b5061091f60048036038101908080359060200190929190505050611d12565b604051808215151515815260200191505060405180910390f35b34801561094557600080fd5b5061096460048036038101908080359060200190929190505050611d84565b6040518082815260200191505060405180910390f35b34801561098657600080fd5b506109a560048036038101908080359060200190929190505050611dbc565b604051808273ffffffffffffffffffffffffffffffffffffffff1673ffffffffffffffffffffffffffffffffffffffff16815260200191505060405180910390f35b3480156109f357600080fd5b50610a28600480360381019080803573ffffffffffffffffffffffffffffffffffffffff169060200190929190505050611e3a565b6040518082815260200191505060405180910390f35b348015610a4a57600080fd5b50610a7f600480360381019080803573ffffffffffffffffffffffffffffffffffffffff169060200190929190505050611e52565b6040518082815260200191505060405180910390f35b348015610aa157600080fd5b50610aaa611ed6565b005b348015610ab857600080fd5b50610aed600480360381019080803573ffffffffffffffffffffffffffffffffffffffff169060200190929190505050611fd8565b005b348015610afb57600080fd5b50610b30600480360381019080803573ffffffffffffffffffffffffffffffffffffffff1690602001909291905050506121e8565b6040518082815260200191505060405180910390f35b348015610b5257600080fd5b50610b5b612387565b604051808273ffffffffffffffffffffffffffffffffffffffff1673ffffffffffffffffffffffffffffffffffffffff16815260200191505060405180910390f35b348015610ba957600080fd5b50610bde600480360381019080803573ffffffffffffffffffffffffffffffffffffffff1690602001909291905050506123ac565b604051808215151515815260200191505060405180910390f35b348015610c0457600080fd5b50610c6f600480360381019080803590602001908201803590602001919091929391929390803590602001909291908035906020019092919080359060200190929190803573ffffffffffffffffffffffffffffffffffffffff169060200190929190505050612402565b005b348015610c7d57600080fd5b50610c866124d1565b6040518080602001828103825283818151815260200191508051906020019080838360005b83811015610cc6578082015181840152602081019050610cab565b50505050905090810190601f168015610cf35780820380516001836020036101000a031916815260200191505b509250505060405180910390f35b348015610d0d57600080fd5b50610d6c60048036038101908080359060200190929190803573ffffffffffffffffffffffffffffffffffffffff169060200190929190803573ffffffffffffffffffffffffffffffffffffffff169060200190929190505050612573565b005b348015610d7a57600080fd5b50610daf600480360381019080803573ffffffffffffffffffffffffffffffffffffffff16906020019092919050505061299e565b6040518082815260200191505060405180910390f35b348015610dd157600080fd5b50610e06600480360381019080803573ffffffffffffffffffffffffffffffffffffffff1690602001909291905050506129b0565b6040518082815260200191505060405180910390f35b348015610e2857600080fd5b50610e69600480360381019080803573ffffffffffffffffffffffffffffffffffffffff169060200190929190803515159060200190929190505050612b4f565b005b348015610e7757600080fd5b50610f1c600480360381019080803573ffffffffffffffffffffffffffffffffffffffff169060200190929190803573ffffffffffffffffffffffffffffffffffffffff16906020019092919080359060200190929190803590602001908201803590602001908080601f0160208091040260200160405190810160405280939291908181526020018383808284378201915050505050509192919290505050612c8b565b005b348015610f2a57600080fd5b50610f5f600480360381019080803573ffffffffffffffffffffffffffffffffffffffff169060200190929190505050612cb3565b604051808273ffffffffffffffffffffffffffffffffffffffff1673ffffffffffffffffffffffffffffffffffffffff16815260200191505060405180910390f35b348015610fad57600080fd5b50610fb6612e52565b6040518082815260200191505060405180910390f35b348015610fd857600080fd5b50610ff760048036038101908080359060200190929190505050612e58565b6040518080602001828103825283818151815260200191508051906020019080838360005b8381101561103757808201518184015260208101905061101c565b50505050905090810190601f1680156110645780820380516001836020036101000a031916815260200191505b509250505060405180910390f35b34801561107e57600080fd5b5061109d60048036038101908080359060200190929190505050612f21565b005b3480156110ab57600080fd5b506110ca60048036038101908080359060200190929190505050612fcc565b6040518082815260200191505060405180910390f35b3480156110ec57600080fd5b5061110b6004803603810190808035906020019092919050505061307e565b604051808273ffffffffffffffffffffffffffffffffffffffff1673ffffffffffffffffffffffffffffffffffffffff16815260200191505060405180910390f35b34801561115957600080fd5b5061118e600480360381019080803573ffffffffffffffffffffffffffffffffffffffff169060200190929190505050613130565b6040518082815260200191505060405180910390f35b3480156111b057600080fd5b506111e5600480360381019080803573ffffffffffffffffffffffffffffffffffffffff1690602001909291905050506132cf565b005b3480156111f357600080fd5b50611228600480360381019080803573ffffffffffffffffffffffffffffffffffffffff169060200190929190505050613395565b604051808273ffffffffffffffffffffffffffffffffffffffff1673ffffffffffffffffffffffffffffffffffffffff16815260200191505060405180910390f35b34801561127657600080fd5b5061129560048036038101908080359060200190929190505050613534565b6040518082815260200191505060405180910390f35b3480156112b757600080fd5b5061130c600480360381019080803573ffffffffffffffffffffffffffffffffffffffff169060200190929190803573ffffffffffffffffffffffffffffffffffffffff1690602001909291905050506135e6565b604051808215151515815260200191505060405180910390f35b34801561133257600080fd5b50611367600480360381019080803573ffffffffffffffffffffffffffffffffffffffff16906020019092919050505061367a565b6040518082815260200191505060405180910390f35b34801561138957600080fd5b506113be600480360381019080803573ffffffffffffffffffffffffffffffffffffffff169060200190929190505050613819565b005b600060016000837bffffffffffffffffffffffffffffffffffffffffffffffffffffffff19167bffffffffffffffffffffffffffffffffffffffffffffffffffffffff1916815260200190815260200160002060009054906101000a900460ff169050919050565b606060068054600181600116156101000203166002900480601f0160208091040260200160405190810160405280929190818152602001828054600181600116156101000203166002900480156114c05780601f10611495576101008083540402835291602001916114c0565b820191906000526020600020905b8154815290600101906020018083116114a357829003601f168201915b5050505050905090565b60006003600083815260200190815260200160002060009054906101000a900473ffffffffffffffffffffffffffffffffffffffff169050919050565b600060166000838152602001908152602001600020549050919050565b600061152f82611dbc565b90508073ffffffffffffffffffffffffffffffffffffffff168373ffffffffffffffffffffffffffffffffffffffff161415151561156c57600080fd5b8073ffffffffffffffffffffffffffffffffffffffff163373ffffffffffffffffffffffffffffffffffffffff1614806115ac57506115ab81336135e6565b5b15156115b757600080fd5b826003600084815260200190815260200160002060006101000a81548173ffffffffffffffffffffffffffffffffffffffff021916908373ffffffffffffffffffffffffffffffffffffffff160217905550818373ffffffffffffffffffffffffffffffffffffffff168273ffffffffffffffffffffffffffffffffffffffff167f8c5be1e5ebec7d5bd14f71427d1e84f3dd0314c0f7b2291e5b200ac8c7c3b92560405160405180910390a4505050565b600061167361451f565b6000601460008573ffffffffffffffffffffffffffffffffffffffff1673ffffffffffffffffffffffffffffffffffffffff1681526020019081526020016000206101006040519081016040529081600082015481526020016001820160009054906101000a900473ffffffffffffffffffffffffffffffffffffffff1673ffffffffffffffffffffffffffffffffffffffff1673ffffffffffffffffffffffffffffffffffffffff168152602001600282015481526020016003820154815260200160048201548152602001600582015481526020016006820160009054906101000a900473ffffffffffffffffffffffffffffffffffffffff1673ffffffffffffffffffffffffffffffffffffffff1673ffffffffffffffffffffffffffffffffffffffff1681526020016007820160009054906101000a900473ffffffffffffffffffffffffffffffffffffffff1673ffffffffffffffffffffffffffffffffffffffff1673ffffffffffffffffffffffffffffffffffffffff16815250509150816000015190508092505050919050565b6000600a80549050905090565b6301ffc9a77c01000000000000000000000000000000000000000000000000000000000281565b60006118466145a7565b600060116000858152602001908152602001600020608060405190810160405290816000820154815260200160018201548152602001600282015481526020016003820160009054906101000a900473ffffffffffffffffffffffffffffffffffffffff1673ffffffffffffffffffffffffffffffffffffffff1673ffffffffffffffffffffffffffffffffffffffff16815250509150816020015190508092505050919050565b6012602052816000526040600020602052806000526040600020600091509150505481565b61191d3382613880565b151561192857600080fd5b600073ffffffffffffffffffffffffffffffffffffffff168373ffffffffffffffffffffffffffffffffffffffff161415151561196457600080fd5b600073ffffffffffffffffffffffffffffffffffffffff168273ffffffffffffffffffffffffffffffffffffffff16141515156119a057600080fd5b6119aa8382613915565b6119b48382613a18565b6119be8282613bd4565b808273ffffffffffffffffffffffffffffffffffffffff168473ffffffffffffffffffffffffffffffffffffffff167fddf252ad1be2c89b69c2b068fc378daa952ba7f163c4a11628f55a4df523b3ef60405160405180910390a4505050565b6000611a2983611e52565b82101515611a3657600080fd5b600860008473ffffffffffffffffffffffffffffffffffffffff1673ffffffffffffffffffffffffffffffffffffffff16815260200190815260200160002082815481101515611a8257fe5b9060005260206000200154905092915050565b6000601560008473ffffffffffffffffffffffffffffffffffffffff1673ffffffffffffffffffffffffffffffffffffffff168152602001908152602001600020600083815260200190815260200160002054905092915050565b60105481565b6000611b0061451f565b6000601460008573ffffffffffffffffffffffffffffffffffffffff1673ffffffffffffffffffffffffffffffffffffffff1681526020019081526020016000206101006040519081016040529081600082015481526020016001820160009054906101000a900473ffffffffffffffffffffffffffffffffffffffff1673ffffffffffffffffffffffffffffffffffffffff1673ffffffffffffffffffffffffffffffffffffffff168152602001600282015481526020016003820154815260200160048201548152602001600582015481526020016006820160009054906101000a900473ffffffffffffffffffffffffffffffffffffffff1673ffffffffffffffffffffffffffffffffffffffff1673ffffffffffffffffffffffffffffffffffffffff1681526020016007820160009054906101000a900473ffffffffffffffffffffffffffffffffffffffff1673ffffffffffffffffffffffffffffffffffffffff1673ffffffffffffffffffffffffffffffffffffffff168152505091508160e0015190508092505050919050565b600e5481565b60116020528060005260406000206000915090508060000154908060010154908060020154908060030160009054906101000a900473ffffffffffffffffffffffffffffffffffffffff16905084565b611d078383836020604051908101604052806000815250612c8b565b505050565b600d5481565b6000806002600084815260200190815260200160002060009054906101000a900473ffffffffffffffffffffffffffffffffffffffff169050600073ffffffffffffffffffffffffffffffffffffffff168173ffffffffffffffffffffffffffffffffffffffff161415915050919050565b6000611d8e611808565b82101515611d9b57600080fd5b600a82815481101515611daa57fe5b90600052602060002001549050919050565b6000806002600084815260200190815260200160002060009054906101000a900473ffffffffffffffffffffffffffffffffffffffff169050600073ffffffffffffffffffffffffffffffffffffffff168173ffffffffffffffffffffffffffffffffffffffff1614151515611e3157600080fd5b80915050919050565b60176020528060005260406000206000915090505481565b60008073ffffffffffffffffffffffffffffffffffffffff168273ffffffffffffffffffffffffffffffffffffffff1614151515611e8f57600080fd5b600460008373ffffffffffffffffffffffffffffffffffffffff1673ffffffffffffffffffffffffffffffffffffffff168152602001908152602001600020549050919050565b6000809054906101000a900473ffffffffffffffffffffffffffffffffffffffff1673ffffffffffffffffffffffffffffffffffffffff163373ffffffffffffffffffffffffffffffffffffffff16141515611f3157600080fd5b6000809054906101000a900473ffffffffffffffffffffffffffffffffffffffff1673ffffffffffffffffffffffffffffffffffffffff167ff8df31144d9c2f0f6b59d69b8b98abd5459d07f2742c4df920b25aae33c6482060405160405180910390a260008060006101000a81548173ffffffffffffffffffffffffffffffffffffffff021916908373ffffffffffffffffffffffffffffffffffffffff160217905550565b611fe061451f565b6000806000809054906101000a900473ffffffffffffffffffffffffffffffffffffffff1673ffffffffffffffffffffffffffffffffffffffff163373ffffffffffffffffffffffffffffffffffffffff1614151561203e57600080fd5b601460008573ffffffffffffffffffffffffffffffffffffffff1673ffffffffffffffffffffffffffffffffffffffff1681526020019081526020016000206101006040519081016040529081600082015481526020016001820160009054906101000a900473ffffffffffffffffffffffffffffffffffffffff1673ffffffffffffffffffffffffffffffffffffffff1673ffffffffffffffffffffffffffffffffffffffff168152602001600282015481526020016003820154815260200160048201548152602001600582015481526020016006820160009054906101000a900473ffffffffffffffffffffffffffffffffffffffff1673ffffffffffffffffffffffffffffffffffffffff1673ffffffffffffffffffffffffffffffffffffffff1681526020016007820160009054906101000a900473ffffffffffffffffffffffffffffffffffffffff1673ffffffffffffffffffffffffffffffffffffffff1673ffffffffffffffffffffffffffffffffffffffff168152505092506121c9846121e8565b91506121d482613534565b90508042018360a001818152505050505050565b60006121f261451f565b6000601460008573ffffffffffffffffffffffffffffffffffffffff1673ffffffffffffffffffffffffffffffffffffffff1681526020019081526020016000206101006040519081016040529081600082015481526020016001820160009054906101000a900473ffffffffffffffffffffffffffffffffffffffff1673ffffffffffffffffffffffffffffffffffffffff1673ffffffffffffffffffffffffffffffffffffffff168152602001600282015481526020016003820154815260200160048201548152602001600582015481526020016006820160009054906101000a900473ffffffffffffffffffffffffffffffffffffffff1673ffffffffffffffffffffffffffffffffffffffff1673ffffffffffffffffffffffffffffffffffffffff1681526020016007820160009054906101000a900473ffffffffffffffffffffffffffffffffffffffff1673ffffffffffffffffffffffffffffffffffffffff1673ffffffffffffffffffffffffffffffffffffffff16815250509150816040015190508092505050919050565b6000809054906101000a900473ffffffffffffffffffffffffffffffffffffffff1681565b6000601360008373ffffffffffffffffffffffffffffffffffffffff1673ffffffffffffffffffffffffffffffffffffffff16815260200190815260200160002060009054906101000a900460ff169050919050565b60008060009054906101000a900473ffffffffffffffffffffffffffffffffffffffff1673ffffffffffffffffffffffffffffffffffffffff163373ffffffffffffffffffffffffffffffffffffffff1614151561245f57600080fd5b600d60008154809291906001019190505550600d5490506124808282613cab565b6124bc8188888080601f016020809104026020016040519081016040528093929190818152602001838380828437820191505050505050613d02565b6124c885848685613d42565b50505050505050565b606060078054600181600116156101000203166002900480601f0160208091040260200160405190810160405280929190818152602001828054600181600116156101000203166002900480156125695780601f1061253e57610100808354040283529160200191612569565b820191906000526020600020905b81548152906001019060200180831161254c57829003601f168201915b5050505050905090565b600080600080600080600061258661451f565b6000806000809054906101000a900473ffffffffffffffffffffffffffffffffffffffff1673ffffffffffffffffffffffffffffffffffffffff163373ffffffffffffffffffffffffffffffffffffffff161415156125e457600080fd5b6125ed8d612fcc565b99506125f88d61183c565b9850888a0397506126088d613534565b965086420195506126188d61307e565b94506126248d8c613e0f565b600f549350610100604051908101604052808981526020018c73ffffffffffffffffffffffffffffffffffffffff1681526020018e81526020018a81526020018581526020018781526020018673ffffffffffffffffffffffffffffffffffffffff1681526020018d73ffffffffffffffffffffffffffffffffffffffff16815250925082601460008e73ffffffffffffffffffffffffffffffffffffffff1673ffffffffffffffffffffffffffffffffffffffff1681526020019081526020016000206000820151816000015560208201518160010160006101000a81548173ffffffffffffffffffffffffffffffffffffffff021916908373ffffffffffffffffffffffffffffffffffffffff16021790555060408201518160020155606082015181600301556080820151816004015560a0820151816005015560c08201518160060160006101000a81548173ffffffffffffffffffffffffffffffffffffffff021916908373ffffffffffffffffffffffffffffffffffffffff16021790555060e08201518160070160006101000a81548173ffffffffffffffffffffffffffffffffffffffff021916908373ffffffffffffffffffffffffffffffffffffffff160217905550905050601660008e815260200190815260200160002054915081806001019250601660008f8152602001908152602001600020819055506001601360008e73ffffffffffffffffffffffffffffffffffffffff1673ffffffffffffffffffffffffffffffffffffffff16815260200190815260200160002060006101000a81548160ff021916908315150217905550601560008c73ffffffffffffffffffffffffffffffffffffffff1673ffffffffffffffffffffffffffffffffffffffff16815260200190815260200160002060008e815260200190815260200160002054905080806001019150601560008d73ffffffffffffffffffffffffffffffffffffffff1673ffffffffffffffffffffffffffffffffffffffff16815260200190815260200160002060008f8152602001908152602001600020819055507fd565a933e7f01f6ac098665a3af731f707c9a716393cb995f3791072099649d28b604051808273ffffffffffffffffffffffffffffffffffffffff1673ffffffffffffffffffffffffffffffffffffffff16815260200191505060405180910390a150505050505050505050505050565b60006129a9826121e8565b9050919050565b60006129ba61451f565b6000601460008573ffffffffffffffffffffffffffffffffffffffff1673ffffffffffffffffffffffffffffffffffffffff1681526020019081526020016000206101006040519081016040529081600082015481526020016001820160009054906101000a900473ffffffffffffffffffffffffffffffffffffffff1673ffffffffffffffffffffffffffffffffffffffff1673ffffffffffffffffffffffffffffffffffffffff168152602001600282015481526020016003820154815260200160048201548152602001600582015481526020016006820160009054906101000a900473ffffffffffffffffffffffffffffffffffffffff1673ffffffffffffffffffffffffffffffffffffffff1673ffffffffffffffffffffffffffffffffffffffff1681526020016007820160009054906101000a900473ffffffffffffffffffffffffffffffffffffffff1673ffffffffffffffffffffffffffffffffffffffff1673ffffffffffffffffffffffffffffffffffffffff168152505091508160a0015190508092505050919050565b3373ffffffffffffffffffffffffffffffffffffffff168273ffffffffffffffffffffffffffffffffffffffff1614151515612b8a57600080fd5b80600560003373ffffffffffffffffffffffffffffffffffffffff1673ffffffffffffffffffffffffffffffffffffffff16815260200190815260200160002060008473ffffffffffffffffffffffffffffffffffffffff1673ffffffffffffffffffffffffffffffffffffffff16815260200190815260200160002060006101000a81548160ff0219169083151502179055508173ffffffffffffffffffffffffffffffffffffffff163373ffffffffffffffffffffffffffffffffffffffff167f17307eab39ab6107e8899845ad3d59bd9653f200f220920489ca2b5937696c3183604051808215151515815260200191505060405180910390a35050565b612c96848484611913565b612ca284848484613e8c565b1515612cad57600080fd5b50505050565b6000612cbd61451f565b6000601460008573ffffffffffffffffffffffffffffffffffffffff1673ffffffffffffffffffffffffffffffffffffffff1681526020019081526020016000206101006040519081016040529081600082015481526020016001820160009054906101000a900473ffffffffffffffffffffffffffffffffffffffff1673ffffffffffffffffffffffffffffffffffffffff1673ffffffffffffffffffffffffffffffffffffffff168152602001600282015481526020016003820154815260200160048201548152602001600582015481526020016006820160009054906101000a900473ffffffffffffffffffffffffffffffffffffffff1673ffffffffffffffffffffffffffffffffffffffff1673ffffffffffffffffffffffffffffffffffffffff1681526020016007820160009054906101000a900473ffffffffffffffffffffffffffffffffffffffff1673ffffffffffffffffffffffffffffffffffffffff1673ffffffffffffffffffffffffffffffffffffffff168152505091508160c0015190508092505050919050565b600f5481565b6060612e6382611d12565b1515612e6e57600080fd5b600c60008381526020019081526020016000208054600181600116156101000203166002900480601f016020809104026020016040519081016040528092919081815260200182805460018160011615610100020316600290048015612f155780601f10612eea57610100808354040283529160200191612f15565b820191906000526020600020905b815481529060010190602001808311612ef857829003601f168201915b50505050509050919050565b612f296145a7565b60116000838152602001908152602001600020608060405190810160405290816000820154815260200160018201548152602001600282015481526020016003820160009054906101000a900473ffffffffffffffffffffffffffffffffffffffff1673ffffffffffffffffffffffffffffffffffffffff1673ffffffffffffffffffffffffffffffffffffffff16815250509050428160400181815250505050565b6000612fd66145a7565b600060116000858152602001908152602001600020608060405190810160405290816000820154815260200160018201548152602001600282015481526020016003820160009054906101000a900473ffffffffffffffffffffffffffffffffffffffff1673ffffffffffffffffffffffffffffffffffffffff1673ffffffffffffffffffffffffffffffffffffffff16815250509150816000015190508092505050919050565b60006130886145a7565b600060116000858152602001908152602001600020608060405190810160405290816000820154815260200160018201548152602001600282015481526020016003820160009054906101000a900473ffffffffffffffffffffffffffffffffffffffff1673ffffffffffffffffffffffffffffffffffffffff1673ffffffffffffffffffffffffffffffffffffffff16815250509150816060015190508092505050919050565b600061313a61451f565b6000601460008573ffffffffffffffffffffffffffffffffffffffff1673ffffffffffffffffffffffffffffffffffffffff1681526020019081526020016000206101006040519081016040529081600082015481526020016001820160009054906101000a900473ffffffffffffffffffffffffffffffffffffffff1673ffffffffffffffffffffffffffffffffffffffff1673ffffffffffffffffffffffffffffffffffffffff168152602001600282015481526020016003820154815260200160048201548152602001600582015481526020016006820160009054906101000a900473ffffffffffffffffffffffffffffffffffffffff1673ffffffffffffffffffffffffffffffffffffffff1673ffffffffffffffffffffffffffffffffffffffff1681526020016007820160009054906101000a900473ffffffffffffffffffffffffffffffffffffffff1673ffffffffffffffffffffffffffffffffffffffff1673ffffffffffffffffffffffffffffffffffffffff16815250509150816080015190508092505050919050565b60008060009054906101000a900473ffffffffffffffffffffffffffffffffffffffff1673ffffffffffffffffffffffffffffffffffffffff163373ffffffffffffffffffffffffffffffffffffffff1614151561332c57600080fd5b601060008154809291906001019190505550601054905061334d8282613cab565b80601760008473ffffffffffffffffffffffffffffffffffffffff1673ffffffffffffffffffffffffffffffffffffffff168152602001908152602001600020819055505050565b600061339f61451f565b6000601460008573ffffffffffffffffffffffffffffffffffffffff1673ffffffffffffffffffffffffffffffffffffffff1681526020019081526020016000206101006040519081016040529081600082015481526020016001820160009054906101000a900473ffffffffffffffffffffffffffffffffffffffff1673ffffffffffffffffffffffffffffffffffffffff1673ffffffffffffffffffffffffffffffffffffffff168152602001600282015481526020016003820154815260200160048201548152602001600582015481526020016006820160009054906101000a900473ffffffffffffffffffffffffffffffffffffffff1673ffffffffffffffffffffffffffffffffffffffff1673ffffffffffffffffffffffffffffffffffffffff1681526020016007820160009054906101000a900473ffffffffffffffffffffffffffffffffffffffff1673ffffffffffffffffffffffffffffffffffffffff1673ffffffffffffffffffffffffffffffffffffffff16815250509150816020015190508092505050919050565b600061353e6145a7565b600060116000858152602001908152602001600020608060405190810160405290816000820154815260200160018201548152602001600282015481526020016003820160009054906101000a900473ffffffffffffffffffffffffffffffffffffffff1673ffffffffffffffffffffffffffffffffffffffff1673ffffffffffffffffffffffffffffffffffffffff16815250509150816040015190508092505050919050565b6000600560008473ffffffffffffffffffffffffffffffffffffffff1673ffffffffffffffffffffffffffffffffffffffff16815260200190815260200160002060008373ffffffffffffffffffffffffffffffffffffffff1673ffffffffffffffffffffffffffffffffffffffff16815260200190815260200160002060009054906101000a900460ff16905092915050565b600061368461451f565b6000601460008573ffffffffffffffffffffffffffffffffffffffff1673ffffffffffffffffffffffffffffffffffffffff1681526020019081526020016000206101006040519081016040529081600082015481526020016001820160009054906101000a900473ffffffffffffffffffffffffffffffffffffffff1673ffffffffffffffffffffffffffffffffffffffff1673ffffffffffffffffffffffffffffffffffffffff168152602001600282015481526020016003820154815260200160048201548152602001600582015481526020016006820160009054906101000a900473ffffffffffffffffffffffffffffffffffffffff1673ffffffffffffffffffffffffffffffffffffffff1673ffffffffffffffffffffffffffffffffffffffff1681526020016007820160009054906101000a900473ffffffffffffffffffffffffffffffffffffffff1673ffffffffffffffffffffffffffffffffffffffff1673ffffffffffffffffffffffffffffffffffffffff16815250509150816060015190508092505050919050565b6000809054906101000a900473ffffffffffffffffffffffffffffffffffffffff1673ffffffffffffffffffffffffffffffffffffffff163373ffffffffffffffffffffffffffffffffffffffff1614151561387457600080fd5b61387d816140ae565b50565b60008061388c83611dbc565b90508073ffffffffffffffffffffffffffffffffffffffff168473ffffffffffffffffffffffffffffffffffffffff1614806138fb57508373ffffffffffffffffffffffffffffffffffffffff166138e3846114ca565b73ffffffffffffffffffffffffffffffffffffffff16145b8061390c575061390b81856135e6565b5b91505092915050565b8173ffffffffffffffffffffffffffffffffffffffff1661393582611dbc565b73ffffffffffffffffffffffffffffffffffffffff1614151561395757600080fd5b600073ffffffffffffffffffffffffffffffffffffffff166003600083815260200190815260200160002060009054906101000a900473ffffffffffffffffffffffffffffffffffffffff1673ffffffffffffffffffffffffffffffffffffffff16141515613a145760006003600083815260200190815260200160002060006101000a81548173ffffffffffffffffffffffffffffffffffffffff021916908373ffffffffffffffffffffffffffffffffffffffff1602179055505b5050565b6000806000613a2785856141a8565b60096000858152602001908152602001600020549250613a936001600860008873ffffffffffffffffffffffffffffffffffffffff1673ffffffffffffffffffffffffffffffffffffffff168152602001908152602001600020805490506142d790919063ffffffff16565b9150600860008673ffffffffffffffffffffffffffffffffffffffff1673ffffffffffffffffffffffffffffffffffffffff16815260200190815260200160002082815481101515613ae157fe5b9060005260206000200154905080600860008773ffffffffffffffffffffffffffffffffffffffff1673ffffffffffffffffffffffffffffffffffffffff16815260200190815260200160002084815481101515613b3b57fe5b9060005260206000200181905550600860008673ffffffffffffffffffffffffffffffffffffffff1673ffffffffffffffffffffffffffffffffffffffff168152602001908152602001600020805480919060019003613b9b91906145e6565b50600060096000868152602001908152602001600020819055508260096000838152602001908152602001600020819055505050505050565b6000613be083836142f0565b600860008473ffffffffffffffffffffffffffffffffffffffff1673ffffffffffffffffffffffffffffffffffffffff168152602001908152602001600020805490509050600860008473ffffffffffffffffffffffffffffffffffffffff1673ffffffffffffffffffffffffffffffffffffffff168152602001908152602001600020829080600181540180825580915050906001820390600052602060002001600090919290919091505550806009600084815260200190815260200160002081905550505050565b613cb5828261444a565b600a80549050600b600083815260200190815260200160002081905550600a8190806001815401808255809150509060018203906000526020600020016000909192909190915055505050565b613d0b82611d12565b1515613d1657600080fd5b80600c60008481526020019081526020016000209080519060200190613d3d929190614612565b505050565b613d4a6145a7565b60006080604051908101604052808781526020018681526020018581526020018473ffffffffffffffffffffffffffffffffffffffff168152509150600d549050816011600083815260200190815260200160002060008201518160000155602082015181600101556040820151816002015560608201518160030160006101000a81548173ffffffffffffffffffffffffffffffffffffffff021916908373ffffffffffffffffffffffffffffffffffffffff160217905550905050505050505050565b6000600f60008154809291906001019190505550600f549050613e328282613cab565b80601260008473ffffffffffffffffffffffffffffffffffffffff1673ffffffffffffffffffffffffffffffffffffffff168152602001908152602001600020600085815260200190815260200160002081905550505050565b600080613eae8573ffffffffffffffffffffffffffffffffffffffff166144f0565b1515613ebd57600191506140a5565b8473ffffffffffffffffffffffffffffffffffffffff1663150b7a02338887876040518563ffffffff167c0100000000000000000000000000000000000000000000000000000000028152600401808573ffffffffffffffffffffffffffffffffffffffff1673ffffffffffffffffffffffffffffffffffffffff1681526020018473ffffffffffffffffffffffffffffffffffffffff1673ffffffffffffffffffffffffffffffffffffffff16815260200183815260200180602001828103825283818151815260200191508051906020019080838360005b83811015613fb2578082015181840152602081019050613f97565b50505050905090810190601f168015613fdf5780820380516001836020036101000a031916815260200191505b5095505050505050602060405180830381600087803b15801561400157600080fd5b505af1158015614015573d6000803e3d6000fd5b505050506040513d602081101561402b57600080fd5b8101908080519060200190929190505050905063150b7a027c0100000000000000000000000000000000000000000000000000000000027bffffffffffffffffffffffffffffffffffffffffffffffffffffffff1916817bffffffffffffffffffffffffffffffffffffffffffffffffffffffff19161491505b50949350505050565b600073ffffffffffffffffffffffffffffffffffffffff168173ffffffffffffffffffffffffffffffffffffffff16141515156140ea57600080fd5b8073ffffffffffffffffffffffffffffffffffffffff166000809054906101000a900473ffffffffffffffffffffffffffffffffffffffff1673ffffffffffffffffffffffffffffffffffffffff167f8be0079c531659141344cd1fd0a4f28419497f9722a3daafe3b4186f6b6457e060405160405180910390a3806000806101000a81548173ffffffffffffffffffffffffffffffffffffffff021916908373ffffffffffffffffffffffffffffffffffffffff16021790555050565b8173ffffffffffffffffffffffffffffffffffffffff166141c882611dbc565b73ffffffffffffffffffffffffffffffffffffffff161415156141ea57600080fd5b61423d6001600460008573ffffffffffffffffffffffffffffffffffffffff1673ffffffffffffffffffffffffffffffffffffffff168152602001908152602001600020546142d790919063ffffffff16565b600460008473ffffffffffffffffffffffffffffffffffffffff1673ffffffffffffffffffffffffffffffffffffffff1681526020019081526020016000208190555060006002600083815260200190815260200160002060006101000a81548173ffffffffffffffffffffffffffffffffffffffff021916908373ffffffffffffffffffffffffffffffffffffffff1602179055505050565b60008282111515156142e557fe5b818303905092915050565b600073ffffffffffffffffffffffffffffffffffffffff166002600083815260200190815260200160002060009054906101000a900473ffffffffffffffffffffffffffffffffffffffff1673ffffffffffffffffffffffffffffffffffffffff1614151561435e57600080fd5b816002600083815260200190815260200160002060006101000a81548173ffffffffffffffffffffffffffffffffffffffff021916908373ffffffffffffffffffffffffffffffffffffffff1602179055506144036001600460008573ffffffffffffffffffffffffffffffffffffffff1673ffffffffffffffffffffffffffffffffffffffff1681526020019081526020016000205461450390919063ffffffff16565b600460008473ffffffffffffffffffffffffffffffffffffffff1673ffffffffffffffffffffffffffffffffffffffff168152602001908152602001600020819055505050565b600073ffffffffffffffffffffffffffffffffffffffff168273ffffffffffffffffffffffffffffffffffffffff161415151561448657600080fd5b6144908282613bd4565b808273ffffffffffffffffffffffffffffffffffffffff16600073ffffffffffffffffffffffffffffffffffffffff167fddf252ad1be2c89b69c2b068fc378daa952ba7f163c4a11628f55a4df523b3ef60405160405180910390a45050565b600080823b905060008111915050919050565b6000818301905082811015151561451657fe5b80905092915050565b6101006040519081016040528060008152602001600073ffffffffffffffffffffffffffffffffffffffff16815260200160008152602001600081526020016000815260200160008152602001600073ffffffffffffffffffffffffffffffffffffffff168152602001600073ffffffffffffffffffffffffffffffffffffffff1681525090565b608060405190810160405280600081526020016000815260200160008152602001600073ffffffffffffffffffffffffffffffffffffffff1681525090565b81548183558181111561460d5781836000526020600020918201910161460c9190614692565b5b505050565b828054600181600116156101000203166002900490600052602060002090601f016020900481019282601f1061465357805160ff1916838001178555614681565b82800160010185558215614681579182015b82811115614680578251825591602001919060010190614665565b5b50905061468e9190614692565b5090565b6146b491905b808211156146b0576000816000905550600101614698565b5090565b905600a165627a7a7230582057bb81481275e00f3b6b986dea28de6bdf18205f94fe1b9153374e7838be3d190029",
  "source": "pragma solidity ^0.4.21;\n\nimport \"zeppelin-solidity/contracts/ownership/Ownable.sol\";\nimport 'zeppelin-solidity/contracts/token/ERC721/ERC721Token.sol';\n////////////////////////////////////////////////////////////////////////////////////////////\n/// @title CryptoPatentBlockGenerator Contract\n/// @author DecentraCorp\n/// @notice this contract is built from the zeppelin-solidity library\n/// @dev All function calls are currently implement without side effects\n////////////////////////////////////////////////////////////////////////////////////////////\n\n/// @author Christopher Dixon\n/// @dev this contract contains both the Ownable and ERC721Token contracts from Open Zepplin\ncontract CryptoPatentBlockGenerator is Ownable, ERC721Token(\"CryptoPatentBlock\", \"CPB\") {\n///@param globalIdeaCount tracks how many Idea Blocks exist\n///@param stakeAmountInIDC is the amount of ideacoin  that must be staked to activate a replication\n///@param ideaVariables maps a specific ideas info struct to its ideaId number\n  uint public globalIdeaCount = 0;\n  uint public stakeAmountInIDC = 100;\n  uint public globalRepCount = 0;\n  uint public globalUseBlocknumber = 0;\n\n  mapping (uint256 => IdeaInfo) public ideaVariables;\n  mapping(address => mapping(uint => uint)) public replicationTracker;\n  //maps a replicators address to the ideas id to store a unique replication\n  //ID for that replication\n  mapping (address => bool) replications;\n  //tracks if an address is a replication\n  mapping (address => ReplicationInfo) repInfo;\n  //mapping of replication info by replication address\n  mapping (address => mapping (uint => uint)) repOwnes;\n  //tracks which address owns a specific replication by its ideaID\n  mapping (uint => uint) ideaRepCounter;\n  //tracks the total number of replications for a specific idea\n  mapping(address => uint) public globalUseBlockTracker;\n\n\n///@struct IdeaInfo is built to store only needed variables to the blockchain, IPFS handles the rest\nstruct IdeaInfo {\n  uint globalUseBlockAmount;\n  uint royalty;\n  uint miningTime;\n  address inventorAddress;\n}\n\nstruct ReplicationInfo {\n  uint BlockReward;\n  address OwnersAddress;\n  uint IdeaID;\n  uint Royalty;\n  uint RepID;\n  uint MiningTime;\n  address InventorsAddress;\n  address ReplicationAddress;\n}\n// ReplicationInfo stores replication information\n\nevent NewRep(address _newRep);\n\n///@notice _generateIdeaBlock generates a Proof of Idea Ownership token. PoIO tokens act like patents\n  function _generateIdeaBlock(\n  string _ideaIPFS,\n  uint _globalUseBlockAmount,\n  uint _miningTime,\n  uint _royalty,\n  address _inventorsAddress\n  )\n   external\n  onlyOwner\n  {\n    globalIdeaCount++;\n  uint _ideaId = globalIdeaCount;\n  _mint(_inventorsAddress , _ideaId);\n\n  _setTokenURI(_ideaId, _ideaIPFS);\n\n  setIdeaInfo(\n     _globalUseBlockAmount,\n     _royalty,\n     _miningTime,\n     _inventorsAddress\n    );\n\n  }\n\n///@notice setIdeaInfo handles the struct creation logic for ideablocks\nfunction setIdeaInfo(\n  uint _globalUseBlockAmount,\n  uint _royalty,\n  uint _miningTime,\n  address _inventorAddress\n  )\n  internal\n  {\n\n    IdeaInfo memory _info = IdeaInfo({\n      globalUseBlockAmount: uint(_globalUseBlockAmount),\n      royalty: uint(_royalty),\n      miningTime: uint(_miningTime),\n      inventorAddress: address(_inventorAddress)\n      });\n\n      uint _ideaId = globalIdeaCount;\n      ideaVariables[_ideaId] = _info;\n  }\n\n  function _generateReplicationBlock(uint _ideaId, address _replicatorAdd) internal  {\n    globalRepCount++;\n  uint _replicationId = globalRepCount;\n  _mint(_replicatorAdd, _replicationId);\n  replicationTracker[_replicatorAdd][_ideaId] =_replicationId;\n\n  }\n\n  function _replicationBlock(uint _ideaId, address _repAdd, address _replicatorAdd) external onlyOwner {\n    uint RepBlockReward = getGlobalUseBlockAmount(_ideaId);\n    //sets RepBlockReward as the specific rep block amount Stored for an idea\n    uint royalty = getRoyalty(_ideaId);\n    //sets royalty as the specific royalty amount for an idea\n    uint blockReward = RepBlockReward - royalty;\n    //subtracts the royalty amount from the block reward\n    uint _ideaMiningTime = getIdeaMiningTime(_ideaId);\n    uint _repMiningTime = now + _ideaMiningTime;\n    address inventor = getInventor(_ideaId);\n    //sets inventor as the specific inventor for an idea\n\n    _generateReplicationBlock(_ideaId, _replicatorAdd);\n    //generates an ERC721 replication block token\n\n    uint _repId = globalRepCount;\n    //sets _repNumber equal to globalRepCount\n\n    ReplicationInfo memory _info = ReplicationInfo({\n      BlockReward: uint( blockReward),\n      OwnersAddress: address(_replicatorAdd),\n      IdeaID: uint(_ideaId),\n      Royalty: uint(royalty),\n      RepID: uint(_repId),\n      MiningTime: uint(_repMiningTime),\n      InventorsAddress: address(inventor),\n      ReplicationAddress: address(_repAdd)\n      });\n  //creates replication struct for new rep\n\n      repInfo[_repAdd] = _info;\n      //stores new struct stored at the replications address\n      uint ideaRepCount = ideaRepCounter[_ideaId];\n      ideaRepCounter[_ideaId] = ideaRepCount++;\n      //increments the global rep count for a specific idea\n    replications[_repAdd] = true;\n  //stores replications address as a replicator\n    uint ownerRepCount = repOwnes[_replicatorAdd][_ideaId];\n  //sets ownerRepCount to how many replications of a specific idea a replicator owns\n    repOwnes[_replicatorAdd][_ideaId] = ownerRepCount++;\n  //increments the amount of replications for an idea a replicator owns\n  emit NewRep(_replicatorAdd);\n  }\n\n  ///@notice _generateGUSBlock is only called by the CryptoPatent Blockchain when certain criterea is met\n  ///@dev the GUB token is minted to the replication owner\n    function _generateGUSBlock(address _replicationOwner) external onlyOwner {\n      globalUseBlocknumber++;\n      uint _blockId = globalUseBlocknumber;\n    _mint(_replicationOwner, _blockId);\n    globalUseBlockTracker[_replicationOwner] = _blockId;\n    }\n\n\n\n\n///@notice the following functions allow for easier access to info by both the front end and other contracts\n///@dev all the following contracts allow for the retreval of token block information\n  function getGlobalUseBlockAmount(uint _ideaId) public view returns(uint) {\n    IdeaInfo memory info = ideaVariables[_ideaId];\n    uint globalUseBlockAmount = info.globalUseBlockAmount;\n    return globalUseBlockAmount;\n  }\n\n\n    function getRoyalty(uint _ideaId) public view returns(uint) {\n      IdeaInfo memory info = ideaVariables[_ideaId];\n      uint royalty = info.royalty;\n      return royalty;\n    }\n\n    function getInventor(uint _ideaId) public view returns(address) {\n      IdeaInfo memory info = ideaVariables[_ideaId];\n      address inventorAdd = info.inventorAddress;\n      return inventorAdd;\n    }\n    function getIdeaMiningTime(uint _ideaId) public view returns(uint) {\n      IdeaInfo memory info = ideaVariables[_ideaId];\n      uint _miningTime = info.miningTime;\n      return _miningTime;\n    }\n    function setMiningTime(uint _ideaId) external view {\n      IdeaInfo memory info = ideaVariables[_ideaId];\n       info.miningTime = now;\n    }\n\n    function getBlockReward(address _repAdd) public view returns(uint) {\n      ReplicationInfo memory info = repInfo[_repAdd];\n      uint blockReward = info.BlockReward;\n      return blockReward;\n    }\n\n\n    function getOwnersAddress(address _repAdd) public view returns(address) {\n      ReplicationInfo memory info = repInfo[_repAdd];\n      address repOwner = info.OwnersAddress;\n      return repOwner;\n    }\n\n    function getIdeaID(address _repAdd) public view returns(uint) {\n      ReplicationInfo memory info = repInfo[_repAdd];\n      uint ideaId = info.IdeaID;\n      return ideaId;\n    }\n\n    function getInventorsAddress(address _repAdd) public view returns(address) {\n      ReplicationInfo memory info = repInfo[_repAdd];\n      address InvtAdd = info.InventorsAddress;\n      return InvtAdd;\n    }\n\n    function getReplicationAddress(address _repAdd) public view returns(address) {\n      ReplicationInfo memory info = repInfo[_repAdd];\n      address repAdd = info.ReplicationAddress;\n      return repAdd;\n    }\n\n    function getRoyalty(address _repAdd) public view returns(uint) {\n      ReplicationInfo memory info = repInfo[_repAdd];\n      uint royalty = info.Royalty;\n      return royalty;\n    }\n\n    function getRepID(address _repAdd) public view returns(uint) {\n      ReplicationInfo memory info = repInfo[_repAdd];\n      uint repId = info.RepID;\n      return repId;\n    }\n\n    function checkIfRep(address _add) external view returns(bool) {\n    return replications[_add];\n    }\n\n    function getNumOfReps(address _add, uint _ideaId) external view returns(uint) {\n    return repOwnes[_add][_ideaId];\n    }\n\n    function getRepTotal(uint _ideaId) external view returns(uint) {\n    return ideaRepCounter[_ideaId];\n    }\n\n    function getRepMiningTime(address _repAdd) external view returns(uint) {\n    ReplicationInfo memory info = repInfo[_repAdd];\n    uint miningTime = info.MiningTime;\n    return miningTime;\n    }\n\n    function setRepMiningTime(address _repAdd) external onlyOwner {\n      ReplicationInfo memory info = repInfo[_repAdd];\n      uint _ideaId = getIdeaID(_repAdd);\n      uint _ideaMiningTime = getIdeaMiningTime(_ideaId);\n      info.MiningTime = now + _ideaMiningTime;\n\n    }\n\n    function getID(address _ideaAdd) public view returns(uint){\n      return getIdeaID(_ideaAdd);\n    }\n}\n",
  "sourcePath": "/home/stan36/repos/DecentraCorp/contracts/CryptoPatent/CryptoPatentBlockGenerator.sol",
  "compiler": {
    "name": "solc",
    "version": "0.4.24+commit.e67f0147.Emscripten.clang"
  },
  "schemaVersion": "2.0.1",
  "updatedAt": "2019-01-22T05:44:46.024Z"
}