{
  "contractName": "DC_Depot",
  "abi": [
    {
      "constant": true,
      "inputs": [],
      "name": "getDCDEtherBalance",
      "outputs": [
        {
          "name": "",
          "type": "uint256"
        }
      ],
      "payable": false,
      "stateMutability": "view",
      "type": "function"
    },
    {
      "constant": true,
      "inputs": [],
      "name": "globalEscrowCount",
      "outputs": [
        {
          "name": "",
          "type": "uint256"
        }
      ],
      "payable": false,
      "stateMutability": "view",
      "type": "function"
    },
    {
      "constant": true,
      "inputs": [],
      "name": "etherEarned",
      "outputs": [
        {
          "name": "",
          "type": "uint256"
        }
      ],
      "payable": false,
      "stateMutability": "view",
      "type": "function"
    },
    {
      "constant": false,
      "inputs": [
        {
          "name": "_escrowId",
          "type": "uint256"
        },
        {
          "name": "_itemIPFSHash",
          "type": "string"
        }
      ],
      "name": "ConfirmItemReciept",
      "outputs": [],
      "payable": false,
      "stateMutability": "nonpayable",
      "type": "function"
    },
    {
      "constant": true,
      "inputs": [],
      "name": "forSale",
      "outputs": [
        {
          "name": "",
          "type": "string"
        }
      ],
      "payable": false,
      "stateMutability": "view",
      "type": "function"
    },
    {
      "constant": true,
      "inputs": [],
      "name": "getDCDPoPBalance",
      "outputs": [
        {
          "name": "",
          "type": "uint256"
        }
      ],
      "payable": false,
      "stateMutability": "view",
      "type": "function"
    },
    {
      "constant": true,
      "inputs": [],
      "name": "IDC",
      "outputs": [
        {
          "name": "",
          "type": "address"
        }
      ],
      "payable": false,
      "stateMutability": "view",
      "type": "function"
    },
    {
      "constant": true,
      "inputs": [],
      "name": "_IDC_PriceMod",
      "outputs": [
        {
          "name": "",
          "type": "uint256"
        }
      ],
      "payable": false,
      "stateMutability": "view",
      "type": "function"
    },
    {
      "constant": false,
      "inputs": [],
      "name": "renounceOwnership",
      "outputs": [],
      "payable": false,
      "stateMutability": "nonpayable",
      "type": "function"
    },
    {
      "constant": true,
      "inputs": [],
      "name": "decentraCorp",
      "outputs": [
        {
          "name": "",
          "type": "address"
        }
      ],
      "payable": false,
      "stateMutability": "view",
      "type": "function"
    },
    {
      "constant": true,
      "inputs": [],
      "name": "PoPT",
      "outputs": [
        {
          "name": "",
          "type": "address"
        }
      ],
      "payable": false,
      "stateMutability": "view",
      "type": "function"
    },
    {
      "constant": true,
      "inputs": [],
      "name": "getForSale",
      "outputs": [
        {
          "name": "",
          "type": "string"
        }
      ],
      "payable": false,
      "stateMutability": "view",
      "type": "function"
    },
    {
      "constant": false,
      "inputs": [
        {
          "name": "_newPoPAdd",
          "type": "address"
        }
      ],
      "name": "PoPTokenHF",
      "outputs": [],
      "payable": false,
      "stateMutability": "nonpayable",
      "type": "function"
    },
    {
      "constant": true,
      "inputs": [],
      "name": "owner",
      "outputs": [
        {
          "name": "",
          "type": "address"
        }
      ],
      "payable": false,
      "stateMutability": "view",
      "type": "function"
    },
    {
      "constant": false,
      "inputs": [
        {
          "name": "_escrowId",
          "type": "uint256"
        }
      ],
      "name": "releaseFundsBackToBuyer",
      "outputs": [],
      "payable": false,
      "stateMutability": "nonpayable",
      "type": "function"
    },
    {
      "constant": false,
      "inputs": [
        {
          "name": "_itemId",
          "type": "uint256"
        },
        {
          "name": "_newIPFSHash",
          "type": "string"
        }
      ],
      "name": "updateItemPOPTokenIPFS",
      "outputs": [],
      "payable": false,
      "stateMutability": "nonpayable",
      "type": "function"
    },
    {
      "constant": true,
      "inputs": [],
      "name": "_DecentraCorpFee",
      "outputs": [
        {
          "name": "",
          "type": "uint256"
        }
      ],
      "payable": false,
      "stateMutability": "view",
      "type": "function"
    },
    {
      "constant": true,
      "inputs": [
        {
          "name": "",
          "type": "uint256"
        }
      ],
      "name": "itemInEscrow",
      "outputs": [
        {
          "name": "PayedInIDC",
          "type": "bool"
        },
        {
          "name": "Price",
          "type": "uint256"
        },
        {
          "name": "buyer",
          "type": "address"
        },
        {
          "name": "seller",
          "type": "address"
        }
      ],
      "payable": false,
      "stateMutability": "view",
      "type": "function"
    },
    {
      "constant": false,
      "inputs": [
        {
          "name": "_ipfsHash",
          "type": "string"
        }
      ],
      "name": "sellItem",
      "outputs": [],
      "payable": false,
      "stateMutability": "nonpayable",
      "type": "function"
    },
    {
      "constant": false,
      "inputs": [
        {
          "name": "_newOwner",
          "type": "address"
        }
      ],
      "name": "transferOwnership",
      "outputs": [],
      "payable": false,
      "stateMutability": "nonpayable",
      "type": "function"
    },
    {
      "inputs": [
        {
          "name": "_pop",
          "type": "address"
        },
        {
          "name": "_idc",
          "type": "address"
        },
        {
          "name": "_DC",
          "type": "address"
        }
      ],
      "payable": false,
      "stateMutability": "nonpayable",
      "type": "constructor"
    },
    {
      "anonymous": false,
      "inputs": [
        {
          "indexed": false,
          "name": "pricePayedEther",
          "type": "uint256"
        },
        {
          "indexed": false,
          "name": "pricePayedIDC",
          "type": "uint256"
        },
        {
          "indexed": false,
          "name": "buyer",
          "type": "address"
        }
      ],
      "name": "ItemBought",
      "type": "event"
    },
    {
      "anonymous": false,
      "inputs": [
        {
          "indexed": false,
          "name": "itemHash",
          "type": "string"
        }
      ],
      "name": "ItemForSale",
      "type": "event"
    },
    {
      "anonymous": false,
      "inputs": [
        {
          "indexed": true,
          "name": "previousOwner",
          "type": "address"
        }
      ],
      "name": "OwnershipRenounced",
      "type": "event"
    },
    {
      "anonymous": false,
      "inputs": [
        {
          "indexed": true,
          "name": "previousOwner",
          "type": "address"
        },
        {
          "indexed": true,
          "name": "newOwner",
          "type": "address"
        }
      ],
      "name": "OwnershipTransferred",
      "type": "event"
    },
    {
      "constant": false,
      "inputs": [
        {
          "name": "_payedInIDC",
          "type": "bool"
        },
        {
          "name": "_price",
          "type": "uint256"
        },
        {
          "name": "_ipfsHash",
          "type": "string"
        },
        {
          "name": "_seller",
          "type": "address"
        }
      ],
      "name": "purchase",
      "outputs": [],
      "payable": true,
      "stateMutability": "payable",
      "type": "function"
    }
  ],
  "bytecode": "0x608060405260006004556000600555600a60065566038d7ea4c680006007553480156200002b57600080fd5b506040516060806200271283398101806040526200004d91908101906200016f565b336000806101000a81548173ffffffffffffffffffffffffffffffffffffffff021916908373ffffffffffffffffffffffffffffffffffffffff16021790555082600260006101000a81548173ffffffffffffffffffffffffffffffffffffffff021916908373ffffffffffffffffffffffffffffffffffffffff16021790555081600360006101000a81548173ffffffffffffffffffffffffffffffffffffffff021916908373ffffffffffffffffffffffffffffffffffffffff16021790555080600160006101000a81548173ffffffffffffffffffffffffffffffffffffffff021916908373ffffffffffffffffffffffffffffffffffffffff160217905550505050620001e5565b6000620001678251620001c5565b905092915050565b6000806000606084860312156200018557600080fd5b6000620001958682870162000159565b9350506020620001a88682870162000159565b9250506040620001bb8682870162000159565b9150509250925092565b600073ffffffffffffffffffffffffffffffffffffffff82169050919050565b61251d80620001f56000396000f30060806040526004361061011d576000357c0100000000000000000000000000000000000000000000000000000000900463ffffffff1680630844dcbd1461012257806313a016641461014d57806320e21444146101785780632dd12c5c146101a3578063466ccac0146101cc5780635046cff8146101f757806352d2c11d14610222578063555786221461024d578063715018a6146102785780637499d0a21461028f5780637ae20234146102ba5780637fec43cc146102e5578063804c2cf814610301578063889fceb81461032c5780638da5cb5b14610355578063917ce36814610380578063b0bbf6e0146103a9578063b5fe72f9146103d2578063c8b8cf49146103fd578063e105b3001461043d578063f2fde38b14610466575b600080fd5b34801561012e57600080fd5b5061013761048f565b60405161014491906122b5565b60405180910390f35b34801561015957600080fd5b506101626104ae565b60405161016f91906122b5565b60405180910390f35b34801561018457600080fd5b5061018d6104b4565b60405161019a91906122b5565b60405180910390f35b3480156101af57600080fd5b506101ca60048036036101c59190810190611f8f565b6104ba565b005b3480156101d857600080fd5b506101e1610dc8565b6040516101ee9190612271565b60405180910390f35b34801561020357600080fd5b5061020c610e66565b60405161021991906122b5565b60405180910390f35b34801561022e57600080fd5b50610237610f36565b6040516102449190612204565b60405180910390f35b34801561025957600080fd5b50610262610f5c565b60405161026f91906122b5565b60405180910390f35b34801561028457600080fd5b5061028d610f62565b005b34801561029b57600080fd5b506102a4611064565b6040516102b191906121e9565b60405180910390f35b3480156102c657600080fd5b506102cf61108a565b6040516102dc919061221f565b60405180910390f35b6102ff60048036036102fa9190810190611e81565b6110b0565b005b34801561030d57600080fd5b50610316611323565b6040516103239190612293565b60405180910390f35b34801561033857600080fd5b50610353600480360361034e9190810190611e58565b6113c5565b005b34801561036157600080fd5b5061036a611464565b60405161037791906120e5565b60405180910390f35b34801561038c57600080fd5b506103a760048036036103a29190810190611f3d565b611489565b005b3480156103b557600080fd5b506103d060048036036103cb9190810190611f8f565b61182e565b005b3480156103de57600080fd5b506103e7611938565b6040516103f491906122b5565b60405180910390f35b34801561040957600080fd5b50610424600480360361041f9190810190611f3d565b61193e565b6040516104349493929190612152565b60405180910390f35b34801561044957600080fd5b50610464600480360361045f9190810190611efc565b6119bb565b005b34801561047257600080fd5b5061048d60048036036104889190810190611e58565b611a0c565b005b60003073ffffffffffffffffffffffffffffffffffffffff1631905090565b60055481565b60045481565b6104c2611cb6565b6000806000806000806000806064600160009054906101000a900473ffffffffffffffffffffffffffffffffffffffff1673ffffffffffffffffffffffffffffffffffffffff1663548c0ef4336040518263ffffffff167c010000000000000000000000000000000000000000000000000000000002815260040161054791906120e5565b602060405180830381600087803b15801561056157600080fd5b505af1158015610575573d6000803e3d6000fd5b505050506040513d601f19601f820116820180604052506105999190810190611f66565b101515156105a657600080fd5b600960008c8152602001908152602001600020608060405190810160405290816000820160009054906101000a900460ff16151515158152602001600182015481526020016002820160009054906101000a900473ffffffffffffffffffffffffffffffffffffffff1673ffffffffffffffffffffffffffffffffffffffff1673ffffffffffffffffffffffffffffffffffffffff1681526020016003820160009054906101000a900473ffffffffffffffffffffffffffffffffffffffff1673ffffffffffffffffffffffffffffffffffffffff1673ffffffffffffffffffffffffffffffffffffffff1681525050985088600001519750886040015196508860600151955088602001519450600260009054906101000a900473ffffffffffffffffffffffffffffffffffffffff1673ffffffffffffffffffffffffffffffffffffffff166370a08231876040518263ffffffff167c010000000000000000000000000000000000000000000000000000000002815260040161072b91906120e5565b602060405180830381600087803b15801561074557600080fd5b505af1158015610759573d6000803e3d6000fd5b505050506040513d601f19601f8201168201806040525061077d9190810190611f66565b9350600260009054906101000a900473ffffffffffffffffffffffffffffffffffffffff1673ffffffffffffffffffffffffffffffffffffffff166370a08231886040518263ffffffff167c01000000000000000000000000000000000000000000000000000000000281526004016107f691906120e5565b602060405180830381600087803b15801561081057600080fd5b505af1158015610824573d6000803e3d6000fd5b505050506040513d601f19601f820116820180604052506108489190810190611f66565b9250600084141561085857600193505b600083141561086657600192505b674563918244f4000084029350674563918244f40000830292508715156108d3578573ffffffffffffffffffffffffffffffffffffffff166108fc869081150290604051600060405180830381858888f193505050501580156108cd573d6000803e3d6000fd5b50610991565b84600654868115156108e157fe5b04019150600160009054906101000a900473ffffffffffffffffffffffffffffffffffffffff1673ffffffffffffffffffffffffffffffffffffffff16631f471ad087846040518363ffffffff167c010000000000000000000000000000000000000000000000000000000002815260040161095e929190612129565b600060405180830381600087803b15801561097857600080fd5b505af115801561098c573d6000803e3d6000fd5b505050505b600160009054906101000a900473ffffffffffffffffffffffffffffffffffffffff1673ffffffffffffffffffffffffffffffffffffffff16632b2891ec8b6040518263ffffffff167c0100000000000000000000000000000000000000000000000000000000028152600401610a089190612293565b600060405180830381600087803b158015610a2257600080fd5b505af1158015610a36573d6000803e3d6000fd5b50505050600260009054906101000a900473ffffffffffffffffffffffffffffffffffffffff1673ffffffffffffffffffffffffffffffffffffffff1663869a536e8b6040518263ffffffff167c0100000000000000000000000000000000000000000000000000000000028152600401610ab19190612293565b602060405180830381600087803b158015610acb57600080fd5b505af1158015610adf573d6000803e3d6000fd5b505050506040513d601f19601f82011682018060405250610b039190810190611f66565b9050600260009054906101000a900473ffffffffffffffffffffffffffffffffffffffff1673ffffffffffffffffffffffffffffffffffffffff166342842e0e3089846040518463ffffffff167c0100000000000000000000000000000000000000000000000000000000028152600401610b8093929190612197565b600060405180830381600087803b158015610b9a57600080fd5b505af1158015610bae573d6000803e3d6000fd5b50505050600160009054906101000a900473ffffffffffffffffffffffffffffffffffffffff1673ffffffffffffffffffffffffffffffffffffffff16631f471ad088856040518363ffffffff167c0100000000000000000000000000000000000000000000000000000000028152600401610c2b929190612129565b600060405180830381600087803b158015610c4557600080fd5b505af1158015610c59573d6000803e3d6000fd5b50505050600160009054906101000a900473ffffffffffffffffffffffffffffffffffffffff1673ffffffffffffffffffffffffffffffffffffffff16631f471ad087866040518363ffffffff167c0100000000000000000000000000000000000000000000000000000000028152600401610cd6929190612129565b600060405180830381600087803b158015610cf057600080fd5b505af1158015610d04573d6000803e3d6000fd5b50505050600160009054906101000a900473ffffffffffffffffffffffffffffffffffffffff1673ffffffffffffffffffffffffffffffffffffffff16631f471ad033678ac7230489e800006040518363ffffffff167c0100000000000000000000000000000000000000000000000000000000028152600401610d89929190612100565b600060405180830381600087803b158015610da357600080fd5b505af1158015610db7573d6000803e3d6000fd5b505050505050505050505050505050565b60088054600181600116156101000203166002900480601f016020809104026020016040519081016040528092919081815260200182805460018160011615610100020316600290048015610e5e5780601f10610e3357610100808354040283529160200191610e5e565b820191906000526020600020905b815481529060010190602001808311610e4157829003601f168201915b505050505081565b6000600260009054906101000a900473ffffffffffffffffffffffffffffffffffffffff1673ffffffffffffffffffffffffffffffffffffffff166370a08231306040518263ffffffff167c0100000000000000000000000000000000000000000000000000000000028152600401610edf91906121ce565b602060405180830381600087803b158015610ef957600080fd5b505af1158015610f0d573d6000803e3d6000fd5b505050506040513d601f19601f82011682018060405250610f319190810190611f66565b905090565b600360009054906101000a900473ffffffffffffffffffffffffffffffffffffffff1681565b60065481565b6000809054906101000a900473ffffffffffffffffffffffffffffffffffffffff1673ffffffffffffffffffffffffffffffffffffffff163373ffffffffffffffffffffffffffffffffffffffff16141515610fbd57600080fd5b6000809054906101000a900473ffffffffffffffffffffffffffffffffffffffff1673ffffffffffffffffffffffffffffffffffffffff167ff8df31144d9c2f0f6b59d69b8b98abd5459d07f2742c4df920b25aae33c6482060405160405180910390a260008060006101000a81548173ffffffffffffffffffffffffffffffffffffffff021916908373ffffffffffffffffffffffffffffffffffffffff160217905550565b600160009054906101000a900473ffffffffffffffffffffffffffffffffffffffff1681565b600260009054906101000a900473ffffffffffffffffffffffffffffffffffffffff1681565b60008060006014348115156110c157fe5b0492508286019150600360009054906101000a900473ffffffffffffffffffffffffffffffffffffffff1673ffffffffffffffffffffffffffffffffffffffff166370a08231336040518263ffffffff167c010000000000000000000000000000000000000000000000000000000002815260040161114091906120e5565b602060405180830381600087803b15801561115a57600080fd5b505af115801561116e573d6000803e3d6000fd5b505050506040513d601f19601f820116820180604052506111929190810190611f66565b905081341015806111a35750858110155b15156111ae57600080fd5b813410151561120c5760009650826004600082825401925050819055507f39cd056bcfc4b6e195eb99b09c74b00815a367bca4e86f70ecf2e0140401bd5e866000336040516111ff939291906122d0565b60405180910390a16112f8565b60019650600160009054906101000a900473ffffffffffffffffffffffffffffffffffffffff1673ffffffffffffffffffffffffffffffffffffffff1663744a20fd33886040518363ffffffff167c0100000000000000000000000000000000000000000000000000000000028152600401611289929190612129565b600060405180830381600087803b1580156112a357600080fd5b505af11580156112b7573d6000803e3d6000fd5b505050507f39cd056bcfc4b6e195eb99b09c74b00815a367bca4e86f70ecf2e0140401bd5e600087336040516112ef9392919061223a565b60405180910390a15b611303878786611a73565b8460089080519060200190611319929190611d0d565b5050505050505050565b606060088054600181600116156101000203166002900480601f0160208091040260200160405190810160405280929190818152602001828054600181600116156101000203166002900480156113bb5780601f10611390576101008083540402835291602001916113bb565b820191906000526020600020905b81548152906001019060200180831161139e57829003601f168201915b5050505050905090565b6000809054906101000a900473ffffffffffffffffffffffffffffffffffffffff1673ffffffffffffffffffffffffffffffffffffffff163373ffffffffffffffffffffffffffffffffffffffff1614151561142057600080fd5b80600260006101000a81548173ffffffffffffffffffffffffffffffffffffffff021916908373ffffffffffffffffffffffffffffffffffffffff16021790555050565b6000809054906101000a900473ffffffffffffffffffffffffffffffffffffffff1681565b611491611cb6565b60008060006064600160009054906101000a900473ffffffffffffffffffffffffffffffffffffffff1673ffffffffffffffffffffffffffffffffffffffff1663548c0ef4336040518263ffffffff167c010000000000000000000000000000000000000000000000000000000002815260040161150f91906120e5565b602060405180830381600087803b15801561152957600080fd5b505af115801561153d573d6000803e3d6000fd5b505050506040513d601f19601f820116820180604052506115619190810190611f66565b1015151561156e57600080fd5b60096000868152602001908152602001600020608060405190810160405290816000820160009054906101000a900460ff16151515158152602001600182015481526020016002820160009054906101000a900473ffffffffffffffffffffffffffffffffffffffff1673ffffffffffffffffffffffffffffffffffffffff1673ffffffffffffffffffffffffffffffffffffffff1681526020016003820160009054906101000a900473ffffffffffffffffffffffffffffffffffffffff1673ffffffffffffffffffffffffffffffffffffffff1673ffffffffffffffffffffffffffffffffffffffff168152505093508360000151925083604001519150836020015190508215156116c8578173ffffffffffffffffffffffffffffffffffffffff166108fc829081150290604051600060405180830381858888f193505050501580156116c2573d6000803e3d6000fd5b50611774565b600160009054906101000a900473ffffffffffffffffffffffffffffffffffffffff1673ffffffffffffffffffffffffffffffffffffffff16631f471ad083836040518363ffffffff167c0100000000000000000000000000000000000000000000000000000000028152600401611741929190612129565b600060405180830381600087803b15801561175b57600080fd5b505af115801561176f573d6000803e3d6000fd5b505050505b600160009054906101000a900473ffffffffffffffffffffffffffffffffffffffff1673ffffffffffffffffffffffffffffffffffffffff16631f471ad033678ac7230489e800006040518363ffffffff167c01000000000000000000000000000000000000000000000000000000000281526004016117f5929190612100565b600060405180830381600087803b15801561180f57600080fd5b505af1158015611823573d6000803e3d6000fd5b505050505050505050565b6000809054906101000a900473ffffffffffffffffffffffffffffffffffffffff1673ffffffffffffffffffffffffffffffffffffffff163373ffffffffffffffffffffffffffffffffffffffff1614151561188957600080fd5b600260009054906101000a900473ffffffffffffffffffffffffffffffffffffffff1673ffffffffffffffffffffffffffffffffffffffff16636ae4b41d83836040518363ffffffff167c0100000000000000000000000000000000000000000000000000000000028152600401611902929190612307565b600060405180830381600087803b15801561191c57600080fd5b505af1158015611930573d6000803e3d6000fd5b505050505050565b60075481565b60096020528060005260406000206000915090508060000160009054906101000a900460ff16908060010154908060020160009054906101000a900473ffffffffffffffffffffffffffffffffffffffff16908060030160009054906101000a900473ffffffffffffffffffffffffffffffffffffffff16905084565b80600890805190602001906119d1929190611d0d565b507f3c99ff5506b5287b4e978fe4eb653868e109562a45612575df76d262a2038e1681604051611a019190612293565b60405180910390a150565b6000809054906101000a900473ffffffffffffffffffffffffffffffffffffffff1673ffffffffffffffffffffffffffffffffffffffff163373ffffffffffffffffffffffffffffffffffffffff16141515611a6757600080fd5b611a7081611bbc565b50565b6000611a7d611cb6565b33915060806040519081016040528086151581526020018581526020018373ffffffffffffffffffffffffffffffffffffffff1681526020018473ffffffffffffffffffffffffffffffffffffffff1681525090506005600081548092919060010191905055508060096000600554815260200190815260200160002060008201518160000160006101000a81548160ff0219169083151502179055506020820151816001015560408201518160020160006101000a81548173ffffffffffffffffffffffffffffffffffffffff021916908373ffffffffffffffffffffffffffffffffffffffff16021790555060608201518160030160006101000a81548173ffffffffffffffffffffffffffffffffffffffff021916908373ffffffffffffffffffffffffffffffffffffffff1602179055509050505050505050565b600073ffffffffffffffffffffffffffffffffffffffff168173ffffffffffffffffffffffffffffffffffffffff1614151515611bf857600080fd5b8073ffffffffffffffffffffffffffffffffffffffff166000809054906101000a900473ffffffffffffffffffffffffffffffffffffffff1673ffffffffffffffffffffffffffffffffffffffff167f8be0079c531659141344cd1fd0a4f28419497f9722a3daafe3b4186f6b6457e060405160405180910390a3806000806101000a81548173ffffffffffffffffffffffffffffffffffffffff021916908373ffffffffffffffffffffffffffffffffffffffff16021790555050565b60806040519081016040528060001515815260200160008152602001600073ffffffffffffffffffffffffffffffffffffffff168152602001600073ffffffffffffffffffffffffffffffffffffffff1681525090565b828054600181600116156101000203166002900490600052602060002090601f016020900481019282601f10611d4e57805160ff1916838001178555611d7c565b82800160010185558215611d7c579182015b82811115611d7b578251825591602001919060010190611d60565b5b509050611d899190611d8d565b5090565b611daf91905b80821115611dab576000816000905550600101611d93565b5090565b90565b6000611dbe82356123dc565b905092915050565b6000611dd282356123fc565b905092915050565b600082601f8301121515611ded57600080fd5b8135611e00611dfb82612364565b612337565b91508082526020830160208301858383011115611e1c57600080fd5b611e27838284612490565b50505092915050565b6000611e3c8235612408565b905092915050565b6000611e508251612408565b905092915050565b600060208284031215611e6a57600080fd5b6000611e7884828501611db2565b91505092915050565b60008060008060808587031215611e9757600080fd5b6000611ea587828801611dc6565b9450506020611eb687828801611e30565b935050604085013567ffffffffffffffff811115611ed357600080fd5b611edf87828801611dda565b9250506060611ef087828801611db2565b91505092959194509250565b600060208284031215611f0e57600080fd5b600082013567ffffffffffffffff811115611f2857600080fd5b611f3484828501611dda565b91505092915050565b600060208284031215611f4f57600080fd5b6000611f5d84828501611e30565b91505092915050565b600060208284031215611f7857600080fd5b6000611f8684828501611e44565b91505092915050565b60008060408385031215611fa257600080fd5b6000611fb085828601611e30565b925050602083013567ffffffffffffffff811115611fcd57600080fd5b611fd985828601611dda565b9150509250929050565b611fec816123a6565b82525050565b611ffb816123c6565b82525050565b61200a81612412565b82525050565b61201981612424565b82525050565b61202881612436565b82525050565b61203781612448565b82525050565b6120468161245a565b82525050565b6120558161246c565b82525050565b6120648161247e565b82525050565b60006120758261239b565b80845261208981602086016020860161249f565b612092816124d2565b602085010191505092915050565b60006120ab82612390565b8084526120bf81602086016020860161249f565b6120c8816124d2565b602085010191505092915050565b6120df816123d2565b82525050565b60006020820190506120fa6000830184611fe3565b92915050565b60006040820190506121156000830185611fe3565b612122602083018461205b565b9392505050565b600060408201905061213e6000830185611fe3565b61214b60208301846120d6565b9392505050565b60006080820190506121676000830187611ff2565b61217460208301866120d6565b6121816040830185611fe3565b61218e6060830184611fe3565b95945050505050565b60006060820190506121ac6000830186612001565b6121b96020830185611fe3565b6121c660408301846120d6565b949350505050565b60006020820190506121e36000830184612010565b92915050565b60006020820190506121fe600083018461201f565b92915050565b6000602082019050612219600083018461202e565b92915050565b6000602082019050612234600083018461203d565b92915050565b600060608201905061224f600083018661204c565b61225c60208301856120d6565b6122696040830184611fe3565b949350505050565b6000602082019050818103600083015261228b81846120a0565b905092915050565b600060208201905081810360008301526122ad818461206a565b905092915050565b60006020820190506122ca60008301846120d6565b92915050565b60006060820190506122e560008301866120d6565b6122f2602083018561204c565b6122ff6040830184611fe3565b949350505050565b600060408201905061231c60008301856120d6565b818103602083015261232e818461206a565b90509392505050565b6000604051905081810181811067ffffffffffffffff8211171561235a57600080fd5b8060405250919050565b600067ffffffffffffffff82111561237b57600080fd5b601f19601f8301169050602081019050919050565b600081519050919050565b600081519050919050565b600073ffffffffffffffffffffffffffffffffffffffff82169050919050565b60008115159050919050565b6000819050919050565b600073ffffffffffffffffffffffffffffffffffffffff82169050919050565b60008115159050919050565b6000819050919050565b600061241d826123a6565b9050919050565b600061242f826123a6565b9050919050565b6000612441826123a6565b9050919050565b6000612453826123a6565b9050919050565b6000612465826123a6565b9050919050565b6000612477826123d2565b9050919050565b6000612489826123d2565b9050919050565b82818337600083830152505050565b60005b838110156124bd5780820151818401526020810190506124a2565b838111156124cc576000848401525b50505050565b6000601f19601f83011690509190505600a265627a7a72305820ae966b4252fe738476258f83724c4a088cddd09a5146179d01255ecd9bb095c06c6578706572696d656e74616cf50037",
  "source": "pragma solidity ^0.4.21;\npragma experimental ABIEncoderV2;\nimport './DCD_Confirmation.sol';\n\ncontract DC_Depot is DCD_Confirmation {\n\n  constructor(address _pop, address _idc, address _DC) public  {\n      PoPT = ProofOfPurchaseToken(_pop);\n      IDC = IdeaCoin(_idc);\n      decentraCorp = DecentraCorpPoA(_DC);\n  }\n\n    function purchase(\n      bool _payedInIDC,\n      uint _price,\n      string _ipfsHash,\n      address _seller\n      )\n       public\n       payable\n       {\n\n         uint DCDfee = msg.value / 20;\n         uint totalPrice = _price + DCDfee;\n         uint buyersBalance = IDC.balanceOf(msg.sender);\n\n         require(msg.value >= totalPrice || buyersBalance >= _price);\n\n         if(msg.value >= totalPrice) {\n           _payedInIDC = false;\n           etherEarned += DCDfee;\n             emit ItemBought( _price, 0, msg.sender);\n         } else {\n           _payedInIDC = true;\n           decentraCorp.proxyBurn(msg.sender, _price);\n             emit ItemBought( 0, _price, msg.sender);\n         }\n\n         createEscrow(_payedInIDC, _price, _seller);\n         forSale =_ipfsHash;\n\n    }\n\n}\n",
  "sourcePath": "/home/stan36/repos/DecentraCorp/contracts/DC_Depot/DC_Depot.sol",
  "compiler": {
    "name": "solc",
    "version": "0.4.24+commit.e67f0147.Emscripten.clang"
  },
  "schemaVersion": "2.0.1",
  "updatedAt": "2019-01-02T04:57:32.191Z"
}