{
  "contractName": "DCD_Confirmation",
  "abi": [
    {
      "constant": true,
      "inputs": [],
      "name": "getDCDEtherBalance",
      "outputs": [
        {
          "name": "",
          "type": "uint256"
        }
      ],
      "payable": false,
      "stateMutability": "view",
      "type": "function"
    },
    {
      "constant": true,
      "inputs": [],
      "name": "globalEscrowCount",
      "outputs": [
        {
          "name": "",
          "type": "uint256"
        }
      ],
      "payable": false,
      "stateMutability": "view",
      "type": "function"
    },
    {
      "constant": true,
      "inputs": [],
      "name": "etherEarned",
      "outputs": [
        {
          "name": "",
          "type": "uint256"
        }
      ],
      "payable": false,
      "stateMutability": "view",
      "type": "function"
    },
    {
      "constant": true,
      "inputs": [],
      "name": "getDCDPoPBalance",
      "outputs": [
        {
          "name": "",
          "type": "uint256"
        }
      ],
      "payable": false,
      "stateMutability": "view",
      "type": "function"
    },
    {
      "constant": true,
      "inputs": [],
      "name": "IDC",
      "outputs": [
        {
          "name": "",
          "type": "address"
        }
      ],
      "payable": false,
      "stateMutability": "view",
      "type": "function"
    },
    {
      "constant": true,
      "inputs": [],
      "name": "_IDC_PriceMod",
      "outputs": [
        {
          "name": "",
          "type": "uint256"
        }
      ],
      "payable": false,
      "stateMutability": "view",
      "type": "function"
    },
    {
      "constant": false,
      "inputs": [],
      "name": "renounceOwnership",
      "outputs": [],
      "payable": false,
      "stateMutability": "nonpayable",
      "type": "function"
    },
    {
      "constant": true,
      "inputs": [],
      "name": "decentraCorp",
      "outputs": [
        {
          "name": "",
          "type": "address"
        }
      ],
      "payable": false,
      "stateMutability": "view",
      "type": "function"
    },
    {
      "constant": true,
      "inputs": [],
      "name": "PoPT",
      "outputs": [
        {
          "name": "",
          "type": "address"
        }
      ],
      "payable": false,
      "stateMutability": "view",
      "type": "function"
    },
    {
      "constant": false,
      "inputs": [
        {
          "name": "_newPoPAdd",
          "type": "address"
        }
      ],
      "name": "PoPTokenHF",
      "outputs": [],
      "payable": false,
      "stateMutability": "nonpayable",
      "type": "function"
    },
    {
      "constant": true,
      "inputs": [],
      "name": "owner",
      "outputs": [
        {
          "name": "",
          "type": "address"
        }
      ],
      "payable": false,
      "stateMutability": "view",
      "type": "function"
    },
    {
      "constant": false,
      "inputs": [
        {
          "name": "_itemId",
          "type": "uint256"
        },
        {
          "name": "_newIPFSHash",
          "type": "string"
        }
      ],
      "name": "updateItemPOPTokenIPFS",
      "outputs": [],
      "payable": false,
      "stateMutability": "nonpayable",
      "type": "function"
    },
    {
      "constant": true,
      "inputs": [],
      "name": "_DecentraCorpFee",
      "outputs": [
        {
          "name": "",
          "type": "uint256"
        }
      ],
      "payable": false,
      "stateMutability": "view",
      "type": "function"
    },
    {
      "constant": true,
      "inputs": [
        {
          "name": "",
          "type": "uint256"
        }
      ],
      "name": "itemInEscrow",
      "outputs": [
        {
          "name": "PayedInIDC",
          "type": "bool"
        },
        {
          "name": "Price",
          "type": "uint256"
        },
        {
          "name": "buyer",
          "type": "address"
        },
        {
          "name": "seller",
          "type": "address"
        }
      ],
      "payable": false,
      "stateMutability": "view",
      "type": "function"
    },
    {
      "constant": false,
      "inputs": [
        {
          "name": "_newOwner",
          "type": "address"
        }
      ],
      "name": "transferOwnership",
      "outputs": [],
      "payable": false,
      "stateMutability": "nonpayable",
      "type": "function"
    },
    {
      "anonymous": false,
      "inputs": [
        {
          "indexed": false,
          "name": "pricePayedEther",
          "type": "uint256"
        },
        {
          "indexed": false,
          "name": "pricePayedIDC",
          "type": "uint256"
        },
        {
          "indexed": false,
          "name": "buyer",
          "type": "address"
        }
      ],
      "name": "ItemBought",
      "type": "event"
    },
    {
      "anonymous": false,
      "inputs": [
        {
          "indexed": true,
          "name": "previousOwner",
          "type": "address"
        }
      ],
      "name": "OwnershipRenounced",
      "type": "event"
    },
    {
      "anonymous": false,
      "inputs": [
        {
          "indexed": true,
          "name": "previousOwner",
          "type": "address"
        },
        {
          "indexed": true,
          "name": "newOwner",
          "type": "address"
        }
      ],
      "name": "OwnershipTransferred",
      "type": "event"
    },
    {
      "constant": false,
      "inputs": [
        {
          "name": "_escrowId",
          "type": "uint256"
        },
        {
          "name": "_itemIPFSHash",
          "type": "string"
        }
      ],
      "name": "ConfirmItemReciept",
      "outputs": [],
      "payable": false,
      "stateMutability": "nonpayable",
      "type": "function"
    },
    {
      "constant": false,
      "inputs": [
        {
          "name": "_escrowId",
          "type": "uint256"
        }
      ],
      "name": "releaseFundsBackToBuyer",
      "outputs": [],
      "payable": false,
      "stateMutability": "nonpayable",
      "type": "function"
    }
  ],
  "bytecode": "0x608060405260006004556000600555600a60065566038d7ea4c68000600755336000806101000a81548173ffffffffffffffffffffffffffffffffffffffff021916908373ffffffffffffffffffffffffffffffffffffffff1602179055506119a48061006d6000396000f3006080604052600436106100f1576000357c0100000000000000000000000000000000000000000000000000000000900463ffffffff1680630844dcbd146100f657806313a016641461012157806320e214441461014c5780632dd12c5c146101775780635046cff8146101ea57806352d2c11d14610215578063555786221461026c578063715018a6146102975780637499d0a2146102ae5780637ae2023414610305578063889fceb81461035c5780638da5cb5b1461039f578063917ce368146103f6578063b0bbf6e014610423578063b5fe72f914610496578063c8b8cf49146104c1578063f2fde38b14610573575b600080fd5b34801561010257600080fd5b5061010b6105b6565b6040518082815260200191505060405180910390f35b34801561012d57600080fd5b506101366105d5565b6040518082815260200191505060405180910390f35b34801561015857600080fd5b506101616105db565b6040518082815260200191505060405180910390f35b34801561018357600080fd5b506101e860048036038101908080359060200190929190803590602001908201803590602001908080601f01602080910402602001604051908101604052809392919081815260200183838082843782019150505050505091929192905050506105e1565b005b3480156101f657600080fd5b506101ff610fe4565b6040518082815260200191505060405180910390f35b34801561022157600080fd5b5061022a6110e3565b604051808273ffffffffffffffffffffffffffffffffffffffff1673ffffffffffffffffffffffffffffffffffffffff16815260200191505060405180910390f35b34801561027857600080fd5b50610281611109565b6040518082815260200191505060405180910390f35b3480156102a357600080fd5b506102ac61110f565b005b3480156102ba57600080fd5b506102c3611211565b604051808273ffffffffffffffffffffffffffffffffffffffff1673ffffffffffffffffffffffffffffffffffffffff16815260200191505060405180910390f35b34801561031157600080fd5b5061031a611237565b604051808273ffffffffffffffffffffffffffffffffffffffff1673ffffffffffffffffffffffffffffffffffffffff16815260200191505060405180910390f35b34801561036857600080fd5b5061039d600480360381019080803573ffffffffffffffffffffffffffffffffffffffff16906020019092919050505061125d565b005b3480156103ab57600080fd5b506103b46112fc565b604051808273ffffffffffffffffffffffffffffffffffffffff1673ffffffffffffffffffffffffffffffffffffffff16815260200191505060405180910390f35b34801561040257600080fd5b5061042160048036038101908080359060200190929190505050611321565b005b34801561042f57600080fd5b5061049460048036038101908080359060200190929190803590602001908201803590602001908080601f01602080910402602001604051908101604052809392919081815260200183838082843782019150505050505091929192905050506115c8565b005b3480156104a257600080fd5b506104ab61173d565b6040518082815260200191505060405180910390f35b3480156104cd57600080fd5b506104ec60048036038101908080359060200190929190505050611743565b60405180851515151581526020018481526020018373ffffffffffffffffffffffffffffffffffffffff1673ffffffffffffffffffffffffffffffffffffffff1681526020018273ffffffffffffffffffffffffffffffffffffffff1673ffffffffffffffffffffffffffffffffffffffff16815260200194505050505060405180910390f35b34801561057f57600080fd5b506105b4600480360381019080803573ffffffffffffffffffffffffffffffffffffffff1690602001909291905050506117c0565b005b60003073ffffffffffffffffffffffffffffffffffffffff1631905090565b60055481565b60045481565b6105e9611921565b6000806000806000806000806000809054906101000a900473ffffffffffffffffffffffffffffffffffffffff1673ffffffffffffffffffffffffffffffffffffffff163373ffffffffffffffffffffffffffffffffffffffff1614151561065057600080fd5b600860008c8152602001908152602001600020608060405190810160405290816000820160009054906101000a900460ff16151515158152602001600182015481526020016002820160009054906101000a900473ffffffffffffffffffffffffffffffffffffffff1673ffffffffffffffffffffffffffffffffffffffff1673ffffffffffffffffffffffffffffffffffffffff1681526020016003820160009054906101000a900473ffffffffffffffffffffffffffffffffffffffff1673ffffffffffffffffffffffffffffffffffffffff1673ffffffffffffffffffffffffffffffffffffffff1681525050985088600001519750886040015196508860600151955088602001519450600260009054906101000a900473ffffffffffffffffffffffffffffffffffffffff1673ffffffffffffffffffffffffffffffffffffffff166370a08231876040518263ffffffff167c0100000000000000000000000000000000000000000000000000000000028152600401808273ffffffffffffffffffffffffffffffffffffffff1673ffffffffffffffffffffffffffffffffffffffff168152602001915050602060405180830381600087803b15801561081b57600080fd5b505af115801561082f573d6000803e3d6000fd5b505050506040513d602081101561084557600080fd5b81019080805190602001909291905050509350600260009054906101000a900473ffffffffffffffffffffffffffffffffffffffff1673ffffffffffffffffffffffffffffffffffffffff166370a08231886040518263ffffffff167c0100000000000000000000000000000000000000000000000000000000028152600401808273ffffffffffffffffffffffffffffffffffffffff1673ffffffffffffffffffffffffffffffffffffffff168152602001915050602060405180830381600087803b15801561091557600080fd5b505af1158015610929573d6000803e3d6000fd5b505050506040513d602081101561093f57600080fd5b81019080805190602001909291905050509250600084141561096057600193505b600083141561096e57600192505b674563918244f4000084029350674563918244f40000830292508715156109db578573ffffffffffffffffffffffffffffffffffffffff166108fc869081150290604051600060405180830381858888f193505050501580156109d5573d6000803e3d6000fd5b50610acb565b84600654868115156109e957fe5b04019150600160009054906101000a900473ffffffffffffffffffffffffffffffffffffffff1673ffffffffffffffffffffffffffffffffffffffff16631f471ad087846040518363ffffffff167c0100000000000000000000000000000000000000000000000000000000028152600401808373ffffffffffffffffffffffffffffffffffffffff1673ffffffffffffffffffffffffffffffffffffffff16815260200182815260200192505050600060405180830381600087803b158015610ab257600080fd5b505af1158015610ac6573d6000803e3d6000fd5b505050505b600260009054906101000a900473ffffffffffffffffffffffffffffffffffffffff1673ffffffffffffffffffffffffffffffffffffffff16632b2891ec8b6040518263ffffffff167c01000000000000000000000000000000000000000000000000000000000281526004018080602001828103825283818151815260200191508051906020019080838360005b83811015610b75578082015181840152602081019050610b5a565b50505050905090810190601f168015610ba25780820380516001836020036101000a031916815260200191505b5092505050600060405180830381600087803b158015610bc157600080fd5b505af1158015610bd5573d6000803e3d6000fd5b50505050600260009054906101000a900473ffffffffffffffffffffffffffffffffffffffff1673ffffffffffffffffffffffffffffffffffffffff1663869a536e8b6040518263ffffffff167c01000000000000000000000000000000000000000000000000000000000281526004018080602001828103825283818151815260200191508051906020019080838360005b83811015610c83578082015181840152602081019050610c68565b50505050905090810190601f168015610cb05780820380516001836020036101000a031916815260200191505b5092505050602060405180830381600087803b158015610ccf57600080fd5b505af1158015610ce3573d6000803e3d6000fd5b505050506040513d6020811015610cf957600080fd5b81019080805190602001909291905050509050600260009054906101000a900473ffffffffffffffffffffffffffffffffffffffff1673ffffffffffffffffffffffffffffffffffffffff166342842e0e3089846040518463ffffffff167c0100000000000000000000000000000000000000000000000000000000028152600401808473ffffffffffffffffffffffffffffffffffffffff1673ffffffffffffffffffffffffffffffffffffffff1681526020018373ffffffffffffffffffffffffffffffffffffffff1673ffffffffffffffffffffffffffffffffffffffff1681526020018281526020019350505050600060405180830381600087803b158015610e0557600080fd5b505af1158015610e19573d6000803e3d6000fd5b50505050600160009054906101000a900473ffffffffffffffffffffffffffffffffffffffff1673ffffffffffffffffffffffffffffffffffffffff16631f471ad088856040518363ffffffff167c0100000000000000000000000000000000000000000000000000000000028152600401808373ffffffffffffffffffffffffffffffffffffffff1673ffffffffffffffffffffffffffffffffffffffff16815260200182815260200192505050600060405180830381600087803b158015610ee257600080fd5b505af1158015610ef6573d6000803e3d6000fd5b50505050600160009054906101000a900473ffffffffffffffffffffffffffffffffffffffff1673ffffffffffffffffffffffffffffffffffffffff16631f471ad087866040518363ffffffff167c0100000000000000000000000000000000000000000000000000000000028152600401808373ffffffffffffffffffffffffffffffffffffffff1673ffffffffffffffffffffffffffffffffffffffff16815260200182815260200192505050600060405180830381600087803b158015610fbf57600080fd5b505af1158015610fd3573d6000803e3d6000fd5b505050505050505050505050505050565b6000600260009054906101000a900473ffffffffffffffffffffffffffffffffffffffff1673ffffffffffffffffffffffffffffffffffffffff166370a08231306040518263ffffffff167c0100000000000000000000000000000000000000000000000000000000028152600401808273ffffffffffffffffffffffffffffffffffffffff1673ffffffffffffffffffffffffffffffffffffffff168152602001915050602060405180830381600087803b1580156110a357600080fd5b505af11580156110b7573d6000803e3d6000fd5b505050506040513d60208110156110cd57600080fd5b8101908080519060200190929190505050905090565b600360009054906101000a900473ffffffffffffffffffffffffffffffffffffffff1681565b60065481565b6000809054906101000a900473ffffffffffffffffffffffffffffffffffffffff1673ffffffffffffffffffffffffffffffffffffffff163373ffffffffffffffffffffffffffffffffffffffff1614151561116a57600080fd5b6000809054906101000a900473ffffffffffffffffffffffffffffffffffffffff1673ffffffffffffffffffffffffffffffffffffffff167ff8df31144d9c2f0f6b59d69b8b98abd5459d07f2742c4df920b25aae33c6482060405160405180910390a260008060006101000a81548173ffffffffffffffffffffffffffffffffffffffff021916908373ffffffffffffffffffffffffffffffffffffffff160217905550565b600160009054906101000a900473ffffffffffffffffffffffffffffffffffffffff1681565b600260009054906101000a900473ffffffffffffffffffffffffffffffffffffffff1681565b6000809054906101000a900473ffffffffffffffffffffffffffffffffffffffff1673ffffffffffffffffffffffffffffffffffffffff163373ffffffffffffffffffffffffffffffffffffffff161415156112b857600080fd5b80600260006101000a81548173ffffffffffffffffffffffffffffffffffffffff021916908373ffffffffffffffffffffffffffffffffffffffff16021790555050565b6000809054906101000a900473ffffffffffffffffffffffffffffffffffffffff1681565b611329611921565b60008060008060009054906101000a900473ffffffffffffffffffffffffffffffffffffffff1673ffffffffffffffffffffffffffffffffffffffff163373ffffffffffffffffffffffffffffffffffffffff1614151561138957600080fd5b60086000868152602001908152602001600020608060405190810160405290816000820160009054906101000a900460ff16151515158152602001600182015481526020016002820160009054906101000a900473ffffffffffffffffffffffffffffffffffffffff1673ffffffffffffffffffffffffffffffffffffffff1673ffffffffffffffffffffffffffffffffffffffff1681526020016003820160009054906101000a900473ffffffffffffffffffffffffffffffffffffffff1673ffffffffffffffffffffffffffffffffffffffff1673ffffffffffffffffffffffffffffffffffffffff168152505093508360000151925083604001519150836020015190508215156114e3578173ffffffffffffffffffffffffffffffffffffffff166108fc829081150290604051600060405180830381858888f193505050501580156114dd573d6000803e3d6000fd5b506115c1565b600160009054906101000a900473ffffffffffffffffffffffffffffffffffffffff1673ffffffffffffffffffffffffffffffffffffffff16631f471ad083836040518363ffffffff167c0100000000000000000000000000000000000000000000000000000000028152600401808373ffffffffffffffffffffffffffffffffffffffff1673ffffffffffffffffffffffffffffffffffffffff16815260200182815260200192505050600060405180830381600087803b1580156115a857600080fd5b505af11580156115bc573d6000803e3d6000fd5b505050505b5050505050565b6000809054906101000a900473ffffffffffffffffffffffffffffffffffffffff1673ffffffffffffffffffffffffffffffffffffffff163373ffffffffffffffffffffffffffffffffffffffff1614151561162357600080fd5b600260009054906101000a900473ffffffffffffffffffffffffffffffffffffffff1673ffffffffffffffffffffffffffffffffffffffff16636ae4b41d83836040518363ffffffff167c01000000000000000000000000000000000000000000000000000000000281526004018083815260200180602001828103825283818151815260200191508051906020019080838360005b838110156116d45780820151818401526020810190506116b9565b50505050905090810190601f1680156117015780820380516001836020036101000a031916815260200191505b509350505050600060405180830381600087803b15801561172157600080fd5b505af1158015611735573d6000803e3d6000fd5b505050505050565b60075481565b60086020528060005260406000206000915090508060000160009054906101000a900460ff16908060010154908060020160009054906101000a900473ffffffffffffffffffffffffffffffffffffffff16908060030160009054906101000a900473ffffffffffffffffffffffffffffffffffffffff16905084565b6000809054906101000a900473ffffffffffffffffffffffffffffffffffffffff1673ffffffffffffffffffffffffffffffffffffffff163373ffffffffffffffffffffffffffffffffffffffff1614151561181b57600080fd5b61182481611827565b50565b600073ffffffffffffffffffffffffffffffffffffffff168173ffffffffffffffffffffffffffffffffffffffff161415151561186357600080fd5b8073ffffffffffffffffffffffffffffffffffffffff166000809054906101000a900473ffffffffffffffffffffffffffffffffffffffff1673ffffffffffffffffffffffffffffffffffffffff167f8be0079c531659141344cd1fd0a4f28419497f9722a3daafe3b4186f6b6457e060405160405180910390a3806000806101000a81548173ffffffffffffffffffffffffffffffffffffffff021916908373ffffffffffffffffffffffffffffffffffffffff16021790555050565b60806040519081016040528060001515815260200160008152602001600073ffffffffffffffffffffffffffffffffffffffff168152602001600073ffffffffffffffffffffffffffffffffffffffff16815250905600a165627a7a72305820659e8848b9a0aa49afbed739a0d1b727dfd4e199a3b9bf5d7761ca85d75987fe0029",
  "source": "pragma solidity ^0.4.21;\n\nimport './DCD_Escrow.sol';\n\ncontract DCD_Confirmation is DCD_Escrow  {\n\nfunction ConfirmItemReciept(uint _escrowId,   string _itemIPFSHash) public onlyOwner {\n\nEscrow memory escrow = itemInEscrow[_escrowId];\n\n  bool _payedInIDC = escrow.PayedInIDC;\n  address _buyer = escrow.buyer;\n  address _seller = escrow.seller;\n  uint _price = escrow.Price;\n  uint _IDCSellerMultiplier = PoPT.balanceOf(_seller);\n  uint _IDCBuyerMultiplier = PoPT.balanceOf(_buyer);\n\nif(_IDCSellerMultiplier == 0) {\n    _IDCSellerMultiplier = 1;\n}\nif(_IDCBuyerMultiplier == 0) {\n    _IDCBuyerMultiplier = 1;\n}\n\n_IDCSellerMultiplier = _IDCSellerMultiplier * 5000000000000000000;\n_IDCBuyerMultiplier = _IDCBuyerMultiplier * 5000000000000000000;\n\nif(!_payedInIDC) {\n  _seller.transfer(_price);\n} else {\n  uint newIDCPrice = (_price / _IDC_PriceMod) + _price;\n  decentraCorp.proxyMint(_seller, newIDCPrice);\n}\n\n  PoPT.mintItemToken(_itemIPFSHash);\n  uint _tokenId = PoPT.ipfsLookUp(_itemIPFSHash);\n  PoPT.safeTransferFrom(this, _buyer, _tokenId);\n  decentraCorp.proxyMint(_buyer, _IDCBuyerMultiplier);\n\n  decentraCorp.proxyMint(_seller, _IDCSellerMultiplier);\n\n\n}\n\nfunction releaseFundsBackToBuyer(uint _escrowId) public onlyOwner {\n  Escrow memory escrow = itemInEscrow[ _escrowId];\n  bool _payedInIDC = escrow.PayedInIDC;\n  address _buyer = escrow.buyer;\n    uint _price = escrow.Price;\n    if(!_payedInIDC) {\n      _buyer.transfer(_price);\n    } else {\n      decentraCorp.proxyMint(_buyer, _price);\n    }\n  }\n\n}\n",
  "sourcePath": "/home/stan36/repos/DecentraCorp/contracts/DC_Depot/DCD_Confirmation.sol",
  "compiler": {
    "name": "solc",
    "version": "0.4.24+commit.e67f0147.Emscripten.clang"
  },
  "schemaVersion": "2.0.1",
  "updatedAt": "2018-12-23T23:56:04.870Z"
}