{
  "contractName": "DCInterface",
  "abi": [
    {
      "constant": true,
      "inputs": [
        {
          "name": "",
          "type": "uint256"
        }
      ],
      "name": "proposals",
      "outputs": [
        {
          "name": "IdeaIPFS",
          "type": "string"
        },
        {
          "name": "executed",
          "type": "bool"
        },
        {
          "name": "proposalPassed",
          "type": "bool"
        },
        {
          "name": "numberOfVotes",
          "type": "uint256"
        },
        {
          "name": "GlobalUseAmount",
          "type": "uint256"
        },
        {
          "name": "royalty",
          "type": "uint256"
        },
        {
          "name": "miningTime",
          "type": "uint256"
        },
        {
          "name": "Inventor",
          "type": "address"
        }
      ],
      "payable": false,
      "stateMutability": "view",
      "type": "function"
    },
    {
      "constant": true,
      "inputs": [],
      "name": "CPB",
      "outputs": [
        {
          "name": "",
          "type": "address"
        }
      ],
      "payable": false,
      "stateMutability": "view",
      "type": "function"
    },
    {
      "constant": true,
      "inputs": [],
      "name": "numProposals",
      "outputs": [
        {
          "name": "",
          "type": "uint256"
        }
      ],
      "payable": false,
      "stateMutability": "view",
      "type": "function"
    },
    {
      "constant": true,
      "inputs": [],
      "name": "IDC",
      "outputs": [
        {
          "name": "",
          "type": "address"
        }
      ],
      "payable": false,
      "stateMutability": "view",
      "type": "function"
    },
    {
      "constant": false,
      "inputs": [],
      "name": "renounceOwnership",
      "outputs": [],
      "payable": false,
      "stateMutability": "nonpayable",
      "type": "function"
    },
    {
      "constant": true,
      "inputs": [],
      "name": "minimumQuorum",
      "outputs": [
        {
          "name": "",
          "type": "uint256"
        }
      ],
      "payable": false,
      "stateMutability": "view",
      "type": "function"
    },
    {
      "constant": true,
      "inputs": [],
      "name": "owner",
      "outputs": [
        {
          "name": "",
          "type": "address"
        }
      ],
      "payable": false,
      "stateMutability": "view",
      "type": "function"
    },
    {
      "constant": false,
      "inputs": [
        {
          "name": "_newOwner",
          "type": "address"
        }
      ],
      "name": "transferOwnership",
      "outputs": [],
      "payable": false,
      "stateMutability": "nonpayable",
      "type": "function"
    },
    {
      "inputs": [
        {
          "name": "_IDC",
          "type": "address"
        }
      ],
      "payable": false,
      "stateMutability": "nonpayable",
      "type": "constructor"
    },
    {
      "anonymous": false,
      "inputs": [
        {
          "indexed": true,
          "name": "previousOwner",
          "type": "address"
        }
      ],
      "name": "OwnershipRenounced",
      "type": "event"
    },
    {
      "anonymous": false,
      "inputs": [
        {
          "indexed": true,
          "name": "previousOwner",
          "type": "address"
        },
        {
          "indexed": true,
          "name": "newOwner",
          "type": "address"
        }
      ],
      "name": "OwnershipTransferred",
      "type": "event"
    },
    {
      "constant": false,
      "inputs": [
        {
          "name": "_CPAdd",
          "type": "address"
        }
      ],
      "name": "setCPB_Add",
      "outputs": [],
      "payable": false,
      "stateMutability": "nonpayable",
      "type": "function"
    },
    {
      "constant": false,
      "inputs": [
        {
          "name": "_IDC",
          "type": "address"
        }
      ],
      "name": "setIDCadd",
      "outputs": [],
      "payable": false,
      "stateMutability": "nonpayable",
      "type": "function"
    },
    {
      "constant": false,
      "inputs": [
        {
          "name": "_add",
          "type": "address"
        },
        {
          "name": "_amount",
          "type": "uint256"
        }
      ],
      "name": "proxyMint",
      "outputs": [],
      "payable": false,
      "stateMutability": "nonpayable",
      "type": "function"
    },
    {
      "constant": false,
      "inputs": [
        {
          "name": "_add",
          "type": "address"
        },
        {
          "name": "_amount",
          "type": "uint256"
        }
      ],
      "name": "proxyBurn",
      "outputs": [],
      "payable": false,
      "stateMutability": "nonpayable",
      "type": "function"
    },
    {
      "constant": false,
      "inputs": [
        {
          "name": "_newContract",
          "type": "address"
        }
      ],
      "name": "addApprovedContract",
      "outputs": [],
      "payable": false,
      "stateMutability": "nonpayable",
      "type": "function"
    },
    {
      "constant": false,
      "inputs": [
        {
          "name": "_ideaIPFS",
          "type": "string"
        },
        {
          "name": "_globalUseBlockAmount",
          "type": "uint256"
        },
        {
          "name": "_miningTime",
          "type": "uint256"
        },
        {
          "name": "_royalty",
          "type": "uint256"
        },
        {
          "name": "_inventor",
          "type": "address"
        }
      ],
      "name": "proposeIdea",
      "outputs": [
        {
          "name": "IdeaProposalID",
          "type": "uint256"
        }
      ],
      "payable": false,
      "stateMutability": "nonpayable",
      "type": "function"
    },
    {
      "constant": false,
      "inputs": [
        {
          "name": "_ideaProposalID",
          "type": "uint256"
        }
      ],
      "name": "ideaBlockVote",
      "outputs": [],
      "payable": false,
      "stateMutability": "nonpayable",
      "type": "function"
    },
    {
      "constant": false,
      "inputs": [
        {
          "name": "_ideaProposalID",
          "type": "uint256"
        },
        {
          "name": "supportsProposal",
          "type": "bool"
        }
      ],
      "name": "vote",
      "outputs": [
        {
          "name": "voteID",
          "type": "uint256"
        }
      ],
      "payable": false,
      "stateMutability": "nonpayable",
      "type": "function"
    }
  ],
  "bytecode": "0x608060405234801561001057600080fd5b50604051602080611a5183398101806040528101908080519060200190929190505050336000806101000a81548173ffffffffffffffffffffffffffffffffffffffff021916908373ffffffffffffffffffffffffffffffffffffffff16021790555080600160006101000a81548173ffffffffffffffffffffffffffffffffffffffff021916908373ffffffffffffffffffffffffffffffffffffffff1602179055505061198d806100c46000396000f3006080604052600436106100e6576000357c0100000000000000000000000000000000000000000000000000000000900463ffffffff168063013cf08b146100eb578063029f3357146101f65780630c7d1b3f1461024d57806311c6096114610290578063135171be146102bd5780631f471ad0146103005780632b900ea61461034d578063400e39491461039057806352d2c11d146103bb578063715018a614610412578063744a20fd1461042957806377c28967146104765780638160f0b5146105315780638da5cb5b1461055c578063c9d27afe146105b3578063f2fde38b14610600575b600080fd5b3480156100f757600080fd5b5061011660048036038101908080359060200190929190505050610643565b604051808060200189151515158152602001881515151581526020018781526020018681526020018581526020018481526020018373ffffffffffffffffffffffffffffffffffffffff1673ffffffffffffffffffffffffffffffffffffffff16815260200182810382528a818151815260200191508051906020019080838360005b838110156101b4578082015181840152602081019050610199565b50505050905090810190601f1680156101e15780820380516001836020036101000a031916815260200191505b50995050505050505050505060405180910390f35b34801561020257600080fd5b5061020b61076c565b604051808273ffffffffffffffffffffffffffffffffffffffff1673ffffffffffffffffffffffffffffffffffffffff16815260200191505060405180910390f35b34801561025957600080fd5b5061028e600480360381019080803573ffffffffffffffffffffffffffffffffffffffff169060200190929190505050610792565b005b34801561029c57600080fd5b506102bb60048036038101908080359060200190929190505050610831565b005b3480156102c957600080fd5b506102fe600480360381019080803573ffffffffffffffffffffffffffffffffffffffff169060200190929190505050610b99565b005b34801561030c57600080fd5b5061034b600480360381019080803573ffffffffffffffffffffffffffffffffffffffff16906020019092919080359060200190929190505050610c4f565b005b34801561035957600080fd5b5061038e600480360381019080803573ffffffffffffffffffffffffffffffffffffffff169060200190929190505050610d8f565b005b34801561039c57600080fd5b506103a5610e2e565b6040518082815260200191505060405180910390f35b3480156103c757600080fd5b506103d0610e34565b604051808273ffffffffffffffffffffffffffffffffffffffff1673ffffffffffffffffffffffffffffffffffffffff16815260200191505060405180910390f35b34801561041e57600080fd5b50610427610e5a565b005b34801561043557600080fd5b50610474600480360381019080803573ffffffffffffffffffffffffffffffffffffffff16906020019092919080359060200190929190505050610f5c565b005b34801561048257600080fd5b5061051b600480360381019080803590602001908201803590602001908080601f0160208091040260200160405190810160405280939291908181526020018383808284378201915050505050509192919290803590602001909291908035906020019092919080359060200190929190803573ffffffffffffffffffffffffffffffffffffffff16906020019092919050505061109c565b6040518082815260200191505060405180910390f35b34801561053d57600080fd5b5061054661119c565b6040518082815260200191505060405180910390f35b34801561056857600080fd5b506105716111a2565b604051808273ffffffffffffffffffffffffffffffffffffffff1673ffffffffffffffffffffffffffffffffffffffff16815260200191505060405180910390f35b3480156105bf57600080fd5b506105ea600480360381019080803590602001909291908035151590602001909291905050506111c7565b6040518082815260200191505060405180910390f35b34801561060c57600080fd5b50610641600480360381019080803573ffffffffffffffffffffffffffffffffffffffff169060200190929190505050611498565b005b60058181548110151561065257fe5b9060005260206000209060090201600091509050806000018054600181600116156101000203166002900480601f0160208091040260200160405190810160405280929190818152602001828054600181600116156101000203166002900480156106fe5780601f106106d3576101008083540402835291602001916106fe565b820191906000526020600020905b8154815290600101906020018083116106e157829003601f168201915b5050505050908060010160009054906101000a900460ff16908060010160019054906101000a900460ff16908060020154908060030154908060040154908060050154908060060160009054906101000a900473ffffffffffffffffffffffffffffffffffffffff16905088565b600260009054906101000a900473ffffffffffffffffffffffffffffffffffffffff1681565b6000809054906101000a900473ffffffffffffffffffffffffffffffffffffffff1673ffffffffffffffffffffffffffffffffffffffff163373ffffffffffffffffffffffffffffffffffffffff161415156107ed57600080fd5b80600160006101000a81548173ffffffffffffffffffffffffffffffffffffffff021916908373ffffffffffffffffffffffffffffffffffffffff16021790555050565b6000806000806000806000806000806000806000809054906101000a900473ffffffffffffffffffffffffffffffffffffffff1673ffffffffffffffffffffffffffffffffffffffff163373ffffffffffffffffffffffffffffffffffffffff1614151561089e57600080fd5b60058d8154811015156108ad57fe5b90600052602060002090600902019b508b60010160009054906101000a900460ff161515156108db57600080fd5b8b6000019a508b6003015499508b6005015498508b6004015497506000965060009550600094508b60060160009054906101000a900473ffffffffffffffffffffffffffffffffffffffff1693506109316114ff565b600092505b8b6007018054905083101561099d578b6007018381548110151561095657fe5b9060005260206000200191506001905080870196508160000160009054906101000a900460ff161561098c578086019550610992565b80850194505b826001019250610936565b60045487101515156109ae57600080fd5b84861115610b6c5760018c60010160006101000a81548160ff02191690831515021790555060018c60010160016101000a81548160ff021916908315150217905550600260009054906101000a900473ffffffffffffffffffffffffffffffffffffffff1673ffffffffffffffffffffffffffffffffffffffff1663cb2d97f88c8c8c8c896040518663ffffffff167c010000000000000000000000000000000000000000000000000000000002815260040180806020018681526020018581526020018481526020018373ffffffffffffffffffffffffffffffffffffffff1673ffffffffffffffffffffffffffffffffffffffff168152602001828103825287818154600181600116156101000203166002900481526020019150805460018160011615610100020316600290048015610b2b5780601f10610b0057610100808354040283529160200191610b2b565b820191906000526020600020905b815481529060010190602001808311610b0e57829003601f168201915b50509650505050505050600060405180830381600087803b158015610b4f57600080fd5b505af1158015610b63573d6000803e3d6000fd5b50505050610b8a565b60008c60010160016101000a81548160ff0219169083151502179055505b50505050505050505050505050565b6000809054906101000a900473ffffffffffffffffffffffffffffffffffffffff1673ffffffffffffffffffffffffffffffffffffffff163373ffffffffffffffffffffffffffffffffffffffff16141515610bf457600080fd5b6001600660008373ffffffffffffffffffffffffffffffffffffffff1673ffffffffffffffffffffffffffffffffffffffff16815260200190815260200160002060006101000a81548160ff02191690831515021790555050565b60011515600660003373ffffffffffffffffffffffffffffffffffffffff1673ffffffffffffffffffffffffffffffffffffffff16815260200190815260200160002060009054906101000a900460ff161515141515610cae57600080fd5b600160009054906101000a900473ffffffffffffffffffffffffffffffffffffffff1673ffffffffffffffffffffffffffffffffffffffff166340c10f1983836040518363ffffffff167c0100000000000000000000000000000000000000000000000000000000028152600401808373ffffffffffffffffffffffffffffffffffffffff1673ffffffffffffffffffffffffffffffffffffffff16815260200182815260200192505050600060405180830381600087803b158015610d7357600080fd5b505af1158015610d87573d6000803e3d6000fd5b505050505050565b6000809054906101000a900473ffffffffffffffffffffffffffffffffffffffff1673ffffffffffffffffffffffffffffffffffffffff163373ffffffffffffffffffffffffffffffffffffffff16141515610dea57600080fd5b80600260006101000a81548173ffffffffffffffffffffffffffffffffffffffff021916908373ffffffffffffffffffffffffffffffffffffffff16021790555050565b60035481565b600160009054906101000a900473ffffffffffffffffffffffffffffffffffffffff1681565b6000809054906101000a900473ffffffffffffffffffffffffffffffffffffffff1673ffffffffffffffffffffffffffffffffffffffff163373ffffffffffffffffffffffffffffffffffffffff16141515610eb557600080fd5b6000809054906101000a900473ffffffffffffffffffffffffffffffffffffffff1673ffffffffffffffffffffffffffffffffffffffff167ff8df31144d9c2f0f6b59d69b8b98abd5459d07f2742c4df920b25aae33c6482060405160405180910390a260008060006101000a81548173ffffffffffffffffffffffffffffffffffffffff021916908373ffffffffffffffffffffffffffffffffffffffff160217905550565b60011515600660003373ffffffffffffffffffffffffffffffffffffffff1673ffffffffffffffffffffffffffffffffffffffff16815260200190815260200160002060009054906101000a900460ff161515141515610fbb57600080fd5b600160009054906101000a900473ffffffffffffffffffffffffffffffffffffffff1673ffffffffffffffffffffffffffffffffffffffff16639dc29fac83836040518363ffffffff167c0100000000000000000000000000000000000000000000000000000000028152600401808373ffffffffffffffffffffffffffffffffffffffff1673ffffffffffffffffffffffffffffffffffffffff16815260200182815260200192505050600060405180830381600087803b15801561108057600080fd5b505af1158015611094573d6000803e3d6000fd5b505050505050565b600080600580548091906001016110b391906116ed565b91506005828154811015156110c457fe5b90600052602060002090600902019050868160000190805190602001906110ec92919061171f565b5060008160010160006101000a81548160ff02191690831515021790555060008160010160016101000a81548160ff02191690831515021790555060008160020181905550858160030181905550828160060160006101000a81548173ffffffffffffffffffffffffffffffffffffffff021916908373ffffffffffffffffffffffffffffffffffffffff1602179055508481600501819055508381600401819055508191505095945050505050565b60045481565b6000809054906101000a900473ffffffffffffffffffffffffffffffffffffffff1681565b6000806000600260009054906101000a900473ffffffffffffffffffffffffffffffffffffffff1673ffffffffffffffffffffffffffffffffffffffff16634951f6aa336040518263ffffffff167c0100000000000000000000000000000000000000000000000000000000028152600401808273ffffffffffffffffffffffffffffffffffffffff1673ffffffffffffffffffffffffffffffffffffffff168152602001915050602060405180830381600087803b15801561128957600080fd5b505af115801561129d573d6000803e3d6000fd5b505050506040513d60208110156112b357600080fd5b81019080805190602001909291905050509050600115158115151415156112d957600080fd5b6005858154811015156112e857fe5b90600052602060002090600902019150600115158260080160003373ffffffffffffffffffffffffffffffffffffffff1673ffffffffffffffffffffffffffffffffffffffff16815260200190815260200160002060009054906101000a900460ff1615151415151561135a57600080fd5b816007018054809190600101611370919061179f565b9250604080519081016040528085151581526020013373ffffffffffffffffffffffffffffffffffffffff1681525082600701848154811015156113b057fe5b9060005260206000200160008201518160000160006101000a81548160ff02191690831515021790555060208201518160000160016101000a81548173ffffffffffffffffffffffffffffffffffffffff021916908373ffffffffffffffffffffffffffffffffffffffff16021790555090505060018260080160003373ffffffffffffffffffffffffffffffffffffffff1673ffffffffffffffffffffffffffffffffffffffff16815260200190815260200160002060006101000a81548160ff021916908315150217905550828060010193508260020181905550829250505092915050565b6000809054906101000a900473ffffffffffffffffffffffffffffffffffffffff1673ffffffffffffffffffffffffffffffffffffffff163373ffffffffffffffffffffffffffffffffffffffff161415156114f357600080fd5b6114fc816115f3565b50565b6000806000600260009054906101000a900473ffffffffffffffffffffffffffffffffffffffff1673ffffffffffffffffffffffffffffffffffffffff1663997072f76040518163ffffffff167c0100000000000000000000000000000000000000000000000000000000028152600401602060405180830381600087803b15801561158a57600080fd5b505af115801561159e573d6000803e3d6000fd5b505050506040513d60208110156115b457600080fd5b81019080805190602001909291905050509250600a838115156115d357fe5b0491506002838115156115e257fe5b049050818101600481905550505050565b600073ffffffffffffffffffffffffffffffffffffffff168173ffffffffffffffffffffffffffffffffffffffff161415151561162f57600080fd5b8073ffffffffffffffffffffffffffffffffffffffff166000809054906101000a900473ffffffffffffffffffffffffffffffffffffffff1673ffffffffffffffffffffffffffffffffffffffff167f8be0079c531659141344cd1fd0a4f28419497f9722a3daafe3b4186f6b6457e060405160405180910390a3806000806101000a81548173ffffffffffffffffffffffffffffffffffffffff021916908373ffffffffffffffffffffffffffffffffffffffff16021790555050565b81548183558181111561171a5760090281600902836000526020600020918201910161171991906117cb565b5b505050565b828054600181600116156101000203166002900490600052602060002090601f016020900481019282601f1061176057805160ff191683800117855561178e565b8280016001018555821561178e579182015b8281111561178d578251825591602001919060010190611772565b5b50905061179b9190611879565b5090565b8154818355818111156117c6578183600052602060002091820191016117c5919061189e565b5b505050565b61187691905b8082111561187257600080820160006117ea91906118f8565b6001820160006101000a81549060ff02191690556001820160016101000a81549060ff021916905560028201600090556003820160009055600482016000905560058201600090556006820160006101000a81549073ffffffffffffffffffffffffffffffffffffffff02191690556007820160006118699190611940565b506009016117d1565b5090565b90565b61189b91905b8082111561189757600081600090555060010161187f565b5090565b90565b6118f591905b808211156118f157600080820160006101000a81549060ff02191690556000820160016101000a81549073ffffffffffffffffffffffffffffffffffffffff0219169055506001016118a4565b5090565b90565b50805460018160011615610100020316600290046000825580601f1061191e575061193d565b601f01602090049060005260206000209081019061193c9190611879565b5b50565b508054600082559060005260206000209081019061195e919061189e565b505600a165627a7a723058207dd4b84eb621823e40cbdcec9fad6e03aa462e1a81f52bfe81312256493d2e180029",
  "source": "pragma solidity ^0.4.21;\n\nimport \"zeppelin-solidity/contracts/ownership/Ownable.sol\";\n\n////////////////////////////////////////////////////////////////////////////////////////////\ncontract IdeaCoin {\n    function mint(address _to, uint256 _value) external;\n    function burn(address _from, uint256 _value)  external;\n\n}\n/////////////////////////////////////////////////////////////////////////////////////////////\ncontract CryptoPatentBlockchain{\n  function generateIdeaBlock(string _ideaIPFS, uint  _globalUseBlockAmount, uint _miningTime, uint _royalty, address _inventor) external;\n    function checkIfMember(address _member) public view returns(bool);\n      function getMemberCount() public view returns(uint);\n}\n/////////////////////////////////////////////////////////////////////////////////////////////\n contract DCInterface is Ownable {\n\n   IdeaCoin public IDC;\n   CryptoPatentBlockchain public CPB;\n   uint public numProposals;\n   //tracks number of dev team proposals\n   uint public minimumQuorum;\n   //minimum quorum to be reached for a proposal to pass\n   IdeaProposal[] public proposals;\n   // array of proposal structs...stores the proposals\n\n\n   mapping(address => bool) approvedContracts;\n\n   modifier onlyApprovedAdd() {\n     require(approvedContracts[msg.sender] == true);\n     _;\n   }\n   //modifier requires that the address calling a function is a replication\n\n   modifier onlyMember() {\n     bool member = CPB.checkIfMember(msg.sender);\n      require(member == true);\n      _;\n  }\n\n  constructor(IdeaCoin _IDC) public {\n      IDC=(_IDC);\n    }\n\n\n     struct IdeaProposal {\n          string IdeaIPFS;\n          bool executed;\n          bool proposalPassed;\n          uint numberOfVotes;\n          uint GlobalUseAmount;\n          uint royalty;\n          uint miningTime;\n          address Inventor;\n          Vote[] votes;\n          mapping (address => bool) voted;\n      }\n\n\n\n   //Proposal struct stores info of a proposal\n     struct Vote {\n             bool inSupport;\n             address voter;\n         }\n\n         function set_Quorum() internal  {\n          uint maxQuorum = CPB.getMemberCount();\n          uint tenthQuorum = (maxQuorum / 10);\n          uint  halfQuorum = (maxQuorum / 2);\n           minimumQuorum = (halfQuorum + tenthQuorum);\n          }\n\n\n function setCPB_Add(CryptoPatentBlockchain _CPAdd) public onlyOwner {\n   CPB = (_CPAdd);\n }\n\n\n function setIDCadd(IdeaCoin _IDC) public onlyOwner {\n   IDC = (_IDC);\n }\n\n function proxyMint(address _add, uint _amount) external onlyApprovedAdd {\n   IDC.mint(_add, _amount);\n }\n\n function proxyBurn(address _add,  uint _amount) external onlyApprovedAdd {\n   IDC.burn(_add, _amount);\n }\n\n function addApprovedContract(address _newContract) public onlyOwner {\n   approvedContracts[_newContract] = true;\n }\n\n\n function proposeIdea(\n   string _ideaIPFS,\n   uint  _globalUseBlockAmount,\n   uint _miningTime,\n   uint _royalty,\n   address _inventor\n     )\n         public\n         returns (uint IdeaProposalID)\n     {\n\n         IdeaProposalID = proposals.length++;\n         IdeaProposal storage p = proposals[IdeaProposalID];\n         p.IdeaIPFS = _ideaIPFS;\n         p.executed = false;\n         p.proposalPassed = false;\n         p.numberOfVotes = 0;\n         p.GlobalUseAmount = _globalUseBlockAmount;\n         p.Inventor = _inventor;\n         p.miningTime = _miningTime;\n         p.royalty = _royalty;\n         return IdeaProposalID;\n\n     }\n\n\n     function ideaBlockVote(uint _ideaProposalID) public onlyOwner {\n       IdeaProposal storage p = proposals[_ideaProposalID];\n       // sets p equal to the specific proposalNumber\n       require(!p.executed);\n       string  _ideahash = p.IdeaIPFS;\n       uint  _globalUseBlockAmount = p.GlobalUseAmount;\n       uint  _miningTime = p.miningTime;\n       uint  _royalty = p.royalty;\n       uint quorum = 0;\n       uint yea = 0;\n       uint nay = 0;\n       address  _inventor = p.Inventor;\n       set_Quorum();\n\n\n       for (uint i = 0; i <  p.votes.length; ++i) {\n           Vote storage v = p.votes[i];\n           uint voteWeight = 1;\n           quorum += voteWeight;\n           if (v.inSupport) {\n               yea += voteWeight;\n           } else {\n               nay += voteWeight;\n           }\n       }\n\n       require(quorum >= minimumQuorum); // Check if a minimum quorum has been reached\n\n       if (yea > nay ) {\n           // Proposal passed; execute the transaction\n\n           p.executed = true;\n           p.proposalPassed = true;\n           CPB.generateIdeaBlock( _ideahash,  _globalUseBlockAmount, _miningTime, _royalty, _inventor);\n       } else {\n           // Proposal failed\n           p.proposalPassed = false;\n       }\n\n\n   }\n\n   function vote(\n          uint _ideaProposalID,\n          bool supportsProposal\n      )\n          public\n          onlyMember\n          returns (uint voteID)\n      {\n          IdeaProposal storage p = proposals[_ideaProposalID];\n          require(p.voted[msg.sender] != true);\n\n          voteID = p.votes.length++;\n          p.votes[voteID] = Vote({inSupport: supportsProposal, voter: msg.sender});\n          p.voted[msg.sender] = true;\n          p.numberOfVotes = voteID++;\n\n          return voteID;\n      }\n// allows members to vote on proposals\n\n}\n",
  "sourcePath": "/home/stan36/repos/DecentraCorp/contracts/CryptoPatent/DecentraCorpPoA.sol",
  "compiler": {
    "name": "solc",
    "version": "0.4.24+commit.e67f0147.Emscripten.clang"
  },
  "schemaVersion": "2.0.1",
  "updatedAt": "2018-10-27T03:18:08.609Z"
}