{
  "contractName": "DecentraCorpPoA",
  "abi": [
    {
      "constant": true,
      "inputs": [],
      "name": "IDC",
      "outputs": [
        {
          "name": "",
          "type": "address"
        }
      ],
      "payable": false,
      "stateMutability": "view",
      "type": "function"
    },
    {
      "constant": false,
      "inputs": [],
      "name": "renounceOwnership",
      "outputs": [],
      "payable": false,
      "stateMutability": "nonpayable",
      "type": "function"
    },
    {
      "constant": true,
      "inputs": [],
      "name": "owner",
      "outputs": [
        {
          "name": "",
          "type": "address"
        }
      ],
      "payable": false,
      "stateMutability": "view",
      "type": "function"
    },
    {
      "constant": false,
      "inputs": [
        {
          "name": "_newOwner",
          "type": "address"
        }
      ],
      "name": "transferOwnership",
      "outputs": [],
      "payable": false,
      "stateMutability": "nonpayable",
      "type": "function"
    },
    {
      "inputs": [
        {
          "name": "_IDC",
          "type": "address"
        }
      ],
      "payable": false,
      "stateMutability": "nonpayable",
      "type": "constructor"
    },
    {
      "anonymous": false,
      "inputs": [
        {
          "indexed": true,
          "name": "previousOwner",
          "type": "address"
        }
      ],
      "name": "OwnershipRenounced",
      "type": "event"
    },
    {
      "anonymous": false,
      "inputs": [
        {
          "indexed": true,
          "name": "previousOwner",
          "type": "address"
        },
        {
          "indexed": true,
          "name": "newOwner",
          "type": "address"
        }
      ],
      "name": "OwnershipTransferred",
      "type": "event"
    },
    {
      "constant": false,
      "inputs": [
        {
          "name": "_IDC",
          "type": "address"
        }
      ],
      "name": "setIDCadd",
      "outputs": [],
      "payable": false,
      "stateMutability": "nonpayable",
      "type": "function"
    },
    {
      "constant": false,
      "inputs": [
        {
          "name": "_add",
          "type": "address"
        },
        {
          "name": "_amount",
          "type": "uint256"
        }
      ],
      "name": "proxyMint",
      "outputs": [],
      "payable": false,
      "stateMutability": "nonpayable",
      "type": "function"
    },
    {
      "constant": false,
      "inputs": [
        {
          "name": "_add",
          "type": "address"
        },
        {
          "name": "_amount",
          "type": "uint256"
        }
      ],
      "name": "proxyBurn",
      "outputs": [],
      "payable": false,
      "stateMutability": "nonpayable",
      "type": "function"
    },
    {
      "constant": false,
      "inputs": [
        {
          "name": "_newContract",
          "type": "address"
        }
      ],
      "name": "addApprovedContract",
      "outputs": [],
      "payable": false,
      "stateMutability": "nonpayable",
      "type": "function"
    },
    {
      "constant": false,
      "inputs": [
        {
          "name": "_amount",
          "type": "uint256"
        },
        {
          "name": "_add",
          "type": "address"
        }
      ],
      "name": "exchangeChaosCoin",
      "outputs": [],
      "payable": false,
      "stateMutability": "nonpayable",
      "type": "function"
    }
  ],
  "bytecode": "0x608060405234801561001057600080fd5b50604051602080610b3083398101806040528101908080519060200190929190505050336000806101000a81548173ffffffffffffffffffffffffffffffffffffffff021916908373ffffffffffffffffffffffffffffffffffffffff16021790555080600160006101000a81548173ffffffffffffffffffffffffffffffffffffffff021916908373ffffffffffffffffffffffffffffffffffffffff16021790555050610a6c806100c46000396000f300608060405260043610610099576000357c0100000000000000000000000000000000000000000000000000000000900463ffffffff1680630c7d1b3f1461009e578063135171be146100e15780631f471ad01461012457806352d2c11d146101715780635c779a92146101c8578063715018a614610215578063744a20fd1461022c5780638da5cb5b14610279578063f2fde38b146102d0575b600080fd5b3480156100aa57600080fd5b506100df600480360381019080803573ffffffffffffffffffffffffffffffffffffffff169060200190929190505050610313565b005b3480156100ed57600080fd5b50610122600480360381019080803573ffffffffffffffffffffffffffffffffffffffff1690602001909291905050506103b2565b005b34801561013057600080fd5b5061016f600480360381019080803573ffffffffffffffffffffffffffffffffffffffff16906020019092919080359060200190929190505050610468565b005b34801561017d57600080fd5b506101866105a8565b604051808273ffffffffffffffffffffffffffffffffffffffff1673ffffffffffffffffffffffffffffffffffffffff16815260200191505060405180910390f35b3480156101d457600080fd5b5061021360048036038101908080359060200190929190803573ffffffffffffffffffffffffffffffffffffffff1690602001909291905050506105ce565b005b34801561022157600080fd5b5061022a610678565b005b34801561023857600080fd5b50610277600480360381019080803573ffffffffffffffffffffffffffffffffffffffff1690602001909291908035906020019092919050505061077a565b005b34801561028557600080fd5b5061028e6108ba565b604051808273ffffffffffffffffffffffffffffffffffffffff1673ffffffffffffffffffffffffffffffffffffffff16815260200191505060405180910390f35b3480156102dc57600080fd5b50610311600480360381019080803573ffffffffffffffffffffffffffffffffffffffff1690602001909291905050506108df565b005b6000809054906101000a900473ffffffffffffffffffffffffffffffffffffffff1673ffffffffffffffffffffffffffffffffffffffff163373ffffffffffffffffffffffffffffffffffffffff1614151561036e57600080fd5b80600160006101000a81548173ffffffffffffffffffffffffffffffffffffffff021916908373ffffffffffffffffffffffffffffffffffffffff16021790555050565b6000809054906101000a900473ffffffffffffffffffffffffffffffffffffffff1673ffffffffffffffffffffffffffffffffffffffff163373ffffffffffffffffffffffffffffffffffffffff1614151561040d57600080fd5b6001600260008373ffffffffffffffffffffffffffffffffffffffff1673ffffffffffffffffffffffffffffffffffffffff16815260200190815260200160002060006101000a81548160ff02191690831515021790555050565b60011515600260003373ffffffffffffffffffffffffffffffffffffffff1673ffffffffffffffffffffffffffffffffffffffff16815260200190815260200160002060009054906101000a900460ff1615151415156104c757600080fd5b600160009054906101000a900473ffffffffffffffffffffffffffffffffffffffff1673ffffffffffffffffffffffffffffffffffffffff166340c10f1983836040518363ffffffff167c0100000000000000000000000000000000000000000000000000000000028152600401808373ffffffffffffffffffffffffffffffffffffffff1673ffffffffffffffffffffffffffffffffffffffff16815260200182815260200192505050600060405180830381600087803b15801561058c57600080fd5b505af11580156105a0573d6000803e3d6000fd5b505050505050565b600160009054906101000a900473ffffffffffffffffffffffffffffffffffffffff1681565b60011515600260003373ffffffffffffffffffffffffffffffffffffffff1673ffffffffffffffffffffffffffffffffffffffff16815260200190815260200160002060009054906101000a900460ff16151514151561062d57600080fd5b8073ffffffffffffffffffffffffffffffffffffffff166108fc839081150290604051600060405180830381858888f19350505050158015610673573d6000803e3d6000fd5b505050565b6000809054906101000a900473ffffffffffffffffffffffffffffffffffffffff1673ffffffffffffffffffffffffffffffffffffffff163373ffffffffffffffffffffffffffffffffffffffff161415156106d357600080fd5b6000809054906101000a900473ffffffffffffffffffffffffffffffffffffffff1673ffffffffffffffffffffffffffffffffffffffff167ff8df31144d9c2f0f6b59d69b8b98abd5459d07f2742c4df920b25aae33c6482060405160405180910390a260008060006101000a81548173ffffffffffffffffffffffffffffffffffffffff021916908373ffffffffffffffffffffffffffffffffffffffff160217905550565b60011515600260003373ffffffffffffffffffffffffffffffffffffffff1673ffffffffffffffffffffffffffffffffffffffff16815260200190815260200160002060009054906101000a900460ff1615151415156107d957600080fd5b600160009054906101000a900473ffffffffffffffffffffffffffffffffffffffff1673ffffffffffffffffffffffffffffffffffffffff16639dc29fac83836040518363ffffffff167c0100000000000000000000000000000000000000000000000000000000028152600401808373ffffffffffffffffffffffffffffffffffffffff1673ffffffffffffffffffffffffffffffffffffffff16815260200182815260200192505050600060405180830381600087803b15801561089e57600080fd5b505af11580156108b2573d6000803e3d6000fd5b505050505050565b6000809054906101000a900473ffffffffffffffffffffffffffffffffffffffff1681565b6000809054906101000a900473ffffffffffffffffffffffffffffffffffffffff1673ffffffffffffffffffffffffffffffffffffffff163373ffffffffffffffffffffffffffffffffffffffff1614151561093a57600080fd5b61094381610946565b50565b600073ffffffffffffffffffffffffffffffffffffffff168173ffffffffffffffffffffffffffffffffffffffff161415151561098257600080fd5b8073ffffffffffffffffffffffffffffffffffffffff166000809054906101000a900473ffffffffffffffffffffffffffffffffffffffff1673ffffffffffffffffffffffffffffffffffffffff167f8be0079c531659141344cd1fd0a4f28419497f9722a3daafe3b4186f6b6457e060405160405180910390a3806000806101000a81548173ffffffffffffffffffffffffffffffffffffffff021916908373ffffffffffffffffffffffffffffffffffffffff160217905550505600a165627a7a723058208a8f6c4866c55b99d5ab85ff6cea74d6f17ff91dbd76b782a9800457cabc6fc50029",
  "source": "pragma solidity ^0.4.21;\n\nimport \"zeppelin-solidity/contracts/ownership/Ownable.sol\";\n////////////////////////////////////////////////////////////////////////////////////////////\ncontract IdeaCoin {\n    function mint(address _to, uint256 _value) external;\n    function burn(address _from, uint256 _value)  external;\n\n}\n//IdeaCoin interface\n/////////////////////////////////////////////////////////////////////////////////////////////\n\n contract DecentraCorpPoA is Ownable {\n\n   IdeaCoin public IDC;\n\n\n   mapping(address => bool) approvedContracts;\n\n   modifier onlyApprovedAdd() {\n     require(approvedContracts[msg.sender] == true);\n     _;\n   }\n   //modifier requires that the address calling a function is a replication\n   constructor(IdeaCoin _IDC) public {\n     IDC=(_IDC);\n   }\n\n\n\n   function setIDCadd(address _IDC) public onlyOwner {\n     IDC = IdeaCoin(_IDC);\n   }\n\n   function proxyMint(address _add, uint _amount) external onlyApprovedAdd {\n     IDC.mint(_add, _amount);\n   }\n\n   function proxyBurn(address _add,  uint _amount) external onlyApprovedAdd {\n     IDC.burn(_add, _amount);\n   }\n\n   function addApprovedContract(address _newContract) public onlyOwner {\n     approvedContracts[_newContract] = true;\n   }\n\n   function exchangeChaosCoin(uint _amount, address _add) public onlyApprovedAdd {\n     _add.transfer(_amount);\n   }\n\n }\n/*\n\npragma solidity ^0.4.21;\n\nimport \"zeppelin-solidity/contracts/ownership/Ownable.sol\";\n////////////////////////////////////////////////////////////////////////////////////////////\ncontract IdeaCoin {\n    function mint(address _to, uint256 _value) external;\n    function burn(address _from, uint256 _value)  external;\n\n}\n/////////////////////////////////////////////////////////////////////////////////////////////\ncontract CryptoPatentBlockchain{\n  function generateIdeaBlock(string _ideaIPFS, uint  _globalUseBlockAmount, uint _miningTime, uint _royalty, address _inventor) external;\n    function checkIfMember(address _member) public view returns(bool);\n      function getMemberCount() public view returns(uint);\n}\n/////////////////////////////////////////////////////////////////////////////////////////////\n contract DCInterface is Ownable {\n\n   IdeaCoin public IDC;\n   CryptoPatentBlockchain public CPB;\n   uint public numProposals;\n   //tracks number of dev team proposals\n   uint public minimumQuorum;\n   //minimum quorum to be reached for a proposal to pass\n   IdeaProposal[] public proposals;\n   // array of proposal structs...stores the proposals\n\n\n   mapping(address => bool) approvedContracts;\n\n   modifier onlyApprovedAdd() {\n     require(approvedContracts[msg.sender] == true);\n     _;\n   }\n   //modifier requires that the address calling a function is a replication\n\n   modifier onlyMember() {\n     bool member = CPB.checkIfMember(msg.sender);\n      require(member == true);\n      _;\n  }\n\n  constructor(IdeaCoin _IDC) public {\n      IDC=(_IDC);\n    }\n\n\n     struct IdeaProposal {\n          string IdeaIPFS;\n          bool executed;\n          bool proposalPassed;\n          uint numberOfVotes;\n          uint GlobalUseAmount;\n          uint royalty;\n          uint miningTime;\n          address Inventor;\n          Vote[] votes;\n          mapping (address => bool) voted;\n      }\n\n\n\n   //Proposal struct stores info of a proposal\n     struct Vote {\n             bool inSupport;\n             address voter;\n         }\n\n         function set_Quorum() internal  {\n          uint maxQuorum = CPB.getMemberCount();\n          uint tenthQuorum = (maxQuorum / 10);\n          uint  halfQuorum = (maxQuorum / 2);\n           minimumQuorum = (halfQuorum + tenthQuorum);\n          }\n\n\n function setCPB_Add(CryptoPatentBlockchain _CPAdd) public onlyOwner {\n   CPB = (_CPAdd);\n }\n\n\n function setIDCadd(IdeaCoin _IDC) public onlyOwner {\n   IDC = (_IDC);\n }\n\n function proxyMint(address _add, uint _amount) external onlyApprovedAdd {\n   IDC.mint(_add, _amount);\n }\n\n function proxyBurn(address _add,  uint _amount) external onlyApprovedAdd {\n   IDC.burn(_add, _amount);\n }\n\n function addApprovedContract(address _newContract) public onlyOwner {\n   approvedContracts[_newContract] = true;\n }\n\n\n function proposeIdea(\n   string _ideaIPFS,\n   uint  _globalUseBlockAmount,\n   uint _miningTime,\n   uint _royalty,\n   address _inventor\n     )\n         public\n         returns (uint IdeaProposalID)\n     {\n\n         IdeaProposalID = proposals.length++;\n         IdeaProposal storage p = proposals[IdeaProposalID];\n         p.IdeaIPFS = _ideaIPFS;\n         p.executed = false;\n         p.proposalPassed = false;\n         p.numberOfVotes = 0;\n         p.GlobalUseAmount = _globalUseBlockAmount;\n         p.Inventor = _inventor;\n         p.miningTime = _miningTime;\n         p.royalty = _royalty;\n         return IdeaProposalID;\n\n     }\n\n\n     function ideaBlockVote(uint _ideaProposalID) public onlyOwner {\n       IdeaProposal storage p = proposals[_ideaProposalID];\n       // sets p equal to the specific proposalNumber\n       require(!p.executed);\n       string  _ideahash = p.IdeaIPFS;\n       uint  _globalUseBlockAmount = p.GlobalUseAmount;\n       uint  _miningTime = p.miningTime;\n       uint  _royalty = p.royalty;\n       uint quorum = 0;\n       uint yea = 0;\n       uint nay = 0;\n       address  _inventor = p.Inventor;\n       set_Quorum();\n\n\n       for (uint i = 0; i <  p.votes.length; ++i) {\n           Vote storage v = p.votes[i];\n           uint voteWeight = 1;\n           quorum += voteWeight;\n           if (v.inSupport) {\n               yea += voteWeight;\n           } else {\n               nay += voteWeight;\n           }\n       }\n\n       require(quorum >= minimumQuorum); // Check if a minimum quorum has been reached\n\n       if (yea > nay ) {\n           // Proposal passed; execute the transaction\n\n           p.executed = true;\n           p.proposalPassed = true;\n           CPB.generateIdeaBlock( _ideahash,  _globalUseBlockAmount, _miningTime, _royalty, _inventor);\n       } else {\n           // Proposal failed\n           p.proposalPassed = false;\n       }\n\n\n   }\n\n   function vote(\n          uint _ideaProposalID,\n          bool supportsProposal\n      )\n          public\n          onlyMember\n          returns (uint voteID)\n      {\n          IdeaProposal storage p = proposals[_ideaProposalID];\n          require(p.voted[msg.sender] != true);\n\n          voteID = p.votes.length++;\n          p.votes[voteID] = Vote({inSupport: supportsProposal, voter: msg.sender});\n          p.voted[msg.sender] = true;\n          p.numberOfVotes = voteID++;\n\n          return voteID;\n      }\n// allows members to vote on proposals\n\n}\n*/\n",
  "sourcePath": "/home/stan36/repos/DecentraCorp/contracts/CryptoPatent/DecentraCorpPoA.sol",
  "compiler": {
    "name": "solc",
    "version": "0.4.24+commit.e67f0147.Emscripten.clang"
  },
  "schemaVersion": "2.0.1",
  "updatedAt": "2018-10-27T04:33:47.875Z"
}