{
  "contractName": "DecentraControlled",
  "abi": [
    {
      "constant": true,
      "inputs": [],
      "name": "globalEscrowCount",
      "outputs": [
        {
          "name": "",
          "type": "uint256"
        }
      ],
      "payable": false,
      "stateMutability": "view",
      "type": "function"
    },
    {
      "constant": true,
      "inputs": [],
      "name": "etherEarned",
      "outputs": [
        {
          "name": "",
          "type": "uint256"
        }
      ],
      "payable": false,
      "stateMutability": "view",
      "type": "function"
    },
    {
      "constant": true,
      "inputs": [],
      "name": "forSale",
      "outputs": [
        {
          "name": "",
          "type": "string"
        }
      ],
      "payable": false,
      "stateMutability": "view",
      "type": "function"
    },
    {
      "constant": true,
      "inputs": [],
      "name": "IDC",
      "outputs": [
        {
          "name": "",
          "type": "address"
        }
      ],
      "payable": false,
      "stateMutability": "view",
      "type": "function"
    },
    {
      "constant": true,
      "inputs": [],
      "name": "_IDC_PriceMod",
      "outputs": [
        {
          "name": "",
          "type": "uint256"
        }
      ],
      "payable": false,
      "stateMutability": "view",
      "type": "function"
    },
    {
      "constant": false,
      "inputs": [],
      "name": "renounceOwnership",
      "outputs": [],
      "payable": false,
      "stateMutability": "nonpayable",
      "type": "function"
    },
    {
      "constant": true,
      "inputs": [],
      "name": "decentraCorp",
      "outputs": [
        {
          "name": "",
          "type": "address"
        }
      ],
      "payable": false,
      "stateMutability": "view",
      "type": "function"
    },
    {
      "constant": true,
      "inputs": [],
      "name": "PoPT",
      "outputs": [
        {
          "name": "",
          "type": "address"
        }
      ],
      "payable": false,
      "stateMutability": "view",
      "type": "function"
    },
    {
      "constant": true,
      "inputs": [],
      "name": "owner",
      "outputs": [
        {
          "name": "",
          "type": "address"
        }
      ],
      "payable": false,
      "stateMutability": "view",
      "type": "function"
    },
    {
      "constant": true,
      "inputs": [],
      "name": "_DecentraCorpFee",
      "outputs": [
        {
          "name": "",
          "type": "uint256"
        }
      ],
      "payable": false,
      "stateMutability": "view",
      "type": "function"
    },
    {
      "constant": false,
      "inputs": [
        {
          "name": "_newOwner",
          "type": "address"
        }
      ],
      "name": "transferOwnership",
      "outputs": [],
      "payable": false,
      "stateMutability": "nonpayable",
      "type": "function"
    },
    {
      "anonymous": false,
      "inputs": [
        {
          "indexed": false,
          "name": "itemHash",
          "type": "string"
        }
      ],
      "name": "ItemForSale",
      "type": "event"
    },
    {
      "anonymous": false,
      "inputs": [
        {
          "indexed": true,
          "name": "previousOwner",
          "type": "address"
        }
      ],
      "name": "OwnershipRenounced",
      "type": "event"
    },
    {
      "anonymous": false,
      "inputs": [
        {
          "indexed": true,
          "name": "previousOwner",
          "type": "address"
        },
        {
          "indexed": true,
          "name": "newOwner",
          "type": "address"
        }
      ],
      "name": "OwnershipTransferred",
      "type": "event"
    },
    {
      "constant": true,
      "inputs": [],
      "name": "getDCDEtherBalance",
      "outputs": [
        {
          "name": "",
          "type": "uint256"
        }
      ],
      "payable": false,
      "stateMutability": "view",
      "type": "function"
    },
    {
      "constant": true,
      "inputs": [],
      "name": "getDCDPoPBalance",
      "outputs": [
        {
          "name": "",
          "type": "uint256"
        }
      ],
      "payable": false,
      "stateMutability": "view",
      "type": "function"
    },
    {
      "constant": false,
      "inputs": [
        {
          "name": "_itemId",
          "type": "uint256"
        },
        {
          "name": "_newIPFSHash",
          "type": "string"
        }
      ],
      "name": "updateItemPOPTokenIPFS",
      "outputs": [],
      "payable": false,
      "stateMutability": "nonpayable",
      "type": "function"
    },
    {
      "constant": false,
      "inputs": [
        {
          "name": "_newPoPAdd",
          "type": "address"
        }
      ],
      "name": "PoPTokenHF",
      "outputs": [],
      "payable": false,
      "stateMutability": "nonpayable",
      "type": "function"
    },
    {
      "constant": false,
      "inputs": [
        {
          "name": "_ipfsHash",
          "type": "string"
        }
      ],
      "name": "sellItem",
      "outputs": [],
      "payable": false,
      "stateMutability": "nonpayable",
      "type": "function"
    },
    {
      "constant": true,
      "inputs": [],
      "name": "getForSale",
      "outputs": [
        {
          "name": "",
          "type": "string"
        }
      ],
      "payable": false,
      "stateMutability": "view",
      "type": "function"
    }
  ],
  "bytecode": "0x608060405260006004556000600555600a60065566038d7ea4c68000600755336000806101000a81548173ffffffffffffffffffffffffffffffffffffffff021916908373ffffffffffffffffffffffffffffffffffffffff1602179055506110828061006d6000396000f3006080604052600436106100f1576000357c0100000000000000000000000000000000000000000000000000000000900463ffffffff1680630844dcbd146100f657806313a016641461012157806320e214441461014c578063466ccac0146101775780635046cff8146101a257806352d2c11d146101cd57806355578622146101f8578063715018a6146102235780637499d0a21461023a5780637ae2023414610265578063804c2cf814610290578063889fceb8146102bb5780638da5cb5b146102e4578063b0bbf6e01461030f578063b5fe72f914610338578063e105b30014610363578063f2fde38b1461038c575b600080fd5b34801561010257600080fd5b5061010b6103b5565b6040516101189190610e9f565b60405180910390f35b34801561012d57600080fd5b506101366103d4565b6040516101439190610e9f565b60405180910390f35b34801561015857600080fd5b506101616103da565b60405161016e9190610e9f565b60405180910390f35b34801561018357600080fd5b5061018c6103e0565b6040516101999190610e5b565b60405180910390f35b3480156101ae57600080fd5b506101b761047e565b6040516101c49190610e9f565b60405180910390f35b3480156101d957600080fd5b506101e261054e565b6040516101ef9190610e25565b60405180910390f35b34801561020457600080fd5b5061020d610574565b60405161021a9190610e9f565b60405180910390f35b34801561022f57600080fd5b5061023861057a565b005b34801561024657600080fd5b5061024f61067c565b60405161025c9190610e0a565b60405180910390f35b34801561027157600080fd5b5061027a6106a2565b6040516102879190610e40565b60405180910390f35b34801561029c57600080fd5b506102a56106c8565b6040516102b29190610e7d565b60405180910390f35b3480156102c757600080fd5b506102e260048036036102dd9190810190610c27565b61076a565b005b3480156102f057600080fd5b506102f9610809565b6040516103069190610dd4565b60405180910390f35b34801561031b57600080fd5b5061033660048036036103319190810190610cba565b61082e565b005b34801561034457600080fd5b5061034d610938565b60405161035a9190610e9f565b60405180910390f35b34801561036f57600080fd5b5061038a60048036036103859190810190610c50565b61093e565b005b34801561039857600080fd5b506103b360048036036103ae9190810190610c27565b61098f565b005b60003073ffffffffffffffffffffffffffffffffffffffff1631905090565b60055481565b60045481565b60088054600181600116156101000203166002900480601f0160208091040260200160405190810160405280929190818152602001828054600181600116156101000203166002900480156104765780601f1061044b57610100808354040283529160200191610476565b820191906000526020600020905b81548152906001019060200180831161045957829003601f168201915b505050505081565b6000600260009054906101000a900473ffffffffffffffffffffffffffffffffffffffff1673ffffffffffffffffffffffffffffffffffffffff166370a08231306040518263ffffffff167c01000000000000000000000000000000000000000000000000000000000281526004016104f79190610def565b602060405180830381600087803b15801561051157600080fd5b505af1158015610525573d6000803e3d6000fd5b505050506040513d601f19601f820116820180604052506105499190810190610c91565b905090565b600360009054906101000a900473ffffffffffffffffffffffffffffffffffffffff1681565b60065481565b6000809054906101000a900473ffffffffffffffffffffffffffffffffffffffff1673ffffffffffffffffffffffffffffffffffffffff163373ffffffffffffffffffffffffffffffffffffffff161415156105d557600080fd5b6000809054906101000a900473ffffffffffffffffffffffffffffffffffffffff1673ffffffffffffffffffffffffffffffffffffffff167ff8df31144d9c2f0f6b59d69b8b98abd5459d07f2742c4df920b25aae33c6482060405160405180910390a260008060006101000a81548173ffffffffffffffffffffffffffffffffffffffff021916908373ffffffffffffffffffffffffffffffffffffffff160217905550565b600160009054906101000a900473ffffffffffffffffffffffffffffffffffffffff1681565b600260009054906101000a900473ffffffffffffffffffffffffffffffffffffffff1681565b606060088054600181600116156101000203166002900480601f0160208091040260200160405190810160405280929190818152602001828054600181600116156101000203166002900480156107605780601f1061073557610100808354040283529160200191610760565b820191906000526020600020905b81548152906001019060200180831161074357829003601f168201915b5050505050905090565b6000809054906101000a900473ffffffffffffffffffffffffffffffffffffffff1673ffffffffffffffffffffffffffffffffffffffff163373ffffffffffffffffffffffffffffffffffffffff161415156107c557600080fd5b80600260006101000a81548173ffffffffffffffffffffffffffffffffffffffff021916908373ffffffffffffffffffffffffffffffffffffffff16021790555050565b6000809054906101000a900473ffffffffffffffffffffffffffffffffffffffff1681565b6000809054906101000a900473ffffffffffffffffffffffffffffffffffffffff1673ffffffffffffffffffffffffffffffffffffffff163373ffffffffffffffffffffffffffffffffffffffff1614151561088957600080fd5b600260009054906101000a900473ffffffffffffffffffffffffffffffffffffffff1673ffffffffffffffffffffffffffffffffffffffff16636ae4b41d83836040518363ffffffff167c0100000000000000000000000000000000000000000000000000000000028152600401610902929190610eba565b600060405180830381600087803b15801561091c57600080fd5b505af1158015610930573d6000803e3d6000fd5b505050505050565b60075481565b8060089080519060200190610954929190610af0565b507f3c99ff5506b5287b4e978fe4eb653868e109562a45612575df76d262a2038e16816040516109849190610e7d565b60405180910390a150565b6000809054906101000a900473ffffffffffffffffffffffffffffffffffffffff1673ffffffffffffffffffffffffffffffffffffffff163373ffffffffffffffffffffffffffffffffffffffff161415156109ea57600080fd5b6109f3816109f6565b50565b600073ffffffffffffffffffffffffffffffffffffffff168173ffffffffffffffffffffffffffffffffffffffff1614151515610a3257600080fd5b8073ffffffffffffffffffffffffffffffffffffffff166000809054906101000a900473ffffffffffffffffffffffffffffffffffffffff1673ffffffffffffffffffffffffffffffffffffffff167f8be0079c531659141344cd1fd0a4f28419497f9722a3daafe3b4186f6b6457e060405160405180910390a3806000806101000a81548173ffffffffffffffffffffffffffffffffffffffff021916908373ffffffffffffffffffffffffffffffffffffffff16021790555050565b828054600181600116156101000203166002900490600052602060002090601f016020900481019282601f10610b3157805160ff1916838001178555610b5f565b82800160010185558215610b5f579182015b82811115610b5e578251825591602001919060010190610b43565b5b509050610b6c9190610b70565b5090565b610b9291905b80821115610b8e576000816000905550600101610b76565b5090565b90565b6000610ba18235610f83565b905092915050565b600082601f8301121515610bbc57600080fd5b8135610bcf610bca82610f17565b610eea565b91508082526020830160208301858383011115610beb57600080fd5b610bf6838284610ff5565b50505092915050565b6000610c0b8235610fa3565b905092915050565b6000610c1f8251610fa3565b905092915050565b600060208284031215610c3957600080fd5b6000610c4784828501610b95565b91505092915050565b600060208284031215610c6257600080fd5b600082013567ffffffffffffffff811115610c7c57600080fd5b610c8884828501610ba9565b91505092915050565b600060208284031215610ca357600080fd5b6000610cb184828501610c13565b91505092915050565b60008060408385031215610ccd57600080fd5b6000610cdb85828601610bff565b925050602083013567ffffffffffffffff811115610cf857600080fd5b610d0485828601610ba9565b9150509250929050565b610d1781610f59565b82525050565b610d2681610fad565b82525050565b610d3581610fbf565b82525050565b610d4481610fd1565b82525050565b610d5381610fe3565b82525050565b6000610d6482610f4e565b808452610d78816020860160208601611004565b610d8181611037565b602085010191505092915050565b6000610d9a82610f43565b808452610dae816020860160208601611004565b610db781611037565b602085010191505092915050565b610dce81610f79565b82525050565b6000602082019050610de96000830184610d0e565b92915050565b6000602082019050610e046000830184610d1d565b92915050565b6000602082019050610e1f6000830184610d2c565b92915050565b6000602082019050610e3a6000830184610d3b565b92915050565b6000602082019050610e556000830184610d4a565b92915050565b60006020820190508181036000830152610e758184610d8f565b905092915050565b60006020820190508181036000830152610e978184610d59565b905092915050565b6000602082019050610eb46000830184610dc5565b92915050565b6000604082019050610ecf6000830185610dc5565b8181036020830152610ee18184610d59565b90509392505050565b6000604051905081810181811067ffffffffffffffff82111715610f0d57600080fd5b8060405250919050565b600067ffffffffffffffff821115610f2e57600080fd5b601f19601f8301169050602081019050919050565b600081519050919050565b600081519050919050565b600073ffffffffffffffffffffffffffffffffffffffff82169050919050565b6000819050919050565b600073ffffffffffffffffffffffffffffffffffffffff82169050919050565b6000819050919050565b6000610fb882610f59565b9050919050565b6000610fca82610f59565b9050919050565b6000610fdc82610f59565b9050919050565b6000610fee82610f59565b9050919050565b82818337600083830152505050565b60005b83811015611022578082015181840152602081019050611007565b83811115611031576000848401525b50505050565b6000601f19601f83011690509190505600a265627a7a72305820112b4adf7e4054453bf243cb1780938fc33662c61e937d01ea0624a3ec50dcd36c6578706572696d656e74616cf50037",
  "source": "pragma solidity ^0.4.21;\npragma experimental ABIEncoderV2;\n\nimport \"zeppelin-solidity/contracts/ownership/Ownable.sol\";\nimport 'zeppelin-solidity/contracts/math/SafeMath.sol';\n\n/////////////////////////////////////////////////////////////////////////////////////////////\ncontract DecentraCorpPoA {\n  function proxyMint(address _add, uint _amount) external;\n  function proxyBurn(address _add, uint _amount) external;\n  function mintItemToken( string _itemIPFSHash) external;\n  function getRank(address _add) public view returns(uint);\n}\n/// DecentraCorp PoA inteface\n////////////////////////////////////////////////////////////////////////////////////////////\ncontract IdeaCoin {\n    function balanceOf(address _addr) public constant returns (uint);\n\n}\n/// IdeaCoin interface\n/////////////////////////////////////////////////////////////////////////////////////////////\ncontract ProofOfPurchaseToken{\n    function safeTransferFrom(address _from, address _to, uint256 _tokenId) public;\n    function balanceOf(address _owner) public view returns (uint256);\n    function updatePOPTokenIPFS(uint _itemId, string _newIPFSHash) public;\n    function ipfsLookUp(string _ipfsHash) public view returns(uint);\n}\n/////////////////////////////////////////////////////////////////////////////////////////////\n\ncontract DecentraControlled is Ownable {\n\n\n\n  DecentraCorpPoA public decentraCorp;\n  ProofOfPurchaseToken public PoPT;\n  IdeaCoin public IDC;\n  uint public etherEarned = 0;\n  uint public globalEscrowCount = 0;\n  uint public _IDC_PriceMod = 10;\n  uint public _DecentraCorpFee = 0.001 ether;\n\n  string public forSale;\n\n\n\nevent ItemForSale( string itemHash);\n\n    function getDCDEtherBalance() public view returns(uint) {\n        return address(this).balance;\n    }\n\n    function getDCDPoPBalance() public view returns(uint) {\n        return PoPT.balanceOf(this);\n    }\n\n\n    function updateItemPOPTokenIPFS(uint _itemId, string _newIPFSHash) public onlyOwner {\n        PoPT.updatePOPTokenIPFS(_itemId, _newIPFSHash);\n        }\n\n    function PoPTokenHF(address _newPoPAdd) public onlyOwner {\n        PoPT = ProofOfPurchaseToken(_newPoPAdd);\n        }\n\n  function sellItem(string _ipfsHash) public {\n    forSale =_ipfsHash;\n    emit ItemForSale( _ipfsHash);\n  }\n\n  function getForSale()public view returns(string) {\n    return forSale;\n  }\n\n\n\n}\n",
  "sourcePath": "/home/stan36/repos/DecentraCorp/contracts/DC_Depot/DecentraControlled.sol",
  "compiler": {
    "name": "solc",
    "version": "0.4.24+commit.e67f0147.Emscripten.clang"
  },
  "schemaVersion": "2.0.1",
  "updatedAt": "2019-01-02T04:56:15.322Z"
}