{
  "contractName": "DecentraCorpPoA",
  "abi": [
    {
      "constant": true,
      "inputs": [
        {
          "name": "",
          "type": "uint256"
        }
      ],
      "name": "proposals",
      "outputs": [
        {
          "name": "Address",
          "type": "address"
        },
        {
          "name": "PropCode",
          "type": "uint256"
        },
        {
          "name": "Amount",
          "type": "uint256"
        },
        {
          "name": "voteHash",
          "type": "string"
        },
        {
          "name": "executed",
          "type": "bool"
        },
        {
          "name": "proposalPassed",
          "type": "bool"
        },
        {
          "name": "numberOfVotes",
          "type": "uint256"
        }
      ],
      "payable": false,
      "stateMutability": "view",
      "type": "function"
    },
    {
      "constant": true,
      "inputs": [],
      "name": "frozen",
      "outputs": [
        {
          "name": "",
          "type": "bool"
        }
      ],
      "payable": false,
      "stateMutability": "view",
      "type": "function"
    },
    {
      "constant": true,
      "inputs": [],
      "name": "memberCount",
      "outputs": [
        {
          "name": "",
          "type": "uint256"
        }
      ],
      "payable": false,
      "stateMutability": "view",
      "type": "function"
    },
    {
      "constant": true,
      "inputs": [],
      "name": "CPBG",
      "outputs": [
        {
          "name": "",
          "type": "address"
        }
      ],
      "payable": false,
      "stateMutability": "view",
      "type": "function"
    },
    {
      "constant": true,
      "inputs": [],
      "name": "founder",
      "outputs": [
        {
          "name": "",
          "type": "address"
        }
      ],
      "payable": false,
      "stateMutability": "view",
      "type": "function"
    },
    {
      "constant": true,
      "inputs": [],
      "name": "IDC",
      "outputs": [
        {
          "name": "",
          "type": "address"
        }
      ],
      "payable": false,
      "stateMutability": "view",
      "type": "function"
    },
    {
      "constant": true,
      "inputs": [],
      "name": "CC",
      "outputs": [
        {
          "name": "",
          "type": "address"
        }
      ],
      "payable": false,
      "stateMutability": "view",
      "type": "function"
    },
    {
      "constant": false,
      "inputs": [],
      "name": "renounceOwnership",
      "outputs": [],
      "payable": false,
      "stateMutability": "nonpayable",
      "type": "function"
    },
    {
      "constant": true,
      "inputs": [],
      "name": "PoPT",
      "outputs": [
        {
          "name": "",
          "type": "address"
        }
      ],
      "payable": false,
      "stateMutability": "view",
      "type": "function"
    },
    {
      "constant": true,
      "inputs": [],
      "name": "minimumQuorum",
      "outputs": [
        {
          "name": "",
          "type": "uint256"
        }
      ],
      "payable": false,
      "stateMutability": "view",
      "type": "function"
    },
    {
      "constant": true,
      "inputs": [],
      "name": "owner",
      "outputs": [
        {
          "name": "",
          "type": "address"
        }
      ],
      "payable": false,
      "stateMutability": "view",
      "type": "function"
    },
    {
      "constant": false,
      "inputs": [
        {
          "name": "_newOwner",
          "type": "address"
        }
      ],
      "name": "transferOwnership",
      "outputs": [],
      "payable": false,
      "stateMutability": "nonpayable",
      "type": "function"
    },
    {
      "inputs": [
        {
          "name": "_IDC",
          "type": "address"
        },
        {
          "name": "_CPBG",
          "type": "address"
        },
        {
          "name": "_CC",
          "type": "address"
        },
        {
          "name": "_PoPT",
          "type": "address"
        }
      ],
      "payable": false,
      "stateMutability": "nonpayable",
      "type": "constructor"
    },
    {
      "anonymous": false,
      "inputs": [
        {
          "indexed": false,
          "name": "_voteHash",
          "type": "string"
        }
      ],
      "name": "ProposalCreated",
      "type": "event"
    },
    {
      "anonymous": false,
      "inputs": [
        {
          "indexed": false,
          "name": "_voter",
          "type": "address"
        },
        {
          "indexed": false,
          "name": "inSupport",
          "type": "bool"
        }
      ],
      "name": "Voted",
      "type": "event"
    },
    {
      "anonymous": false,
      "inputs": [
        {
          "indexed": true,
          "name": "previousOwner",
          "type": "address"
        }
      ],
      "name": "OwnershipRenounced",
      "type": "event"
    },
    {
      "anonymous": false,
      "inputs": [
        {
          "indexed": true,
          "name": "previousOwner",
          "type": "address"
        },
        {
          "indexed": true,
          "name": "newOwner",
          "type": "address"
        }
      ],
      "name": "OwnershipTransferred",
      "type": "event"
    },
    {
      "constant": false,
      "inputs": [
        {
          "name": "_address",
          "type": "address"
        },
        {
          "name": "_propCode",
          "type": "uint256"
        },
        {
          "name": "_voteHash",
          "type": "string"
        },
        {
          "name": "_amount",
          "type": "uint256"
        }
      ],
      "name": "createProposal",
      "outputs": [],
      "payable": false,
      "stateMutability": "nonpayable",
      "type": "function"
    },
    {
      "constant": false,
      "inputs": [
        {
          "name": "_ProposalID",
          "type": "uint256"
        },
        {
          "name": "supportsProposal",
          "type": "bool"
        }
      ],
      "name": "vote",
      "outputs": [
        {
          "name": "voteID",
          "type": "uint256"
        }
      ],
      "payable": false,
      "stateMutability": "nonpayable",
      "type": "function"
    },
    {
      "constant": false,
      "inputs": [
        {
          "name": "_newContract",
          "type": "address"
        }
      ],
      "name": "addApprovedContract",
      "outputs": [],
      "payable": false,
      "stateMutability": "nonpayable",
      "type": "function"
    },
    {
      "constant": false,
      "inputs": [
        {
          "name": "_IDC",
          "type": "address"
        }
      ],
      "name": "setIDCadd",
      "outputs": [],
      "payable": false,
      "stateMutability": "nonpayable",
      "type": "function"
    },
    {
      "constant": false,
      "inputs": [
        {
          "name": "_add",
          "type": "address"
        },
        {
          "name": "_amount",
          "type": "uint256"
        }
      ],
      "name": "proxyIDCMint",
      "outputs": [],
      "payable": false,
      "stateMutability": "nonpayable",
      "type": "function"
    },
    {
      "constant": false,
      "inputs": [
        {
          "name": "_add",
          "type": "address"
        },
        {
          "name": "_amount",
          "type": "uint256"
        }
      ],
      "name": "proxyIDCBurn",
      "outputs": [],
      "payable": false,
      "stateMutability": "nonpayable",
      "type": "function"
    },
    {
      "constant": false,
      "inputs": [
        {
          "name": "_add",
          "type": "address"
        },
        {
          "name": "_amount",
          "type": "uint256"
        }
      ],
      "name": "proxyCCMint",
      "outputs": [],
      "payable": false,
      "stateMutability": "nonpayable",
      "type": "function"
    },
    {
      "constant": false,
      "inputs": [
        {
          "name": "_add",
          "type": "address"
        },
        {
          "name": "_amount",
          "type": "uint256"
        }
      ],
      "name": "proxyCCBurn",
      "outputs": [],
      "payable": false,
      "stateMutability": "nonpayable",
      "type": "function"
    },
    {
      "constant": false,
      "inputs": [
        {
          "name": "_ideaIPFS",
          "type": "string"
        },
        {
          "name": "_globalUseBlockAmount",
          "type": "uint256"
        },
        {
          "name": "miningTime",
          "type": "uint256"
        },
        {
          "name": "_royalty",
          "type": "uint256"
        },
        {
          "name": "_inventorsAddress",
          "type": "address"
        }
      ],
      "name": "generateIdeaBlock",
      "outputs": [],
      "payable": false,
      "stateMutability": "nonpayable",
      "type": "function"
    },
    {
      "constant": false,
      "inputs": [
        {
          "name": "_ideaId",
          "type": "uint256"
        },
        {
          "name": "_repAdd",
          "type": "address"
        },
        {
          "name": "_replicatorAdd",
          "type": "address"
        }
      ],
      "name": "replicationBlock",
      "outputs": [],
      "payable": false,
      "stateMutability": "nonpayable",
      "type": "function"
    },
    {
      "constant": false,
      "inputs": [
        {
          "name": "_replicationOwner",
          "type": "address"
        }
      ],
      "name": "generateGUSBlock",
      "outputs": [],
      "payable": false,
      "stateMutability": "nonpayable",
      "type": "function"
    },
    {
      "constant": false,
      "inputs": [
        {
          "name": "_itemIPFSHash",
          "type": "string"
        }
      ],
      "name": "mintItemToken",
      "outputs": [],
      "payable": false,
      "stateMutability": "nonpayable",
      "type": "function"
    },
    {
      "constant": false,
      "inputs": [
        {
          "name": "_mem",
          "type": "address"
        }
      ],
      "name": "_addMember",
      "outputs": [],
      "payable": false,
      "stateMutability": "nonpayable",
      "type": "function"
    },
    {
      "constant": true,
      "inputs": [
        {
          "name": "_member",
          "type": "address"
        }
      ],
      "name": "_checkIfMember",
      "outputs": [
        {
          "name": "",
          "type": "bool"
        }
      ],
      "payable": false,
      "stateMutability": "view",
      "type": "function"
    },
    {
      "constant": true,
      "inputs": [
        {
          "name": "_member",
          "type": "address"
        }
      ],
      "name": "_checkIfFrozen",
      "outputs": [
        {
          "name": "",
          "type": "bool"
        }
      ],
      "payable": false,
      "stateMutability": "view",
      "type": "function"
    },
    {
      "constant": true,
      "inputs": [],
      "name": "getMemberCount",
      "outputs": [
        {
          "name": "",
          "type": "uint256"
        }
      ],
      "payable": false,
      "stateMutability": "view",
      "type": "function"
    },
    {
      "constant": false,
      "inputs": [
        {
          "name": "_add",
          "type": "address"
        }
      ],
      "name": "increaseMemLev",
      "outputs": [],
      "payable": false,
      "stateMutability": "nonpayable",
      "type": "function"
    },
    {
      "constant": false,
      "inputs": [
        {
          "name": "_facAdd",
          "type": "address"
        },
        {
          "name": "_amount",
          "type": "uint256"
        }
      ],
      "name": "increaseFacilityRank",
      "outputs": [],
      "payable": false,
      "stateMutability": "nonpayable",
      "type": "function"
    },
    {
      "constant": true,
      "inputs": [
        {
          "name": "_add",
          "type": "address"
        }
      ],
      "name": "getLevel",
      "outputs": [
        {
          "name": "",
          "type": "uint256"
        }
      ],
      "payable": false,
      "stateMutability": "view",
      "type": "function"
    },
    {
      "constant": true,
      "inputs": [
        {
          "name": "_add",
          "type": "address"
        }
      ],
      "name": "getRank",
      "outputs": [
        {
          "name": "",
          "type": "uint256"
        }
      ],
      "payable": false,
      "stateMutability": "view",
      "type": "function"
    },
    {
      "constant": false,
      "inputs": [
        {
          "name": "_add",
          "type": "address"
        },
        {
          "name": "_hash",
          "type": "string"
        }
      ],
      "name": "setProfileHash",
      "outputs": [],
      "payable": false,
      "stateMutability": "nonpayable",
      "type": "function"
    },
    {
      "constant": true,
      "inputs": [
        {
          "name": "_add",
          "type": "address"
        }
      ],
      "name": "getProfileHash",
      "outputs": [
        {
          "name": "",
          "type": "string"
        }
      ],
      "payable": false,
      "stateMutability": "view",
      "type": "function"
    },
    {
      "constant": false,
      "inputs": [
        {
          "name": "_facility",
          "type": "address"
        },
        {
          "name": "_amount",
          "type": "uint256"
        }
      ],
      "name": "decreaseFacilityRank",
      "outputs": [],
      "payable": false,
      "stateMutability": "nonpayable",
      "type": "function"
    }
  ],
  "bytecode": "0x60806040523480156200001157600080fd5b506040516080806200367783398101806040528101908080519060200190929190805190602001909291908051906020019092919080519060200190929190505050336000806101000a81548173ffffffffffffffffffffffffffffffffffffffff021916908373ffffffffffffffffffffffffffffffffffffffff16021790555083600160006101000a81548173ffffffffffffffffffffffffffffffffffffffff021916908373ffffffffffffffffffffffffffffffffffffffff16021790555082600260006101000a81548173ffffffffffffffffffffffffffffffffffffffff021916908373ffffffffffffffffffffffffffffffffffffffff16021790555081600360006101000a81548173ffffffffffffffffffffffffffffffffffffffff021916908373ffffffffffffffffffffffffffffffffffffffff16021790555080600460006101000a81548173ffffffffffffffffffffffffffffffffffffffff021916908373ffffffffffffffffffffffffffffffffffffffff1602179055506001600860003373ffffffffffffffffffffffffffffffffffffffff1673ffffffffffffffffffffffffffffffffffffffff16815260200190815260200160002060006101000a81548160ff0219169083151502179055506005600081548092919060010191905055506064600960003373ffffffffffffffffffffffffffffffffffffffff1673ffffffffffffffffffffffffffffffffffffffff16815260200190815260200160002060008282540192505081905550606060405190810160405280602e81526020017f516d585673486f386643593965314b66384755555a725255727974336674715a81526020017f4d39397536574e6553534e414545000000000000000000000000000000000000815250600b60003373ffffffffffffffffffffffffffffffffffffffff1673ffffffffffffffffffffffffffffffffffffffff1681526020019081526020016000209080519060200190620003009291906200039a565b506064600a60003373ffffffffffffffffffffffffffffffffffffffff1673ffffffffffffffffffffffffffffffffffffffff1681526020019081526020016000206000828254019250508190555033600760016101000a81548173ffffffffffffffffffffffffffffffffffffffff021916908373ffffffffffffffffffffffffffffffffffffffff1602179055505050505062000449565b828054600181600116156101000203166002900490600052602060002090601f016020900481019282601f10620003dd57805160ff19168380011785556200040e565b828001600101855582156200040e579182015b828111156200040d578251825591602001919060010190620003f0565b5b5090506200041d919062000421565b5090565b6200044691905b808211156200044257600081600090555060010162000428565b5090565b90565b61321e80620004596000396000f3006080604052600436106101b7576000357c0100000000000000000000000000000000000000000000000000000000900463ffffffff168063013cf08b146101bc578063054f7d9c146102c05780630c7d1b3f146102ef57806311aee38014610332578063135171be1461035d5780631d40bbcf146103a05780632b2891ec146103e357806332836d8d1461041e5780633c91f273146104615780634777e8ea146104b85780634d853ee5146104fb57806352d2c11d14610552578063548c0ef4146105a95780636509e77614610600578063653724b1146106575780637130c241146106b2578063715018a6146106ff5780637ae20234146107165780637d10707b1461076d5780638160f0b51461080a578063817c8966146108355780638da5cb5b1461088c578063997072f7146108e3578063aaa746bb1461090e578063afa879d114610969578063b2d5a696146109f2578063bc753b6214610aae578063c9d27afe14610afb578063caef940014610b48578063cb2d97f814610b95578063d82f980b14610c0e578063e934f00b14610c5b578063e9e2b98614610cc8578063efcbd8d314610d15578063f2fde38b14610d62575b600080fd5b3480156101c857600080fd5b506101e760048036038101908080359060200190929190505050610da5565b604051808873ffffffffffffffffffffffffffffffffffffffff1673ffffffffffffffffffffffffffffffffffffffff168152602001878152602001868152602001806020018515151515815260200184151515158152602001838152602001828103825286818151815260200191508051906020019080838360005b8381101561027f578082015181840152602081019050610264565b50505050905090810190601f1680156102ac5780820380516001836020036101000a031916815260200191505b509850505050505050505060405180910390f35b3480156102cc57600080fd5b506102d5610ec8565b604051808215151515815260200191505060405180910390f35b3480156102fb57600080fd5b50610330600480360381019080803573ffffffffffffffffffffffffffffffffffffffff169060200190929190505050610edb565b005b34801561033e57600080fd5b50610347610f7a565b6040518082815260200191505060405180910390f35b34801561036957600080fd5b5061039e600480360381019080803573ffffffffffffffffffffffffffffffffffffffff169060200190929190505050610f80565b005b3480156103ac57600080fd5b506103e1600480360381019080803573ffffffffffffffffffffffffffffffffffffffff169060200190929190505050611036565b005b3480156103ef57600080fd5b5061041c6004803603810190808035906020019082018035906020019190919293919293905050506111bb565b005b34801561042a57600080fd5b5061045f600480360381019080803573ffffffffffffffffffffffffffffffffffffffff1690602001909291905050506112e1565b005b34801561046d57600080fd5b50610476611433565b604051808273ffffffffffffffffffffffffffffffffffffffff1673ffffffffffffffffffffffffffffffffffffffff16815260200191505060405180910390f35b3480156104c457600080fd5b506104f9600480360381019080803573ffffffffffffffffffffffffffffffffffffffff169060200190929190505050611459565b005b34801561050757600080fd5b50610510611525565b604051808273ffffffffffffffffffffffffffffffffffffffff1673ffffffffffffffffffffffffffffffffffffffff16815260200191505060405180910390f35b34801561055e57600080fd5b5061056761154b565b604051808273ffffffffffffffffffffffffffffffffffffffff1673ffffffffffffffffffffffffffffffffffffffff16815260200191505060405180910390f35b3480156105b557600080fd5b506105ea600480360381019080803573ffffffffffffffffffffffffffffffffffffffff169060200190929190505050611571565b6040518082815260200191505060405180910390f35b34801561060c57600080fd5b506106156115ba565b604051808273ffffffffffffffffffffffffffffffffffffffff1673ffffffffffffffffffffffffffffffffffffffff16815260200191505060405180910390f35b34801561066357600080fd5b50610698600480360381019080803573ffffffffffffffffffffffffffffffffffffffff1690602001909291905050506115e0565b604051808215151515815260200191505060405180910390f35b3480156106be57600080fd5b506106fd600480360381019080803573ffffffffffffffffffffffffffffffffffffffff1690602001909291908035906020019092919050505061164a565b005b34801561070b57600080fd5b5061071461178a565b005b34801561072257600080fd5b5061072b61188c565b604051808273ffffffffffffffffffffffffffffffffffffffff1673ffffffffffffffffffffffffffffffffffffffff16815260200191505060405180910390f35b34801561077957600080fd5b50610808600480360381019080803573ffffffffffffffffffffffffffffffffffffffff16906020019092919080359060200190929190803590602001908201803590602001908080601f0160208091040260200160405190810160405280939291908181526020018383808284378201915050505050509192919290803590602001909291905050506118b2565b005b34801561081657600080fd5b5061081f611a40565b6040518082815260200191505060405180910390f35b34801561084157600080fd5b50610876600480360381019080803573ffffffffffffffffffffffffffffffffffffffff169060200190929190505050611a46565b6040518082815260200191505060405180910390f35b34801561089857600080fd5b506108a1611a8f565b604051808273ffffffffffffffffffffffffffffffffffffffff1673ffffffffffffffffffffffffffffffffffffffff16815260200191505060405180910390f35b3480156108ef57600080fd5b506108f8611ab4565b6040518082815260200191505060405180910390f35b34801561091a57600080fd5b5061094f600480360381019080803573ffffffffffffffffffffffffffffffffffffffff169060200190929190505050611abe565b604051808215151515815260200191505060405180910390f35b34801561097557600080fd5b506109f0600480360381019080803573ffffffffffffffffffffffffffffffffffffffff169060200190929190803590602001908201803590602001908080601f0160208091040260200160405190810160405280939291908181526020018383808284378201915050505050509192919290505050611b28565b005b3480156109fe57600080fd5b50610a33600480360381019080803573ffffffffffffffffffffffffffffffffffffffff169060200190929190505050611bfa565b6040518080602001828103825283818151815260200191508051906020019080838360005b83811015610a73578082015181840152602081019050610a58565b50505050905090810190601f168015610aa05780820380516001836020036101000a031916815260200191505b509250505060405180910390f35b348015610aba57600080fd5b50610af9600480360381019080803573ffffffffffffffffffffffffffffffffffffffff16906020019092919080359060200190929190505050611cdb565b005b348015610b0757600080fd5b50610b3260048036038101908080359060200190929190803515159060200190929190505050611d8b565b6040518082815260200191505060405180910390f35b348015610b5457600080fd5b50610b93600480360381019080803573ffffffffffffffffffffffffffffffffffffffff1690602001909291908035906020019092919050505061208a565b005b348015610ba157600080fd5b50610c0c600480360381019080803590602001908201803590602001919091929391929390803590602001909291908035906020019092919080359060200190929190803573ffffffffffffffffffffffffffffffffffffffff169060200190929190505050612155565b005b348015610c1a57600080fd5b50610c59600480360381019080803573ffffffffffffffffffffffffffffffffffffffff169060200190929190803590602001909291905050506122e6565b005b348015610c6757600080fd5b50610cc660048036038101908080359060200190929190803573ffffffffffffffffffffffffffffffffffffffff169060200190929190803573ffffffffffffffffffffffffffffffffffffffff169060200190929190505050612441565b005b348015610cd457600080fd5b50610d13600480360381019080803573ffffffffffffffffffffffffffffffffffffffff169060200190929190803590602001909291905050506125d1565b005b348015610d2157600080fd5b50610d60600480360381019080803573ffffffffffffffffffffffffffffffffffffffff16906020019092919080359060200190929190505050612711565b005b348015610d6e57600080fd5b50610da3600480360381019080803573ffffffffffffffffffffffffffffffffffffffff169060200190929190505050612851565b005b600e81815481101515610db457fe5b90600052602060002090600802016000915090508060000160009054906101000a900473ffffffffffffffffffffffffffffffffffffffff1690806001015490806002015490806003018054600181600116156101000203166002900480601f016020809104026020016040519081016040528092919081815260200182805460018160011615610100020316600290048015610e925780601f10610e6757610100808354040283529160200191610e92565b820191906000526020600020905b815481529060010190602001808311610e7557829003601f168201915b5050505050908060040160009054906101000a900460ff16908060040160019054906101000a900460ff16908060050154905087565b600760009054906101000a900460ff1681565b6000809054906101000a900473ffffffffffffffffffffffffffffffffffffffff1673ffffffffffffffffffffffffffffffffffffffff163373ffffffffffffffffffffffffffffffffffffffff16141515610f3657600080fd5b80600160006101000a81548173ffffffffffffffffffffffffffffffffffffffff021916908373ffffffffffffffffffffffffffffffffffffffff16021790555050565b60055481565b6000809054906101000a900473ffffffffffffffffffffffffffffffffffffffff1673ffffffffffffffffffffffffffffffffffffffff163373ffffffffffffffffffffffffffffffffffffffff16141515610fdb57600080fd5b6001600d60008373ffffffffffffffffffffffffffffffffffffffff1673ffffffffffffffffffffffffffffffffffffffff16815260200190815260200160002060006101000a81548160ff02191690831515021790555050565b60011515600d60003373ffffffffffffffffffffffffffffffffffffffff1673ffffffffffffffffffffffffffffffffffffffff16815260200190815260200160002060009054906101000a900460ff16151514151561109557600080fd5b600015156110a2826115e0565b15151415156110b057600080fd5b6001600860008373ffffffffffffffffffffffffffffffffffffffff1673ffffffffffffffffffffffffffffffffffffffff16815260200190815260200160002060006101000a81548160ff021916908315150217905550600960008273ffffffffffffffffffffffffffffffffffffffff1673ffffffffffffffffffffffffffffffffffffffff16815260200190815260200160002060008154809291906001019190505550600a60008273ffffffffffffffffffffffffffffffffffffffff1673ffffffffffffffffffffffffffffffffffffffff1681526020019081526020016000206000815480929190600101919050555060056000815480929190600101919050555050565b60011515600d60003373ffffffffffffffffffffffffffffffffffffffff1673ffffffffffffffffffffffffffffffffffffffff16815260200190815260200160002060009054906101000a900460ff16151514151561121a57600080fd5b600460009054906101000a900473ffffffffffffffffffffffffffffffffffffffff1673ffffffffffffffffffffffffffffffffffffffff1663184e15b583836040518363ffffffff167c01000000000000000000000000000000000000000000000000000000000281526004018080602001828103825284848281815260200192508082843782019150509350505050600060405180830381600087803b1580156112c557600080fd5b505af11580156112d9573d6000803e3d6000fd5b505050505050565b60011515600d60003373ffffffffffffffffffffffffffffffffffffffff1673ffffffffffffffffffffffffffffffffffffffff16815260200190815260200160002060009054906101000a900460ff16151514151561134057600080fd5b6000151561134d826115e0565b151514151561135b57600080fd5b600260009054906101000a900473ffffffffffffffffffffffffffffffffffffffff1673ffffffffffffffffffffffffffffffffffffffff1663d99e98fb826040518263ffffffff167c0100000000000000000000000000000000000000000000000000000000028152600401808273ffffffffffffffffffffffffffffffffffffffff1673ffffffffffffffffffffffffffffffffffffffff168152602001915050600060405180830381600087803b15801561141857600080fd5b505af115801561142c573d6000803e3d6000fd5b5050505050565b600260009054906101000a900473ffffffffffffffffffffffffffffffffffffffff1681565b60011515600d60003373ffffffffffffffffffffffffffffffffffffffff1673ffffffffffffffffffffffffffffffffffffffff16815260200190815260200160002060009054906101000a900460ff1615151415156114b857600080fd5b600015156114c5826115e0565b15151415156114d357600080fd5b600960008273ffffffffffffffffffffffffffffffffffffffff1673ffffffffffffffffffffffffffffffffffffffff1681526020019081526020016000206000815480929190600101919050555050565b600760019054906101000a900473ffffffffffffffffffffffffffffffffffffffff1681565b600160009054906101000a900473ffffffffffffffffffffffffffffffffffffffff1681565b6000600a60008373ffffffffffffffffffffffffffffffffffffffff1673ffffffffffffffffffffffffffffffffffffffff168152602001908152602001600020549050919050565b600360009054906101000a900473ffffffffffffffffffffffffffffffffffffffff1681565b600060011515600c60008473ffffffffffffffffffffffffffffffffffffffff1673ffffffffffffffffffffffffffffffffffffffff16815260200190815260200160002060009054906101000a900460ff16151514156116445760019050611645565b5b919050565b60011515600d60003373ffffffffffffffffffffffffffffffffffffffff1673ffffffffffffffffffffffffffffffffffffffff16815260200190815260200160002060009054906101000a900460ff1615151415156116a957600080fd5b600160009054906101000a900473ffffffffffffffffffffffffffffffffffffffff1673ffffffffffffffffffffffffffffffffffffffff16639dc29fac83836040518363ffffffff167c0100000000000000000000000000000000000000000000000000000000028152600401808373ffffffffffffffffffffffffffffffffffffffff1673ffffffffffffffffffffffffffffffffffffffff16815260200182815260200192505050600060405180830381600087803b15801561176e57600080fd5b505af1158015611782573d6000803e3d6000fd5b505050505050565b6000809054906101000a900473ffffffffffffffffffffffffffffffffffffffff1673ffffffffffffffffffffffffffffffffffffffff163373ffffffffffffffffffffffffffffffffffffffff161415156117e557600080fd5b6000809054906101000a900473ffffffffffffffffffffffffffffffffffffffff1673ffffffffffffffffffffffffffffffffffffffff167ff8df31144d9c2f0f6b59d69b8b98abd5459d07f2742c4df920b25aae33c6482060405160405180910390a260008060006101000a81548173ffffffffffffffffffffffffffffffffffffffff021916908373ffffffffffffffffffffffffffffffffffffffff160217905550565b600460009054906101000a900473ffffffffffffffffffffffffffffffffffffffff1681565b600080600e80548091906001016118c99190612f86565b9150600e828154811015156118da57fe5b90600052602060002090600802019050858160000160006101000a81548173ffffffffffffffffffffffffffffffffffffffff021916908373ffffffffffffffffffffffffffffffffffffffff1602179055508481600101819055508381600301908051906020019061194e929190612fb8565b5082816002018190555060008160040160006101000a81548160ff02191690831515021790555060008160040160016101000a81548160ff021916908315150217905550600081600501819055507fe8992a719ba38096a6af646873add24c8172489ca954def1b69b5565eb85c1bf846040518080602001828103825283818151815260200191508051906020019080838360005b838110156119fe5780820151818401526020810190506119e3565b50505050905090810190601f168015611a2b5780820380516001836020036101000a031916815260200191505b509250505060405180910390a1505050505050565b60065481565b6000600960008373ffffffffffffffffffffffffffffffffffffffff1673ffffffffffffffffffffffffffffffffffffffff168152602001908152602001600020549050919050565b6000809054906101000a900473ffffffffffffffffffffffffffffffffffffffff1681565b6000600554905090565b600060011515600860008473ffffffffffffffffffffffffffffffffffffffff1673ffffffffffffffffffffffffffffffffffffffff16815260200190815260200160002060009054906101000a900460ff1615151415611b225760019050611b23565b5b919050565b60011515600d60003373ffffffffffffffffffffffffffffffffffffffff1673ffffffffffffffffffffffffffffffffffffffff16815260200190815260200160002060009054906101000a900460ff161515141515611b8757600080fd5b60001515611b94836115e0565b1515141515611ba257600080fd5b80600b60008473ffffffffffffffffffffffffffffffffffffffff1673ffffffffffffffffffffffffffffffffffffffff1681526020019081526020016000209080519060200190611bf5929190612fb8565b505050565b6060600b60008373ffffffffffffffffffffffffffffffffffffffff1673ffffffffffffffffffffffffffffffffffffffff1681526020019081526020016000208054600181600116156101000203166002900480601f016020809104026020016040519081016040528092919081815260200182805460018160011615610100020316600290048015611ccf5780601f10611ca457610100808354040283529160200191611ccf565b820191906000526020600020905b815481529060010190602001808311611cb257829003601f168201915b50505050509050919050565b60011515600d60003373ffffffffffffffffffffffffffffffffffffffff1673ffffffffffffffffffffffffffffffffffffffff16815260200190815260200160002060009054906101000a900460ff161515141515611d3a57600080fd5b80600a60008473ffffffffffffffffffffffffffffffffffffffff1673ffffffffffffffffffffffffffffffffffffffff168152602001908152602001600020600082825403925050819055505050565b600080600e84815481101515611d9d57fe5b90600052602060002090600802019050600115158160070160003373ffffffffffffffffffffffffffffffffffffffff1673ffffffffffffffffffffffffffffffffffffffff16815260200190815260200160002060009054906101000a900460ff16151514151515611e0f57600080fd5b60011515600860003373ffffffffffffffffffffffffffffffffffffffff1673ffffffffffffffffffffffffffffffffffffffff16815260200190815260200160002060009054906101000a900460ff161515141515611e6e57600080fd5b806006018054809190600101611e849190613038565b9150604080519081016040528084151581526020013373ffffffffffffffffffffffffffffffffffffffff168152508160060183815481101515611ec457fe5b9060005260206000200160008201518160000160006101000a81548160ff02191690831515021790555060208201518160000160016101000a81548173ffffffffffffffffffffffffffffffffffffffff021916908373ffffffffffffffffffffffffffffffffffffffff16021790555090505060018160070160003373ffffffffffffffffffffffffffffffffffffffff1673ffffffffffffffffffffffffffffffffffffffff16815260200190815260200160002060006101000a81548160ff021916908315150217905550818060010192508160050181905550600960003373ffffffffffffffffffffffffffffffffffffffff1673ffffffffffffffffffffffffffffffffffffffff168152602001908152602001600020600081548092919060010191905055507f8eb81cb806dbb3d8a2f94981614331a55dfd90e06a42fdc362ca3ca96981d92f3384604051808373ffffffffffffffffffffffffffffffffffffffff1673ffffffffffffffffffffffffffffffffffffffff168152602001821515151581526020019250505060405180910390a16120676128b8565b60065481600501541015156120805761207f846128f3565b5b8191505092915050565b60011515600d60003373ffffffffffffffffffffffffffffffffffffffff1673ffffffffffffffffffffffffffffffffffffffff16815260200190815260200160002060009054906101000a900460ff1615151415156120e957600080fd5b600015156120f6836115e0565b151514151561210457600080fd5b80600a60008473ffffffffffffffffffffffffffffffffffffffff1673ffffffffffffffffffffffffffffffffffffffff168152602001908152602001600020600082825401925050819055505050565b60011515600d60003373ffffffffffffffffffffffffffffffffffffffff1673ffffffffffffffffffffffffffffffffffffffff16815260200190815260200160002060009054906101000a900460ff1615151415156121b457600080fd5b600015156121c1826115e0565b15151415156121cf57600080fd5b600260009054906101000a900473ffffffffffffffffffffffffffffffffffffffff1673ffffffffffffffffffffffffffffffffffffffff16638fce26338787878787876040518763ffffffff167c010000000000000000000000000000000000000000000000000000000002815260040180806020018681526020018581526020018481526020018373ffffffffffffffffffffffffffffffffffffffff1673ffffffffffffffffffffffffffffffffffffffff16815260200182810382528888828181526020019250808284378201915050975050505050505050600060405180830381600087803b1580156122c657600080fd5b505af11580156122da573d6000803e3d6000fd5b50505050505050505050565b60011515600d60003373ffffffffffffffffffffffffffffffffffffffff1673ffffffffffffffffffffffffffffffffffffffff16815260200190815260200160002060009054906101000a900460ff16151514151561234557600080fd5b60001515612352836115e0565b151514151561236057600080fd5b600160009054906101000a900473ffffffffffffffffffffffffffffffffffffffff1673ffffffffffffffffffffffffffffffffffffffff166340c10f1983836040518363ffffffff167c0100000000000000000000000000000000000000000000000000000000028152600401808373ffffffffffffffffffffffffffffffffffffffff1673ffffffffffffffffffffffffffffffffffffffff16815260200182815260200192505050600060405180830381600087803b15801561242557600080fd5b505af1158015612439573d6000803e3d6000fd5b505050505050565b60011515600d60003373ffffffffffffffffffffffffffffffffffffffff1673ffffffffffffffffffffffffffffffffffffffff16815260200190815260200160002060009054906101000a900460ff1615151415156124a057600080fd5b600015156124ad826115e0565b15151415156124bb57600080fd5b600260009054906101000a900473ffffffffffffffffffffffffffffffffffffffff1673ffffffffffffffffffffffffffffffffffffffff1663979571c58484846040518463ffffffff167c0100000000000000000000000000000000000000000000000000000000028152600401808481526020018373ffffffffffffffffffffffffffffffffffffffff1673ffffffffffffffffffffffffffffffffffffffff1681526020018273ffffffffffffffffffffffffffffffffffffffff1673ffffffffffffffffffffffffffffffffffffffff1681526020019350505050600060405180830381600087803b1580156125b457600080fd5b505af11580156125c8573d6000803e3d6000fd5b50505050505050565b60011515600d60003373ffffffffffffffffffffffffffffffffffffffff1673ffffffffffffffffffffffffffffffffffffffff16815260200190815260200160002060009054906101000a900460ff16151514151561263057600080fd5b600360009054906101000a900473ffffffffffffffffffffffffffffffffffffffff1673ffffffffffffffffffffffffffffffffffffffff16639dc29fac83836040518363ffffffff167c0100000000000000000000000000000000000000000000000000000000028152600401808373ffffffffffffffffffffffffffffffffffffffff1673ffffffffffffffffffffffffffffffffffffffff16815260200182815260200192505050600060405180830381600087803b1580156126f557600080fd5b505af1158015612709573d6000803e3d6000fd5b505050505050565b60011515600d60003373ffffffffffffffffffffffffffffffffffffffff1673ffffffffffffffffffffffffffffffffffffffff16815260200190815260200160002060009054906101000a900460ff16151514151561277057600080fd5b600360009054906101000a900473ffffffffffffffffffffffffffffffffffffffff1673ffffffffffffffffffffffffffffffffffffffff166340c10f1983836040518363ffffffff167c0100000000000000000000000000000000000000000000000000000000028152600401808373ffffffffffffffffffffffffffffffffffffffff1673ffffffffffffffffffffffffffffffffffffffff16815260200182815260200192505050600060405180830381600087803b15801561283557600080fd5b505af1158015612849573d6000803e3d6000fd5b505050505050565b6000809054906101000a900473ffffffffffffffffffffffffffffffffffffffff1673ffffffffffffffffffffffffffffffffffffffff163373ffffffffffffffffffffffffffffffffffffffff161415156128ac57600080fd5b6128b581612b75565b50565b60008060006128c5611ab4565b9250600a838115156128d357fe5b0491506002838115156128e257fe5b049050818101600681905550505050565b6000806000806000806000600e8881548110151561290d57fe5b906000526020600020906008020196508660040160009054906101000a900460ff1615151561293b57600080fd5b600095506000945060009350600092505b86600601805490508310156129b357866006018381548110151561296c57fe5b9060005260206000200191506001905080860195508160000160009054906101000a900460ff16156129a25780850194506129a8565b80840193505b82600101925061294c565b60065486101515156129c457600080fd5b83851115612b4d5760018760040160006101000a81548160ff02191690831515021790555060018760040160016101000a81548160ff021916908315150217905550600187600101541415612a83578660000160009054906101000a900473ffffffffffffffffffffffffffffffffffffffff1673ffffffffffffffffffffffffffffffffffffffff166108fc88600201549081150290604051600060405180830381858888f19350505050158015612a81573d6000803e3d6000fd5b505b600287600101541415612b0d576001600c60008960000160009054906101000a900473ffffffffffffffffffffffffffffffffffffffff1673ffffffffffffffffffffffffffffffffffffffff1673ffffffffffffffffffffffffffffffffffffffff16815260200190815260200160002060006101000a81548160ff0219169083151502179055505b600387600101541415612b4857612b478760000160009054906101000a900473ffffffffffffffffffffffffffffffffffffffff16612c6f565b5b612b6b565b60008760040160016101000a81548160ff0219169083151502179055505b5050505050505050565b600073ffffffffffffffffffffffffffffffffffffffff168173ffffffffffffffffffffffffffffffffffffffff1614151515612bb157600080fd5b8073ffffffffffffffffffffffffffffffffffffffff166000809054906101000a900473ffffffffffffffffffffffffffffffffffffffff1673ffffffffffffffffffffffffffffffffffffffff167f8be0079c531659141344cd1fd0a4f28419497f9722a3daafe3b4186f6b6457e060405160405180910390a3806000806101000a81548173ffffffffffffffffffffffffffffffffffffffff021916908373ffffffffffffffffffffffffffffffffffffffff16021790555050565b6000600160009054906101000a900473ffffffffffffffffffffffffffffffffffffffff1673ffffffffffffffffffffffffffffffffffffffff166370a08231836040518263ffffffff167c0100000000000000000000000000000000000000000000000000000000028152600401808273ffffffffffffffffffffffffffffffffffffffff1673ffffffffffffffffffffffffffffffffffffffff168152602001915050602060405180830381600087803b158015612d2e57600080fd5b505af1158015612d42573d6000803e3d6000fd5b505050506040513d6020811015612d5857600080fd5b81019080805190602001909291905050509050600160009054906101000a900473ffffffffffffffffffffffffffffffffffffffff1673ffffffffffffffffffffffffffffffffffffffff16639dc29fac83836040518363ffffffff167c0100000000000000000000000000000000000000000000000000000000028152600401808373ffffffffffffffffffffffffffffffffffffffff1673ffffffffffffffffffffffffffffffffffffffff16815260200182815260200192505050600060405180830381600087803b158015612e3057600080fd5b505af1158015612e44573d6000803e3d6000fd5b505050506000600860008473ffffffffffffffffffffffffffffffffffffffff1673ffffffffffffffffffffffffffffffffffffffff16815260200190815260200160002060006101000a81548160ff0219169083151502179055506000600960008473ffffffffffffffffffffffffffffffffffffffff1673ffffffffffffffffffffffffffffffffffffffff168152602001908152602001600020819055506000600a60008473ffffffffffffffffffffffffffffffffffffffff1673ffffffffffffffffffffffffffffffffffffffff168152602001908152602001600020819055506001600c60008473ffffffffffffffffffffffffffffffffffffffff1673ffffffffffffffffffffffffffffffffffffffff16815260200190815260200160002060006101000a81548160ff0219169083151502179055505050565b815481835581811115612fb357600802816008028360005260206000209182019101612fb29190613064565b5b505050565b828054600181600116156101000203166002900490600052602060002090601f016020900481019282601f10612ff957805160ff1916838001178555613027565b82800160010185558215613027579182015b8281111561302657825182559160200191906001019061300b565b5b509050613034919061310a565b5090565b81548183558181111561305f5781836000526020600020918201910161305e919061312f565b5b505050565b61310791905b8082111561310357600080820160006101000a81549073ffffffffffffffffffffffffffffffffffffffff0219169055600182016000905560028201600090556003820160006130ba9190613189565b6004820160006101000a81549060ff02191690556004820160016101000a81549060ff021916905560058201600090556006820160006130fa91906131d1565b5060080161306a565b5090565b90565b61312c91905b80821115613128576000816000905550600101613110565b5090565b90565b61318691905b8082111561318257600080820160006101000a81549060ff02191690556000820160016101000a81549073ffffffffffffffffffffffffffffffffffffffff021916905550600101613135565b5090565b90565b50805460018160011615610100020316600290046000825580601f106131af57506131ce565b601f0160209004906000526020600020908101906131cd919061310a565b5b50565b50805460008255906000526020600020908101906131ef919061312f565b505600a165627a7a723058205e433a413dc78cc8acd01f1c798ec1394ded79f86e36787b2bc4fc7aa1020ba60029",
  "source": "pragma solidity ^0.4.21;\nimport \"zeppelin-solidity/contracts/ownership/Ownable.sol\";\nimport \"zeppelin-solidity/contracts/math/SafeMath.sol\";\n\n////////////////////////////////////////////////////////////////////////////////////////////\n/// @title DecentraCorpPoA\n/// @author DecentraCorp\n/// @notice this contract will serve as an information portal between the main ethereum\n///   network and the CryptoPatent Blockchain\n/// @dev All function calls are currently implement without side effects\n////////////////////////////////////////////////////////////////////////////////////////////\n/// @author Christopher Dixon\n////////////////////////////////////////////////////////////////////////////////////////////\ncontract IdeaCoin {\n    function mint(address _to, uint256 _value) external;\n    function burn(address _from, uint256 _value)  external;\n    function balanceOf(address _addr) public constant returns (uint);\n}\n//IdeaCoin interface\n/////////////////////////////////////////////////////////////////////////////////////////////\ncontract ProofOfPurchaseToken{\n    function safeTransferFrom(address _from, address _to, uint256 _tokenId) public;\n    function _mintItemToken( string _itemIPFSHash) external;\n}\n////////////////////////////////////////////////////////////////////////////////////////////\ncontract ChaosCoin {\n    function mint(address _to, uint256 _value) external;\n    function burn(address _from, uint256 _value)  external;\n\n}\n//ChaosCoin interface\n/////////////////////////////////////////////////////////////////////////////////////////////\ncontract CryptoPatentBlockGenerator {\n    function _generateIdeaBlock(string _ideaIPFS, uint _globalUseBlockAmount, uint miningTime, uint _royalty, address _inventorsAddress) external;\n    function _replicationBlock(uint _ideaId, address _repAdd, address _replicatorAdd) external;\n    function _generateGUSBlock(address _replicationOwner) external;\n}\n/// CryptoPatentBlockGenerator interface\n/////////////////////////////////////////////////////////////////////////////////////////////\n\n contract DecentraCorpPoA is Ownable {\n   using SafeMath for uint256;\n///@param IDC is used to make calls to the IdeaCoin Contract\n   IdeaCoin public IDC;\n   CryptoPatentBlockGenerator public CPBG;\n   ChaosCoin public CC;\n   ProofOfPurchaseToken public PoPT;\n\n   uint public memberCount;\n   uint public minimumQuorum;\n   bool public frozen;\n   address public founder;\n   mapping (address =>bool) members;\n   mapping(address => uint) memberLevel;\n   mapping(address => uint) facilityRank;\n   mapping(address => string) memberProfileHash;\n   mapping(address => bool) frozenAccounts;\n///@param approvedContracts is a mappiung of contracts alloud to call function on other\n   mapping(address => bool) approvedContracts;\n   Proposal[] public proposals;\n\n   event ProposalCreated(string _voteHash);\n   event Voted(address _voter, bool inSupport);\n\n\n   struct Proposal {\n        address Address;\n        uint PropCode;\n        uint Amount;\n        string voteHash;\n        bool executed;\n        bool proposalPassed;\n        uint numberOfVotes;\n        Vote[] votes;\n        mapping (address => bool) voted;\n    }\n\n    struct Vote {\n            bool inSupport;\n            address voter;\n    }\n\n\n   modifier onlyApprovedAdd() {\n     require(approvedContracts[msg.sender] == true);\n     _;\n   }\n\n\n\n\n\n///@notice constructor sets up IdeaCoin address through truffle wizardry\n   constructor(IdeaCoin _IDC, CryptoPatentBlockGenerator _CPBG, ChaosCoin _CC, ProofOfPurchaseToken _PoPT) public {\n     IDC=(_IDC);\n     CPBG =(_CPBG);\n     CC=(_CC);\n     PoPT = (_PoPT);\n     members[msg.sender] = true;\n     memberCount++;\n     memberLevel[msg.sender] += 100;\n     memberProfileHash[msg.sender] = \"QmXVsHo8fCY9e1Kf8GUUZrRUryt3ftqZM99u6WNeSSNAEE\";\n     facilityRank[msg.sender] += 100;\n     founder = msg.sender;\n   }\n/**\n**@notice Proposal Codes are used to fire specific code. each number represents a different action\n*** the following are is a list of prop codes and their actions\n** 1. Funding Proposal: the address entered is the address receiving funding\n** 2. MemberShip Account Freeze Proposal: the address entered is the address to be frozen\n** 3. Membership Termination Proposal: the address entered is the address to be terminated\n//more options will be added to allow for contract upgrades in the future\n*/\n   function createProposal(address _address, uint _propCode, string _voteHash, uint _amount) public {\n           uint ProposalID = proposals.length++;\n           Proposal storage p = proposals[ProposalID];\n           p.Address = _address;\n           p.PropCode = _propCode;\n           p.voteHash = _voteHash;\n           p.Amount = _amount;\n           p.executed = false;\n           p.proposalPassed = false;\n           p.numberOfVotes = 0;\n           emit ProposalCreated(_voteHash);\n   }\n\n   function vote(\n          uint _ProposalID,\n          bool supportsProposal\n      )\n          public\n          returns (uint voteID)\n      {\n\n          Proposal storage p = proposals[_ProposalID];\n          require(p.voted[msg.sender] != true);\n          require(members[msg.sender] == true);\n          voteID = p.votes.length++;\n          p.votes[voteID] = Vote({inSupport: supportsProposal, voter: msg.sender});\n          p.voted[msg.sender] = true;\n          p.numberOfVotes = voteID++;\n          memberLevel[msg.sender]++;\n          emit Voted(msg.sender, supportsProposal);\n          set_Quorum();\n          if(p.numberOfVotes >= minimumQuorum) {\n            executeVote(_ProposalID);\n          }\n          return voteID;\n      }\n\n      function set_Quorum() internal  {\n              uint maxQuorum = getMemberCount();\n              uint tenthQuorum = (maxQuorum / 10);\n              uint  halfQuorum = (maxQuorum / 2);\n              minimumQuorum = (halfQuorum + tenthQuorum);\n        }\n\n      ///@notice ideaBlockVote counts the votes and executes and Idea Proposal, adding an idea to the cryptopatent Blockchain\n      ///@dev seperate but similiar structures will need to be implemented in the future to stream line voting on different subjects(beta)\n      function executeVote(uint _ProposalID) internal {\n              Proposal storage p = proposals[_ProposalID];\n                   // sets p equal to the specific proposalNumber\n              require(!p.executed);\n              uint quorum = 0;\n              uint yea = 0;\n              uint nay = 0;\n\n\n\n          for (uint i = 0; i <  p.votes.length; ++i) {\n              Vote storage v = p.votes[i];\n              uint voteWeight = 1;\n              quorum += voteWeight;\n              if (v.inSupport) {\n                yea += voteWeight;\n                   } else {\n                 nay += voteWeight;\n                       }\n                   }\n\n                   require(quorum >= minimumQuorum); // Check if a minimum quorum has been reached\n\n                   if (yea > nay ) {\n                       // Proposal passed; execute the transaction\n                     p.executed = true;\n                     p.proposalPassed = true;\n                     if(p.PropCode == 1) {\n                       p.Address.transfer(p.Amount);\n                     }\n                     if(p.PropCode == 2) {\n                       frozenAccounts[p.Address] = true;\n                     }\n                     if(p.PropCode == 3) {\n                       terminateMember(p.Address);\n                     }\n                 } else {\n                       // Proposal failed\n                     p.proposalPassed = false;\n                 }\n            }\n\n\n//@addApprovedContract allows another contract to call functions\n///@dev adds contract to list of approved calling contracts\n  function addApprovedContract(address _newContract) public onlyOwner {\n        approvedContracts[_newContract] = true;\n      }\n\n///@notice setIDCadd allows the address of the IdeaCoin contract to be updated\n   function setIDCadd(address _IDC) public onlyOwner {\n     IDC = IdeaCoin(_IDC);\n   }\n\n///@notice proxyMint allows an approved address to mint IdeaCoin\n   function proxyIDCMint(address _add, uint _amount) external onlyApprovedAdd {\n     require(_checkIfFrozen(_add) == false);\n     IDC.mint(_add, _amount);\n   }\n///@notice proxyBurn allows an approved address to burn IdeaCoin\n   function proxyIDCBurn(address _add,  uint _amount) external onlyApprovedAdd {\n     IDC.burn(_add, _amount);\n   }\n///@notice proxyMint allows an approved address to mint IdeaCoin\n      function proxyCCMint(address _add, uint _amount) external onlyApprovedAdd {\n        CC.mint(_add, _amount);\n      }\n///@notice proxyBurn allows an approved address to burn IdeaCoin\n      function proxyCCBurn(address _add,  uint _amount) external onlyApprovedAdd {\n        CC.burn(_add, _amount);\n      }\n\n   function generateIdeaBlock(string _ideaIPFS, uint _globalUseBlockAmount, uint miningTime, uint _royalty, address _inventorsAddress) external onlyApprovedAdd {\n     require(_checkIfFrozen(_inventorsAddress) == false);\n     CPBG._generateIdeaBlock(_ideaIPFS, _globalUseBlockAmount, miningTime, _royalty, _inventorsAddress);\n   }\n   function replicationBlock(uint _ideaId, address _repAdd, address _replicatorAdd) external onlyApprovedAdd {\n     require(_checkIfFrozen(_replicatorAdd) == false);\n     CPBG._replicationBlock( _ideaId, _repAdd, _replicatorAdd);\n   }\n   function generateGUSBlock(address _replicationOwner) external onlyApprovedAdd {\n     require(_checkIfFrozen(_replicationOwner) == false);\n   CPBG._generateGUSBlock( _replicationOwner);\n }\nfunction mintItemToken( string _itemIPFSHash) external onlyApprovedAdd {\n  PoPT._mintItemToken( _itemIPFSHash);\n}\n\n///@notice addMember function is an internal function for adding a member to decentracorp\n///@dev addMember takes in an address _mem, sets its membership to true and increments their rank by one\n  function _addMember(address _mem) external onlyApprovedAdd {\n    require(_checkIfFrozen(_mem) == false);\n      members[_mem] = true;\n      memberLevel[_mem]++;\n      facilityRank[_mem]++;\n      memberCount++;\n  }\n  function _checkIfMember(address _member) public view returns(bool) {\n    if(members[_member] == true){\n      return true;\n    }\n  }\n\n  function _checkIfFrozen(address _member) public view returns(bool) {\n    if(frozenAccounts[_member] == true){\n      return true;\n    }\n  }\n\n  ///@notice getMemberCount function returns total membercount\n  ///@dev getMemberCount is for front end and internal use\n    function getMemberCount() public view returns(uint) {\n      return memberCount;\n    }\n\n    function increaseMemLev(address _add) external onlyApprovedAdd {\n      require(_checkIfFrozen(_add) == false);\n      memberLevel[_add]++;\n    }\n\n    function increaseFacilityRank(address _facAdd, uint _amount) public onlyApprovedAdd {\n      require(_checkIfFrozen(_facAdd) == false);\n      facilityRank[_facAdd] += _amount;\n    }\n\n    function getLevel(address _add) public view returns(uint) {\n      return memberLevel[_add];\n    }\n\n    function getRank(address _add) public view returns(uint) {\n      return facilityRank[_add];\n    }\n\n    function setProfileHash(address _add, string _hash) public onlyApprovedAdd {\n      require(_checkIfFrozen(_add) == false);\n      memberProfileHash[_add] = _hash;\n    }\n\n    function getProfileHash(address _add) public view returns(string) {\n      return memberProfileHash[_add];\n    }\n//@notice this function is a quick freeze triggered by the founder used only in emergency situations\n// this freeze only lasts for a maximum of two days to limit the founders ability to go rogue\n\n\n    function decreaseFacilityRank(address _facility, uint _amount) public onlyApprovedAdd {\n      facilityRank[_facility] -= _amount;\n    }\n\n    function terminateMember(address _member) internal {\n      uint balance = IDC.balanceOf(_member);\n       IDC.burn(_member, balance);\n       members[_member] = false;\n       memberLevel[_member] = 0;\n       facilityRank[_member] = 0;\n       frozenAccounts[_member] = true;\n    }\n\n\n }\n",
  "sourcePath": "/home/stan36/repos/DecentraCorp/contracts/CryptoPatent/DecentraCorpPoA.sol",
  "compiler": {
    "name": "solc",
    "version": "0.4.24+commit.e67f0147.Emscripten.clang"
  },
  "schemaVersion": "2.0.1",
  "updatedAt": "2019-01-02T04:57:32.071Z"
}