{
  "contractName": "DecentraCorpPoA",
  "abi": [
    {
      "constant": true,
      "inputs": [
        {
          "name": "",
          "type": "uint256"
        }
      ],
      "name": "proposals",
      "outputs": [
        {
          "name": "Address",
          "type": "address"
        },
        {
          "name": "PropCode",
          "type": "uint256"
        },
        {
          "name": "Amount",
          "type": "uint256"
        },
        {
          "name": "voteHash",
          "type": "string"
        },
        {
          "name": "executed",
          "type": "bool"
        },
        {
          "name": "proposalPassed",
          "type": "bool"
        },
        {
          "name": "numberOfVotes",
          "type": "uint256"
        }
      ],
      "payable": false,
      "stateMutability": "view",
      "type": "function"
    },
    {
      "constant": true,
      "inputs": [],
      "name": "frozen",
      "outputs": [
        {
          "name": "",
          "type": "bool"
        }
      ],
      "payable": false,
      "stateMutability": "view",
      "type": "function"
    },
    {
      "constant": true,
      "inputs": [],
      "name": "memberCount",
      "outputs": [
        {
          "name": "",
          "type": "uint256"
        }
      ],
      "payable": false,
      "stateMutability": "view",
      "type": "function"
    },
    {
      "constant": true,
      "inputs": [],
      "name": "CPBG",
      "outputs": [
        {
          "name": "",
          "type": "address"
        }
      ],
      "payable": false,
      "stateMutability": "view",
      "type": "function"
    },
    {
      "constant": true,
      "inputs": [],
      "name": "founder",
      "outputs": [
        {
          "name": "",
          "type": "address"
        }
      ],
      "payable": false,
      "stateMutability": "view",
      "type": "function"
    },
    {
      "constant": true,
      "inputs": [],
      "name": "IDC",
      "outputs": [
        {
          "name": "",
          "type": "address"
        }
      ],
      "payable": false,
      "stateMutability": "view",
      "type": "function"
    },
    {
      "constant": true,
      "inputs": [],
      "name": "CC",
      "outputs": [
        {
          "name": "",
          "type": "address"
        }
      ],
      "payable": false,
      "stateMutability": "view",
      "type": "function"
    },
    {
      "constant": false,
      "inputs": [],
      "name": "renounceOwnership",
      "outputs": [],
      "payable": false,
      "stateMutability": "nonpayable",
      "type": "function"
    },
    {
      "constant": true,
      "inputs": [],
      "name": "PoPT",
      "outputs": [
        {
          "name": "",
          "type": "address"
        }
      ],
      "payable": false,
      "stateMutability": "view",
      "type": "function"
    },
    {
      "constant": true,
      "inputs": [],
      "name": "minimumQuorum",
      "outputs": [
        {
          "name": "",
          "type": "uint256"
        }
      ],
      "payable": false,
      "stateMutability": "view",
      "type": "function"
    },
    {
      "constant": true,
      "inputs": [],
      "name": "owner",
      "outputs": [
        {
          "name": "",
          "type": "address"
        }
      ],
      "payable": false,
      "stateMutability": "view",
      "type": "function"
    },
    {
      "constant": false,
      "inputs": [
        {
          "name": "_newOwner",
          "type": "address"
        }
      ],
      "name": "transferOwnership",
      "outputs": [],
      "payable": false,
      "stateMutability": "nonpayable",
      "type": "function"
    },
    {
      "inputs": [
        {
          "name": "_IDC",
          "type": "address"
        },
        {
          "name": "_CPBG",
          "type": "address"
        },
        {
          "name": "_CC",
          "type": "address"
        },
        {
          "name": "_PoPT",
          "type": "address"
        }
      ],
      "payable": false,
      "stateMutability": "nonpayable",
      "type": "constructor"
    },
    {
      "anonymous": false,
      "inputs": [
        {
          "indexed": false,
          "name": "VoteHash",
          "type": "string"
        },
        {
          "indexed": false,
          "name": "PropCode",
          "type": "uint256"
        }
      ],
      "name": "ProposalCreated",
      "type": "event"
    },
    {
      "anonymous": false,
      "inputs": [
        {
          "indexed": false,
          "name": "_voter",
          "type": "address"
        },
        {
          "indexed": false,
          "name": "inSupport",
          "type": "bool"
        }
      ],
      "name": "Voted",
      "type": "event"
    },
    {
      "anonymous": false,
      "inputs": [
        {
          "indexed": true,
          "name": "previousOwner",
          "type": "address"
        }
      ],
      "name": "OwnershipRenounced",
      "type": "event"
    },
    {
      "anonymous": false,
      "inputs": [
        {
          "indexed": true,
          "name": "previousOwner",
          "type": "address"
        },
        {
          "indexed": true,
          "name": "newOwner",
          "type": "address"
        }
      ],
      "name": "OwnershipTransferred",
      "type": "event"
    },
    {
      "constant": false,
      "inputs": [
        {
          "name": "_address",
          "type": "address"
        },
        {
          "name": "_propCode",
          "type": "uint256"
        },
        {
          "name": "_voteHash",
          "type": "string"
        },
        {
          "name": "_amount",
          "type": "uint256"
        }
      ],
      "name": "createProposal",
      "outputs": [],
      "payable": false,
      "stateMutability": "nonpayable",
      "type": "function"
    },
    {
      "constant": false,
      "inputs": [
        {
          "name": "_ProposalID",
          "type": "uint256"
        },
        {
          "name": "supportsProposal",
          "type": "bool"
        }
      ],
      "name": "vote",
      "outputs": [
        {
          "name": "voteID",
          "type": "uint256"
        }
      ],
      "payable": false,
      "stateMutability": "nonpayable",
      "type": "function"
    },
    {
      "constant": false,
      "inputs": [
        {
          "name": "_newContract",
          "type": "address"
        }
      ],
      "name": "addApprovedContract",
      "outputs": [],
      "payable": false,
      "stateMutability": "nonpayable",
      "type": "function"
    },
    {
      "constant": false,
      "inputs": [
        {
          "name": "_IDC",
          "type": "address"
        }
      ],
      "name": "setIDCadd",
      "outputs": [],
      "payable": false,
      "stateMutability": "nonpayable",
      "type": "function"
    },
    {
      "constant": false,
      "inputs": [
        {
          "name": "_add",
          "type": "address"
        },
        {
          "name": "_amount",
          "type": "uint256"
        }
      ],
      "name": "proxyIDCMint",
      "outputs": [],
      "payable": false,
      "stateMutability": "nonpayable",
      "type": "function"
    },
    {
      "constant": false,
      "inputs": [
        {
          "name": "_add",
          "type": "address"
        },
        {
          "name": "_amount",
          "type": "uint256"
        }
      ],
      "name": "proxyIDCBurn",
      "outputs": [],
      "payable": false,
      "stateMutability": "nonpayable",
      "type": "function"
    },
    {
      "constant": false,
      "inputs": [
        {
          "name": "_add",
          "type": "address"
        },
        {
          "name": "_amount",
          "type": "uint256"
        }
      ],
      "name": "proxyCCMint",
      "outputs": [],
      "payable": false,
      "stateMutability": "nonpayable",
      "type": "function"
    },
    {
      "constant": false,
      "inputs": [
        {
          "name": "_add",
          "type": "address"
        },
        {
          "name": "_amount",
          "type": "uint256"
        }
      ],
      "name": "proxyCCBurn",
      "outputs": [],
      "payable": false,
      "stateMutability": "nonpayable",
      "type": "function"
    },
    {
      "constant": false,
      "inputs": [
        {
          "name": "_ideaIPFS",
          "type": "string"
        },
        {
          "name": "_globalUseBlockAmount",
          "type": "uint256"
        },
        {
          "name": "miningTime",
          "type": "uint256"
        },
        {
          "name": "_royalty",
          "type": "uint256"
        },
        {
          "name": "_inventorsAddress",
          "type": "address"
        },
        {
          "name": "_inventionAdd",
          "type": "address"
        }
      ],
      "name": "generateIdeaBlock",
      "outputs": [],
      "payable": false,
      "stateMutability": "nonpayable",
      "type": "function"
    },
    {
      "constant": false,
      "inputs": [
        {
          "name": "_ideaId",
          "type": "uint256"
        },
        {
          "name": "_repAdd",
          "type": "address"
        },
        {
          "name": "_replicatorAdd",
          "type": "address"
        }
      ],
      "name": "replicationBlock",
      "outputs": [],
      "payable": false,
      "stateMutability": "nonpayable",
      "type": "function"
    },
    {
      "constant": false,
      "inputs": [
        {
          "name": "_replicationOwner",
          "type": "address"
        }
      ],
      "name": "generateGUSBlock",
      "outputs": [],
      "payable": false,
      "stateMutability": "nonpayable",
      "type": "function"
    },
    {
      "constant": false,
      "inputs": [
        {
          "name": "_itemIPFSHash",
          "type": "string"
        }
      ],
      "name": "mintItemToken",
      "outputs": [],
      "payable": false,
      "stateMutability": "nonpayable",
      "type": "function"
    },
    {
      "constant": false,
      "inputs": [
        {
          "name": "_mem",
          "type": "address"
        }
      ],
      "name": "_addMember",
      "outputs": [],
      "payable": false,
      "stateMutability": "nonpayable",
      "type": "function"
    },
    {
      "constant": true,
      "inputs": [
        {
          "name": "_member",
          "type": "address"
        }
      ],
      "name": "_checkIfMember",
      "outputs": [
        {
          "name": "",
          "type": "bool"
        }
      ],
      "payable": false,
      "stateMutability": "view",
      "type": "function"
    },
    {
      "constant": true,
      "inputs": [
        {
          "name": "_member",
          "type": "address"
        }
      ],
      "name": "_checkIfFrozen",
      "outputs": [
        {
          "name": "",
          "type": "bool"
        }
      ],
      "payable": false,
      "stateMutability": "view",
      "type": "function"
    },
    {
      "constant": true,
      "inputs": [],
      "name": "getMemberCount",
      "outputs": [
        {
          "name": "",
          "type": "uint256"
        }
      ],
      "payable": false,
      "stateMutability": "view",
      "type": "function"
    },
    {
      "constant": false,
      "inputs": [
        {
          "name": "_add",
          "type": "address"
        }
      ],
      "name": "increaseMemLev",
      "outputs": [],
      "payable": false,
      "stateMutability": "nonpayable",
      "type": "function"
    },
    {
      "constant": false,
      "inputs": [
        {
          "name": "_facAdd",
          "type": "address"
        },
        {
          "name": "_amount",
          "type": "uint256"
        }
      ],
      "name": "increaseFacilityRank",
      "outputs": [],
      "payable": false,
      "stateMutability": "nonpayable",
      "type": "function"
    },
    {
      "constant": true,
      "inputs": [
        {
          "name": "_add",
          "type": "address"
        }
      ],
      "name": "getLevel",
      "outputs": [
        {
          "name": "",
          "type": "uint256"
        }
      ],
      "payable": false,
      "stateMutability": "view",
      "type": "function"
    },
    {
      "constant": true,
      "inputs": [
        {
          "name": "_add",
          "type": "address"
        }
      ],
      "name": "getRank",
      "outputs": [
        {
          "name": "",
          "type": "uint256"
        }
      ],
      "payable": false,
      "stateMutability": "view",
      "type": "function"
    },
    {
      "constant": false,
      "inputs": [
        {
          "name": "_add",
          "type": "address"
        },
        {
          "name": "_hash",
          "type": "string"
        }
      ],
      "name": "setProfileHash",
      "outputs": [],
      "payable": false,
      "stateMutability": "nonpayable",
      "type": "function"
    },
    {
      "constant": true,
      "inputs": [
        {
          "name": "_add",
          "type": "address"
        }
      ],
      "name": "getProfileHash",
      "outputs": [
        {
          "name": "",
          "type": "string"
        }
      ],
      "payable": false,
      "stateMutability": "view",
      "type": "function"
    },
    {
      "constant": false,
      "inputs": [
        {
          "name": "_facility",
          "type": "address"
        },
        {
          "name": "_amount",
          "type": "uint256"
        }
      ],
      "name": "decreaseFacilityRank",
      "outputs": [],
      "payable": false,
      "stateMutability": "nonpayable",
      "type": "function"
    },
    {
      "constant": true,
      "inputs": [
        {
          "name": "hash",
          "type": "string"
        }
      ],
      "name": "getPropID",
      "outputs": [
        {
          "name": "",
          "type": "uint256"
        }
      ],
      "payable": false,
      "stateMutability": "view",
      "type": "function"
    },
    {
      "constant": true,
      "inputs": [
        {
          "name": "hash",
          "type": "string"
        }
      ],
      "name": "getPropCode",
      "outputs": [
        {
          "name": "",
          "type": "uint256"
        }
      ],
      "payable": false,
      "stateMutability": "view",
      "type": "function"
    },
    {
      "constant": true,
      "inputs": [
        {
          "name": "_add",
          "type": "address"
        },
        {
          "name": "_ProposalID",
          "type": "uint256"
        }
      ],
      "name": "checkIfVoted",
      "outputs": [
        {
          "name": "",
          "type": "bool"
        }
      ],
      "payable": false,
      "stateMutability": "view",
      "type": "function"
    },
    {
      "constant": false,
      "inputs": [
        {
          "name": "_member",
          "type": "address"
        },
        {
          "name": "_commentsHash",
          "type": "string"
        }
      ],
      "name": "postComment",
      "outputs": [],
      "payable": false,
      "stateMutability": "nonpayable",
      "type": "function"
    },
    {
      "constant": true,
      "inputs": [
        {
          "name": "_member",
          "type": "address"
        }
      ],
      "name": "getComment",
      "outputs": [
        {
          "name": "",
          "type": "string"
        }
      ],
      "payable": false,
      "stateMutability": "view",
      "type": "function"
    }
  ],
  "bytecode": "0x60806040523480156200001157600080fd5b5060405160808062003e0a83398101806040528101908080519060200190929190805190602001909291908051906020019092919080519060200190929190505050336000806101000a81548173ffffffffffffffffffffffffffffffffffffffff021916908373ffffffffffffffffffffffffffffffffffffffff16021790555083600160006101000a81548173ffffffffffffffffffffffffffffffffffffffff021916908373ffffffffffffffffffffffffffffffffffffffff16021790555082600260006101000a81548173ffffffffffffffffffffffffffffffffffffffff021916908373ffffffffffffffffffffffffffffffffffffffff16021790555081600360006101000a81548173ffffffffffffffffffffffffffffffffffffffff021916908373ffffffffffffffffffffffffffffffffffffffff16021790555080600460006101000a81548173ffffffffffffffffffffffffffffffffffffffff021916908373ffffffffffffffffffffffffffffffffffffffff1602179055506001600860003373ffffffffffffffffffffffffffffffffffffffff1673ffffffffffffffffffffffffffffffffffffffff16815260200190815260200160002060006101000a81548160ff0219169083151502179055506005600081548092919060010191905055506064600960003373ffffffffffffffffffffffffffffffffffffffff1673ffffffffffffffffffffffffffffffffffffffff16815260200190815260200160002060008282540192505081905550606060405190810160405280602e81526020017f516d5375393370365852616e534e6d6f76346535633856515042784b6f327a5781526020017f66316a5a70765654667769324c39000000000000000000000000000000000000815250600b60003373ffffffffffffffffffffffffffffffffffffffff1673ffffffffffffffffffffffffffffffffffffffff1681526020019081526020016000209080519060200190620003009291906200039a565b506064600a60003373ffffffffffffffffffffffffffffffffffffffff1673ffffffffffffffffffffffffffffffffffffffff1681526020019081526020016000206000828254019250508190555033600760016101000a81548173ffffffffffffffffffffffffffffffffffffffff021916908373ffffffffffffffffffffffffffffffffffffffff1602179055505050505062000449565b828054600181600116156101000203166002900490600052602060002090601f016020900481019282601f10620003dd57805160ff19168380011785556200040e565b828001600101855582156200040e579182015b828111156200040d578251825591602001919060010190620003f0565b5b5090506200041d919062000421565b5090565b6200044691905b808211156200044257600081600090555060010162000428565b5090565b90565b6139b180620004596000396000f3006080604052600436106101ee576000357c0100000000000000000000000000000000000000000000000000000000900463ffffffff168063013cf08b146101f3578063054f7d9c146102f75780630c7d1b3f1461032657806310734e431461036957806311aee380146103e6578063135171be146104115780631d28ce3b146104545780631d40bbcf146104ed5780632b2891ec1461053057806332836d8d1461056b5780633c91f273146105ae5780633e7d4dbd146106055780634777e8ea1461066a5780634d853ee5146106ad57806352d2c11d14610704578063548c0ef41461075b5780636509e776146107b2578063653724b1146108095780637130c24114610864578063715018a6146108b15780637a511f1a146108c85780637ae20234146109455780637d10707b1461099c5780638160f0b514610a39578063817c896614610a645780638da5cb5b14610abb578063997072f714610b12578063aaa746bb14610b3d578063afa879d114610b98578063b2d5a69614610c21578063bc753b6214610cdd578063c9d27afe14610d2a578063caef940014610d77578063d82f980b14610dc4578063d917f76a14610e11578063e934f00b14610e9a578063e9e2b98614610f07578063efcbd8d314610f54578063f2fde38b14610fa1578063f6bb0cf114610fe4575b600080fd5b3480156101ff57600080fd5b5061021e600480360381019080803590602001909291905050506110a0565b604051808873ffffffffffffffffffffffffffffffffffffffff1673ffffffffffffffffffffffffffffffffffffffff168152602001878152602001868152602001806020018515151515815260200184151515158152602001838152602001828103825286818151815260200191508051906020019080838360005b838110156102b657808201518184015260208101905061029b565b50505050905090810190601f1680156102e35780820380516001836020036101000a031916815260200191505b509850505050505050505060405180910390f35b34801561030357600080fd5b5061030c6111c3565b604051808215151515815260200191505060405180910390f35b34801561033257600080fd5b50610367600480360381019080803573ffffffffffffffffffffffffffffffffffffffff1690602001909291905050506111d6565b005b34801561037557600080fd5b506103d0600480360381019080803590602001908201803590602001908080601f0160208091040260200160405190810160405280939291908181526020018383808284378201915050505050509192919290505050611275565b6040518082815260200191505060405180910390f35b3480156103f257600080fd5b506103fb6112ea565b6040518082815260200191505060405180910390f35b34801561041d57600080fd5b50610452600480360381019080803573ffffffffffffffffffffffffffffffffffffffff1690602001909291905050506112f0565b005b34801561046057600080fd5b506104eb600480360381019080803590602001908201803590602001919091929391929390803590602001909291908035906020019092919080359060200190929190803573ffffffffffffffffffffffffffffffffffffffff169060200190929190803573ffffffffffffffffffffffffffffffffffffffff1690602001909291905050506113a6565b005b3480156104f957600080fd5b5061052e600480360381019080803573ffffffffffffffffffffffffffffffffffffffff16906020019092919050505061156c565b005b34801561053c57600080fd5b506105696004803603810190808035906020019082018035906020019190919293919293905050506116f1565b005b34801561057757600080fd5b506105ac600480360381019080803573ffffffffffffffffffffffffffffffffffffffff169060200190929190505050611817565b005b3480156105ba57600080fd5b506105c3611969565b604051808273ffffffffffffffffffffffffffffffffffffffff1673ffffffffffffffffffffffffffffffffffffffff16815260200191505060405180910390f35b34801561061157600080fd5b50610650600480360381019080803573ffffffffffffffffffffffffffffffffffffffff1690602001909291908035906020019092919050505061198f565b604051808215151515815260200191505060405180910390f35b34801561067657600080fd5b506106ab600480360381019080803573ffffffffffffffffffffffffffffffffffffffff169060200190929190505050611a09565b005b3480156106b957600080fd5b506106c2611ad5565b604051808273ffffffffffffffffffffffffffffffffffffffff1673ffffffffffffffffffffffffffffffffffffffff16815260200191505060405180910390f35b34801561071057600080fd5b50610719611afb565b604051808273ffffffffffffffffffffffffffffffffffffffff1673ffffffffffffffffffffffffffffffffffffffff16815260200191505060405180910390f35b34801561076757600080fd5b5061079c600480360381019080803573ffffffffffffffffffffffffffffffffffffffff169060200190929190505050611b21565b6040518082815260200191505060405180910390f35b3480156107be57600080fd5b506107c7611b6a565b604051808273ffffffffffffffffffffffffffffffffffffffff1673ffffffffffffffffffffffffffffffffffffffff16815260200191505060405180910390f35b34801561081557600080fd5b5061084a600480360381019080803573ffffffffffffffffffffffffffffffffffffffff169060200190929190505050611b90565b604051808215151515815260200191505060405180910390f35b34801561087057600080fd5b506108af600480360381019080803573ffffffffffffffffffffffffffffffffffffffff16906020019092919080359060200190929190505050611bfa565b005b3480156108bd57600080fd5b506108c6611d3a565b005b3480156108d457600080fd5b5061092f600480360381019080803590602001908201803590602001908080601f0160208091040260200160405190810160405280939291908181526020018383808284378201915050505050509192919290505050611e3c565b6040518082815260200191505060405180910390f35b34801561095157600080fd5b5061095a611eb1565b604051808273ffffffffffffffffffffffffffffffffffffffff1673ffffffffffffffffffffffffffffffffffffffff16815260200191505060405180910390f35b3480156109a857600080fd5b50610a37600480360381019080803573ffffffffffffffffffffffffffffffffffffffff16906020019092919080359060200190929190803590602001908201803590602001908080601f016020809104026020016040519081016040528093929190818152602001838380828437820191505050505050919291929080359060200190929190505050611ed7565b005b348015610a4557600080fd5b50610a4e61214d565b6040518082815260200191505060405180910390f35b348015610a7057600080fd5b50610aa5600480360381019080803573ffffffffffffffffffffffffffffffffffffffff169060200190929190505050612153565b6040518082815260200191505060405180910390f35b348015610ac757600080fd5b50610ad061219c565b604051808273ffffffffffffffffffffffffffffffffffffffff1673ffffffffffffffffffffffffffffffffffffffff16815260200191505060405180910390f35b348015610b1e57600080fd5b50610b276121c1565b6040518082815260200191505060405180910390f35b348015610b4957600080fd5b50610b7e600480360381019080803573ffffffffffffffffffffffffffffffffffffffff1690602001909291905050506121cb565b604051808215151515815260200191505060405180910390f35b348015610ba457600080fd5b50610c1f600480360381019080803573ffffffffffffffffffffffffffffffffffffffff169060200190929190803590602001908201803590602001908080601f0160208091040260200160405190810160405280939291908181526020018383808284378201915050505050509192919290505050612235565b005b348015610c2d57600080fd5b50610c62600480360381019080803573ffffffffffffffffffffffffffffffffffffffff169060200190929190505050612307565b6040518080602001828103825283818151815260200191508051906020019080838360005b83811015610ca2578082015181840152602081019050610c87565b50505050905090810190601f168015610ccf5780820380516001836020036101000a031916815260200191505b509250505060405180910390f35b348015610ce957600080fd5b50610d28600480360381019080803573ffffffffffffffffffffffffffffffffffffffff169060200190929190803590602001909291905050506123e8565b005b348015610d3657600080fd5b50610d6160048036038101908080359060200190929190803515159060200190929190505050612498565b6040518082815260200191505060405180910390f35b348015610d8357600080fd5b50610dc2600480360381019080803573ffffffffffffffffffffffffffffffffffffffff16906020019092919080359060200190929190505050612797565b005b348015610dd057600080fd5b50610e0f600480360381019080803573ffffffffffffffffffffffffffffffffffffffff16906020019092919080359060200190929190505050612862565b005b348015610e1d57600080fd5b50610e98600480360381019080803573ffffffffffffffffffffffffffffffffffffffff169060200190929190803590602001908201803590602001908080601f01602080910402602001604051908101604052809392919081815260200183838082843782019150505050505091929192905050506129bd565b005b348015610ea657600080fd5b50610f0560048036038101908080359060200190929190803573ffffffffffffffffffffffffffffffffffffffff169060200190929190803573ffffffffffffffffffffffffffffffffffffffff169060200190929190505050612af3565b005b348015610f1357600080fd5b50610f52600480360381019080803573ffffffffffffffffffffffffffffffffffffffff16906020019092919080359060200190929190505050612c83565b005b348015610f6057600080fd5b50610f9f600480360381019080803573ffffffffffffffffffffffffffffffffffffffff16906020019092919080359060200190929190505050612dc3565b005b348015610fad57600080fd5b50610fe2600480360381019080803573ffffffffffffffffffffffffffffffffffffffff169060200190929190505050612f03565b005b348015610ff057600080fd5b50611025600480360381019080803573ffffffffffffffffffffffffffffffffffffffff169060200190929190505050612f6a565b6040518080602001828103825283818151815260200191508051906020019080838360005b8381101561106557808201518184015260208101905061104a565b50505050905090810190601f1680156110925780820380516001836020036101000a031916815260200191505b509250505060405180910390f35b6011818154811015156110af57fe5b90600052602060002090600802016000915090508060000160009054906101000a900473ffffffffffffffffffffffffffffffffffffffff1690806001015490806002015490806003018054600181600116156101000203166002900480601f01602080910402602001604051908101604052809291908181526020018280546001816001161561010002031660029004801561118d5780601f106111625761010080835404028352916020019161118d565b820191906000526020600020905b81548152906001019060200180831161117057829003601f168201915b5050505050908060040160009054906101000a900460ff16908060040160019054906101000a900460ff16908060050154905087565b600760009054906101000a900460ff1681565b6000809054906101000a900473ffffffffffffffffffffffffffffffffffffffff1673ffffffffffffffffffffffffffffffffffffffff163373ffffffffffffffffffffffffffffffffffffffff1614151561123157600080fd5b80600160006101000a81548173ffffffffffffffffffffffffffffffffffffffff021916908373ffffffffffffffffffffffffffffffffffffffff16021790555050565b6000600e826040518082805190602001908083835b6020831015156112af578051825260208201915060208101905060208303925061128a565b6001836020036101000a0380198251168184511680821785525050505050509050019150509081526020016040518091039020549050919050565b60055481565b6000809054906101000a900473ffffffffffffffffffffffffffffffffffffffff1673ffffffffffffffffffffffffffffffffffffffff163373ffffffffffffffffffffffffffffffffffffffff1614151561134b57600080fd5b6001600d60008373ffffffffffffffffffffffffffffffffffffffff1673ffffffffffffffffffffffffffffffffffffffff16815260200190815260200160002060006101000a81548160ff02191690831515021790555050565b60011515600d60003373ffffffffffffffffffffffffffffffffffffffff1673ffffffffffffffffffffffffffffffffffffffff16815260200190815260200160002060009054906101000a900460ff16151514151561140557600080fd5b6000151561141283611b90565b151514151561142057600080fd5b600260009054906101000a900473ffffffffffffffffffffffffffffffffffffffff1673ffffffffffffffffffffffffffffffffffffffff1663dd11678d888888888888886040518863ffffffff167c010000000000000000000000000000000000000000000000000000000002815260040180806020018781526020018681526020018581526020018473ffffffffffffffffffffffffffffffffffffffff1673ffffffffffffffffffffffffffffffffffffffff1681526020018373ffffffffffffffffffffffffffffffffffffffff1673ffffffffffffffffffffffffffffffffffffffff1681526020018281038252898982818152602001925080828437820191505098505050505050505050600060405180830381600087803b15801561154b57600080fd5b505af115801561155f573d6000803e3d6000fd5b5050505050505050505050565b60011515600d60003373ffffffffffffffffffffffffffffffffffffffff1673ffffffffffffffffffffffffffffffffffffffff16815260200190815260200160002060009054906101000a900460ff1615151415156115cb57600080fd5b600015156115d882611b90565b15151415156115e657600080fd5b6001600860008373ffffffffffffffffffffffffffffffffffffffff1673ffffffffffffffffffffffffffffffffffffffff16815260200190815260200160002060006101000a81548160ff021916908315150217905550600960008273ffffffffffffffffffffffffffffffffffffffff1673ffffffffffffffffffffffffffffffffffffffff16815260200190815260200160002060008154809291906001019190505550600a60008273ffffffffffffffffffffffffffffffffffffffff1673ffffffffffffffffffffffffffffffffffffffff1681526020019081526020016000206000815480929190600101919050555060056000815480929190600101919050555050565b60011515600d60003373ffffffffffffffffffffffffffffffffffffffff1673ffffffffffffffffffffffffffffffffffffffff16815260200190815260200160002060009054906101000a900460ff16151514151561175057600080fd5b600460009054906101000a900473ffffffffffffffffffffffffffffffffffffffff1673ffffffffffffffffffffffffffffffffffffffff1663184e15b583836040518363ffffffff167c01000000000000000000000000000000000000000000000000000000000281526004018080602001828103825284848281815260200192508082843782019150509350505050600060405180830381600087803b1580156117fb57600080fd5b505af115801561180f573d6000803e3d6000fd5b505050505050565b60011515600d60003373ffffffffffffffffffffffffffffffffffffffff1673ffffffffffffffffffffffffffffffffffffffff16815260200190815260200160002060009054906101000a900460ff16151514151561187657600080fd5b6000151561188382611b90565b151514151561189157600080fd5b600260009054906101000a900473ffffffffffffffffffffffffffffffffffffffff1673ffffffffffffffffffffffffffffffffffffffff1663d99e98fb826040518263ffffffff167c0100000000000000000000000000000000000000000000000000000000028152600401808273ffffffffffffffffffffffffffffffffffffffff1673ffffffffffffffffffffffffffffffffffffffff168152602001915050600060405180830381600087803b15801561194e57600080fd5b505af1158015611962573d6000803e3d6000fd5b5050505050565b600260009054906101000a900473ffffffffffffffffffffffffffffffffffffffff1681565b6000806011838154811015156119a157fe5b906000526020600020906008020190508060070160008573ffffffffffffffffffffffffffffffffffffffff1673ffffffffffffffffffffffffffffffffffffffff16815260200190815260200160002060009054906101000a900460ff1691505092915050565b60011515600d60003373ffffffffffffffffffffffffffffffffffffffff1673ffffffffffffffffffffffffffffffffffffffff16815260200190815260200160002060009054906101000a900460ff161515141515611a6857600080fd5b60001515611a7582611b90565b1515141515611a8357600080fd5b600960008273ffffffffffffffffffffffffffffffffffffffff1673ffffffffffffffffffffffffffffffffffffffff1681526020019081526020016000206000815480929190600101919050555050565b600760019054906101000a900473ffffffffffffffffffffffffffffffffffffffff1681565b600160009054906101000a900473ffffffffffffffffffffffffffffffffffffffff1681565b6000600a60008373ffffffffffffffffffffffffffffffffffffffff1673ffffffffffffffffffffffffffffffffffffffff168152602001908152602001600020549050919050565b600360009054906101000a900473ffffffffffffffffffffffffffffffffffffffff1681565b600060011515600c60008473ffffffffffffffffffffffffffffffffffffffff1673ffffffffffffffffffffffffffffffffffffffff16815260200190815260200160002060009054906101000a900460ff1615151415611bf45760019050611bf5565b5b919050565b60011515600d60003373ffffffffffffffffffffffffffffffffffffffff1673ffffffffffffffffffffffffffffffffffffffff16815260200190815260200160002060009054906101000a900460ff161515141515611c5957600080fd5b600160009054906101000a900473ffffffffffffffffffffffffffffffffffffffff1673ffffffffffffffffffffffffffffffffffffffff166391d4e74a83836040518363ffffffff167c0100000000000000000000000000000000000000000000000000000000028152600401808373ffffffffffffffffffffffffffffffffffffffff1673ffffffffffffffffffffffffffffffffffffffff16815260200182815260200192505050600060405180830381600087803b158015611d1e57600080fd5b505af1158015611d32573d6000803e3d6000fd5b505050505050565b6000809054906101000a900473ffffffffffffffffffffffffffffffffffffffff1673ffffffffffffffffffffffffffffffffffffffff163373ffffffffffffffffffffffffffffffffffffffff16141515611d9557600080fd5b6000809054906101000a900473ffffffffffffffffffffffffffffffffffffffff1673ffffffffffffffffffffffffffffffffffffffff167ff8df31144d9c2f0f6b59d69b8b98abd5459d07f2742c4df920b25aae33c6482060405160405180910390a260008060006101000a81548173ffffffffffffffffffffffffffffffffffffffff021916908373ffffffffffffffffffffffffffffffffffffffff160217905550565b6000600f826040518082805190602001908083835b602083101515611e765780518252602082019150602081019050602083039250611e51565b6001836020036101000a0380198251168184511680821785525050505050509050019150509081526020016040518091039020549050919050565b600460009054906101000a900473ffffffffffffffffffffffffffffffffffffffff1681565b60008060118054809190600101611eee9190613719565b9150601182815481101515611eff57fe5b90600052602060002090600802019050858160000160006101000a81548173ffffffffffffffffffffffffffffffffffffffff021916908373ffffffffffffffffffffffffffffffffffffffff16021790555084816001018190555083816003019080519060200190611f7392919061374b565b5081600e856040518082805190602001908083835b602083101515611fad5780518252602082019150602081019050602083039250611f88565b6001836020036101000a03801982511681845116808217855250505050505090500191505090815260200160405180910390208190555084600f856040518082805190602001908083835b60208310151561201d5780518252602082019150602081019050602083039250611ff8565b6001836020036101000a03801982511681845116808217855250505050505090500191505090815260200160405180910390208190555082816002018190555060008160040160006101000a81548160ff02191690831515021790555060008160040160016101000a81548160ff021916908315150217905550600081600501819055507f68a3e694fa578ad362161771d7ccb8d633a72af1e982b64ed1bef4147e91eafb84866040518080602001838152602001828103825284818151815260200191508051906020019080838360005b8381101561210a5780820151818401526020810190506120ef565b50505050905090810190601f1680156121375780820380516001836020036101000a031916815260200191505b50935050505060405180910390a1505050505050565b60065481565b6000600960008373ffffffffffffffffffffffffffffffffffffffff1673ffffffffffffffffffffffffffffffffffffffff168152602001908152602001600020549050919050565b6000809054906101000a900473ffffffffffffffffffffffffffffffffffffffff1681565b6000600554905090565b600060011515600860008473ffffffffffffffffffffffffffffffffffffffff1673ffffffffffffffffffffffffffffffffffffffff16815260200190815260200160002060009054906101000a900460ff161515141561222f5760019050612230565b5b919050565b60011515600d60003373ffffffffffffffffffffffffffffffffffffffff1673ffffffffffffffffffffffffffffffffffffffff16815260200190815260200160002060009054906101000a900460ff16151514151561229457600080fd5b600015156122a183611b90565b15151415156122af57600080fd5b80600b60008473ffffffffffffffffffffffffffffffffffffffff1673ffffffffffffffffffffffffffffffffffffffff168152602001908152602001600020908051906020019061230292919061374b565b505050565b6060600b60008373ffffffffffffffffffffffffffffffffffffffff1673ffffffffffffffffffffffffffffffffffffffff1681526020019081526020016000208054600181600116156101000203166002900480601f0160208091040260200160405190810160405280929190818152602001828054600181600116156101000203166002900480156123dc5780601f106123b1576101008083540402835291602001916123dc565b820191906000526020600020905b8154815290600101906020018083116123bf57829003601f168201915b50505050509050919050565b60011515600d60003373ffffffffffffffffffffffffffffffffffffffff1673ffffffffffffffffffffffffffffffffffffffff16815260200190815260200160002060009054906101000a900460ff16151514151561244757600080fd5b80600a60008473ffffffffffffffffffffffffffffffffffffffff1673ffffffffffffffffffffffffffffffffffffffff168152602001908152602001600020600082825403925050819055505050565b6000806011848154811015156124aa57fe5b90600052602060002090600802019050600115158160070160003373ffffffffffffffffffffffffffffffffffffffff1673ffffffffffffffffffffffffffffffffffffffff16815260200190815260200160002060009054906101000a900460ff1615151415151561251c57600080fd5b60011515600860003373ffffffffffffffffffffffffffffffffffffffff1673ffffffffffffffffffffffffffffffffffffffff16815260200190815260200160002060009054906101000a900460ff16151514151561257b57600080fd5b80600601805480919060010161259191906137cb565b9150604080519081016040528084151581526020013373ffffffffffffffffffffffffffffffffffffffff1681525081600601838154811015156125d157fe5b9060005260206000200160008201518160000160006101000a81548160ff02191690831515021790555060208201518160000160016101000a81548173ffffffffffffffffffffffffffffffffffffffff021916908373ffffffffffffffffffffffffffffffffffffffff16021790555090505060018160070160003373ffffffffffffffffffffffffffffffffffffffff1673ffffffffffffffffffffffffffffffffffffffff16815260200190815260200160002060006101000a81548160ff021916908315150217905550818060010192508160050181905550600960003373ffffffffffffffffffffffffffffffffffffffff1673ffffffffffffffffffffffffffffffffffffffff168152602001908152602001600020600081548092919060010191905055507f8eb81cb806dbb3d8a2f94981614331a55dfd90e06a42fdc362ca3ca96981d92f3384604051808373ffffffffffffffffffffffffffffffffffffffff1673ffffffffffffffffffffffffffffffffffffffff168152602001821515151581526020019250505060405180910390a161277461304b565b600654816005015410151561278d5761278c84613086565b5b8191505092915050565b60011515600d60003373ffffffffffffffffffffffffffffffffffffffff1673ffffffffffffffffffffffffffffffffffffffff16815260200190815260200160002060009054906101000a900460ff1615151415156127f657600080fd5b6000151561280383611b90565b151514151561281157600080fd5b80600a60008473ffffffffffffffffffffffffffffffffffffffff1673ffffffffffffffffffffffffffffffffffffffff168152602001908152602001600020600082825401925050819055505050565b60011515600d60003373ffffffffffffffffffffffffffffffffffffffff1673ffffffffffffffffffffffffffffffffffffffff16815260200190815260200160002060009054906101000a900460ff1615151415156128c157600080fd5b600015156128ce83611b90565b15151415156128dc57600080fd5b600160009054906101000a900473ffffffffffffffffffffffffffffffffffffffff1673ffffffffffffffffffffffffffffffffffffffff166340c10f1983836040518363ffffffff167c0100000000000000000000000000000000000000000000000000000000028152600401808373ffffffffffffffffffffffffffffffffffffffff1673ffffffffffffffffffffffffffffffffffffffff16815260200182815260200192505050600060405180830381600087803b1580156129a157600080fd5b505af11580156129b5573d6000803e3d6000fd5b505050505050565b600160009054906101000a900473ffffffffffffffffffffffffffffffffffffffff1673ffffffffffffffffffffffffffffffffffffffff166391d4e74a33600a6040518363ffffffff167c0100000000000000000000000000000000000000000000000000000000028152600401808373ffffffffffffffffffffffffffffffffffffffff1673ffffffffffffffffffffffffffffffffffffffff16815260200182815260200192505050600060405180830381600087803b158015612a8357600080fd5b505af1158015612a97573d6000803e3d6000fd5b5050505080601060008473ffffffffffffffffffffffffffffffffffffffff1673ffffffffffffffffffffffffffffffffffffffff1681526020019081526020016000209080519060200190612aee92919061374b565b505050565b60011515600d60003373ffffffffffffffffffffffffffffffffffffffff1673ffffffffffffffffffffffffffffffffffffffff16815260200190815260200160002060009054906101000a900460ff161515141515612b5257600080fd5b60001515612b5f82611b90565b1515141515612b6d57600080fd5b600260009054906101000a900473ffffffffffffffffffffffffffffffffffffffff1673ffffffffffffffffffffffffffffffffffffffff1663979571c58484846040518463ffffffff167c0100000000000000000000000000000000000000000000000000000000028152600401808481526020018373ffffffffffffffffffffffffffffffffffffffff1673ffffffffffffffffffffffffffffffffffffffff1681526020018273ffffffffffffffffffffffffffffffffffffffff1673ffffffffffffffffffffffffffffffffffffffff1681526020019350505050600060405180830381600087803b158015612c6657600080fd5b505af1158015612c7a573d6000803e3d6000fd5b50505050505050565b60011515600d60003373ffffffffffffffffffffffffffffffffffffffff1673ffffffffffffffffffffffffffffffffffffffff16815260200190815260200160002060009054906101000a900460ff161515141515612ce257600080fd5b600360009054906101000a900473ffffffffffffffffffffffffffffffffffffffff1673ffffffffffffffffffffffffffffffffffffffff166336f2189183836040518363ffffffff167c0100000000000000000000000000000000000000000000000000000000028152600401808373ffffffffffffffffffffffffffffffffffffffff1673ffffffffffffffffffffffffffffffffffffffff16815260200182815260200192505050600060405180830381600087803b158015612da757600080fd5b505af1158015612dbb573d6000803e3d6000fd5b505050505050565b60011515600d60003373ffffffffffffffffffffffffffffffffffffffff1673ffffffffffffffffffffffffffffffffffffffff16815260200190815260200160002060009054906101000a900460ff161515141515612e2257600080fd5b600360009054906101000a900473ffffffffffffffffffffffffffffffffffffffff1673ffffffffffffffffffffffffffffffffffffffff166340c10f1983836040518363ffffffff167c0100000000000000000000000000000000000000000000000000000000028152600401808373ffffffffffffffffffffffffffffffffffffffff1673ffffffffffffffffffffffffffffffffffffffff16815260200182815260200192505050600060405180830381600087803b158015612ee757600080fd5b505af1158015612efb573d6000803e3d6000fd5b505050505050565b6000809054906101000a900473ffffffffffffffffffffffffffffffffffffffff1673ffffffffffffffffffffffffffffffffffffffff163373ffffffffffffffffffffffffffffffffffffffff16141515612f5e57600080fd5b612f6781613308565b50565b6060601060008373ffffffffffffffffffffffffffffffffffffffff1673ffffffffffffffffffffffffffffffffffffffff1681526020019081526020016000208054600181600116156101000203166002900480601f01602080910402602001604051908101604052809291908181526020018280546001816001161561010002031660029004801561303f5780601f106130145761010080835404028352916020019161303f565b820191906000526020600020905b81548152906001019060200180831161302257829003601f168201915b50505050509050919050565b60008060006130586121c1565b9250600a8381151561306657fe5b04915060028381151561307557fe5b049050818101600681905550505050565b60008060008060008060006011888154811015156130a057fe5b906000526020600020906008020196508660040160009054906101000a900460ff161515156130ce57600080fd5b600095506000945060009350600092505b86600601805490508310156131465786600601838154811015156130ff57fe5b9060005260206000200191506001905080860195508160000160009054906101000a900460ff161561313557808501945061313b565b80840193505b8260010192506130df565b600654861015151561315757600080fd5b838511156132e05760018760040160006101000a81548160ff02191690831515021790555060018760040160016101000a81548160ff021916908315150217905550600187600101541415613216578660000160009054906101000a900473ffffffffffffffffffffffffffffffffffffffff1673ffffffffffffffffffffffffffffffffffffffff166108fc88600201549081150290604051600060405180830381858888f19350505050158015613214573d6000803e3d6000fd5b505b6002876001015414156132a0576001600c60008960000160009054906101000a900473ffffffffffffffffffffffffffffffffffffffff1673ffffffffffffffffffffffffffffffffffffffff1673ffffffffffffffffffffffffffffffffffffffff16815260200190815260200160002060006101000a81548160ff0219169083151502179055505b6003876001015414156132db576132da8760000160009054906101000a900473ffffffffffffffffffffffffffffffffffffffff16613402565b5b6132fe565b60008760040160016101000a81548160ff0219169083151502179055505b5050505050505050565b600073ffffffffffffffffffffffffffffffffffffffff168173ffffffffffffffffffffffffffffffffffffffff161415151561334457600080fd5b8073ffffffffffffffffffffffffffffffffffffffff166000809054906101000a900473ffffffffffffffffffffffffffffffffffffffff1673ffffffffffffffffffffffffffffffffffffffff167f8be0079c531659141344cd1fd0a4f28419497f9722a3daafe3b4186f6b6457e060405160405180910390a3806000806101000a81548173ffffffffffffffffffffffffffffffffffffffff021916908373ffffffffffffffffffffffffffffffffffffffff16021790555050565b6000600160009054906101000a900473ffffffffffffffffffffffffffffffffffffffff1673ffffffffffffffffffffffffffffffffffffffff166370a08231836040518263ffffffff167c0100000000000000000000000000000000000000000000000000000000028152600401808273ffffffffffffffffffffffffffffffffffffffff1673ffffffffffffffffffffffffffffffffffffffff168152602001915050602060405180830381600087803b1580156134c157600080fd5b505af11580156134d5573d6000803e3d6000fd5b505050506040513d60208110156134eb57600080fd5b81019080805190602001909291905050509050600160009054906101000a900473ffffffffffffffffffffffffffffffffffffffff1673ffffffffffffffffffffffffffffffffffffffff166391d4e74a83836040518363ffffffff167c0100000000000000000000000000000000000000000000000000000000028152600401808373ffffffffffffffffffffffffffffffffffffffff1673ffffffffffffffffffffffffffffffffffffffff16815260200182815260200192505050600060405180830381600087803b1580156135c357600080fd5b505af11580156135d7573d6000803e3d6000fd5b505050506000600860008473ffffffffffffffffffffffffffffffffffffffff1673ffffffffffffffffffffffffffffffffffffffff16815260200190815260200160002060006101000a81548160ff0219169083151502179055506000600960008473ffffffffffffffffffffffffffffffffffffffff1673ffffffffffffffffffffffffffffffffffffffff168152602001908152602001600020819055506000600a60008473ffffffffffffffffffffffffffffffffffffffff1673ffffffffffffffffffffffffffffffffffffffff168152602001908152602001600020819055506001600c60008473ffffffffffffffffffffffffffffffffffffffff1673ffffffffffffffffffffffffffffffffffffffff16815260200190815260200160002060006101000a81548160ff0219169083151502179055505050565b8154818355818111156137465760080281600802836000526020600020918201910161374591906137f7565b5b505050565b828054600181600116156101000203166002900490600052602060002090601f016020900481019282601f1061378c57805160ff19168380011785556137ba565b828001600101855582156137ba579182015b828111156137b957825182559160200191906001019061379e565b5b5090506137c7919061389d565b5090565b8154818355818111156137f2578183600052602060002091820191016137f191906138c2565b5b505050565b61389a91905b8082111561389657600080820160006101000a81549073ffffffffffffffffffffffffffffffffffffffff02191690556001820160009055600282016000905560038201600061384d919061391c565b6004820160006101000a81549060ff02191690556004820160016101000a81549060ff0219169055600582016000905560068201600061388d9190613964565b506008016137fd565b5090565b90565b6138bf91905b808211156138bb5760008160009055506001016138a3565b5090565b90565b61391991905b8082111561391557600080820160006101000a81549060ff02191690556000820160016101000a81549073ffffffffffffffffffffffffffffffffffffffff0219169055506001016138c8565b5090565b90565b50805460018160011615610100020316600290046000825580601f106139425750613961565b601f016020900490600052602060002090810190613960919061389d565b5b50565b508054600082559060005260206000209081019061398291906138c2565b505600a165627a7a723058202dd8a0c296a4a8a0e9e19f97a571333daa46b4634264948039a45314ecda7a520029",
  "source": "pragma solidity ^0.4.21;\nimport \"zeppelin-solidity/contracts/ownership/Ownable.sol\";\nimport \"zeppelin-solidity/contracts/math/SafeMath.sol\";\n\n////////////////////////////////////////////////////////////////////////////////////////////\n/// @title DecentraCorpPoA\n/// @author DecentraCorp\n/// @notice this contract will serve as an information portal between the main ethereum\n///   network and the CryptoPatent Blockchain\n/// @dev All function calls are currently implement without side effects\n////////////////////////////////////////////////////////////////////////////////////////////\n/// @author Christopher Dixon\n////////////////////////////////////////////////////////////////////////////////////////////\ncontract IdeaCoin {\n    function mint(address _to, uint256 _value) external;\n    function burnIDC(address _from, uint256 _value)  external;\n    function balanceOf(address _addr) public constant returns (uint);\n}\n//IdeaCoin interface\n/////////////////////////////////////////////////////////////////////////////////////////////\ncontract ProofOfPurchaseToken{\n    function safeTransferFrom(address _from, address _to, uint256 _tokenId) public;\n    function _mintItemToken( string _itemIPFSHash) external;\n}\n////////////////////////////////////////////////////////////////////////////////////////////\ncontract ChaosCoin {\n    function mint(address _to, uint256 _value) external;\n    function burnCC(address _from, uint256 _value)  external;\n\n}\n//ChaosCoin interface\n/////////////////////////////////////////////////////////////////////////////////////////////\ncontract CryptoPatentBlockGenerator {\n    function _generateIdeaBlock(string _ideaIPFS, uint _globalUseBlockAmount, uint miningTime, uint _royalty, address _inventorsAddress, address _inventionAdd) external;\n    function _replicationBlock(uint _ideaId, address _repAdd, address _replicatorAdd) external;\n    function _generateGUSBlock(address _replicationOwner) external;\n}\n/// CryptoPatentBlockGenerator interface\n/////////////////////////////////////////////////////////////////////////////////////////////\n\n contract DecentraCorpPoA is Ownable {\n   using SafeMath for uint256;\n///@param IDC is used to make calls to the IdeaCoin Contract\n   IdeaCoin public IDC;\n   CryptoPatentBlockGenerator public CPBG;\n   ChaosCoin public CC;\n   ProofOfPurchaseToken public PoPT;\n\n   uint public memberCount;\n   uint public minimumQuorum;\n   bool public frozen;\n   address public founder;\n   mapping (address =>bool) members;\n   mapping(address => uint) memberLevel;\n   mapping(address => uint) facilityRank;\n   mapping(address => string) memberProfileHash;\n   mapping(address => bool) frozenAccounts;\n///@param approvedContracts is a mappiung of contracts alloud to call function on other\n   mapping(address => bool) approvedContracts;\n   mapping(string => uint) getHash;\n   mapping(string => uint) propCode;\n   mapping(address => string) profileComments;\n   Proposal[] public proposals;\n\n   event ProposalCreated(string VoteHash, uint PropCode);\n   event Voted(address _voter, bool inSupport);\n\n\n   struct Proposal {\n        address Address;\n        uint PropCode;\n        uint Amount;\n        string voteHash;\n        bool executed;\n        bool proposalPassed;\n        uint numberOfVotes;\n        Vote[] votes;\n        mapping (address => bool) voted;\n    }\n\n    struct Vote {\n            bool inSupport;\n            address voter;\n    }\n\n\n   modifier onlyApprovedAdd() {\n     require(approvedContracts[msg.sender] == true);\n     _;\n   }\n\n\n\n\n\n///@notice constructor sets up IdeaCoin address through truffle wizardry\n   constructor(IdeaCoin _IDC, CryptoPatentBlockGenerator _CPBG, ChaosCoin _CC, ProofOfPurchaseToken _PoPT) public {\n     IDC=(_IDC);\n     CPBG =(_CPBG);\n     CC=(_CC);\n     PoPT = (_PoPT);\n     members[msg.sender] = true;\n     memberCount++;\n     memberLevel[msg.sender] += 100;\n     memberProfileHash[msg.sender] = \"QmSu93p6XRanSNmov4e5c8VQPBxKo2zWf1jZpvVTfwi2L9\";\n     facilityRank[msg.sender] += 100;\n     founder = msg.sender;\n   }\n/**\n**@notice Proposal Codes are used to fire specific code. each number represents a different action\n*** the following are is a list of prop codes and their actions\n** 1. Funding Proposal: the address entered is the address receiving funding\n** 2. MemberShip Account Freeze Proposal: the address entered is the address to be frozen\n** 3. Membership Termination Proposal: the address entered is the address to be terminated\n//more options will be added to allow for contract upgrades in the future\n*/\n   function createProposal(address _address, uint _propCode, string _voteHash, uint _amount) public {\n           uint ProposalID = proposals.length++;\n           Proposal storage p = proposals[ProposalID];\n           p.Address = _address;\n           p.PropCode = _propCode;\n           p.voteHash = _voteHash;\n           getHash[_voteHash] = ProposalID;\n           propCode[_voteHash] = _propCode;\n           p.Amount = _amount;\n           p.executed = false;\n           p.proposalPassed = false;\n           p.numberOfVotes = 0;\n           emit ProposalCreated(_voteHash, _propCode);\n   }\n\n   function vote(\n          uint _ProposalID,\n          bool supportsProposal\n      )\n          public\n          returns (uint voteID)\n      {\n\n          Proposal storage p = proposals[_ProposalID];\n          require(p.voted[msg.sender] != true);\n          require(members[msg.sender] == true);\n          voteID = p.votes.length++;\n          p.votes[voteID] = Vote({inSupport: supportsProposal, voter: msg.sender});\n          p.voted[msg.sender] = true;\n          p.numberOfVotes = voteID++;\n          memberLevel[msg.sender]++;\n          emit Voted(msg.sender, supportsProposal);\n          set_Quorum();\n          if(p.numberOfVotes >= minimumQuorum) {\n            executeVote(_ProposalID);\n          }\n          return voteID;\n      }\n\n      function set_Quorum() internal  {\n              uint maxQuorum = getMemberCount();\n              uint tenthQuorum = (maxQuorum / 10);\n              uint  halfQuorum = (maxQuorum / 2);\n              minimumQuorum = (halfQuorum + tenthQuorum);\n        }\n\n      ///@notice ideaBlockVote counts the votes and executes and Idea Proposal, adding an idea to the cryptopatent Blockchain\n      ///@dev seperate but similiar structures will need to be implemented in the future to stream line voting on different subjects(beta)\n      function executeVote(uint _ProposalID) internal {\n              Proposal storage p = proposals[_ProposalID];\n                   // sets p equal to the specific proposalNumber\n              require(!p.executed);\n              uint quorum = 0;\n              uint yea = 0;\n              uint nay = 0;\n\n\n\n          for (uint i = 0; i <  p.votes.length; ++i) {\n              Vote storage v = p.votes[i];\n              uint voteWeight = 1;\n              quorum += voteWeight;\n              if (v.inSupport) {\n                yea += voteWeight;\n                   } else {\n                 nay += voteWeight;\n                       }\n                   }\n\n                   require(quorum >= minimumQuorum); // Check if a minimum quorum has been reached\n\n                   if (yea > nay ) {\n                       // Proposal passed; execute the transaction\n                     p.executed = true;\n                     p.proposalPassed = true;\n                     if(p.PropCode == 1) {\n                       p.Address.transfer(p.Amount);\n                     }\n                     if(p.PropCode == 2) {\n                       frozenAccounts[p.Address] = true;\n                     }\n                     if(p.PropCode == 3) {\n                       terminateMember(p.Address);\n                     }\n                 } else {\n                       // Proposal failed\n                     p.proposalPassed = false;\n                 }\n            }\n\n\n//@addApprovedContract allows another contract to call functions\n///@dev adds contract to list of approved calling contracts\n  function addApprovedContract(address _newContract) public onlyOwner {\n        approvedContracts[_newContract] = true;\n      }\n\n///@notice setIDCadd allows the address of the IdeaCoin contract to be updated\n   function setIDCadd(address _IDC) public onlyOwner {\n     IDC = IdeaCoin(_IDC);\n   }\n\n///@notice proxyMint allows an approved address to mint IdeaCoin\n   function proxyIDCMint(address _add, uint _amount) external onlyApprovedAdd {\n     require(_checkIfFrozen(_add) == false);\n     IDC.mint(_add, _amount);\n   }\n///@notice proxyBurn allows an approved address to burn IdeaCoin\n   function proxyIDCBurn(address _add,  uint _amount) external onlyApprovedAdd {\n     IDC.burnIDC(_add, _amount);\n   }\n///@notice proxyMint allows an approved address to mint IdeaCoin\n      function proxyCCMint(address _add, uint _amount) external onlyApprovedAdd {\n        CC.mint(_add, _amount);\n      }\n///@notice proxyBurn allows an approved address to burn IdeaCoin\n      function proxyCCBurn(address _add,  uint _amount) external onlyApprovedAdd {\n        CC.burnCC(_add, _amount);\n      }\n\n   function generateIdeaBlock(string _ideaIPFS, uint _globalUseBlockAmount, uint miningTime, uint _royalty, address _inventorsAddress, address _inventionAdd) external onlyApprovedAdd {\n     require(_checkIfFrozen(_inventorsAddress) == false);\n     CPBG._generateIdeaBlock(_ideaIPFS, _globalUseBlockAmount, miningTime, _royalty, _inventorsAddress, _inventionAdd);\n   }\n   function replicationBlock(uint _ideaId, address _repAdd, address _replicatorAdd) external onlyApprovedAdd {\n     require(_checkIfFrozen(_replicatorAdd) == false);\n     CPBG._replicationBlock( _ideaId, _repAdd, _replicatorAdd);\n   }\n   function generateGUSBlock(address _replicationOwner) external onlyApprovedAdd {\n     require(_checkIfFrozen(_replicationOwner) == false);\n   CPBG._generateGUSBlock( _replicationOwner);\n }\nfunction mintItemToken( string _itemIPFSHash) external onlyApprovedAdd {\n  PoPT._mintItemToken( _itemIPFSHash);\n}\n\n///@notice addMember function is an internal function for adding a member to decentracorp\n///@dev addMember takes in an address _mem, sets its membership to true and increments their rank by one\n  function _addMember(address _mem) external onlyApprovedAdd {\n    require(_checkIfFrozen(_mem) == false);\n      members[_mem] = true;\n      memberLevel[_mem]++;\n      facilityRank[_mem]++;\n      memberCount++;\n  }\n  function _checkIfMember(address _member) public view returns(bool) {\n    if(members[_member] == true){\n      return true;\n    }\n  }\n\n  function _checkIfFrozen(address _member) public view returns(bool) {\n    if(frozenAccounts[_member] == true){\n      return true;\n    }\n  }\n\n  ///@notice getMemberCount function returns total membercount\n  ///@dev getMemberCount is for front end and internal use\n    function getMemberCount() public view returns(uint) {\n      return memberCount;\n    }\n\n    function increaseMemLev(address _add) external onlyApprovedAdd {\n      require(_checkIfFrozen(_add) == false);\n      memberLevel[_add]++;\n    }\n\n    function increaseFacilityRank(address _facAdd, uint _amount) public onlyApprovedAdd {\n      require(_checkIfFrozen(_facAdd) == false);\n      facilityRank[_facAdd] += _amount;\n    }\n\n    function getLevel(address _add) public view returns(uint) {\n      return memberLevel[_add];\n    }\n\n    function getRank(address _add) public view returns(uint) {\n      return facilityRank[_add];\n    }\n\n    function setProfileHash(address _add, string _hash) public onlyApprovedAdd {\n      require(_checkIfFrozen(_add) == false);\n      memberProfileHash[_add] = _hash;\n    }\n\n    function getProfileHash(address _add) public view returns(string) {\n      return memberProfileHash[_add];\n    }\n//@notice this function is a quick freeze triggered by the founder used only in emergency situations\n// this freeze only lasts for a maximum of two days to limit the founders ability to go rogue\n\n\n    function decreaseFacilityRank(address _facility, uint _amount) public onlyApprovedAdd {\n      facilityRank[_facility] -= _amount;\n    }\n\n    function terminateMember(address _member) internal {\n      uint balance = IDC.balanceOf(_member);\n       IDC.burnIDC(_member, balance);\n       members[_member] = false;\n       memberLevel[_member] = 0;\n       facilityRank[_member] = 0;\n       frozenAccounts[_member] = true;\n    }\n\n    function getPropID(string hash) public view returns(uint){\n      return getHash[hash];\n    }\n\n    function getPropCode(string hash) public view returns(uint){\n      return propCode[hash];\n    }\n\n    function checkIfVoted(address _add, uint _ProposalID) public view returns(bool) {\n      Proposal storage p = proposals[_ProposalID];\n      return p.voted[_add];\n    }\n\n    function postComment(address _member, string _commentsHash) public {\n       IDC.burnIDC(msg.sender, 10);\n      profileComments[_member] = _commentsHash;\n    }\n    function getComment(address _member) public view returns(string){\n      return profileComments[_member];\n    }\n\n }\n",
  "sourcePath": "/home/stan36/repos/DecentraCorp/contracts/CryptoPatent/DecentraCorpPoA.sol",
  "compiler": {
    "name": "solc",
    "version": "0.4.24+commit.e67f0147.Emscripten.clang"
  },
  "schemaVersion": "2.0.1",
  "updatedAt": "2019-02-08T01:18:45.914Z"
}