{
  "contractName": "DecentraCorpPoA",
  "abi": [
    {
      "constant": true,
      "inputs": [],
      "name": "memberCount",
      "outputs": [
        {
          "name": "",
          "type": "uint256"
        }
      ],
      "payable": false,
      "stateMutability": "view",
      "type": "function"
    },
    {
      "constant": true,
      "inputs": [],
      "name": "CPBG",
      "outputs": [
        {
          "name": "",
          "type": "address"
        }
      ],
      "payable": false,
      "stateMutability": "view",
      "type": "function"
    },
    {
      "constant": true,
      "inputs": [],
      "name": "IDC",
      "outputs": [
        {
          "name": "",
          "type": "address"
        }
      ],
      "payable": false,
      "stateMutability": "view",
      "type": "function"
    },
    {
      "constant": true,
      "inputs": [],
      "name": "CC",
      "outputs": [
        {
          "name": "",
          "type": "address"
        }
      ],
      "payable": false,
      "stateMutability": "view",
      "type": "function"
    },
    {
      "constant": false,
      "inputs": [],
      "name": "renounceOwnership",
      "outputs": [],
      "payable": false,
      "stateMutability": "nonpayable",
      "type": "function"
    },
    {
      "constant": true,
      "inputs": [],
      "name": "PoPT",
      "outputs": [
        {
          "name": "",
          "type": "address"
        }
      ],
      "payable": false,
      "stateMutability": "view",
      "type": "function"
    },
    {
      "constant": true,
      "inputs": [],
      "name": "owner",
      "outputs": [
        {
          "name": "",
          "type": "address"
        }
      ],
      "payable": false,
      "stateMutability": "view",
      "type": "function"
    },
    {
      "constant": false,
      "inputs": [
        {
          "name": "_newOwner",
          "type": "address"
        }
      ],
      "name": "transferOwnership",
      "outputs": [],
      "payable": false,
      "stateMutability": "nonpayable",
      "type": "function"
    },
    {
      "inputs": [
        {
          "name": "_IDC",
          "type": "address"
        },
        {
          "name": "_CPBG",
          "type": "address"
        },
        {
          "name": "_CC",
          "type": "address"
        },
        {
          "name": "_PoPT",
          "type": "address"
        }
      ],
      "payable": false,
      "stateMutability": "nonpayable",
      "type": "constructor"
    },
    {
      "anonymous": false,
      "inputs": [
        {
          "indexed": true,
          "name": "previousOwner",
          "type": "address"
        }
      ],
      "name": "OwnershipRenounced",
      "type": "event"
    },
    {
      "anonymous": false,
      "inputs": [
        {
          "indexed": true,
          "name": "previousOwner",
          "type": "address"
        },
        {
          "indexed": true,
          "name": "newOwner",
          "type": "address"
        }
      ],
      "name": "OwnershipTransferred",
      "type": "event"
    },
    {
      "constant": false,
      "inputs": [
        {
          "name": "_newContract",
          "type": "address"
        }
      ],
      "name": "addApprovedContract",
      "outputs": [],
      "payable": false,
      "stateMutability": "nonpayable",
      "type": "function"
    },
    {
      "constant": false,
      "inputs": [
        {
          "name": "_IDC",
          "type": "address"
        }
      ],
      "name": "setIDCadd",
      "outputs": [],
      "payable": false,
      "stateMutability": "nonpayable",
      "type": "function"
    },
    {
      "constant": false,
      "inputs": [
        {
          "name": "_add",
          "type": "address"
        },
        {
          "name": "_amount",
          "type": "uint256"
        }
      ],
      "name": "proxyIDCMint",
      "outputs": [],
      "payable": false,
      "stateMutability": "nonpayable",
      "type": "function"
    },
    {
      "constant": false,
      "inputs": [
        {
          "name": "_add",
          "type": "address"
        },
        {
          "name": "_amount",
          "type": "uint256"
        }
      ],
      "name": "proxyIDCBurn",
      "outputs": [],
      "payable": false,
      "stateMutability": "nonpayable",
      "type": "function"
    },
    {
      "constant": false,
      "inputs": [
        {
          "name": "_add",
          "type": "address"
        },
        {
          "name": "_amount",
          "type": "uint256"
        }
      ],
      "name": "proxyCCMint",
      "outputs": [],
      "payable": false,
      "stateMutability": "nonpayable",
      "type": "function"
    },
    {
      "constant": false,
      "inputs": [
        {
          "name": "_add",
          "type": "address"
        },
        {
          "name": "_amount",
          "type": "uint256"
        }
      ],
      "name": "proxyCCBurn",
      "outputs": [],
      "payable": false,
      "stateMutability": "nonpayable",
      "type": "function"
    },
    {
      "constant": false,
      "inputs": [
        {
          "name": "_ideaIPFS",
          "type": "string"
        },
        {
          "name": "_globalUseBlockAmount",
          "type": "uint256"
        },
        {
          "name": "miningTime",
          "type": "uint256"
        },
        {
          "name": "_royalty",
          "type": "uint256"
        },
        {
          "name": "_inventorsAddress",
          "type": "address"
        }
      ],
      "name": "generateIdeaBlock",
      "outputs": [],
      "payable": false,
      "stateMutability": "nonpayable",
      "type": "function"
    },
    {
      "constant": false,
      "inputs": [
        {
          "name": "_ideaId",
          "type": "uint256"
        },
        {
          "name": "_repAdd",
          "type": "address"
        },
        {
          "name": "_replicatorAdd",
          "type": "address"
        }
      ],
      "name": "replicationBlock",
      "outputs": [],
      "payable": false,
      "stateMutability": "nonpayable",
      "type": "function"
    },
    {
      "constant": false,
      "inputs": [
        {
          "name": "_replicationOwner",
          "type": "address"
        }
      ],
      "name": "generateGUSBlock",
      "outputs": [],
      "payable": false,
      "stateMutability": "nonpayable",
      "type": "function"
    },
    {
      "constant": false,
      "inputs": [
        {
          "name": "_itemIPFSHash",
          "type": "string"
        }
      ],
      "name": "mintItemToken",
      "outputs": [],
      "payable": false,
      "stateMutability": "nonpayable",
      "type": "function"
    },
    {
      "constant": false,
      "inputs": [
        {
          "name": "_mem",
          "type": "address"
        }
      ],
      "name": "_addMember",
      "outputs": [],
      "payable": false,
      "stateMutability": "nonpayable",
      "type": "function"
    },
    {
      "constant": true,
      "inputs": [
        {
          "name": "_member",
          "type": "address"
        }
      ],
      "name": "_checkIfMember",
      "outputs": [
        {
          "name": "",
          "type": "bool"
        }
      ],
      "payable": false,
      "stateMutability": "view",
      "type": "function"
    },
    {
      "constant": true,
      "inputs": [],
      "name": "getMemberCount",
      "outputs": [
        {
          "name": "",
          "type": "uint256"
        }
      ],
      "payable": false,
      "stateMutability": "view",
      "type": "function"
    },
    {
      "constant": false,
      "inputs": [
        {
          "name": "_add",
          "type": "address"
        }
      ],
      "name": "increaseMemRank",
      "outputs": [],
      "payable": false,
      "stateMutability": "nonpayable",
      "type": "function"
    },
    {
      "constant": false,
      "inputs": [
        {
          "name": "_facAdd",
          "type": "address"
        }
      ],
      "name": "levelUpFacility",
      "outputs": [],
      "payable": false,
      "stateMutability": "nonpayable",
      "type": "function"
    },
    {
      "constant": true,
      "inputs": [
        {
          "name": "_add",
          "type": "address"
        }
      ],
      "name": "getRank",
      "outputs": [
        {
          "name": "",
          "type": "uint256"
        }
      ],
      "payable": false,
      "stateMutability": "view",
      "type": "function"
    },
    {
      "constant": true,
      "inputs": [
        {
          "name": "_add",
          "type": "address"
        }
      ],
      "name": "getLevel",
      "outputs": [
        {
          "name": "",
          "type": "uint256"
        }
      ],
      "payable": false,
      "stateMutability": "view",
      "type": "function"
    },
    {
      "constant": false,
      "inputs": [
        {
          "name": "_add",
          "type": "address"
        },
        {
          "name": "_hash",
          "type": "string"
        }
      ],
      "name": "setProfileHash",
      "outputs": [],
      "payable": false,
      "stateMutability": "nonpayable",
      "type": "function"
    },
    {
      "constant": true,
      "inputs": [
        {
          "name": "_add",
          "type": "address"
        }
      ],
      "name": "getProfileHahs",
      "outputs": [
        {
          "name": "",
          "type": "string"
        }
      ],
      "payable": false,
      "stateMutability": "view",
      "type": "function"
    }
  ],
  "bytecode": "0x60806040523480156200001157600080fd5b50604051608080620022c483398101806040528101908080519060200190929190805190602001909291908051906020019092919080519060200190929190505050336000806101000a81548173ffffffffffffffffffffffffffffffffffffffff021916908373ffffffffffffffffffffffffffffffffffffffff16021790555083600160006101000a81548173ffffffffffffffffffffffffffffffffffffffff021916908373ffffffffffffffffffffffffffffffffffffffff16021790555082600260006101000a81548173ffffffffffffffffffffffffffffffffffffffff021916908373ffffffffffffffffffffffffffffffffffffffff16021790555081600360006101000a81548173ffffffffffffffffffffffffffffffffffffffff021916908373ffffffffffffffffffffffffffffffffffffffff16021790555080600460006101000a81548173ffffffffffffffffffffffffffffffffffffffff021916908373ffffffffffffffffffffffffffffffffffffffff1602179055506001600660003373ffffffffffffffffffffffffffffffffffffffff1673ffffffffffffffffffffffffffffffffffffffff16815260200190815260200160002060006101000a81548160ff021916908315150217905550600560008154809291906001019190505550600760003373ffffffffffffffffffffffffffffffffffffffff1673ffffffffffffffffffffffffffffffffffffffff16815260200190815260200160002060008154809291906001019190505550606060405190810160405280602e81526020017f516d564e664d634c7157347143574b4e48723751387833486464467a4752317681526020017f587045744373386f4d454a4e3932000000000000000000000000000000000000815250600960003373ffffffffffffffffffffffffffffffffffffffff1673ffffffffffffffffffffffffffffffffffffffff1681526020019081526020016000209080519060200190620003019291906200035a565b506064600860003373ffffffffffffffffffffffffffffffffffffffff1673ffffffffffffffffffffffffffffffffffffffff168152602001908152602001600020600082825401925050819055505050505062000409565b828054600181600116156101000203166002900490600052602060002090601f016020900481019282601f106200039d57805160ff1916838001178555620003ce565b82800160010185558215620003ce579182015b82811115620003cd578251825591602001919060010190620003b0565b5b509050620003dd9190620003e1565b5090565b6200040691905b8082111562000402576000816000905550600101620003e8565b5090565b90565b611eab80620004196000396000f30060806040526004361061015f576000357c0100000000000000000000000000000000000000000000000000000000900463ffffffff1680630c7d1b3f1461016457806311aee380146101a7578063135171be146101d25780631d40bbcf146102155780632b2891ec146102585780632d4b71bc1461029357806332836d8d1461034f5780633c91f2731461039257806352d2c11d146103e9578063548c0ef4146104405780636509e776146104975780637130c241146104ee578063715018a61461053b5780637ae2023414610552578063817c8966146105a95780638a632bf2146106005780638da5cb5b146106435780638f3e97951461069a578063997072f7146106dd578063aaa746bb14610708578063afa879d114610763578063cb2d97f8146107ec578063d82f980b14610865578063e934f00b146108b2578063e9e2b9861461091f578063efcbd8d31461096c578063f2fde38b146109b9575b600080fd5b34801561017057600080fd5b506101a5600480360381019080803573ffffffffffffffffffffffffffffffffffffffff1690602001909291905050506109fc565b005b3480156101b357600080fd5b506101bc610a9b565b6040518082815260200191505060405180910390f35b3480156101de57600080fd5b50610213600480360381019080803573ffffffffffffffffffffffffffffffffffffffff169060200190929190505050610aa1565b005b34801561022157600080fd5b50610256600480360381019080803573ffffffffffffffffffffffffffffffffffffffff169060200190929190505050610b57565b005b34801561026457600080fd5b50610291600480360381019080803590602001908201803590602001919091929391929390505050610c72565b005b34801561029f57600080fd5b506102d4600480360381019080803573ffffffffffffffffffffffffffffffffffffffff169060200190929190505050610d98565b6040518080602001828103825283818151815260200191508051906020019080838360005b838110156103145780820151818401526020810190506102f9565b50505050905090810190601f1680156103415780820380516001836020036101000a031916815260200191505b509250505060405180910390f35b34801561035b57600080fd5b50610390600480360381019080803573ffffffffffffffffffffffffffffffffffffffff169060200190929190505050610e79565b005b34801561039e57600080fd5b506103a7610fb0565b604051808273ffffffffffffffffffffffffffffffffffffffff1673ffffffffffffffffffffffffffffffffffffffff16815260200191505060405180910390f35b3480156103f557600080fd5b506103fe610fd6565b604051808273ffffffffffffffffffffffffffffffffffffffff1673ffffffffffffffffffffffffffffffffffffffff16815260200191505060405180910390f35b34801561044c57600080fd5b50610481600480360381019080803573ffffffffffffffffffffffffffffffffffffffff169060200190929190505050610ffc565b6040518082815260200191505060405180910390f35b3480156104a357600080fd5b506104ac611045565b604051808273ffffffffffffffffffffffffffffffffffffffff1673ffffffffffffffffffffffffffffffffffffffff16815260200191505060405180910390f35b3480156104fa57600080fd5b50610539600480360381019080803573ffffffffffffffffffffffffffffffffffffffff1690602001909291908035906020019092919050505061106b565b005b34801561054757600080fd5b506105506111ab565b005b34801561055e57600080fd5b506105676112ad565b604051808273ffffffffffffffffffffffffffffffffffffffff1673ffffffffffffffffffffffffffffffffffffffff16815260200191505060405180910390f35b3480156105b557600080fd5b506105ea600480360381019080803573ffffffffffffffffffffffffffffffffffffffff1690602001909291905050506112d3565b6040518082815260200191505060405180910390f35b34801561060c57600080fd5b50610641600480360381019080803573ffffffffffffffffffffffffffffffffffffffff16906020019092919050505061131c565b005b34801561064f57600080fd5b506106586113cd565b604051808273ffffffffffffffffffffffffffffffffffffffff1673ffffffffffffffffffffffffffffffffffffffff16815260200191505060405180910390f35b3480156106a657600080fd5b506106db600480360381019080803573ffffffffffffffffffffffffffffffffffffffff1690602001909291905050506113f2565b005b3480156106e957600080fd5b506106f26114a3565b6040518082815260200191505060405180910390f35b34801561071457600080fd5b50610749600480360381019080803573ffffffffffffffffffffffffffffffffffffffff1690602001909291905050506114ad565b604051808215151515815260200191505060405180910390f35b34801561076f57600080fd5b506107ea600480360381019080803573ffffffffffffffffffffffffffffffffffffffff169060200190929190803590602001908201803590602001908080601f0160208091040260200160405190810160405280939291908181526020018383808284378201915050505050509192919290505050611517565b005b3480156107f857600080fd5b50610863600480360381019080803590602001908201803590602001919091929391929390803590602001909291908035906020019092919080359060200190929190803573ffffffffffffffffffffffffffffffffffffffff1690602001909291905050506115ce565b005b34801561087157600080fd5b506108b0600480360381019080803573ffffffffffffffffffffffffffffffffffffffff16906020019092919080359060200190929190505050611744565b005b3480156108be57600080fd5b5061091d60048036038101908080359060200190929190803573ffffffffffffffffffffffffffffffffffffffff169060200190929190803573ffffffffffffffffffffffffffffffffffffffff169060200190929190505050611884565b005b34801561092b57600080fd5b5061096a600480360381019080803573ffffffffffffffffffffffffffffffffffffffff169060200190929190803590602001909291905050506119f9565b005b34801561097857600080fd5b506109b7600480360381019080803573ffffffffffffffffffffffffffffffffffffffff16906020019092919080359060200190929190505050611b39565b005b3480156109c557600080fd5b506109fa600480360381019080803573ffffffffffffffffffffffffffffffffffffffff169060200190929190505050611c79565b005b6000809054906101000a900473ffffffffffffffffffffffffffffffffffffffff1673ffffffffffffffffffffffffffffffffffffffff163373ffffffffffffffffffffffffffffffffffffffff16141515610a5757600080fd5b80600160006101000a81548173ffffffffffffffffffffffffffffffffffffffff021916908373ffffffffffffffffffffffffffffffffffffffff16021790555050565b60055481565b6000809054906101000a900473ffffffffffffffffffffffffffffffffffffffff1673ffffffffffffffffffffffffffffffffffffffff163373ffffffffffffffffffffffffffffffffffffffff16141515610afc57600080fd5b6001600a60008373ffffffffffffffffffffffffffffffffffffffff1673ffffffffffffffffffffffffffffffffffffffff16815260200190815260200160002060006101000a81548160ff02191690831515021790555050565b60011515600a60003373ffffffffffffffffffffffffffffffffffffffff1673ffffffffffffffffffffffffffffffffffffffff16815260200190815260200160002060009054906101000a900460ff161515141515610bb657600080fd5b6001600660008373ffffffffffffffffffffffffffffffffffffffff1673ffffffffffffffffffffffffffffffffffffffff16815260200190815260200160002060006101000a81548160ff021916908315150217905550600760008273ffffffffffffffffffffffffffffffffffffffff1673ffffffffffffffffffffffffffffffffffffffff1681526020019081526020016000206000815480929190600101919050555060056000815480929190600101919050555050565b60011515600a60003373ffffffffffffffffffffffffffffffffffffffff1673ffffffffffffffffffffffffffffffffffffffff16815260200190815260200160002060009054906101000a900460ff161515141515610cd157600080fd5b600460009054906101000a900473ffffffffffffffffffffffffffffffffffffffff1673ffffffffffffffffffffffffffffffffffffffff1663184e15b583836040518363ffffffff167c01000000000000000000000000000000000000000000000000000000000281526004018080602001828103825284848281815260200192508082843782019150509350505050600060405180830381600087803b158015610d7c57600080fd5b505af1158015610d90573d6000803e3d6000fd5b505050505050565b6060600960008373ffffffffffffffffffffffffffffffffffffffff1673ffffffffffffffffffffffffffffffffffffffff1681526020019081526020016000208054600181600116156101000203166002900480601f016020809104026020016040519081016040528092919081815260200182805460018160011615610100020316600290048015610e6d5780601f10610e4257610100808354040283529160200191610e6d565b820191906000526020600020905b815481529060010190602001808311610e5057829003601f168201915b50505050509050919050565b60011515600a60003373ffffffffffffffffffffffffffffffffffffffff1673ffffffffffffffffffffffffffffffffffffffff16815260200190815260200160002060009054906101000a900460ff161515141515610ed857600080fd5b600260009054906101000a900473ffffffffffffffffffffffffffffffffffffffff1673ffffffffffffffffffffffffffffffffffffffff1663d99e98fb826040518263ffffffff167c0100000000000000000000000000000000000000000000000000000000028152600401808273ffffffffffffffffffffffffffffffffffffffff1673ffffffffffffffffffffffffffffffffffffffff168152602001915050600060405180830381600087803b158015610f9557600080fd5b505af1158015610fa9573d6000803e3d6000fd5b5050505050565b600260009054906101000a900473ffffffffffffffffffffffffffffffffffffffff1681565b600160009054906101000a900473ffffffffffffffffffffffffffffffffffffffff1681565b6000600760008373ffffffffffffffffffffffffffffffffffffffff1673ffffffffffffffffffffffffffffffffffffffff168152602001908152602001600020549050919050565b600360009054906101000a900473ffffffffffffffffffffffffffffffffffffffff1681565b60011515600a60003373ffffffffffffffffffffffffffffffffffffffff1673ffffffffffffffffffffffffffffffffffffffff16815260200190815260200160002060009054906101000a900460ff1615151415156110ca57600080fd5b600160009054906101000a900473ffffffffffffffffffffffffffffffffffffffff1673ffffffffffffffffffffffffffffffffffffffff16639dc29fac83836040518363ffffffff167c0100000000000000000000000000000000000000000000000000000000028152600401808373ffffffffffffffffffffffffffffffffffffffff1673ffffffffffffffffffffffffffffffffffffffff16815260200182815260200192505050600060405180830381600087803b15801561118f57600080fd5b505af11580156111a3573d6000803e3d6000fd5b505050505050565b6000809054906101000a900473ffffffffffffffffffffffffffffffffffffffff1673ffffffffffffffffffffffffffffffffffffffff163373ffffffffffffffffffffffffffffffffffffffff1614151561120657600080fd5b6000809054906101000a900473ffffffffffffffffffffffffffffffffffffffff1673ffffffffffffffffffffffffffffffffffffffff167ff8df31144d9c2f0f6b59d69b8b98abd5459d07f2742c4df920b25aae33c6482060405160405180910390a260008060006101000a81548173ffffffffffffffffffffffffffffffffffffffff021916908373ffffffffffffffffffffffffffffffffffffffff160217905550565b600460009054906101000a900473ffffffffffffffffffffffffffffffffffffffff1681565b6000600860008373ffffffffffffffffffffffffffffffffffffffff1673ffffffffffffffffffffffffffffffffffffffff168152602001908152602001600020549050919050565b60011515600a60003373ffffffffffffffffffffffffffffffffffffffff1673ffffffffffffffffffffffffffffffffffffffff16815260200190815260200160002060009054906101000a900460ff16151514151561137b57600080fd5b600860008273ffffffffffffffffffffffffffffffffffffffff1673ffffffffffffffffffffffffffffffffffffffff1681526020019081526020016000206000815480929190600101919050555050565b6000809054906101000a900473ffffffffffffffffffffffffffffffffffffffff1681565b60011515600a60003373ffffffffffffffffffffffffffffffffffffffff1673ffffffffffffffffffffffffffffffffffffffff16815260200190815260200160002060009054906101000a900460ff16151514151561145157600080fd5b600760008273ffffffffffffffffffffffffffffffffffffffff1673ffffffffffffffffffffffffffffffffffffffff1681526020019081526020016000206000815480929190600101919050555050565b6000600554905090565b600060011515600660008473ffffffffffffffffffffffffffffffffffffffff1673ffffffffffffffffffffffffffffffffffffffff16815260200190815260200160002060009054906101000a900460ff16151514156115115760019050611512565b5b919050565b60011515600a60003373ffffffffffffffffffffffffffffffffffffffff1673ffffffffffffffffffffffffffffffffffffffff16815260200190815260200160002060009054906101000a900460ff16151514151561157657600080fd5b80600960008473ffffffffffffffffffffffffffffffffffffffff1673ffffffffffffffffffffffffffffffffffffffff16815260200190815260200160002090805190602001906115c9929190611dda565b505050565b60011515600a60003373ffffffffffffffffffffffffffffffffffffffff1673ffffffffffffffffffffffffffffffffffffffff16815260200190815260200160002060009054906101000a900460ff16151514151561162d57600080fd5b600260009054906101000a900473ffffffffffffffffffffffffffffffffffffffff1673ffffffffffffffffffffffffffffffffffffffff16638fce26338787878787876040518763ffffffff167c010000000000000000000000000000000000000000000000000000000002815260040180806020018681526020018581526020018481526020018373ffffffffffffffffffffffffffffffffffffffff1673ffffffffffffffffffffffffffffffffffffffff16815260200182810382528888828181526020019250808284378201915050975050505050505050600060405180830381600087803b15801561172457600080fd5b505af1158015611738573d6000803e3d6000fd5b50505050505050505050565b60011515600a60003373ffffffffffffffffffffffffffffffffffffffff1673ffffffffffffffffffffffffffffffffffffffff16815260200190815260200160002060009054906101000a900460ff1615151415156117a357600080fd5b600160009054906101000a900473ffffffffffffffffffffffffffffffffffffffff1673ffffffffffffffffffffffffffffffffffffffff166340c10f1983836040518363ffffffff167c0100000000000000000000000000000000000000000000000000000000028152600401808373ffffffffffffffffffffffffffffffffffffffff1673ffffffffffffffffffffffffffffffffffffffff16815260200182815260200192505050600060405180830381600087803b15801561186857600080fd5b505af115801561187c573d6000803e3d6000fd5b505050505050565b60011515600a60003373ffffffffffffffffffffffffffffffffffffffff1673ffffffffffffffffffffffffffffffffffffffff16815260200190815260200160002060009054906101000a900460ff1615151415156118e357600080fd5b600260009054906101000a900473ffffffffffffffffffffffffffffffffffffffff1673ffffffffffffffffffffffffffffffffffffffff1663979571c58484846040518463ffffffff167c0100000000000000000000000000000000000000000000000000000000028152600401808481526020018373ffffffffffffffffffffffffffffffffffffffff1673ffffffffffffffffffffffffffffffffffffffff1681526020018273ffffffffffffffffffffffffffffffffffffffff1673ffffffffffffffffffffffffffffffffffffffff1681526020019350505050600060405180830381600087803b1580156119dc57600080fd5b505af11580156119f0573d6000803e3d6000fd5b50505050505050565b60011515600a60003373ffffffffffffffffffffffffffffffffffffffff1673ffffffffffffffffffffffffffffffffffffffff16815260200190815260200160002060009054906101000a900460ff161515141515611a5857600080fd5b600360009054906101000a900473ffffffffffffffffffffffffffffffffffffffff1673ffffffffffffffffffffffffffffffffffffffff16639dc29fac83836040518363ffffffff167c0100000000000000000000000000000000000000000000000000000000028152600401808373ffffffffffffffffffffffffffffffffffffffff1673ffffffffffffffffffffffffffffffffffffffff16815260200182815260200192505050600060405180830381600087803b158015611b1d57600080fd5b505af1158015611b31573d6000803e3d6000fd5b505050505050565b60011515600a60003373ffffffffffffffffffffffffffffffffffffffff1673ffffffffffffffffffffffffffffffffffffffff16815260200190815260200160002060009054906101000a900460ff161515141515611b9857600080fd5b600360009054906101000a900473ffffffffffffffffffffffffffffffffffffffff1673ffffffffffffffffffffffffffffffffffffffff166340c10f1983836040518363ffffffff167c0100000000000000000000000000000000000000000000000000000000028152600401808373ffffffffffffffffffffffffffffffffffffffff1673ffffffffffffffffffffffffffffffffffffffff16815260200182815260200192505050600060405180830381600087803b158015611c5d57600080fd5b505af1158015611c71573d6000803e3d6000fd5b505050505050565b6000809054906101000a900473ffffffffffffffffffffffffffffffffffffffff1673ffffffffffffffffffffffffffffffffffffffff163373ffffffffffffffffffffffffffffffffffffffff16141515611cd457600080fd5b611cdd81611ce0565b50565b600073ffffffffffffffffffffffffffffffffffffffff168173ffffffffffffffffffffffffffffffffffffffff1614151515611d1c57600080fd5b8073ffffffffffffffffffffffffffffffffffffffff166000809054906101000a900473ffffffffffffffffffffffffffffffffffffffff1673ffffffffffffffffffffffffffffffffffffffff167f8be0079c531659141344cd1fd0a4f28419497f9722a3daafe3b4186f6b6457e060405160405180910390a3806000806101000a81548173ffffffffffffffffffffffffffffffffffffffff021916908373ffffffffffffffffffffffffffffffffffffffff16021790555050565b828054600181600116156101000203166002900490600052602060002090601f016020900481019282601f10611e1b57805160ff1916838001178555611e49565b82800160010185558215611e49579182015b82811115611e48578251825591602001919060010190611e2d565b5b509050611e569190611e5a565b5090565b611e7c91905b80821115611e78576000816000905550600101611e60565b5090565b905600a165627a7a72305820de2d16dc8a3b20c29876b509f0e0b68a69f0e6f12d8998eb2f64d4aeacefd12c0029",
  "source": "pragma solidity ^0.4.21;\nimport \"zeppelin-solidity/contracts/ownership/Ownable.sol\";\nimport \"zeppelin-solidity/contracts/math/SafeMath.sol\";\n\n////////////////////////////////////////////////////////////////////////////////////////////\n/// @title DecentraCorpPoA\n/// @author DecentraCorp\n/// @notice this contract will serve as an information portal between the main ethereum\n///         and the CryptoPatent Blockchain\n/// @dev All function calls are currently implement without side effects\n////////////////////////////////////////////////////////////////////////////////////////////\n/// @author Christopher Dixon\n////////////////////////////////////////////////////////////////////////////////////////////\ncontract IdeaCoin {\n    function mint(address _to, uint256 _value) external;\n    function burn(address _from, uint256 _value)  external;\n\n}\n//IdeaCoin interface\n/////////////////////////////////////////////////////////////////////////////////////////////\ncontract ProofOfPurchaseToken{\n    function safeTransferFrom(address _from, address _to, uint256 _tokenId) public;\n    function _mintItemToken( string _itemIPFSHash) external;\n}\n////////////////////////////////////////////////////////////////////////////////////////////\ncontract ChaosCoin {\n    function mint(address _to, uint256 _value) external;\n    function burn(address _from, uint256 _value)  external;\n\n}\n//ChaosCoin interface\n/////////////////////////////////////////////////////////////////////////////////////////////\ncontract CryptoPatentBlockGenerator {\n    function _generateIdeaBlock(string _ideaIPFS, uint _globalUseBlockAmount, uint miningTime, uint _royalty, address _inventorsAddress) external;\n    function _replicationBlock(uint _ideaId, address _repAdd, address _replicatorAdd) external;\n    function _generateGUSBlock(address _replicationOwner) external;\n}\n/// CryptoPatentBlockGenerator interface\n/////////////////////////////////////////////////////////////////////////////////////////////\n\n contract DecentraCorpPoA is Ownable {\n   using SafeMath for uint256;\n///@param IDC is used to make calls to the IdeaCoin Contract\n   IdeaCoin public IDC;\n   CryptoPatentBlockGenerator public CPBG;\n   ChaosCoin public CC;\n   ProofOfPurchaseToken public PoPT;\n\n   uint public memberCount;\n   mapping (address =>bool) members;\n   mapping(address => uint) memberRank;\n   mapping(address => uint) facilityLevel;\n   mapping(address => string) memberProfileHash;\n///@param approvedContracts is a mappiung of contracts alloud to call function on other\n\n   mapping(address => bool) approvedContracts;\n\n   modifier onlyApprovedAdd() {\n     require(approvedContracts[msg.sender] == true);\n     _;\n   }\n\n///@notice constructor sets up IdeaCoin address through truffle wizardry\n   constructor(IdeaCoin _IDC, CryptoPatentBlockGenerator _CPBG, ChaosCoin _CC, ProofOfPurchaseToken _PoPT) public {\n     IDC=(_IDC);\n     CPBG =(_CPBG);\n     CC=(_CC);\n     PoPT = (_PoPT);\n     members[msg.sender] = true;\n     memberCount++;\n     memberRank[msg.sender]++;\n     memberProfileHash[msg.sender] = \"QmVNfMcLqW4qCWKNHr7Q8x3HddFzGR1vXpEtCs8oMEJN92\";\n     facilityLevel[msg.sender] += 100;\n   }\n\n//@addApprovedContract allows another contract to call functions\n///@dev adds contract to list of approved calling contracts\n  function addApprovedContract(address _newContract) public onlyOwner {\n        approvedContracts[_newContract] = true;\n      }\n\n///@notice setIDCadd allows the address of the IdeaCoin contract to be updated\n   function setIDCadd(address _IDC) public onlyOwner {\n     IDC = IdeaCoin(_IDC);\n   }\n\n///@notice proxyMint allows an approved address to mint IdeaCoin\n   function proxyIDCMint(address _add, uint _amount) external onlyApprovedAdd {\n     IDC.mint(_add, _amount);\n   }\n///@notice proxyBurn allows an approved address to burn IdeaCoin\n   function proxyIDCBurn(address _add,  uint _amount) external onlyApprovedAdd {\n     IDC.burn(_add, _amount);\n   }\n///@notice proxyMint allows an approved address to mint IdeaCoin\n      function proxyCCMint(address _add, uint _amount) external onlyApprovedAdd {\n        CC.mint(_add, _amount);\n      }\n///@notice proxyBurn allows an approved address to burn IdeaCoin\n      function proxyCCBurn(address _add,  uint _amount) external onlyApprovedAdd {\n        CC.burn(_add, _amount);\n      }\n\n   function generateIdeaBlock(string _ideaIPFS, uint _globalUseBlockAmount, uint miningTime, uint _royalty, address _inventorsAddress) external onlyApprovedAdd {\n     CPBG._generateIdeaBlock(_ideaIPFS, _globalUseBlockAmount, miningTime, _royalty, _inventorsAddress);\n   }\n   function replicationBlock(uint _ideaId, address _repAdd, address _replicatorAdd) external onlyApprovedAdd {\n     CPBG._replicationBlock( _ideaId, _repAdd, _replicatorAdd);\n   }\n   function generateGUSBlock(address _replicationOwner) external onlyApprovedAdd {\n   CPBG._generateGUSBlock( _replicationOwner);\n }\nfunction mintItemToken( string _itemIPFSHash) external onlyApprovedAdd {\n  PoPT._mintItemToken( _itemIPFSHash);\n}\n\n///@notice addMember function is an internal function for adding a member to decentracorp\n///@dev addMember takes in an address _mem, sets its membership to true and increments their rank by one\n  function _addMember(address _mem) external onlyApprovedAdd {\n      members[_mem] = true;\n      memberRank[_mem]++;\n      memberCount++;\n  }\n  function _checkIfMember(address _member) public view returns(bool) {\n    if(members[_member] == true){\n      return true;\n    }\n  }\n  ///@notice getMemberCount function returns total membercount\n  ///@dev getMemberCount is for front end and internal use\n    function getMemberCount() public view returns(uint) {\n      return memberCount;\n    }\n\n    function increaseMemRank(address _add) external onlyApprovedAdd {\n      memberRank[_add]++;\n    }\n    function levelUpFacility(address _facAdd) public onlyApprovedAdd {\n      facilityLevel[_facAdd]++;\n    }\n    function getRank(address _add) public view returns(uint) {\n      return memberRank[_add];\n    }\n    function getLevel(address _add) public view returns(uint) {\n      return facilityLevel[_add];\n    }\n    function setProfileHash(address _add, string _hash) public onlyApprovedAdd {\n      memberProfileHash[_add] = _hash;\n    }\n    function getProfileHahs(address _add) public view returns(string) {\n      return memberProfileHash[_add];\n    }\n }\n",
  "sourcePath": "/home/stan36/repos/DecentraCorp/contracts/CryptoPatent/DecentraCorpPoA.sol",
  "compiler": {
    "name": "solc",
    "version": "0.4.24+commit.e67f0147.Emscripten.clang"
  },
  "schemaVersion": "2.0.1",
  "updatedAt": "2018-12-26T13:14:20.543Z"
}