{
  "contractName": "DecentraCorpPoA",
  "abi": [
    {
      "constant": true,
      "inputs": [],
      "name": "memberCount",
      "outputs": [
        {
          "name": "",
          "type": "uint256"
        }
      ],
      "payable": false,
      "stateMutability": "view",
      "type": "function"
    },
    {
      "constant": true,
      "inputs": [],
      "name": "CPBG",
      "outputs": [
        {
          "name": "",
          "type": "address"
        }
      ],
      "payable": false,
      "stateMutability": "view",
      "type": "function"
    },
    {
      "constant": true,
      "inputs": [],
      "name": "IDC",
      "outputs": [
        {
          "name": "",
          "type": "address"
        }
      ],
      "payable": false,
      "stateMutability": "view",
      "type": "function"
    },
    {
      "constant": true,
      "inputs": [],
      "name": "CC",
      "outputs": [
        {
          "name": "",
          "type": "address"
        }
      ],
      "payable": false,
      "stateMutability": "view",
      "type": "function"
    },
    {
      "constant": false,
      "inputs": [],
      "name": "renounceOwnership",
      "outputs": [],
      "payable": false,
      "stateMutability": "nonpayable",
      "type": "function"
    },
    {
      "constant": true,
      "inputs": [],
      "name": "PoPT",
      "outputs": [
        {
          "name": "",
          "type": "address"
        }
      ],
      "payable": false,
      "stateMutability": "view",
      "type": "function"
    },
    {
      "constant": true,
      "inputs": [],
      "name": "owner",
      "outputs": [
        {
          "name": "",
          "type": "address"
        }
      ],
      "payable": false,
      "stateMutability": "view",
      "type": "function"
    },
    {
      "constant": false,
      "inputs": [
        {
          "name": "_newOwner",
          "type": "address"
        }
      ],
      "name": "transferOwnership",
      "outputs": [],
      "payable": false,
      "stateMutability": "nonpayable",
      "type": "function"
    },
    {
      "inputs": [
        {
          "name": "_IDC",
          "type": "address"
        },
        {
          "name": "_CPBG",
          "type": "address"
        },
        {
          "name": "_CC",
          "type": "address"
        },
        {
          "name": "_PoPT",
          "type": "address"
        }
      ],
      "payable": false,
      "stateMutability": "nonpayable",
      "type": "constructor"
    },
    {
      "anonymous": false,
      "inputs": [
        {
          "indexed": true,
          "name": "previousOwner",
          "type": "address"
        }
      ],
      "name": "OwnershipRenounced",
      "type": "event"
    },
    {
      "anonymous": false,
      "inputs": [
        {
          "indexed": true,
          "name": "previousOwner",
          "type": "address"
        },
        {
          "indexed": true,
          "name": "newOwner",
          "type": "address"
        }
      ],
      "name": "OwnershipTransferred",
      "type": "event"
    },
    {
      "constant": false,
      "inputs": [
        {
          "name": "_newContract",
          "type": "address"
        }
      ],
      "name": "addApprovedContract",
      "outputs": [],
      "payable": false,
      "stateMutability": "nonpayable",
      "type": "function"
    },
    {
      "constant": false,
      "inputs": [
        {
          "name": "_IDC",
          "type": "address"
        }
      ],
      "name": "setIDCadd",
      "outputs": [],
      "payable": false,
      "stateMutability": "nonpayable",
      "type": "function"
    },
    {
      "constant": false,
      "inputs": [
        {
          "name": "_add",
          "type": "address"
        },
        {
          "name": "_amount",
          "type": "uint256"
        }
      ],
      "name": "proxyIDCMint",
      "outputs": [],
      "payable": false,
      "stateMutability": "nonpayable",
      "type": "function"
    },
    {
      "constant": false,
      "inputs": [
        {
          "name": "_add",
          "type": "address"
        },
        {
          "name": "_amount",
          "type": "uint256"
        }
      ],
      "name": "proxyIDCBurn",
      "outputs": [],
      "payable": false,
      "stateMutability": "nonpayable",
      "type": "function"
    },
    {
      "constant": false,
      "inputs": [
        {
          "name": "_add",
          "type": "address"
        },
        {
          "name": "_amount",
          "type": "uint256"
        }
      ],
      "name": "proxyCCMint",
      "outputs": [],
      "payable": false,
      "stateMutability": "nonpayable",
      "type": "function"
    },
    {
      "constant": false,
      "inputs": [
        {
          "name": "_add",
          "type": "address"
        },
        {
          "name": "_amount",
          "type": "uint256"
        }
      ],
      "name": "proxyCCBurn",
      "outputs": [],
      "payable": false,
      "stateMutability": "nonpayable",
      "type": "function"
    },
    {
      "constant": false,
      "inputs": [
        {
          "name": "_ideaIPFS",
          "type": "string"
        },
        {
          "name": "_globalUseBlockAmount",
          "type": "uint256"
        },
        {
          "name": "miningTime",
          "type": "uint256"
        },
        {
          "name": "_royalty",
          "type": "uint256"
        },
        {
          "name": "_inventorsAddress",
          "type": "address"
        }
      ],
      "name": "generateIdeaBlock",
      "outputs": [],
      "payable": false,
      "stateMutability": "nonpayable",
      "type": "function"
    },
    {
      "constant": false,
      "inputs": [
        {
          "name": "_ideaId",
          "type": "uint256"
        },
        {
          "name": "_repAdd",
          "type": "address"
        },
        {
          "name": "_replicatorAdd",
          "type": "address"
        }
      ],
      "name": "replicationBlock",
      "outputs": [],
      "payable": false,
      "stateMutability": "nonpayable",
      "type": "function"
    },
    {
      "constant": false,
      "inputs": [
        {
          "name": "_replicationOwner",
          "type": "address"
        }
      ],
      "name": "generateGUSBlock",
      "outputs": [],
      "payable": false,
      "stateMutability": "nonpayable",
      "type": "function"
    },
    {
      "constant": false,
      "inputs": [
        {
          "name": "_itemIPFSHash",
          "type": "string"
        }
      ],
      "name": "mintItemToken",
      "outputs": [],
      "payable": false,
      "stateMutability": "nonpayable",
      "type": "function"
    },
    {
      "constant": false,
      "inputs": [
        {
          "name": "_mem",
          "type": "address"
        }
      ],
      "name": "_addMember",
      "outputs": [],
      "payable": false,
      "stateMutability": "nonpayable",
      "type": "function"
    },
    {
      "constant": true,
      "inputs": [
        {
          "name": "_member",
          "type": "address"
        }
      ],
      "name": "_checkIfMember",
      "outputs": [
        {
          "name": "",
          "type": "bool"
        }
      ],
      "payable": false,
      "stateMutability": "view",
      "type": "function"
    },
    {
      "constant": true,
      "inputs": [],
      "name": "getMemberCount",
      "outputs": [
        {
          "name": "",
          "type": "uint256"
        }
      ],
      "payable": false,
      "stateMutability": "view",
      "type": "function"
    },
    {
      "constant": false,
      "inputs": [
        {
          "name": "_add",
          "type": "address"
        }
      ],
      "name": "increaseMemRank",
      "outputs": [],
      "payable": false,
      "stateMutability": "nonpayable",
      "type": "function"
    },
    {
      "constant": false,
      "inputs": [
        {
          "name": "_facAdd",
          "type": "address"
        }
      ],
      "name": "levelUpFacility",
      "outputs": [],
      "payable": false,
      "stateMutability": "nonpayable",
      "type": "function"
    }
  ],
  "bytecode": "0x608060405234801561001057600080fd5b50604051608080611cc183398101806040528101908080519060200190929190805190602001909291908051906020019092919080519060200190929190505050336000806101000a81548173ffffffffffffffffffffffffffffffffffffffff021916908373ffffffffffffffffffffffffffffffffffffffff16021790555083600160006101000a81548173ffffffffffffffffffffffffffffffffffffffff021916908373ffffffffffffffffffffffffffffffffffffffff16021790555082600260006101000a81548173ffffffffffffffffffffffffffffffffffffffff021916908373ffffffffffffffffffffffffffffffffffffffff16021790555081600360006101000a81548173ffffffffffffffffffffffffffffffffffffffff021916908373ffffffffffffffffffffffffffffffffffffffff16021790555080600460006101000a81548173ffffffffffffffffffffffffffffffffffffffff021916908373ffffffffffffffffffffffffffffffffffffffff1602179055506001600660003373ffffffffffffffffffffffffffffffffffffffff1673ffffffffffffffffffffffffffffffffffffffff16815260200190815260200160002060006101000a81548160ff021916908315150217905550600560008154809291906001019190505550600760003373ffffffffffffffffffffffffffffffffffffffff1673ffffffffffffffffffffffffffffffffffffffff168152602001908152602001600020600081548092919060010191905055506102ae6064600860003373ffffffffffffffffffffffffffffffffffffffff1673ffffffffffffffffffffffffffffffffffffffff168152602001908152602001600020546102b86401000000000261189c179091906401000000009004565b50505050506102d4565b600081830190508281101515156102cb57fe5b80905092915050565b6119de806102e36000396000f300608060405260043610610133576000357c0100000000000000000000000000000000000000000000000000000000900463ffffffff1680630c7d1b3f1461013857806311aee3801461017b578063135171be146101a65780631d40bbcf146101e95780632b2891ec1461022c57806332836d8d146102675780633c91f273146102aa57806352d2c11d146103015780636509e776146103585780637130c241146103af578063715018a6146103fc5780637ae20234146104135780638a632bf21461046a5780638da5cb5b146104ad5780638f3e979514610504578063997072f714610547578063aaa746bb14610572578063cb2d97f8146105cd578063d82f980b14610646578063e934f00b14610693578063e9e2b98614610700578063efcbd8d31461074d578063f2fde38b1461079a575b600080fd5b34801561014457600080fd5b50610179600480360381019080803573ffffffffffffffffffffffffffffffffffffffff1690602001909291905050506107dd565b005b34801561018757600080fd5b5061019061087c565b6040518082815260200191505060405180910390f35b3480156101b257600080fd5b506101e7600480360381019080803573ffffffffffffffffffffffffffffffffffffffff169060200190929190505050610882565b005b3480156101f557600080fd5b5061022a600480360381019080803573ffffffffffffffffffffffffffffffffffffffff169060200190929190505050610938565b005b34801561023857600080fd5b50610265600480360381019080803590602001908201803590602001919091929391929390505050610a53565b005b34801561027357600080fd5b506102a8600480360381019080803573ffffffffffffffffffffffffffffffffffffffff169060200190929190505050610b79565b005b3480156102b657600080fd5b506102bf610cb0565b604051808273ffffffffffffffffffffffffffffffffffffffff1673ffffffffffffffffffffffffffffffffffffffff16815260200191505060405180910390f35b34801561030d57600080fd5b50610316610cd6565b604051808273ffffffffffffffffffffffffffffffffffffffff1673ffffffffffffffffffffffffffffffffffffffff16815260200191505060405180910390f35b34801561036457600080fd5b5061036d610cfc565b604051808273ffffffffffffffffffffffffffffffffffffffff1673ffffffffffffffffffffffffffffffffffffffff16815260200191505060405180910390f35b3480156103bb57600080fd5b506103fa600480360381019080803573ffffffffffffffffffffffffffffffffffffffff16906020019092919080359060200190929190505050610d22565b005b34801561040857600080fd5b50610411610e62565b005b34801561041f57600080fd5b50610428610f64565b604051808273ffffffffffffffffffffffffffffffffffffffff1673ffffffffffffffffffffffffffffffffffffffff16815260200191505060405180910390f35b34801561047657600080fd5b506104ab600480360381019080803573ffffffffffffffffffffffffffffffffffffffff169060200190929190505050610f8a565b005b3480156104b957600080fd5b506104c2611040565b604051808273ffffffffffffffffffffffffffffffffffffffff1673ffffffffffffffffffffffffffffffffffffffff16815260200191505060405180910390f35b34801561051057600080fd5b50610545600480360381019080803573ffffffffffffffffffffffffffffffffffffffff169060200190929190505050611065565b005b34801561055357600080fd5b5061055c611116565b6040518082815260200191505060405180910390f35b34801561057e57600080fd5b506105b3600480360381019080803573ffffffffffffffffffffffffffffffffffffffff169060200190929190505050611120565b604051808215151515815260200191505060405180910390f35b3480156105d957600080fd5b50610644600480360381019080803590602001908201803590602001919091929391929390803590602001909291908035906020019092919080359060200190929190803573ffffffffffffffffffffffffffffffffffffffff16906020019092919050505061118a565b005b34801561065257600080fd5b50610691600480360381019080803573ffffffffffffffffffffffffffffffffffffffff16906020019092919080359060200190929190505050611300565b005b34801561069f57600080fd5b506106fe60048036038101908080359060200190929190803573ffffffffffffffffffffffffffffffffffffffff169060200190929190803573ffffffffffffffffffffffffffffffffffffffff169060200190929190505050611440565b005b34801561070c57600080fd5b5061074b600480360381019080803573ffffffffffffffffffffffffffffffffffffffff169060200190929190803590602001909291905050506115b5565b005b34801561075957600080fd5b50610798600480360381019080803573ffffffffffffffffffffffffffffffffffffffff169060200190929190803590602001909291905050506116f5565b005b3480156107a657600080fd5b506107db600480360381019080803573ffffffffffffffffffffffffffffffffffffffff169060200190929190505050611835565b005b6000809054906101000a900473ffffffffffffffffffffffffffffffffffffffff1673ffffffffffffffffffffffffffffffffffffffff163373ffffffffffffffffffffffffffffffffffffffff1614151561083857600080fd5b80600160006101000a81548173ffffffffffffffffffffffffffffffffffffffff021916908373ffffffffffffffffffffffffffffffffffffffff16021790555050565b60055481565b6000809054906101000a900473ffffffffffffffffffffffffffffffffffffffff1673ffffffffffffffffffffffffffffffffffffffff163373ffffffffffffffffffffffffffffffffffffffff161415156108dd57600080fd5b6001600960008373ffffffffffffffffffffffffffffffffffffffff1673ffffffffffffffffffffffffffffffffffffffff16815260200190815260200160002060006101000a81548160ff02191690831515021790555050565b60011515600960003373ffffffffffffffffffffffffffffffffffffffff1673ffffffffffffffffffffffffffffffffffffffff16815260200190815260200160002060009054906101000a900460ff16151514151561099757600080fd5b6001600660008373ffffffffffffffffffffffffffffffffffffffff1673ffffffffffffffffffffffffffffffffffffffff16815260200190815260200160002060006101000a81548160ff021916908315150217905550600760008273ffffffffffffffffffffffffffffffffffffffff1673ffffffffffffffffffffffffffffffffffffffff1681526020019081526020016000206000815480929190600101919050555060056000815480929190600101919050555050565b60011515600960003373ffffffffffffffffffffffffffffffffffffffff1673ffffffffffffffffffffffffffffffffffffffff16815260200190815260200160002060009054906101000a900460ff161515141515610ab257600080fd5b600460009054906101000a900473ffffffffffffffffffffffffffffffffffffffff1673ffffffffffffffffffffffffffffffffffffffff1663184e15b583836040518363ffffffff167c01000000000000000000000000000000000000000000000000000000000281526004018080602001828103825284848281815260200192508082843782019150509350505050600060405180830381600087803b158015610b5d57600080fd5b505af1158015610b71573d6000803e3d6000fd5b505050505050565b60011515600960003373ffffffffffffffffffffffffffffffffffffffff1673ffffffffffffffffffffffffffffffffffffffff16815260200190815260200160002060009054906101000a900460ff161515141515610bd857600080fd5b600260009054906101000a900473ffffffffffffffffffffffffffffffffffffffff1673ffffffffffffffffffffffffffffffffffffffff1663d99e98fb826040518263ffffffff167c0100000000000000000000000000000000000000000000000000000000028152600401808273ffffffffffffffffffffffffffffffffffffffff1673ffffffffffffffffffffffffffffffffffffffff168152602001915050600060405180830381600087803b158015610c9557600080fd5b505af1158015610ca9573d6000803e3d6000fd5b5050505050565b600260009054906101000a900473ffffffffffffffffffffffffffffffffffffffff1681565b600160009054906101000a900473ffffffffffffffffffffffffffffffffffffffff1681565b600360009054906101000a900473ffffffffffffffffffffffffffffffffffffffff1681565b60011515600960003373ffffffffffffffffffffffffffffffffffffffff1673ffffffffffffffffffffffffffffffffffffffff16815260200190815260200160002060009054906101000a900460ff161515141515610d8157600080fd5b600160009054906101000a900473ffffffffffffffffffffffffffffffffffffffff1673ffffffffffffffffffffffffffffffffffffffff16639dc29fac83836040518363ffffffff167c0100000000000000000000000000000000000000000000000000000000028152600401808373ffffffffffffffffffffffffffffffffffffffff1673ffffffffffffffffffffffffffffffffffffffff16815260200182815260200192505050600060405180830381600087803b158015610e4657600080fd5b505af1158015610e5a573d6000803e3d6000fd5b505050505050565b6000809054906101000a900473ffffffffffffffffffffffffffffffffffffffff1673ffffffffffffffffffffffffffffffffffffffff163373ffffffffffffffffffffffffffffffffffffffff16141515610ebd57600080fd5b6000809054906101000a900473ffffffffffffffffffffffffffffffffffffffff1673ffffffffffffffffffffffffffffffffffffffff167ff8df31144d9c2f0f6b59d69b8b98abd5459d07f2742c4df920b25aae33c6482060405160405180910390a260008060006101000a81548173ffffffffffffffffffffffffffffffffffffffff021916908373ffffffffffffffffffffffffffffffffffffffff160217905550565b600460009054906101000a900473ffffffffffffffffffffffffffffffffffffffff1681565b60011515600960003373ffffffffffffffffffffffffffffffffffffffff1673ffffffffffffffffffffffffffffffffffffffff16815260200190815260200160002060009054906101000a900460ff161515141515610fe957600080fd5b61103c6001600860008473ffffffffffffffffffffffffffffffffffffffff1673ffffffffffffffffffffffffffffffffffffffff1681526020019081526020016000205461189c90919063ffffffff16565b5050565b6000809054906101000a900473ffffffffffffffffffffffffffffffffffffffff1681565b60011515600960003373ffffffffffffffffffffffffffffffffffffffff1673ffffffffffffffffffffffffffffffffffffffff16815260200190815260200160002060009054906101000a900460ff1615151415156110c457600080fd5b600760008273ffffffffffffffffffffffffffffffffffffffff1673ffffffffffffffffffffffffffffffffffffffff1681526020019081526020016000206000815480929190600101919050555050565b6000600554905090565b600060011515600660008473ffffffffffffffffffffffffffffffffffffffff1673ffffffffffffffffffffffffffffffffffffffff16815260200190815260200160002060009054906101000a900460ff16151514156111845760019050611185565b5b919050565b60011515600960003373ffffffffffffffffffffffffffffffffffffffff1673ffffffffffffffffffffffffffffffffffffffff16815260200190815260200160002060009054906101000a900460ff1615151415156111e957600080fd5b600260009054906101000a900473ffffffffffffffffffffffffffffffffffffffff1673ffffffffffffffffffffffffffffffffffffffff16638fce26338787878787876040518763ffffffff167c010000000000000000000000000000000000000000000000000000000002815260040180806020018681526020018581526020018481526020018373ffffffffffffffffffffffffffffffffffffffff1673ffffffffffffffffffffffffffffffffffffffff16815260200182810382528888828181526020019250808284378201915050975050505050505050600060405180830381600087803b1580156112e057600080fd5b505af11580156112f4573d6000803e3d6000fd5b50505050505050505050565b60011515600960003373ffffffffffffffffffffffffffffffffffffffff1673ffffffffffffffffffffffffffffffffffffffff16815260200190815260200160002060009054906101000a900460ff16151514151561135f57600080fd5b600160009054906101000a900473ffffffffffffffffffffffffffffffffffffffff1673ffffffffffffffffffffffffffffffffffffffff166340c10f1983836040518363ffffffff167c0100000000000000000000000000000000000000000000000000000000028152600401808373ffffffffffffffffffffffffffffffffffffffff1673ffffffffffffffffffffffffffffffffffffffff16815260200182815260200192505050600060405180830381600087803b15801561142457600080fd5b505af1158015611438573d6000803e3d6000fd5b505050505050565b60011515600960003373ffffffffffffffffffffffffffffffffffffffff1673ffffffffffffffffffffffffffffffffffffffff16815260200190815260200160002060009054906101000a900460ff16151514151561149f57600080fd5b600260009054906101000a900473ffffffffffffffffffffffffffffffffffffffff1673ffffffffffffffffffffffffffffffffffffffff1663979571c58484846040518463ffffffff167c0100000000000000000000000000000000000000000000000000000000028152600401808481526020018373ffffffffffffffffffffffffffffffffffffffff1673ffffffffffffffffffffffffffffffffffffffff1681526020018273ffffffffffffffffffffffffffffffffffffffff1673ffffffffffffffffffffffffffffffffffffffff1681526020019350505050600060405180830381600087803b15801561159857600080fd5b505af11580156115ac573d6000803e3d6000fd5b50505050505050565b60011515600960003373ffffffffffffffffffffffffffffffffffffffff1673ffffffffffffffffffffffffffffffffffffffff16815260200190815260200160002060009054906101000a900460ff16151514151561161457600080fd5b600360009054906101000a900473ffffffffffffffffffffffffffffffffffffffff1673ffffffffffffffffffffffffffffffffffffffff16639dc29fac83836040518363ffffffff167c0100000000000000000000000000000000000000000000000000000000028152600401808373ffffffffffffffffffffffffffffffffffffffff1673ffffffffffffffffffffffffffffffffffffffff16815260200182815260200192505050600060405180830381600087803b1580156116d957600080fd5b505af11580156116ed573d6000803e3d6000fd5b505050505050565b60011515600960003373ffffffffffffffffffffffffffffffffffffffff1673ffffffffffffffffffffffffffffffffffffffff16815260200190815260200160002060009054906101000a900460ff16151514151561175457600080fd5b600360009054906101000a900473ffffffffffffffffffffffffffffffffffffffff1673ffffffffffffffffffffffffffffffffffffffff166340c10f1983836040518363ffffffff167c0100000000000000000000000000000000000000000000000000000000028152600401808373ffffffffffffffffffffffffffffffffffffffff1673ffffffffffffffffffffffffffffffffffffffff16815260200182815260200192505050600060405180830381600087803b15801561181957600080fd5b505af115801561182d573d6000803e3d6000fd5b505050505050565b6000809054906101000a900473ffffffffffffffffffffffffffffffffffffffff1673ffffffffffffffffffffffffffffffffffffffff163373ffffffffffffffffffffffffffffffffffffffff1614151561189057600080fd5b611899816118b8565b50565b600081830190508281101515156118af57fe5b80905092915050565b600073ffffffffffffffffffffffffffffffffffffffff168173ffffffffffffffffffffffffffffffffffffffff16141515156118f457600080fd5b8073ffffffffffffffffffffffffffffffffffffffff166000809054906101000a900473ffffffffffffffffffffffffffffffffffffffff1673ffffffffffffffffffffffffffffffffffffffff167f8be0079c531659141344cd1fd0a4f28419497f9722a3daafe3b4186f6b6457e060405160405180910390a3806000806101000a81548173ffffffffffffffffffffffffffffffffffffffff021916908373ffffffffffffffffffffffffffffffffffffffff160217905550505600a165627a7a723058207e8511458996688feec8fcc602888f9c750248b7a0cb601572ed0c01a717de230029",
  "source": "pragma solidity ^0.4.21;\nimport \"zeppelin-solidity/contracts/ownership/Ownable.sol\";\nimport \"zeppelin-solidity/contracts/math/SafeMath.sol\";\n\n////////////////////////////////////////////////////////////////////////////////////////////\n/// @title DecentraCorpPoA\n/// @author DecentraCorp\n/// @notice this contract will serve as an information portal between the main ethereum\n///         and the CryptoPatent Blockchain\n/// @dev All function calls are currently implement without side effects\n////////////////////////////////////////////////////////////////////////////////////////////\n/// @author Christopher Dixon\n////////////////////////////////////////////////////////////////////////////////////////////\ncontract IdeaCoin {\n    function mint(address _to, uint256 _value) external;\n    function burn(address _from, uint256 _value)  external;\n\n}\n//IdeaCoin interface\n/////////////////////////////////////////////////////////////////////////////////////////////\ncontract ProofOfPurchaseToken{\n    function safeTransferFrom(address _from, address _to, uint256 _tokenId) public;\n    function _mintItemToken( string _itemIPFSHash) external;\n}\n////////////////////////////////////////////////////////////////////////////////////////////\ncontract ChaosCoin {\n    function mint(address _to, uint256 _value) external;\n    function burn(address _from, uint256 _value)  external;\n\n}\n//ChaosCoin interface\n/////////////////////////////////////////////////////////////////////////////////////////////\ncontract CryptoPatentBlockGenerator {\n    function _generateIdeaBlock(string _ideaIPFS, uint _globalUseBlockAmount, uint miningTime, uint _royalty, address _inventorsAddress) external;\n    function _replicationBlock(uint _ideaId, address _repAdd, address _replicatorAdd) external;\n    function _generateGUSBlock(address _replicationOwner) external;\n}\n/// CryptoPatentBlockGenerator interface\n/////////////////////////////////////////////////////////////////////////////////////////////\n\n contract DecentraCorpPoA is Ownable {\n   using SafeMath for uint256;\n///@param IDC is used to make calls to the IdeaCoin Contract\n   IdeaCoin public IDC;\n   CryptoPatentBlockGenerator public CPBG;\n   ChaosCoin public CC;\n   ProofOfPurchaseToken public PoPT;\n\n   uint public memberCount;\n   mapping (address =>bool) members;\n   mapping(address => uint) memberRank;\n   mapping(address => uint) facilityLevel;\n///@param approvedContracts is a mappiung of contracts alloud to call function on other\n\n   mapping(address => bool) approvedContracts;\n\n   modifier onlyApprovedAdd() {\n     require(approvedContracts[msg.sender] == true);\n     _;\n   }\n\n///@notice constructor sets up IdeaCoin address through truffle wizardry\n   constructor(IdeaCoin _IDC, CryptoPatentBlockGenerator _CPBG, ChaosCoin _CC, ProofOfPurchaseToken _PoPT) public {\n     IDC=(_IDC);\n     CPBG =(_CPBG);\n     CC=(_CC);\n     PoPT = (_PoPT);\n     members[msg.sender] = true;\n     memberCount++;\n     memberRank[msg.sender]++;\n     facilityLevel[msg.sender].add(100);\n   }\n\n//@addApprovedContract allows another contract to call functions\n///@dev adds contract to list of approved calling contracts\n  function addApprovedContract(address _newContract) public onlyOwner {\n        approvedContracts[_newContract] = true;\n      }\n\n///@notice setIDCadd allows the address of the IdeaCoin contract to be updated\n   function setIDCadd(address _IDC) public onlyOwner {\n     IDC = IdeaCoin(_IDC);\n   }\n\n///@notice proxyMint allows an approved address to mint IdeaCoin\n   function proxyIDCMint(address _add, uint _amount) external onlyApprovedAdd {\n     IDC.mint(_add, _amount);\n   }\n///@notice proxyBurn allows an approved address to burn IdeaCoin\n   function proxyIDCBurn(address _add,  uint _amount) external onlyApprovedAdd {\n     IDC.burn(_add, _amount);\n   }\n///@notice proxyMint allows an approved address to mint IdeaCoin\n      function proxyCCMint(address _add, uint _amount) external onlyApprovedAdd {\n        CC.mint(_add, _amount);\n      }\n///@notice proxyBurn allows an approved address to burn IdeaCoin\n      function proxyCCBurn(address _add,  uint _amount) external onlyApprovedAdd {\n        CC.burn(_add, _amount);\n      }\n\n   function generateIdeaBlock(string _ideaIPFS, uint _globalUseBlockAmount, uint miningTime, uint _royalty, address _inventorsAddress) external onlyApprovedAdd {\n     CPBG._generateIdeaBlock(_ideaIPFS, _globalUseBlockAmount, miningTime, _royalty, _inventorsAddress);\n   }\n   function replicationBlock(uint _ideaId, address _repAdd, address _replicatorAdd) external onlyApprovedAdd {\n     CPBG._replicationBlock( _ideaId, _repAdd, _replicatorAdd);\n   }\n   function generateGUSBlock(address _replicationOwner) external onlyApprovedAdd {\n   CPBG._generateGUSBlock( _replicationOwner);\n }\nfunction mintItemToken( string _itemIPFSHash) external onlyApprovedAdd {\n  PoPT._mintItemToken( _itemIPFSHash);\n}\n\n///@notice addMember function is an internal function for adding a member to decentracorp\n///@dev addMember takes in an address _mem, sets its membership to true and increments their rank by one\n  function _addMember(address _mem) external onlyApprovedAdd {\n      members[_mem] = true;\n      memberRank[_mem]++;\n      memberCount++;\n  }\n  function _checkIfMember(address _member) public view returns(bool) {\n    if(members[_member] == true){\n      return true;\n    }\n  }\n  ///@notice getMemberCount function returns total membercount\n  ///@dev getMemberCount is for front end and internal use\n    function getMemberCount() public view returns(uint) {\n      return memberCount;\n    }\n\n    function increaseMemRank(address _add) external onlyApprovedAdd {\n      memberRank[_add]++;\n    }\n    function levelUpFacility(address _facAdd) public onlyApprovedAdd {\n      facilityLevel[_facAdd].add(1);\n    }\n }\n",
  "sourcePath": "/home/stan36/repos/DecentraCorp/contracts/CryptoPatent/DecentraCorpPoA.sol",
  "compiler": {
    "name": "solc",
    "version": "0.4.24+commit.e67f0147.Emscripten.clang"
  },
  "schemaVersion": "2.0.1",
  "updatedAt": "2018-12-26T03:23:41.595Z"
}