{
  "contractName": "IBLogic",
  "abi": [
    {
      "constant": false,
      "inputs": [
        {
          "name": "_newHash",
          "type": "string"
        }
      ],
      "name": "updateProfile",
      "outputs": [],
      "payable": false,
      "stateMutability": "nonpayable",
      "type": "function"
    },
    {
      "constant": true,
      "inputs": [
        {
          "name": "",
          "type": "uint256"
        }
      ],
      "name": "proposals",
      "outputs": [
        {
          "name": "IdeaIPFS",
          "type": "string"
        },
        {
          "name": "executed",
          "type": "bool"
        },
        {
          "name": "proposalPassed",
          "type": "bool"
        },
        {
          "name": "numberOfVotes",
          "type": "uint256"
        }
      ],
      "payable": false,
      "stateMutability": "view",
      "type": "function"
    },
    {
      "constant": true,
      "inputs": [
        {
          "name": "hash",
          "type": "string"
        }
      ],
      "name": "getPropID",
      "outputs": [
        {
          "name": "",
          "type": "uint256"
        }
      ],
      "payable": false,
      "stateMutability": "view",
      "type": "function"
    },
    {
      "constant": true,
      "inputs": [],
      "name": "ideaBlockReward",
      "outputs": [
        {
          "name": "",
          "type": "uint256"
        }
      ],
      "payable": false,
      "stateMutability": "view",
      "type": "function"
    },
    {
      "constant": true,
      "inputs": [],
      "name": "globalBlockHalfTime",
      "outputs": [
        {
          "name": "",
          "type": "uint256"
        }
      ],
      "payable": false,
      "stateMutability": "view",
      "type": "function"
    },
    {
      "constant": true,
      "inputs": [],
      "name": "CPBG",
      "outputs": [
        {
          "name": "",
          "type": "address"
        }
      ],
      "payable": false,
      "stateMutability": "view",
      "type": "function"
    },
    {
      "constant": true,
      "inputs": [
        {
          "name": "_member",
          "type": "address"
        }
      ],
      "name": "checkIfMember",
      "outputs": [
        {
          "name": "",
          "type": "bool"
        }
      ],
      "payable": false,
      "stateMutability": "view",
      "type": "function"
    },
    {
      "constant": true,
      "inputs": [],
      "name": "globalIdeaCount",
      "outputs": [
        {
          "name": "",
          "type": "uint256"
        }
      ],
      "payable": false,
      "stateMutability": "view",
      "type": "function"
    },
    {
      "constant": false,
      "inputs": [
        {
          "name": "_dcpoa",
          "type": "address"
        },
        {
          "name": "_NTC",
          "type": "address"
        },
        {
          "name": "_CPBG",
          "type": "address"
        }
      ],
      "name": "setGenerators",
      "outputs": [],
      "payable": false,
      "stateMutability": "nonpayable",
      "type": "function"
    },
    {
      "constant": false,
      "inputs": [],
      "name": "renounceOwnership",
      "outputs": [],
      "payable": false,
      "stateMutability": "nonpayable",
      "type": "function"
    },
    {
      "constant": true,
      "inputs": [],
      "name": "globalUseBlock",
      "outputs": [
        {
          "name": "",
          "type": "uint256"
        }
      ],
      "payable": false,
      "stateMutability": "view",
      "type": "function"
    },
    {
      "constant": true,
      "inputs": [],
      "name": "minimumQuorum",
      "outputs": [
        {
          "name": "",
          "type": "uint256"
        }
      ],
      "payable": false,
      "stateMutability": "view",
      "type": "function"
    },
    {
      "constant": true,
      "inputs": [],
      "name": "owner",
      "outputs": [
        {
          "name": "",
          "type": "address"
        }
      ],
      "payable": false,
      "stateMutability": "view",
      "type": "function"
    },
    {
      "constant": false,
      "inputs": [
        {
          "name": "_hash",
          "type": "string"
        },
        {
          "name": "_facility",
          "type": "address"
        }
      ],
      "name": "stakeReplicatorWallet",
      "outputs": [],
      "payable": false,
      "stateMutability": "nonpayable",
      "type": "function"
    },
    {
      "constant": true,
      "inputs": [],
      "name": "repStake",
      "outputs": [
        {
          "name": "",
          "type": "uint256"
        }
      ],
      "payable": false,
      "stateMutability": "view",
      "type": "function"
    },
    {
      "constant": true,
      "inputs": [],
      "name": "globalRepCount",
      "outputs": [
        {
          "name": "",
          "type": "uint256"
        }
      ],
      "payable": false,
      "stateMutability": "view",
      "type": "function"
    },
    {
      "constant": false,
      "inputs": [
        {
          "name": "_valCon",
          "type": "address"
        }
      ],
      "name": "setValidatorContract",
      "outputs": [],
      "payable": false,
      "stateMutability": "nonpayable",
      "type": "function"
    },
    {
      "constant": true,
      "inputs": [],
      "name": "getIdeasOwner",
      "outputs": [
        {
          "name": "",
          "type": "uint256[]"
        }
      ],
      "payable": false,
      "stateMutability": "view",
      "type": "function"
    },
    {
      "constant": true,
      "inputs": [],
      "name": "DCPoA",
      "outputs": [
        {
          "name": "",
          "type": "address"
        }
      ],
      "payable": false,
      "stateMutability": "view",
      "type": "function"
    },
    {
      "constant": false,
      "inputs": [
        {
          "name": "_newOwner",
          "type": "address"
        }
      ],
      "name": "transferOwnership",
      "outputs": [],
      "payable": false,
      "stateMutability": "nonpayable",
      "type": "function"
    },
    {
      "constant": true,
      "inputs": [],
      "name": "Validators",
      "outputs": [
        {
          "name": "",
          "type": "address"
        }
      ],
      "payable": false,
      "stateMutability": "view",
      "type": "function"
    },
    {
      "constant": true,
      "inputs": [],
      "name": "NTC",
      "outputs": [
        {
          "name": "",
          "type": "address"
        }
      ],
      "payable": false,
      "stateMutability": "view",
      "type": "function"
    },
    {
      "constant": true,
      "inputs": [],
      "name": "buyMemWindow",
      "outputs": [
        {
          "name": "",
          "type": "uint256"
        }
      ],
      "payable": false,
      "stateMutability": "view",
      "type": "function"
    },
    {
      "anonymous": false,
      "inputs": [
        {
          "indexed": false,
          "name": "IdeaHash",
          "type": "string"
        }
      ],
      "name": "IdeaProposed",
      "type": "event"
    },
    {
      "anonymous": false,
      "inputs": [
        {
          "indexed": false,
          "name": "_ideahash",
          "type": "string"
        }
      ],
      "name": "IdeaApproved",
      "type": "event"
    },
    {
      "anonymous": false,
      "inputs": [
        {
          "indexed": false,
          "name": "_voter",
          "type": "address"
        },
        {
          "indexed": false,
          "name": "inSupport",
          "type": "bool"
        }
      ],
      "name": "Voted",
      "type": "event"
    },
    {
      "anonymous": false,
      "inputs": [
        {
          "indexed": false,
          "name": "member",
          "type": "address"
        }
      ],
      "name": "NewMember",
      "type": "event"
    },
    {
      "anonymous": false,
      "inputs": [
        {
          "indexed": false,
          "name": "_repAdd",
          "type": "address"
        }
      ],
      "name": "NewReplication",
      "type": "event"
    },
    {
      "anonymous": false,
      "inputs": [
        {
          "indexed": false,
          "name": "updatedAccount",
          "type": "address"
        }
      ],
      "name": "ProfileUpdated",
      "type": "event"
    },
    {
      "anonymous": false,
      "inputs": [
        {
          "indexed": false,
          "name": "repAdd",
          "type": "address"
        },
        {
          "indexed": false,
          "name": "repWeight",
          "type": "uint256"
        }
      ],
      "name": "LocalUseWeight",
      "type": "event"
    },
    {
      "anonymous": false,
      "inputs": [
        {
          "indexed": false,
          "name": "repAdd",
          "type": "address"
        },
        {
          "indexed": false,
          "name": "ideaId",
          "type": "uint256"
        }
      ],
      "name": "GlobalUseBlock",
      "type": "event"
    },
    {
      "anonymous": false,
      "inputs": [
        {
          "indexed": true,
          "name": "previousOwner",
          "type": "address"
        }
      ],
      "name": "OwnershipRenounced",
      "type": "event"
    },
    {
      "anonymous": false,
      "inputs": [
        {
          "indexed": true,
          "name": "previousOwner",
          "type": "address"
        },
        {
          "indexed": true,
          "name": "newOwner",
          "type": "address"
        }
      ],
      "name": "OwnershipTransferred",
      "type": "event"
    },
    {
      "constant": false,
      "inputs": [
        {
          "name": "_ideaIPFS",
          "type": "string"
        },
        {
          "name": "_globalUseBlockAmount",
          "type": "uint256"
        },
        {
          "name": "_miningTime",
          "type": "uint256"
        },
        {
          "name": "_royalty",
          "type": "uint256"
        },
        {
          "name": "_inventor",
          "type": "address"
        },
        {
          "name": "_invention",
          "type": "address"
        }
      ],
      "name": "generateIdeaBlock",
      "outputs": [],
      "payable": false,
      "stateMutability": "nonpayable",
      "type": "function"
    }
  ],
  "bytecode": "0x6080604052683635c9adc5dea00000600a5568056bc75e2d63100000600b55336000806101000a81548173ffffffffffffffffffffffffffffffffffffffff021916908373ffffffffffffffffffffffffffffffffffffffff1602179055506120a38061006d6000396000f30060806040526004361061013d576000357c0100000000000000000000000000000000000000000000000000000000900463ffffffff1680629299e314610142578063013cf08b146101ab57806310734e431461026e5780631d28ce3b146102eb5780631ddc883b146103b257806328a6e47c146103dd5780633c91f273146104085780634951f6aa1461045f5780634cfa2409146104ba5780636da23e40146104e5578063715018a614610568578063758249741461057f5780638160f0b5146105aa5780638da5cb5b146105d55780638ee05b1d1461062c5780639f7d8929146106b5578063be6cbbcf146106e0578063cdf64a761461070b578063daeac7b91461074e578063e026daa1146107ba578063f2fde38b14610811578063f691977414610854578063fc749323146108ab578063ff336f5d14610902575b600080fd5b34801561014e57600080fd5b506101a9600480360381019080803590602001908201803590602001908080601f016020809104026020016040519081016040528093929190818152602001838380828437820191505050505050919291929050505061092d565b005b3480156101b757600080fd5b506101d660048036038101908080359060200190929190505050610ad5565b60405180806020018515151515815260200184151515158152602001838152602001828103825286818151815260200191508051906020019080838360005b83811015610230578082015181840152602081019050610215565b50505050905090810190601f16801561025d5780820380516001836020036101000a031916815260200191505b509550505050505060405180910390f35b34801561027a57600080fd5b506102d5600480360381019080803590602001908201803590602001908080601f0160208091040260200160405190810160405280939291908181526020018383808284378201915050505050509192919290505050610bc6565b6040518082815260200191505060405180910390f35b3480156102f757600080fd5b506103b0600480360381019080803590602001908201803590602001908080601f0160208091040260200160405190810160405280939291908181526020018383808284378201915050505050509192919290803590602001909291908035906020019092919080359060200190929190803573ffffffffffffffffffffffffffffffffffffffff169060200190929190803573ffffffffffffffffffffffffffffffffffffffff169060200190929190505050610c3b565b005b3480156103be57600080fd5b506103c76114d2565b6040518082815260200191505060405180910390f35b3480156103e957600080fd5b506103f26114d8565b6040518082815260200191505060405180910390f35b34801561041457600080fd5b5061041d6114de565b604051808273ffffffffffffffffffffffffffffffffffffffff1673ffffffffffffffffffffffffffffffffffffffff16815260200191505060405180910390f35b34801561046b57600080fd5b506104a0600480360381019080803573ffffffffffffffffffffffffffffffffffffffff169060200190929190505050611504565b604051808215151515815260200191505060405180910390f35b3480156104c657600080fd5b506104cf611619565b6040518082815260200191505060405180910390f35b3480156104f157600080fd5b50610566600480360381019080803573ffffffffffffffffffffffffffffffffffffffff169060200190929190803573ffffffffffffffffffffffffffffffffffffffff169060200190929190803573ffffffffffffffffffffffffffffffffffffffff16906020019092919050505061161f565b005b34801561057457600080fd5b5061057d611742565b005b34801561058b57600080fd5b50610594611844565b6040518082815260200191505060405180910390f35b3480156105b657600080fd5b506105bf61184a565b6040518082815260200191505060405180910390f35b3480156105e157600080fd5b506105ea611850565b604051808273ffffffffffffffffffffffffffffffffffffffff1673ffffffffffffffffffffffffffffffffffffffff16815260200191505060405180910390f35b34801561063857600080fd5b506106b3600480360381019080803590602001908201803590602001908080601f0160208091040260200160405190810160405280939291908181526020018383808284378201915050505050509192919290803573ffffffffffffffffffffffffffffffffffffffff169060200190929190505050611875565b005b3480156106c157600080fd5b506106ca611d1c565b6040518082815260200191505060405180910390f35b3480156106ec57600080fd5b506106f5611d22565b6040518082815260200191505060405180910390f35b34801561071757600080fd5b5061074c600480360381019080803573ffffffffffffffffffffffffffffffffffffffff169060200190929190505050611d28565b005b34801561075a57600080fd5b50610763611dc7565b6040518080602001828103825283818151815260200191508051906020019060200280838360005b838110156107a657808201518184015260208101905061078b565b505050509050019250505060405180910390f35b3480156107c657600080fd5b506107cf611e5c565b604051808273ffffffffffffffffffffffffffffffffffffffff1673ffffffffffffffffffffffffffffffffffffffff16815260200191505060405180910390f35b34801561081d57600080fd5b50610852600480360381019080803573ffffffffffffffffffffffffffffffffffffffff169060200190929190505050611e82565b005b34801561086057600080fd5b50610869611ee9565b604051808273ffffffffffffffffffffffffffffffffffffffff1673ffffffffffffffffffffffffffffffffffffffff16815260200191505060405180910390f35b3480156108b757600080fd5b506108c0611f0f565b604051808273ffffffffffffffffffffffffffffffffffffffff1673ffffffffffffffffffffffffffffffffffffffff16815260200191505060405180910390f35b34801561090e57600080fd5b50610917611f35565b6040518082815260200191505060405180910390f35b600260009054906101000a900473ffffffffffffffffffffffffffffffffffffffff1673ffffffffffffffffffffffffffffffffffffffff1663afa879d133836040518363ffffffff167c0100000000000000000000000000000000000000000000000000000000028152600401808373ffffffffffffffffffffffffffffffffffffffff1673ffffffffffffffffffffffffffffffffffffffff16815260200180602001828103825283818151815260200191508051906020019080838360005b83811015610a0a5780820151818401526020810190506109ef565b50505050905090810190601f168015610a375780820380516001836020036101000a031916815260200191505b509350505050600060405180830381600087803b158015610a5757600080fd5b505af1158015610a6b573d6000803e3d6000fd5b505050507fbe4ec58a792f909e102ee3d745d0c3b34a4d437a54d903c4db098d31c556422f33604051808273ffffffffffffffffffffffffffffffffffffffff1673ffffffffffffffffffffffffffffffffffffffff16815260200191505060405180910390a150565b600d81815481101515610ae457fe5b9060005260206000209060050201600091509050806000018054600181600116156101000203166002900480601f016020809104026020016040519081016040528092919081815260200182805460018160011615610100020316600290048015610b905780601f10610b6557610100808354040283529160200191610b90565b820191906000526020600020905b815481529060010190602001808311610b7357829003601f168201915b5050505050908060010160009054906101000a900460ff16908060010160019054906101000a900460ff16908060020154905084565b60006010826040518082805190602001908083835b602083101515610c005780518252602082019150602081019050602083039250610bdb565b6001836020036101000a0380198251168184511680821785525050505050509050019150509081526020016040518091039020549050919050565b60008060009054906101000a900473ffffffffffffffffffffffffffffffffffffffff1673ffffffffffffffffffffffffffffffffffffffff163373ffffffffffffffffffffffffffffffffffffffff16141515610c9857600080fd5b600260009054906101000a900473ffffffffffffffffffffffffffffffffffffffff1673ffffffffffffffffffffffffffffffffffffffff16631d28ce3b8888888888886040518763ffffffff167c010000000000000000000000000000000000000000000000000000000002815260040180806020018781526020018681526020018581526020018473ffffffffffffffffffffffffffffffffffffffff1673ffffffffffffffffffffffffffffffffffffffff1681526020018373ffffffffffffffffffffffffffffffffffffffff1673ffffffffffffffffffffffffffffffffffffffff168152602001828103825288818151815260200191508051906020019080838360005b83811015610dbd578082015181840152602081019050610da2565b50505050905090810190601f168015610dea5780820380516001836020036101000a031916815260200191505b50975050505050505050600060405180830381600087803b158015610e0e57600080fd5b505af1158015610e22573d6000803e3d6000fd5b5050505060056000815480929190600101919050555060011515610e4584611504565b151514151561105257600260009054906101000a900473ffffffffffffffffffffffffffffffffffffffff1673ffffffffffffffffffffffffffffffffffffffff1663df9dedfc846040518263ffffffff167c0100000000000000000000000000000000000000000000000000000000028152600401808273ffffffffffffffffffffffffffffffffffffffff1673ffffffffffffffffffffffffffffffffffffffff168152602001915050602060405180830381600087803b158015610f0b57600080fd5b505af1158015610f1f573d6000803e3d6000fd5b505050506040513d6020811015610f3557600080fd5b81019080805190602001909291905050509050600260009054906101000a900473ffffffffffffffffffffffffffffffffffffffff1673ffffffffffffffffffffffffffffffffffffffff166396a56f5b84836040518363ffffffff167c0100000000000000000000000000000000000000000000000000000000028152600401808373ffffffffffffffffffffffffffffffffffffffff1673ffffffffffffffffffffffffffffffffffffffff1681526020018273ffffffffffffffffffffffffffffffffffffffff1673ffffffffffffffffffffffffffffffffffffffff16815260200192505050600060405180830381600087803b15801561103957600080fd5b505af115801561104d573d6000803e3d6000fd5b505050505b6001601260008473ffffffffffffffffffffffffffffffffffffffff1673ffffffffffffffffffffffffffffffffffffffff16815260200190815260200160002060006101000a81548160ff021916908315150217905550600460009054906101000a900473ffffffffffffffffffffffffffffffffffffffff1673ffffffffffffffffffffffffffffffffffffffff16634d238c8e836040518263ffffffff167c0100000000000000000000000000000000000000000000000000000000028152600401808273ffffffffffffffffffffffffffffffffffffffff1673ffffffffffffffffffffffffffffffffffffffff168152602001915050600060405180830381600087803b15801561116757600080fd5b505af115801561117b573d6000803e3d6000fd5b50505050611187611f3b565b50600260009054906101000a900473ffffffffffffffffffffffffffffffffffffffff1673ffffffffffffffffffffffffffffffffffffffff16636326e4ce84600a546040518363ffffffff167c0100000000000000000000000000000000000000000000000000000000028152600401808373ffffffffffffffffffffffffffffffffffffffff1673ffffffffffffffffffffffffffffffffffffffff16815260200182815260200192505050600060405180830381600087803b15801561124f57600080fd5b505af1158015611263573d6000803e3d6000fd5b50505050600260009054906101000a900473ffffffffffffffffffffffffffffffffffffffff1673ffffffffffffffffffffffffffffffffffffffff16634777e8ea846040518263ffffffff167c0100000000000000000000000000000000000000000000000000000000028152600401808273ffffffffffffffffffffffffffffffffffffffff1673ffffffffffffffffffffffffffffffffffffffff168152602001915050600060405180830381600087803b15801561132457600080fd5b505af1158015611338573d6000803e3d6000fd5b50505050601160008473ffffffffffffffffffffffffffffffffffffffff1673ffffffffffffffffffffffffffffffffffffffff1681526020019081526020016000206005549080600181540180825580915050906001820390600052602060002001600090919290919091505550600260009054906101000a900473ffffffffffffffffffffffffffffffffffffffff1673ffffffffffffffffffffffffffffffffffffffff1663caef94008460146040518363ffffffff167c0100000000000000000000000000000000000000000000000000000000028152600401808373ffffffffffffffffffffffffffffffffffffffff1673ffffffffffffffffffffffffffffffffffffffff16815260200182815260200192505050600060405180830381600087803b15801561146d57600080fd5b505af1158015611481573d6000803e3d6000fd5b5050505042601360008473ffffffffffffffffffffffffffffffffffffffff1673ffffffffffffffffffffffffffffffffffffffff1681526020019081526020016000208190555050505050505050565b600a5481565b60085481565b600360009054906101000a900473ffffffffffffffffffffffffffffffffffffffff1681565b600060011515600260009054906101000a900473ffffffffffffffffffffffffffffffffffffffff1673ffffffffffffffffffffffffffffffffffffffff1663aaa746bb846040518263ffffffff167c0100000000000000000000000000000000000000000000000000000000028152600401808273ffffffffffffffffffffffffffffffffffffffff1673ffffffffffffffffffffffffffffffffffffffff168152602001915050602060405180830381600087803b1580156115c757600080fd5b505af11580156115db573d6000803e3d6000fd5b505050506040513d60208110156115f157600080fd5b8101908080519060200190929190505050151514156116135760019050611614565b5b919050565b60055481565b6000809054906101000a900473ffffffffffffffffffffffffffffffffffffffff1673ffffffffffffffffffffffffffffffffffffffff163373ffffffffffffffffffffffffffffffffffffffff1614151561167a57600080fd5b82600260006101000a81548173ffffffffffffffffffffffffffffffffffffffff021916908373ffffffffffffffffffffffffffffffffffffffff16021790555081600160006101000a81548173ffffffffffffffffffffffffffffffffffffffff021916908373ffffffffffffffffffffffffffffffffffffffff16021790555080600360006101000a81548173ffffffffffffffffffffffffffffffffffffffff021916908373ffffffffffffffffffffffffffffffffffffffff160217905550505050565b6000809054906101000a900473ffffffffffffffffffffffffffffffffffffffff1673ffffffffffffffffffffffffffffffffffffffff163373ffffffffffffffffffffffffffffffffffffffff1614151561179d57600080fd5b6000809054906101000a900473ffffffffffffffffffffffffffffffffffffffff1673ffffffffffffffffffffffffffffffffffffffff167ff8df31144d9c2f0f6b59d69b8b98abd5459d07f2742c4df920b25aae33c6482060405160405180910390a260008060006101000a81548173ffffffffffffffffffffffffffffffffffffffff021916908373ffffffffffffffffffffffffffffffffffffffff160217905550565b60075481565b600c5481565b6000809054906101000a900473ffffffffffffffffffffffffffffffffffffffff1681565b68056bc75e2d63100000600160009054906101000a900473ffffffffffffffffffffffffffffffffffffffff1673ffffffffffffffffffffffffffffffffffffffff166370a08231336040518263ffffffff167c0100000000000000000000000000000000000000000000000000000000028152600401808273ffffffffffffffffffffffffffffffffffffffff1673ffffffffffffffffffffffffffffffffffffffff168152602001915050602060405180830381600087803b15801561193c57600080fd5b505af1158015611950573d6000803e3d6000fd5b505050506040513d602081101561196657600080fd5b81019080805190602001909291905050501015151561198457600080fd5b600260009054906101000a900473ffffffffffffffffffffffffffffffffffffffff1673ffffffffffffffffffffffffffffffffffffffff1663c812a6013368056bc75e2d631000006040518363ffffffff167c0100000000000000000000000000000000000000000000000000000000028152600401808373ffffffffffffffffffffffffffffffffffffffff1673ffffffffffffffffffffffffffffffffffffffff16815260200182815260200192505050600060405180830381600087803b158015611a5257600080fd5b505af1158015611a66573d6000803e3d6000fd5b50505050600260009054906101000a900473ffffffffffffffffffffffffffffffffffffffff1673ffffffffffffffffffffffffffffffffffffffff166396a56f5b33836040518363ffffffff167c0100000000000000000000000000000000000000000000000000000000028152600401808373ffffffffffffffffffffffffffffffffffffffff1673ffffffffffffffffffffffffffffffffffffffff1681526020018273ffffffffffffffffffffffffffffffffffffffff1673ffffffffffffffffffffffffffffffffffffffff16815260200192505050600060405180830381600087803b158015611b5b57600080fd5b505af1158015611b6f573d6000803e3d6000fd5b50505050600260009054906101000a900473ffffffffffffffffffffffffffffffffffffffff1673ffffffffffffffffffffffffffffffffffffffff1663afa879d133846040518363ffffffff167c0100000000000000000000000000000000000000000000000000000000028152600401808373ffffffffffffffffffffffffffffffffffffffff1673ffffffffffffffffffffffffffffffffffffffff16815260200180602001828103825283818151815260200191508051906020019080838360005b83811015611c50578082015181840152602081019050611c35565b50505050905090810190601f168015611c7d5780820380516001836020036101000a031916815260200191505b509350505050600060405180830381600087803b158015611c9d57600080fd5b505af1158015611cb1573d6000803e3d6000fd5b505050507fb4dcb6dd550f27b5917ebf674899ea7046ff91790c6f9f01431617ad39819db233604051808273ffffffffffffffffffffffffffffffffffffffff1673ffffffffffffffffffffffffffffffffffffffff16815260200191505060405180910390a15050565b600b5481565b60065481565b6000809054906101000a900473ffffffffffffffffffffffffffffffffffffffff1673ffffffffffffffffffffffffffffffffffffffff163373ffffffffffffffffffffffffffffffffffffffff16141515611d8357600080fd5b80600460006101000a81548173ffffffffffffffffffffffffffffffffffffffff021916908373ffffffffffffffffffffffffffffffffffffffff16021790555050565b6060601160003373ffffffffffffffffffffffffffffffffffffffff1673ffffffffffffffffffffffffffffffffffffffff168152602001908152602001600020805480602002602001604051908101604052809291908181526020018280548015611e5257602002820191906000526020600020905b815481526020019060010190808311611e3e575b5050505050905090565b600260009054906101000a900473ffffffffffffffffffffffffffffffffffffffff1681565b6000809054906101000a900473ffffffffffffffffffffffffffffffffffffffff1673ffffffffffffffffffffffffffffffffffffffff163373ffffffffffffffffffffffffffffffffffffffff16141515611edd57600080fd5b611ee681611f7d565b50565b600460009054906101000a900473ffffffffffffffffffffffffffffffffffffffff1681565b600160009054906101000a900473ffffffffffffffffffffffffffffffffffffffff1681565b60095481565b60006305a48fba6008540142101515611f74576002600a54811515611f5c57fe5b04600a8190555042600881905550600a549050611f7a565b600a5490505b90565b600073ffffffffffffffffffffffffffffffffffffffff168173ffffffffffffffffffffffffffffffffffffffff1614151515611fb957600080fd5b8073ffffffffffffffffffffffffffffffffffffffff166000809054906101000a900473ffffffffffffffffffffffffffffffffffffffff1673ffffffffffffffffffffffffffffffffffffffff167f8be0079c531659141344cd1fd0a4f28419497f9722a3daafe3b4186f6b6457e060405160405180910390a3806000806101000a81548173ffffffffffffffffffffffffffffffffffffffff021916908373ffffffffffffffffffffffffffffffffffffffff160217905550505600a165627a7a72305820ad8ce0e2fb82126b45b3d14d30aeddb1a568f9faeb1bd1c68e0905fb2108b2340029",
  "source": "pragma solidity ^0.4.21;\nimport \"./Interface.sol\";\n////////////////////////////////////////////////////////////////////////////////////////////\n/// @title IBLogic Contract for the CryptoPatent Blockchain\n/// @author DecentraCorp\n/// @notice this contract is the second contract in the CryptoPatent Blockchain\n/// @dev All function calls are currently implement without side effects\n////////////////////////////////////////////////////////////////////////////////////////////\n\n/// @author Christopher Dixon\n/// @dev this contract contains the cryptopatent interface for the IdeaBlock contract\ncontract IBLogic is Interface {\n\n\n///@notice generateIdeaBlock is used to generate and ideablock after a community vote\n///@dev this function is onlyOwner as atm the CPB is owning itself. In the future\n///     this will likely be set to an account that will have special privlidges between this contracts and\n///     the ethereum Based DecentraCorp contracts to facilitate crosschain communication\n\nfunction generateIdeaBlock(\n  string _ideaIPFS,\n  uint  _globalUseBlockAmount,\n  uint _miningTime,\n  uint _royalty,\n  address _inventor,\n  address _invention\n  )\n  public\n  onlyOwner\n  {\n\n    DCPoA.generateIdeaBlock( _ideaIPFS, _globalUseBlockAmount, _miningTime, _royalty,  _inventor, _invention);\n//generates IdeaBlock ERC721 Token\n    globalIdeaCount++;\n    if(checkIfMember(_inventor) != true){\n      address fac = DCPoA.getFecilityOfMember(_inventor);\n      DCPoA._addMember(_inventor, fac);\n}\ninventions[_invention] = true;\nValidators.addValidator(_invention);\n    ideaBlockTimeLord();\n    DCPoA.proxyNTCMint( _inventor, ideaBlockReward);\n//mints 1000 NTC and sends it to the inventor\n    DCPoA.increaseMemLev(_inventor);\n    getTokens[_inventor].push(globalIdeaCount);\n    DCPoA.increaseFacilityRank( _inventor, 20);\n    localMiningtimeTracker[_invention] = now;\n  }\n\n///@notice ideaBlockTimeLord is called to half an ideablock reward every two years\n///@dev this time may need to be adjusted to 4 years depending on predicted inflation patterns of NTC\n  function ideaBlockTimeLord() internal returns(uint){\n    if(now >= globalBlockHalfTime + 94670778) {\n      ideaBlockReward = ideaBlockReward / 2;\n      globalBlockHalfTime = now;\n      return ideaBlockReward;\n      }\n      return ideaBlockReward;\n  }\n}\n",
  "sourcePath": "/home/stan36/repos/DecentraCorp/contracts/CryptoPatent/IBLogic.sol",
  "compiler": {
    "name": "solc",
    "version": "0.4.24+commit.e67f0147.Emscripten.clang"
  },
  "schemaVersion": "2.0.1",
  "updatedAt": "2019-03-14T00:06:58.558Z"
}