{
  "contractName": "IdeaBlockLogic",
  "abi": [
    {
      "constant": true,
      "inputs": [
        {
          "name": "",
          "type": "address"
        }
      ],
      "name": "localMiningtimeTracker",
      "outputs": [
        {
          "name": "",
          "type": "uint256"
        }
      ],
      "payable": false,
      "stateMutability": "view",
      "type": "function"
    },
    {
      "constant": true,
      "inputs": [
        {
          "name": "",
          "type": "uint256"
        }
      ],
      "name": "ideaProposals",
      "outputs": [
        {
          "name": "IdeaIPFS",
          "type": "string"
        },
        {
          "name": "executed",
          "type": "bool"
        },
        {
          "name": "proposalPassed",
          "type": "bool"
        }
      ],
      "payable": false,
      "stateMutability": "view",
      "type": "function"
    },
    {
      "constant": true,
      "inputs": [],
      "name": "ideaBlockReward",
      "outputs": [
        {
          "name": "",
          "type": "uint256"
        }
      ],
      "payable": false,
      "stateMutability": "view",
      "type": "function"
    },
    {
      "constant": true,
      "inputs": [],
      "name": "globalBlockHalfTime",
      "outputs": [
        {
          "name": "",
          "type": "uint256"
        }
      ],
      "payable": false,
      "stateMutability": "view",
      "type": "function"
    },
    {
      "constant": true,
      "inputs": [
        {
          "name": "",
          "type": "address"
        },
        {
          "name": "",
          "type": "uint256"
        }
      ],
      "name": "repOwnes",
      "outputs": [
        {
          "name": "",
          "type": "uint256"
        }
      ],
      "payable": false,
      "stateMutability": "view",
      "type": "function"
    },
    {
      "constant": true,
      "inputs": [
        {
          "name": "",
          "type": "uint256"
        }
      ],
      "name": "ideaVariables",
      "outputs": [
        {
          "name": "globalUseBlockAmount",
          "type": "uint256"
        },
        {
          "name": "royalty",
          "type": "uint256"
        },
        {
          "name": "miningTime",
          "type": "uint256"
        },
        {
          "name": "inventorAddress",
          "type": "address"
        },
        {
          "name": "inventionAddress",
          "type": "address"
        },
        {
          "name": "IPFShash",
          "type": "string"
        }
      ],
      "payable": false,
      "stateMutability": "view",
      "type": "function"
    },
    {
      "constant": true,
      "inputs": [],
      "name": "globalIdeaCount",
      "outputs": [
        {
          "name": "",
          "type": "uint256"
        }
      ],
      "payable": false,
      "stateMutability": "view",
      "type": "function"
    },
    {
      "constant": true,
      "inputs": [
        {
          "name": "",
          "type": "address"
        }
      ],
      "name": "IdeaAddToId",
      "outputs": [
        {
          "name": "",
          "type": "uint256"
        }
      ],
      "payable": false,
      "stateMutability": "view",
      "type": "function"
    },
    {
      "constant": true,
      "inputs": [
        {
          "name": "",
          "type": "address"
        }
      ],
      "name": "repInfo",
      "outputs": [
        {
          "name": "BlockReward",
          "type": "uint256"
        },
        {
          "name": "OwnersAddress",
          "type": "address"
        },
        {
          "name": "IdeaID",
          "type": "uint256"
        },
        {
          "name": "Royalty",
          "type": "uint256"
        },
        {
          "name": "RepID",
          "type": "uint256"
        },
        {
          "name": "InventorsAddress",
          "type": "address"
        },
        {
          "name": "ReplicationAddress",
          "type": "address"
        }
      ],
      "payable": false,
      "stateMutability": "view",
      "type": "function"
    },
    {
      "constant": false,
      "inputs": [],
      "name": "renounceOwnership",
      "outputs": [],
      "payable": false,
      "stateMutability": "nonpayable",
      "type": "function"
    },
    {
      "constant": true,
      "inputs": [],
      "name": "globalUseBlock",
      "outputs": [
        {
          "name": "",
          "type": "uint256"
        }
      ],
      "payable": false,
      "stateMutability": "view",
      "type": "function"
    },
    {
      "constant": true,
      "inputs": [
        {
          "name": "",
          "type": "uint256"
        }
      ],
      "name": "weightTracker",
      "outputs": [
        {
          "name": "",
          "type": "uint256"
        }
      ],
      "payable": false,
      "stateMutability": "view",
      "type": "function"
    },
    {
      "constant": true,
      "inputs": [],
      "name": "owner",
      "outputs": [
        {
          "name": "",
          "type": "address"
        }
      ],
      "payable": false,
      "stateMutability": "view",
      "type": "function"
    },
    {
      "constant": true,
      "inputs": [],
      "name": "isOwner",
      "outputs": [
        {
          "name": "",
          "type": "bool"
        }
      ],
      "payable": false,
      "stateMutability": "view",
      "type": "function"
    },
    {
      "constant": true,
      "inputs": [],
      "name": "repStake",
      "outputs": [
        {
          "name": "",
          "type": "uint256"
        }
      ],
      "payable": false,
      "stateMutability": "view",
      "type": "function"
    },
    {
      "constant": true,
      "inputs": [],
      "name": "globalRepCount",
      "outputs": [
        {
          "name": "",
          "type": "uint256"
        }
      ],
      "payable": false,
      "stateMutability": "view",
      "type": "function"
    },
    {
      "constant": false,
      "inputs": [
        {
          "name": "sender",
          "type": "address"
        }
      ],
      "name": "initialize",
      "outputs": [],
      "payable": false,
      "stateMutability": "nonpayable",
      "type": "function"
    },
    {
      "constant": true,
      "inputs": [
        {
          "name": "",
          "type": "address"
        }
      ],
      "name": "localWeightTracker",
      "outputs": [
        {
          "name": "",
          "type": "uint256"
        }
      ],
      "payable": false,
      "stateMutability": "view",
      "type": "function"
    },
    {
      "constant": true,
      "inputs": [
        {
          "name": "",
          "type": "address"
        }
      ],
      "name": "replications",
      "outputs": [
        {
          "name": "",
          "type": "bool"
        }
      ],
      "payable": false,
      "stateMutability": "view",
      "type": "function"
    },
    {
      "constant": true,
      "inputs": [],
      "name": "DCPoA",
      "outputs": [
        {
          "name": "",
          "type": "address"
        }
      ],
      "payable": false,
      "stateMutability": "view",
      "type": "function"
    },
    {
      "constant": false,
      "inputs": [
        {
          "name": "newOwner",
          "type": "address"
        }
      ],
      "name": "transferOwnership",
      "outputs": [],
      "payable": false,
      "stateMutability": "nonpayable",
      "type": "function"
    },
    {
      "constant": true,
      "inputs": [
        {
          "name": "",
          "type": "uint256"
        }
      ],
      "name": "ideaRepCounter",
      "outputs": [
        {
          "name": "",
          "type": "uint256"
        }
      ],
      "payable": false,
      "stateMutability": "view",
      "type": "function"
    },
    {
      "constant": true,
      "inputs": [],
      "name": "Validators",
      "outputs": [
        {
          "name": "",
          "type": "address"
        }
      ],
      "payable": false,
      "stateMutability": "view",
      "type": "function"
    },
    {
      "constant": true,
      "inputs": [],
      "name": "globalIdeaPropCount",
      "outputs": [
        {
          "name": "",
          "type": "uint256"
        }
      ],
      "payable": false,
      "stateMutability": "view",
      "type": "function"
    },
    {
      "anonymous": false,
      "inputs": [
        {
          "indexed": false,
          "name": "IPFS",
          "type": "string"
        }
      ],
      "name": "IdeaProposed",
      "type": "event"
    },
    {
      "anonymous": false,
      "inputs": [
        {
          "indexed": false,
          "name": "member",
          "type": "address"
        }
      ],
      "name": "NewMember",
      "type": "event"
    },
    {
      "anonymous": false,
      "inputs": [
        {
          "indexed": false,
          "name": "IPFS",
          "type": "string"
        }
      ],
      "name": "IdeaApproved",
      "type": "event"
    },
    {
      "anonymous": false,
      "inputs": [
        {
          "indexed": false,
          "name": "_voter",
          "type": "address"
        },
        {
          "indexed": false,
          "name": "inSupport",
          "type": "bool"
        }
      ],
      "name": "Voted",
      "type": "event"
    },
    {
      "anonymous": false,
      "inputs": [
        {
          "indexed": false,
          "name": "_repAdd",
          "type": "address"
        }
      ],
      "name": "NewReplication",
      "type": "event"
    },
    {
      "anonymous": false,
      "inputs": [
        {
          "indexed": false,
          "name": "repAdd",
          "type": "address"
        },
        {
          "indexed": false,
          "name": "repWeight",
          "type": "uint256"
        }
      ],
      "name": "LocalUseWeight",
      "type": "event"
    },
    {
      "anonymous": false,
      "inputs": [
        {
          "indexed": false,
          "name": "repAdd",
          "type": "address"
        },
        {
          "indexed": false,
          "name": "ideaId",
          "type": "uint256"
        }
      ],
      "name": "GlobalUseBlock",
      "type": "event"
    },
    {
      "anonymous": false,
      "inputs": [
        {
          "indexed": true,
          "name": "previousOwner",
          "type": "address"
        },
        {
          "indexed": true,
          "name": "newOwner",
          "type": "address"
        }
      ],
      "name": "OwnershipTransferred",
      "type": "event"
    }
  ],
  "bytecode": "0x608060405234801561001057600080fd5b50611275806100206000396000f3fe60806040526004361061013e576000357c0100000000000000000000000000000000000000000000000000000000900463ffffffff16806311e65844146101435780631855efa6146101a85780631ddc883b1461027257806328a6e47c1461029d5780632e858cce146102c85780634242779f146103375780634cfa2409146104665780634f214e84146104915780636849e795146104f6578063715018a614610609578063758249741461062057806381cbb6771461064b5780638da5cb5b1461069a5780638f32d59b146106f15780639f7d892914610720578063be6cbbcf1461074b578063c4d66de814610776578063ce87d3ee146107c7578063d436b5e91461082c578063e026daa114610895578063f2fde38b146108ec578063f54a01291461093d578063f69197741461098c578063f7e1e4f0146109e3575b600080fd5b34801561014f57600080fd5b506101926004803603602081101561016657600080fd5b81019080803573ffffffffffffffffffffffffffffffffffffffff169060200190929190505050610a0e565b6040518082815260200191505060405180910390f35b3480156101b457600080fd5b506101e1600480360360208110156101cb57600080fd5b8101908080359060200190929190505050610a26565b60405180806020018415151515815260200183151515158152602001828103825285818151815260200191508051906020019080838360005b8381101561023557808201518184015260208101905061021a565b50505050905090810190601f1680156102625780820380516001836020036101000a031916815260200191505b5094505050505060405180910390f35b34801561027e57600080fd5b50610287610b02565b6040518082815260200191505060405180910390f35b3480156102a957600080fd5b506102b2610b08565b6040518082815260200191505060405180910390f35b3480156102d457600080fd5b50610321600480360360408110156102eb57600080fd5b81019080803573ffffffffffffffffffffffffffffffffffffffff16906020019092919080359060200190929190505050610b0e565b6040518082815260200191505060405180910390f35b34801561034357600080fd5b506103706004803603602081101561035a57600080fd5b8101908080359060200190929190505050610b33565b604051808781526020018681526020018581526020018473ffffffffffffffffffffffffffffffffffffffff1673ffffffffffffffffffffffffffffffffffffffff1681526020018373ffffffffffffffffffffffffffffffffffffffff1673ffffffffffffffffffffffffffffffffffffffff16815260200180602001828103825283818151815260200191508051906020019080838360005b8381101561042657808201518184015260208101905061040b565b50505050905090810190601f1680156104535780820380516001836020036101000a031916815260200191505b5097505050505050505060405180910390f35b34801561047257600080fd5b5061047b610c47565b6040518082815260200191505060405180910390f35b34801561049d57600080fd5b506104e0600480360360208110156104b457600080fd5b81019080803573ffffffffffffffffffffffffffffffffffffffff169060200190929190505050610c4d565b6040518082815260200191505060405180910390f35b34801561050257600080fd5b506105456004803603602081101561051957600080fd5b81019080803573ffffffffffffffffffffffffffffffffffffffff169060200190929190505050610c65565b604051808881526020018773ffffffffffffffffffffffffffffffffffffffff1673ffffffffffffffffffffffffffffffffffffffff1681526020018681526020018581526020018481526020018373ffffffffffffffffffffffffffffffffffffffff1673ffffffffffffffffffffffffffffffffffffffff1681526020018273ffffffffffffffffffffffffffffffffffffffff1673ffffffffffffffffffffffffffffffffffffffff16815260200197505050505050505060405180910390f35b34801561061557600080fd5b5061061e610d07565b005b34801561062c57600080fd5b50610635610ddb565b6040518082815260200191505060405180910390f35b34801561065757600080fd5b506106846004803603602081101561066e57600080fd5b8101908080359060200190929190505050610de1565b6040518082815260200191505060405180910390f35b3480156106a657600080fd5b506106af610df9565b604051808273ffffffffffffffffffffffffffffffffffffffff1673ffffffffffffffffffffffffffffffffffffffff16815260200191505060405180910390f35b3480156106fd57600080fd5b50610706610e23565b604051808215151515815260200191505060405180910390f35b34801561072c57600080fd5b50610735610e7b565b6040518082815260200191505060405180910390f35b34801561075757600080fd5b50610760610e81565b6040518082815260200191505060405180910390f35b34801561078257600080fd5b506107c56004803603602081101561079957600080fd5b81019080803573ffffffffffffffffffffffffffffffffffffffff169060200190929190505050610e87565b005b3480156107d357600080fd5b50610816600480360360208110156107ea57600080fd5b81019080803573ffffffffffffffffffffffffffffffffffffffff16906020019092919050505061107b565b6040518082815260200191505060405180910390f35b34801561083857600080fd5b5061087b6004803603602081101561084f57600080fd5b81019080803573ffffffffffffffffffffffffffffffffffffffff169060200190929190505050611093565b604051808215151515815260200191505060405180910390f35b3480156108a157600080fd5b506108aa6110b3565b604051808273ffffffffffffffffffffffffffffffffffffffff1673ffffffffffffffffffffffffffffffffffffffff16815260200191505060405180910390f35b3480156108f857600080fd5b5061093b6004803603602081101561090f57600080fd5b81019080803573ffffffffffffffffffffffffffffffffffffffff1690602001909291905050506110d9565b005b34801561094957600080fd5b506109766004803603602081101561096057600080fd5b81019080803590602001909291905050506110f8565b6040518082815260200191505060405180910390f35b34801561099857600080fd5b506109a1611110565b604051808273ffffffffffffffffffffffffffffffffffffffff1673ffffffffffffffffffffffffffffffffffffffff16815260200191505060405180910390f35b3480156109ef57600080fd5b506109f8611136565b6040518082815260200191505060405180910390f35b60756020528060005260406000206000915090505481565b6071602052806000526040600020600091509050806000018054600181600116156101000203166002900480601f016020809104026020016040519081016040528092919081815260200182805460018160011615610100020316600290048015610ad25780601f10610aa757610100808354040283529160200191610ad2565b820191906000526020600020905b815481529060010190602001808311610ab557829003601f168201915b5050505050908060010160009054906101000a900460ff16908060010160019054906101000a900460ff16905083565b606a5481565b60695481565b6078602052816000526040600020602052806000526040600020600091509150505481565b606f6020528060005260406000206000915090508060000154908060010154908060020154908060030160009054906101000a900473ffffffffffffffffffffffffffffffffffffffff16908060040160009054906101000a900473ffffffffffffffffffffffffffffffffffffffff1690806005018054600181600116156101000203166002900480601f016020809104026020016040519081016040528092919081815260200182805460018160011615610100020316600290048015610c3d5780601f10610c1257610100808354040283529160200191610c3d565b820191906000526020600020905b815481529060010190602001808311610c2057829003601f168201915b5050505050905086565b60685481565b60706020528060005260406000206000915090505481565b60776020528060005260406000206000915090508060000154908060010160009054906101000a900473ffffffffffffffffffffffffffffffffffffffff16908060020154908060030154908060040154908060050160009054906101000a900473ffffffffffffffffffffffffffffffffffffffff16908060060160009054906101000a900473ffffffffffffffffffffffffffffffffffffffff16905087565b610d0f610e23565b1515610d1a57600080fd5b600073ffffffffffffffffffffffffffffffffffffffff16603360009054906101000a900473ffffffffffffffffffffffffffffffffffffffff1673ffffffffffffffffffffffffffffffffffffffff167f8be0079c531659141344cd1fd0a4f28419497f9722a3daafe3b4186f6b6457e060405160405180910390a36000603360006101000a81548173ffffffffffffffffffffffffffffffffffffffff021916908373ffffffffffffffffffffffffffffffffffffffff160217905550565b606e5481565b60726020528060005260406000206000915090505481565b6000603360009054906101000a900473ffffffffffffffffffffffffffffffffffffffff16905090565b6000603360009054906101000a900473ffffffffffffffffffffffffffffffffffffffff1673ffffffffffffffffffffffffffffffffffffffff163373ffffffffffffffffffffffffffffffffffffffff1614905090565b606b5481565b606d5481565b600060019054906101000a900460ff1680610ea65750610ea561113c565b5b80610ebd57506000809054906101000a900460ff16155b1515610f57576040517f08c379a000000000000000000000000000000000000000000000000000000000815260040180806020018281038252602e8152602001807f436f6e747261637420696e7374616e63652068617320616c726561647920626581526020017f656e20696e697469616c697a656400000000000000000000000000000000000081525060400191505060405180910390fd5b60008060019054906101000a900460ff1690506001600060016101000a81548160ff02191690831515021790555060016000806101000a81548160ff02191690831515021790555081603360006101000a81548173ffffffffffffffffffffffffffffffffffffffff021916908373ffffffffffffffffffffffffffffffffffffffff160217905550603360009054906101000a900473ffffffffffffffffffffffffffffffffffffffff1673ffffffffffffffffffffffffffffffffffffffff16600073ffffffffffffffffffffffffffffffffffffffff167f8be0079c531659141344cd1fd0a4f28419497f9722a3daafe3b4186f6b6457e060405160405180910390a380600060016101000a81548160ff0219169083151502179055505050565b60736020528060005260406000206000915090505481565b60766020528060005260406000206000915054906101000a900460ff1681565b606660009054906101000a900473ffffffffffffffffffffffffffffffffffffffff1681565b6110e1610e23565b15156110ec57600080fd5b6110f58161114d565b50565b60746020528060005260406000206000915090505481565b606760009054906101000a900473ffffffffffffffffffffffffffffffffffffffff1681565b606c5481565b600080303b90506000811491505090565b600073ffffffffffffffffffffffffffffffffffffffff168173ffffffffffffffffffffffffffffffffffffffff161415151561118957600080fd5b8073ffffffffffffffffffffffffffffffffffffffff16603360009054906101000a900473ffffffffffffffffffffffffffffffffffffffff1673ffffffffffffffffffffffffffffffffffffffff167f8be0079c531659141344cd1fd0a4f28419497f9722a3daafe3b4186f6b6457e060405160405180910390a380603360006101000a81548173ffffffffffffffffffffffffffffffffffffffff021916908373ffffffffffffffffffffffffffffffffffffffff1602179055505056fea165627a7a72305820098118779e41130183fa65bb1e7015b7c27ef7ad6191acda0a903e617661de9b0029",
  "source": "pragma solidity ^0.5.0;\nimport \"zos-lib/contracts/Initializable.sol\";\nimport \"openzeppelin-eth/contracts/ownership/Ownable.sol\";\n////////////////////////////////////////////////////////////////////////////////////////////\n/// @title Interface Contract for the CryptoPatent Blockchain\n/// @author DecentraCorp\n/// @notice this contract is built using the Ownership contract from the zeppelin-solidity library\n/// @dev All function calls are currently implement without side effects\n////////////////////////////////////////////////////////////////////////////////////////////\ncontract DecentraCorpPoA {\n  function proxyNTCMint(address _add, uint _amount) external;\n  function proxyNTCBurn(address _add, uint _amount) external;\n  function _addMember(address _mem) external;\n  function _checkIfMember(address _member) public view returns(bool);\n  function increaseMemLev(address _add) external;\n  function setProfileHash(address _add, string memory _hash) public;\n  function getMemberCount() public view returns(uint);\n}\n/// DecentraCorp PoA inteface\n////////////////////////////////////////////////////////////////////////////////////////////\n  contract RelayedOwnedSet {\n    \tfunction addValidator(address _validator) external;\n  }\n/// Validator contract interface\n/////////////////////////////////////////////////////////////////////////////////////////////\ncontract IdeaBlockLogic is Initializable, Ownable {\n\n  DecentraCorpPoA public DCPoA;\n  RelayedOwnedSet public Validators;\n\n  ///@param globalIdeaCount tracks amount of ideas on the CryptoPatent Blockchain\n  ///@param globalBlockHalfTime used to track when the ideaBlockReward should be halved\n  ///@param ideaBlockReward set to 1000 DCPoA\n  ///@param repStake set to 100 DCPoA\n  uint public globalIdeaCount;\n  uint public globalBlockHalfTime;\n  uint public ideaBlockReward;\n  uint public repStake;\n  uint public globalIdeaPropCount;\n  ///@param globalRepCount tracks the total number of replications on the CryptoPatent Blockchain\n  uint public globalRepCount;\n  uint public globalUseBlock;\n\n  ///@param ideaVariables maps a token number to an ideas variables\n  ///@param IdeaAddToId maps an Ideas address to its ID number\n  mapping(uint => IdeaBlock) public ideaVariables;\n  mapping(address => uint) public IdeaAddToId;\n  mapping(uint => IdeaProposal) public ideaProposals;\n  mapping(uint => uint) public weightTracker;\n  mapping(address => uint) public localWeightTracker;\n\n  ///@param ideaRepCounter tracks the total number of replications for a specific idea\n  ///@param repInfo maps a reps address to its information\n  ///@param repOwnes tracks how many of a specific type of replication a replicator owns(this is for pool mining)\n  mapping(uint => uint) public ideaRepCounter;\n  mapping(address => uint) public localMiningtimeTracker;\n  mapping(address => bool) public replications;\n  mapping(address => ReplicationInfo) public repInfo;\n  mapping(address => mapping(uint => uint)) public repOwnes;\n  mapping(string => uint) getHash;\n\n  event IdeaProposed(string IPFS);\n  event NewMember(address member);\n  event IdeaApproved(string IPFS);\n  event Voted(address _voter, bool inSupport);\n  event NewReplication(address _repAdd);\n  event LocalUseWeight(address repAdd, uint repWeight);\n  event GlobalUseBlock(address repAdd, uint ideaId);\n\n\n  ///@struct IdeaProposal stores info of a proposal\n  struct IdeaProposal {\n       string IdeaIPFS;\n       bool executed;\n       bool proposalPassed;\n       Vote[] votes;\n       mapping (address => bool) voted;\n   }\n\n  struct Vote {\n          bool inSupport;\n          address voter;\n  }\n\n\n  ///@struct IdeaBlock is built to store only needed variables to the blockchain, IPFS handles the rest\n  struct IdeaBlock {\n    uint globalUseBlockAmount;\n    uint royalty;\n    uint miningTime;\n    address inventorAddress;\n    address inventionAddress;\n    string IPFShash;\n  }\n  //@struct ReplicationInfo stores replication information\n  struct ReplicationInfo {\n    uint BlockReward;\n    address OwnersAddress;\n    uint IdeaID;\n    uint Royalty;\n    uint RepID;\n    address InventorsAddress;\n    address ReplicationAddress;\n  }\n\n\n  ///@notice generateIdeaBlock is used to generate and ideablock after a community vote\n  ///@dev this function is onlyOwner as atm the CPB is owning itself. In the future\n  ///     this will likely be set to an account that will have special privlidges between this contracts and\n  ///     the ethereum Based DecentraCorp contracts to facilitate crosschain communication\n\n  function generateIdeaBlock(\n    string memory _ideaIPFS,\n    uint  _globalUseBlockAmount,\n    uint _miningTime,\n    uint _royalty,\n    address _inventor,\n    address _invention\n    )\ninternal\n    {\n      globalIdeaCount++;\n      uint _ideaId = globalIdeaCount;\n\n      IdeaBlock memory _info = IdeaBlock({\n        globalUseBlockAmount: uint(_globalUseBlockAmount),\n        royalty: uint(_royalty),\n        miningTime: uint(_miningTime),\n        inventorAddress: address(_inventor),\n        inventionAddress: address(_invention),\n        IPFShash: string(_ideaIPFS)\n        });\n\n        IdeaAddToId[_invention] = _ideaId;\n        ideaVariables[_ideaId] = _info;\n        Validators.addValidator(_invention);\n        ideaBlockTimeLord();\n        DCPoA.proxyNTCMint( _inventor, ideaBlockReward);\n        if(DCPoA._checkIfMember(_inventor) != true){\n          DCPoA._addMember(_inventor);\n        }\n        //mints 1000 DCPoA and sends it to the inventor\n        DCPoA.increaseMemLev(_inventor);\n\n    }\n\n  ///@notice ideaBlockTimeLord is called to half an ideablock reward every two years\n  ///@dev this time may need to be adjusted to 4 years depending on predicted inflation patterns of DCPoA\n    function ideaBlockTimeLord() internal returns(uint){\n      if(now >= globalBlockHalfTime + 94670778) {\n        ideaBlockReward = ideaBlockReward / 2;\n        globalBlockHalfTime = now;\n        return ideaBlockReward;\n        }else{\n        return ideaBlockReward;\n      }\n    }\n    ///@notice set_Quorum is an internal function used by proposal vote counts to see if the community approves\n    ///@dev quorum is set to 60%\n      function percent(uint numerator, uint denominator, uint precision) internal pure returns(uint quotient) {\n             // caution, check safe-to-multiply here\n              uint _numerator  = numerator * 10 ** (precision+1);\n            // with rounding of last digit\n              uint _quotient =  ((_numerator / denominator) + 5) / 10;\n              return ( _quotient);\n            }\n\n      function set_Quorum(uint numOfvotes, uint numOfmem) internal pure returns(bool) {\n                uint percOfMemVoted = percent(numOfvotes, numOfmem, 2 );\n                 if(percOfMemVoted >= 60) {\n                     return true;\n                 } else {\n                     return false;\n                 }\n              }\n\n}\n",
  "sourcePath": "/home/stan36/repos/DecentraCorp/contracts/CryptoPatent/IdeaBlockLogic.sol",
  "compiler": {
    "name": "solc",
    "version": "0.5.0+commit.1d4f565a.Emscripten.clang"
  },
  "schemaVersion": "3.0.2",
  "updatedAt": "2019-04-02T03:59:36.826Z",
  "devdoc": {
    "methods": {
      "initialize(address)": {
        "details": "The Ownable constructor sets the original `owner` of the contract to the sender account."
      },
      "isOwner()": {
        "return": "true if `msg.sender` is the owner of the contract."
      },
      "owner()": {
        "return": "the address of the owner."
      },
      "renounceOwnership()": {
        "details": "Allows the current owner to relinquish control of the contract."
      },
      "transferOwnership(address)": {
        "details": "Allows the current owner to transfer control of the contract to a newOwner.",
        "params": {
          "newOwner": "The address to transfer ownership to."
        }
      }
    }
  },
  "userdoc": {
    "methods": {
      "renounceOwnership()": {
        "notice": "Renouncing to ownership will leave the contract without an owner. It will not be possible to call the functions with the `onlyOwner` modifier anymore."
      }
    },
    "notice": "Validator contract interface //////////////////////////////////////////////////////////////////////////////////////////"
  }
}