{
  "contractName": "Interface",
  "abi": [
    {
      "constant": true,
      "inputs": [
        {
          "name": "",
          "type": "uint256"
        }
      ],
      "name": "proposals",
      "outputs": [
        {
          "name": "IdeaIPFS",
          "type": "string"
        },
        {
          "name": "executed",
          "type": "bool"
        },
        {
          "name": "proposalPassed",
          "type": "bool"
        },
        {
          "name": "numberOfVotes",
          "type": "uint256"
        }
      ],
      "payable": false,
      "stateMutability": "view",
      "type": "function"
    },
    {
      "constant": true,
      "inputs": [],
      "name": "ideaBlockReward",
      "outputs": [
        {
          "name": "",
          "type": "uint256"
        }
      ],
      "payable": false,
      "stateMutability": "view",
      "type": "function"
    },
    {
      "constant": true,
      "inputs": [],
      "name": "globalBlockHalfTime",
      "outputs": [
        {
          "name": "",
          "type": "uint256"
        }
      ],
      "payable": false,
      "stateMutability": "view",
      "type": "function"
    },
    {
      "constant": true,
      "inputs": [],
      "name": "CPBG",
      "outputs": [
        {
          "name": "",
          "type": "address"
        }
      ],
      "payable": false,
      "stateMutability": "view",
      "type": "function"
    },
    {
      "constant": true,
      "inputs": [],
      "name": "globalIdeaCount",
      "outputs": [
        {
          "name": "",
          "type": "uint256"
        }
      ],
      "payable": false,
      "stateMutability": "view",
      "type": "function"
    },
    {
      "constant": true,
      "inputs": [],
      "name": "IDC",
      "outputs": [
        {
          "name": "",
          "type": "address"
        }
      ],
      "payable": false,
      "stateMutability": "view",
      "type": "function"
    },
    {
      "constant": false,
      "inputs": [],
      "name": "renounceOwnership",
      "outputs": [],
      "payable": false,
      "stateMutability": "nonpayable",
      "type": "function"
    },
    {
      "constant": true,
      "inputs": [],
      "name": "globalUseBlock",
      "outputs": [
        {
          "name": "",
          "type": "uint256"
        }
      ],
      "payable": false,
      "stateMutability": "view",
      "type": "function"
    },
    {
      "constant": true,
      "inputs": [],
      "name": "minimumQuorum",
      "outputs": [
        {
          "name": "",
          "type": "uint256"
        }
      ],
      "payable": false,
      "stateMutability": "view",
      "type": "function"
    },
    {
      "constant": true,
      "inputs": [],
      "name": "owner",
      "outputs": [
        {
          "name": "",
          "type": "address"
        }
      ],
      "payable": false,
      "stateMutability": "view",
      "type": "function"
    },
    {
      "constant": true,
      "inputs": [],
      "name": "repStake",
      "outputs": [
        {
          "name": "",
          "type": "uint256"
        }
      ],
      "payable": false,
      "stateMutability": "view",
      "type": "function"
    },
    {
      "constant": true,
      "inputs": [],
      "name": "globalRepCount",
      "outputs": [
        {
          "name": "",
          "type": "uint256"
        }
      ],
      "payable": false,
      "stateMutability": "view",
      "type": "function"
    },
    {
      "constant": true,
      "inputs": [],
      "name": "DCPoA",
      "outputs": [
        {
          "name": "",
          "type": "address"
        }
      ],
      "payable": false,
      "stateMutability": "view",
      "type": "function"
    },
    {
      "constant": false,
      "inputs": [
        {
          "name": "_newOwner",
          "type": "address"
        }
      ],
      "name": "transferOwnership",
      "outputs": [],
      "payable": false,
      "stateMutability": "nonpayable",
      "type": "function"
    },
    {
      "constant": true,
      "inputs": [],
      "name": "Validators",
      "outputs": [
        {
          "name": "",
          "type": "address"
        }
      ],
      "payable": false,
      "stateMutability": "view",
      "type": "function"
    },
    {
      "anonymous": false,
      "inputs": [
        {
          "indexed": false,
          "name": "IdeaHash",
          "type": "string"
        }
      ],
      "name": "IdeaProposed",
      "type": "event"
    },
    {
      "anonymous": false,
      "inputs": [
        {
          "indexed": false,
          "name": "_ideahash",
          "type": "string"
        }
      ],
      "name": "IdeaApproved",
      "type": "event"
    },
    {
      "anonymous": false,
      "inputs": [
        {
          "indexed": false,
          "name": "_voter",
          "type": "address"
        },
        {
          "indexed": false,
          "name": "inSupport",
          "type": "bool"
        }
      ],
      "name": "Voted",
      "type": "event"
    },
    {
      "anonymous": false,
      "inputs": [
        {
          "indexed": false,
          "name": "member",
          "type": "address"
        }
      ],
      "name": "NewMember",
      "type": "event"
    },
    {
      "anonymous": false,
      "inputs": [
        {
          "indexed": false,
          "name": "_repAdd",
          "type": "address"
        }
      ],
      "name": "NewReplication",
      "type": "event"
    },
    {
      "anonymous": false,
      "inputs": [
        {
          "indexed": false,
          "name": "updatedAccount",
          "type": "address"
        }
      ],
      "name": "ProfileUpdated",
      "type": "event"
    },
    {
      "anonymous": false,
      "inputs": [
        {
          "indexed": false,
          "name": "repAdd",
          "type": "address"
        },
        {
          "indexed": false,
          "name": "repWeight",
          "type": "uint256"
        }
      ],
      "name": "LocalUseWeight",
      "type": "event"
    },
    {
      "anonymous": false,
      "inputs": [
        {
          "indexed": false,
          "name": "repAdd",
          "type": "address"
        },
        {
          "indexed": false,
          "name": "ideaId",
          "type": "uint256"
        }
      ],
      "name": "GlobalUseBlock",
      "type": "event"
    },
    {
      "anonymous": false,
      "inputs": [
        {
          "indexed": true,
          "name": "previousOwner",
          "type": "address"
        }
      ],
      "name": "OwnershipRenounced",
      "type": "event"
    },
    {
      "anonymous": false,
      "inputs": [
        {
          "indexed": true,
          "name": "previousOwner",
          "type": "address"
        },
        {
          "indexed": true,
          "name": "newOwner",
          "type": "address"
        }
      ],
      "name": "OwnershipTransferred",
      "type": "event"
    },
    {
      "constant": false,
      "inputs": [
        {
          "name": "_hash",
          "type": "string"
        }
      ],
      "name": "buyMembership",
      "outputs": [],
      "payable": true,
      "stateMutability": "payable",
      "type": "function"
    },
    {
      "constant": false,
      "inputs": [
        {
          "name": "_dcpoa",
          "type": "address"
        },
        {
          "name": "_IDC",
          "type": "address"
        },
        {
          "name": "_CPBG",
          "type": "address"
        }
      ],
      "name": "setGenerators",
      "outputs": [],
      "payable": false,
      "stateMutability": "nonpayable",
      "type": "function"
    },
    {
      "constant": true,
      "inputs": [
        {
          "name": "_member",
          "type": "address"
        }
      ],
      "name": "checkIfMember",
      "outputs": [
        {
          "name": "",
          "type": "bool"
        }
      ],
      "payable": false,
      "stateMutability": "view",
      "type": "function"
    },
    {
      "constant": false,
      "inputs": [
        {
          "name": "_newHash",
          "type": "string"
        }
      ],
      "name": "updateProfile",
      "outputs": [],
      "payable": false,
      "stateMutability": "nonpayable",
      "type": "function"
    },
    {
      "constant": true,
      "inputs": [
        {
          "name": "hash",
          "type": "string"
        }
      ],
      "name": "getPropID",
      "outputs": [
        {
          "name": "",
          "type": "uint256"
        }
      ],
      "payable": false,
      "stateMutability": "view",
      "type": "function"
    },
    {
      "constant": false,
      "inputs": [
        {
          "name": "_hash",
          "type": "string"
        }
      ],
      "name": "stakeReplicatorWallet",
      "outputs": [],
      "payable": false,
      "stateMutability": "nonpayable",
      "type": "function"
    },
    {
      "constant": true,
      "inputs": [],
      "name": "getIdeasOwner",
      "outputs": [
        {
          "name": "",
          "type": "uint256[]"
        }
      ],
      "payable": false,
      "stateMutability": "view",
      "type": "function"
    },
    {
      "constant": false,
      "inputs": [
        {
          "name": "_valCon",
          "type": "address"
        }
      ],
      "name": "setValidatorContract",
      "outputs": [],
      "payable": false,
      "stateMutability": "nonpayable",
      "type": "function"
    }
  ],
  "bytecode": "0x6080604052683635c9adc5dea0000060095568056bc75e2d63100000600a55336000806101000a81548173ffffffffffffffffffffffffffffffffffffffff021916908373ffffffffffffffffffffffffffffffffffffffff160217905550611a6b8061006d6000396000f300608060405260043610610132576000357c0100000000000000000000000000000000000000000000000000000000900463ffffffff1680629299e314610137578063013cf08b146101a057806310734e43146102635780631ccb3405146102e05780631ddc883b1461034957806328a6e47c146103745780633c91f2731461039f57806348b98958146103f65780634951f6aa146104525780634cfa2409146104ad57806352d2c11d146104d85780636da23e401461052f578063715018a6146105b257806375824974146105c95780638160f0b5146105f45780638da5cb5b1461061f5780639f7d892914610676578063be6cbbcf146106a1578063cdf64a76146106cc578063daeac7b91461070f578063e026daa11461077b578063f2fde38b146107d2578063f691977414610815575b600080fd5b34801561014357600080fd5b5061019e600480360381019080803590602001908201803590602001908080601f016020809104026020016040519081016040528093929190818152602001838380828437820191505050505050919291929050505061086c565b005b3480156101ac57600080fd5b506101cb60048036038101908080359060200190929190505050610a14565b60405180806020018515151515815260200184151515158152602001838152602001828103825286818151815260200191508051906020019080838360005b8381101561022557808201518184015260208101905061020a565b50505050905090810190601f1680156102525780820380516001836020036101000a031916815260200191505b509550505050505060405180910390f35b34801561026f57600080fd5b506102ca600480360381019080803590602001908201803590602001908080601f0160208091040260200160405190810160405280939291908181526020018383808284378201915050505050509192919290505050610b05565b6040518082815260200191505060405180910390f35b3480156102ec57600080fd5b50610347600480360381019080803590602001908201803590602001908080601f0160208091040260200160405190810160405280939291908181526020018383808284378201915050505050509192919290505050610b7a565b005b34801561035557600080fd5b5061035e610fec565b6040518082815260200191505060405180910390f35b34801561038057600080fd5b50610389610ff2565b6040518082815260200191505060405180910390f35b3480156103ab57600080fd5b506103b4610ff8565b604051808273ffffffffffffffffffffffffffffffffffffffff1673ffffffffffffffffffffffffffffffffffffffff16815260200191505060405180910390f35b610450600480360381019080803590602001908201803590602001908080601f016020809104026020016040519081016040528093929190818152602001838380828437820191505050505050919291929050505061101e565b005b34801561045e57600080fd5b50610493600480360381019080803573ffffffffffffffffffffffffffffffffffffffff1690602001909291905050506112e3565b604051808215151515815260200191505060405180910390f35b3480156104b957600080fd5b506104c26113f8565b6040518082815260200191505060405180910390f35b3480156104e457600080fd5b506104ed6113fe565b604051808273ffffffffffffffffffffffffffffffffffffffff1673ffffffffffffffffffffffffffffffffffffffff16815260200191505060405180910390f35b34801561053b57600080fd5b506105b0600480360381019080803573ffffffffffffffffffffffffffffffffffffffff169060200190929190803573ffffffffffffffffffffffffffffffffffffffff169060200190929190803573ffffffffffffffffffffffffffffffffffffffff169060200190929190505050611424565b005b3480156105be57600080fd5b506105c7611547565b005b3480156105d557600080fd5b506105de611649565b6040518082815260200191505060405180910390f35b34801561060057600080fd5b5061060961164f565b6040518082815260200191505060405180910390f35b34801561062b57600080fd5b50610634611655565b604051808273ffffffffffffffffffffffffffffffffffffffff1673ffffffffffffffffffffffffffffffffffffffff16815260200191505060405180910390f35b34801561068257600080fd5b5061068b61167a565b6040518082815260200191505060405180910390f35b3480156106ad57600080fd5b506106b6611680565b6040518082815260200191505060405180910390f35b3480156106d857600080fd5b5061070d600480360381019080803573ffffffffffffffffffffffffffffffffffffffff169060200190929190505050611686565b005b34801561071b57600080fd5b50610724611725565b6040518080602001828103825283818151815260200191508051906020019060200280838360005b8381101561076757808201518184015260208101905061074c565b505050509050019250505060405180910390f35b34801561078757600080fd5b506107906117ba565b604051808273ffffffffffffffffffffffffffffffffffffffff1673ffffffffffffffffffffffffffffffffffffffff16815260200191505060405180910390f35b3480156107de57600080fd5b50610813600480360381019080803573ffffffffffffffffffffffffffffffffffffffff1690602001909291905050506117e0565b005b34801561082157600080fd5b5061082a611847565b604051808273ffffffffffffffffffffffffffffffffffffffff1673ffffffffffffffffffffffffffffffffffffffff16815260200191505060405180910390f35b600260009054906101000a900473ffffffffffffffffffffffffffffffffffffffff1673ffffffffffffffffffffffffffffffffffffffff1663afa879d133836040518363ffffffff167c0100000000000000000000000000000000000000000000000000000000028152600401808373ffffffffffffffffffffffffffffffffffffffff1673ffffffffffffffffffffffffffffffffffffffff16815260200180602001828103825283818151815260200191508051906020019080838360005b8381101561094957808201518184015260208101905061092e565b50505050905090810190601f1680156109765780820380516001836020036101000a031916815260200191505b509350505050600060405180830381600087803b15801561099657600080fd5b505af11580156109aa573d6000803e3d6000fd5b505050507fbe4ec58a792f909e102ee3d745d0c3b34a4d437a54d903c4db098d31c556422f33604051808273ffffffffffffffffffffffffffffffffffffffff1673ffffffffffffffffffffffffffffffffffffffff16815260200191505060405180910390a150565b600c81815481101515610a2357fe5b9060005260206000209060050201600091509050806000018054600181600116156101000203166002900480601f016020809104026020016040519081016040528092919081815260200182805460018160011615610100020316600290048015610acf5780601f10610aa457610100808354040283529160200191610acf565b820191906000526020600020905b815481529060010190602001808311610ab257829003601f168201915b5050505050908060010160009054906101000a900460ff16908060010160019054906101000a900460ff16908060020154905084565b6000600f826040518082805190602001908083835b602083101515610b3f5780518252602082019150602081019050602083039250610b1a565b6001836020036101000a0380198251168184511680821785525050505050509050019150509081526020016040518091039020549050919050565b68056bc75e2d63100000600160009054906101000a900473ffffffffffffffffffffffffffffffffffffffff1673ffffffffffffffffffffffffffffffffffffffff166370a08231336040518263ffffffff167c0100000000000000000000000000000000000000000000000000000000028152600401808273ffffffffffffffffffffffffffffffffffffffff1673ffffffffffffffffffffffffffffffffffffffff168152602001915050602060405180830381600087803b158015610c4157600080fd5b505af1158015610c55573d6000803e3d6000fd5b505050506040513d6020811015610c6b57600080fd5b810190808051906020019092919050505010151515610c8957600080fd5b600260009054906101000a900473ffffffffffffffffffffffffffffffffffffffff1673ffffffffffffffffffffffffffffffffffffffff16637130c2413368056bc75e2d631000006040518363ffffffff167c0100000000000000000000000000000000000000000000000000000000028152600401808373ffffffffffffffffffffffffffffffffffffffff1673ffffffffffffffffffffffffffffffffffffffff16815260200182815260200192505050600060405180830381600087803b158015610d5757600080fd5b505af1158015610d6b573d6000803e3d6000fd5b50505050600260009054906101000a900473ffffffffffffffffffffffffffffffffffffffff1673ffffffffffffffffffffffffffffffffffffffff16631d40bbcf336040518263ffffffff167c0100000000000000000000000000000000000000000000000000000000028152600401808273ffffffffffffffffffffffffffffffffffffffff1673ffffffffffffffffffffffffffffffffffffffff168152602001915050600060405180830381600087803b158015610e2c57600080fd5b505af1158015610e40573d6000803e3d6000fd5b50505050600260009054906101000a900473ffffffffffffffffffffffffffffffffffffffff1673ffffffffffffffffffffffffffffffffffffffff1663afa879d133836040518363ffffffff167c0100000000000000000000000000000000000000000000000000000000028152600401808373ffffffffffffffffffffffffffffffffffffffff1673ffffffffffffffffffffffffffffffffffffffff16815260200180602001828103825283818151815260200191508051906020019080838360005b83811015610f21578082015181840152602081019050610f06565b50505050905090810190601f168015610f4e5780820380516001836020036101000a031916815260200191505b509350505050600060405180830381600087803b158015610f6e57600080fd5b505af1158015610f82573d6000803e3d6000fd5b505050507fb4dcb6dd550f27b5917ebf674899ea7046ff91790c6f9f01431617ad39819db233604051808273ffffffffffffffffffffffffffffffffffffffff1673ffffffffffffffffffffffffffffffffffffffff16815260200191505060405180910390a150565b60095481565b60085481565b600360009054906101000a900473ffffffffffffffffffffffffffffffffffffffff1681565b62f0c8a060085401421115151561103457600080fd5b670de0b6b3a7640000341015151561104b57600080fd5b6110543361186d565b600260009054906101000a900473ffffffffffffffffffffffffffffffffffffffff1673ffffffffffffffffffffffffffffffffffffffff1663afa879d133836040518363ffffffff167c0100000000000000000000000000000000000000000000000000000000028152600401808373ffffffffffffffffffffffffffffffffffffffff1673ffffffffffffffffffffffffffffffffffffffff16815260200180602001828103825283818151815260200191508051906020019080838360005b83811015611131578082015181840152602081019050611116565b50505050905090810190601f16801561115e5780820380516001836020036101000a031916815260200191505b509350505050600060405180830381600087803b15801561117e57600080fd5b505af1158015611192573d6000803e3d6000fd5b50505050600260009054906101000a900473ffffffffffffffffffffffffffffffffffffffff1673ffffffffffffffffffffffffffffffffffffffff1663d82f980b3369021e19e0c9bab24000006040518363ffffffff167c0100000000000000000000000000000000000000000000000000000000028152600401808373ffffffffffffffffffffffffffffffffffffffff1673ffffffffffffffffffffffffffffffffffffffff16815260200182815260200192505050600060405180830381600087803b15801561126557600080fd5b505af1158015611279573d6000803e3d6000fd5b505050507fb4dcb6dd550f27b5917ebf674899ea7046ff91790c6f9f01431617ad39819db233604051808273ffffffffffffffffffffffffffffffffffffffff1673ffffffffffffffffffffffffffffffffffffffff16815260200191505060405180910390a150565b600060011515600260009054906101000a900473ffffffffffffffffffffffffffffffffffffffff1673ffffffffffffffffffffffffffffffffffffffff1663aaa746bb846040518263ffffffff167c0100000000000000000000000000000000000000000000000000000000028152600401808273ffffffffffffffffffffffffffffffffffffffff1673ffffffffffffffffffffffffffffffffffffffff168152602001915050602060405180830381600087803b1580156113a657600080fd5b505af11580156113ba573d6000803e3d6000fd5b505050506040513d60208110156113d057600080fd5b8101908080519060200190929190505050151514156113f257600190506113f3565b5b919050565b60055481565b600160009054906101000a900473ffffffffffffffffffffffffffffffffffffffff1681565b6000809054906101000a900473ffffffffffffffffffffffffffffffffffffffff1673ffffffffffffffffffffffffffffffffffffffff163373ffffffffffffffffffffffffffffffffffffffff1614151561147f57600080fd5b82600260006101000a81548173ffffffffffffffffffffffffffffffffffffffff021916908373ffffffffffffffffffffffffffffffffffffffff16021790555081600160006101000a81548173ffffffffffffffffffffffffffffffffffffffff021916908373ffffffffffffffffffffffffffffffffffffffff16021790555080600360006101000a81548173ffffffffffffffffffffffffffffffffffffffff021916908373ffffffffffffffffffffffffffffffffffffffff160217905550505050565b6000809054906101000a900473ffffffffffffffffffffffffffffffffffffffff1673ffffffffffffffffffffffffffffffffffffffff163373ffffffffffffffffffffffffffffffffffffffff161415156115a257600080fd5b6000809054906101000a900473ffffffffffffffffffffffffffffffffffffffff1673ffffffffffffffffffffffffffffffffffffffff167ff8df31144d9c2f0f6b59d69b8b98abd5459d07f2742c4df920b25aae33c6482060405160405180910390a260008060006101000a81548173ffffffffffffffffffffffffffffffffffffffff021916908373ffffffffffffffffffffffffffffffffffffffff160217905550565b60075481565b600b5481565b6000809054906101000a900473ffffffffffffffffffffffffffffffffffffffff1681565b600a5481565b60065481565b6000809054906101000a900473ffffffffffffffffffffffffffffffffffffffff1673ffffffffffffffffffffffffffffffffffffffff163373ffffffffffffffffffffffffffffffffffffffff161415156116e157600080fd5b80600460006101000a81548173ffffffffffffffffffffffffffffffffffffffff021916908373ffffffffffffffffffffffffffffffffffffffff16021790555050565b6060601060003373ffffffffffffffffffffffffffffffffffffffff1673ffffffffffffffffffffffffffffffffffffffff1681526020019081526020016000208054806020026020016040519081016040528092919081815260200182805480156117b057602002820191906000526020600020905b81548152602001906001019080831161179c575b5050505050905090565b600260009054906101000a900473ffffffffffffffffffffffffffffffffffffffff1681565b6000809054906101000a900473ffffffffffffffffffffffffffffffffffffffff1673ffffffffffffffffffffffffffffffffffffffff163373ffffffffffffffffffffffffffffffffffffffff1614151561183b57600080fd5b61184481611945565b50565b600460009054906101000a900473ffffffffffffffffffffffffffffffffffffffff1681565b600260009054906101000a900473ffffffffffffffffffffffffffffffffffffffff1673ffffffffffffffffffffffffffffffffffffffff16631d40bbcf826040518263ffffffff167c0100000000000000000000000000000000000000000000000000000000028152600401808273ffffffffffffffffffffffffffffffffffffffff1673ffffffffffffffffffffffffffffffffffffffff168152602001915050600060405180830381600087803b15801561192a57600080fd5b505af115801561193e573d6000803e3d6000fd5b5050505050565b600073ffffffffffffffffffffffffffffffffffffffff168173ffffffffffffffffffffffffffffffffffffffff161415151561198157600080fd5b8073ffffffffffffffffffffffffffffffffffffffff166000809054906101000a900473ffffffffffffffffffffffffffffffffffffffff1673ffffffffffffffffffffffffffffffffffffffff167f8be0079c531659141344cd1fd0a4f28419497f9722a3daafe3b4186f6b6457e060405160405180910390a3806000806101000a81548173ffffffffffffffffffffffffffffffffffffffff021916908373ffffffffffffffffffffffffffffffffffffffff160217905550505600a165627a7a72305820c9857536ce75930524417102ac2920efdd0cc59d61ecd69f52cdb16f30c977b30029",
  "source": "pragma solidity ^0.4.21;\nimport \"zeppelin-solidity/contracts/ownership/Ownable.sol\";\n////////////////////////////////////////////////////////////////////////////////////////////\n/// @title Interface Contract for the CryptoPatent Blockchain\n/// @author DecentraCorp\n/// @notice this contract is built using the Ownership contract from the zeppelin-solidity library\n/// @dev All function calls are currently implement without side effects\n////////////////////////////////////////////////////////////////////////////////////////////\ncontract DecentraCorpPoA {\n  function proxyIDCMint(address _add, uint _amount) external;\n  function proxyIDCBurn(address _add, uint _amount) external;\n  function proxyCCMint(address _add, uint _amount) external;\n  function proxyCCBurn(address _add, uint _amount) external;\n  function generateIdeaBlock(string _ideaIPFS, uint _globalUseBlockAmount, uint miningTime, uint _royalty, address _inventorsAddress, address _invention) external;\n  function replicationBlock(uint _ideaId, address _repAdd, address _replicatorAdd) external;\n  function generateGUSBlock(address _replicationOwner) external;\n  function _addMember(address _mem) external;\n  function _checkIfMember(address _member) public view returns(bool);\n  function getMemberCount() public view returns(uint);\n  function increaseMemLev(address _add) external;\n  function increaseFacilityRank(address _facAdd, uint _amount) public;\n  function setProfileHash(address _add, string _hash) public;\n  function addNewInvention(address _newInvention) external ;\n}\n/// DecentraCorp PoA inteface\n////////////////////////////////////////////////////////////////////////////////////////////\ncontract IdeaCoin {\n    function balanceOf(address _addr) public constant returns (uint);\n    function totalSupply() public constant returns (uint);\n}\n/// IdeaCoin interface\n/////////////////////////////////////////////////////////////////////////////////////////////\ncontract CryptoPatentBlockGenerator {\n    function balanceOf(address _owner) public view returns (uint256);\n    function getGlobalUseBlockAmount(uint _ideaId) public view returns(uint);\n    function getRoyalty(uint _ideaId) public view returns(uint);\n    function getInventor(uint _ideaId) public view returns(address);\n    function getIdeaMiningTime(uint _ideaId) public view returns(uint);\n    function getBlockReward(address _repAdd) public view returns(uint);\n    function getOwnersAddress(address _repAdd) public view returns(address);\n    function getIdeaID(address _repAdd) public view returns(uint);\n    function getInventorsAddress(address _repAdd) public view returns(address);\n    function getReplicationAddress(address _repAdd) public view returns(address);\n    function getRoyalty(address _repAdd) public view returns(uint);\n    function getRepID(address _repAdd) public view returns(uint);\n    function checkIfRep(address _add) external view returns(bool);\n    function getNumOfReps(address _add, uint _ideaId) external view returns(uint);\n    function getRepTotal(uint _ideaId) external view returns(uint);\n    function safeTransfer(address _from, address _to, uint _tokenId) public;\n    function setRepMiningTime(address _repAdd) external;\n\n}\n/// Block Generator interface\n/////////////////////////////////////////////////////////////////////////////////////////////\n  contract RelayedOwnedSet {\n    \tfunction addValidator(address _validator) external;\n  }\n/// Validator contract interface\n/////////////////////////////////////////////////////////////////////////////////////////////\n\n/// @author Christopher Dixon\n/// @notice contract Interface is the first contract in the CryptoPatent Blockchain\n/// @dev this contract is ment to set up the needed global variables as well as house various membership related functions\n/// @dev for whatever reason, having the membership logic in the DCPoA contract causes truffle not to deploy properly(gas) remix works fine\ncontract Interface is Ownable {\n  IdeaCoin public IDC;\n  DecentraCorpPoA public DCPoA;\n  CryptoPatentBlockGenerator public CPBG;\n  RelayedOwnedSet public Validators;\n  ///@param above turn each interface into a useable variable\n\n  ///@param globalIdeaCount tracks amount of ideas on the CryptoPatent Blockchain\n  ///@param globalRepCount tracks the total number of replications on the CryptoPatent Blockchain\n  ///@param memberCount tracks the total number of CryptoGrow members\n  ///@param globalUseBlock tracks global use blocks\n  ///@param globalBlockHalfTime used to track when the ideaBlockReward should be halved\n  ///@param ideaBlockReward set to 1000 IDC\n  ///@param repStake set to 100 IDC\n  ///@param minimumQuorum used to  track quorum info\n  uint public globalIdeaCount;\n  uint public globalRepCount;\n  uint public globalUseBlock;\n  uint public globalBlockHalfTime;\n  uint public ideaBlockReward = 1000000000000000000000;\n  uint public repStake = 100000000000000000000;\n  uint public minimumQuorum;\n\n  ///@param IdeaProposal array of idea proposals\n  IdeaProposal[] public proposals;\n\n\n  ///@param weightTracker tracks current global highest weight\n  ///@param localWeightTracker maps a replications address to its replication ID and stores that replications current weight\n  ///@param members tracks if an address is a member\n  ///@param memberRank tracks a members rank\n  ///@param getHash maps ipfs hash to its token ID\n  mapping (uint => uint) weightTracker;\n  mapping (address => mapping (uint => uint)) localWeightTracker;\n  mapping(string => uint) getHash;\n  mapping(address => uint[]) getTokens;\n  mapping(address => bool) inventions;\n  mapping(address => uint) localMiningtimeTracker;\n\n\n  event IdeaProposed(string IdeaHash);\n  event IdeaApproved(string _ideahash);\n  event Voted(address _voter, bool inSupport);\n  event NewMember(address member);\n  event NewReplication(address _repAdd);\n  event ProfileUpdated(address updatedAccount);\n  event LocalUseWeight(address repAdd, uint repWeight);\n  event GlobalUseBlock(address repAdd, uint ideaId);\n\n///@struct IdeaProposal stores info of a proposal\nstruct IdeaProposal {\n     string IdeaIPFS;\n     bool executed;\n     bool proposalPassed;\n     uint numberOfVotes;\n     Vote[] votes;\n     mapping (address => bool) voted;\n }\n //@struct Vote stores an individuals vote in an array in an Idea Proposal\n  struct Vote {\n          bool inSupport;\n          address voter;\n  }\n\n\n\n\n//@modifier requires that the address calling a function is a member of DecentraCorp\n  modifier onlyMember() {\n    require(checkIfMember(msg.sender) == true);\n    _;\n  }\n\n///@notice calculatePromo function calculates the promotion a miner receives for having multiples of the same type of replication\n///@dev calculatePromo takes in a block Reward and an idea ID to retun a specific block reward\n  function calculatePromo(uint _blockReward, uint _ideaId) internal view returns(uint) {\n    uint numberOfReps =  CPBG.getNumOfReps( msg.sender,  _ideaId);\n    uint tenthReward = (_blockReward/ 10);\n    uint modulator = tenthReward * numberOfReps;\n    uint blockReward = _blockReward + modulator;\n    return blockReward;\n  }\n\n///@notice addMember function is an internal function for adding a member to decentracorp\n///@dev addMember takes in an address _mem, sets its membership to true and increments their rank by one\n  function addMember(address _mem) internal {\n    DCPoA._addMember(_mem);\n  }\n\n///@notice buyMembership function allows for the purchase of a membership for 6 months after official launch.\n///@dev mints the user 10,000 IDC\n  function buyMembership(string _hash) public payable{\n    require(now <= globalBlockHalfTime + 15780000 seconds);\n    require(msg.value >= 1 ether);\n    addMember(msg.sender);\n    DCPoA.setProfileHash(msg.sender, _hash);\n    DCPoA.proxyIDCMint(msg.sender, 10000000000000000000000);\n    emit NewMember(msg.sender);\n  }\n\n///@notice setGenerators function takes in addresses of various contracts the CryptoPatent Blockchain inteacts with\n///@dev setGenerators takes in these addresses automagically through truffle migrations\n  function setGenerators(\n    DecentraCorpPoA _dcpoa,\n    IdeaCoin _IDC,\n    CryptoPatentBlockGenerator  _CPBG\n    )\n    public\n    onlyOwner\n    {\n      DCPoA = DecentraCorpPoA(_dcpoa);\n      IDC = IdeaCoin(_IDC);\n      CPBG =(_CPBG);\n    }\n\n\n///@notice checkIfMember function allowsother contracts/front end to check if an address is a member\n///@dev checkIfMember takes in\nfunction checkIfMember(address _member) public view returns(bool) {\n  if( DCPoA._checkIfMember( _member) == true ) {\n    return true;\n  }\n}\n\nfunction updateProfile(string _newHash) public {\n    DCPoA.setProfileHash(msg.sender, _newHash);\n    emit ProfileUpdated(msg.sender);\n}\n\n  ///@notice getPropID function allows one to rerieve a proposal ID by its ipfs hash\n  ///@dev getPropID is made for easier front end interaction\n  function getPropID(string hash) public view returns(uint){\n    return getHash[hash];\n  }\n\n///@notice stakeReplicatorWallet function allows for the activation of a replication wallet by\n///        burning IdeaCoin from the msg.sender\n///@dev stakeReplicatorWallet costs 100 IDC and burns them from existence\n  function stakeReplicatorWallet(string _hash) public {\n    require(IDC.balanceOf(msg.sender) >= 100000000000000000000);\n    DCPoA.proxyIDCBurn(msg.sender, 100000000000000000000);\n    DCPoA._addMember(msg.sender);\n    DCPoA.setProfileHash(msg.sender, _hash);\n    emit NewMember(msg.sender);\n  }\n\n///@notice getIdeasOwner function returns what tokens the msg.sender owns\n///@dev getIdeasOwner returns an array of uints\n  function getIdeasOwner() public view returns(uint[]){\n    return getTokens[msg.sender];\n  }\n\n  function setValidatorContract(address _valCon) public onlyOwner {\n        Validators = RelayedOwnedSet(_valCon);\n  }\n}\n",
  "sourcePath": "/home/stan36/repos/DecentraCorp/contracts/CryptoPatent/Interface.sol",
  "compiler": {
    "name": "solc",
    "version": "0.4.24+commit.e67f0147.Emscripten.clang"
  },
  "schemaVersion": "2.0.1",
  "updatedAt": "2019-02-08T01:10:38.266Z"
}