{
  "contractName": "Interface",
  "abi": [
    {
      "constant": true,
      "inputs": [],
      "name": "GUBG",
      "outputs": [
        {
          "name": "",
          "type": "address"
        }
      ],
      "payable": false,
      "stateMutability": "view",
      "type": "function"
    },
    {
      "constant": true,
      "inputs": [
        {
          "name": "",
          "type": "uint256"
        }
      ],
      "name": "proposals",
      "outputs": [
        {
          "name": "IdeaIPFS",
          "type": "string"
        },
        {
          "name": "executed",
          "type": "bool"
        },
        {
          "name": "proposalPassed",
          "type": "bool"
        },
        {
          "name": "numberOfVotes",
          "type": "uint256"
        }
      ],
      "payable": false,
      "stateMutability": "view",
      "type": "function"
    },
    {
      "constant": true,
      "inputs": [],
      "name": "memberCount",
      "outputs": [
        {
          "name": "",
          "type": "uint256"
        }
      ],
      "payable": false,
      "stateMutability": "view",
      "type": "function"
    },
    {
      "constant": true,
      "inputs": [],
      "name": "ideaBlockReward",
      "outputs": [
        {
          "name": "",
          "type": "uint256"
        }
      ],
      "payable": false,
      "stateMutability": "view",
      "type": "function"
    },
    {
      "constant": true,
      "inputs": [],
      "name": "globalBlockHalfTime",
      "outputs": [
        {
          "name": "",
          "type": "uint256"
        }
      ],
      "payable": false,
      "stateMutability": "view",
      "type": "function"
    },
    {
      "constant": true,
      "inputs": [],
      "name": "globalIdeaCount",
      "outputs": [
        {
          "name": "",
          "type": "uint256"
        }
      ],
      "payable": false,
      "stateMutability": "view",
      "type": "function"
    },
    {
      "constant": true,
      "inputs": [],
      "name": "IDC",
      "outputs": [
        {
          "name": "",
          "type": "address"
        }
      ],
      "payable": false,
      "stateMutability": "view",
      "type": "function"
    },
    {
      "constant": false,
      "inputs": [],
      "name": "renounceOwnership",
      "outputs": [],
      "payable": false,
      "stateMutability": "nonpayable",
      "type": "function"
    },
    {
      "constant": true,
      "inputs": [],
      "name": "globalUseBlock",
      "outputs": [
        {
          "name": "",
          "type": "uint256"
        }
      ],
      "payable": false,
      "stateMutability": "view",
      "type": "function"
    },
    {
      "constant": true,
      "inputs": [],
      "name": "RBG",
      "outputs": [
        {
          "name": "",
          "type": "address"
        }
      ],
      "payable": false,
      "stateMutability": "view",
      "type": "function"
    },
    {
      "constant": true,
      "inputs": [],
      "name": "minimumQuorum",
      "outputs": [
        {
          "name": "",
          "type": "uint256"
        }
      ],
      "payable": false,
      "stateMutability": "view",
      "type": "function"
    },
    {
      "constant": true,
      "inputs": [],
      "name": "owner",
      "outputs": [
        {
          "name": "",
          "type": "address"
        }
      ],
      "payable": false,
      "stateMutability": "view",
      "type": "function"
    },
    {
      "constant": true,
      "inputs": [],
      "name": "IBG",
      "outputs": [
        {
          "name": "",
          "type": "address"
        }
      ],
      "payable": false,
      "stateMutability": "view",
      "type": "function"
    },
    {
      "constant": true,
      "inputs": [],
      "name": "repStake",
      "outputs": [
        {
          "name": "",
          "type": "uint256"
        }
      ],
      "payable": false,
      "stateMutability": "view",
      "type": "function"
    },
    {
      "constant": true,
      "inputs": [],
      "name": "globalRepCount",
      "outputs": [
        {
          "name": "",
          "type": "uint256"
        }
      ],
      "payable": false,
      "stateMutability": "view",
      "type": "function"
    },
    {
      "constant": true,
      "inputs": [],
      "name": "DCPoA",
      "outputs": [
        {
          "name": "",
          "type": "address"
        }
      ],
      "payable": false,
      "stateMutability": "view",
      "type": "function"
    },
    {
      "constant": false,
      "inputs": [
        {
          "name": "_newOwner",
          "type": "address"
        }
      ],
      "name": "transferOwnership",
      "outputs": [],
      "payable": false,
      "stateMutability": "nonpayable",
      "type": "function"
    },
    {
      "anonymous": false,
      "inputs": [
        {
          "indexed": false,
          "name": "IdeaHash",
          "type": "string"
        }
      ],
      "name": "IdeaProposed",
      "type": "event"
    },
    {
      "anonymous": false,
      "inputs": [
        {
          "indexed": false,
          "name": "_ideahash",
          "type": "string"
        }
      ],
      "name": "IdeaApproved",
      "type": "event"
    },
    {
      "anonymous": false,
      "inputs": [
        {
          "indexed": false,
          "name": "_voter",
          "type": "address"
        },
        {
          "indexed": false,
          "name": "inSupport",
          "type": "bool"
        }
      ],
      "name": "Voted",
      "type": "event"
    },
    {
      "anonymous": false,
      "inputs": [
        {
          "indexed": false,
          "name": "member",
          "type": "address"
        }
      ],
      "name": "NewMember",
      "type": "event"
    },
    {
      "anonymous": false,
      "inputs": [
        {
          "indexed": true,
          "name": "previousOwner",
          "type": "address"
        }
      ],
      "name": "OwnershipRenounced",
      "type": "event"
    },
    {
      "anonymous": false,
      "inputs": [
        {
          "indexed": true,
          "name": "previousOwner",
          "type": "address"
        },
        {
          "indexed": true,
          "name": "newOwner",
          "type": "address"
        }
      ],
      "name": "OwnershipTransferred",
      "type": "event"
    },
    {
      "constant": false,
      "inputs": [],
      "name": "buyMembership",
      "outputs": [],
      "payable": true,
      "stateMutability": "payable",
      "type": "function"
    },
    {
      "constant": false,
      "inputs": [
        {
          "name": "_dcpoa",
          "type": "address"
        },
        {
          "name": "_IDC",
          "type": "address"
        },
        {
          "name": "_IBG",
          "type": "address"
        },
        {
          "name": "_RBG",
          "type": "address"
        },
        {
          "name": "_GUBG",
          "type": "address"
        }
      ],
      "name": "setGenerators",
      "outputs": [],
      "payable": false,
      "stateMutability": "nonpayable",
      "type": "function"
    },
    {
      "constant": true,
      "inputs": [
        {
          "name": "_member",
          "type": "address"
        }
      ],
      "name": "checkIfMember",
      "outputs": [
        {
          "name": "",
          "type": "bool"
        }
      ],
      "payable": false,
      "stateMutability": "view",
      "type": "function"
    },
    {
      "constant": true,
      "inputs": [],
      "name": "getMemberCount",
      "outputs": [
        {
          "name": "",
          "type": "uint256"
        }
      ],
      "payable": false,
      "stateMutability": "view",
      "type": "function"
    },
    {
      "constant": true,
      "inputs": [
        {
          "name": "hash",
          "type": "string"
        }
      ],
      "name": "getPropID",
      "outputs": [
        {
          "name": "",
          "type": "uint256"
        }
      ],
      "payable": false,
      "stateMutability": "view",
      "type": "function"
    },
    {
      "constant": false,
      "inputs": [],
      "name": "stakeReplicatorWallet",
      "outputs": [],
      "payable": false,
      "stateMutability": "nonpayable",
      "type": "function"
    },
    {
      "constant": true,
      "inputs": [],
      "name": "getIdeasOwner",
      "outputs": [
        {
          "name": "",
          "type": "uint256[]"
        }
      ],
      "payable": false,
      "stateMutability": "view",
      "type": "function"
    }
  ],
  "bytecode": "0x6080604052683635c9adc5dea00000600b5568056bc75e2d63100000600c55336000806101000a81548173ffffffffffffffffffffffffffffffffffffffff021916908373ffffffffffffffffffffffffffffffffffffffff1602179055506114ce8061006d6000396000f30060806040526004361061013d576000357c0100000000000000000000000000000000000000000000000000000000900463ffffffff168062beed7314610142578063013cf08b1461019957806310734e431461025c57806311aee380146102d957806318da0e63146103045780631ddc883b1461031b57806328a6e47c1461034657806329a4d6ab146103715780634951f6aa146104345780634cfa24091461048f57806352d2c11d146104ba5780635c58111914610511578063715018a61461051b57806375824974146105325780637e81347d1461055d5780638160f0b5146105b45780638da5cb5b146105df578063997072f7146106365780639df2c4de146106615780639f7d8929146106b8578063be6cbbcf146106e3578063daeac7b91461070e578063e026daa11461077a578063f2fde38b146107d1575b600080fd5b34801561014e57600080fd5b50610157610814565b604051808273ffffffffffffffffffffffffffffffffffffffff1673ffffffffffffffffffffffffffffffffffffffff16815260200191505060405180910390f35b3480156101a557600080fd5b506101c46004803603810190808035906020019092919050505061083a565b60405180806020018515151515815260200184151515158152602001838152602001828103825286818151815260200191508051906020019080838360005b8381101561021e578082015181840152602081019050610203565b50505050905090810190601f16801561024b5780820380516001836020036101000a031916815260200191505b509550505050505060405180910390f35b34801561026857600080fd5b506102c3600480360381019080803590602001908201803590602001908080601f016020809104026020016040519081016040528093929190818152602001838380828437820191505050505050919291929050505061092b565b6040518082815260200191505060405180910390f35b3480156102e557600080fd5b506102ee6109a0565b6040518082815260200191505060405180910390f35b34801561031057600080fd5b506103196109a6565b005b34801561032757600080fd5b50610330610c6a565b6040518082815260200191505060405180910390f35b34801561035257600080fd5b5061035b610c70565b6040518082815260200191505060405180910390f35b34801561037d57600080fd5b50610432600480360381019080803573ffffffffffffffffffffffffffffffffffffffff169060200190929190803573ffffffffffffffffffffffffffffffffffffffff169060200190929190803573ffffffffffffffffffffffffffffffffffffffff169060200190929190803573ffffffffffffffffffffffffffffffffffffffff169060200190929190803573ffffffffffffffffffffffffffffffffffffffff169060200190929190505050610c76565b005b34801561044057600080fd5b50610475600480360381019080803573ffffffffffffffffffffffffffffffffffffffff169060200190929190505050610e1d565b604051808215151515815260200191505060405180910390f35b34801561049b57600080fd5b506104a4610e87565b6040518082815260200191505060405180910390f35b3480156104c657600080fd5b506104cf610e8d565b604051808273ffffffffffffffffffffffffffffffffffffffff1673ffffffffffffffffffffffffffffffffffffffff16815260200191505060405180910390f35b610519610eb3565b005b34801561052757600080fd5b50610530611035565b005b34801561053e57600080fd5b50610547611137565b6040518082815260200191505060405180910390f35b34801561056957600080fd5b5061057261113d565b604051808273ffffffffffffffffffffffffffffffffffffffff1673ffffffffffffffffffffffffffffffffffffffff16815260200191505060405180910390f35b3480156105c057600080fd5b506105c9611163565b6040518082815260200191505060405180910390f35b3480156105eb57600080fd5b506105f4611169565b604051808273ffffffffffffffffffffffffffffffffffffffff1673ffffffffffffffffffffffffffffffffffffffff16815260200191505060405180910390f35b34801561064257600080fd5b5061064b61118e565b6040518082815260200191505060405180910390f35b34801561066d57600080fd5b50610676611198565b604051808273ffffffffffffffffffffffffffffffffffffffff1673ffffffffffffffffffffffffffffffffffffffff16815260200191505060405180910390f35b3480156106c457600080fd5b506106cd6111be565b6040518082815260200191505060405180910390f35b3480156106ef57600080fd5b506106f86111c4565b6040518082815260200191505060405180910390f35b34801561071a57600080fd5b506107236111ca565b6040518080602001828103825283818151815260200191508051906020019060200280838360005b8381101561076657808201518184015260208101905061074b565b505050509050019250505060405180910390f35b34801561078657600080fd5b5061078f61125f565b604051808273ffffffffffffffffffffffffffffffffffffffff1673ffffffffffffffffffffffffffffffffffffffff16815260200191505060405180910390f35b3480156107dd57600080fd5b50610812600480360381019080803573ffffffffffffffffffffffffffffffffffffffff169060200190929190505050611285565b005b600560009054906101000a900473ffffffffffffffffffffffffffffffffffffffff1681565b600e8181548110151561084957fe5b9060005260206000209060050201600091509050806000018054600181600116156101000203166002900480601f0160208091040260200160405190810160405280929190818152602001828054600181600116156101000203166002900480156108f55780601f106108ca576101008083540402835291602001916108f5565b820191906000526020600020905b8154815290600101906020018083116108d857829003601f168201915b5050505050908060010160009054906101000a900460ff16908060010160019054906101000a900460ff16908060020154905084565b60006013826040518082805190602001908083835b6020831015156109655780518252602082019150602081019050602083039250610940565b6001836020036101000a0380198251168184511680821785525050505050509050019150509081526020016040518091039020549050919050565b60085481565b68056bc75e2d63100000600160009054906101000a900473ffffffffffffffffffffffffffffffffffffffff1673ffffffffffffffffffffffffffffffffffffffff166370a08231336040518263ffffffff167c0100000000000000000000000000000000000000000000000000000000028152600401808273ffffffffffffffffffffffffffffffffffffffff1673ffffffffffffffffffffffffffffffffffffffff168152602001915050602060405180830381600087803b158015610a6d57600080fd5b505af1158015610a81573d6000803e3d6000fd5b505050506040513d6020811015610a9757600080fd5b810190808051906020019092919050505010151515610ab557600080fd5b600260009054906101000a900473ffffffffffffffffffffffffffffffffffffffff1673ffffffffffffffffffffffffffffffffffffffff1663744a20fd3368056bc75e2d631000006040518363ffffffff167c0100000000000000000000000000000000000000000000000000000000028152600401808373ffffffffffffffffffffffffffffffffffffffff1673ffffffffffffffffffffffffffffffffffffffff16815260200182815260200192505050600060405180830381600087803b158015610b8357600080fd5b505af1158015610b97573d6000803e3d6000fd5b505050506001601160003373ffffffffffffffffffffffffffffffffffffffff1673ffffffffffffffffffffffffffffffffffffffff16815260200190815260200160002060006101000a81548160ff0219169083151502179055506008600081548092919060010191905055507fb4dcb6dd550f27b5917ebf674899ea7046ff91790c6f9f01431617ad39819db233604051808273ffffffffffffffffffffffffffffffffffffffff1673ffffffffffffffffffffffffffffffffffffffff16815260200191505060405180910390a1565b600b5481565b600a5481565b6000809054906101000a900473ffffffffffffffffffffffffffffffffffffffff1673ffffffffffffffffffffffffffffffffffffffff163373ffffffffffffffffffffffffffffffffffffffff16141515610cd157600080fd5b84600260006101000a81548173ffffffffffffffffffffffffffffffffffffffff021916908373ffffffffffffffffffffffffffffffffffffffff16021790555083600160006101000a81548173ffffffffffffffffffffffffffffffffffffffff021916908373ffffffffffffffffffffffffffffffffffffffff16021790555082600360006101000a81548173ffffffffffffffffffffffffffffffffffffffff021916908373ffffffffffffffffffffffffffffffffffffffff16021790555081600460006101000a81548173ffffffffffffffffffffffffffffffffffffffff021916908373ffffffffffffffffffffffffffffffffffffffff16021790555080600560006101000a81548173ffffffffffffffffffffffffffffffffffffffff021916908373ffffffffffffffffffffffffffffffffffffffff1602179055505050505050565b600060011515601160008473ffffffffffffffffffffffffffffffffffffffff1673ffffffffffffffffffffffffffffffffffffffff16815260200190815260200160002060009054906101000a900460ff1615151415610e815760019050610e82565b5b919050565b60065481565b600160009054906101000a900473ffffffffffffffffffffffffffffffffffffffff1681565b62f0c8a0600a54014211151515610ec957600080fd5b670de0b6b3a76400003410151515610ee057600080fd5b610ee9336112ec565b600260009054906101000a900473ffffffffffffffffffffffffffffffffffffffff1673ffffffffffffffffffffffffffffffffffffffff16631f471ad03369021e19e0c9bab24000006040518363ffffffff167c0100000000000000000000000000000000000000000000000000000000028152600401808373ffffffffffffffffffffffffffffffffffffffff1673ffffffffffffffffffffffffffffffffffffffff16815260200182815260200192505050600060405180830381600087803b158015610fb857600080fd5b505af1158015610fcc573d6000803e3d6000fd5b505050507fb4dcb6dd550f27b5917ebf674899ea7046ff91790c6f9f01431617ad39819db233604051808273ffffffffffffffffffffffffffffffffffffffff1673ffffffffffffffffffffffffffffffffffffffff16815260200191505060405180910390a1565b6000809054906101000a900473ffffffffffffffffffffffffffffffffffffffff1673ffffffffffffffffffffffffffffffffffffffff163373ffffffffffffffffffffffffffffffffffffffff1614151561109057600080fd5b6000809054906101000a900473ffffffffffffffffffffffffffffffffffffffff1673ffffffffffffffffffffffffffffffffffffffff167ff8df31144d9c2f0f6b59d69b8b98abd5459d07f2742c4df920b25aae33c6482060405160405180910390a260008060006101000a81548173ffffffffffffffffffffffffffffffffffffffff021916908373ffffffffffffffffffffffffffffffffffffffff160217905550565b60095481565b600460009054906101000a900473ffffffffffffffffffffffffffffffffffffffff1681565b600d5481565b6000809054906101000a900473ffffffffffffffffffffffffffffffffffffffff1681565b6000600854905090565b600360009054906101000a900473ffffffffffffffffffffffffffffffffffffffff1681565b600c5481565b60075481565b6060601460003373ffffffffffffffffffffffffffffffffffffffff1673ffffffffffffffffffffffffffffffffffffffff16815260200190815260200160002080548060200260200160405190810160405280929190818152602001828054801561125557602002820191906000526020600020905b815481526020019060010190808311611241575b5050505050905090565b600260009054906101000a900473ffffffffffffffffffffffffffffffffffffffff1681565b6000809054906101000a900473ffffffffffffffffffffffffffffffffffffffff1673ffffffffffffffffffffffffffffffffffffffff163373ffffffffffffffffffffffffffffffffffffffff161415156112e057600080fd5b6112e9816113a8565b50565b6001601160008373ffffffffffffffffffffffffffffffffffffffff1673ffffffffffffffffffffffffffffffffffffffff16815260200190815260200160002060006101000a81548160ff021916908315150217905550601260008273ffffffffffffffffffffffffffffffffffffffff1673ffffffffffffffffffffffffffffffffffffffff1681526020019081526020016000206000815480929190600101919050555060086000815480929190600101919050555050565b600073ffffffffffffffffffffffffffffffffffffffff168173ffffffffffffffffffffffffffffffffffffffff16141515156113e457600080fd5b8073ffffffffffffffffffffffffffffffffffffffff166000809054906101000a900473ffffffffffffffffffffffffffffffffffffffff1673ffffffffffffffffffffffffffffffffffffffff167f8be0079c531659141344cd1fd0a4f28419497f9722a3daafe3b4186f6b6457e060405160405180910390a3806000806101000a81548173ffffffffffffffffffffffffffffffffffffffff021916908373ffffffffffffffffffffffffffffffffffffffff160217905550505600a165627a7a72305820aeae3d91dbbc693ef233accb3e391af971ddcd251ebe2f635d844f1ba03dd3600029",
  "source": "pragma solidity ^0.4.21;\nimport \"zeppelin-solidity/contracts/ownership/Ownable.sol\";\n////////////////////////////////////////////////////////////////////////////////////////////\n/// @title Interface Contract for the CryptoPatent Blockchain\n/// @author DecentraCorp\n/// @notice this contract is built using the Ownership contract from the zeppelin-solidity library\n/// @dev All function calls are currently implement without side effects\n////////////////////////////////////////////////////////////////////////////////////////////\ncontract DecentraCorpPoA {\n  function proxyMint(address _add, uint _amount) external;\n  function proxyBurn(address _add, uint _amount) external;\n}\n/// DecentraCorp PoA inteface\n////////////////////////////////////////////////////////////////////////////////////////////\ncontract IdeaCoin {\n    function balanceOf(address _addr) public constant returns (uint);\n    function totalSupply() public constant returns (uint);\n}\n/// IdeaCoin interface\n/////////////////////////////////////////////////////////////////////////////////////////////\ncontract IdeaBlockGenerator {\n    function _generateIdeaBlock(string _ideaIPFS, uint _globalUseBlockAmount, uint miningTime, uint _royalty, address _inventorsAddress) external;\n    function transferOwnership(address newOwner) public;\n    function balanceOf(address _owner) public view returns (uint256);\n    function getGlobalUseBlockAmount(uint _ideaId) public view returns(uint);\n    function getRoyalty(uint _ideaId) public view returns(uint);\n    function getInventor(uint _ideaId) public view returns(address);\n    function getMiningTime(uint _ideaId) public view returns(uint);\n    function setMiningTime(uint _ideaId) external view;\n}\n/// Idea Block Generator interface\n/////////////////////////////////////////////////////////////////////////////////////////////\ncontract ReplicationBlockGenerator {\n    function replicationBlock(uint _ideaId, address _repAdd, address _replicatorAdd) external;\n    function getBlockReward(address _repAdd) public view returns(uint);\n    function getOwnersAddress(address _repAdd) public view returns(address);\n    function getIdeaID(address _repAdd) public view returns(uint);\n    function getInventorsAddress(address _repAdd) public view returns(address);\n    function getReplicationAddress(address _repAdd) public view returns(address);\n    function getRoyalty(address _repAdd) public view returns(uint);\n    function getRepID(address _repAdd) public view returns(uint);\n    function checkIfRep(address _add) external returns(bool);\n    function getNumOfReps(address _add, uint _ideaId) external returns(uint);\n    function getRepTotal(uint _ideaId) external returns(uint);\n    function safeTransfer(address _from, address _to, uint _tokenId) public;\n  }\n/// Replication Block Generator interface\n/////////////////////////////////////////////////////////////////////////////////////////////\ncontract GlobalUseBlockGenerator{\n    function _generateGUSBlock(address _replicationOwner) external;\n    function safeTransfer(address _from, address _to, uint _tokenId) public;\n}\n/// Global Use Block Generator interface\n/////////////////////////////////////////////////////////////////////////////////////////////\n\n/// @author Christopher Dixon\n/// @notice contract Interface is the first contract in the CryptoPatent Blockchain\n/// @dev this contract is ment to set up the needed global variables as well as house various membership related functions\n/// @dev for whatever reason, having the membership logic in the DCPoA contract causes truffle not to deploy properly(gas) remix works fine\ncontract Interface is Ownable {\n  IdeaCoin public IDC;\n  DecentraCorpPoA public DCPoA;\n  IdeaBlockGenerator public IBG;\n  ReplicationBlockGenerator public RBG;\n  GlobalUseBlockGenerator public GUBG;\n  ///@param above turn each interface into a useable variable\n\n  ///@param globalIdeaCount tracks amount of ideas on the CryptoPatent Blockchain\n  ///@param globalRepCount tracks the total number of replications on the CryptoPatent Blockchain\n  ///@param memberCount tracks the total number of CryptoGrow members\n  ///@param globalUseBlock tracks global use blocks\n  ///@param globalBlockHalfTime used to track when the ideaBlockReward should be halved\n  ///@param ideaBlockReward set to 1000 IDC\n  ///@param repStake set to 100 IDC\n  ///@param minimumQuorum used to  track quorum info\n  uint public globalIdeaCount;\n  uint public globalRepCount;\n  uint public memberCount;\n  uint public globalUseBlock;\n  uint public globalBlockHalfTime;\n  uint public ideaBlockReward = 1000000000000000000000;\n  uint public repStake = 100000000000000000000;\n  uint public minimumQuorum;\n\n  ///@param IdeaProposal array of idea proposals\n  IdeaProposal[] public proposals;\n\n  ///@param weightTracker tracks current global highest weight\n  ///@param localWeightTracker maps a replications address to its replication ID and stores that replications current weight\n  ///@param members tracks if an address is a member\n  ///@param memberRank tracks a members rank\n  ///@param getHash maps ipfs hash to its token ID\n  mapping (uint => uint) weightTracker;\n  mapping (address => mapping (uint => uint)) localWeightTracker;\n  mapping (address =>bool) members;\n  mapping(address => uint) memberRank;\n  mapping(string => uint) getHash;\n  mapping(address => uint[]) getTokens;\n\n\n  event IdeaProposed(string IdeaHash);\n  event IdeaApproved(string _ideahash);\n  event Voted(address _voter, bool inSupport);\n  event NewMember(address member);\n\n\n///@struct IdeaProposal stores info of a proposal\nstruct IdeaProposal {\n     string IdeaIPFS;\n     bool executed;\n     bool proposalPassed;\n     uint numberOfVotes;\n     Vote[] votes;\n     mapping (address => bool) voted;\n }\n //@struct Vote stores an individuals vote in an array in an Idea Proposal\n  struct Vote {\n          bool inSupport;\n          address voter;\n  }\n\n\n//@modifier requires that the address calling a function is a replication\n  modifier onlyReplication() {\n    require(RBG.checkIfRep(msg.sender) == true);\n    _;\n  }\n\n//@modifier requires that the address calling a function is a member of DecentraCorp\n  modifier onlyMember() {\n    require(checkIfMember(msg.sender) == true);\n    _;\n  }\n\n///@notice calculatePromo function calculates the promotion a miner receives for having multiples of the same type of replication\n///@dev calculatePromo takes in a block Reward and an idea ID to retun a specific block reward\n  function calculatePromo(uint _blockReward, uint _ideaId) internal returns(uint) {\n    uint numberOfReps =  RBG.getNumOfReps( msg.sender,  _ideaId);\n    uint tenthReward = (_blockReward/ 10);\n    uint modulator = tenthReward * numberOfReps;\n    uint blockReward = _blockReward + modulator;\n    return blockReward;\n  }\n\n///@notice addMember function is an internal function for adding a member to decentracorp\n///@dev addMember takes in an address _mem, sets its membership to true and increments their rank by one\n  function addMember(address _mem) internal {\n      members[_mem] = true;\n      memberRank[_mem]++;\n      memberCount++;\n  }\n\n///@notice buyMembership function allows for the purchase of a membership for 6 months after official launch.\n///@dev mints the user 10,000 IDC\n  function buyMembership() public payable{\n    require(now <= globalBlockHalfTime + 15780000 seconds);\n    require(msg.value >= 1 ether);\n    addMember(msg.sender);\n    DCPoA.proxyMint(msg.sender, 10000000000000000000000);\n    emit NewMember(msg.sender);\n  }\n\n///@notice setGenerators function takes in addresses of various contracts the CryptoPatent Blockchain inteacts with\n///@dev setGenerators takes in these addresses automagically through truffle migrations\n  function setGenerators(\n    DecentraCorpPoA _dcpoa,\n    IdeaCoin _IDC,\n    IdeaBlockGenerator _IBG,\n    ReplicationBlockGenerator _RBG,\n    GlobalUseBlockGenerator _GUBG\n    )\n    public\n    onlyOwner\n    {\n      DCPoA = DecentraCorpPoA(_dcpoa);\n      IDC = IdeaCoin(_IDC);\n      IBG = IdeaBlockGenerator(_IBG);\n      RBG = ReplicationBlockGenerator(_RBG);\n      GUBG = GlobalUseBlockGenerator(_GUBG);\n    }\n\n\n///@notice checkIfMember function allowsother contracts/front end to check if an address is a member\n///@dev checkIfMember takes in\n  function checkIfMember(address _member) public view returns(bool) {\n    if(members[_member] == true){\n      return true;\n    }\n  }\n\n\n///@notice getMemberCount function returns total membercount\n///@dev getMemberCount is for front end and internal use\n  function getMemberCount() public view returns(uint) {\n    return memberCount;\n  }\n\n  ///@notice getPropID function allows one to rerieve a proposal ID by its ipfs hash\n  ///@dev getPropID is made for easier front end interaction\n  function getPropID(string hash) public view returns(uint){\n    return getHash[hash];\n  }\n\n///@notice stakeReplicatorWallet function allows for the activation of a replication wallet by\n///        burning IdeaCoin from the msg.sender\n///@dev stakeReplicatorWallet costs 100 IDC and burns them from existence\n  function stakeReplicatorWallet() public {\n    require(IDC.balanceOf(msg.sender) >= 100000000000000000000);\n    DCPoA.proxyBurn(msg.sender, 100000000000000000000);\n    members[msg.sender] = true;\n    memberCount++;\n    emit NewMember(msg.sender);\n  }\n\n///@notice getIdeasOwner function returns what tokens the msg.sender owns\n///@dev getIdeasOwner returns an array of uints\n  function getIdeasOwner() public view returns(uint[]){\n    return getTokens[msg.sender];\n  }\n\n}\n",
  "sourcePath": "/home/stan36/repos/DecentraCorp/contracts/CryptoPatent/Interface.sol",
  "compiler": {
    "name": "solc",
    "version": "0.4.24+commit.e67f0147.Emscripten.clang"
  },
  "schemaVersion": "2.0.1",
  "updatedAt": "2018-11-22T23:29:55.213Z"
}