{
  "contractName": "Interface",
  "abi": [
    {
      "constant": true,
      "inputs": [],
      "name": "GUBG",
      "outputs": [
        {
          "name": "",
          "type": "address"
        }
      ],
      "payable": false,
      "stateMutability": "view",
      "type": "function"
    },
    {
      "constant": true,
      "inputs": [
        {
          "name": "",
          "type": "uint256"
        }
      ],
      "name": "proposals",
      "outputs": [
        {
          "name": "IdeaIPFS",
          "type": "string"
        },
        {
          "name": "executed",
          "type": "bool"
        },
        {
          "name": "proposalPassed",
          "type": "bool"
        },
        {
          "name": "numberOfVotes",
          "type": "uint256"
        }
      ],
      "payable": false,
      "stateMutability": "view",
      "type": "function"
    },
    {
      "constant": true,
      "inputs": [],
      "name": "memberCount",
      "outputs": [
        {
          "name": "",
          "type": "uint256"
        }
      ],
      "payable": false,
      "stateMutability": "view",
      "type": "function"
    },
    {
      "constant": true,
      "inputs": [],
      "name": "ideaBlockReward",
      "outputs": [
        {
          "name": "",
          "type": "uint256"
        }
      ],
      "payable": false,
      "stateMutability": "view",
      "type": "function"
    },
    {
      "constant": true,
      "inputs": [],
      "name": "globalBlockHalfTime",
      "outputs": [
        {
          "name": "",
          "type": "uint256"
        }
      ],
      "payable": false,
      "stateMutability": "view",
      "type": "function"
    },
    {
      "constant": true,
      "inputs": [],
      "name": "globalIdeaCount",
      "outputs": [
        {
          "name": "",
          "type": "uint256"
        }
      ],
      "payable": false,
      "stateMutability": "view",
      "type": "function"
    },
    {
      "constant": true,
      "inputs": [],
      "name": "IDC",
      "outputs": [
        {
          "name": "",
          "type": "address"
        }
      ],
      "payable": false,
      "stateMutability": "view",
      "type": "function"
    },
    {
      "constant": false,
      "inputs": [],
      "name": "renounceOwnership",
      "outputs": [],
      "payable": false,
      "stateMutability": "nonpayable",
      "type": "function"
    },
    {
      "constant": true,
      "inputs": [],
      "name": "globalUseBlock",
      "outputs": [
        {
          "name": "",
          "type": "uint256"
        }
      ],
      "payable": false,
      "stateMutability": "view",
      "type": "function"
    },
    {
      "constant": true,
      "inputs": [],
      "name": "RBG",
      "outputs": [
        {
          "name": "",
          "type": "address"
        }
      ],
      "payable": false,
      "stateMutability": "view",
      "type": "function"
    },
    {
      "constant": true,
      "inputs": [],
      "name": "minimumQuorum",
      "outputs": [
        {
          "name": "",
          "type": "uint256"
        }
      ],
      "payable": false,
      "stateMutability": "view",
      "type": "function"
    },
    {
      "constant": true,
      "inputs": [],
      "name": "owner",
      "outputs": [
        {
          "name": "",
          "type": "address"
        }
      ],
      "payable": false,
      "stateMutability": "view",
      "type": "function"
    },
    {
      "constant": true,
      "inputs": [],
      "name": "IBG",
      "outputs": [
        {
          "name": "",
          "type": "address"
        }
      ],
      "payable": false,
      "stateMutability": "view",
      "type": "function"
    },
    {
      "constant": true,
      "inputs": [],
      "name": "repStake",
      "outputs": [
        {
          "name": "",
          "type": "uint256"
        }
      ],
      "payable": false,
      "stateMutability": "view",
      "type": "function"
    },
    {
      "constant": true,
      "inputs": [],
      "name": "globalRepCount",
      "outputs": [
        {
          "name": "",
          "type": "uint256"
        }
      ],
      "payable": false,
      "stateMutability": "view",
      "type": "function"
    },
    {
      "constant": true,
      "inputs": [],
      "name": "DCPoA",
      "outputs": [
        {
          "name": "",
          "type": "address"
        }
      ],
      "payable": false,
      "stateMutability": "view",
      "type": "function"
    },
    {
      "constant": false,
      "inputs": [
        {
          "name": "_newOwner",
          "type": "address"
        }
      ],
      "name": "transferOwnership",
      "outputs": [],
      "payable": false,
      "stateMutability": "nonpayable",
      "type": "function"
    },
    {
      "anonymous": false,
      "inputs": [
        {
          "indexed": true,
          "name": "previousOwner",
          "type": "address"
        }
      ],
      "name": "OwnershipRenounced",
      "type": "event"
    },
    {
      "anonymous": false,
      "inputs": [
        {
          "indexed": true,
          "name": "previousOwner",
          "type": "address"
        },
        {
          "indexed": true,
          "name": "newOwner",
          "type": "address"
        }
      ],
      "name": "OwnershipTransferred",
      "type": "event"
    }
  ],
  "bytecode": "0x6080604052683635c9adc5dea00000600b5568056bc75e2d63100000600c55336000806101000a81548173ffffffffffffffffffffffffffffffffffffffff021916908373ffffffffffffffffffffffffffffffffffffffff160217905550610a078061006d6000396000f3006080604052600436106100f0576000357c0100000000000000000000000000000000000000000000000000000000900463ffffffff168062beed73146100f5578063013cf08b1461014c57806311aee3801461020f5780631ddc883b1461023a57806328a6e47c146102655780634cfa24091461029057806352d2c11d146102bb578063715018a61461031257806375824974146103295780637e81347d146103545780638160f0b5146103ab5780638da5cb5b146103d65780639df2c4de1461042d5780639f7d892914610484578063be6cbbcf146104af578063e026daa1146104da578063f2fde38b14610531575b600080fd5b34801561010157600080fd5b5061010a610574565b604051808273ffffffffffffffffffffffffffffffffffffffff1673ffffffffffffffffffffffffffffffffffffffff16815260200191505060405180910390f35b34801561015857600080fd5b506101776004803603810190808035906020019092919050505061059a565b60405180806020018515151515815260200184151515158152602001838152602001828103825286818151815260200191508051906020019080838360005b838110156101d15780820151818401526020810190506101b6565b50505050905090810190601f1680156101fe5780820380516001836020036101000a031916815260200191505b509550505050505060405180910390f35b34801561021b57600080fd5b5061022461068b565b6040518082815260200191505060405180910390f35b34801561024657600080fd5b5061024f610691565b6040518082815260200191505060405180910390f35b34801561027157600080fd5b5061027a610697565b6040518082815260200191505060405180910390f35b34801561029c57600080fd5b506102a561069d565b6040518082815260200191505060405180910390f35b3480156102c757600080fd5b506102d06106a3565b604051808273ffffffffffffffffffffffffffffffffffffffff1673ffffffffffffffffffffffffffffffffffffffff16815260200191505060405180910390f35b34801561031e57600080fd5b506103276106c9565b005b34801561033557600080fd5b5061033e6107cb565b6040518082815260200191505060405180910390f35b34801561036057600080fd5b506103696107d1565b604051808273ffffffffffffffffffffffffffffffffffffffff1673ffffffffffffffffffffffffffffffffffffffff16815260200191505060405180910390f35b3480156103b757600080fd5b506103c06107f7565b6040518082815260200191505060405180910390f35b3480156103e257600080fd5b506103eb6107fd565b604051808273ffffffffffffffffffffffffffffffffffffffff1673ffffffffffffffffffffffffffffffffffffffff16815260200191505060405180910390f35b34801561043957600080fd5b50610442610822565b604051808273ffffffffffffffffffffffffffffffffffffffff1673ffffffffffffffffffffffffffffffffffffffff16815260200191505060405180910390f35b34801561049057600080fd5b50610499610848565b6040518082815260200191505060405180910390f35b3480156104bb57600080fd5b506104c461084e565b6040518082815260200191505060405180910390f35b3480156104e657600080fd5b506104ef610854565b604051808273ffffffffffffffffffffffffffffffffffffffff1673ffffffffffffffffffffffffffffffffffffffff16815260200191505060405180910390f35b34801561053d57600080fd5b50610572600480360381019080803573ffffffffffffffffffffffffffffffffffffffff16906020019092919050505061087a565b005b600560009054906101000a900473ffffffffffffffffffffffffffffffffffffffff1681565b600e818154811015156105a957fe5b9060005260206000209060050201600091509050806000018054600181600116156101000203166002900480601f0160208091040260200160405190810160405280929190818152602001828054600181600116156101000203166002900480156106555780601f1061062a57610100808354040283529160200191610655565b820191906000526020600020905b81548152906001019060200180831161063857829003601f168201915b5050505050908060010160009054906101000a900460ff16908060010160019054906101000a900460ff16908060020154905084565b60085481565b600b5481565b600a5481565b60065481565b600160009054906101000a900473ffffffffffffffffffffffffffffffffffffffff1681565b6000809054906101000a900473ffffffffffffffffffffffffffffffffffffffff1673ffffffffffffffffffffffffffffffffffffffff163373ffffffffffffffffffffffffffffffffffffffff1614151561072457600080fd5b6000809054906101000a900473ffffffffffffffffffffffffffffffffffffffff1673ffffffffffffffffffffffffffffffffffffffff167ff8df31144d9c2f0f6b59d69b8b98abd5459d07f2742c4df920b25aae33c6482060405160405180910390a260008060006101000a81548173ffffffffffffffffffffffffffffffffffffffff021916908373ffffffffffffffffffffffffffffffffffffffff160217905550565b60095481565b600460009054906101000a900473ffffffffffffffffffffffffffffffffffffffff1681565b600d5481565b6000809054906101000a900473ffffffffffffffffffffffffffffffffffffffff1681565b600360009054906101000a900473ffffffffffffffffffffffffffffffffffffffff1681565b600c5481565b60075481565b600260009054906101000a900473ffffffffffffffffffffffffffffffffffffffff1681565b6000809054906101000a900473ffffffffffffffffffffffffffffffffffffffff1673ffffffffffffffffffffffffffffffffffffffff163373ffffffffffffffffffffffffffffffffffffffff161415156108d557600080fd5b6108de816108e1565b50565b600073ffffffffffffffffffffffffffffffffffffffff168173ffffffffffffffffffffffffffffffffffffffff161415151561091d57600080fd5b8073ffffffffffffffffffffffffffffffffffffffff166000809054906101000a900473ffffffffffffffffffffffffffffffffffffffff1673ffffffffffffffffffffffffffffffffffffffff167f8be0079c531659141344cd1fd0a4f28419497f9722a3daafe3b4186f6b6457e060405160405180910390a3806000806101000a81548173ffffffffffffffffffffffffffffffffffffffff021916908373ffffffffffffffffffffffffffffffffffffffff160217905550505600a165627a7a72305820e65e93519d5e8407016740aedeaa3a37c5cf06efaeed9236ee388de73a60a3180029",
  "source": "pragma solidity ^0.4.21;\nimport \"zeppelin-solidity/contracts/ownership/Ownable.sol\";\n////////////////////////////////////////////////////////////////////////////////////////////\ncontract DecentraCorpPoA {\n  function proxyMint(address _add, uint _amount) external;\n  function proxyBurn(address _add, uint _amount) external;\n}\n////////////////////////////////////////////////////////////////////////////////////////////\ncontract IdeaCoin {\n    function balanceOf(address _addr) public constant returns (uint);\n    function totalSupply() public constant returns (uint);\n}\n//IdeaCoin interface\n/////////////////////////////////////////////////////////////////////////////////////////////\ncontract IdeaBlockGenerator {\n    function _generateIdeaBlock(string _ideaIPFS, uint _globalUseBlockAmount, uint miningTime, uint _royalty, address _inventorsAddress) external;\n    function transferOwnership(address newOwner) public;\n    function balanceOf(address _owner) public view returns (uint256);\n    function getGlobalUseBlockAmount(uint _ideaId) public view returns(uint);\n    function getRoyalty(uint _ideaId) public view returns(uint);\n    function getInventor(uint _ideaId) public view returns(address);\n    function getMiningTime(uint _ideaId) public view returns(uint);\n    function setMiningTime(uint _ideaId) external view;\n}\n//Idea Block Generator interface\n/////////////////////////////////////////////////////////////////////////////////////////////\ncontract ReplicationBlockGenerator {\n    function replicationBlock(uint _ideaId, address _repAdd, address _replicatorAdd) external;\n    function getBlockReward(address _repAdd) public view returns(uint);\n    function getOwnersAddress(address _repAdd) public view returns(address);\n    function getIdeaID(address _repAdd) public view returns(uint);\n    function getInventorsAddress(address _repAdd) public view returns(address);\n    function getReplicationAddress(address _repAdd) public view returns(address);\n    function getRoyalty(address _repAdd) public view returns(uint);\n    function getRepID(address _repAdd) public view returns(uint);\n    function checkIfRep(address _add) external returns(bool);\n    function getNumOfReps(address _add, uint _ideaId) external returns(uint);\n    function getRepTotal(uint _ideaId) external returns(uint);\n    function safeTransfer(address _from, address _to, uint _tokenId) public;\n  }\n//Replication Block Generator interface\n/////////////////////////////////////////////////////////////////////////////////////////////\ncontract GlobalUseBlockGenerator{\n    function _generateGUSBlock(address _replicationOwner) external;\n    function safeTransfer(address _from, address _to, uint _tokenId) public;\n}\n//Global Use Block Generator interface\n/////////////////////////////////////////////////////////////////////////////////////////////\ncontract Interface is Ownable {\n  IdeaCoin public IDC;\n  DecentraCorpPoA public DCPoA;\n  IdeaBlockGenerator public IBG;\n  ReplicationBlockGenerator public RBG;\n  GlobalUseBlockGenerator public GUBG;\n  //these turn each interface into a useable variable\n  uint public globalIdeaCount;\n  //tracks amount of ideas on the CryptoPatent Blockchain\n  uint public globalRepCount;\n  //tracks the total number of replications on the CryptoPatent Blockchain\n  uint public memberCount;\n  //tracks the total number of CryptoGrow members\n  uint public globalUseBlock;\n  //tracks global use blocks\n  uint public globalBlockHalfTime;\n  //used to track when the ideaBlockReward should be halved\n  uint public ideaBlockReward = 1000000000000000000000;\n  //IdeaBlock set to 1000 IDC\n  uint public repStake = 100000000000000000000;\n //Replication stake amount set to 100 IDC\n  uint public minimumQuorum;\n  //used to  track quorum info\n  IdeaProposal[] public proposals;\n  //array of idea proposals\n  mapping (uint => uint) weightTracker;\n  //tracks current global highest weight\n  mapping (address => mapping (uint => uint)) localWeightTracker;\n  //maps a replications address to its replication ID and stores that replications current weight\n  mapping (address =>bool) members;\n  //tracks if an address is a member\n  mapping(address => uint) memberRank;\n//tracks a members rank\n\nstruct IdeaProposal {\n     string IdeaIPFS;\n     bool executed;\n     bool proposalPassed;\n     uint numberOfVotes;\n     Vote[] votes;\n     mapping (address => bool) voted;\n }\n //Proposal struct stores info of a proposal\n  struct Vote {\n          bool inSupport;\n          address voter;\n      }\n\n  modifier onlyReplication() {\n    require(RBG.checkIfRep(msg.sender) == true);\n    _;\n  }\n  //modifier requires that the address calling a function is a replication\n\n  function calculatePromo(uint _blockReward, uint _ideaId) internal returns(uint) {\n    uint numberOfReps =  RBG.getNumOfReps( msg.sender,  _ideaId);\n    uint tenthReward = (_blockReward/ 10);\n    uint modulator = tenthReward * numberOfReps;\n    uint blockReward = _blockReward + modulator;\n    return blockReward;\n  }\n  //calculates the promotion a miner receives for having multiples of the same type of replication\n\n\n}\n",
  "sourcePath": "/home/stan36/repos/DecentraCorp/contracts/CryptoPatent/Interface.sol",
  "compiler": {
    "name": "solc",
    "version": "0.4.24+commit.e67f0147.Emscripten.clang"
  },
  "schemaVersion": "2.0.1",
  "updatedAt": "2018-11-04T16:12:47.846Z"
}