{
  "contractName": "Interface",
  "abi": [
    {
      "constant": true,
      "inputs": [
        {
          "name": "",
          "type": "uint256"
        }
      ],
      "name": "proposals",
      "outputs": [
        {
          "name": "IdeaIPFS",
          "type": "string"
        },
        {
          "name": "executed",
          "type": "bool"
        },
        {
          "name": "proposalPassed",
          "type": "bool"
        },
        {
          "name": "numberOfVotes",
          "type": "uint256"
        }
      ],
      "payable": false,
      "stateMutability": "view",
      "type": "function"
    },
    {
      "constant": true,
      "inputs": [],
      "name": "ideaBlockReward",
      "outputs": [
        {
          "name": "",
          "type": "uint256"
        }
      ],
      "payable": false,
      "stateMutability": "view",
      "type": "function"
    },
    {
      "constant": true,
      "inputs": [],
      "name": "globalBlockHalfTime",
      "outputs": [
        {
          "name": "",
          "type": "uint256"
        }
      ],
      "payable": false,
      "stateMutability": "view",
      "type": "function"
    },
    {
      "constant": true,
      "inputs": [],
      "name": "CPBG",
      "outputs": [
        {
          "name": "",
          "type": "address"
        }
      ],
      "payable": false,
      "stateMutability": "view",
      "type": "function"
    },
    {
      "constant": true,
      "inputs": [],
      "name": "globalIdeaCount",
      "outputs": [
        {
          "name": "",
          "type": "uint256"
        }
      ],
      "payable": false,
      "stateMutability": "view",
      "type": "function"
    },
    {
      "constant": true,
      "inputs": [],
      "name": "IDC",
      "outputs": [
        {
          "name": "",
          "type": "address"
        }
      ],
      "payable": false,
      "stateMutability": "view",
      "type": "function"
    },
    {
      "constant": false,
      "inputs": [],
      "name": "renounceOwnership",
      "outputs": [],
      "payable": false,
      "stateMutability": "nonpayable",
      "type": "function"
    },
    {
      "constant": true,
      "inputs": [],
      "name": "globalUseBlock",
      "outputs": [
        {
          "name": "",
          "type": "uint256"
        }
      ],
      "payable": false,
      "stateMutability": "view",
      "type": "function"
    },
    {
      "constant": true,
      "inputs": [],
      "name": "minimumQuorum",
      "outputs": [
        {
          "name": "",
          "type": "uint256"
        }
      ],
      "payable": false,
      "stateMutability": "view",
      "type": "function"
    },
    {
      "constant": true,
      "inputs": [],
      "name": "owner",
      "outputs": [
        {
          "name": "",
          "type": "address"
        }
      ],
      "payable": false,
      "stateMutability": "view",
      "type": "function"
    },
    {
      "constant": true,
      "inputs": [],
      "name": "repStake",
      "outputs": [
        {
          "name": "",
          "type": "uint256"
        }
      ],
      "payable": false,
      "stateMutability": "view",
      "type": "function"
    },
    {
      "constant": true,
      "inputs": [],
      "name": "globalRepCount",
      "outputs": [
        {
          "name": "",
          "type": "uint256"
        }
      ],
      "payable": false,
      "stateMutability": "view",
      "type": "function"
    },
    {
      "constant": true,
      "inputs": [],
      "name": "DCPoA",
      "outputs": [
        {
          "name": "",
          "type": "address"
        }
      ],
      "payable": false,
      "stateMutability": "view",
      "type": "function"
    },
    {
      "constant": true,
      "inputs": [],
      "name": "CrossChainInfoBridge",
      "outputs": [
        {
          "name": "",
          "type": "address"
        }
      ],
      "payable": false,
      "stateMutability": "view",
      "type": "function"
    },
    {
      "constant": false,
      "inputs": [
        {
          "name": "_newOwner",
          "type": "address"
        }
      ],
      "name": "transferOwnership",
      "outputs": [],
      "payable": false,
      "stateMutability": "nonpayable",
      "type": "function"
    },
    {
      "constant": true,
      "inputs": [],
      "name": "Validators",
      "outputs": [
        {
          "name": "",
          "type": "address"
        }
      ],
      "payable": false,
      "stateMutability": "view",
      "type": "function"
    },
    {
      "constant": true,
      "inputs": [],
      "name": "buyMemWindow",
      "outputs": [
        {
          "name": "",
          "type": "uint256"
        }
      ],
      "payable": false,
      "stateMutability": "view",
      "type": "function"
    },
    {
      "anonymous": false,
      "inputs": [
        {
          "indexed": false,
          "name": "IdeaHash",
          "type": "string"
        }
      ],
      "name": "IdeaProposed",
      "type": "event"
    },
    {
      "anonymous": false,
      "inputs": [
        {
          "indexed": false,
          "name": "_ideahash",
          "type": "string"
        }
      ],
      "name": "IdeaApproved",
      "type": "event"
    },
    {
      "anonymous": false,
      "inputs": [
        {
          "indexed": false,
          "name": "_voter",
          "type": "address"
        },
        {
          "indexed": false,
          "name": "inSupport",
          "type": "bool"
        }
      ],
      "name": "Voted",
      "type": "event"
    },
    {
      "anonymous": false,
      "inputs": [
        {
          "indexed": false,
          "name": "member",
          "type": "address"
        }
      ],
      "name": "NewMember",
      "type": "event"
    },
    {
      "anonymous": false,
      "inputs": [
        {
          "indexed": false,
          "name": "_repAdd",
          "type": "address"
        }
      ],
      "name": "NewReplication",
      "type": "event"
    },
    {
      "anonymous": false,
      "inputs": [
        {
          "indexed": false,
          "name": "updatedAccount",
          "type": "address"
        }
      ],
      "name": "ProfileUpdated",
      "type": "event"
    },
    {
      "anonymous": false,
      "inputs": [
        {
          "indexed": false,
          "name": "repAdd",
          "type": "address"
        },
        {
          "indexed": false,
          "name": "repWeight",
          "type": "uint256"
        }
      ],
      "name": "LocalUseWeight",
      "type": "event"
    },
    {
      "anonymous": false,
      "inputs": [
        {
          "indexed": false,
          "name": "repAdd",
          "type": "address"
        },
        {
          "indexed": false,
          "name": "ideaId",
          "type": "uint256"
        }
      ],
      "name": "GlobalUseBlock",
      "type": "event"
    },
    {
      "anonymous": false,
      "inputs": [
        {
          "indexed": true,
          "name": "previousOwner",
          "type": "address"
        }
      ],
      "name": "OwnershipRenounced",
      "type": "event"
    },
    {
      "anonymous": false,
      "inputs": [
        {
          "indexed": true,
          "name": "previousOwner",
          "type": "address"
        },
        {
          "indexed": true,
          "name": "newOwner",
          "type": "address"
        }
      ],
      "name": "OwnershipTransferred",
      "type": "event"
    },
    {
      "constant": false,
      "inputs": [
        {
          "name": "_newMem",
          "type": "address"
        },
        {
          "name": "_facility",
          "type": "address"
        },
        {
          "name": "_hash",
          "type": "string"
        }
      ],
      "name": "buyMembership",
      "outputs": [],
      "payable": false,
      "stateMutability": "nonpayable",
      "type": "function"
    },
    {
      "constant": false,
      "inputs": [
        {
          "name": "_dcpoa",
          "type": "address"
        },
        {
          "name": "_IDC",
          "type": "address"
        },
        {
          "name": "_CPBG",
          "type": "address"
        }
      ],
      "name": "setGenerators",
      "outputs": [],
      "payable": false,
      "stateMutability": "nonpayable",
      "type": "function"
    },
    {
      "constant": true,
      "inputs": [
        {
          "name": "_member",
          "type": "address"
        }
      ],
      "name": "checkIfMember",
      "outputs": [
        {
          "name": "",
          "type": "bool"
        }
      ],
      "payable": false,
      "stateMutability": "view",
      "type": "function"
    },
    {
      "constant": false,
      "inputs": [
        {
          "name": "_newHash",
          "type": "string"
        }
      ],
      "name": "updateProfile",
      "outputs": [],
      "payable": false,
      "stateMutability": "nonpayable",
      "type": "function"
    },
    {
      "constant": true,
      "inputs": [
        {
          "name": "hash",
          "type": "string"
        }
      ],
      "name": "getPropID",
      "outputs": [
        {
          "name": "",
          "type": "uint256"
        }
      ],
      "payable": false,
      "stateMutability": "view",
      "type": "function"
    },
    {
      "constant": false,
      "inputs": [
        {
          "name": "_hash",
          "type": "string"
        },
        {
          "name": "_facility",
          "type": "address"
        }
      ],
      "name": "stakeReplicatorWallet",
      "outputs": [],
      "payable": false,
      "stateMutability": "nonpayable",
      "type": "function"
    },
    {
      "constant": true,
      "inputs": [],
      "name": "getIdeasOwner",
      "outputs": [
        {
          "name": "",
          "type": "uint256[]"
        }
      ],
      "payable": false,
      "stateMutability": "view",
      "type": "function"
    },
    {
      "constant": false,
      "inputs": [
        {
          "name": "_valCon",
          "type": "address"
        }
      ],
      "name": "setValidatorContract",
      "outputs": [],
      "payable": false,
      "stateMutability": "nonpayable",
      "type": "function"
    },
    {
      "constant": false,
      "inputs": [
        {
          "name": "_CIB",
          "type": "address"
        }
      ],
      "name": "setCIB",
      "outputs": [],
      "payable": false,
      "stateMutability": "nonpayable",
      "type": "function"
    }
  ],
  "bytecode": "0x6080604052683635c9adc5dea00000600a5568056bc75e2d63100000600b55336000806101000a81548173ffffffffffffffffffffffffffffffffffffffff021916908373ffffffffffffffffffffffffffffffffffffffff160217905550611c548061006d6000396000f300608060405260043610610153576000357c0100000000000000000000000000000000000000000000000000000000900463ffffffff1680629299e314610158578063013cf08b146101c157806310734e43146102845780631ddc883b1461030157806328a6e47c1461032c5780633c91f273146103575780634951f6aa146103ae5780634cfa24091461040957806352d2c11d146104345780636da23e401461048b578063715018a61461050e57806375824974146105255780638160f0b5146105505780638da5cb5b1461057b5780638ee05b1d146105d25780639f7d89291461065b578063b0d8352414610686578063b7d76748146106c9578063be6cbbcf14610772578063cdf64a761461079d578063daeac7b9146107e0578063e026daa11461084c578063e4329dfb146108a3578063f2fde38b146108fa578063f69197741461093d578063ff336f5d14610994575b600080fd5b34801561016457600080fd5b506101bf600480360381019080803590602001908201803590602001908080601f01602080910402602001604051908101604052809392919081815260200183838082843782019150505050505091929192905050506109bf565b005b3480156101cd57600080fd5b506101ec60048036038101908080359060200190929190505050610b67565b60405180806020018515151515815260200184151515158152602001838152602001828103825286818151815260200191508051906020019080838360005b8381101561024657808201518184015260208101905061022b565b50505050905090810190601f1680156102735780820380516001836020036101000a031916815260200191505b509550505050505060405180910390f35b34801561029057600080fd5b506102eb600480360381019080803590602001908201803590602001908080601f0160208091040260200160405190810160405280939291908181526020018383808284378201915050505050509192919290505050610c58565b6040518082815260200191505060405180910390f35b34801561030d57600080fd5b50610316610ccd565b6040518082815260200191505060405180910390f35b34801561033857600080fd5b50610341610cd3565b6040518082815260200191505060405180910390f35b34801561036357600080fd5b5061036c610cd9565b604051808273ffffffffffffffffffffffffffffffffffffffff1673ffffffffffffffffffffffffffffffffffffffff16815260200191505060405180910390f35b3480156103ba57600080fd5b506103ef600480360381019080803573ffffffffffffffffffffffffffffffffffffffff169060200190929190505050610cff565b604051808215151515815260200191505060405180910390f35b34801561041557600080fd5b5061041e610e14565b6040518082815260200191505060405180910390f35b34801561044057600080fd5b50610449610e1a565b604051808273ffffffffffffffffffffffffffffffffffffffff1673ffffffffffffffffffffffffffffffffffffffff16815260200191505060405180910390f35b34801561049757600080fd5b5061050c600480360381019080803573ffffffffffffffffffffffffffffffffffffffff169060200190929190803573ffffffffffffffffffffffffffffffffffffffff169060200190929190803573ffffffffffffffffffffffffffffffffffffffff169060200190929190505050610e40565b005b34801561051a57600080fd5b50610523610f63565b005b34801561053157600080fd5b5061053a611065565b6040518082815260200191505060405180910390f35b34801561055c57600080fd5b5061056561106b565b6040518082815260200191505060405180910390f35b34801561058757600080fd5b50610590611071565b604051808273ffffffffffffffffffffffffffffffffffffffff1673ffffffffffffffffffffffffffffffffffffffff16815260200191505060405180910390f35b3480156105de57600080fd5b50610659600480360381019080803590602001908201803590602001908080601f0160208091040260200160405190810160405280939291908181526020018383808284378201915050505050509192919290803573ffffffffffffffffffffffffffffffffffffffff169060200190929190505050611096565b005b34801561066757600080fd5b5061067061153d565b6040518082815260200191505060405180910390f35b34801561069257600080fd5b506106c7600480360381019080803573ffffffffffffffffffffffffffffffffffffffff169060200190929190505050611543565b005b3480156106d557600080fd5b50610770600480360381019080803573ffffffffffffffffffffffffffffffffffffffff169060200190929190803573ffffffffffffffffffffffffffffffffffffffff169060200190929190803590602001908201803590602001908080601f01602080910402602001604051908101604052809392919081815260200183838082843782019150505050505091929192905050506115e2565b005b34801561077e57600080fd5b50610787611808565b6040518082815260200191505060405180910390f35b3480156107a957600080fd5b506107de600480360381019080803573ffffffffffffffffffffffffffffffffffffffff16906020019092919050505061180e565b005b3480156107ec57600080fd5b506107f56118ad565b6040518080602001828103825283818151815260200191508051906020019060200280838360005b8381101561083857808201518184015260208101905061081d565b505050509050019250505060405180910390f35b34801561085857600080fd5b50610861611942565b604051808273ffffffffffffffffffffffffffffffffffffffff1673ffffffffffffffffffffffffffffffffffffffff16815260200191505060405180910390f35b3480156108af57600080fd5b506108b8611968565b604051808273ffffffffffffffffffffffffffffffffffffffff1673ffffffffffffffffffffffffffffffffffffffff16815260200191505060405180910390f35b34801561090657600080fd5b5061093b600480360381019080803573ffffffffffffffffffffffffffffffffffffffff16906020019092919050505061198e565b005b34801561094957600080fd5b506109526119f5565b604051808273ffffffffffffffffffffffffffffffffffffffff1673ffffffffffffffffffffffffffffffffffffffff16815260200191505060405180910390f35b3480156109a057600080fd5b506109a9611a1b565b6040518082815260200191505060405180910390f35b600260009054906101000a900473ffffffffffffffffffffffffffffffffffffffff1673ffffffffffffffffffffffffffffffffffffffff1663afa879d133836040518363ffffffff167c0100000000000000000000000000000000000000000000000000000000028152600401808373ffffffffffffffffffffffffffffffffffffffff1673ffffffffffffffffffffffffffffffffffffffff16815260200180602001828103825283818151815260200191508051906020019080838360005b83811015610a9c578082015181840152602081019050610a81565b50505050905090810190601f168015610ac95780820380516001836020036101000a031916815260200191505b509350505050600060405180830381600087803b158015610ae957600080fd5b505af1158015610afd573d6000803e3d6000fd5b505050507fbe4ec58a792f909e102ee3d745d0c3b34a4d437a54d903c4db098d31c556422f33604051808273ffffffffffffffffffffffffffffffffffffffff1673ffffffffffffffffffffffffffffffffffffffff16815260200191505060405180910390a150565b600e81815481101515610b7657fe5b9060005260206000209060050201600091509050806000018054600181600116156101000203166002900480601f016020809104026020016040519081016040528092919081815260200182805460018160011615610100020316600290048015610c225780601f10610bf757610100808354040283529160200191610c22565b820191906000526020600020905b815481529060010190602001808311610c0557829003601f168201915b5050505050908060010160009054906101000a900460ff16908060010160019054906101000a900460ff16908060020154905084565b60006011826040518082805190602001908083835b602083101515610c925780518252602082019150602081019050602083039250610c6d565b6001836020036101000a0380198251168184511680821785525050505050509050019150509081526020016040518091039020549050919050565b600a5481565b60085481565b600360009054906101000a900473ffffffffffffffffffffffffffffffffffffffff1681565b600060011515600260009054906101000a900473ffffffffffffffffffffffffffffffffffffffff1673ffffffffffffffffffffffffffffffffffffffff1663aaa746bb846040518263ffffffff167c0100000000000000000000000000000000000000000000000000000000028152600401808273ffffffffffffffffffffffffffffffffffffffff1673ffffffffffffffffffffffffffffffffffffffff168152602001915050602060405180830381600087803b158015610dc257600080fd5b505af1158015610dd6573d6000803e3d6000fd5b505050506040513d6020811015610dec57600080fd5b810190808051906020019092919050505015151415610e0e5760019050610e0f565b5b919050565b60055481565b600160009054906101000a900473ffffffffffffffffffffffffffffffffffffffff1681565b6000809054906101000a900473ffffffffffffffffffffffffffffffffffffffff1673ffffffffffffffffffffffffffffffffffffffff163373ffffffffffffffffffffffffffffffffffffffff16141515610e9b57600080fd5b82600260006101000a81548173ffffffffffffffffffffffffffffffffffffffff021916908373ffffffffffffffffffffffffffffffffffffffff16021790555081600160006101000a81548173ffffffffffffffffffffffffffffffffffffffff021916908373ffffffffffffffffffffffffffffffffffffffff16021790555080600360006101000a81548173ffffffffffffffffffffffffffffffffffffffff021916908373ffffffffffffffffffffffffffffffffffffffff160217905550505050565b6000809054906101000a900473ffffffffffffffffffffffffffffffffffffffff1673ffffffffffffffffffffffffffffffffffffffff163373ffffffffffffffffffffffffffffffffffffffff16141515610fbe57600080fd5b6000809054906101000a900473ffffffffffffffffffffffffffffffffffffffff1673ffffffffffffffffffffffffffffffffffffffff167ff8df31144d9c2f0f6b59d69b8b98abd5459d07f2742c4df920b25aae33c6482060405160405180910390a260008060006101000a81548173ffffffffffffffffffffffffffffffffffffffff021916908373ffffffffffffffffffffffffffffffffffffffff160217905550565b60075481565b600c5481565b6000809054906101000a900473ffffffffffffffffffffffffffffffffffffffff1681565b68056bc75e2d63100000600160009054906101000a900473ffffffffffffffffffffffffffffffffffffffff1673ffffffffffffffffffffffffffffffffffffffff166370a08231336040518263ffffffff167c0100000000000000000000000000000000000000000000000000000000028152600401808273ffffffffffffffffffffffffffffffffffffffff1673ffffffffffffffffffffffffffffffffffffffff168152602001915050602060405180830381600087803b15801561115d57600080fd5b505af1158015611171573d6000803e3d6000fd5b505050506040513d602081101561118757600080fd5b8101908080519060200190929190505050101515156111a557600080fd5b600260009054906101000a900473ffffffffffffffffffffffffffffffffffffffff1673ffffffffffffffffffffffffffffffffffffffff16637130c2413368056bc75e2d631000006040518363ffffffff167c0100000000000000000000000000000000000000000000000000000000028152600401808373ffffffffffffffffffffffffffffffffffffffff1673ffffffffffffffffffffffffffffffffffffffff16815260200182815260200192505050600060405180830381600087803b15801561127357600080fd5b505af1158015611287573d6000803e3d6000fd5b50505050600260009054906101000a900473ffffffffffffffffffffffffffffffffffffffff1673ffffffffffffffffffffffffffffffffffffffff166396a56f5b33836040518363ffffffff167c0100000000000000000000000000000000000000000000000000000000028152600401808373ffffffffffffffffffffffffffffffffffffffff1673ffffffffffffffffffffffffffffffffffffffff1681526020018273ffffffffffffffffffffffffffffffffffffffff1673ffffffffffffffffffffffffffffffffffffffff16815260200192505050600060405180830381600087803b15801561137c57600080fd5b505af1158015611390573d6000803e3d6000fd5b50505050600260009054906101000a900473ffffffffffffffffffffffffffffffffffffffff1673ffffffffffffffffffffffffffffffffffffffff1663afa879d133846040518363ffffffff167c0100000000000000000000000000000000000000000000000000000000028152600401808373ffffffffffffffffffffffffffffffffffffffff1673ffffffffffffffffffffffffffffffffffffffff16815260200180602001828103825283818151815260200191508051906020019080838360005b83811015611471578082015181840152602081019050611456565b50505050905090810190601f16801561149e5780820380516001836020036101000a031916815260200191505b509350505050600060405180830381600087803b1580156114be57600080fd5b505af11580156114d2573d6000803e3d6000fd5b505050507fb4dcb6dd550f27b5917ebf674899ea7046ff91790c6f9f01431617ad39819db233604051808273ffffffffffffffffffffffffffffffffffffffff1673ffffffffffffffffffffffffffffffffffffffff16815260200191505060405180910390a15050565b600b5481565b6000809054906101000a900473ffffffffffffffffffffffffffffffffffffffff1673ffffffffffffffffffffffffffffffffffffffff163373ffffffffffffffffffffffffffffffffffffffff1614151561159e57600080fd5b80600d60006101000a81548173ffffffffffffffffffffffffffffffffffffffff021916908373ffffffffffffffffffffffffffffffffffffffff16021790555050565b600d60009054906101000a900473ffffffffffffffffffffffffffffffffffffffff1673ffffffffffffffffffffffffffffffffffffffff163373ffffffffffffffffffffffffffffffffffffffff1614151561163e57600080fd5b62f0c8a060095401421115151561165457600080fd5b61165e8383611a21565b600260009054906101000a900473ffffffffffffffffffffffffffffffffffffffff1673ffffffffffffffffffffffffffffffffffffffff1663afa879d184836040518363ffffffff167c0100000000000000000000000000000000000000000000000000000000028152600401808373ffffffffffffffffffffffffffffffffffffffff1673ffffffffffffffffffffffffffffffffffffffff16815260200180602001828103825283818151815260200191508051906020019080838360005b8381101561173b578082015181840152602081019050611720565b50505050905090810190601f1680156117685780820380516001836020036101000a031916815260200191505b509350505050600060405180830381600087803b15801561178857600080fd5b505af115801561179c573d6000803e3d6000fd5b505050507fb4dcb6dd550f27b5917ebf674899ea7046ff91790c6f9f01431617ad39819db283604051808273ffffffffffffffffffffffffffffffffffffffff1673ffffffffffffffffffffffffffffffffffffffff16815260200191505060405180910390a1505050565b60065481565b6000809054906101000a900473ffffffffffffffffffffffffffffffffffffffff1673ffffffffffffffffffffffffffffffffffffffff163373ffffffffffffffffffffffffffffffffffffffff1614151561186957600080fd5b80600460006101000a81548173ffffffffffffffffffffffffffffffffffffffff021916908373ffffffffffffffffffffffffffffffffffffffff16021790555050565b6060601260003373ffffffffffffffffffffffffffffffffffffffff1673ffffffffffffffffffffffffffffffffffffffff16815260200190815260200160002080548060200260200160405190810160405280929190818152602001828054801561193857602002820191906000526020600020905b815481526020019060010190808311611924575b5050505050905090565b600260009054906101000a900473ffffffffffffffffffffffffffffffffffffffff1681565b600d60009054906101000a900473ffffffffffffffffffffffffffffffffffffffff1681565b6000809054906101000a900473ffffffffffffffffffffffffffffffffffffffff1673ffffffffffffffffffffffffffffffffffffffff163373ffffffffffffffffffffffffffffffffffffffff161415156119e957600080fd5b6119f281611b2e565b50565b600460009054906101000a900473ffffffffffffffffffffffffffffffffffffffff1681565b60095481565b600260009054906101000a900473ffffffffffffffffffffffffffffffffffffffff1673ffffffffffffffffffffffffffffffffffffffff166396a56f5b83836040518363ffffffff167c0100000000000000000000000000000000000000000000000000000000028152600401808373ffffffffffffffffffffffffffffffffffffffff1673ffffffffffffffffffffffffffffffffffffffff1681526020018273ffffffffffffffffffffffffffffffffffffffff1673ffffffffffffffffffffffffffffffffffffffff16815260200192505050600060405180830381600087803b158015611b1257600080fd5b505af1158015611b26573d6000803e3d6000fd5b505050505050565b600073ffffffffffffffffffffffffffffffffffffffff168173ffffffffffffffffffffffffffffffffffffffff1614151515611b6a57600080fd5b8073ffffffffffffffffffffffffffffffffffffffff166000809054906101000a900473ffffffffffffffffffffffffffffffffffffffff1673ffffffffffffffffffffffffffffffffffffffff167f8be0079c531659141344cd1fd0a4f28419497f9722a3daafe3b4186f6b6457e060405160405180910390a3806000806101000a81548173ffffffffffffffffffffffffffffffffffffffff021916908373ffffffffffffffffffffffffffffffffffffffff160217905550505600a165627a7a723058202e12e20a1259d9c09658362c5ec682972c76e432006ab893b4e9f1a3ca4387530029",
  "source": "pragma solidity ^0.4.21;\nimport \"zeppelin-solidity/contracts/ownership/Ownable.sol\";\n////////////////////////////////////////////////////////////////////////////////////////////\n/// @title Interface Contract for the CryptoPatent Blockchain\n/// @author DecentraCorp\n/// @notice this contract is built using the Ownership contract from the zeppelin-solidity library\n/// @dev All function calls are currently implement without side effects\n////////////////////////////////////////////////////////////////////////////////////////////\ncontract DecentraCorpPoA {\n  function proxyIDCMint(address _add, uint _amount) external;\n  function proxyIDCBurn(address _add, uint _amount) external;\n  function proxyCCMint(address _add, uint _amount) external;\n  function proxyCCBurn(address _add, uint _amount) external;\n  function generateIdeaBlock(string _ideaIPFS, uint _globalUseBlockAmount, uint miningTime, uint _royalty, address _inventorsAddress, address _invention) external;\n  function replicationBlock(uint _ideaId, address _repAdd, address _replicatorAdd) external;\n  function generateGUSBlock(address _replicationOwner) external;\n  function _addMember(address _mem, address _facility) external;\n  function _checkIfMember(address _member) public view returns(bool);\n  function getMemberCount() public view returns(uint);\n  function increaseMemLev(address _add) external;\n  function increaseFacilityRank(address _facAdd, uint _amount) public;\n  function setProfileHash(address _add, string _hash) public;\n  function addNewInvention(address _newInvention) external ;\n  function getFecilityOfMember(address _mem) public view returns(address);\n}\n/// DecentraCorp PoA inteface\n////////////////////////////////////////////////////////////////////////////////////////////\ncontract IdeaCoin {\n    function balanceOf(address _addr) public constant returns (uint);\n    function totalSupply() public constant returns (uint);\n}\n/// IdeaCoin interface\n/////////////////////////////////////////////////////////////////////////////////////////////\ncontract CryptoPatentBlockGenerator {\n    function balanceOf(address _owner) public view returns (uint256);\n    function getGlobalUseBlockAmount(uint _ideaId) public view returns(uint);\n    function getRoyalty(uint _ideaId) public view returns(uint);\n    function getInventor(uint _ideaId) public view returns(address);\n    function getIdeaMiningTime(uint _ideaId) public view returns(uint);\n    function getBlockReward(address _repAdd) public view returns(uint);\n    function getOwnersAddress(address _repAdd) public view returns(address);\n    function getIdeaID(address _repAdd) public view returns(uint);\n    function getInventorsAddress(address _repAdd) public view returns(address);\n    function getReplicationAddress(address _repAdd) public view returns(address);\n    function getRoyalty(address _repAdd) public view returns(uint);\n    function getRepID(address _repAdd) public view returns(uint);\n    function checkIfRep(address _add) external view returns(bool);\n    function getNumOfReps(address _add, uint _ideaId) external view returns(uint);\n    function getRepTotal(uint _ideaId) external view returns(uint);\n    function safeTransfer(address _from, address _to, uint _tokenId) public;\n    function setRepMiningTime(address _repAdd) external;\n\n}\n/// Block Generator interface\n/////////////////////////////////////////////////////////////////////////////////////////////\n  contract RelayedOwnedSet {\n    \tfunction addValidator(address _validator) external;\n  }\n/// Validator contract interface\n/////////////////////////////////////////////////////////////////////////////////////////////\n\n/// @author Christopher Dixon\n/// @notice contract Interface is the first contract in the CryptoPatent Blockchain\n/// @dev this contract is ment to set up the needed global variables as well as house various membership related functions\n/// @dev for whatever reason, having the membership logic in the DCPoA contract causes truffle not to deploy properly(gas) remix works fine\ncontract Interface is Ownable {\n  IdeaCoin public IDC;\n  DecentraCorpPoA public DCPoA;\n  CryptoPatentBlockGenerator public CPBG;\n  RelayedOwnedSet public Validators;\n  ///@param above turn each interface into a useable variable\n\n  ///@param globalIdeaCount tracks amount of ideas on the CryptoPatent Blockchain\n  ///@param globalRepCount tracks the total number of replications on the CryptoPatent Blockchain\n  ///@param memberCount tracks the total number of CryptoGrow members\n  ///@param globalUseBlock tracks global use blocks\n  ///@param globalBlockHalfTime used to track when the ideaBlockReward should be halved\n  ///@param ideaBlockReward set to 1000 IDC\n  ///@param repStake set to 100 IDC\n  ///@param minimumQuorum used to  track quorum info\n  uint public globalIdeaCount;\n  uint public globalRepCount;\n  uint public globalUseBlock;\n  uint public globalBlockHalfTime;\n  uint public buyMemWindow;\n  uint public ideaBlockReward = 1000000000000000000000;\n  uint public repStake = 100000000000000000000;\n  uint public minimumQuorum;\n  address public CrossChainInfoBridge;\n\n  ///@param IdeaProposal array of idea proposals\n  IdeaProposal[] public proposals;\n\n\n  ///@param weightTracker tracks current global highest weight\n  ///@param localWeightTracker maps a replications address to its replication ID and stores that replications current weight\n  ///@param members tracks if an address is a member\n  ///@param memberRank tracks a members rank\n  ///@param getHash maps ipfs hash to its token ID\n  mapping (uint => uint) weightTracker;\n  mapping (address => mapping (uint => uint)) localWeightTracker;\n  mapping(string => uint) getHash;\n  mapping(address => uint[]) getTokens;\n  mapping(address => bool) inventions;\n  mapping(address => uint) localMiningtimeTracker;\n\n\n  event IdeaProposed(string IdeaHash);\n  event IdeaApproved(string _ideahash);\n  event Voted(address _voter, bool inSupport);\n  event NewMember(address member);\n  event NewReplication(address _repAdd);\n  event ProfileUpdated(address updatedAccount);\n  event LocalUseWeight(address repAdd, uint repWeight);\n  event GlobalUseBlock(address repAdd, uint ideaId);\n\n///@struct IdeaProposal stores info of a proposal\nstruct IdeaProposal {\n     string IdeaIPFS;\n     bool executed;\n     bool proposalPassed;\n     uint numberOfVotes;\n     Vote[] votes;\n     mapping (address => bool) voted;\n }\n //@struct Vote stores an individuals vote in an array in an Idea Proposal\n  struct Vote {\n          bool inSupport;\n          address voter;\n  }\n\n\n\n\n//@modifier requires that the address calling a function is a member of DecentraCorp\n  modifier onlyMember() {\n    require(checkIfMember(msg.sender) == true);\n    _;\n  }\n\n  //@modifier requires that the address calling a function is a member of DecentraCorp\n    modifier onlyCIB() {\n      require(msg.sender == CrossChainInfoBridge);\n      _;\n    }\n\n///@notice calculatePromo function calculates the promotion a miner receives for having multiples of the same type of replication\n///@dev calculatePromo takes in a block Reward and an idea ID to retun a specific block reward\n  function calculatePromo(uint _blockReward, uint _ideaId) internal view returns(uint) {\n    uint numberOfReps =  CPBG.getNumOfReps( msg.sender,  _ideaId);\n    uint tenthReward = (_blockReward/ 10);\n    uint modulator = tenthReward * numberOfReps;\n    uint blockReward = _blockReward + modulator;\n    return blockReward;\n  }\n\n///@notice addMember function is an internal function for adding a member to decentracorp\n///@dev addMember takes in an address _mem, sets its membership to true and increments their rank by one\n  function addMember(address _mem, address _facility) internal {\n    DCPoA._addMember(_mem, _facility);\n  }\n\n///@notice buyMembership function allows for the purchase of a membership for 6 months after official launch.\n///@dev mints the user 10,000 IDC\n  function buyMembership(address _newMem, address _facility, string _hash) public onlyCIB{\n    require(now <= buyMemWindow + 15780000 seconds);\n    addMember(_newMem, _facility);\n    DCPoA.setProfileHash(_newMem, _hash);\n    emit NewMember(_newMem);\n  }\n\n///@notice setGenerators function takes in addresses of various contracts the CryptoPatent Blockchain inteacts with\n///@dev setGenerators takes in these addresses automagically through truffle migrations\n  function setGenerators(\n    DecentraCorpPoA _dcpoa,\n    IdeaCoin _IDC,\n    CryptoPatentBlockGenerator  _CPBG\n    )\n    public\n    onlyOwner\n    {\n      DCPoA = DecentraCorpPoA(_dcpoa);\n      IDC = IdeaCoin(_IDC);\n      CPBG =(_CPBG);\n    }\n\n\n///@notice checkIfMember function allowsother contracts/front end to check if an address is a member\n///@dev checkIfMember takes in\nfunction checkIfMember(address _member) public view returns(bool) {\n  if( DCPoA._checkIfMember( _member) == true ) {\n    return true;\n  }\n}\n\nfunction updateProfile(string _newHash) public {\n    DCPoA.setProfileHash(msg.sender, _newHash);\n    emit ProfileUpdated(msg.sender);\n}\n\n  ///@notice getPropID function allows one to rerieve a proposal ID by its ipfs hash\n  ///@dev getPropID is made for easier front end interaction\n  function getPropID(string hash) public view returns(uint){\n    return getHash[hash];\n  }\n\n///@notice stakeReplicatorWallet function allows for the activation of a replication wallet by\n///        burning IdeaCoin from the msg.sender\n///@dev stakeReplicatorWallet costs 100 IDC and burns them from existence\n  function stakeReplicatorWallet(string _hash, address _facility) public {\n    require(IDC.balanceOf(msg.sender) >= 100000000000000000000);\n    DCPoA.proxyIDCBurn(msg.sender, 100000000000000000000);\n    DCPoA._addMember(msg.sender, _facility);\n    DCPoA.setProfileHash(msg.sender, _hash);\n    emit NewMember(msg.sender);\n  }\n\n///@notice getIdeasOwner function returns what tokens the msg.sender owns\n///@dev getIdeasOwner returns an array of uints\n  function getIdeasOwner() public view returns(uint[]){\n    return getTokens[msg.sender];\n  }\n\n  function setValidatorContract(address _valCon) public onlyOwner {\n        Validators = RelayedOwnedSet(_valCon);\n  }\n\n  function setCIB(address _CIB) public onlyOwner {\n  CrossChainInfoBridge = _CIB;\n  }\n\n}\n",
  "sourcePath": "/home/stan36/repos/DecentraCorp/contracts/CryptoPatent/Interface.sol",
  "compiler": {
    "name": "solc",
    "version": "0.4.24+commit.e67f0147.Emscripten.clang"
  },
  "schemaVersion": "2.0.1",
  "updatedAt": "2019-03-05T01:03:20.793Z"
}