{
  "contractName": "Interface",
  "abi": [
    {
      "constant": true,
      "inputs": [
        {
          "name": "",
          "type": "uint256"
        }
      ],
      "name": "proposals",
      "outputs": [
        {
          "name": "IdeaIPFS",
          "type": "string"
        },
        {
          "name": "executed",
          "type": "bool"
        },
        {
          "name": "proposalPassed",
          "type": "bool"
        },
        {
          "name": "numberOfVotes",
          "type": "uint256"
        }
      ],
      "payable": false,
      "stateMutability": "view",
      "type": "function"
    },
    {
      "constant": true,
      "inputs": [],
      "name": "ideaBlockReward",
      "outputs": [
        {
          "name": "",
          "type": "uint256"
        }
      ],
      "payable": false,
      "stateMutability": "view",
      "type": "function"
    },
    {
      "constant": true,
      "inputs": [],
      "name": "globalBlockHalfTime",
      "outputs": [
        {
          "name": "",
          "type": "uint256"
        }
      ],
      "payable": false,
      "stateMutability": "view",
      "type": "function"
    },
    {
      "constant": true,
      "inputs": [],
      "name": "CPBG",
      "outputs": [
        {
          "name": "",
          "type": "address"
        }
      ],
      "payable": false,
      "stateMutability": "view",
      "type": "function"
    },
    {
      "constant": true,
      "inputs": [],
      "name": "globalIdeaCount",
      "outputs": [
        {
          "name": "",
          "type": "uint256"
        }
      ],
      "payable": false,
      "stateMutability": "view",
      "type": "function"
    },
    {
      "constant": true,
      "inputs": [],
      "name": "IDC",
      "outputs": [
        {
          "name": "",
          "type": "address"
        }
      ],
      "payable": false,
      "stateMutability": "view",
      "type": "function"
    },
    {
      "constant": false,
      "inputs": [],
      "name": "renounceOwnership",
      "outputs": [],
      "payable": false,
      "stateMutability": "nonpayable",
      "type": "function"
    },
    {
      "constant": true,
      "inputs": [],
      "name": "globalUseBlock",
      "outputs": [
        {
          "name": "",
          "type": "uint256"
        }
      ],
      "payable": false,
      "stateMutability": "view",
      "type": "function"
    },
    {
      "constant": true,
      "inputs": [],
      "name": "minimumQuorum",
      "outputs": [
        {
          "name": "",
          "type": "uint256"
        }
      ],
      "payable": false,
      "stateMutability": "view",
      "type": "function"
    },
    {
      "constant": true,
      "inputs": [],
      "name": "owner",
      "outputs": [
        {
          "name": "",
          "type": "address"
        }
      ],
      "payable": false,
      "stateMutability": "view",
      "type": "function"
    },
    {
      "constant": true,
      "inputs": [],
      "name": "repStake",
      "outputs": [
        {
          "name": "",
          "type": "uint256"
        }
      ],
      "payable": false,
      "stateMutability": "view",
      "type": "function"
    },
    {
      "constant": true,
      "inputs": [],
      "name": "globalRepCount",
      "outputs": [
        {
          "name": "",
          "type": "uint256"
        }
      ],
      "payable": false,
      "stateMutability": "view",
      "type": "function"
    },
    {
      "constant": true,
      "inputs": [],
      "name": "DCPoA",
      "outputs": [
        {
          "name": "",
          "type": "address"
        }
      ],
      "payable": false,
      "stateMutability": "view",
      "type": "function"
    },
    {
      "constant": true,
      "inputs": [
        {
          "name": "",
          "type": "uint256"
        }
      ],
      "name": "inventions",
      "outputs": [
        {
          "name": "",
          "type": "address"
        }
      ],
      "payable": false,
      "stateMutability": "view",
      "type": "function"
    },
    {
      "constant": false,
      "inputs": [
        {
          "name": "_newOwner",
          "type": "address"
        }
      ],
      "name": "transferOwnership",
      "outputs": [],
      "payable": false,
      "stateMutability": "nonpayable",
      "type": "function"
    },
    {
      "anonymous": false,
      "inputs": [
        {
          "indexed": false,
          "name": "IdeaHash",
          "type": "string"
        }
      ],
      "name": "IdeaProposed",
      "type": "event"
    },
    {
      "anonymous": false,
      "inputs": [
        {
          "indexed": false,
          "name": "_ideahash",
          "type": "string"
        }
      ],
      "name": "IdeaApproved",
      "type": "event"
    },
    {
      "anonymous": false,
      "inputs": [
        {
          "indexed": false,
          "name": "_voter",
          "type": "address"
        },
        {
          "indexed": false,
          "name": "inSupport",
          "type": "bool"
        }
      ],
      "name": "Voted",
      "type": "event"
    },
    {
      "anonymous": false,
      "inputs": [
        {
          "indexed": false,
          "name": "member",
          "type": "address"
        }
      ],
      "name": "NewMember",
      "type": "event"
    },
    {
      "anonymous": false,
      "inputs": [
        {
          "indexed": false,
          "name": "_repAdd",
          "type": "address"
        }
      ],
      "name": "NewReplication",
      "type": "event"
    },
    {
      "anonymous": false,
      "inputs": [
        {
          "indexed": true,
          "name": "previousOwner",
          "type": "address"
        }
      ],
      "name": "OwnershipRenounced",
      "type": "event"
    },
    {
      "anonymous": false,
      "inputs": [
        {
          "indexed": true,
          "name": "previousOwner",
          "type": "address"
        },
        {
          "indexed": true,
          "name": "newOwner",
          "type": "address"
        }
      ],
      "name": "OwnershipTransferred",
      "type": "event"
    },
    {
      "constant": false,
      "inputs": [],
      "name": "buyMembership",
      "outputs": [],
      "payable": true,
      "stateMutability": "payable",
      "type": "function"
    },
    {
      "constant": false,
      "inputs": [
        {
          "name": "_dcpoa",
          "type": "address"
        },
        {
          "name": "_IDC",
          "type": "address"
        },
        {
          "name": "_CPBG",
          "type": "address"
        }
      ],
      "name": "setGenerators",
      "outputs": [],
      "payable": false,
      "stateMutability": "nonpayable",
      "type": "function"
    },
    {
      "constant": true,
      "inputs": [
        {
          "name": "_member",
          "type": "address"
        }
      ],
      "name": "checkIfMember",
      "outputs": [
        {
          "name": "",
          "type": "bool"
        }
      ],
      "payable": false,
      "stateMutability": "view",
      "type": "function"
    },
    {
      "constant": true,
      "inputs": [
        {
          "name": "hash",
          "type": "string"
        }
      ],
      "name": "getPropID",
      "outputs": [
        {
          "name": "",
          "type": "uint256"
        }
      ],
      "payable": false,
      "stateMutability": "view",
      "type": "function"
    },
    {
      "constant": false,
      "inputs": [],
      "name": "stakeReplicatorWallet",
      "outputs": [],
      "payable": false,
      "stateMutability": "nonpayable",
      "type": "function"
    },
    {
      "constant": true,
      "inputs": [],
      "name": "getIdeasOwner",
      "outputs": [
        {
          "name": "",
          "type": "uint256[]"
        }
      ],
      "payable": false,
      "stateMutability": "view",
      "type": "function"
    }
  ],
  "bytecode": "0x6080604052683635c9adc5dea0000060085568056bc75e2d63100000600955336000806101000a81548173ffffffffffffffffffffffffffffffffffffffff021916908373ffffffffffffffffffffffffffffffffffffffff1602179055506114678061006d6000396000f30060806040526004361061011d576000357c0100000000000000000000000000000000000000000000000000000000900463ffffffff168063013cf08b1461012257806310734e43146101e557806318da0e63146102625780631ddc883b1461027957806328a6e47c146102a45780633c91f273146102cf5780634951f6aa146103265780634cfa24091461038157806352d2c11d146103ac5780635c581119146104035780636da23e401461040d578063715018a61461049057806375824974146104a75780638160f0b5146104d25780638da5cb5b146104fd5780639f7d892914610554578063be6cbbcf1461057f578063daeac7b9146105aa578063e026daa114610616578063e4fd45241461066d578063f2fde38b146106da575b600080fd5b34801561012e57600080fd5b5061014d6004803603810190808035906020019092919050505061071d565b60405180806020018515151515815260200184151515158152602001838152602001828103825286818151815260200191508051906020019080838360005b838110156101a757808201518184015260208101905061018c565b50505050905090810190601f1680156101d45780820380516001836020036101000a031916815260200191505b509550505050505060405180910390f35b3480156101f157600080fd5b5061024c600480360381019080803590602001908201803590602001908080601f016020809104026020016040519081016040528093929190818152602001838380828437820191505050505050919291929050505061080e565b6040518082815260200191505060405180910390f35b34801561026e57600080fd5b50610277610883565b005b34801561028557600080fd5b5061028e610bb2565b6040518082815260200191505060405180910390f35b3480156102b057600080fd5b506102b9610bb8565b6040518082815260200191505060405180910390f35b3480156102db57600080fd5b506102e4610bbe565b604051808273ffffffffffffffffffffffffffffffffffffffff1673ffffffffffffffffffffffffffffffffffffffff16815260200191505060405180910390f35b34801561033257600080fd5b50610367600480360381019080803573ffffffffffffffffffffffffffffffffffffffff169060200190929190505050610be4565b604051808215151515815260200191505060405180910390f35b34801561038d57600080fd5b50610396610cf9565b6040518082815260200191505060405180910390f35b3480156103b857600080fd5b506103c1610cff565b604051808273ffffffffffffffffffffffffffffffffffffffff1673ffffffffffffffffffffffffffffffffffffffff16815260200191505060405180910390f35b61040b610d25565b005b34801561041957600080fd5b5061048e600480360381019080803573ffffffffffffffffffffffffffffffffffffffff169060200190929190803573ffffffffffffffffffffffffffffffffffffffff169060200190929190803573ffffffffffffffffffffffffffffffffffffffff169060200190929190505050610ea7565b005b34801561049c57600080fd5b506104a5610fca565b005b3480156104b357600080fd5b506104bc6110cc565b6040518082815260200191505060405180910390f35b3480156104de57600080fd5b506104e76110d2565b6040518082815260200191505060405180910390f35b34801561050957600080fd5b506105126110d8565b604051808273ffffffffffffffffffffffffffffffffffffffff1673ffffffffffffffffffffffffffffffffffffffff16815260200191505060405180910390f35b34801561056057600080fd5b506105696110fd565b6040518082815260200191505060405180910390f35b34801561058b57600080fd5b50610594611103565b6040518082815260200191505060405180910390f35b3480156105b657600080fd5b506105bf611109565b6040518080602001828103825283818151815260200191508051906020019060200280838360005b838110156106025780820151818401526020810190506105e7565b505050509050019250505060405180910390f35b34801561062257600080fd5b5061062b61119e565b604051808273ffffffffffffffffffffffffffffffffffffffff1673ffffffffffffffffffffffffffffffffffffffff16815260200191505060405180910390f35b34801561067957600080fd5b50610698600480360381019080803590602001909291905050506111c4565b604051808273ffffffffffffffffffffffffffffffffffffffff1673ffffffffffffffffffffffffffffffffffffffff16815260200191505060405180910390f35b3480156106e657600080fd5b5061071b600480360381019080803573ffffffffffffffffffffffffffffffffffffffff169060200190929190505050611202565b005b600b8181548110151561072c57fe5b9060005260206000209060050201600091509050806000018054600181600116156101000203166002900480601f0160208091040260200160405190810160405280929190818152602001828054600181600116156101000203166002900480156107d85780601f106107ad576101008083540402835291602001916107d8565b820191906000526020600020905b8154815290600101906020018083116107bb57829003601f168201915b5050505050908060010160009054906101000a900460ff16908060010160019054906101000a900460ff16908060020154905084565b6000600f826040518082805190602001908083835b6020831015156108485780518252602082019150602081019050602083039250610823565b6001836020036101000a0380198251168184511680821785525050505050509050019150509081526020016040518091039020549050919050565b68056bc75e2d63100000600160009054906101000a900473ffffffffffffffffffffffffffffffffffffffff1673ffffffffffffffffffffffffffffffffffffffff166370a08231336040518263ffffffff167c0100000000000000000000000000000000000000000000000000000000028152600401808273ffffffffffffffffffffffffffffffffffffffff1673ffffffffffffffffffffffffffffffffffffffff168152602001915050602060405180830381600087803b15801561094a57600080fd5b505af115801561095e573d6000803e3d6000fd5b505050506040513d602081101561097457600080fd5b81019080805190602001909291905050501015151561099257600080fd5b600260009054906101000a900473ffffffffffffffffffffffffffffffffffffffff1673ffffffffffffffffffffffffffffffffffffffff16637130c2413368056bc75e2d631000006040518363ffffffff167c0100000000000000000000000000000000000000000000000000000000028152600401808373ffffffffffffffffffffffffffffffffffffffff1673ffffffffffffffffffffffffffffffffffffffff16815260200182815260200192505050600060405180830381600087803b158015610a6057600080fd5b505af1158015610a74573d6000803e3d6000fd5b50505050600260009054906101000a900473ffffffffffffffffffffffffffffffffffffffff1673ffffffffffffffffffffffffffffffffffffffff16631d40bbcf336040518263ffffffff167c0100000000000000000000000000000000000000000000000000000000028152600401808273ffffffffffffffffffffffffffffffffffffffff1673ffffffffffffffffffffffffffffffffffffffff168152602001915050600060405180830381600087803b158015610b3557600080fd5b505af1158015610b49573d6000803e3d6000fd5b505050507fb4dcb6dd550f27b5917ebf674899ea7046ff91790c6f9f01431617ad39819db233604051808273ffffffffffffffffffffffffffffffffffffffff1673ffffffffffffffffffffffffffffffffffffffff16815260200191505060405180910390a1565b60085481565b60075481565b600360009054906101000a900473ffffffffffffffffffffffffffffffffffffffff1681565b600060011515600260009054906101000a900473ffffffffffffffffffffffffffffffffffffffff1673ffffffffffffffffffffffffffffffffffffffff1663aaa746bb846040518263ffffffff167c0100000000000000000000000000000000000000000000000000000000028152600401808273ffffffffffffffffffffffffffffffffffffffff1673ffffffffffffffffffffffffffffffffffffffff168152602001915050602060405180830381600087803b158015610ca757600080fd5b505af1158015610cbb573d6000803e3d6000fd5b505050506040513d6020811015610cd157600080fd5b810190808051906020019092919050505015151415610cf35760019050610cf4565b5b919050565b60045481565b600160009054906101000a900473ffffffffffffffffffffffffffffffffffffffff1681565b62f0c8a0600754014211151515610d3b57600080fd5b670de0b6b3a76400003410151515610d5257600080fd5b610d5b33611269565b600260009054906101000a900473ffffffffffffffffffffffffffffffffffffffff1673ffffffffffffffffffffffffffffffffffffffff1663d82f980b3369021e19e0c9bab24000006040518363ffffffff167c0100000000000000000000000000000000000000000000000000000000028152600401808373ffffffffffffffffffffffffffffffffffffffff1673ffffffffffffffffffffffffffffffffffffffff16815260200182815260200192505050600060405180830381600087803b158015610e2a57600080fd5b505af1158015610e3e573d6000803e3d6000fd5b505050507fb4dcb6dd550f27b5917ebf674899ea7046ff91790c6f9f01431617ad39819db233604051808273ffffffffffffffffffffffffffffffffffffffff1673ffffffffffffffffffffffffffffffffffffffff16815260200191505060405180910390a1565b6000809054906101000a900473ffffffffffffffffffffffffffffffffffffffff1673ffffffffffffffffffffffffffffffffffffffff163373ffffffffffffffffffffffffffffffffffffffff16141515610f0257600080fd5b82600260006101000a81548173ffffffffffffffffffffffffffffffffffffffff021916908373ffffffffffffffffffffffffffffffffffffffff16021790555081600160006101000a81548173ffffffffffffffffffffffffffffffffffffffff021916908373ffffffffffffffffffffffffffffffffffffffff16021790555080600360006101000a81548173ffffffffffffffffffffffffffffffffffffffff021916908373ffffffffffffffffffffffffffffffffffffffff160217905550505050565b6000809054906101000a900473ffffffffffffffffffffffffffffffffffffffff1673ffffffffffffffffffffffffffffffffffffffff163373ffffffffffffffffffffffffffffffffffffffff1614151561102557600080fd5b6000809054906101000a900473ffffffffffffffffffffffffffffffffffffffff1673ffffffffffffffffffffffffffffffffffffffff167ff8df31144d9c2f0f6b59d69b8b98abd5459d07f2742c4df920b25aae33c6482060405160405180910390a260008060006101000a81548173ffffffffffffffffffffffffffffffffffffffff021916908373ffffffffffffffffffffffffffffffffffffffff160217905550565b60065481565b600a5481565b6000809054906101000a900473ffffffffffffffffffffffffffffffffffffffff1681565b60095481565b60055481565b6060601060003373ffffffffffffffffffffffffffffffffffffffff1673ffffffffffffffffffffffffffffffffffffffff16815260200190815260200160002080548060200260200160405190810160405280929190818152602001828054801561119457602002820191906000526020600020905b815481526020019060010190808311611180575b5050505050905090565b600260009054906101000a900473ffffffffffffffffffffffffffffffffffffffff1681565b600c818154811015156111d357fe5b906000526020600020016000915054906101000a900473ffffffffffffffffffffffffffffffffffffffff1681565b6000809054906101000a900473ffffffffffffffffffffffffffffffffffffffff1673ffffffffffffffffffffffffffffffffffffffff163373ffffffffffffffffffffffffffffffffffffffff1614151561125d57600080fd5b61126681611341565b50565b600260009054906101000a900473ffffffffffffffffffffffffffffffffffffffff1673ffffffffffffffffffffffffffffffffffffffff16631d40bbcf826040518263ffffffff167c0100000000000000000000000000000000000000000000000000000000028152600401808273ffffffffffffffffffffffffffffffffffffffff1673ffffffffffffffffffffffffffffffffffffffff168152602001915050600060405180830381600087803b15801561132657600080fd5b505af115801561133a573d6000803e3d6000fd5b5050505050565b600073ffffffffffffffffffffffffffffffffffffffff168173ffffffffffffffffffffffffffffffffffffffff161415151561137d57600080fd5b8073ffffffffffffffffffffffffffffffffffffffff166000809054906101000a900473ffffffffffffffffffffffffffffffffffffffff1673ffffffffffffffffffffffffffffffffffffffff167f8be0079c531659141344cd1fd0a4f28419497f9722a3daafe3b4186f6b6457e060405160405180910390a3806000806101000a81548173ffffffffffffffffffffffffffffffffffffffff021916908373ffffffffffffffffffffffffffffffffffffffff160217905550505600a165627a7a72305820c822879650f29f3a4a5b55dd61269743612edf062dde6318fba3e7f4cc5b837c0029",
  "source": "pragma solidity ^0.4.21;\nimport \"zeppelin-solidity/contracts/ownership/Ownable.sol\";\n////////////////////////////////////////////////////////////////////////////////////////////\n/// @title Interface Contract for the CryptoPatent Blockchain\n/// @author DecentraCorp\n/// @notice this contract is built using the Ownership contract from the zeppelin-solidity library\n/// @dev All function calls are currently implement without side effects\n////////////////////////////////////////////////////////////////////////////////////////////\ncontract DecentraCorpPoA {\n  function proxyIDCMint(address _add, uint _amount) external;\n  function proxyIDCBurn(address _add, uint _amount) external;\n  function proxyCCMint(address _add, uint _amount) external;\n  function proxyCCBurn(address _add, uint _amount) external;\n  function generateIdeaBlock(string _ideaIPFS, uint _globalUseBlockAmount, uint miningTime, uint _royalty, address _inventorsAddress) external;\n  function replicationBlock(uint _ideaId, address _repAdd, address _replicatorAdd) external;\n  function generateGUSBlock(address _replicationOwner) external;\n  function _addMember(address _mem) external;\n  function _checkIfMember(address _member) public view returns(bool);\n  function getMemberCount() public view returns(uint);\n  function increaseMemRank(address _add) external;\n  function levelUpFacility(address _facAdd) public;\n}\n/// DecentraCorp PoA inteface\n////////////////////////////////////////////////////////////////////////////////////////////\ncontract IdeaCoin {\n    function balanceOf(address _addr) public constant returns (uint);\n    function totalSupply() public constant returns (uint);\n}\n/// IdeaCoin interface\n/////////////////////////////////////////////////////////////////////////////////////////////\ncontract CryptoPatentBlockGenerator {\n    function balanceOf(address _owner) public view returns (uint256);\n    function getGlobalUseBlockAmount(uint _ideaId) public view returns(uint);\n    function getRoyalty(uint _ideaId) public view returns(uint);\n    function getInventor(uint _ideaId) public view returns(address);\n    function getMiningTime(uint _ideaId) public view returns(uint);\n    function setMiningTime(uint _ideaId) external view;\n    function getBlockReward(address _repAdd) public view returns(uint);\n    function getOwnersAddress(address _repAdd) public view returns(address);\n    function getIdeaID(address _repAdd) public view returns(uint);\n    function getInventorsAddress(address _repAdd) public view returns(address);\n    function getReplicationAddress(address _repAdd) public view returns(address);\n    function getRoyalty(address _repAdd) public view returns(uint);\n    function getRepID(address _repAdd) public view returns(uint);\n    function checkIfRep(address _add) external view returns(bool);\n    function getNumOfReps(address _add, uint _ideaId) external view returns(uint);\n    function getRepTotal(uint _ideaId) external view returns(uint);\n    function safeTransfer(address _from, address _to, uint _tokenId) public;\n}\n/// Idea Block Generator interface\n/////////////////////////////////////////////////////////////////////////////////////////////\n\n\n/// @author Christopher Dixon\n/// @notice contract Interface is the first contract in the CryptoPatent Blockchain\n/// @dev this contract is ment to set up the needed global variables as well as house various membership related functions\n/// @dev for whatever reason, having the membership logic in the DCPoA contract causes truffle not to deploy properly(gas) remix works fine\ncontract Interface is Ownable {\n  IdeaCoin public IDC;\n  DecentraCorpPoA public DCPoA;\n  CryptoPatentBlockGenerator public CPBG;\n\n  ///@param above turn each interface into a useable variable\n\n  ///@param globalIdeaCount tracks amount of ideas on the CryptoPatent Blockchain\n  ///@param globalRepCount tracks the total number of replications on the CryptoPatent Blockchain\n  ///@param memberCount tracks the total number of CryptoGrow members\n  ///@param globalUseBlock tracks global use blocks\n  ///@param globalBlockHalfTime used to track when the ideaBlockReward should be halved\n  ///@param ideaBlockReward set to 1000 IDC\n  ///@param repStake set to 100 IDC\n  ///@param minimumQuorum used to  track quorum info\n  uint public globalIdeaCount;\n  uint public globalRepCount;\n  uint public globalUseBlock;\n  uint public globalBlockHalfTime;\n  uint public ideaBlockReward = 1000000000000000000000;\n  uint public repStake = 100000000000000000000;\n  uint public minimumQuorum;\n\n  ///@param IdeaProposal array of idea proposals\n  IdeaProposal[] public proposals;\n\n  address[] public inventions;\n  ///@param weightTracker tracks current global highest weight\n  ///@param localWeightTracker maps a replications address to its replication ID and stores that replications current weight\n  ///@param members tracks if an address is a member\n  ///@param memberRank tracks a members rank\n  ///@param getHash maps ipfs hash to its token ID\n  mapping (uint => uint) weightTracker;\n  mapping (address => mapping (uint => uint)) localWeightTracker;\n  mapping(string => uint) getHash;\n  mapping(address => uint[]) getTokens;\n\n\n\n  event IdeaProposed(string IdeaHash);\n  event IdeaApproved(string _ideahash);\n  event Voted(address _voter, bool inSupport);\n  event NewMember(address member);\n  event NewReplication(address _repAdd);\n\n\n///@struct IdeaProposal stores info of a proposal\nstruct IdeaProposal {\n     string IdeaIPFS;\n     bool executed;\n     bool proposalPassed;\n     uint numberOfVotes;\n     Vote[] votes;\n     mapping (address => bool) voted;\n }\n //@struct Vote stores an individuals vote in an array in an Idea Proposal\n  struct Vote {\n          bool inSupport;\n          address voter;\n  }\n\n\n//@modifier requires that the address calling a function is a replication\n  modifier onlyReplication() {\n    require(CPBG.checkIfRep(msg.sender) == true);\n    _;\n  }\n\n//@modifier requires that the address calling a function is a member of DecentraCorp\n  modifier onlyMember() {\n    require(checkIfMember(msg.sender) == true);\n    _;\n  }\n\n///@notice calculatePromo function calculates the promotion a miner receives for having multiples of the same type of replication\n///@dev calculatePromo takes in a block Reward and an idea ID to retun a specific block reward\n  function calculatePromo(uint _blockReward, uint _ideaId) internal view returns(uint) {\n    uint numberOfReps =  CPBG.getNumOfReps( msg.sender,  _ideaId);\n    uint tenthReward = (_blockReward/ 10);\n    uint modulator = tenthReward * numberOfReps;\n    uint blockReward = _blockReward + modulator;\n    return blockReward;\n  }\n\n///@notice addMember function is an internal function for adding a member to decentracorp\n///@dev addMember takes in an address _mem, sets its membership to true and increments their rank by one\n  function addMember(address _mem) internal {\n    DCPoA._addMember(_mem);\n  }\n\n///@notice buyMembership function allows for the purchase of a membership for 6 months after official launch.\n///@dev mints the user 10,000 IDC\n  function buyMembership() public payable{\n    require(now <= globalBlockHalfTime + 15780000 seconds);\n    require(msg.value >= 1 ether);\n    addMember(msg.sender);\n    DCPoA.proxyIDCMint(msg.sender, 10000000000000000000000);\n    emit NewMember(msg.sender);\n  }\n\n///@notice setGenerators function takes in addresses of various contracts the CryptoPatent Blockchain inteacts with\n///@dev setGenerators takes in these addresses automagically through truffle migrations\n  function setGenerators(\n    DecentraCorpPoA _dcpoa,\n    IdeaCoin _IDC,\n    CryptoPatentBlockGenerator  _CPBG\n    )\n    public\n    onlyOwner\n    {\n      DCPoA = DecentraCorpPoA(_dcpoa);\n      IDC = IdeaCoin(_IDC);\n      CPBG =(_CPBG);\n    }\n\n\n///@notice checkIfMember function allowsother contracts/front end to check if an address is a member\n///@dev checkIfMember takes in\nfunction checkIfMember(address _member) public view returns(bool) {\n  if( DCPoA._checkIfMember( _member) == true ) {\n    return true;\n  }\n}\n\n\n\n\n  ///@notice getPropID function allows one to rerieve a proposal ID by its ipfs hash\n  ///@dev getPropID is made for easier front end interaction\n  function getPropID(string hash) public view returns(uint){\n    return getHash[hash];\n  }\n\n///@notice stakeReplicatorWallet function allows for the activation of a replication wallet by\n///        burning IdeaCoin from the msg.sender\n///@dev stakeReplicatorWallet costs 100 IDC and burns them from existence\n  function stakeReplicatorWallet() public {\n    require(IDC.balanceOf(msg.sender) >= 100000000000000000000);\n    DCPoA.proxyIDCBurn(msg.sender, 100000000000000000000);\n    DCPoA._addMember(msg.sender);\n    emit NewMember(msg.sender);\n  }\n\n///@notice getIdeasOwner function returns what tokens the msg.sender owns\n///@dev getIdeasOwner returns an array of uints\n  function getIdeasOwner() public view returns(uint[]){\n    return getTokens[msg.sender];\n  }\n\n}\n",
  "sourcePath": "/home/stan36/repos/DecentraCorp/contracts/CryptoPatent/Interface.sol",
  "compiler": {
    "name": "solc",
    "version": "0.4.24+commit.e67f0147.Emscripten.clang"
  },
  "schemaVersion": "2.0.1",
  "updatedAt": "2018-12-25T05:45:49.099Z"
}