{
  "contractName": "OwnedSet",
  "abi": [
    {
      "constant": true,
      "inputs": [],
      "name": "recentBlocks",
      "outputs": [
        {
          "name": "",
          "type": "uint256"
        }
      ],
      "payable": false,
      "stateMutability": "view",
      "type": "function"
    },
    {
      "constant": true,
      "inputs": [],
      "name": "getPending",
      "outputs": [
        {
          "name": "",
          "type": "address[]"
        }
      ],
      "payable": false,
      "stateMutability": "view",
      "type": "function"
    },
    {
      "constant": false,
      "inputs": [
        {
          "name": "_new",
          "type": "address"
        }
      ],
      "name": "setOwner",
      "outputs": [],
      "payable": false,
      "stateMutability": "nonpayable",
      "type": "function"
    },
    {
      "constant": false,
      "inputs": [
        {
          "name": "_validator",
          "type": "address"
        }
      ],
      "name": "removeValidator",
      "outputs": [],
      "payable": false,
      "stateMutability": "nonpayable",
      "type": "function"
    },
    {
      "constant": false,
      "inputs": [
        {
          "name": "_validator",
          "type": "address"
        }
      ],
      "name": "addValidator",
      "outputs": [],
      "payable": false,
      "stateMutability": "nonpayable",
      "type": "function"
    },
    {
      "constant": false,
      "inputs": [
        {
          "name": "_recentBlocks",
          "type": "uint256"
        }
      ],
      "name": "setRecentBlocks",
      "outputs": [],
      "payable": false,
      "stateMutability": "nonpayable",
      "type": "function"
    },
    {
      "constant": true,
      "inputs": [],
      "name": "owner",
      "outputs": [
        {
          "name": "",
          "type": "address"
        }
      ],
      "payable": false,
      "stateMutability": "view",
      "type": "function"
    },
    {
      "constant": true,
      "inputs": [],
      "name": "finalized",
      "outputs": [
        {
          "name": "",
          "type": "bool"
        }
      ],
      "payable": false,
      "stateMutability": "view",
      "type": "function"
    },
    {
      "constant": true,
      "inputs": [],
      "name": "getValidators",
      "outputs": [
        {
          "name": "",
          "type": "address[]"
        }
      ],
      "payable": false,
      "stateMutability": "view",
      "type": "function"
    },
    {
      "constant": true,
      "inputs": [],
      "name": "systemAddress",
      "outputs": [
        {
          "name": "",
          "type": "address"
        }
      ],
      "payable": false,
      "stateMutability": "view",
      "type": "function"
    },
    {
      "inputs": [
        {
          "name": "_initial",
          "type": "address[]"
        }
      ],
      "payable": false,
      "stateMutability": "nonpayable",
      "type": "constructor"
    },
    {
      "anonymous": false,
      "inputs": [
        {
          "indexed": false,
          "name": "currentSet",
          "type": "address[]"
        }
      ],
      "name": "ChangeFinalized",
      "type": "event"
    },
    {
      "anonymous": false,
      "inputs": [
        {
          "indexed": true,
          "name": "reporter",
          "type": "address"
        },
        {
          "indexed": true,
          "name": "reported",
          "type": "address"
        },
        {
          "indexed": true,
          "name": "malicious",
          "type": "bool"
        }
      ],
      "name": "Report",
      "type": "event"
    },
    {
      "anonymous": false,
      "inputs": [
        {
          "indexed": true,
          "name": "old",
          "type": "address"
        },
        {
          "indexed": true,
          "name": "current",
          "type": "address"
        }
      ],
      "name": "NewOwner",
      "type": "event"
    },
    {
      "anonymous": false,
      "inputs": [
        {
          "indexed": true,
          "name": "_parentHash",
          "type": "bytes32"
        },
        {
          "indexed": false,
          "name": "_newSet",
          "type": "address[]"
        }
      ],
      "name": "InitiateChange",
      "type": "event"
    },
    {
      "constant": false,
      "inputs": [],
      "name": "finalizeChange",
      "outputs": [],
      "payable": false,
      "stateMutability": "nonpayable",
      "type": "function"
    },
    {
      "constant": false,
      "inputs": [
        {
          "name": "_validator",
          "type": "address"
        },
        {
          "name": "_blockNumber",
          "type": "uint256"
        }
      ],
      "name": "reportBenign",
      "outputs": [],
      "payable": false,
      "stateMutability": "nonpayable",
      "type": "function"
    },
    {
      "constant": false,
      "inputs": [
        {
          "name": "_validator",
          "type": "address"
        },
        {
          "name": "_blockNumber",
          "type": "uint256"
        }
      ],
      "name": "reportMalicious",
      "outputs": [],
      "payable": false,
      "stateMutability": "nonpayable",
      "type": "function"
    }
  ],
  "bytecode": "0x6080604052336000806101000a81548173ffffffffffffffffffffffffffffffffffffffff021916908373ffffffffffffffffffffffffffffffffffffffff16021790555060146001553480156200005657600080fd5b50604051620019303803806200193083398101806040528101908080518201929190505050806000816003908051906020019062000096929190620001f9565b50600090505b815181101562000186576001600460008484815181101515620000bb57fe5b9060200190602002015173ffffffffffffffffffffffffffffffffffffffff1673ffffffffffffffffffffffffffffffffffffffff16815260200190815260200160002060000160006101000a81548160ff021916908315150217905550806004600084848151811015156200012d57fe5b9060200190602002015173ffffffffffffffffffffffffffffffffffffffff1673ffffffffffffffffffffffffffffffffffffffff1681526020019081526020016000206001018190555080806001019150506200009c565b600360029080546200019a92919062000288565b50505073fffffffffffffffffffffffffffffffffffffffe600560006101000a81548173ffffffffffffffffffffffffffffffffffffffff021916908373ffffffffffffffffffffffffffffffffffffffff1602179055505062000325565b82805482825590600052602060002090810192821562000275579160200282015b82811115620002745782518260006101000a81548173ffffffffffffffffffffffffffffffffffffffff021916908373ffffffffffffffffffffffffffffffffffffffff160217905550916020019190600101906200021a565b5b509050620002849190620002df565b5090565b828054828255906000526020600020908101928215620002cc5760005260206000209182015b82811115620002cb578254825591600101919060010190620002ae565b5b509050620002db9190620002df565b5090565b6200032291905b808211156200031e57600081816101000a81549073ffffffffffffffffffffffffffffffffffffffff021916905550600101620002e6565b5090565b90565b6115fb80620003356000396000f3006080604052600436106100c5576000357c0100000000000000000000000000000000000000000000000000000000900463ffffffff1680630c857805146100ca57806311ae9ed2146100f557806313af40351461016157806340a141ff146101a45780634d238c8e146101e757806368ffa02d1461022a57806375286211146102775780638c90ac071461028e5780638da5cb5b146102bb578063b3f05b9714610312578063b7ab4db514610341578063d3e848f1146103ad578063d69f13bb14610404575b600080fd5b3480156100d657600080fd5b506100df610451565b6040518082815260200191505060405180910390f35b34801561010157600080fd5b5061010a610457565b6040518080602001828103825283818151815260200191508051906020019060200280838360005b8381101561014d578082015181840152602081019050610132565b505050509050019250505060405180910390f35b34801561016d57600080fd5b506101a2600480360381019080803573ffffffffffffffffffffffffffffffffffffffff1690602001909291905050506104e5565b005b3480156101b057600080fd5b506101e5600480360381019080803573ffffffffffffffffffffffffffffffffffffffff1690602001909291905050506105fe565b005b3480156101f357600080fd5b50610228600480360381019080803573ffffffffffffffffffffffffffffffffffffffff1690602001909291905050506109a7565b005b34801561023657600080fd5b50610275600480360381019080803573ffffffffffffffffffffffffffffffffffffffff16906020019092919080359060200190929190505050610b78565b005b34801561028357600080fd5b5061028c610b87565b005b34801561029a57600080fd5b506102b960048036038101908080359060200190929190505050610bed565b005b3480156102c757600080fd5b506102d0610c52565b604051808273ffffffffffffffffffffffffffffffffffffffff1673ffffffffffffffffffffffffffffffffffffffff16815260200191505060405180910390f35b34801561031e57600080fd5b50610327610c77565b604051808215151515815260200191505060405180910390f35b34801561034d57600080fd5b50610356610c8a565b6040518080602001828103825283818151815260200191508051906020019060200280838360005b8381101561039957808201518184015260208101905061037e565b505050509050019250505060405180910390f35b3480156103b957600080fd5b506103c2610d18565b604051808273ffffffffffffffffffffffffffffffffffffffff1673ffffffffffffffffffffffffffffffffffffffff16815260200191505060405180910390f35b34801561041057600080fd5b5061044f600480360381019080803573ffffffffffffffffffffffffffffffffffffffff16906020019092919080359060200190929190505050610d3e565b005b60015481565b606060038054806020026020016040519081016040528092919081815260200182805480156104db57602002820191906000526020600020905b8160009054906101000a900473ffffffffffffffffffffffffffffffffffffffff1673ffffffffffffffffffffffffffffffffffffffff1681526020019060010190808311610491575b5050505050905090565b6000809054906101000a900473ffffffffffffffffffffffffffffffffffffffff1673ffffffffffffffffffffffffffffffffffffffff163373ffffffffffffffffffffffffffffffffffffffff1614151561054057600080fd5b8073ffffffffffffffffffffffffffffffffffffffff166000809054906101000a900473ffffffffffffffffffffffffffffffffffffffff1673ffffffffffffffffffffffffffffffffffffffff167f70aea8d848e8a90fb7661b227dc522eb6395c3dac71b63cb59edd5c9899b236460405160405180910390a3806000806101000a81548173ffffffffffffffffffffffffffffffffffffffff021916908373ffffffffffffffffffffffffffffffffffffffff16021790555050565b60008060009054906101000a900473ffffffffffffffffffffffffffffffffffffffff1673ffffffffffffffffffffffffffffffffffffffff163373ffffffffffffffffffffffffffffffffffffffff1614151561065b57600080fd5b81600080600460008473ffffffffffffffffffffffffffffffffffffffff1673ffffffffffffffffffffffffffffffffffffffff16815260200190815260200160002060000160009054906101000a900460ff169150600460008473ffffffffffffffffffffffffffffffffffffffff1673ffffffffffffffffffffffffffffffffffffffff168152602001908152602001600020600101549050818015610707575060028054905081105b801561077757508273ffffffffffffffffffffffffffffffffffffffff1660028281548110151561073457fe5b9060005260206000200160009054906101000a900473ffffffffffffffffffffffffffffffffffffffff1673ffffffffffffffffffffffffffffffffffffffff16145b151561078257600080fd5b600460008673ffffffffffffffffffffffffffffffffffffffff1673ffffffffffffffffffffffffffffffffffffffff16815260200190815260200160002060010154935060036001600380549050038154811015156107de57fe5b9060005260206000200160009054906101000a900473ffffffffffffffffffffffffffffffffffffffff1660038581548110151561081857fe5b9060005260206000200160006101000a81548173ffffffffffffffffffffffffffffffffffffffff021916908373ffffffffffffffffffffffffffffffffffffffff160217905550836004600060038781548110151561087457fe5b9060005260206000200160009054906101000a900473ffffffffffffffffffffffffffffffffffffffff1673ffffffffffffffffffffffffffffffffffffffff1673ffffffffffffffffffffffffffffffffffffffff1681526020019081526020016000206001018190555060036001600380549050038154811015156108f757fe5b9060005260206000200160006101000a81549073ffffffffffffffffffffffffffffffffffffffff0219169055600380548091906001900361093991906114e9565b50600460008673ffffffffffffffffffffffffffffffffffffffff1673ffffffffffffffffffffffffffffffffffffffff168152602001908152602001600020600080820160006101000a81549060ff0219169055600182016000905550506109a0610d4d565b5050505050565b6000809054906101000a900473ffffffffffffffffffffffffffffffffffffffff1673ffffffffffffffffffffffffffffffffffffffff163373ffffffffffffffffffffffffffffffffffffffff16141515610a0257600080fd5b80600460008273ffffffffffffffffffffffffffffffffffffffff1673ffffffffffffffffffffffffffffffffffffffff16815260200190815260200160002060000160009054906101000a900460ff16151515610a5f57600080fd5b6001600460008473ffffffffffffffffffffffffffffffffffffffff1673ffffffffffffffffffffffffffffffffffffffff16815260200190815260200160002060000160006101000a81548160ff021916908315150217905550600380549050600460008473ffffffffffffffffffffffffffffffffffffffff1673ffffffffffffffffffffffffffffffffffffffff1681526020019081526020016000206001018190555060038290806001815401808255809150509060018203906000526020600020016000909192909190916101000a81548173ffffffffffffffffffffffffffffffffffffffff021916908373ffffffffffffffffffffffffffffffffffffffff16021790555050610b74610d4d565b5050565b610b83338383610d8c565b5050565b600560009054906101000a900473ffffffffffffffffffffffffffffffffffffffff1673ffffffffffffffffffffffffffffffffffffffff163373ffffffffffffffffffffffffffffffffffffffff16141515610be357600080fd5b610beb611063565b565b6000809054906101000a900473ffffffffffffffffffffffffffffffffffffffff1673ffffffffffffffffffffffffffffffffffffffff163373ffffffffffffffffffffffffffffffffffffffff16141515610c4857600080fd5b8060018190555050565b6000809054906101000a900473ffffffffffffffffffffffffffffffffffffffff1681565b600060149054906101000a900460ff1681565b60606002805480602002602001604051908101604052809291908181526020018280548015610d0e57602002820191906000526020600020905b8160009054906101000a900473ffffffffffffffffffffffffffffffffffffffff1673ffffffffffffffffffffffffffffffffffffffff1681526020019060010190808311610cc4575b5050505050905090565b600560009054906101000a900473ffffffffffffffffffffffffffffffffffffffff1681565b610d4933838361115b565b5050565b600060149054906101000a900460ff161515610d6857600080fd5b60008060146101000a81548160ff021916908315150217905550610d8a611432565b565b82600080600460008473ffffffffffffffffffffffffffffffffffffffff1673ffffffffffffffffffffffffffffffffffffffff16815260200190815260200160002060000160009054906101000a900460ff169150600460008473ffffffffffffffffffffffffffffffffffffffff1673ffffffffffffffffffffffffffffffffffffffff168152602001908152602001600020600101549050818015610e38575060028054905081105b8015610ea857508273ffffffffffffffffffffffffffffffffffffffff16600282815481101515610e6557fe5b9060005260206000200160009054906101000a900473ffffffffffffffffffffffffffffffffffffffff1673ffffffffffffffffffffffffffffffffffffffff16145b1515610eb357600080fd5b84600080600460008473ffffffffffffffffffffffffffffffffffffffff1673ffffffffffffffffffffffffffffffffffffffff16815260200190815260200160002060000160009054906101000a900460ff169150600460008473ffffffffffffffffffffffffffffffffffffffff1673ffffffffffffffffffffffffffffffffffffffff168152602001908152602001600020600101549050818015610f5f575060028054905081105b8015610fcf57508273ffffffffffffffffffffffffffffffffffffffff16600282815481101515610f8c57fe5b9060005260206000200160009054906101000a900473ffffffffffffffffffffffffffffffffffffffff1673ffffffffffffffffffffffffffffffffffffffff16145b1515610fda57600080fd5b8660015481014311158015610fee57504381105b1515610ff957600080fd5b600115158973ffffffffffffffffffffffffffffffffffffffff168b73ffffffffffffffffffffffffffffffffffffffff167f32c78b6140c46745a46e88cd883707d70dbd2f06d13dd76fe5f499c01290da4f60405160405180910390a450505050505050505050565b600060149054906101000a900460ff1615151561107f57600080fd5b60036002908054611091929190611515565b506001600060146101000a81548160ff0219169083151502179055507f8564cd629b15f47dc310d45bcbfc9bcf5420b0d51bf0659a16c67f91d276325360026040518080602001828103825283818154815260200191508054801561114b57602002820191906000526020600020905b8160009054906101000a900473ffffffffffffffffffffffffffffffffffffffff1673ffffffffffffffffffffffffffffffffffffffff1681526020019060010190808311611101575b50509250505060405180910390a1565b82600080600460008473ffffffffffffffffffffffffffffffffffffffff1673ffffffffffffffffffffffffffffffffffffffff16815260200190815260200160002060000160009054906101000a900460ff169150600460008473ffffffffffffffffffffffffffffffffffffffff1673ffffffffffffffffffffffffffffffffffffffff168152602001908152602001600020600101549050818015611207575060028054905081105b801561127757508273ffffffffffffffffffffffffffffffffffffffff1660028281548110151561123457fe5b9060005260206000200160009054906101000a900473ffffffffffffffffffffffffffffffffffffffff1673ffffffffffffffffffffffffffffffffffffffff16145b151561128257600080fd5b84600080600460008473ffffffffffffffffffffffffffffffffffffffff1673ffffffffffffffffffffffffffffffffffffffff16815260200190815260200160002060000160009054906101000a900460ff169150600460008473ffffffffffffffffffffffffffffffffffffffff1673ffffffffffffffffffffffffffffffffffffffff16815260200190815260200160002060010154905081801561132e575060028054905081105b801561139e57508273ffffffffffffffffffffffffffffffffffffffff1660028281548110151561135b57fe5b9060005260206000200160009054906101000a900473ffffffffffffffffffffffffffffffffffffffff1673ffffffffffffffffffffffffffffffffffffffff16145b15156113a957600080fd5b86600154810143111580156113bd57504381105b15156113c857600080fd5b600015158973ffffffffffffffffffffffffffffffffffffffff168b73ffffffffffffffffffffffffffffffffffffffff167f32c78b6140c46745a46e88cd883707d70dbd2f06d13dd76fe5f499c01290da4f60405160405180910390a450505050505050505050565b6001430340600019167f55252fa6eee4741b4e24a74a70e9c11fd2c2281df8d6ea13126ff845f7825c896003604051808060200182810382528381815481526020019150805480156114d957602002820191906000526020600020905b8160009054906101000a900473ffffffffffffffffffffffffffffffffffffffff1673ffffffffffffffffffffffffffffffffffffffff168152602001906001019080831161148f575b50509250505060405180910390a2565b8154818355818111156115105781836000526020600020918201910161150f9190611567565b5b505050565b8280548282559060005260206000209081019282156115565760005260206000209182015b8281111561155557825482559160010191906001019061153a565b5b509050611563919061158c565b5090565b61158991905b8082111561158557600081600090555060010161156d565b5090565b90565b6115cc91905b808211156115c857600081816101000a81549073ffffffffffffffffffffffffffffffffffffffff021916905550600101611592565b5090565b905600a165627a7a723058204fc1fd78b91b419b08faaff3b6cc18939001fd6742da57113bac5cbbaaf334e50029",
  "source": "// Copyright 2017 Peter Czaban, Parity Technologies Ltd.\n//\n// Licensed under the Apache License, Version 2.0 (the \"License\");\n// you may not use this file except in compliance with the License.\n// You may obtain a copy of the License at\n//\n//     http://www.apache.org/licenses/LICENSE-2.0\n//\n// Unless required by applicable law or agreed to in writing, software\n// distributed under the License is distributed on an \"AS IS\" BASIS,\n// WITHOUT WARRANTIES OR CONDITIONS OF ANY KIND, either express or implied.\n// See the License for the specific language governing permissions and\n// limitations under the License.\n\n// An owned validator set contract where the owner can add or remove validators.\n\npragma solidity ^0.4.22;\n\nimport \"./BaseOwnedSet.sol\";\nimport \"./ValidatorSet.sol\";\n\n\ncontract OwnedSet is ValidatorSet, BaseOwnedSet {\n\t// STATE\n\n\t// System address, used by the block sealer.\n\taddress public systemAddress;\n\n\t// MODIFIERS\n\tmodifier onlySystem() {\n\t\trequire(msg.sender == systemAddress);\n\t\t_;\n\t}\n\n\tconstructor(address[] _initial) BaseOwnedSet(_initial)\n\t\tpublic\n\t{\n\t\tsystemAddress = 0xffffFFFfFFffffffffffffffFfFFFfffFFFfFFfE;\n\t}\n\n\t// Called when an initiated change reaches finality and is activated.\n\tfunction finalizeChange()\n\t\texternal\n\t\tonlySystem\n\t{\n\t\tbaseFinalizeChange();\n\t}\n\n\t// MISBEHAVIOUR HANDLING\n\n\tfunction reportBenign(address _validator, uint256 _blockNumber)\n\t\texternal\n\t{\n\t\tbaseReportBenign(msg.sender, _validator, _blockNumber);\n\t}\n\n\tfunction reportMalicious(address _validator, uint256 _blockNumber)\n\t\texternal\n\t{\n\t\tbaseReportMalicious(\n\t\t\tmsg.sender,\n\t\t\t_validator,\n\t\t\t_blockNumber\n\t\t);\n\t}\n\n\t// PRIVATE\n\n\t// Log desire to change the current list.\n\tfunction initiateChange()\n\t\tprivate\n\t{\n\t\temit InitiateChange(blockhash(block.number - 1), pending);\n\t}\n}\n",
  "sourcePath": "/home/stan36/repos/DecentraCorp/contracts/ValidatorSet/Ownedset.sol",
  "compiler": {
    "name": "solc",
    "version": "0.4.24+commit.e67f0147.Emscripten.clang"
  },
  "schemaVersion": "2.0.1",
  "updatedAt": "2019-03-05T01:03:20.851Z"
}