{
  "contractName": "RelaySet",
  "abi": [
    {
      "constant": false,
      "inputs": [
        {
          "name": "_new",
          "type": "address"
        }
      ],
      "name": "setOwner",
      "outputs": [],
      "payable": false,
      "stateMutability": "nonpayable",
      "type": "function"
    },
    {
      "constant": true,
      "inputs": [],
      "name": "owner",
      "outputs": [
        {
          "name": "",
          "type": "address"
        }
      ],
      "payable": false,
      "stateMutability": "view",
      "type": "function"
    },
    {
      "constant": true,
      "inputs": [],
      "name": "relayedSet",
      "outputs": [
        {
          "name": "",
          "type": "address"
        }
      ],
      "payable": false,
      "stateMutability": "view",
      "type": "function"
    },
    {
      "constant": true,
      "inputs": [],
      "name": "systemAddress",
      "outputs": [
        {
          "name": "",
          "type": "address"
        }
      ],
      "payable": false,
      "stateMutability": "view",
      "type": "function"
    },
    {
      "inputs": [],
      "payable": false,
      "stateMutability": "nonpayable",
      "type": "constructor"
    },
    {
      "anonymous": false,
      "inputs": [
        {
          "indexed": true,
          "name": "old",
          "type": "address"
        },
        {
          "indexed": true,
          "name": "current",
          "type": "address"
        }
      ],
      "name": "NewRelayed",
      "type": "event"
    },
    {
      "anonymous": false,
      "inputs": [
        {
          "indexed": true,
          "name": "_parentHash",
          "type": "bytes32"
        },
        {
          "indexed": false,
          "name": "_newSet",
          "type": "address[]"
        }
      ],
      "name": "InitiateChange",
      "type": "event"
    },
    {
      "anonymous": false,
      "inputs": [
        {
          "indexed": true,
          "name": "old",
          "type": "address"
        },
        {
          "indexed": true,
          "name": "current",
          "type": "address"
        }
      ],
      "name": "NewOwner",
      "type": "event"
    },
    {
      "constant": false,
      "inputs": [
        {
          "name": "_parentHash",
          "type": "bytes32"
        },
        {
          "name": "_newSet",
          "type": "address[]"
        }
      ],
      "name": "initiateChange",
      "outputs": [],
      "payable": false,
      "stateMutability": "nonpayable",
      "type": "function"
    },
    {
      "constant": false,
      "inputs": [],
      "name": "finalizeChange",
      "outputs": [],
      "payable": false,
      "stateMutability": "nonpayable",
      "type": "function"
    },
    {
      "constant": false,
      "inputs": [
        {
          "name": "_validator",
          "type": "address"
        },
        {
          "name": "_blockNumber",
          "type": "uint256"
        }
      ],
      "name": "reportBenign",
      "outputs": [],
      "payable": false,
      "stateMutability": "nonpayable",
      "type": "function"
    },
    {
      "constant": false,
      "inputs": [
        {
          "name": "_validator",
          "type": "address"
        },
        {
          "name": "_blockNumber",
          "type": "uint256"
        }
      ],
      "name": "reportMalicious",
      "outputs": [],
      "payable": false,
      "stateMutability": "nonpayable",
      "type": "function"
    },
    {
      "constant": false,
      "inputs": [
        {
          "name": "_relayedSet",
          "type": "address"
        }
      ],
      "name": "setRelayed",
      "outputs": [],
      "payable": false,
      "stateMutability": "nonpayable",
      "type": "function"
    },
    {
      "constant": true,
      "inputs": [],
      "name": "getValidators",
      "outputs": [
        {
          "name": "",
          "type": "address[]"
        }
      ],
      "payable": false,
      "stateMutability": "view",
      "type": "function"
    }
  ],
  "bytecode": "0x6080604052336000806101000a81548173ffffffffffffffffffffffffffffffffffffffff021916908373ffffffffffffffffffffffffffffffffffffffff16021790555034801561005057600080fd5b5073fffffffffffffffffffffffffffffffffffffffe600160006101000a81548173ffffffffffffffffffffffffffffffffffffffff021916908373ffffffffffffffffffffffffffffffffffffffff160217905550610b69806100b56000396000f3006080604052600436106100a4576000357c0100000000000000000000000000000000000000000000000000000000900463ffffffff16806313af4035146100a957806368ffa02d146100ec57806375286211146101395780638da5cb5b14610150578063a0285c01146101a7578063ae3783d6146101f0578063b7ab4db514610247578063bd965677146102b3578063d3e848f1146102f6578063d69f13bb1461034d575b600080fd5b3480156100b557600080fd5b506100ea600480360381019080803573ffffffffffffffffffffffffffffffffffffffff16906020019092919050505061039a565b005b3480156100f857600080fd5b50610137600480360381019080803573ffffffffffffffffffffffffffffffffffffffff169060200190929190803590602001909291905050506104b3565b005b34801561014557600080fd5b5061014e6105c8565b005b34801561015c57600080fd5b506101656106c4565b604051808273ffffffffffffffffffffffffffffffffffffffff1673ffffffffffffffffffffffffffffffffffffffff16815260200191505060405180910390f35b3480156101b357600080fd5b506101ee60048036038101908080356000191690602001909291908035906020019082018035906020019190919293919293905050506106e9565b005b3480156101fc57600080fd5b506102056107a3565b604051808273ffffffffffffffffffffffffffffffffffffffff1673ffffffffffffffffffffffffffffffffffffffff16815260200191505060405180910390f35b34801561025357600080fd5b5061025c6107c9565b6040518080602001828103825283818151815260200191508051906020019060200280838360005b8381101561029f578082015181840152602081019050610284565b505050509050019250505060405180910390f35b3480156102bf57600080fd5b506102f4600480360381019080803573ffffffffffffffffffffffffffffffffffffffff1690602001909291905050506108e7565b005b34801561030257600080fd5b5061030b610a02565b604051808273ffffffffffffffffffffffffffffffffffffffff1673ffffffffffffffffffffffffffffffffffffffff16815260200191505060405180910390f35b34801561035957600080fd5b50610398600480360381019080803573ffffffffffffffffffffffffffffffffffffffff16906020019092919080359060200190929190505050610a28565b005b6000809054906101000a900473ffffffffffffffffffffffffffffffffffffffff1673ffffffffffffffffffffffffffffffffffffffff163373ffffffffffffffffffffffffffffffffffffffff161415156103f557600080fd5b8073ffffffffffffffffffffffffffffffffffffffff166000809054906101000a900473ffffffffffffffffffffffffffffffffffffffff1673ffffffffffffffffffffffffffffffffffffffff167f70aea8d848e8a90fb7661b227dc522eb6395c3dac71b63cb59edd5c9899b236460405160405180910390a3806000806101000a81548173ffffffffffffffffffffffffffffffffffffffff021916908373ffffffffffffffffffffffffffffffffffffffff16021790555050565b600260009054906101000a900473ffffffffffffffffffffffffffffffffffffffff1673ffffffffffffffffffffffffffffffffffffffff166309ea300c3384846040518463ffffffff167c0100000000000000000000000000000000000000000000000000000000028152600401808473ffffffffffffffffffffffffffffffffffffffff1673ffffffffffffffffffffffffffffffffffffffff1681526020018373ffffffffffffffffffffffffffffffffffffffff1673ffffffffffffffffffffffffffffffffffffffff1681526020018281526020019350505050600060405180830381600087803b1580156105ac57600080fd5b505af11580156105c0573d6000803e3d6000fd5b505050505050565b600160009054906101000a900473ffffffffffffffffffffffffffffffffffffffff1673ffffffffffffffffffffffffffffffffffffffff163373ffffffffffffffffffffffffffffffffffffffff1614151561062457600080fd5b600260009054906101000a900473ffffffffffffffffffffffffffffffffffffffff1673ffffffffffffffffffffffffffffffffffffffff1663752862116040518163ffffffff167c0100000000000000000000000000000000000000000000000000000000028152600401600060405180830381600087803b1580156106aa57600080fd5b505af11580156106be573d6000803e3d6000fd5b50505050565b6000809054906101000a900473ffffffffffffffffffffffffffffffffffffffff1681565b600260009054906101000a900473ffffffffffffffffffffffffffffffffffffffff1673ffffffffffffffffffffffffffffffffffffffff163373ffffffffffffffffffffffffffffffffffffffff1614151561074557600080fd5b82600019167f55252fa6eee4741b4e24a74a70e9c11fd2c2281df8d6ea13126ff845f7825c898383604051808060200182810382528484828181526020019250602002808284378201915050935050505060405180910390a2505050565b600260009054906101000a900473ffffffffffffffffffffffffffffffffffffffff1681565b6060600260009054906101000a900473ffffffffffffffffffffffffffffffffffffffff1673ffffffffffffffffffffffffffffffffffffffff1663b7ab4db56040518163ffffffff167c0100000000000000000000000000000000000000000000000000000000028152600401600060405180830381600087803b15801561085157600080fd5b505af1158015610865573d6000803e3d6000fd5b505050506040513d6000823e3d601f19601f82011682018060405250602081101561088f57600080fd5b8101908080516401000000008111156108a757600080fd5b828101905060208101848111156108bd57600080fd5b81518560208202830111640100000000821117156108da57600080fd5b5050929190505050905090565b6000809054906101000a900473ffffffffffffffffffffffffffffffffffffffff1673ffffffffffffffffffffffffffffffffffffffff163373ffffffffffffffffffffffffffffffffffffffff1614151561094257600080fd5b8073ffffffffffffffffffffffffffffffffffffffff16600260009054906101000a900473ffffffffffffffffffffffffffffffffffffffff1673ffffffffffffffffffffffffffffffffffffffff167f4fea88aaf04c303804bb211ecc32a00ac8e5f0656bb854cad8a4a2e438256b7460405160405180910390a380600260006101000a81548173ffffffffffffffffffffffffffffffffffffffff021916908373ffffffffffffffffffffffffffffffffffffffff16021790555050565b600160009054906101000a900473ffffffffffffffffffffffffffffffffffffffff1681565b600260009054906101000a900473ffffffffffffffffffffffffffffffffffffffff1673ffffffffffffffffffffffffffffffffffffffff1663f981dfca3384846040518463ffffffff167c0100000000000000000000000000000000000000000000000000000000028152600401808473ffffffffffffffffffffffffffffffffffffffff1673ffffffffffffffffffffffffffffffffffffffff1681526020018373ffffffffffffffffffffffffffffffffffffffff1673ffffffffffffffffffffffffffffffffffffffff1681526020018281526020019350505050600060405180830381600087803b158015610b2157600080fd5b505af1158015610b35573d6000803e3d6000fd5b5050505050505600a165627a7a723058203e777ebaa36ade03633a17b09b0d351b98b8b76a34c3ac836134d6ab97c454ce0029",
  "source": "// Copyright 2018 Parity Technologies Ltd.\n//\n// Licensed under the Apache License, Version 2.0 (the \"License\");\n// you may not use this file except in compliance with the License.\n// You may obtain a copy of the License at\n//\n//     http://www.apache.org/licenses/LICENSE-2.0\n//\n// Unless required by applicable law or agreed to in writing, software\n// distributed under the License is distributed on an \"AS IS\" BASIS,\n// WITHOUT WARRANTIES OR CONDITIONS OF ANY KIND, either express or implied.\n// See the License for the specific language governing permissions and\n// limitations under the License.\n\n// A validator set contract that relays calls to a relayed validator set\n// contract, which allows upgrading the relayed validator set contract. It\n// provides an `initiateChange` function that allows the relayed contract to\n// trigger a change, since the engine will be listening for events emitted by\n// the outer relay contract.\n\npragma solidity ^0.4.22;\n\nimport \"./Owned.sol\";\nimport \"./ValidatorSet.sol\";\nimport \"./RelayedOwnedSet.sol\";\n\n\ncontract RelaySet is Owned, ValidatorSet {\n\t// EVENTS\n\tevent NewRelayed(address indexed old, address indexed current);\n\n\t// STATE\n\n\t// System address, used by the block sealer.\n\taddress public systemAddress;\n\t// Address of the inner validator set contract\n\tRelayedOwnedSet public relayedSet;\n\n\t// MODIFIERS\n\tmodifier onlySystem() {\n\t\trequire(msg.sender == systemAddress);\n\t\t_;\n\t}\n\n\tmodifier onlyRelayed() {\n\t\trequire(msg.sender == address(relayedSet));\n\t\t_;\n\t}\n\n\tconstructor()\n\t\tpublic\n\t{\n\t\tsystemAddress = 0xffffFFFfFFffffffffffffffFfFFFfffFFFfFFfE;\n\t}\n\n\t// For innerSet\n\tfunction initiateChange(bytes32 _parentHash, address[] _newSet)\n\t\texternal\n\t\tonlyRelayed\n\t{\n\t\temit InitiateChange(_parentHash, _newSet);\n\t}\n\n\t// For sealer\n\tfunction finalizeChange()\n\t\texternal\n\t\tonlySystem\n\t{\n\t\trelayedSet.finalizeChange();\n\t}\n\n\tfunction reportBenign(address _validator, uint256 _blockNumber)\n\t\texternal\n\t{\n\t\trelayedSet.relayReportBenign(msg.sender, _validator, _blockNumber);\n\t}\n\n\tfunction reportMalicious(address _validator, uint256 _blockNumber)\n\t\texternal\n\t{\n\t\trelayedSet.relayReportMalicious(\n\t\t\tmsg.sender,\n\t\t\t_validator,\n\t\t\t_blockNumber\n\t\t);\n\t}\n\n\tfunction setRelayed(address _relayedSet)\n\t\texternal\n\t\tonlyOwner\n\t{\n\t\temit NewRelayed(relayedSet, _relayedSet);\n\t\trelayedSet = RelayedOwnedSet(_relayedSet);\n\t}\n\n\tfunction getValidators()\n\t\texternal\n\t\tview\n\t\treturns (address[])\n\t{\n\t\treturn relayedSet.getValidators();\n\t}\n}\n",
  "sourcePath": "/home/stan36/repos/DecentraCorp/contracts/ValidatorSet/RelaySet.sol",
  "compiler": {
    "name": "solc",
    "version": "0.4.24+commit.e67f0147.Emscripten.clang"
  },
  "schemaVersion": "2.0.1",
  "updatedAt": "2019-03-05T01:03:20.853Z"
}