{
  "contractName": "RelayedOwnedSet",
  "abi": [
    {
      "constant": true,
      "inputs": [],
      "name": "recentBlocks",
      "outputs": [
        {
          "name": "",
          "type": "uint256"
        }
      ],
      "payable": false,
      "stateMutability": "view",
      "type": "function"
    },
    {
      "constant": true,
      "inputs": [],
      "name": "getPending",
      "outputs": [
        {
          "name": "",
          "type": "address[]"
        }
      ],
      "payable": false,
      "stateMutability": "view",
      "type": "function"
    },
    {
      "constant": false,
      "inputs": [
        {
          "name": "_new",
          "type": "address"
        }
      ],
      "name": "setOwner",
      "outputs": [],
      "payable": false,
      "stateMutability": "nonpayable",
      "type": "function"
    },
    {
      "constant": false,
      "inputs": [
        {
          "name": "_validator",
          "type": "address"
        }
      ],
      "name": "removeValidator",
      "outputs": [],
      "payable": false,
      "stateMutability": "nonpayable",
      "type": "function"
    },
    {
      "constant": false,
      "inputs": [
        {
          "name": "_validator",
          "type": "address"
        }
      ],
      "name": "addValidator",
      "outputs": [],
      "payable": false,
      "stateMutability": "nonpayable",
      "type": "function"
    },
    {
      "constant": false,
      "inputs": [
        {
          "name": "_recentBlocks",
          "type": "uint256"
        }
      ],
      "name": "setRecentBlocks",
      "outputs": [],
      "payable": false,
      "stateMutability": "nonpayable",
      "type": "function"
    },
    {
      "constant": true,
      "inputs": [],
      "name": "owner",
      "outputs": [
        {
          "name": "",
          "type": "address"
        }
      ],
      "payable": false,
      "stateMutability": "view",
      "type": "function"
    },
    {
      "constant": true,
      "inputs": [],
      "name": "relaySet",
      "outputs": [
        {
          "name": "",
          "type": "address"
        }
      ],
      "payable": false,
      "stateMutability": "view",
      "type": "function"
    },
    {
      "constant": true,
      "inputs": [],
      "name": "finalized",
      "outputs": [
        {
          "name": "",
          "type": "bool"
        }
      ],
      "payable": false,
      "stateMutability": "view",
      "type": "function"
    },
    {
      "constant": true,
      "inputs": [],
      "name": "getValidators",
      "outputs": [
        {
          "name": "",
          "type": "address[]"
        }
      ],
      "payable": false,
      "stateMutability": "view",
      "type": "function"
    },
    {
      "inputs": [
        {
          "name": "_relaySet",
          "type": "address"
        },
        {
          "name": "_initial",
          "type": "address[]"
        }
      ],
      "payable": false,
      "stateMutability": "nonpayable",
      "type": "constructor"
    },
    {
      "anonymous": false,
      "inputs": [
        {
          "indexed": false,
          "name": "currentSet",
          "type": "address[]"
        }
      ],
      "name": "ChangeFinalized",
      "type": "event"
    },
    {
      "anonymous": false,
      "inputs": [
        {
          "indexed": true,
          "name": "reporter",
          "type": "address"
        },
        {
          "indexed": true,
          "name": "reported",
          "type": "address"
        },
        {
          "indexed": true,
          "name": "malicious",
          "type": "bool"
        }
      ],
      "name": "Report",
      "type": "event"
    },
    {
      "anonymous": false,
      "inputs": [
        {
          "indexed": true,
          "name": "old",
          "type": "address"
        },
        {
          "indexed": true,
          "name": "current",
          "type": "address"
        }
      ],
      "name": "NewOwner",
      "type": "event"
    },
    {
      "constant": false,
      "inputs": [
        {
          "name": "_reporter",
          "type": "address"
        },
        {
          "name": "_validator",
          "type": "address"
        },
        {
          "name": "_blockNumber",
          "type": "uint256"
        }
      ],
      "name": "relayReportBenign",
      "outputs": [],
      "payable": false,
      "stateMutability": "nonpayable",
      "type": "function"
    },
    {
      "constant": false,
      "inputs": [
        {
          "name": "_reporter",
          "type": "address"
        },
        {
          "name": "_validator",
          "type": "address"
        },
        {
          "name": "_blockNumber",
          "type": "uint256"
        }
      ],
      "name": "relayReportMalicious",
      "outputs": [],
      "payable": false,
      "stateMutability": "nonpayable",
      "type": "function"
    },
    {
      "constant": false,
      "inputs": [
        {
          "name": "_relaySet",
          "type": "address"
        }
      ],
      "name": "setRelay",
      "outputs": [],
      "payable": false,
      "stateMutability": "nonpayable",
      "type": "function"
    },
    {
      "constant": false,
      "inputs": [],
      "name": "finalizeChange",
      "outputs": [],
      "payable": false,
      "stateMutability": "nonpayable",
      "type": "function"
    }
  ],
  "bytecode": "0x6080604052336000806101000a81548173ffffffffffffffffffffffffffffffffffffffff021916908373ffffffffffffffffffffffffffffffffffffffff16021790555060146001553480156200005657600080fd5b5060405162001b8b38038062001b8b83398101806040528101908080519060200190929190805182019291905050508060008160039080519060200190620000a0929190620001f0565b50600090505b815181101562000190576001600460008484815181101515620000c557fe5b9060200190602002015173ffffffffffffffffffffffffffffffffffffffff1673ffffffffffffffffffffffffffffffffffffffff16815260200190815260200160002060000160006101000a81548160ff021916908315150217905550806004600084848151811015156200013757fe5b9060200190602002015173ffffffffffffffffffffffffffffffffffffffff1673ffffffffffffffffffffffffffffffffffffffff168152602001908152602001600020600101819055508080600101915050620000a6565b60036002908054620001a49291906200027f565b50505081600560006101000a81548173ffffffffffffffffffffffffffffffffffffffff021916908373ffffffffffffffffffffffffffffffffffffffff16021790555050506200031c565b8280548282559060005260206000209081019282156200026c579160200282015b828111156200026b5782518260006101000a81548173ffffffffffffffffffffffffffffffffffffffff021916908373ffffffffffffffffffffffffffffffffffffffff1602179055509160200191906001019062000211565b5b5090506200027b9190620002d6565b5090565b828054828255906000526020600020908101928215620002c35760005260206000209182015b82811115620002c2578254825591600101919060010190620002a5565b5b509050620002d29190620002d6565b5090565b6200031991905b808211156200031557600081816101000a81549073ffffffffffffffffffffffffffffffffffffffff021916905550600101620002dd565b5090565b90565b61185f806200032c6000396000f3006080604052600436106100d0576000357c0100000000000000000000000000000000000000000000000000000000900463ffffffff16806309ea300c146100d55780630c8578051461014257806311ae9ed21461016d57806313af4035146101d957806340a141ff1461021c5780634d238c8e1461025f57806375286211146102a25780638c90ac07146102b95780638da5cb5b146102e6578063a6940b071461033d578063b3f05b9714610394578063b7ab4db5146103c3578063c805f68b1461042f578063f981dfca14610472575b600080fd5b3480156100e157600080fd5b50610140600480360381019080803573ffffffffffffffffffffffffffffffffffffffff169060200190929190803573ffffffffffffffffffffffffffffffffffffffff169060200190929190803590602001909291905050506104df565b005b34801561014e57600080fd5b5061015761054b565b6040518082815260200191505060405180910390f35b34801561017957600080fd5b50610182610551565b6040518080602001828103825283818151815260200191508051906020019060200280838360005b838110156101c55780820151818401526020810190506101aa565b505050509050019250505060405180910390f35b3480156101e557600080fd5b5061021a600480360381019080803573ffffffffffffffffffffffffffffffffffffffff1690602001909291905050506105df565b005b34801561022857600080fd5b5061025d600480360381019080803573ffffffffffffffffffffffffffffffffffffffff1690602001909291905050506106f8565b005b34801561026b57600080fd5b506102a0600480360381019080803573ffffffffffffffffffffffffffffffffffffffff169060200190929190505050610aa1565b005b3480156102ae57600080fd5b506102b7610c72565b005b3480156102c557600080fd5b506102e460048036038101908080359060200190929190505050610cd8565b005b3480156102f257600080fd5b506102fb610d3d565b604051808273ffffffffffffffffffffffffffffffffffffffff1673ffffffffffffffffffffffffffffffffffffffff16815260200191505060405180910390f35b34801561034957600080fd5b50610352610d62565b604051808273ffffffffffffffffffffffffffffffffffffffff1673ffffffffffffffffffffffffffffffffffffffff16815260200191505060405180910390f35b3480156103a057600080fd5b506103a9610d88565b604051808215151515815260200191505060405180910390f35b3480156103cf57600080fd5b506103d8610d9b565b6040518080602001828103825283818151815260200191508051906020019060200280838360005b8381101561041b578082015181840152602081019050610400565b505050509050019250505060405180910390f35b34801561043b57600080fd5b50610470600480360381019080803573ffffffffffffffffffffffffffffffffffffffff169060200190929190505050610e29565b005b34801561047e57600080fd5b506104dd600480360381019080803573ffffffffffffffffffffffffffffffffffffffff169060200190929190803573ffffffffffffffffffffffffffffffffffffffff16906020019092919080359060200190929190505050610ec8565b005b600560009054906101000a900473ffffffffffffffffffffffffffffffffffffffff1673ffffffffffffffffffffffffffffffffffffffff163373ffffffffffffffffffffffffffffffffffffffff1614151561053b57600080fd5b610546838383610f34565b505050565b60015481565b606060038054806020026020016040519081016040528092919081815260200182805480156105d557602002820191906000526020600020905b8160009054906101000a900473ffffffffffffffffffffffffffffffffffffffff1673ffffffffffffffffffffffffffffffffffffffff168152602001906001019080831161058b575b5050505050905090565b6000809054906101000a900473ffffffffffffffffffffffffffffffffffffffff1673ffffffffffffffffffffffffffffffffffffffff163373ffffffffffffffffffffffffffffffffffffffff1614151561063a57600080fd5b8073ffffffffffffffffffffffffffffffffffffffff166000809054906101000a900473ffffffffffffffffffffffffffffffffffffffff1673ffffffffffffffffffffffffffffffffffffffff167f70aea8d848e8a90fb7661b227dc522eb6395c3dac71b63cb59edd5c9899b236460405160405180910390a3806000806101000a81548173ffffffffffffffffffffffffffffffffffffffff021916908373ffffffffffffffffffffffffffffffffffffffff16021790555050565b60008060009054906101000a900473ffffffffffffffffffffffffffffffffffffffff1673ffffffffffffffffffffffffffffffffffffffff163373ffffffffffffffffffffffffffffffffffffffff1614151561075557600080fd5b81600080600460008473ffffffffffffffffffffffffffffffffffffffff1673ffffffffffffffffffffffffffffffffffffffff16815260200190815260200160002060000160009054906101000a900460ff169150600460008473ffffffffffffffffffffffffffffffffffffffff1673ffffffffffffffffffffffffffffffffffffffff168152602001908152602001600020600101549050818015610801575060028054905081105b801561087157508273ffffffffffffffffffffffffffffffffffffffff1660028281548110151561082e57fe5b9060005260206000200160009054906101000a900473ffffffffffffffffffffffffffffffffffffffff1673ffffffffffffffffffffffffffffffffffffffff16145b151561087c57600080fd5b600460008673ffffffffffffffffffffffffffffffffffffffff1673ffffffffffffffffffffffffffffffffffffffff16815260200190815260200160002060010154935060036001600380549050038154811015156108d857fe5b9060005260206000200160009054906101000a900473ffffffffffffffffffffffffffffffffffffffff1660038581548110151561091257fe5b9060005260206000200160006101000a81548173ffffffffffffffffffffffffffffffffffffffff021916908373ffffffffffffffffffffffffffffffffffffffff160217905550836004600060038781548110151561096e57fe5b9060005260206000200160009054906101000a900473ffffffffffffffffffffffffffffffffffffffff1673ffffffffffffffffffffffffffffffffffffffff1673ffffffffffffffffffffffffffffffffffffffff1681526020019081526020016000206001018190555060036001600380549050038154811015156109f157fe5b9060005260206000200160006101000a81549073ffffffffffffffffffffffffffffffffffffffff02191690556003805480919060019003610a33919061174d565b50600460008673ffffffffffffffffffffffffffffffffffffffff1673ffffffffffffffffffffffffffffffffffffffff168152602001908152602001600020600080820160006101000a81549060ff021916905560018201600090555050610a9a61120b565b5050505050565b6000809054906101000a900473ffffffffffffffffffffffffffffffffffffffff1673ffffffffffffffffffffffffffffffffffffffff163373ffffffffffffffffffffffffffffffffffffffff16141515610afc57600080fd5b80600460008273ffffffffffffffffffffffffffffffffffffffff1673ffffffffffffffffffffffffffffffffffffffff16815260200190815260200160002060000160009054906101000a900460ff16151515610b5957600080fd5b6001600460008473ffffffffffffffffffffffffffffffffffffffff1673ffffffffffffffffffffffffffffffffffffffff16815260200190815260200160002060000160006101000a81548160ff021916908315150217905550600380549050600460008473ffffffffffffffffffffffffffffffffffffffff1673ffffffffffffffffffffffffffffffffffffffff1681526020019081526020016000206001018190555060038290806001815401808255809150509060018203906000526020600020016000909192909190916101000a81548173ffffffffffffffffffffffffffffffffffffffff021916908373ffffffffffffffffffffffffffffffffffffffff16021790555050610c6e61120b565b5050565b600560009054906101000a900473ffffffffffffffffffffffffffffffffffffffff1673ffffffffffffffffffffffffffffffffffffffff163373ffffffffffffffffffffffffffffffffffffffff16141515610cce57600080fd5b610cd661124a565b565b6000809054906101000a900473ffffffffffffffffffffffffffffffffffffffff1673ffffffffffffffffffffffffffffffffffffffff163373ffffffffffffffffffffffffffffffffffffffff16141515610d3357600080fd5b8060018190555050565b6000809054906101000a900473ffffffffffffffffffffffffffffffffffffffff1681565b600560009054906101000a900473ffffffffffffffffffffffffffffffffffffffff1681565b600060149054906101000a900460ff1681565b60606002805480602002602001604051908101604052809291908181526020018280548015610e1f57602002820191906000526020600020905b8160009054906101000a900473ffffffffffffffffffffffffffffffffffffffff1673ffffffffffffffffffffffffffffffffffffffff1681526020019060010190808311610dd5575b5050505050905090565b6000809054906101000a900473ffffffffffffffffffffffffffffffffffffffff1673ffffffffffffffffffffffffffffffffffffffff163373ffffffffffffffffffffffffffffffffffffffff16141515610e8457600080fd5b80600560006101000a81548173ffffffffffffffffffffffffffffffffffffffff021916908373ffffffffffffffffffffffffffffffffffffffff16021790555050565b600560009054906101000a900473ffffffffffffffffffffffffffffffffffffffff1673ffffffffffffffffffffffffffffffffffffffff163373ffffffffffffffffffffffffffffffffffffffff16141515610f2457600080fd5b610f2f838383611342565b505050565b82600080600460008473ffffffffffffffffffffffffffffffffffffffff1673ffffffffffffffffffffffffffffffffffffffff16815260200190815260200160002060000160009054906101000a900460ff169150600460008473ffffffffffffffffffffffffffffffffffffffff1673ffffffffffffffffffffffffffffffffffffffff168152602001908152602001600020600101549050818015610fe0575060028054905081105b801561105057508273ffffffffffffffffffffffffffffffffffffffff1660028281548110151561100d57fe5b9060005260206000200160009054906101000a900473ffffffffffffffffffffffffffffffffffffffff1673ffffffffffffffffffffffffffffffffffffffff16145b151561105b57600080fd5b84600080600460008473ffffffffffffffffffffffffffffffffffffffff1673ffffffffffffffffffffffffffffffffffffffff16815260200190815260200160002060000160009054906101000a900460ff169150600460008473ffffffffffffffffffffffffffffffffffffffff1673ffffffffffffffffffffffffffffffffffffffff168152602001908152602001600020600101549050818015611107575060028054905081105b801561117757508273ffffffffffffffffffffffffffffffffffffffff1660028281548110151561113457fe5b9060005260206000200160009054906101000a900473ffffffffffffffffffffffffffffffffffffffff1673ffffffffffffffffffffffffffffffffffffffff16145b151561118257600080fd5b866001548101431115801561119657504381105b15156111a157600080fd5b600115158973ffffffffffffffffffffffffffffffffffffffff168b73ffffffffffffffffffffffffffffffffffffffff167f32c78b6140c46745a46e88cd883707d70dbd2f06d13dd76fe5f499c01290da4f60405160405180910390a450505050505050505050565b600060149054906101000a900460ff16151561122657600080fd5b60008060146101000a81548160ff021916908315150217905550611248611619565b565b600060149054906101000a900460ff1615151561126657600080fd5b60036002908054611278929190611779565b506001600060146101000a81548160ff0219169083151502179055507f8564cd629b15f47dc310d45bcbfc9bcf5420b0d51bf0659a16c67f91d276325360026040518080602001828103825283818154815260200191508054801561133257602002820191906000526020600020905b8160009054906101000a900473ffffffffffffffffffffffffffffffffffffffff1673ffffffffffffffffffffffffffffffffffffffff16815260200190600101908083116112e8575b50509250505060405180910390a1565b82600080600460008473ffffffffffffffffffffffffffffffffffffffff1673ffffffffffffffffffffffffffffffffffffffff16815260200190815260200160002060000160009054906101000a900460ff169150600460008473ffffffffffffffffffffffffffffffffffffffff1673ffffffffffffffffffffffffffffffffffffffff1681526020019081526020016000206001015490508180156113ee575060028054905081105b801561145e57508273ffffffffffffffffffffffffffffffffffffffff1660028281548110151561141b57fe5b9060005260206000200160009054906101000a900473ffffffffffffffffffffffffffffffffffffffff1673ffffffffffffffffffffffffffffffffffffffff16145b151561146957600080fd5b84600080600460008473ffffffffffffffffffffffffffffffffffffffff1673ffffffffffffffffffffffffffffffffffffffff16815260200190815260200160002060000160009054906101000a900460ff169150600460008473ffffffffffffffffffffffffffffffffffffffff1673ffffffffffffffffffffffffffffffffffffffff168152602001908152602001600020600101549050818015611515575060028054905081105b801561158557508273ffffffffffffffffffffffffffffffffffffffff1660028281548110151561154257fe5b9060005260206000200160009054906101000a900473ffffffffffffffffffffffffffffffffffffffff1673ffffffffffffffffffffffffffffffffffffffff16145b151561159057600080fd5b86600154810143111580156115a457504381105b15156115af57600080fd5b600015158973ffffffffffffffffffffffffffffffffffffffff168b73ffffffffffffffffffffffffffffffffffffffff167f32c78b6140c46745a46e88cd883707d70dbd2f06d13dd76fe5f499c01290da4f60405160405180910390a450505050505050505050565b600560009054906101000a900473ffffffffffffffffffffffffffffffffffffffff1673ffffffffffffffffffffffffffffffffffffffff1663a0285c01600143034060036040518363ffffffff167c010000000000000000000000000000000000000000000000000000000002815260040180836000191660001916815260200180602001828103825283818154815260200191508054801561171257602002820191906000526020600020905b8160009054906101000a900473ffffffffffffffffffffffffffffffffffffffff1673ffffffffffffffffffffffffffffffffffffffff16815260200190600101908083116116c8575b50509350505050600060405180830381600087803b15801561173357600080fd5b505af1158015611747573d6000803e3d6000fd5b50505050565b8154818355818111156117745781836000526020600020918201910161177391906117cb565b5b505050565b8280548282559060005260206000209081019282156117ba5760005260206000209182015b828111156117b957825482559160010191906001019061179e565b5b5090506117c791906117f0565b5090565b6117ed91905b808211156117e95760008160009055506001016117d1565b5090565b90565b61183091905b8082111561182c57600081816101000a81549073ffffffffffffffffffffffffffffffffffffffff0219169055506001016117f6565b5090565b905600a165627a7a72305820b3446fd89e5cfb6abac22e4dfcdd8c36093f9dca9cabdde39ca697b4024c9ae90029",
  "source": "// Copyright 2018 Parity Technologies Ltd.\n//\n// Licensed under the Apache License, Version 2.0 (the \"License\");\n// you may not use this file except in compliance with the License.\n// You may obtain a copy of the License at\n//\n//     http://www.apache.org/licenses/LICENSE-2.0\n//\n// Unless required by applicable law or agreed to in writing, software\n// distributed under the License is distributed on an \"AS IS\" BASIS,\n// WITHOUT WARRANTIES OR CONDITIONS OF ANY KIND, either express or implied.\n// See the License for the specific language governing permissions and\n// limitations under the License.\n\n// A `OwnedSet` validator contract that is meant to be relayed by a `RelaySet`\n// contract.\n\npragma solidity ^0.4.22;\n\nimport \"./BaseOwnedSet.sol\";\nimport \"./RelaySet.sol\";\n\n\ncontract RelayedOwnedSet is BaseOwnedSet {\n\tRelaySet public relaySet;\n\n\tmodifier onlyRelay() {\n\t\trequire(msg.sender == address(relaySet));\n\t\t_;\n\t}\n\n\tconstructor(address _relaySet, address[] _initial) BaseOwnedSet(_initial)\n\t\tpublic\n\t{\n\t\trelaySet = RelaySet(_relaySet);\n\t}\n\n\tfunction relayReportBenign(address _reporter, address _validator, uint _blockNumber)\n\t\texternal\n\t\tonlyRelay\n\t{\n\t\tbaseReportBenign(_reporter, _validator, _blockNumber);\n\t}\n\n\tfunction relayReportMalicious(\n\t\taddress _reporter,\n\t\taddress _validator,\n\t\tuint _blockNumber\n\t)\n\t\texternal\n\t\tonlyRelay\n\t{\n\t\tbaseReportMalicious(\n\t\t\t_reporter,\n\t\t\t_validator,\n\t\t\t_blockNumber\n\t\t);\n\t}\n\n\tfunction setRelay(address _relaySet)\n\t\texternal\n\t\tonlyOwner\n\t{\n\t\trelaySet = RelaySet(_relaySet);\n\t}\n\n\tfunction finalizeChange()\n\t\texternal\n\t\tonlyRelay\n\t{\n\t\tbaseFinalizeChange();\n\t}\n\n\tfunction initiateChange()\n\t\tprivate\n\t{\n\t\trelaySet.initiateChange(blockhash(block.number - 1), pending);\n\t}\n}\n",
  "sourcePath": "/home/stan36/repos/DecentraCorp/contracts/ValidatorSet/RelayedOwnedSet.sol",
  "compiler": {
    "name": "solc",
    "version": "0.4.24+commit.e67f0147.Emscripten.clang"
  },
  "schemaVersion": "2.0.1",
  "updatedAt": "2019-02-08T01:14:39.281Z"
}