{
  "contractName": "UseLogic",
  "abi": [
    {
      "constant": true,
      "inputs": [
        {
          "name": "",
          "type": "uint256"
        }
      ],
      "name": "proposals",
      "outputs": [
        {
          "name": "IdeaIPFS",
          "type": "string"
        },
        {
          "name": "executed",
          "type": "bool"
        },
        {
          "name": "proposalPassed",
          "type": "bool"
        },
        {
          "name": "numberOfVotes",
          "type": "uint256"
        }
      ],
      "payable": false,
      "stateMutability": "view",
      "type": "function"
    },
    {
      "constant": true,
      "inputs": [
        {
          "name": "hash",
          "type": "string"
        }
      ],
      "name": "getPropID",
      "outputs": [
        {
          "name": "",
          "type": "uint256"
        }
      ],
      "payable": false,
      "stateMutability": "view",
      "type": "function"
    },
    {
      "constant": false,
      "inputs": [],
      "name": "stakeReplicatorWallet",
      "outputs": [],
      "payable": false,
      "stateMutability": "nonpayable",
      "type": "function"
    },
    {
      "constant": false,
      "inputs": [
        {
          "name": "_ideaIPFS",
          "type": "string"
        },
        {
          "name": "_globalUseBlockAmount",
          "type": "uint256"
        },
        {
          "name": "_miningTime",
          "type": "uint256"
        },
        {
          "name": "_royalty",
          "type": "uint256"
        },
        {
          "name": "_inventor",
          "type": "address"
        },
        {
          "name": "_invention",
          "type": "address"
        }
      ],
      "name": "generateIdeaBlock",
      "outputs": [],
      "payable": false,
      "stateMutability": "nonpayable",
      "type": "function"
    },
    {
      "constant": true,
      "inputs": [],
      "name": "ideaBlockReward",
      "outputs": [
        {
          "name": "",
          "type": "uint256"
        }
      ],
      "payable": false,
      "stateMutability": "view",
      "type": "function"
    },
    {
      "constant": true,
      "inputs": [],
      "name": "globalBlockHalfTime",
      "outputs": [
        {
          "name": "",
          "type": "uint256"
        }
      ],
      "payable": false,
      "stateMutability": "view",
      "type": "function"
    },
    {
      "constant": true,
      "inputs": [],
      "name": "CPBG",
      "outputs": [
        {
          "name": "",
          "type": "address"
        }
      ],
      "payable": false,
      "stateMutability": "view",
      "type": "function"
    },
    {
      "constant": true,
      "inputs": [
        {
          "name": "_member",
          "type": "address"
        }
      ],
      "name": "checkIfMember",
      "outputs": [
        {
          "name": "",
          "type": "bool"
        }
      ],
      "payable": false,
      "stateMutability": "view",
      "type": "function"
    },
    {
      "constant": true,
      "inputs": [],
      "name": "globalIdeaCount",
      "outputs": [
        {
          "name": "",
          "type": "uint256"
        }
      ],
      "payable": false,
      "stateMutability": "view",
      "type": "function"
    },
    {
      "constant": true,
      "inputs": [],
      "name": "IDC",
      "outputs": [
        {
          "name": "",
          "type": "address"
        }
      ],
      "payable": false,
      "stateMutability": "view",
      "type": "function"
    },
    {
      "constant": false,
      "inputs": [],
      "name": "buyMembership",
      "outputs": [],
      "payable": true,
      "stateMutability": "payable",
      "type": "function"
    },
    {
      "constant": false,
      "inputs": [
        {
          "name": "_dcpoa",
          "type": "address"
        },
        {
          "name": "_IDC",
          "type": "address"
        },
        {
          "name": "_CPBG",
          "type": "address"
        }
      ],
      "name": "setGenerators",
      "outputs": [],
      "payable": false,
      "stateMutability": "nonpayable",
      "type": "function"
    },
    {
      "constant": false,
      "inputs": [],
      "name": "renounceOwnership",
      "outputs": [],
      "payable": false,
      "stateMutability": "nonpayable",
      "type": "function"
    },
    {
      "constant": true,
      "inputs": [],
      "name": "globalUseBlock",
      "outputs": [
        {
          "name": "",
          "type": "uint256"
        }
      ],
      "payable": false,
      "stateMutability": "view",
      "type": "function"
    },
    {
      "constant": true,
      "inputs": [],
      "name": "minimumQuorum",
      "outputs": [
        {
          "name": "",
          "type": "uint256"
        }
      ],
      "payable": false,
      "stateMutability": "view",
      "type": "function"
    },
    {
      "constant": true,
      "inputs": [],
      "name": "owner",
      "outputs": [
        {
          "name": "",
          "type": "address"
        }
      ],
      "payable": false,
      "stateMutability": "view",
      "type": "function"
    },
    {
      "constant": true,
      "inputs": [],
      "name": "repStake",
      "outputs": [
        {
          "name": "",
          "type": "uint256"
        }
      ],
      "payable": false,
      "stateMutability": "view",
      "type": "function"
    },
    {
      "constant": true,
      "inputs": [],
      "name": "globalRepCount",
      "outputs": [
        {
          "name": "",
          "type": "uint256"
        }
      ],
      "payable": false,
      "stateMutability": "view",
      "type": "function"
    },
    {
      "constant": false,
      "inputs": [
        {
          "name": "_newStakeAmount",
          "type": "uint256"
        }
      ],
      "name": "changeStakeAmount",
      "outputs": [],
      "payable": false,
      "stateMutability": "nonpayable",
      "type": "function"
    },
    {
      "constant": true,
      "inputs": [],
      "name": "getIdeasOwner",
      "outputs": [
        {
          "name": "",
          "type": "uint256[]"
        }
      ],
      "payable": false,
      "stateMutability": "view",
      "type": "function"
    },
    {
      "constant": true,
      "inputs": [],
      "name": "DCPoA",
      "outputs": [
        {
          "name": "",
          "type": "address"
        }
      ],
      "payable": false,
      "stateMutability": "view",
      "type": "function"
    },
    {
      "constant": true,
      "inputs": [
        {
          "name": "",
          "type": "uint256"
        }
      ],
      "name": "inventions",
      "outputs": [
        {
          "name": "",
          "type": "address"
        }
      ],
      "payable": false,
      "stateMutability": "view",
      "type": "function"
    },
    {
      "constant": false,
      "inputs": [
        {
          "name": "_newOwner",
          "type": "address"
        }
      ],
      "name": "transferOwnership",
      "outputs": [],
      "payable": false,
      "stateMutability": "nonpayable",
      "type": "function"
    },
    {
      "constant": false,
      "inputs": [
        {
          "name": "_ideaId",
          "type": "uint256"
        },
        {
          "name": "_repAdd",
          "type": "address"
        }
      ],
      "name": "generateReplicationBlock",
      "outputs": [],
      "payable": false,
      "stateMutability": "nonpayable",
      "type": "function"
    },
    {
      "anonymous": false,
      "inputs": [
        {
          "indexed": false,
          "name": "IdeaHash",
          "type": "string"
        }
      ],
      "name": "IdeaProposed",
      "type": "event"
    },
    {
      "anonymous": false,
      "inputs": [
        {
          "indexed": false,
          "name": "_ideahash",
          "type": "string"
        }
      ],
      "name": "IdeaApproved",
      "type": "event"
    },
    {
      "anonymous": false,
      "inputs": [
        {
          "indexed": false,
          "name": "_voter",
          "type": "address"
        },
        {
          "indexed": false,
          "name": "inSupport",
          "type": "bool"
        }
      ],
      "name": "Voted",
      "type": "event"
    },
    {
      "anonymous": false,
      "inputs": [
        {
          "indexed": false,
          "name": "member",
          "type": "address"
        }
      ],
      "name": "NewMember",
      "type": "event"
    },
    {
      "anonymous": false,
      "inputs": [
        {
          "indexed": false,
          "name": "_repAdd",
          "type": "address"
        }
      ],
      "name": "NewReplication",
      "type": "event"
    },
    {
      "anonymous": false,
      "inputs": [
        {
          "indexed": true,
          "name": "previousOwner",
          "type": "address"
        }
      ],
      "name": "OwnershipRenounced",
      "type": "event"
    },
    {
      "anonymous": false,
      "inputs": [
        {
          "indexed": true,
          "name": "previousOwner",
          "type": "address"
        },
        {
          "indexed": true,
          "name": "newOwner",
          "type": "address"
        }
      ],
      "name": "OwnershipTransferred",
      "type": "event"
    },
    {
      "constant": false,
      "inputs": [],
      "name": "generateUseBlockWeight",
      "outputs": [],
      "payable": false,
      "stateMutability": "nonpayable",
      "type": "function"
    }
  ],
  "bytecode": "0x6080604052683635c9adc5dea0000060085568056bc75e2d63100000600955336000806101000a81548173ffffffffffffffffffffffffffffffffffffffff021916908373ffffffffffffffffffffffffffffffffffffffff16021790555061310d8061006d6000396000f300608060405260043610610149576000357c0100000000000000000000000000000000000000000000000000000000900463ffffffff168063013cf08b1461014e57806310734e431461021157806318da0e631461028e5780631d28ce3b146102a55780631ddc883b1461036c57806328a6e47c146103975780633c91f273146103c25780634951f6aa146104195780634cfa24091461047457806352d2c11d1461049f5780635c581119146104f65780636da23e4014610500578063715018a614610583578063758249741461059a5780638160f0b5146105c55780638da5cb5b146105f05780639f7d892914610647578063a416ecd714610672578063be6cbbcf14610689578063ca79b5a9146106b4578063daeac7b9146106e1578063e026daa11461074d578063e4fd4524146107a4578063f2fde38b14610811578063f8c711fa14610854575b600080fd5b34801561015a57600080fd5b50610179600480360381019080803590602001909291905050506108a1565b60405180806020018515151515815260200184151515158152602001838152602001828103825286818151815260200191508051906020019080838360005b838110156101d35780820151818401526020810190506101b8565b50505050905090810190601f1680156102005780820380516001836020036101000a031916815260200191505b509550505050505060405180910390f35b34801561021d57600080fd5b50610278600480360381019080803590602001908201803590602001908080601f0160208091040260200160405190810160405280939291908181526020018383808284378201915050505050509192919290505050610992565b6040518082815260200191505060405180910390f35b34801561029a57600080fd5b506102a3610a07565b005b3480156102b157600080fd5b5061036a600480360381019080803590602001908201803590602001908080601f0160208091040260200160405190810160405280939291908181526020018383808284378201915050505050509192919290803590602001909291908035906020019092919080359060200190929190803573ffffffffffffffffffffffffffffffffffffffff169060200190929190803573ffffffffffffffffffffffffffffffffffffffff169060200190929190505050610d36565b005b34801561037857600080fd5b50610381611354565b6040518082815260200191505060405180910390f35b3480156103a357600080fd5b506103ac61135a565b6040518082815260200191505060405180910390f35b3480156103ce57600080fd5b506103d7611360565b604051808273ffffffffffffffffffffffffffffffffffffffff1673ffffffffffffffffffffffffffffffffffffffff16815260200191505060405180910390f35b34801561042557600080fd5b5061045a600480360381019080803573ffffffffffffffffffffffffffffffffffffffff169060200190929190505050611386565b604051808215151515815260200191505060405180910390f35b34801561048057600080fd5b5061048961149b565b6040518082815260200191505060405180910390f35b3480156104ab57600080fd5b506104b46114a1565b604051808273ffffffffffffffffffffffffffffffffffffffff1673ffffffffffffffffffffffffffffffffffffffff16815260200191505060405180910390f35b6104fe6114c7565b005b34801561050c57600080fd5b50610581600480360381019080803573ffffffffffffffffffffffffffffffffffffffff169060200190929190803573ffffffffffffffffffffffffffffffffffffffff169060200190929190803573ffffffffffffffffffffffffffffffffffffffff169060200190929190505050611649565b005b34801561058f57600080fd5b5061059861176c565b005b3480156105a657600080fd5b506105af61186e565b6040518082815260200191505060405180910390f35b3480156105d157600080fd5b506105da611874565b6040518082815260200191505060405180910390f35b3480156105fc57600080fd5b5061060561187a565b604051808273ffffffffffffffffffffffffffffffffffffffff1673ffffffffffffffffffffffffffffffffffffffff16815260200191505060405180910390f35b34801561065357600080fd5b5061065c61189f565b6040518082815260200191505060405180910390f35b34801561067e57600080fd5b506106876118a5565b005b34801561069557600080fd5b5061069e6119c0565b6040518082815260200191505060405180910390f35b3480156106c057600080fd5b506106df600480360381019080803590602001909291905050506119c6565b005b3480156106ed57600080fd5b506106f6611a2b565b6040518080602001828103825283818151815260200191508051906020019060200280838360005b8381101561073957808201518184015260208101905061071e565b505050509050019250505060405180910390f35b34801561075957600080fd5b50610762611ac0565b604051808273ffffffffffffffffffffffffffffffffffffffff1673ffffffffffffffffffffffffffffffffffffffff16815260200191505060405180910390f35b3480156107b057600080fd5b506107cf60048036038101908080359060200190929190505050611ae6565b604051808273ffffffffffffffffffffffffffffffffffffffff1673ffffffffffffffffffffffffffffffffffffffff16815260200191505060405180910390f35b34801561081d57600080fd5b50610852600480360381019080803573ffffffffffffffffffffffffffffffffffffffff169060200190929190505050611b24565b005b34801561086057600080fd5b5061089f60048036038101908080359060200190929190803573ffffffffffffffffffffffffffffffffffffffff169060200190929190505050611b8b565b005b600b818154811015156108b057fe5b9060005260206000209060050201600091509050806000018054600181600116156101000203166002900480601f01602080910402602001604051908101604052809291908181526020018280546001816001161561010002031660029004801561095c5780601f106109315761010080835404028352916020019161095c565b820191906000526020600020905b81548152906001019060200180831161093f57829003601f168201915b5050505050908060010160009054906101000a900460ff16908060010160019054906101000a900460ff16908060020154905084565b6000600f826040518082805190602001908083835b6020831015156109cc57805182526020820191506020810190506020830392506109a7565b6001836020036101000a0380198251168184511680821785525050505050509050019150509081526020016040518091039020549050919050565b68056bc75e2d63100000600160009054906101000a900473ffffffffffffffffffffffffffffffffffffffff1673ffffffffffffffffffffffffffffffffffffffff166370a08231336040518263ffffffff167c0100000000000000000000000000000000000000000000000000000000028152600401808273ffffffffffffffffffffffffffffffffffffffff1673ffffffffffffffffffffffffffffffffffffffff168152602001915050602060405180830381600087803b158015610ace57600080fd5b505af1158015610ae2573d6000803e3d6000fd5b505050506040513d6020811015610af857600080fd5b810190808051906020019092919050505010151515610b1657600080fd5b600260009054906101000a900473ffffffffffffffffffffffffffffffffffffffff1673ffffffffffffffffffffffffffffffffffffffff16637130c2413368056bc75e2d631000006040518363ffffffff167c0100000000000000000000000000000000000000000000000000000000028152600401808373ffffffffffffffffffffffffffffffffffffffff1673ffffffffffffffffffffffffffffffffffffffff16815260200182815260200192505050600060405180830381600087803b158015610be457600080fd5b505af1158015610bf8573d6000803e3d6000fd5b50505050600260009054906101000a900473ffffffffffffffffffffffffffffffffffffffff1673ffffffffffffffffffffffffffffffffffffffff16631d40bbcf336040518263ffffffff167c0100000000000000000000000000000000000000000000000000000000028152600401808273ffffffffffffffffffffffffffffffffffffffff1673ffffffffffffffffffffffffffffffffffffffff168152602001915050600060405180830381600087803b158015610cb957600080fd5b505af1158015610ccd573d6000803e3d6000fd5b505050507fb4dcb6dd550f27b5917ebf674899ea7046ff91790c6f9f01431617ad39819db233604051808273ffffffffffffffffffffffffffffffffffffffff1673ffffffffffffffffffffffffffffffffffffffff16815260200191505060405180910390a1565b6000809054906101000a900473ffffffffffffffffffffffffffffffffffffffff1673ffffffffffffffffffffffffffffffffffffffff163373ffffffffffffffffffffffffffffffffffffffff16141515610d9157600080fd5b600260009054906101000a900473ffffffffffffffffffffffffffffffffffffffff1673ffffffffffffffffffffffffffffffffffffffff1663cb2d97f887878787876040518663ffffffff167c010000000000000000000000000000000000000000000000000000000002815260040180806020018681526020018581526020018481526020018373ffffffffffffffffffffffffffffffffffffffff1673ffffffffffffffffffffffffffffffffffffffff168152602001828103825287818151815260200191508051906020019080838360005b83811015610e83578082015181840152602081019050610e68565b50505050905090810190601f168015610eb05780820380516001836020036101000a031916815260200191505b509650505050505050600060405180830381600087803b158015610ed357600080fd5b505af1158015610ee7573d6000803e3d6000fd5b5050505060046000815480929190600101919050555060011515610f0a83611386565b1515141515610fe957600260009054906101000a900473ffffffffffffffffffffffffffffffffffffffff1673ffffffffffffffffffffffffffffffffffffffff16631d40bbcf836040518263ffffffff167c0100000000000000000000000000000000000000000000000000000000028152600401808273ffffffffffffffffffffffffffffffffffffffff1673ffffffffffffffffffffffffffffffffffffffff168152602001915050600060405180830381600087803b158015610fd057600080fd5b505af1158015610fe4573d6000803e3d6000fd5b505050505b600c8190806001815401808255809150509060018203906000526020600020016000909192909190916101000a81548173ffffffffffffffffffffffffffffffffffffffff021916908373ffffffffffffffffffffffffffffffffffffffff160217905550506110576120dc565b50600260009054906101000a900473ffffffffffffffffffffffffffffffffffffffff1673ffffffffffffffffffffffffffffffffffffffff1663d82f980b836008546040518363ffffffff167c0100000000000000000000000000000000000000000000000000000000028152600401808373ffffffffffffffffffffffffffffffffffffffff1673ffffffffffffffffffffffffffffffffffffffff16815260200182815260200192505050600060405180830381600087803b15801561111f57600080fd5b505af1158015611133573d6000803e3d6000fd5b50505050600260009054906101000a900473ffffffffffffffffffffffffffffffffffffffff1673ffffffffffffffffffffffffffffffffffffffff16638f3e9795836040518263ffffffff167c0100000000000000000000000000000000000000000000000000000000028152600401808273ffffffffffffffffffffffffffffffffffffffff1673ffffffffffffffffffffffffffffffffffffffff168152602001915050600060405180830381600087803b1580156111f457600080fd5b505af1158015611208573d6000803e3d6000fd5b50505050601060008373ffffffffffffffffffffffffffffffffffffffff1673ffffffffffffffffffffffffffffffffffffffff1681526020019081526020016000206004549080600181540180825580915050906001820390600052602060002001600090919290919091505550600260009054906101000a900473ffffffffffffffffffffffffffffffffffffffff1673ffffffffffffffffffffffffffffffffffffffff16638a632bf2836040518263ffffffff167c0100000000000000000000000000000000000000000000000000000000028152600401808273ffffffffffffffffffffffffffffffffffffffff1673ffffffffffffffffffffffffffffffffffffffff168152602001915050600060405180830381600087803b15801561133457600080fd5b505af1158015611348573d6000803e3d6000fd5b50505050505050505050565b60085481565b60075481565b600360009054906101000a900473ffffffffffffffffffffffffffffffffffffffff1681565b600060011515600260009054906101000a900473ffffffffffffffffffffffffffffffffffffffff1673ffffffffffffffffffffffffffffffffffffffff1663aaa746bb846040518263ffffffff167c0100000000000000000000000000000000000000000000000000000000028152600401808273ffffffffffffffffffffffffffffffffffffffff1673ffffffffffffffffffffffffffffffffffffffff168152602001915050602060405180830381600087803b15801561144957600080fd5b505af115801561145d573d6000803e3d6000fd5b505050506040513d602081101561147357600080fd5b8101908080519060200190929190505050151514156114955760019050611496565b5b919050565b60045481565b600160009054906101000a900473ffffffffffffffffffffffffffffffffffffffff1681565b62f0c8a06007540142111515156114dd57600080fd5b670de0b6b3a764000034101515156114f457600080fd5b6114fd3361211e565b600260009054906101000a900473ffffffffffffffffffffffffffffffffffffffff1673ffffffffffffffffffffffffffffffffffffffff1663d82f980b3369021e19e0c9bab24000006040518363ffffffff167c0100000000000000000000000000000000000000000000000000000000028152600401808373ffffffffffffffffffffffffffffffffffffffff1673ffffffffffffffffffffffffffffffffffffffff16815260200182815260200192505050600060405180830381600087803b1580156115cc57600080fd5b505af11580156115e0573d6000803e3d6000fd5b505050507fb4dcb6dd550f27b5917ebf674899ea7046ff91790c6f9f01431617ad39819db233604051808273ffffffffffffffffffffffffffffffffffffffff1673ffffffffffffffffffffffffffffffffffffffff16815260200191505060405180910390a1565b6000809054906101000a900473ffffffffffffffffffffffffffffffffffffffff1673ffffffffffffffffffffffffffffffffffffffff163373ffffffffffffffffffffffffffffffffffffffff161415156116a457600080fd5b82600260006101000a81548173ffffffffffffffffffffffffffffffffffffffff021916908373ffffffffffffffffffffffffffffffffffffffff16021790555081600160006101000a81548173ffffffffffffffffffffffffffffffffffffffff021916908373ffffffffffffffffffffffffffffffffffffffff16021790555080600360006101000a81548173ffffffffffffffffffffffffffffffffffffffff021916908373ffffffffffffffffffffffffffffffffffffffff160217905550505050565b6000809054906101000a900473ffffffffffffffffffffffffffffffffffffffff1673ffffffffffffffffffffffffffffffffffffffff163373ffffffffffffffffffffffffffffffffffffffff161415156117c757600080fd5b6000809054906101000a900473ffffffffffffffffffffffffffffffffffffffff1673ffffffffffffffffffffffffffffffffffffffff167ff8df31144d9c2f0f6b59d69b8b98abd5459d07f2742c4df920b25aae33c6482060405160405180910390a260008060006101000a81548173ffffffffffffffffffffffffffffffffffffffff021916908373ffffffffffffffffffffffffffffffffffffffff160217905550565b60065481565b600a5481565b6000809054906101000a900473ffffffffffffffffffffffffffffffffffffffff1681565b60095481565b600060011515600360009054906101000a900473ffffffffffffffffffffffffffffffffffffffff1673ffffffffffffffffffffffffffffffffffffffff16638eb5b913336040518263ffffffff167c0100000000000000000000000000000000000000000000000000000000028152600401808273ffffffffffffffffffffffffffffffffffffffff1673ffffffffffffffffffffffffffffffffffffffff168152602001915050602060405180830381600087803b15801561196857600080fd5b505af115801561197c573d6000803e3d6000fd5b505050506040513d602081101561199257600080fd5b810190808051906020019092919050505015151415156119b157600080fd5b3390506119bd816121f6565b50565b60055481565b6000809054906101000a900473ffffffffffffffffffffffffffffffffffffffff1673ffffffffffffffffffffffffffffffffffffffff163373ffffffffffffffffffffffffffffffffffffffff16141515611a2157600080fd5b8060098190555050565b6060601060003373ffffffffffffffffffffffffffffffffffffffff1673ffffffffffffffffffffffffffffffffffffffff168152602001908152602001600020805480602002602001604051908101604052809291908181526020018280548015611ab657602002820191906000526020600020905b815481526020019060010190808311611aa2575b5050505050905090565b600260009054906101000a900473ffffffffffffffffffffffffffffffffffffffff1681565b600c81815481101515611af557fe5b906000526020600020016000915054906101000a900473ffffffffffffffffffffffffffffffffffffffff1681565b6000809054906101000a900473ffffffffffffffffffffffffffffffffffffffff1673ffffffffffffffffffffffffffffffffffffffff163373ffffffffffffffffffffffffffffffffffffffff16141515611b7f57600080fd5b611b888161266a565b50565b60011515611b9833611386565b1515141515611ba657600080fd5b60011515611bb333611386565b1515141515611bc157600080fd5b600954600160009054906101000a900473ffffffffffffffffffffffffffffffffffffffff1673ffffffffffffffffffffffffffffffffffffffff166370a08231336040518263ffffffff167c0100000000000000000000000000000000000000000000000000000000028152600401808273ffffffffffffffffffffffffffffffffffffffff1673ffffffffffffffffffffffffffffffffffffffff168152602001915050602060405180830381600087803b158015611c8157600080fd5b505af1158015611c95573d6000803e3d6000fd5b505050506040513d6020811015611cab57600080fd5b810190808051906020019092919050505010151515611cc957600080fd5b600260009054906101000a900473ffffffffffffffffffffffffffffffffffffffff1673ffffffffffffffffffffffffffffffffffffffff16637130c241336009546040518363ffffffff167c0100000000000000000000000000000000000000000000000000000000028152600401808373ffffffffffffffffffffffffffffffffffffffff1673ffffffffffffffffffffffffffffffffffffffff16815260200182815260200192505050600060405180830381600087803b158015611d9057600080fd5b505af1158015611da4573d6000803e3d6000fd5b50505050600560008154809291906001019190505550600260009054906101000a900473ffffffffffffffffffffffffffffffffffffffff1673ffffffffffffffffffffffffffffffffffffffff1663e934f00b8383336040518463ffffffff167c0100000000000000000000000000000000000000000000000000000000028152600401808481526020018373ffffffffffffffffffffffffffffffffffffffff1673ffffffffffffffffffffffffffffffffffffffff1681526020018273ffffffffffffffffffffffffffffffffffffffff1673ffffffffffffffffffffffffffffffffffffffff1681526020019350505050600060405180830381600087803b158015611eb357600080fd5b505af1158015611ec7573d6000803e3d6000fd5b50505050600260009054906101000a900473ffffffffffffffffffffffffffffffffffffffff1673ffffffffffffffffffffffffffffffffffffffff16638f3e9795336040518263ffffffff167c0100000000000000000000000000000000000000000000000000000000028152600401808273ffffffffffffffffffffffffffffffffffffffff1673ffffffffffffffffffffffffffffffffffffffff168152602001915050600060405180830381600087803b158015611f8857600080fd5b505af1158015611f9c573d6000803e3d6000fd5b50505050600260009054906101000a900473ffffffffffffffffffffffffffffffffffffffff1673ffffffffffffffffffffffffffffffffffffffff16638a632bf2336040518263ffffffff167c0100000000000000000000000000000000000000000000000000000000028152600401808273ffffffffffffffffffffffffffffffffffffffff1673ffffffffffffffffffffffffffffffffffffffff168152602001915050600060405180830381600087803b15801561205d57600080fd5b505af1158015612071573d6000803e3d6000fd5b505050507fe949536157131e1de4cd7b981de0040f0fb98337330cdf262d0fed657681c2f081604051808273ffffffffffffffffffffffffffffffffffffffff1673ffffffffffffffffffffffffffffffffffffffff16815260200191505060405180910390a15050565b60006305a48fba60075401421015156121155760026008548115156120fd57fe5b0460088190555042600781905550600854905061211b565b60085490505b90565b600260009054906101000a900473ffffffffffffffffffffffffffffffffffffffff1673ffffffffffffffffffffffffffffffffffffffff16631d40bbcf826040518263ffffffff167c0100000000000000000000000000000000000000000000000000000000028152600401808273ffffffffffffffffffffffffffffffffffffffff1673ffffffffffffffffffffffffffffffffffffffff168152602001915050600060405180830381600087803b1580156121db57600080fd5b505af11580156121ef573d6000803e3d6000fd5b5050505050565b600080600080600080600080600360009054906101000a900473ffffffffffffffffffffffffffffffffffffffff1673ffffffffffffffffffffffffffffffffffffffff166388556ddc8a6040518263ffffffff167c0100000000000000000000000000000000000000000000000000000000028152600401808273ffffffffffffffffffffffffffffffffffffffff1673ffffffffffffffffffffffffffffffffffffffff168152602001915050602060405180830381600087803b1580156122bf57600080fd5b505af11580156122d3573d6000803e3d6000fd5b505050506040513d60208110156122e957600080fd5b81019080805190602001909291905050509750600360009054906101000a900473ffffffffffffffffffffffffffffffffffffffff1673ffffffffffffffffffffffffffffffffffffffff1663d5e5c5618a6040518263ffffffff167c0100000000000000000000000000000000000000000000000000000000028152600401808273ffffffffffffffffffffffffffffffffffffffff1673ffffffffffffffffffffffffffffffffffffffff168152602001915050602060405180830381600087803b1580156123b957600080fd5b505af11580156123cd573d6000803e3d6000fd5b505050506040513d60208110156123e357600080fd5b81019080805190602001909291905050509650600195506124048689612764565b9450600e60008a73ffffffffffffffffffffffffffffffffffffffff1673ffffffffffffffffffffffffffffffffffffffff16815260200190815260200160002060008881526020019081526020016000205493508484019250600d6000898152602001908152602001600020549150600360009054906101000a900473ffffffffffffffffffffffffffffffffffffffff1673ffffffffffffffffffffffffffffffffffffffff16631d5f3dfc896040518263ffffffff167c010000000000000000000000000000000000000000000000000000000002815260040180828152602001915050602060405180830381600087803b15801561250557600080fd5b505af1158015612519573d6000803e3d6000fd5b505050506040513d602081101561252f57600080fd5b8101908080519060200190929190505050905082600e60008b73ffffffffffffffffffffffffffffffffffffffff1673ffffffffffffffffffffffffffffffffffffffff1681526020019081526020016000206000898152602001908152602001600020819055508183101580156125a75750804210155b1561265f576125b589612894565b600360009054906101000a900473ffffffffffffffffffffffffffffffffffffffff1673ffffffffffffffffffffffffffffffffffffffff1663cb47f760896040518263ffffffff167c010000000000000000000000000000000000000000000000000000000002815260040180828152602001915050600060405180830381600087803b15801561264657600080fd5b505af115801561265a573d6000803e3d6000fd5b505050505b505050505050505050565b600073ffffffffffffffffffffffffffffffffffffffff168173ffffffffffffffffffffffffffffffffffffffff16141515156126a657600080fd5b8073ffffffffffffffffffffffffffffffffffffffff166000809054906101000a900473ffffffffffffffffffffffffffffffffffffffff1673ffffffffffffffffffffffffffffffffffffffff167f8be0079c531659141344cd1fd0a4f28419497f9722a3daafe3b4186f6b6457e060405160405180910390a3806000806101000a81548173ffffffffffffffffffffffffffffffffffffffff021916908373ffffffffffffffffffffffffffffffffffffffff16021790555050565b6000806000806000600360009054906101000a900473ffffffffffffffffffffffffffffffffffffffff1673ffffffffffffffffffffffffffffffffffffffff166330255eb533886040518363ffffffff167c0100000000000000000000000000000000000000000000000000000000028152600401808373ffffffffffffffffffffffffffffffffffffffff1673ffffffffffffffffffffffffffffffffffffffff16815260200182815260200192505050602060405180830381600087803b15801561283157600080fd5b505af1158015612845573d6000803e3d6000fd5b505050506040513d602081101561285b57600080fd5b81019080805190602001909291905050509350600a8781151561287a57fe5b049250838302915081870190508094505050505092915050565b6000806000806000600360009054906101000a900473ffffffffffffffffffffffffffffffffffffffff1673ffffffffffffffffffffffffffffffffffffffff1663dbe10d51876040518263ffffffff167c0100000000000000000000000000000000000000000000000000000000028152600401808273ffffffffffffffffffffffffffffffffffffffff1673ffffffffffffffffffffffffffffffffffffffff168152602001915050602060405180830381600087803b15801561295957600080fd5b505af115801561296d573d6000803e3d6000fd5b505050506040513d602081101561298357600080fd5b81019080805190602001909291905050509450600360009054906101000a900473ffffffffffffffffffffffffffffffffffffffff1673ffffffffffffffffffffffffffffffffffffffff1663bb788457876040518263ffffffff167c0100000000000000000000000000000000000000000000000000000000028152600401808273ffffffffffffffffffffffffffffffffffffffff1673ffffffffffffffffffffffffffffffffffffffff168152602001915050602060405180830381600087803b158015612a5357600080fd5b505af1158015612a67573d6000803e3d6000fd5b505050506040513d6020811015612a7d57600080fd5b81019080805190602001909291905050509350600360009054906101000a900473ffffffffffffffffffffffffffffffffffffffff1673ffffffffffffffffffffffffffffffffffffffff166388556ddc876040518263ffffffff167c0100000000000000000000000000000000000000000000000000000000028152600401808273ffffffffffffffffffffffffffffffffffffffff1673ffffffffffffffffffffffffffffffffffffffff168152602001915050602060405180830381600087803b158015612b4d57600080fd5b505af1158015612b61573d6000803e3d6000fd5b505050506040513d6020811015612b7757600080fd5b81019080805190602001909291905050509250600360009054906101000a900473ffffffffffffffffffffffffffffffffffffffff1673ffffffffffffffffffffffffffffffffffffffff1663eb61e371876040518263ffffffff167c0100000000000000000000000000000000000000000000000000000000028152600401808273ffffffffffffffffffffffffffffffffffffffff1673ffffffffffffffffffffffffffffffffffffffff168152602001915050602060405180830381600087803b158015612c4757600080fd5b505af1158015612c5b573d6000803e3d6000fd5b505050506040513d6020811015612c7157600080fd5b81019080805190602001909291905050509150600360009054906101000a900473ffffffffffffffffffffffffffffffffffffffff1673ffffffffffffffffffffffffffffffffffffffff1663d4f69b68846040518263ffffffff167c010000000000000000000000000000000000000000000000000000000002815260040180828152602001915050602060405180830381600087803b158015612d1557600080fd5b505af1158015612d29573d6000803e3d6000fd5b505050506040513d6020811015612d3f57600080fd5b810190808051906020019092919050505090508181039050612d618184612764565b9050600660008154809291906001019190505550600260009054906101000a900473ffffffffffffffffffffffffffffffffffffffff1673ffffffffffffffffffffffffffffffffffffffff166332836d8d866040518263ffffffff167c0100000000000000000000000000000000000000000000000000000000028152600401808273ffffffffffffffffffffffffffffffffffffffff1673ffffffffffffffffffffffffffffffffffffffff168152602001915050600060405180830381600087803b158015612e3257600080fd5b505af1158015612e46573d6000803e3d6000fd5b50505050600260009054906101000a900473ffffffffffffffffffffffffffffffffffffffff1673ffffffffffffffffffffffffffffffffffffffff1663d82f980b86836040518363ffffffff167c0100000000000000000000000000000000000000000000000000000000028152600401808373ffffffffffffffffffffffffffffffffffffffff1673ffffffffffffffffffffffffffffffffffffffff16815260200182815260200192505050600060405180830381600087803b158015612f0f57600080fd5b505af1158015612f23573d6000803e3d6000fd5b50505050600260009054906101000a900473ffffffffffffffffffffffffffffffffffffffff1673ffffffffffffffffffffffffffffffffffffffff1663d82f980b85846040518363ffffffff167c0100000000000000000000000000000000000000000000000000000000028152600401808373ffffffffffffffffffffffffffffffffffffffff1673ffffffffffffffffffffffffffffffffffffffff16815260200182815260200192505050600060405180830381600087803b158015612fec57600080fd5b505af1158015613000573d6000803e3d6000fd5b50505050600260009054906101000a900473ffffffffffffffffffffffffffffffffffffffff1673ffffffffffffffffffffffffffffffffffffffff16638f3e9795866040518263ffffffff167c0100000000000000000000000000000000000000000000000000000000028152600401808273ffffffffffffffffffffffffffffffffffffffff1673ffffffffffffffffffffffffffffffffffffffff168152602001915050600060405180830381600087803b1580156130c157600080fd5b505af11580156130d5573d6000803e3d6000fd5b505050505050505050505600a165627a7a72305820f9f85cf0b3ab9dad43364226b65d8e99d13687725cf15c8da3bfc4fef9777e8c0029",
  "source": "pragma solidity ^0.4.21;\nimport \"./RBLogic.sol\";\n////////////////////////////////////////////////////////////////////////////////////////////\n/// @title UseLogic Contract for the CryptoPatent Blockchain\n/// @author DecentraCorp\n/// @notice this contract is the fouth contract in the CryptoPatent Blockchain\n/// @dev All function calls are currently implement without side effects\n////////////////////////////////////////////////////////////////////////////////////////////\n/// @author Christopher Dixon\n\ncontract UseLogic is RBLogic {\n\n///@notice generateUseBlockWeight allows a replication block to generate a local use weight\n///        and possibly a global use blocks\n///@dev this function is the first in a chain of function and implements the onlyReplication modifier\n///@dev generateUseBlockWeight is fired from this function are to be used by the EPMS to trigger internal timers set to info in the original idea's IPFS info\nfunction generateUseBlockWeight() public onlyReplication {\n  address _rep = msg.sender;\n  UseBlockWeight(_rep);\n  }\n\n///@notice generateGlobalUseBlock is an internal function called when the cryptopatent blockchain has determined\n///        that a replication has mined a global use block.\nfunction generateGlobalUseBlock(address _rep) internal {\n  address repOwnerAddress = CPBG.getOwnersAddress(_rep);\n//sets repOwnerAddress as a specific replications owner from a rep struct\n  address inventor = CPBG.getInventorsAddress(_rep);\n//sets inventor as a specific idea owner from a rep struct\n  uint ideaID = CPBG.getIdeaID(_rep);\n//sets ideaID as a specific replications ideaID from a rep struct\n  uint royalty = CPBG.getRoyalty(_rep);\n//sets royalty as a specific replications royalty from a rep struct\n  uint BlockReward = CPBG.getGlobalUseBlockAmount(ideaID);\n//sets BlockReward as the block reward for a specific idea\n  BlockReward = BlockReward - royalty;\n//stes BlockReward equal to itself minus the royalty\n  BlockReward = calculatePromo(BlockReward, ideaID);\n//calculates BlockReward according to promotion status of a member\n  globalUseBlock++;\n//increments global use block counter\n  DCPoA.generateGUSBlock(repOwnerAddress);\n  DCPoA.proxyIDCMint(repOwnerAddress, BlockReward);\n//mints the replication Owner his block reward\n  DCPoA.proxyIDCMint(inventor, royalty);\n//mints royalties to the idea inventor\nDCPoA.increaseMemRank( repOwnerAddress);\n\n}\n\n///@notice UseBlockWeight is an internal function that tracks loacal use weightTracker\n///@dev this is called by generateUseBlockWeight\nfunction UseBlockWeight(address _rep) internal {\n  uint ideaID = CPBG.getIdeaID(_rep);\n//sets ideaID as a specific ideaID from the replications struct\n  uint repID = CPBG.getRepID(_rep);\n//sets repID as a specific replications id from the replications struct\n  uint _blockReward = 1;\n//sets _blockReward equal to one\n  uint _amount = calculatePromo(_blockReward, ideaID);\n//sets _amount equal to the calculated block reward dependant upon promotion level of the replicator\n  uint weight = localWeightTracker[_rep][repID];\n// sets weight equal to the current weight of a specific replication\n  uint newWeight = weight + _amount;\n// increases the weight of a specific replication\n  uint globalWeight = weightTracker[ideaID];\n//sets globalWeight as the current highest weight for a specific idea\n  uint timeLord = CPBG.getMiningTime(ideaID);\n  localWeightTracker[_rep][repID] = newWeight;\n//sets the newWeight for that specific replication\n  if(newWeight >= globalWeight && now >= timeLord) {\n//checks if the replication has the heaviest weight\n    generateGlobalUseBlock(_rep);\n//if it does it generates a global use block\n    CPBG.setMiningTime(ideaID);\n//resets the global mining time for a specific idea after a useBlock is mined\n    }\n  }\n}\n",
  "sourcePath": "/home/stan36/repos/DecentraCorp/contracts/CryptoPatent/UseLogic.sol",
  "compiler": {
    "name": "solc",
    "version": "0.4.24+commit.e67f0147.Emscripten.clang"
  },
  "schemaVersion": "2.0.1",
  "updatedAt": "2018-12-25T05:45:49.080Z"
}