{
  "contractName": "UseLogic",
  "abi": [
    {
      "constant": true,
      "inputs": [],
      "name": "GUBG",
      "outputs": [
        {
          "name": "",
          "type": "address"
        }
      ],
      "payable": false,
      "stateMutability": "view",
      "type": "function"
    },
    {
      "constant": true,
      "inputs": [
        {
          "name": "",
          "type": "uint256"
        }
      ],
      "name": "proposals",
      "outputs": [
        {
          "name": "IdeaIPFS",
          "type": "string"
        },
        {
          "name": "executed",
          "type": "bool"
        },
        {
          "name": "proposalPassed",
          "type": "bool"
        },
        {
          "name": "numberOfVotes",
          "type": "uint256"
        }
      ],
      "payable": false,
      "stateMutability": "view",
      "type": "function"
    },
    {
      "constant": true,
      "inputs": [],
      "name": "memberCount",
      "outputs": [
        {
          "name": "",
          "type": "uint256"
        }
      ],
      "payable": false,
      "stateMutability": "view",
      "type": "function"
    },
    {
      "constant": true,
      "inputs": [],
      "name": "ideaBlockReward",
      "outputs": [
        {
          "name": "",
          "type": "uint256"
        }
      ],
      "payable": false,
      "stateMutability": "view",
      "type": "function"
    },
    {
      "constant": true,
      "inputs": [],
      "name": "globalBlockHalfTime",
      "outputs": [
        {
          "name": "",
          "type": "uint256"
        }
      ],
      "payable": false,
      "stateMutability": "view",
      "type": "function"
    },
    {
      "constant": true,
      "inputs": [],
      "name": "globalIdeaCount",
      "outputs": [
        {
          "name": "",
          "type": "uint256"
        }
      ],
      "payable": false,
      "stateMutability": "view",
      "type": "function"
    },
    {
      "constant": true,
      "inputs": [],
      "name": "IDC",
      "outputs": [
        {
          "name": "",
          "type": "address"
        }
      ],
      "payable": false,
      "stateMutability": "view",
      "type": "function"
    },
    {
      "constant": false,
      "inputs": [],
      "name": "renounceOwnership",
      "outputs": [],
      "payable": false,
      "stateMutability": "nonpayable",
      "type": "function"
    },
    {
      "constant": true,
      "inputs": [],
      "name": "globalUseBlock",
      "outputs": [
        {
          "name": "",
          "type": "uint256"
        }
      ],
      "payable": false,
      "stateMutability": "view",
      "type": "function"
    },
    {
      "constant": true,
      "inputs": [],
      "name": "RBG",
      "outputs": [
        {
          "name": "",
          "type": "address"
        }
      ],
      "payable": false,
      "stateMutability": "view",
      "type": "function"
    },
    {
      "constant": true,
      "inputs": [],
      "name": "minimumQuorum",
      "outputs": [
        {
          "name": "",
          "type": "uint256"
        }
      ],
      "payable": false,
      "stateMutability": "view",
      "type": "function"
    },
    {
      "constant": true,
      "inputs": [],
      "name": "owner",
      "outputs": [
        {
          "name": "",
          "type": "address"
        }
      ],
      "payable": false,
      "stateMutability": "view",
      "type": "function"
    },
    {
      "constant": true,
      "inputs": [],
      "name": "IBG",
      "outputs": [
        {
          "name": "",
          "type": "address"
        }
      ],
      "payable": false,
      "stateMutability": "view",
      "type": "function"
    },
    {
      "constant": true,
      "inputs": [],
      "name": "repStake",
      "outputs": [
        {
          "name": "",
          "type": "uint256"
        }
      ],
      "payable": false,
      "stateMutability": "view",
      "type": "function"
    },
    {
      "constant": true,
      "inputs": [],
      "name": "globalRepCount",
      "outputs": [
        {
          "name": "",
          "type": "uint256"
        }
      ],
      "payable": false,
      "stateMutability": "view",
      "type": "function"
    },
    {
      "constant": false,
      "inputs": [
        {
          "name": "_newStakeAmount",
          "type": "uint256"
        }
      ],
      "name": "changeStakeAmount",
      "outputs": [],
      "payable": false,
      "stateMutability": "nonpayable",
      "type": "function"
    },
    {
      "constant": false,
      "inputs": [
        {
          "name": "_ideaIPFS",
          "type": "string"
        },
        {
          "name": "_globalUseBlockAmount",
          "type": "uint256"
        },
        {
          "name": "_miningTime",
          "type": "uint256"
        },
        {
          "name": "_royalty",
          "type": "uint256"
        },
        {
          "name": "_inventor",
          "type": "address"
        }
      ],
      "name": "generateIdeaBlock",
      "outputs": [],
      "payable": false,
      "stateMutability": "nonpayable",
      "type": "function"
    },
    {
      "constant": true,
      "inputs": [],
      "name": "DCPoA",
      "outputs": [
        {
          "name": "",
          "type": "address"
        }
      ],
      "payable": false,
      "stateMutability": "view",
      "type": "function"
    },
    {
      "constant": false,
      "inputs": [
        {
          "name": "_newOwner",
          "type": "address"
        }
      ],
      "name": "transferOwnership",
      "outputs": [],
      "payable": false,
      "stateMutability": "nonpayable",
      "type": "function"
    },
    {
      "constant": false,
      "inputs": [
        {
          "name": "_ideaId",
          "type": "uint256"
        },
        {
          "name": "_repAdd",
          "type": "address"
        }
      ],
      "name": "generateReplicationBlock",
      "outputs": [],
      "payable": false,
      "stateMutability": "nonpayable",
      "type": "function"
    },
    {
      "anonymous": false,
      "inputs": [
        {
          "indexed": true,
          "name": "previousOwner",
          "type": "address"
        }
      ],
      "name": "OwnershipRenounced",
      "type": "event"
    },
    {
      "anonymous": false,
      "inputs": [
        {
          "indexed": true,
          "name": "previousOwner",
          "type": "address"
        },
        {
          "indexed": true,
          "name": "newOwner",
          "type": "address"
        }
      ],
      "name": "OwnershipTransferred",
      "type": "event"
    },
    {
      "constant": false,
      "inputs": [],
      "name": "generateUseBlockWeight",
      "outputs": [],
      "payable": false,
      "stateMutability": "nonpayable",
      "type": "function"
    }
  ],
  "bytecode": "0x6080604052683635c9adc5dea00000600b5568056bc75e2d63100000600c55336000806101000a81548173ffffffffffffffffffffffffffffffffffffffff021916908373ffffffffffffffffffffffffffffffffffffffff1602179055506122348061006d6000396000f30060806040526004361061011c576000357c0100000000000000000000000000000000000000000000000000000000900463ffffffff168062beed7314610121578063013cf08b1461017857806311aee3801461023b5780631ddc883b1461026657806328a6e47c146102915780634cfa2409146102bc57806352d2c11d146102e7578063715018a61461033e57806375824974146103555780637e81347d146103805780638160f0b5146103d75780638da5cb5b146104025780639df2c4de146104595780639f7d8929146104b0578063a416ecd7146104db578063be6cbbcf146104f2578063ca79b5a91461051d578063cb2d97f81461054a578063e026daa1146105f1578063f2fde38b14610648578063f8c711fa1461068b575b600080fd5b34801561012d57600080fd5b506101366106d8565b604051808273ffffffffffffffffffffffffffffffffffffffff1673ffffffffffffffffffffffffffffffffffffffff16815260200191505060405180910390f35b34801561018457600080fd5b506101a3600480360381019080803590602001909291905050506106fe565b60405180806020018515151515815260200184151515158152602001838152602001828103825286818151815260200191508051906020019080838360005b838110156101fd5780820151818401526020810190506101e2565b50505050905090810190601f16801561022a5780820380516001836020036101000a031916815260200191505b509550505050505060405180910390f35b34801561024757600080fd5b506102506107ef565b6040518082815260200191505060405180910390f35b34801561027257600080fd5b5061027b6107f5565b6040518082815260200191505060405180910390f35b34801561029d57600080fd5b506102a66107fb565b6040518082815260200191505060405180910390f35b3480156102c857600080fd5b506102d1610801565b6040518082815260200191505060405180910390f35b3480156102f357600080fd5b506102fc610807565b604051808273ffffffffffffffffffffffffffffffffffffffff1673ffffffffffffffffffffffffffffffffffffffff16815260200191505060405180910390f35b34801561034a57600080fd5b5061035361082d565b005b34801561036157600080fd5b5061036a61092f565b6040518082815260200191505060405180910390f35b34801561038c57600080fd5b50610395610935565b604051808273ffffffffffffffffffffffffffffffffffffffff1673ffffffffffffffffffffffffffffffffffffffff16815260200191505060405180910390f35b3480156103e357600080fd5b506103ec61095b565b6040518082815260200191505060405180910390f35b34801561040e57600080fd5b50610417610961565b604051808273ffffffffffffffffffffffffffffffffffffffff1673ffffffffffffffffffffffffffffffffffffffff16815260200191505060405180910390f35b34801561046557600080fd5b5061046e610986565b604051808273ffffffffffffffffffffffffffffffffffffffff1673ffffffffffffffffffffffffffffffffffffffff16815260200191505060405180910390f35b3480156104bc57600080fd5b506104c56109ac565b6040518082815260200191505060405180910390f35b3480156104e757600080fd5b506104f06109b2565b005b3480156104fe57600080fd5b50610507610acd565b6040518082815260200191505060405180910390f35b34801561052957600080fd5b5061054860048036038101908080359060200190929190505050610ad3565b005b34801561055657600080fd5b506105ef600480360381019080803590602001908201803590602001908080601f0160208091040260200160405190810160405280939291908181526020018383808284378201915050505050509192919290803590602001909291908035906020019092919080359060200190929190803573ffffffffffffffffffffffffffffffffffffffff169060200190929190505050610b38565b005b3480156105fd57600080fd5b50610606610f02565b604051808273ffffffffffffffffffffffffffffffffffffffff1673ffffffffffffffffffffffffffffffffffffffff16815260200191505060405180910390f35b34801561065457600080fd5b50610689600480360381019080803573ffffffffffffffffffffffffffffffffffffffff169060200190929190505050610f28565b005b34801561069757600080fd5b506106d660048036038101908080359060200190929190803573ffffffffffffffffffffffffffffffffffffffff169060200190929190505050610f8f565b005b600560009054906101000a900473ffffffffffffffffffffffffffffffffffffffff1681565b600e8181548110151561070d57fe5b9060005260206000209060050201600091509050806000018054600181600116156101000203166002900480601f0160208091040260200160405190810160405280929190818152602001828054600181600116156101000203166002900480156107b95780601f1061078e576101008083540402835291602001916107b9565b820191906000526020600020905b81548152906001019060200180831161079c57829003601f168201915b5050505050908060010160009054906101000a900460ff16908060010160019054906101000a900460ff16908060020154905084565b60085481565b600b5481565b600a5481565b60065481565b600160009054906101000a900473ffffffffffffffffffffffffffffffffffffffff1681565b6000809054906101000a900473ffffffffffffffffffffffffffffffffffffffff1673ffffffffffffffffffffffffffffffffffffffff163373ffffffffffffffffffffffffffffffffffffffff1614151561088857600080fd5b6000809054906101000a900473ffffffffffffffffffffffffffffffffffffffff1673ffffffffffffffffffffffffffffffffffffffff167ff8df31144d9c2f0f6b59d69b8b98abd5459d07f2742c4df920b25aae33c6482060405160405180910390a260008060006101000a81548173ffffffffffffffffffffffffffffffffffffffff021916908373ffffffffffffffffffffffffffffffffffffffff160217905550565b60095481565b600460009054906101000a900473ffffffffffffffffffffffffffffffffffffffff1681565b600d5481565b6000809054906101000a900473ffffffffffffffffffffffffffffffffffffffff1681565b600360009054906101000a900473ffffffffffffffffffffffffffffffffffffffff1681565b600c5481565b600060011515600460009054906101000a900473ffffffffffffffffffffffffffffffffffffffff1673ffffffffffffffffffffffffffffffffffffffff16638eb5b913336040518263ffffffff167c0100000000000000000000000000000000000000000000000000000000028152600401808273ffffffffffffffffffffffffffffffffffffffff1673ffffffffffffffffffffffffffffffffffffffff168152602001915050602060405180830381600087803b158015610a7557600080fd5b505af1158015610a89573d6000803e3d6000fd5b505050506040513d6020811015610a9f57600080fd5b81019080805190602001909291905050501515141515610abe57600080fd5b339050610aca816113b0565b50565b60075481565b6000809054906101000a900473ffffffffffffffffffffffffffffffffffffffff1673ffffffffffffffffffffffffffffffffffffffff163373ffffffffffffffffffffffffffffffffffffffff16141515610b2e57600080fd5b80600c8190555050565b6000809054906101000a900473ffffffffffffffffffffffffffffffffffffffff1673ffffffffffffffffffffffffffffffffffffffff163373ffffffffffffffffffffffffffffffffffffffff16141515610b9357600080fd5b600360009054906101000a900473ffffffffffffffffffffffffffffffffffffffff1673ffffffffffffffffffffffffffffffffffffffff16638fce263386868686866040518663ffffffff167c010000000000000000000000000000000000000000000000000000000002815260040180806020018681526020018581526020018481526020018373ffffffffffffffffffffffffffffffffffffffff1673ffffffffffffffffffffffffffffffffffffffff168152602001828103825287818151815260200191508051906020019080838360005b83811015610c85578082015181840152602081019050610c6a565b50505050905090810190601f168015610cb25780820380516001836020036101000a031916815260200191505b509650505050505050600060405180830381600087803b158015610cd557600080fd5b505af1158015610ce9573d6000803e3d6000fd5b5050505060066000815480929190600101919050555060011515601160008373ffffffffffffffffffffffffffffffffffffffff1673ffffffffffffffffffffffffffffffffffffffff16815260200190815260200160002060009054906101000a900460ff161515141515610dc4576001601160008373ffffffffffffffffffffffffffffffffffffffff1673ffffffffffffffffffffffffffffffffffffffff16815260200190815260200160002060006101000a81548160ff0219169083151502179055506008600081548092919060010191905055505b610dcc611824565b50600260009054906101000a900473ffffffffffffffffffffffffffffffffffffffff1673ffffffffffffffffffffffffffffffffffffffff16631f471ad082600b546040518363ffffffff167c0100000000000000000000000000000000000000000000000000000000028152600401808373ffffffffffffffffffffffffffffffffffffffff1673ffffffffffffffffffffffffffffffffffffffff16815260200182815260200192505050600060405180830381600087803b158015610e9457600080fd5b505af1158015610ea8573d6000803e3d6000fd5b50505050601260008273ffffffffffffffffffffffffffffffffffffffff1673ffffffffffffffffffffffffffffffffffffffff168152602001908152602001600020600081548092919060010191905055505050505050565b600260009054906101000a900473ffffffffffffffffffffffffffffffffffffffff1681565b6000809054906101000a900473ffffffffffffffffffffffffffffffffffffffff1673ffffffffffffffffffffffffffffffffffffffff163373ffffffffffffffffffffffffffffffffffffffff16141515610f8357600080fd5b610f8c81611866565b50565b600760008154809291906001019190505550600c54600160009054906101000a900473ffffffffffffffffffffffffffffffffffffffff1673ffffffffffffffffffffffffffffffffffffffff166370a08231336040518263ffffffff167c0100000000000000000000000000000000000000000000000000000000028152600401808273ffffffffffffffffffffffffffffffffffffffff1673ffffffffffffffffffffffffffffffffffffffff168152602001915050602060405180830381600087803b15801561106157600080fd5b505af1158015611075573d6000803e3d6000fd5b505050506040513d602081101561108b57600080fd5b8101908080519060200190929190505050101515156110a957600080fd5b600260009054906101000a900473ffffffffffffffffffffffffffffffffffffffff1673ffffffffffffffffffffffffffffffffffffffff1663744a20fd33600c546040518363ffffffff167c0100000000000000000000000000000000000000000000000000000000028152600401808373ffffffffffffffffffffffffffffffffffffffff1673ffffffffffffffffffffffffffffffffffffffff16815260200182815260200192505050600060405180830381600087803b15801561117057600080fd5b505af1158015611184573d6000803e3d6000fd5b5050505060001515601160003373ffffffffffffffffffffffffffffffffffffffff1673ffffffffffffffffffffffffffffffffffffffff16815260200190815260200160002060009054906101000a900460ff161515141561124c576001601160003373ffffffffffffffffffffffffffffffffffffffff1673ffffffffffffffffffffffffffffffffffffffff16815260200190815260200160002060006101000a81548160ff0219169083151502179055506008600081548092919060010191905055505b600460009054906101000a900473ffffffffffffffffffffffffffffffffffffffff1673ffffffffffffffffffffffffffffffffffffffff1663e934f00b8383336040518463ffffffff167c0100000000000000000000000000000000000000000000000000000000028152600401808481526020018373ffffffffffffffffffffffffffffffffffffffff1673ffffffffffffffffffffffffffffffffffffffff1681526020018273ffffffffffffffffffffffffffffffffffffffff1673ffffffffffffffffffffffffffffffffffffffff1681526020019350505050600060405180830381600087803b15801561134557600080fd5b505af1158015611359573d6000803e3d6000fd5b50505050601260003373ffffffffffffffffffffffffffffffffffffffff1673ffffffffffffffffffffffffffffffffffffffff168152602001908152602001600020600081548092919060010191905055505050565b600080600080600080600080600460009054906101000a900473ffffffffffffffffffffffffffffffffffffffff1673ffffffffffffffffffffffffffffffffffffffff166388556ddc8a6040518263ffffffff167c0100000000000000000000000000000000000000000000000000000000028152600401808273ffffffffffffffffffffffffffffffffffffffff1673ffffffffffffffffffffffffffffffffffffffff168152602001915050602060405180830381600087803b15801561147957600080fd5b505af115801561148d573d6000803e3d6000fd5b505050506040513d60208110156114a357600080fd5b81019080805190602001909291905050509750600460009054906101000a900473ffffffffffffffffffffffffffffffffffffffff1673ffffffffffffffffffffffffffffffffffffffff1663d5e5c5618a6040518263ffffffff167c0100000000000000000000000000000000000000000000000000000000028152600401808273ffffffffffffffffffffffffffffffffffffffff1673ffffffffffffffffffffffffffffffffffffffff168152602001915050602060405180830381600087803b15801561157357600080fd5b505af1158015611587573d6000803e3d6000fd5b505050506040513d602081101561159d57600080fd5b81019080805190602001909291905050509650600195506115be8689611960565b9450601060008a73ffffffffffffffffffffffffffffffffffffffff1673ffffffffffffffffffffffffffffffffffffffff16815260200190815260200160002060008881526020019081526020016000205493508484019250600f6000898152602001908152602001600020549150600360009054906101000a900473ffffffffffffffffffffffffffffffffffffffff1673ffffffffffffffffffffffffffffffffffffffff16631d5f3dfc896040518263ffffffff167c010000000000000000000000000000000000000000000000000000000002815260040180828152602001915050602060405180830381600087803b1580156116bf57600080fd5b505af11580156116d3573d6000803e3d6000fd5b505050506040513d60208110156116e957600080fd5b8101908080519060200190929190505050905082601060008b73ffffffffffffffffffffffffffffffffffffffff1673ffffffffffffffffffffffffffffffffffffffff1681526020019081526020016000206000898152602001908152602001600020819055508183101580156117615750804210155b156118195761176f89611a90565b600360009054906101000a900473ffffffffffffffffffffffffffffffffffffffff1673ffffffffffffffffffffffffffffffffffffffff1663cb47f760896040518263ffffffff167c010000000000000000000000000000000000000000000000000000000002815260040180828152602001915050600060405180830381600087803b15801561180057600080fd5b505af1158015611814573d6000803e3d6000fd5b505050505b505050505050505050565b60006305a48fba600a54014210151561185d576002600b5481151561184557fe5b04600b8190555042600a81905550600b549050611863565b600b5490505b90565b600073ffffffffffffffffffffffffffffffffffffffff168173ffffffffffffffffffffffffffffffffffffffff16141515156118a257600080fd5b8073ffffffffffffffffffffffffffffffffffffffff166000809054906101000a900473ffffffffffffffffffffffffffffffffffffffff1673ffffffffffffffffffffffffffffffffffffffff167f8be0079c531659141344cd1fd0a4f28419497f9722a3daafe3b4186f6b6457e060405160405180910390a3806000806101000a81548173ffffffffffffffffffffffffffffffffffffffff021916908373ffffffffffffffffffffffffffffffffffffffff16021790555050565b6000806000806000600460009054906101000a900473ffffffffffffffffffffffffffffffffffffffff1673ffffffffffffffffffffffffffffffffffffffff166330255eb533886040518363ffffffff167c0100000000000000000000000000000000000000000000000000000000028152600401808373ffffffffffffffffffffffffffffffffffffffff1673ffffffffffffffffffffffffffffffffffffffff16815260200182815260200192505050602060405180830381600087803b158015611a2d57600080fd5b505af1158015611a41573d6000803e3d6000fd5b505050506040513d6020811015611a5757600080fd5b81019080805190602001909291905050509350600a87811515611a7657fe5b049250838302915081870190508094505050505092915050565b6000806000806000600460009054906101000a900473ffffffffffffffffffffffffffffffffffffffff1673ffffffffffffffffffffffffffffffffffffffff1663dbe10d51876040518263ffffffff167c0100000000000000000000000000000000000000000000000000000000028152600401808273ffffffffffffffffffffffffffffffffffffffff1673ffffffffffffffffffffffffffffffffffffffff168152602001915050602060405180830381600087803b158015611b5557600080fd5b505af1158015611b69573d6000803e3d6000fd5b505050506040513d6020811015611b7f57600080fd5b81019080805190602001909291905050509450600460009054906101000a900473ffffffffffffffffffffffffffffffffffffffff1673ffffffffffffffffffffffffffffffffffffffff1663bb788457876040518263ffffffff167c0100000000000000000000000000000000000000000000000000000000028152600401808273ffffffffffffffffffffffffffffffffffffffff1673ffffffffffffffffffffffffffffffffffffffff168152602001915050602060405180830381600087803b158015611c4f57600080fd5b505af1158015611c63573d6000803e3d6000fd5b505050506040513d6020811015611c7957600080fd5b81019080805190602001909291905050509350600460009054906101000a900473ffffffffffffffffffffffffffffffffffffffff1673ffffffffffffffffffffffffffffffffffffffff166388556ddc876040518263ffffffff167c0100000000000000000000000000000000000000000000000000000000028152600401808273ffffffffffffffffffffffffffffffffffffffff1673ffffffffffffffffffffffffffffffffffffffff168152602001915050602060405180830381600087803b158015611d4957600080fd5b505af1158015611d5d573d6000803e3d6000fd5b505050506040513d6020811015611d7357600080fd5b81019080805190602001909291905050509250600460009054906101000a900473ffffffffffffffffffffffffffffffffffffffff1673ffffffffffffffffffffffffffffffffffffffff1663eb61e371876040518263ffffffff167c0100000000000000000000000000000000000000000000000000000000028152600401808273ffffffffffffffffffffffffffffffffffffffff1673ffffffffffffffffffffffffffffffffffffffff168152602001915050602060405180830381600087803b158015611e4357600080fd5b505af1158015611e57573d6000803e3d6000fd5b505050506040513d6020811015611e6d57600080fd5b81019080805190602001909291905050509150600360009054906101000a900473ffffffffffffffffffffffffffffffffffffffff1673ffffffffffffffffffffffffffffffffffffffff1663d4f69b68846040518263ffffffff167c010000000000000000000000000000000000000000000000000000000002815260040180828152602001915050602060405180830381600087803b158015611f1157600080fd5b505af1158015611f25573d6000803e3d6000fd5b505050506040513d6020811015611f3b57600080fd5b810190808051906020019092919050505090508181039050611f5d8184611960565b9050600960008154809291906001019190505550600560009054906101000a900473ffffffffffffffffffffffffffffffffffffffff1673ffffffffffffffffffffffffffffffffffffffff1663d99e98fb866040518263ffffffff167c0100000000000000000000000000000000000000000000000000000000028152600401808273ffffffffffffffffffffffffffffffffffffffff1673ffffffffffffffffffffffffffffffffffffffff168152602001915050600060405180830381600087803b15801561202e57600080fd5b505af1158015612042573d6000803e3d6000fd5b50505050600260009054906101000a900473ffffffffffffffffffffffffffffffffffffffff1673ffffffffffffffffffffffffffffffffffffffff16631f471ad086836040518363ffffffff167c0100000000000000000000000000000000000000000000000000000000028152600401808373ffffffffffffffffffffffffffffffffffffffff1673ffffffffffffffffffffffffffffffffffffffff16815260200182815260200192505050600060405180830381600087803b15801561210b57600080fd5b505af115801561211f573d6000803e3d6000fd5b50505050600260009054906101000a900473ffffffffffffffffffffffffffffffffffffffff1673ffffffffffffffffffffffffffffffffffffffff16631f471ad085846040518363ffffffff167c0100000000000000000000000000000000000000000000000000000000028152600401808373ffffffffffffffffffffffffffffffffffffffff1673ffffffffffffffffffffffffffffffffffffffff16815260200182815260200192505050600060405180830381600087803b1580156121e857600080fd5b505af11580156121fc573d6000803e3d6000fd5b505050505050505050505600a165627a7a7230582074e798f0b9f06a2afba955c5bbb96ef2aa552d1054eb6317782efca892d13e6d0029",
  "source": "pragma solidity ^0.4.21;\nimport \"./RBLogic.sol\";\n\ncontract UseLogic is RBLogic {\n\nfunction generateGlobalUseBlock(address _rep) internal {\n  address repOwnerAddress = RBG.getOwnersAddress(_rep);\n//sets repOwnerAddress as a specific replications owner from a rep struct\n  address inventor = RBG.getInventorsAddress(_rep);\n//sets inventor as a specific idea owner from a rep struct\n  uint ideaID = RBG.getIdeaID(_rep);\n//sets ideaID as a specific replications ideaID from a rep struct\n  uint royalty = RBG.getRoyalty(_rep);\n//sets royalty as a specific replications royalty from a rep struct\n  uint BlockReward = IBG.getGlobalUseBlockAmount(ideaID);\n//sets BlockReward as the block reward for a specific idea\n  BlockReward = BlockReward - royalty;\n//stes BlockReward equal to itself minus the royalty\n  BlockReward = calculatePromo(BlockReward, ideaID);\n//calculates BlockReward according to promotion status of a member\n  globalUseBlock++;\n//increments global use block counter\n  GUBG._generateGUSBlock(repOwnerAddress);\n  DCPoA.proxyMint(repOwnerAddress, BlockReward);\n//mints the replication Owner his block reward\n  DCPoA.proxyMint(inventor, royalty);\n//mints royalties to the idea inventor\n\n}\n\nfunction generateUseBlockWeight() public onlyReplication {\naddress _rep = msg.sender;\nUseBlockWeight(_rep);\n}\n\n\nfunction UseBlockWeight(address _rep) internal {\n\n  uint ideaID = RBG.getIdeaID(_rep);\n//sets ideaID as a specific ideaID from the replications struct\n  uint repID = RBG.getRepID(_rep);\n//sets repID as a specific replications id from the replications struct\n  uint _blockReward = 1;\n//sets _blockReward equal to one\n  uint _amount = calculatePromo(_blockReward, ideaID);\n//sets _amount equal to the calculated block reward dependant upon promotion level of the replicator\n  uint weight = localWeightTracker[_rep][repID];\n// sets weight equal to the current weight of a specific replication\n  uint newWeight = weight + _amount;\n// increases the weight of a specific replication\n  uint globalWeight = weightTracker[ideaID];\n//sets globalWeight as the current highest weight for a specific idea\n  uint timeLord = IBG.getMiningTime(ideaID);\n  localWeightTracker[_rep][repID] = newWeight;\n//sets the newWeight for that specific replication\n  if(newWeight >= globalWeight && now >= timeLord) {\n//checks if the replication has the heaviest weight\n    generateGlobalUseBlock(_rep);\n//if it does it generates a global use block\n    IBG.setMiningTime(ideaID);\n//resets the global mining time for a specific idea after a useBlock is mined\n    }\n  }\n}\n",
  "sourcePath": "/home/stan36/repos/DecentraCorp/contracts/CryptoPatent/UseLogic.sol",
  "compiler": {
    "name": "solc",
    "version": "0.4.24+commit.e67f0147.Emscripten.clang"
  },
  "schemaVersion": "2.0.1",
  "updatedAt": "2018-11-04T16:12:47.869Z"
}